{
	"CompanyLotteries.sol": {
		"CompanyLottery": {
			"abi": [
				{
					"inputs": [
						{
							"internalType": "address",
							"name": "_ticketTokenAddress",
							"type": "address"
						}
					],
					"stateMutability": "nonpayable",
					"type": "constructor"
				},
				{
					"anonymous": false,
					"inputs": [
						{
							"indexed": false,
							"internalType": "uint256",
							"name": "lotteryNo",
							"type": "uint256"
						},
						{
							"indexed": false,
							"internalType": "uint256",
							"name": "unixbeg",
							"type": "uint256"
						},
						{
							"indexed": false,
							"internalType": "uint256",
							"name": "nooftickets",
							"type": "uint256"
						}
					],
					"name": "LotteryCreated",
					"type": "event"
				},
				{
					"anonymous": false,
					"inputs": [
						{
							"indexed": false,
							"internalType": "uint256",
							"name": "lotteryNo",
							"type": "uint256"
						},
						{
							"indexed": false,
							"internalType": "uint256",
							"name": "ticketNo",
							"type": "uint256"
						},
						{
							"indexed": false,
							"internalType": "uint256",
							"name": "rnd_number",
							"type": "uint256"
						}
					],
					"name": "RandomNumberRevealed",
					"type": "event"
				},
				{
					"anonymous": false,
					"inputs": [
						{
							"indexed": false,
							"internalType": "uint256",
							"name": "lotteryNo",
							"type": "uint256"
						},
						{
							"indexed": false,
							"internalType": "uint256",
							"name": "ticketNo",
							"type": "uint256"
						},
						{
							"indexed": false,
							"internalType": "uint256",
							"name": "quantity",
							"type": "uint256"
						}
					],
					"name": "TicketPurchased",
					"type": "event"
				},
				{
					"anonymous": false,
					"inputs": [
						{
							"indexed": false,
							"internalType": "uint256",
							"name": "lotteryNo",
							"type": "uint256"
						},
						{
							"indexed": false,
							"internalType": "uint256",
							"name": "winningTicketNo",
							"type": "uint256"
						}
					],
					"name": "WinnerDeclared",
					"type": "event"
				},
				{
					"inputs": [
						{
							"internalType": "uint256",
							"name": "quantity",
							"type": "uint256"
						},
						{
							"internalType": "bytes32",
							"name": "hash_rnd_number",
							"type": "bytes32"
						}
					],
					"name": "buyTicketTx",
					"outputs": [
						{
							"internalType": "uint256",
							"name": "sticketno",
							"type": "uint256"
						}
					],
					"stateMutability": "nonpayable",
					"type": "function"
				},
				{
					"inputs": [
						{
							"internalType": "address",
							"name": "addr",
							"type": "address"
						},
						{
							"internalType": "uint256",
							"name": "lotteryNo",
							"type": "uint256"
						},
						{
							"internalType": "uint256",
							"name": "ticketNo",
							"type": "uint256"
						}
					],
					"name": "checkIfAddrTicketWon",
					"outputs": [
						{
							"internalType": "bool",
							"name": "won",
							"type": "bool"
						}
					],
					"stateMutability": "view",
					"type": "function"
				},
				{
					"inputs": [
						{
							"internalType": "uint256",
							"name": "lotteryNo",
							"type": "uint256"
						},
						{
							"internalType": "uint256",
							"name": "ticketNo",
							"type": "uint256"
						}
					],
					"name": "checkIfMyTicketWon",
					"outputs": [
						{
							"internalType": "bool",
							"name": "won",
							"type": "bool"
						}
					],
					"stateMutability": "view",
					"type": "function"
				},
				{
					"inputs": [
						{
							"internalType": "uint256",
							"name": "unixbeg",
							"type": "uint256"
						},
						{
							"internalType": "uint256",
							"name": "nooftickets",
							"type": "uint256"
						},
						{
							"internalType": "uint256",
							"name": "noofwinners",
							"type": "uint256"
						},
						{
							"internalType": "uint256",
							"name": "minpercentage",
							"type": "uint256"
						},
						{
							"internalType": "uint256",
							"name": "ticketprice",
							"type": "uint256"
						},
						{
							"internalType": "bytes32",
							"name": "htmlhash",
							"type": "bytes32"
						},
						{
							"internalType": "string",
							"name": "url",
							"type": "string"
						}
					],
					"name": "createLottery",
					"outputs": [
						{
							"internalType": "uint256",
							"name": "lotteryNo",
							"type": "uint256"
						}
					],
					"stateMutability": "nonpayable",
					"type": "function"
				},
				{
					"inputs": [],
					"name": "currentLotteryNo",
					"outputs": [
						{
							"internalType": "uint256",
							"name": "",
							"type": "uint256"
						}
					],
					"stateMutability": "view",
					"type": "function"
				},
				{
					"inputs": [],
					"name": "getCurrentLotteryNo",
					"outputs": [
						{
							"internalType": "uint256",
							"name": "lotteryNo",
							"type": "uint256"
						}
					],
					"stateMutability": "view",
					"type": "function"
				},
				{
					"inputs": [
						{
							"internalType": "uint256",
							"name": "i",
							"type": "uint256"
						},
						{
							"internalType": "uint256",
							"name": "lotteryNo",
							"type": "uint256"
						}
					],
					"name": "getIthPurchasedTicketTx",
					"outputs": [
						{
							"internalType": "uint256",
							"name": "sticketno",
							"type": "uint256"
						},
						{
							"internalType": "uint256",
							"name": "quantity",
							"type": "uint256"
						},
						{
							"internalType": "address",
							"name": "participant",
							"type": "address"
						}
					],
					"stateMutability": "view",
					"type": "function"
				},
				{
					"inputs": [
						{
							"internalType": "uint256",
							"name": "lotteryNo",
							"type": "uint256"
						},
						{
							"internalType": "uint256",
							"name": "i",
							"type": "uint256"
						}
					],
					"name": "getIthWinningTicket",
					"outputs": [
						{
							"internalType": "uint256",
							"name": "ticketNo",
							"type": "uint256"
						}
					],
					"stateMutability": "view",
					"type": "function"
				},
				{
					"inputs": [
						{
							"internalType": "uint256",
							"name": "lotteryNo",
							"type": "uint256"
						}
					],
					"name": "getLotteryInfo",
					"outputs": [
						{
							"internalType": "uint256",
							"name": "unixbeg",
							"type": "uint256"
						},
						{
							"internalType": "uint256",
							"name": "nooftickets",
							"type": "uint256"
						},
						{
							"internalType": "uint256",
							"name": "noofwinners",
							"type": "uint256"
						},
						{
							"internalType": "uint256",
							"name": "minpercentage",
							"type": "uint256"
						},
						{
							"internalType": "uint256",
							"name": "ticketprice",
							"type": "uint256"
						}
					],
					"stateMutability": "view",
					"type": "function"
				},
				{
					"inputs": [
						{
							"internalType": "uint256",
							"name": "lotteryNo",
							"type": "uint256"
						}
					],
					"name": "getLotterySales",
					"outputs": [
						{
							"internalType": "uint256",
							"name": "numsold",
							"type": "uint256"
						}
					],
					"stateMutability": "view",
					"type": "function"
				},
				{
					"inputs": [
						{
							"internalType": "uint256",
							"name": "lotteryNo",
							"type": "uint256"
						}
					],
					"name": "getLotteryURL",
					"outputs": [
						{
							"internalType": "bytes32",
							"name": "htmlhash",
							"type": "bytes32"
						},
						{
							"internalType": "string",
							"name": "url",
							"type": "string"
						}
					],
					"stateMutability": "view",
					"type": "function"
				},
				{
					"inputs": [
						{
							"internalType": "uint256",
							"name": "lotteryNo",
							"type": "uint256"
						}
					],
					"name": "getNumPurchaseTxs",
					"outputs": [
						{
							"internalType": "uint256",
							"name": "numpurchasetxs",
							"type": "uint256"
						}
					],
					"stateMutability": "view",
					"type": "function"
				},
				{
					"inputs": [
						{
							"internalType": "uint256",
							"name": "lotteryNo",
							"type": "uint256"
						}
					],
					"name": "getPaymentToken",
					"outputs": [
						{
							"internalType": "address",
							"name": "ercTokenAddr",
							"type": "address"
						}
					],
					"stateMutability": "view",
					"type": "function"
				},
				{
					"inputs": [
						{
							"internalType": "uint256",
							"name": "",
							"type": "uint256"
						}
					],
					"name": "lotteries",
					"outputs": [
						{
							"internalType": "uint256",
							"name": "unixbeg",
							"type": "uint256"
						},
						{
							"internalType": "uint256",
							"name": "nooftickets",
							"type": "uint256"
						},
						{
							"internalType": "uint256",
							"name": "noofwinners",
							"type": "uint256"
						},
						{
							"internalType": "uint256",
							"name": "minpercentage",
							"type": "uint256"
						},
						{
							"internalType": "uint256",
							"name": "ticketprice",
							"type": "uint256"
						},
						{
							"internalType": "uint256",
							"name": "soldTickets",
							"type": "uint256"
						},
						{
							"internalType": "enum LotteryStructs.LotteryState",
							"name": "state",
							"type": "uint8"
						},
						{
							"internalType": "bytes32",
							"name": "htmlhash",
							"type": "bytes32"
						},
						{
							"internalType": "string",
							"name": "url",
							"type": "string"
						},
						{
							"internalType": "address",
							"name": "paymentToken",
							"type": "address"
						}
					],
					"stateMutability": "view",
					"type": "function"
				},
				{
					"inputs": [
						{
							"internalType": "uint256",
							"name": "",
							"type": "uint256"
						},
						{
							"internalType": "uint256",
							"name": "",
							"type": "uint256"
						}
					],
					"name": "lotteryTickets",
					"outputs": [
						{
							"internalType": "address",
							"name": "participant",
							"type": "address"
						},
						{
							"internalType": "uint256",
							"name": "quantity",
							"type": "uint256"
						},
						{
							"internalType": "bytes32",
							"name": "hash_rnd_number",
							"type": "bytes32"
						},
						{
							"internalType": "bool",
							"name": "revealed",
							"type": "bool"
						}
					],
					"stateMutability": "view",
					"type": "function"
				},
				{
					"inputs": [],
					"name": "owner",
					"outputs": [
						{
							"internalType": "address",
							"name": "",
							"type": "address"
						}
					],
					"stateMutability": "view",
					"type": "function"
				},
				{
					"inputs": [
						{
							"internalType": "uint256",
							"name": "sticketno",
							"type": "uint256"
						},
						{
							"internalType": "uint256",
							"name": "quantity",
							"type": "uint256"
						},
						{
							"internalType": "uint256",
							"name": "rnd_number",
							"type": "uint256"
						}
					],
					"name": "revealRndNumberTx",
					"outputs": [],
					"stateMutability": "nonpayable",
					"type": "function"
				},
				{
					"inputs": [
						{
							"internalType": "address",
							"name": "ercTokenAddr",
							"type": "address"
						}
					],
					"name": "setPaymentToken",
					"outputs": [],
					"stateMutability": "nonpayable",
					"type": "function"
				},
				{
					"inputs": [
						{
							"internalType": "uint256",
							"name": "",
							"type": "uint256"
						},
						{
							"internalType": "uint256",
							"name": "",
							"type": "uint256"
						}
					],
					"name": "ticketPurchaseQuantities",
					"outputs": [
						{
							"internalType": "uint256",
							"name": "",
							"type": "uint256"
						}
					],
					"stateMutability": "view",
					"type": "function"
				},
				{
					"inputs": [],
					"name": "ticketToken",
					"outputs": [
						{
							"internalType": "contract TicketToken",
							"name": "",
							"type": "address"
						}
					],
					"stateMutability": "view",
					"type": "function"
				},
				{
					"inputs": [
						{
							"internalType": "uint256",
							"name": "lotteryNo",
							"type": "uint256"
						}
					],
					"name": "withdrawTicketProceeds",
					"outputs": [],
					"stateMutability": "nonpayable",
					"type": "function"
				},
				{
					"inputs": [
						{
							"internalType": "uint256",
							"name": "lotteryNo",
							"type": "uint256"
						},
						{
							"internalType": "uint256",
							"name": "sticketNo",
							"type": "uint256"
						}
					],
					"name": "withdrawTicketRefund",
					"outputs": [],
					"stateMutability": "nonpayable",
					"type": "function"
				}
			],
			"devdoc": {
				"kind": "dev",
				"methods": {},
				"version": 1
			},
			"evm": {
				"assembly": "    /* \"CompanyLotteries.sol\":488:7185  contract CompanyLottery {... */\n  mstore(0x40, 0x80)\n    /* \"CompanyLotteries.sol\":1488:1620  constructor(address _ticketTokenAddress) {... */\n  callvalue\n  dup1\n  iszero\n  tag_1\n  jumpi\n  0x00\n  dup1\n  revert\ntag_1:\n  pop\n  mload(0x40)\n  sub(codesize, bytecodeSize)\n  dup1\n  bytecodeSize\n  dup4\n  codecopy\n  dup2\n  dup2\n  add\n  0x40\n  mstore\n  dup2\n  add\n  swap1\n  tag_2\n  swap2\n  swap1\n  tag_3\n  jump\t// in\ntag_2:\n    /* \"CompanyLotteries.sol\":1547:1557  msg.sender */\n  caller\n    /* \"CompanyLotteries.sol\":1539:1544  owner */\n  0x01\n  0x00\n    /* \"CompanyLotteries.sol\":1539:1557  owner = msg.sender */\n  0x0100\n  exp\n  dup2\n  sload\n  dup2\n  0xffffffffffffffffffffffffffffffffffffffff\n  mul\n  not\n  and\n  swap1\n  dup4\n  0xffffffffffffffffffffffffffffffffffffffff\n  and\n  mul\n  or\n  swap1\n  sstore\n  pop\n    /* \"CompanyLotteries.sol\":1593:1612  _ticketTokenAddress */\n  dup1\n    /* \"CompanyLotteries.sol\":1567:1578  ticketToken */\n  0x00\n  dup1\n    /* \"CompanyLotteries.sol\":1567:1613  ticketToken = TicketToken(_ticketTokenAddress) */\n  0x0100\n  exp\n  dup2\n  sload\n  dup2\n  0xffffffffffffffffffffffffffffffffffffffff\n  mul\n  not\n  and\n  swap1\n  dup4\n  0xffffffffffffffffffffffffffffffffffffffff\n  and\n  mul\n  or\n  swap1\n  sstore\n  pop\n    /* \"CompanyLotteries.sol\":1488:1620  constructor(address _ticketTokenAddress) {... */\n  pop\n    /* \"CompanyLotteries.sol\":488:7185  contract CompanyLottery {... */\n  jump(tag_6)\n    /* \"#utility.yul\":88:205   */\ntag_8:\n    /* \"#utility.yul\":197:198   */\n  0x00\n    /* \"#utility.yul\":194:195   */\n  dup1\n    /* \"#utility.yul\":187:199   */\n  revert\n    /* \"#utility.yul\":334:460   */\ntag_10:\n    /* \"#utility.yul\":371:378   */\n  0x00\n    /* \"#utility.yul\":411:453   */\n  0xffffffffffffffffffffffffffffffffffffffff\n    /* \"#utility.yul\":404:409   */\n  dup3\n    /* \"#utility.yul\":400:454   */\n  and\n    /* \"#utility.yul\":389:454   */\n  swap1\n  pop\n    /* \"#utility.yul\":334:460   */\n  swap2\n  swap1\n  pop\n  jump\t// out\n    /* \"#utility.yul\":466:562   */\ntag_11:\n    /* \"#utility.yul\":503:510   */\n  0x00\n    /* \"#utility.yul\":532:556   */\n  tag_20\n    /* \"#utility.yul\":550:555   */\n  dup3\n    /* \"#utility.yul\":532:556   */\n  tag_10\n  jump\t// in\ntag_20:\n    /* \"#utility.yul\":521:556   */\n  swap1\n  pop\n    /* \"#utility.yul\":466:562   */\n  swap2\n  swap1\n  pop\n  jump\t// out\n    /* \"#utility.yul\":568:690   */\ntag_12:\n    /* \"#utility.yul\":641:665   */\n  tag_22\n    /* \"#utility.yul\":659:664   */\n  dup2\n    /* \"#utility.yul\":641:665   */\n  tag_11\n  jump\t// in\ntag_22:\n    /* \"#utility.yul\":634:639   */\n  dup2\n    /* \"#utility.yul\":631:666   */\n  eq\n    /* \"#utility.yul\":621:684   */\n  tag_23\n  jumpi\n    /* \"#utility.yul\":680:681   */\n  0x00\n    /* \"#utility.yul\":677:678   */\n  dup1\n    /* \"#utility.yul\":670:682   */\n  revert\n    /* \"#utility.yul\":621:684   */\ntag_23:\n    /* \"#utility.yul\":568:690   */\n  pop\n  jump\t// out\n    /* \"#utility.yul\":696:839   */\ntag_13:\n    /* \"#utility.yul\":753:758   */\n  0x00\n    /* \"#utility.yul\":784:790   */\n  dup2\n    /* \"#utility.yul\":778:791   */\n  mload\n    /* \"#utility.yul\":769:791   */\n  swap1\n  pop\n    /* \"#utility.yul\":800:833   */\n  tag_25\n    /* \"#utility.yul\":827:832   */\n  dup2\n    /* \"#utility.yul\":800:833   */\n  tag_12\n  jump\t// in\ntag_25:\n    /* \"#utility.yul\":696:839   */\n  swap3\n  swap2\n  pop\n  pop\n  jump\t// out\n    /* \"#utility.yul\":845:1196   */\ntag_3:\n    /* \"#utility.yul\":915:921   */\n  0x00\n    /* \"#utility.yul\":964:966   */\n  0x20\n    /* \"#utility.yul\":952:961   */\n  dup3\n    /* \"#utility.yul\":943:950   */\n  dup5\n    /* \"#utility.yul\":939:962   */\n  sub\n    /* \"#utility.yul\":935:967   */\n  slt\n    /* \"#utility.yul\":932:1051   */\n  iszero\n  tag_27\n  jumpi\n    /* \"#utility.yul\":970:1049   */\n  tag_28\n  tag_8\n  jump\t// in\ntag_28:\n    /* \"#utility.yul\":932:1051   */\ntag_27:\n    /* \"#utility.yul\":1090:1091   */\n  0x00\n    /* \"#utility.yul\":1115:1179   */\n  tag_29\n    /* \"#utility.yul\":1171:1178   */\n  dup5\n    /* \"#utility.yul\":1162:1168   */\n  dup3\n    /* \"#utility.yul\":1151:1160   */\n  dup6\n    /* \"#utility.yul\":1147:1169   */\n  add\n    /* \"#utility.yul\":1115:1179   */\n  tag_13\n  jump\t// in\ntag_29:\n    /* \"#utility.yul\":1105:1179   */\n  swap2\n  pop\n    /* \"#utility.yul\":1061:1189   */\n  pop\n    /* \"#utility.yul\":845:1196   */\n  swap3\n  swap2\n  pop\n  pop\n  jump\t// out\n    /* \"CompanyLotteries.sol\":488:7185  contract CompanyLottery {... */\ntag_6:\n  dataSize(sub_0)\n  dup1\n  dataOffset(sub_0)\n  0x00\n  codecopy\n  0x00\n  return\nstop\n\nsub_0: assembly {\n        /* \"CompanyLotteries.sol\":488:7185  contract CompanyLottery {... */\n      mstore(0x40, 0x80)\n      callvalue\n      dup1\n      iszero\n      tag_1\n      jumpi\n      0x00\n      dup1\n      revert\n    tag_1:\n      pop\n      jumpi(tag_2, lt(calldatasize, 0x04))\n      shr(0xe0, calldataload(0x00))\n      dup1\n      0x7df858db\n      gt\n      tag_25\n      jumpi\n      dup1\n      0xadc51cdb\n      gt\n      tag_26\n      jumpi\n      dup1\n      0xadc51cdb\n      eq\n      tag_19\n      jumpi\n      dup1\n      0xcc42a7c5\n      eq\n      tag_20\n      jumpi\n      dup1\n      0xcdc2aebf\n      eq\n      tag_21\n      jumpi\n      dup1\n      0xd5ed4d5a\n      eq\n      tag_22\n      jumpi\n      dup1\n      0xdc969f22\n      eq\n      tag_23\n      jumpi\n      dup1\n      0xe54778b5\n      eq\n      tag_24\n      jumpi\n      jump(tag_2)\n    tag_26:\n      dup1\n      0x7df858db\n      eq\n      tag_14\n      jumpi\n      dup1\n      0x89b2acbc\n      eq\n      tag_15\n      jumpi\n      dup1\n      0x8da5cb5b\n      eq\n      tag_16\n      jumpi\n      dup1\n      0x9351e76b\n      eq\n      tag_17\n      jumpi\n      dup1\n      0xad943d1e\n      eq\n      tag_18\n      jumpi\n      jump(tag_2)\n    tag_25:\n      dup1\n      0x5b7b3d58\n      gt\n      tag_27\n      jumpi\n      dup1\n      0x5b7b3d58\n      eq\n      tag_8\n      jumpi\n      dup1\n      0x5bddbaac\n      eq\n      tag_9\n      jumpi\n      dup1\n      0x687e47d8\n      eq\n      tag_10\n      jumpi\n      dup1\n      0x6a326ab1\n      eq\n      tag_11\n      jumpi\n      dup1\n      0x73300f8a\n      eq\n      tag_12\n      jumpi\n      dup1\n      0x76b3c8a8\n      eq\n      tag_13\n      jumpi\n      jump(tag_2)\n    tag_27:\n      dup1\n      0x0400f4d0\n      eq\n      tag_3\n      jumpi\n      dup1\n      0x12b349d5\n      eq\n      tag_4\n      jumpi\n      dup1\n      0x1398e076\n      eq\n      tag_5\n      jumpi\n      dup1\n      0x27ea8dc2\n      eq\n      tag_6\n      jumpi\n      dup1\n      0x49c0de88\n      eq\n      tag_7\n      jumpi\n    tag_2:\n      0x00\n      dup1\n      revert\n        /* \"CompanyLotteries.sol\":846:874  uint public currentLotteryNo */\n    tag_3:\n      tag_28\n      tag_29\n      jump\t// in\n    tag_28:\n      mload(0x40)\n      tag_30\n      swap2\n      swap1\n      tag_31\n      jump\t// in\n    tag_30:\n      mload(0x40)\n      dup1\n      swap2\n      sub\n      swap1\n      return\n        /* \"CompanyLotteries.sol\":5192:5360  function checkIfMyTicketWon(uint lotteryNo, uint ticketNo) public view returns (bool won) {... */\n    tag_4:\n      tag_32\n      0x04\n      dup1\n      calldatasize\n      sub\n      dup2\n      add\n      swap1\n      tag_33\n      swap2\n      swap1\n      tag_34\n      jump\t// in\n    tag_33:\n      tag_35\n      jump\t// in\n    tag_32:\n      mload(0x40)\n      tag_36\n      swap2\n      swap1\n      tag_37\n      jump\t// in\n    tag_36:\n      mload(0x40)\n      dup1\n      swap2\n      sub\n      swap1\n      return\n        /* \"CompanyLotteries.sol\":880:940  mapping(uint => LotteryStructs.LotteryInfo) public lotteries */\n    tag_5:\n      tag_38\n      0x04\n      dup1\n      calldatasize\n      sub\n      dup2\n      add\n      swap1\n      tag_39\n      swap2\n      swap1\n      tag_40\n      jump\t// in\n    tag_39:\n      tag_41\n      jump\t// in\n    tag_38:\n      mload(0x40)\n      tag_42\n      swap11\n      swap10\n      swap9\n      swap8\n      swap7\n      swap6\n      swap5\n      swap4\n      swap3\n      swap2\n      swap1\n      tag_43\n      jump\t// in\n    tag_42:\n      mload(0x40)\n      dup1\n      swap2\n      sub\n      swap1\n      return\n        /* \"CompanyLotteries.sol\":2781:3861  function buyTicketTx(uint quantity, bytes32 hash_rnd_number) public returns (uint sticketno) {... */\n    tag_6:\n      tag_44\n      0x04\n      dup1\n      calldatasize\n      sub\n      dup2\n      add\n      swap1\n      tag_45\n      swap2\n      swap1\n      tag_46\n      jump\t// in\n    tag_45:\n      tag_47\n      jump\t// in\n    tag_44:\n      mload(0x40)\n      tag_48\n      swap2\n      swap1\n      tag_31\n      jump\t// in\n    tag_48:\n      mload(0x40)\n      dup1\n      swap2\n      sub\n      swap1\n      return\n        /* \"CompanyLotteries.sol\":987:1053  mapping(uint => LotteryStructs.TicketInfo[]) public lotteryTickets */\n    tag_7:\n      tag_49\n      0x04\n      dup1\n      calldatasize\n      sub\n      dup2\n      add\n      swap1\n      tag_50\n      swap2\n      swap1\n      tag_34\n      jump\t// in\n    tag_50:\n      tag_51\n      jump\t// in\n    tag_49:\n      mload(0x40)\n      tag_52\n      swap5\n      swap4\n      swap3\n      swap2\n      swap1\n      tag_53\n      jump\t// in\n    tag_52:\n      mload(0x40)\n      dup1\n      swap2\n      sub\n      swap1\n      return\n        /* \"CompanyLotteries.sol\":5814:5922  function getCurrentLotteryNo() public view returns (uint lotteryNo) {... */\n    tag_8:\n      tag_54\n      tag_55\n      jump\t// in\n    tag_54:\n      mload(0x40)\n      tag_56\n      swap2\n      swap1\n      tag_31\n      jump\t// in\n    tag_56:\n      mload(0x40)\n      dup1\n      swap2\n      sub\n      swap1\n      return\n        /* \"CompanyLotteries.sol\":5366:5530  function checkIfAddrTicketWon(address addr, uint lotteryNo, uint ticketNo) public view returns (bool won) {... */\n    tag_9:\n      tag_57\n      0x04\n      dup1\n      calldatasize\n      sub\n      dup2\n      add\n      swap1\n      tag_58\n      swap2\n      swap1\n      tag_59\n      jump\t// in\n    tag_58:\n      tag_60\n      jump\t// in\n    tag_57:\n      mload(0x40)\n      tag_61\n      swap2\n      swap1\n      tag_37\n      jump\t// in\n    tag_61:\n      mload(0x40)\n      dup1\n      swap2\n      sub\n      swap1\n      return\n        /* \"CompanyLotteries.sol\":5680:5808  function withdrawTicketRefund(uint lotteryNo, uint sticketNo) public {... */\n    tag_10:\n      tag_62\n      0x04\n      dup1\n      calldatasize\n      sub\n      dup2\n      add\n      swap1\n      tag_63\n      swap2\n      swap1\n      tag_34\n      jump\t// in\n    tag_63:\n      tag_64\n      jump\t// in\n    tag_62:\n      stop\n        /* \"CompanyLotteries.sol\":6056:6262  function setPaymentToken(address ercTokenAddr) public onlyOwner {... */\n    tag_11:\n      tag_65\n      0x04\n      dup1\n      calldatasize\n      sub\n      dup2\n      add\n      swap1\n      tag_66\n      swap2\n      swap1\n      tag_67\n      jump\t// in\n    tag_66:\n      tag_68\n      jump\t// in\n    tag_65:\n      stop\n        /* \"CompanyLotteries.sol\":1119:1189  mapping(uint => mapping(uint => uint)) public ticketPurchaseQuantities */\n    tag_12:\n      tag_69\n      0x04\n      dup1\n      calldatasize\n      sub\n      dup2\n      add\n      swap1\n      tag_70\n      swap2\n      swap1\n      tag_34\n      jump\t// in\n    tag_70:\n      tag_71\n      jump\t// in\n    tag_69:\n      mload(0x40)\n      tag_72\n      swap2\n      swap1\n      tag_31\n      jump\t// in\n    tag_72:\n      mload(0x40)\n      dup1\n      swap2\n      sub\n      swap1\n      return\n        /* \"CompanyLotteries.sol\":6415:6812  function getLotteryInfo(uint lotteryNo) public view returns (... */\n    tag_13:\n      tag_73\n      0x04\n      dup1\n      calldatasize\n      sub\n      dup2\n      add\n      swap1\n      tag_74\n      swap2\n      swap1\n      tag_40\n      jump\t// in\n    tag_74:\n      tag_75\n      jump\t// in\n    tag_73:\n      mload(0x40)\n      tag_76\n      swap6\n      swap5\n      swap4\n      swap3\n      swap2\n      swap1\n      tag_77\n      jump\t// in\n    tag_76:\n      mload(0x40)\n      dup1\n      swap2\n      sub\n      swap1\n      return\n        /* \"CompanyLotteries.sol\":1750:2775  function createLottery(... */\n    tag_14:\n      tag_78\n      0x04\n      dup1\n      calldatasize\n      sub\n      dup2\n      add\n      swap1\n      tag_79\n      swap2\n      swap1\n      tag_80\n      jump\t// in\n    tag_79:\n      tag_81\n      jump\t// in\n    tag_78:\n      mload(0x40)\n      tag_82\n      swap2\n      swap1\n      tag_31\n      jump\t// in\n    tag_82:\n      mload(0x40)\n      dup1\n      swap2\n      sub\n      swap1\n      return\n        /* \"CompanyLotteries.sol\":4834:5186  function getIthPurchasedTicketTx(uint i, uint lotteryNo) public view returns (uint sticketno, uint quantity, address participant) {... */\n    tag_15:\n      tag_83\n      0x04\n      dup1\n      calldatasize\n      sub\n      dup2\n      add\n      swap1\n      tag_84\n      swap2\n      swap1\n      tag_34\n      jump\t// in\n    tag_84:\n      tag_85\n      jump\t// in\n    tag_83:\n      mload(0x40)\n      tag_86\n      swap4\n      swap3\n      swap2\n      swap1\n      tag_87\n      jump\t// in\n    tag_86:\n      mload(0x40)\n      dup1\n      swap2\n      sub\n      swap1\n      return\n        /* \"CompanyLotteries.sol\":820:840  address public owner */\n    tag_16:\n      tag_88\n      tag_89\n      jump\t// in\n    tag_88:\n      mload(0x40)\n      tag_90\n      swap2\n      swap1\n      tag_91\n      jump\t// in\n    tag_90:\n      mload(0x40)\n      dup1\n      swap2\n      sub\n      swap1\n      return\n        /* \"CompanyLotteries.sol\":3867:4681  function revealRndNumberTx(uint sticketno, uint quantity, uint rnd_number) public {... */\n    tag_17:\n      tag_92\n      0x04\n      dup1\n      calldatasize\n      sub\n      dup2\n      add\n      swap1\n      tag_93\n      swap2\n      swap1\n      tag_94\n      jump\t// in\n    tag_93:\n      tag_95\n      jump\t// in\n    tag_92:\n      stop\n        /* \"CompanyLotteries.sol\":5928:6050  function withdrawTicketProceeds(uint lotteryNo) public onlyOwner {... */\n    tag_18:\n      tag_96\n      0x04\n      dup1\n      calldatasize\n      sub\n      dup2\n      add\n      swap1\n      tag_97\n      swap2\n      swap1\n      tag_40\n      jump\t// in\n    tag_97:\n      tag_98\n      jump\t// in\n    tag_96:\n      stop\n        /* \"CompanyLotteries.sol\":4687:4828  function getNumPurchaseTxs(uint lotteryNo) public view returns (uint numpurchasetxs) {... */\n    tag_19:\n      tag_99\n      0x04\n      dup1\n      calldatasize\n      sub\n      dup2\n      add\n      swap1\n      tag_100\n      swap2\n      swap1\n      tag_40\n      jump\t// in\n    tag_100:\n      tag_101\n      jump\t// in\n    tag_99:\n      mload(0x40)\n      tag_102\n      swap2\n      swap1\n      tag_31\n      jump\t// in\n    tag_102:\n      mload(0x40)\n      dup1\n      swap2\n      sub\n      swap1\n      return\n        /* \"CompanyLotteries.sol\":7051:7183  function getLotterySales(uint lotteryNo) public view returns (uint numsold) {... */\n    tag_20:\n      tag_103\n      0x04\n      dup1\n      calldatasize\n      sub\n      dup2\n      add\n      swap1\n      tag_104\n      swap2\n      swap1\n      tag_40\n      jump\t// in\n    tag_104:\n      tag_105\n      jump\t// in\n    tag_103:\n      mload(0x40)\n      tag_106\n      swap2\n      swap1\n      tag_31\n      jump\t// in\n    tag_106:\n      mload(0x40)\n      dup1\n      swap2\n      sub\n      swap1\n      return\n        /* \"CompanyLotteries.sol\":6268:6409  function getPaymentToken(uint lotteryNo) public view returns (address ercTokenAddr) {... */\n    tag_21:\n      tag_107\n      0x04\n      dup1\n      calldatasize\n      sub\n      dup2\n      add\n      swap1\n      tag_108\n      swap2\n      swap1\n      tag_40\n      jump\t// in\n    tag_108:\n      tag_109\n      jump\t// in\n    tag_107:\n      mload(0x40)\n      tag_110\n      swap2\n      swap1\n      tag_91\n      jump\t// in\n    tag_110:\n      mload(0x40)\n      dup1\n      swap2\n      sub\n      swap1\n      return\n        /* \"CompanyLotteries.sol\":784:814  TicketToken public ticketToken */\n    tag_22:\n      tag_111\n      tag_112\n      jump\t// in\n    tag_111:\n      mload(0x40)\n      tag_113\n      swap2\n      swap1\n      tag_114\n      jump\t// in\n    tag_113:\n      mload(0x40)\n      dup1\n      swap2\n      sub\n      swap1\n      return\n        /* \"CompanyLotteries.sol\":6818:7045  function getLotteryURL(uint lotteryNo) public view returns (bytes32 htmlhash, string memory url) {... */\n    tag_23:\n      tag_115\n      0x04\n      dup1\n      calldatasize\n      sub\n      dup2\n      add\n      swap1\n      tag_116\n      swap2\n      swap1\n      tag_40\n      jump\t// in\n    tag_116:\n      tag_117\n      jump\t// in\n    tag_115:\n      mload(0x40)\n      tag_118\n      swap3\n      swap2\n      swap1\n      tag_119\n      jump\t// in\n    tag_118:\n      mload(0x40)\n      dup1\n      swap2\n      sub\n      swap1\n      return\n        /* \"CompanyLotteries.sol\":5536:5674  function getIthWinningTicket(uint lotteryNo, uint i) public view returns (uint ticketNo) {... */\n    tag_24:\n      tag_120\n      0x04\n      dup1\n      calldatasize\n      sub\n      dup2\n      add\n      swap1\n      tag_121\n      swap2\n      swap1\n      tag_34\n      jump\t// in\n    tag_121:\n      tag_122\n      jump\t// in\n    tag_120:\n      mload(0x40)\n      tag_123\n      swap2\n      swap1\n      tag_31\n      jump\t// in\n    tag_123:\n      mload(0x40)\n      dup1\n      swap2\n      sub\n      swap1\n      return\n        /* \"CompanyLotteries.sol\":846:874  uint public currentLotteryNo */\n    tag_29:\n      sload(0x02)\n      dup2\n      jump\t// out\n        /* \"CompanyLotteries.sol\":5192:5360  function checkIfMyTicketWon(uint lotteryNo, uint ticketNo) public view returns (bool won) {... */\n    tag_35:\n        /* \"CompanyLotteries.sol\":5272:5280  bool won */\n      0x00\n        /* \"CompanyLotteries.sol\":5192:5360  function checkIfMyTicketWon(uint lotteryNo, uint ticketNo) public view returns (bool won) {... */\n      swap3\n      swap2\n      pop\n      pop\n      jump\t// out\n        /* \"CompanyLotteries.sol\":880:940  mapping(uint => LotteryStructs.LotteryInfo) public lotteries */\n    tag_41:\n      mstore(0x20, 0x03)\n      dup1\n      0x00\n      mstore\n      keccak256(0x00, 0x40)\n      0x00\n      swap2\n      pop\n      swap1\n      pop\n      dup1\n      0x00\n      add\n      sload\n      swap1\n      dup1\n      0x01\n      add\n      sload\n      swap1\n      dup1\n      0x02\n      add\n      sload\n      swap1\n      dup1\n      0x03\n      add\n      sload\n      swap1\n      dup1\n      0x04\n      add\n      sload\n      swap1\n      dup1\n      0x05\n      add\n      sload\n      swap1\n      dup1\n      0x06\n      add\n      0x00\n      swap1\n      sload\n      swap1\n      0x0100\n      exp\n      swap1\n      div\n      0xff\n      and\n      swap1\n      dup1\n      0x07\n      add\n      sload\n      swap1\n      dup1\n      0x08\n      add\n      dup1\n      sload\n      tag_125\n      swap1\n      tag_126\n      jump\t// in\n    tag_125:\n      dup1\n      0x1f\n      add\n      0x20\n      dup1\n      swap2\n      div\n      mul\n      0x20\n      add\n      mload(0x40)\n      swap1\n      dup2\n      add\n      0x40\n      mstore\n      dup1\n      swap3\n      swap2\n      swap1\n      dup2\n      dup2\n      mstore\n      0x20\n      add\n      dup3\n      dup1\n      sload\n      tag_127\n      swap1\n      tag_126\n      jump\t// in\n    tag_127:\n      dup1\n      iszero\n      tag_128\n      jumpi\n      dup1\n      0x1f\n      lt\n      tag_129\n      jumpi\n      0x0100\n      dup1\n      dup4\n      sload\n      div\n      mul\n      dup4\n      mstore\n      swap2\n      0x20\n      add\n      swap2\n      jump(tag_128)\n    tag_129:\n      dup3\n      add\n      swap2\n      swap1\n      0x00\n      mstore\n      keccak256(0x00, 0x20)\n      swap1\n    tag_130:\n      dup2\n      sload\n      dup2\n      mstore\n      swap1\n      0x01\n      add\n      swap1\n      0x20\n      add\n      dup1\n      dup4\n      gt\n      tag_130\n      jumpi\n      dup3\n      swap1\n      sub\n      0x1f\n      and\n      dup3\n      add\n      swap2\n    tag_128:\n      pop\n      pop\n      pop\n      pop\n      pop\n      swap1\n      dup1\n      0x09\n      add\n      0x00\n      swap1\n      sload\n      swap1\n      0x0100\n      exp\n      swap1\n      div\n      0xffffffffffffffffffffffffffffffffffffffff\n      and\n      swap1\n      pop\n      dup11\n      jump\t// out\n        /* \"CompanyLotteries.sol\":2781:3861  function buyTicketTx(uint quantity, bytes32 hash_rnd_number) public returns (uint sticketno) {... */\n    tag_47:\n        /* \"CompanyLotteries.sol\":2858:2872  uint sticketno */\n      0x00\n        /* \"CompanyLotteries.sol\":2929:2963  LotteryStructs.LotteryState.ACTIVE */\n      0x01\n        /* \"CompanyLotteries.sol\":2892:2963  lotteries[currentLotteryNo].state == LotteryStructs.LotteryState.ACTIVE */\n      0x04\n      dup2\n      gt\n      iszero\n      tag_132\n      jumpi\n      tag_133\n      tag_134\n      jump\t// in\n    tag_133:\n    tag_132:\n        /* \"CompanyLotteries.sol\":2892:2901  lotteries */\n      0x03\n        /* \"CompanyLotteries.sol\":2892:2919  lotteries[currentLotteryNo] */\n      0x00\n        /* \"CompanyLotteries.sol\":2902:2918  currentLotteryNo */\n      sload(0x02)\n        /* \"CompanyLotteries.sol\":2892:2919  lotteries[currentLotteryNo] */\n      dup2\n      mstore\n      0x20\n      add\n      swap1\n      dup2\n      mstore\n      0x20\n      add\n      0x00\n      keccak256\n        /* \"CompanyLotteries.sol\":2892:2925  lotteries[currentLotteryNo].state */\n      0x06\n      add\n      0x00\n      swap1\n      sload\n      swap1\n      0x0100\n      exp\n      swap1\n      div\n      0xff\n      and\n        /* \"CompanyLotteries.sol\":2892:2963  lotteries[currentLotteryNo].state == LotteryStructs.LotteryState.ACTIVE */\n      0x04\n      dup2\n      gt\n      iszero\n      tag_135\n      jumpi\n      tag_136\n      tag_134\n      jump\t// in\n    tag_136:\n    tag_135:\n      eq\n        /* \"CompanyLotteries.sol\":2884:2989  require(lotteries[currentLotteryNo].state == LotteryStructs.LotteryState.ACTIVE, \"Lottery is not active\") */\n      tag_137\n      jumpi\n      mload(0x40)\n      0x08c379a000000000000000000000000000000000000000000000000000000000\n      dup2\n      mstore\n      0x04\n      add\n      tag_138\n      swap1\n      tag_139\n      jump\t// in\n    tag_138:\n      mload(0x40)\n      dup1\n      swap2\n      sub\n      swap1\n      revert\n    tag_137:\n        /* \"CompanyLotteries.sol\":3025:3034  lotteries */\n      0x03\n        /* \"CompanyLotteries.sol\":3025:3052  lotteries[currentLotteryNo] */\n      0x00\n        /* \"CompanyLotteries.sol\":3035:3051  currentLotteryNo */\n      sload(0x02)\n        /* \"CompanyLotteries.sol\":3025:3052  lotteries[currentLotteryNo] */\n      dup2\n      mstore\n      0x20\n      add\n      swap1\n      dup2\n      mstore\n      0x20\n      add\n      0x00\n      keccak256\n        /* \"CompanyLotteries.sol\":3025:3060  lotteries[currentLotteryNo].unixbeg */\n      0x00\n      add\n      sload\n        /* \"CompanyLotteries.sol\":3007:3022  block.timestamp */\n      timestamp\n        /* \"CompanyLotteries.sol\":3007:3060  block.timestamp < lotteries[currentLotteryNo].unixbeg */\n      lt\n        /* \"CompanyLotteries.sol\":2999:3082  require(block.timestamp < lotteries[currentLotteryNo].unixbeg, \"Lottery has ended\") */\n      tag_140\n      jumpi\n      mload(0x40)\n      0x08c379a000000000000000000000000000000000000000000000000000000000\n      dup2\n      mstore\n      0x04\n      add\n      tag_141\n      swap1\n      tag_142\n      jump\t// in\n    tag_141:\n      mload(0x40)\n      dup1\n      swap2\n      sub\n      swap1\n      revert\n    tag_140:\n        /* \"CompanyLotteries.sol\":3154:3163  lotteries */\n      0x03\n        /* \"CompanyLotteries.sol\":3154:3181  lotteries[currentLotteryNo] */\n      0x00\n        /* \"CompanyLotteries.sol\":3164:3180  currentLotteryNo */\n      sload(0x02)\n        /* \"CompanyLotteries.sol\":3154:3181  lotteries[currentLotteryNo] */\n      dup2\n      mstore\n      0x20\n      add\n      swap1\n      dup2\n      mstore\n      0x20\n      add\n      0x00\n      keccak256\n        /* \"CompanyLotteries.sol\":3154:3193  lotteries[currentLotteryNo].nooftickets */\n      0x01\n      add\n      sload\n        /* \"CompanyLotteries.sol\":3142:3150  quantity */\n      dup4\n        /* \"CompanyLotteries.sol\":3100:3109  lotteries */\n      0x03\n        /* \"CompanyLotteries.sol\":3100:3127  lotteries[currentLotteryNo] */\n      0x00\n        /* \"CompanyLotteries.sol\":3110:3126  currentLotteryNo */\n      sload(0x02)\n        /* \"CompanyLotteries.sol\":3100:3127  lotteries[currentLotteryNo] */\n      dup2\n      mstore\n      0x20\n      add\n      swap1\n      dup2\n      mstore\n      0x20\n      add\n      0x00\n      keccak256\n        /* \"CompanyLotteries.sol\":3100:3139  lotteries[currentLotteryNo].soldTickets */\n      0x05\n      add\n      sload\n        /* \"CompanyLotteries.sol\":3100:3150  lotteries[currentLotteryNo].soldTickets + quantity */\n      tag_143\n      swap2\n      swap1\n      tag_144\n      jump\t// in\n    tag_143:\n        /* \"CompanyLotteries.sol\":3100:3193  lotteries[currentLotteryNo].soldTickets + quantity <= lotteries[currentLotteryNo].nooftickets */\n      gt\n      iszero\n        /* \"CompanyLotteries.sol\":3092:3226  require(lotteries[currentLotteryNo].soldTickets + quantity <= lotteries[currentLotteryNo].nooftickets, \"Not enough tickets available\") */\n      tag_145\n      jumpi\n      mload(0x40)\n      0x08c379a000000000000000000000000000000000000000000000000000000000\n      dup2\n      mstore\n      0x04\n      add\n      tag_146\n      swap1\n      tag_147\n      jump\t// in\n    tag_146:\n      mload(0x40)\n      dup1\n      swap2\n      sub\n      swap1\n      revert\n    tag_145:\n        /* \"CompanyLotteries.sol\":3237:3251  uint totalCost */\n      0x00\n        /* \"CompanyLotteries.sol\":3265:3274  lotteries */\n      0x03\n        /* \"CompanyLotteries.sol\":3265:3292  lotteries[currentLotteryNo] */\n      0x00\n        /* \"CompanyLotteries.sol\":3275:3291  currentLotteryNo */\n      sload(0x02)\n        /* \"CompanyLotteries.sol\":3265:3292  lotteries[currentLotteryNo] */\n      dup2\n      mstore\n      0x20\n      add\n      swap1\n      dup2\n      mstore\n      0x20\n      add\n      0x00\n      keccak256\n        /* \"CompanyLotteries.sol\":3265:3304  lotteries[currentLotteryNo].ticketprice */\n      0x04\n      add\n      sload\n        /* \"CompanyLotteries.sol\":3254:3262  quantity */\n      dup5\n        /* \"CompanyLotteries.sol\":3254:3304  quantity * lotteries[currentLotteryNo].ticketprice */\n      tag_148\n      swap2\n      swap1\n      tag_149\n      jump\t// in\n    tag_148:\n        /* \"CompanyLotteries.sol\":3237:3304  uint totalCost = quantity * lotteries[currentLotteryNo].ticketprice */\n      swap1\n      pop\n        /* \"CompanyLotteries.sol\":3314:3325  ticketToken */\n      0x00\n      dup1\n      sload\n      swap1\n      0x0100\n      exp\n      swap1\n      div\n      0xffffffffffffffffffffffffffffffffffffffff\n      and\n        /* \"CompanyLotteries.sol\":3314:3338  ticketToken.transferFrom */\n      0xffffffffffffffffffffffffffffffffffffffff\n      and\n      0x23b872dd\n        /* \"CompanyLotteries.sol\":3339:3349  msg.sender */\n      caller\n        /* \"CompanyLotteries.sol\":3351:3356  owner */\n      0x01\n      0x00\n      swap1\n      sload\n      swap1\n      0x0100\n      exp\n      swap1\n      div\n      0xffffffffffffffffffffffffffffffffffffffff\n      and\n        /* \"CompanyLotteries.sol\":3358:3367  totalCost */\n      dup5\n        /* \"CompanyLotteries.sol\":3314:3368  ticketToken.transferFrom(msg.sender, owner, totalCost) */\n      mload(0x40)\n      dup5\n      0xffffffff\n      and\n      0xe0\n      shl\n      dup2\n      mstore\n      0x04\n      add\n      tag_150\n      swap4\n      swap3\n      swap2\n      swap1\n      tag_151\n      jump\t// in\n    tag_150:\n      0x20\n      mload(0x40)\n      dup1\n      dup4\n      sub\n      dup2\n      0x00\n      dup8\n      gas\n      call\n      iszero\n      dup1\n      iszero\n      tag_153\n      jumpi\n      returndatasize\n      0x00\n      dup1\n      returndatacopy\n      revert(0x00, returndatasize)\n    tag_153:\n      pop\n      pop\n      pop\n      pop\n      mload(0x40)\n      returndatasize\n      not(0x1f)\n      0x1f\n      dup3\n      add\n      and\n      dup3\n      add\n      dup1\n      0x40\n      mstore\n      pop\n      dup2\n      add\n      swap1\n      tag_154\n      swap2\n      swap1\n      tag_155\n      jump\t// in\n    tag_154:\n      pop\n        /* \"CompanyLotteries.sol\":3379:3418  LotteryStructs.TicketInfo memory ticket */\n      0x00\n        /* \"CompanyLotteries.sol\":3421:3602  LotteryStructs.TicketInfo({... */\n      mload(0x40)\n      dup1\n      0x80\n      add\n      0x40\n      mstore\n      dup1\n        /* \"CompanyLotteries.sol\":3474:3484  msg.sender */\n      caller\n        /* \"CompanyLotteries.sol\":3421:3602  LotteryStructs.TicketInfo({... */\n      0xffffffffffffffffffffffffffffffffffffffff\n      and\n      dup2\n      mstore\n      0x20\n      add\n        /* \"CompanyLotteries.sol\":3508:3516  quantity */\n      dup7\n        /* \"CompanyLotteries.sol\":3421:3602  LotteryStructs.TicketInfo({... */\n      dup2\n      mstore\n      0x20\n      add\n        /* \"CompanyLotteries.sol\":3547:3562  hash_rnd_number */\n      dup6\n        /* \"CompanyLotteries.sol\":3421:3602  LotteryStructs.TicketInfo({... */\n      dup2\n      mstore\n      0x20\n      add\n        /* \"CompanyLotteries.sol\":3586:3591  false */\n      0x00\n        /* \"CompanyLotteries.sol\":3421:3602  LotteryStructs.TicketInfo({... */\n      iszero\n      iszero\n      dup2\n      mstore\n      pop\n        /* \"CompanyLotteries.sol\":3379:3602  LotteryStructs.TicketInfo memory ticket = LotteryStructs.TicketInfo({... */\n      swap1\n      pop\n        /* \"CompanyLotteries.sol\":3613:3627  lotteryTickets */\n      0x04\n        /* \"CompanyLotteries.sol\":3613:3645  lotteryTickets[currentLotteryNo] */\n      0x00\n        /* \"CompanyLotteries.sol\":3628:3644  currentLotteryNo */\n      sload(0x02)\n        /* \"CompanyLotteries.sol\":3613:3645  lotteryTickets[currentLotteryNo] */\n      dup2\n      mstore\n      0x20\n      add\n      swap1\n      dup2\n      mstore\n      0x20\n      add\n      0x00\n      keccak256\n        /* \"CompanyLotteries.sol\":3651:3657  ticket */\n      dup2\n        /* \"CompanyLotteries.sol\":3613:3658  lotteryTickets[currentLotteryNo].push(ticket) */\n      swap1\n      dup1\n      0x01\n      dup2\n      sload\n      add\n      dup1\n      dup3\n      sstore\n      dup1\n      swap2\n      pop\n      pop\n      0x01\n      swap1\n      sub\n      swap1\n      0x00\n      mstore\n      keccak256(0x00, 0x20)\n      swap1\n      0x04\n      mul\n      add\n      0x00\n      swap1\n      swap2\n      swap1\n      swap2\n      swap1\n      swap2\n      pop\n      0x00\n      dup3\n      add\n      mload\n      dup2\n      0x00\n      add\n      exp(0x0100, 0x00)\n      dup2\n      sload\n      dup2\n      0xffffffffffffffffffffffffffffffffffffffff\n      mul\n      not\n      and\n      swap1\n      dup4\n      0xffffffffffffffffffffffffffffffffffffffff\n      and\n      mul\n      or\n      swap1\n      sstore\n      pop\n      0x20\n      dup3\n      add\n      mload\n      dup2\n      0x01\n      add\n      sstore\n      0x40\n      dup3\n      add\n      mload\n      dup2\n      0x02\n      add\n      sstore\n      0x60\n      dup3\n      add\n      mload\n      dup2\n      0x03\n      add\n      exp(0x0100, 0x00)\n      dup2\n      sload\n      dup2\n      0xff\n      mul\n      not\n      and\n      swap1\n      dup4\n      iszero\n      iszero\n      mul\n      or\n      swap1\n      sstore\n      pop\n      pop\n      pop\n        /* \"CompanyLotteries.sol\":3722:3723  1 */\n      0x01\n        /* \"CompanyLotteries.sol\":3680:3694  lotteryTickets */\n      0x04\n        /* \"CompanyLotteries.sol\":3680:3712  lotteryTickets[currentLotteryNo] */\n      0x00\n        /* \"CompanyLotteries.sol\":3695:3711  currentLotteryNo */\n      sload(0x02)\n        /* \"CompanyLotteries.sol\":3680:3712  lotteryTickets[currentLotteryNo] */\n      dup2\n      mstore\n      0x20\n      add\n      swap1\n      dup2\n      mstore\n      0x20\n      add\n      0x00\n      keccak256\n        /* \"CompanyLotteries.sol\":3680:3719  lotteryTickets[currentLotteryNo].length */\n      dup1\n      sload\n      swap1\n      pop\n        /* \"CompanyLotteries.sol\":3680:3723  lotteryTickets[currentLotteryNo].length - 1 */\n      tag_157\n      swap2\n      swap1\n      tag_158\n      jump\t// in\n    tag_157:\n        /* \"CompanyLotteries.sol\":3668:3723  sticketno = lotteryTickets[currentLotteryNo].length - 1 */\n      swap3\n      pop\n        /* \"CompanyLotteries.sol\":3777:3785  quantity */\n      dup5\n        /* \"CompanyLotteries.sol\":3734:3743  lotteries */\n      0x03\n        /* \"CompanyLotteries.sol\":3734:3761  lotteries[currentLotteryNo] */\n      0x00\n        /* \"CompanyLotteries.sol\":3744:3760  currentLotteryNo */\n      sload(0x02)\n        /* \"CompanyLotteries.sol\":3734:3761  lotteries[currentLotteryNo] */\n      dup2\n      mstore\n      0x20\n      add\n      swap1\n      dup2\n      mstore\n      0x20\n      add\n      0x00\n      keccak256\n        /* \"CompanyLotteries.sol\":3734:3773  lotteries[currentLotteryNo].soldTickets */\n      0x05\n      add\n      0x00\n        /* \"CompanyLotteries.sol\":3734:3785  lotteries[currentLotteryNo].soldTickets += quantity */\n      dup3\n      dup3\n      sload\n      tag_159\n      swap2\n      swap1\n      tag_144\n      jump\t// in\n    tag_159:\n      swap3\n      pop\n      pop\n      dup2\n      swap1\n      sstore\n      pop\n        /* \"CompanyLotteries.sol\":3800:3854  TicketPurchased(currentLotteryNo, sticketno, quantity) */\n      0x931e05748fe2ac33cc32ba05b91baf487ef85c1e67d88be897af1f2ed5ea9479\n        /* \"CompanyLotteries.sol\":3816:3832  currentLotteryNo */\n      sload(0x02)\n        /* \"CompanyLotteries.sol\":3834:3843  sticketno */\n      dup5\n        /* \"CompanyLotteries.sol\":3845:3853  quantity */\n      dup8\n        /* \"CompanyLotteries.sol\":3800:3854  TicketPurchased(currentLotteryNo, sticketno, quantity) */\n      mload(0x40)\n      tag_160\n      swap4\n      swap3\n      swap2\n      swap1\n      tag_161\n      jump\t// in\n    tag_160:\n      mload(0x40)\n      dup1\n      swap2\n      sub\n      swap1\n      log1\n        /* \"CompanyLotteries.sol\":2874:3861  {... */\n      pop\n      pop\n        /* \"CompanyLotteries.sol\":2781:3861  function buyTicketTx(uint quantity, bytes32 hash_rnd_number) public returns (uint sticketno) {... */\n      swap3\n      swap2\n      pop\n      pop\n      jump\t// out\n        /* \"CompanyLotteries.sol\":987:1053  mapping(uint => LotteryStructs.TicketInfo[]) public lotteryTickets */\n    tag_51:\n      mstore(0x20, 0x04)\n      dup2\n      0x00\n      mstore\n      keccak256(0x00, 0x40)\n      dup2\n      dup2\n      sload\n      dup2\n      lt\n      tag_162\n      jumpi\n      0x00\n      dup1\n      revert\n    tag_162:\n      swap1\n      0x00\n      mstore\n      keccak256(0x00, 0x20)\n      swap1\n      0x04\n      mul\n      add\n      0x00\n      swap2\n      pop\n      swap2\n      pop\n      pop\n      dup1\n      0x00\n      add\n      0x00\n      swap1\n      sload\n      swap1\n      0x0100\n      exp\n      swap1\n      div\n      0xffffffffffffffffffffffffffffffffffffffff\n      and\n      swap1\n      dup1\n      0x01\n      add\n      sload\n      swap1\n      dup1\n      0x02\n      add\n      sload\n      swap1\n      dup1\n      0x03\n      add\n      0x00\n      swap1\n      sload\n      swap1\n      0x0100\n      exp\n      swap1\n      div\n      0xff\n      and\n      swap1\n      pop\n      dup5\n      jump\t// out\n        /* \"CompanyLotteries.sol\":5814:5922  function getCurrentLotteryNo() public view returns (uint lotteryNo) {... */\n    tag_55:\n        /* \"CompanyLotteries.sol\":5866:5880  uint lotteryNo */\n      0x00\n        /* \"CompanyLotteries.sol\":5899:5915  currentLotteryNo */\n      sload(0x02)\n        /* \"CompanyLotteries.sol\":5892:5915  return currentLotteryNo */\n      swap1\n      pop\n        /* \"CompanyLotteries.sol\":5814:5922  function getCurrentLotteryNo() public view returns (uint lotteryNo) {... */\n      swap1\n      jump\t// out\n        /* \"CompanyLotteries.sol\":5366:5530  function checkIfAddrTicketWon(address addr, uint lotteryNo, uint ticketNo) public view returns (bool won) {... */\n    tag_60:\n        /* \"CompanyLotteries.sol\":5462:5470  bool won */\n      0x00\n        /* \"CompanyLotteries.sol\":5366:5530  function checkIfAddrTicketWon(address addr, uint lotteryNo, uint ticketNo) public view returns (bool won) {... */\n      swap4\n      swap3\n      pop\n      pop\n      pop\n      jump\t// out\n        /* \"CompanyLotteries.sol\":5680:5808  function withdrawTicketRefund(uint lotteryNo, uint sticketNo) public {... */\n    tag_64:\n      pop\n      pop\n      jump\t// out\n        /* \"CompanyLotteries.sol\":6056:6262  function setPaymentToken(address ercTokenAddr) public onlyOwner {... */\n    tag_68:\n        /* \"CompanyLotteries.sol\":1679:1684  owner */\n      0x01\n      0x00\n      swap1\n      sload\n      swap1\n      0x0100\n      exp\n      swap1\n      div\n      0xffffffffffffffffffffffffffffffffffffffff\n      and\n        /* \"CompanyLotteries.sol\":1665:1684  msg.sender == owner */\n      0xffffffffffffffffffffffffffffffffffffffff\n      and\n        /* \"CompanyLotteries.sol\":1665:1675  msg.sender */\n      caller\n        /* \"CompanyLotteries.sol\":1665:1684  msg.sender == owner */\n      0xffffffffffffffffffffffffffffffffffffffff\n      and\n      eq\n        /* \"CompanyLotteries.sol\":1657:1726  require(msg.sender == owner, \"Only the owner can call this function\") */\n      tag_168\n      jumpi\n      mload(0x40)\n      0x08c379a000000000000000000000000000000000000000000000000000000000\n      dup2\n      mstore\n      0x04\n      add\n      tag_169\n      swap1\n      tag_170\n      jump\t// in\n    tag_169:\n      mload(0x40)\n      dup1\n      swap2\n      sub\n      swap1\n      revert\n    tag_168:\n        /* \"CompanyLotteries.sol\":6162:6163  0 */\n      0x00\n        /* \"CompanyLotteries.sol\":6138:6164  ercTokenAddr != address(0) */\n      0xffffffffffffffffffffffffffffffffffffffff\n      and\n        /* \"CompanyLotteries.sol\":6138:6150  ercTokenAddr */\n      dup2\n        /* \"CompanyLotteries.sol\":6138:6164  ercTokenAddr != address(0) */\n      0xffffffffffffffffffffffffffffffffffffffff\n      and\n      sub\n        /* \"CompanyLotteries.sol\":6130:6190  require(ercTokenAddr != address(0), \"Invalid token address\") */\n      tag_172\n      jumpi\n      mload(0x40)\n      0x08c379a000000000000000000000000000000000000000000000000000000000\n      dup2\n      mstore\n      0x04\n      add\n      tag_173\n      swap1\n      tag_174\n      jump\t// in\n    tag_173:\n      mload(0x40)\n      dup1\n      swap2\n      sub\n      swap1\n      revert\n    tag_172:\n        /* \"CompanyLotteries.sol\":6243:6255  ercTokenAddr */\n      dup1\n        /* \"CompanyLotteries.sol\":6200:6209  lotteries */\n      0x03\n        /* \"CompanyLotteries.sol\":6200:6227  lotteries[currentLotteryNo] */\n      0x00\n        /* \"CompanyLotteries.sol\":6210:6226  currentLotteryNo */\n      sload(0x02)\n        /* \"CompanyLotteries.sol\":6200:6227  lotteries[currentLotteryNo] */\n      dup2\n      mstore\n      0x20\n      add\n      swap1\n      dup2\n      mstore\n      0x20\n      add\n      0x00\n      keccak256\n        /* \"CompanyLotteries.sol\":6200:6240  lotteries[currentLotteryNo].paymentToken */\n      0x09\n      add\n      0x00\n        /* \"CompanyLotteries.sol\":6200:6255  lotteries[currentLotteryNo].paymentToken = ercTokenAddr */\n      0x0100\n      exp\n      dup2\n      sload\n      dup2\n      0xffffffffffffffffffffffffffffffffffffffff\n      mul\n      not\n      and\n      swap1\n      dup4\n      0xffffffffffffffffffffffffffffffffffffffff\n      and\n      mul\n      or\n      swap1\n      sstore\n      pop\n        /* \"CompanyLotteries.sol\":6056:6262  function setPaymentToken(address ercTokenAddr) public onlyOwner {... */\n      pop\n      jump\t// out\n        /* \"CompanyLotteries.sol\":1119:1189  mapping(uint => mapping(uint => uint)) public ticketPurchaseQuantities */\n    tag_71:\n      mstore(0x20, 0x05)\n      dup2\n      0x00\n      mstore\n      mstore(0x20, keccak256(0x00, 0x40))\n      dup1\n      0x00\n      mstore\n      keccak256(0x00, 0x40)\n      0x00\n      swap2\n      pop\n      swap2\n      pop\n      pop\n      sload\n      dup2\n      jump\t// out\n        /* \"CompanyLotteries.sol\":6415:6812  function getLotteryInfo(uint lotteryNo) public view returns (... */\n    tag_75:\n        /* \"CompanyLotteries.sol\":6485:6497  uint unixbeg */\n      0x00\n        /* \"CompanyLotteries.sol\":6507:6523  uint nooftickets */\n      dup1\n        /* \"CompanyLotteries.sol\":6533:6549  uint noofwinners */\n      0x00\n        /* \"CompanyLotteries.sol\":6559:6577  uint minpercentage */\n      dup1\n        /* \"CompanyLotteries.sol\":6587:6603  uint ticketprice */\n      0x00\n        /* \"CompanyLotteries.sol\":6620:6662  LotteryStructs.LotteryInfo storage lottery */\n      dup1\n        /* \"CompanyLotteries.sol\":6665:6674  lotteries */\n      0x03\n        /* \"CompanyLotteries.sol\":6665:6685  lotteries[lotteryNo] */\n      0x00\n        /* \"CompanyLotteries.sol\":6675:6684  lotteryNo */\n      dup9\n        /* \"CompanyLotteries.sol\":6665:6685  lotteries[lotteryNo] */\n      dup2\n      mstore\n      0x20\n      add\n      swap1\n      dup2\n      mstore\n      0x20\n      add\n      0x00\n      keccak256\n        /* \"CompanyLotteries.sol\":6620:6685  LotteryStructs.LotteryInfo storage lottery = lotteries[lotteryNo] */\n      swap1\n      pop\n        /* \"CompanyLotteries.sol\":6703:6710  lottery */\n      dup1\n        /* \"CompanyLotteries.sol\":6703:6718  lottery.unixbeg */\n      0x00\n      add\n      sload\n        /* \"CompanyLotteries.sol\":6720:6727  lottery */\n      dup2\n        /* \"CompanyLotteries.sol\":6720:6739  lottery.nooftickets */\n      0x01\n      add\n      sload\n        /* \"CompanyLotteries.sol\":6741:6748  lottery */\n      dup3\n        /* \"CompanyLotteries.sol\":6741:6760  lottery.noofwinners */\n      0x02\n      add\n      sload\n        /* \"CompanyLotteries.sol\":6762:6769  lottery */\n      dup4\n        /* \"CompanyLotteries.sol\":6762:6783  lottery.minpercentage */\n      0x03\n      add\n      sload\n        /* \"CompanyLotteries.sol\":6785:6792  lottery */\n      dup5\n        /* \"CompanyLotteries.sol\":6785:6804  lottery.ticketprice */\n      0x04\n      add\n      sload\n        /* \"CompanyLotteries.sol\":6695:6805  return (lottery.unixbeg, lottery.nooftickets, lottery.noofwinners, lottery.minpercentage, lottery.ticketprice) */\n      swap6\n      pop\n      swap6\n      pop\n      swap6\n      pop\n      swap6\n      pop\n      swap6\n      pop\n      pop\n        /* \"CompanyLotteries.sol\":6415:6812  function getLotteryInfo(uint lotteryNo) public view returns (... */\n      swap2\n      swap4\n      swap6\n      swap1\n      swap3\n      swap5\n      pop\n      jump\t// out\n        /* \"CompanyLotteries.sol\":1750:2775  function createLottery(... */\n    tag_81:\n        /* \"CompanyLotteries.sol\":1986:2000  uint lotteryNo */\n      0x00\n        /* \"CompanyLotteries.sol\":1679:1684  owner */\n      0x01\n      0x00\n      swap1\n      sload\n      swap1\n      0x0100\n      exp\n      swap1\n      div\n      0xffffffffffffffffffffffffffffffffffffffff\n      and\n        /* \"CompanyLotteries.sol\":1665:1684  msg.sender == owner */\n      0xffffffffffffffffffffffffffffffffffffffff\n      and\n        /* \"CompanyLotteries.sol\":1665:1675  msg.sender */\n      caller\n        /* \"CompanyLotteries.sol\":1665:1684  msg.sender == owner */\n      0xffffffffffffffffffffffffffffffffffffffff\n      and\n      eq\n        /* \"CompanyLotteries.sol\":1657:1726  require(msg.sender == owner, \"Only the owner can call this function\") */\n      tag_177\n      jumpi\n      mload(0x40)\n      0x08c379a000000000000000000000000000000000000000000000000000000000\n      dup2\n      mstore\n      0x04\n      add\n      tag_178\n      swap1\n      tag_170\n      jump\t// in\n    tag_178:\n      mload(0x40)\n      dup1\n      swap2\n      sub\n      swap1\n      revert\n    tag_177:\n        /* \"CompanyLotteries.sol\":2034:2035  0 */\n      0x00\n        /* \"CompanyLotteries.sol\":2020:2031  noofwinners */\n      dup7\n        /* \"CompanyLotteries.sol\":2020:2035  noofwinners > 0 */\n      gt\n        /* \"CompanyLotteries.sol\":2012:2068  require(noofwinners > 0, \"At least one winner required\") */\n      tag_180\n      jumpi\n      mload(0x40)\n      0x08c379a000000000000000000000000000000000000000000000000000000000\n      dup2\n      mstore\n      0x04\n      add\n      tag_181\n      swap1\n      tag_182\n      jump\t// in\n    tag_181:\n      mload(0x40)\n      dup1\n      swap2\n      sub\n      swap1\n      revert\n    tag_180:\n        /* \"CompanyLotteries.sol\":2103:2106  100 */\n      0x64\n        /* \"CompanyLotteries.sol\":2086:2099  minpercentage */\n      dup6\n        /* \"CompanyLotteries.sol\":2086:2106  minpercentage <= 100 */\n      gt\n      iszero\n        /* \"CompanyLotteries.sol\":2078:2146  require(minpercentage <= 100, \"Min participation cannot exceed 100\") */\n      tag_183\n      jumpi\n      mload(0x40)\n      0x08c379a000000000000000000000000000000000000000000000000000000000\n      dup2\n      mstore\n      0x04\n      add\n      tag_184\n      swap1\n      tag_185\n      jump\t// in\n    tag_184:\n      mload(0x40)\n      dup1\n      swap2\n      sub\n      swap1\n      revert\n    tag_183:\n        /* \"CompanyLotteries.sol\":2157:2173  currentLotteryNo */\n      0x02\n      0x00\n        /* \"CompanyLotteries.sol\":2157:2175  currentLotteryNo++ */\n      dup2\n      sload\n      dup1\n      swap3\n      swap2\n      swap1\n      tag_186\n      swap1\n      tag_187\n      jump\t// in\n    tag_186:\n      swap2\n      swap1\n      pop\n      sstore\n      pop\n        /* \"CompanyLotteries.sol\":2215:2665  LotteryStructs.LotteryInfo({... */\n      mload(0x40)\n      dup1\n      0x0140\n      add\n      0x40\n      mstore\n      dup1\n        /* \"CompanyLotteries.sol\":2265:2272  unixbeg */\n      dup10\n        /* \"CompanyLotteries.sol\":2215:2665  LotteryStructs.LotteryInfo({... */\n      dup2\n      mstore\n      0x20\n      add\n        /* \"CompanyLotteries.sol\":2299:2310  nooftickets */\n      dup9\n        /* \"CompanyLotteries.sol\":2215:2665  LotteryStructs.LotteryInfo({... */\n      dup2\n      mstore\n      0x20\n      add\n        /* \"CompanyLotteries.sol\":2337:2348  noofwinners */\n      dup8\n        /* \"CompanyLotteries.sol\":2215:2665  LotteryStructs.LotteryInfo({... */\n      dup2\n      mstore\n      0x20\n      add\n        /* \"CompanyLotteries.sol\":2377:2390  minpercentage */\n      dup7\n        /* \"CompanyLotteries.sol\":2215:2665  LotteryStructs.LotteryInfo({... */\n      dup2\n      mstore\n      0x20\n      add\n        /* \"CompanyLotteries.sol\":2417:2428  ticketprice */\n      dup6\n        /* \"CompanyLotteries.sol\":2215:2665  LotteryStructs.LotteryInfo({... */\n      dup2\n      mstore\n      0x20\n      add\n        /* \"CompanyLotteries.sol\":2509:2510  0 */\n      0x00\n        /* \"CompanyLotteries.sol\":2215:2665  LotteryStructs.LotteryInfo({... */\n      dup2\n      mstore\n      0x20\n      add\n        /* \"CompanyLotteries.sol\":2531:2565  LotteryStructs.LotteryState.ACTIVE */\n      0x01\n        /* \"CompanyLotteries.sol\":2215:2665  LotteryStructs.LotteryInfo({... */\n      0x04\n      dup2\n      gt\n      iszero\n      tag_188\n      jumpi\n      tag_189\n      tag_134\n      jump\t// in\n    tag_189:\n    tag_188:\n      dup2\n      mstore\n      0x20\n      add\n        /* \"CompanyLotteries.sol\":2452:2460  htmlhash */\n      dup5\n        /* \"CompanyLotteries.sol\":2215:2665  LotteryStructs.LotteryInfo({... */\n      dup2\n      mstore\n      0x20\n      add\n        /* \"CompanyLotteries.sol\":2479:2482  url */\n      dup4\n        /* \"CompanyLotteries.sol\":2215:2665  LotteryStructs.LotteryInfo({... */\n      dup2\n      mstore\n      0x20\n      add\n        /* \"CompanyLotteries.sol\":2642:2653  ticketToken */\n      0x00\n      dup1\n      sload\n      swap1\n      0x0100\n      exp\n      swap1\n      div\n      0xffffffffffffffffffffffffffffffffffffffff\n      and\n        /* \"CompanyLotteries.sol\":2215:2665  LotteryStructs.LotteryInfo({... */\n      0xffffffffffffffffffffffffffffffffffffffff\n      and\n      dup2\n      mstore\n      pop\n        /* \"CompanyLotteries.sol\":2185:2194  lotteries */\n      0x03\n        /* \"CompanyLotteries.sol\":2185:2212  lotteries[currentLotteryNo] */\n      0x00\n        /* \"CompanyLotteries.sol\":2195:2211  currentLotteryNo */\n      sload(0x02)\n        /* \"CompanyLotteries.sol\":2185:2212  lotteries[currentLotteryNo] */\n      dup2\n      mstore\n      0x20\n      add\n      swap1\n      dup2\n      mstore\n      0x20\n      add\n      0x00\n      keccak256\n        /* \"CompanyLotteries.sol\":2185:2665  lotteries[currentLotteryNo] = LotteryStructs.LotteryInfo({... */\n      0x00\n      dup3\n      add\n      mload\n      dup2\n      0x00\n      add\n      sstore\n      0x20\n      dup3\n      add\n      mload\n      dup2\n      0x01\n      add\n      sstore\n      0x40\n      dup3\n      add\n      mload\n      dup2\n      0x02\n      add\n      sstore\n      0x60\n      dup3\n      add\n      mload\n      dup2\n      0x03\n      add\n      sstore\n      0x80\n      dup3\n      add\n      mload\n      dup2\n      0x04\n      add\n      sstore\n      0xa0\n      dup3\n      add\n      mload\n      dup2\n      0x05\n      add\n      sstore\n      0xc0\n      dup3\n      add\n      mload\n      dup2\n      0x06\n      add\n      exp(0x0100, 0x00)\n      dup2\n      sload\n      dup2\n      0xff\n      mul\n      not\n      and\n      swap1\n      dup4\n      0x04\n      dup2\n      gt\n      iszero\n      tag_190\n      jumpi\n      tag_191\n      tag_134\n      jump\t// in\n    tag_191:\n    tag_190:\n      mul\n      or\n      swap1\n      sstore\n      pop\n      0xe0\n      dup3\n      add\n      mload\n      dup2\n      0x07\n      add\n      sstore\n      0x0100\n      dup3\n      add\n      mload\n      dup2\n      0x08\n      add\n      swap1\n      dup2\n      tag_192\n      swap2\n      swap1\n      tag_193\n      jump\t// in\n    tag_192:\n      pop\n      0x0120\n      dup3\n      add\n      mload\n      dup2\n      0x09\n      add\n      exp(0x0100, 0x00)\n      dup2\n      sload\n      dup2\n      0xffffffffffffffffffffffffffffffffffffffff\n      mul\n      not\n      and\n      swap1\n      dup4\n      0xffffffffffffffffffffffffffffffffffffffff\n      and\n      mul\n      or\n      swap1\n      sstore\n      pop\n      swap1\n      pop\n      pop\n        /* \"CompanyLotteries.sol\":2681:2735  LotteryCreated(currentLotteryNo, unixbeg, nooftickets) */\n      0xbcab9af3175c8a9d53b9308a82ee378a84c65b0c22e3dfea2afac802c73a078a\n        /* \"CompanyLotteries.sol\":2696:2712  currentLotteryNo */\n      sload(0x02)\n        /* \"CompanyLotteries.sol\":2714:2721  unixbeg */\n      dup10\n        /* \"CompanyLotteries.sol\":2723:2734  nooftickets */\n      dup10\n        /* \"CompanyLotteries.sol\":2681:2735  LotteryCreated(currentLotteryNo, unixbeg, nooftickets) */\n      mload(0x40)\n      tag_194\n      swap4\n      swap3\n      swap2\n      swap1\n      tag_161\n      jump\t// in\n    tag_194:\n      mload(0x40)\n      dup1\n      swap2\n      sub\n      swap1\n      log1\n        /* \"CompanyLotteries.sol\":2752:2768  currentLotteryNo */\n      sload(0x02)\n        /* \"CompanyLotteries.sol\":2745:2768  return currentLotteryNo */\n      swap1\n      pop\n        /* \"CompanyLotteries.sol\":1750:2775  function createLottery(... */\n      swap8\n      swap7\n      pop\n      pop\n      pop\n      pop\n      pop\n      pop\n      pop\n      jump\t// out\n        /* \"CompanyLotteries.sol\":4834:5186  function getIthPurchasedTicketTx(uint i, uint lotteryNo) public view returns (uint sticketno, uint quantity, address participant) {... */\n    tag_85:\n        /* \"CompanyLotteries.sol\":4912:4926  uint sticketno */\n      0x00\n        /* \"CompanyLotteries.sol\":4928:4941  uint quantity */\n      dup1\n        /* \"CompanyLotteries.sol\":4943:4962  address participant */\n      0x00\n        /* \"CompanyLotteries.sol\":4986:5000  lotteryTickets */\n      0x04\n        /* \"CompanyLotteries.sol\":4986:5011  lotteryTickets[lotteryNo] */\n      0x00\n        /* \"CompanyLotteries.sol\":5001:5010  lotteryNo */\n      dup6\n        /* \"CompanyLotteries.sol\":4986:5011  lotteryTickets[lotteryNo] */\n      dup2\n      mstore\n      0x20\n      add\n      swap1\n      dup2\n      mstore\n      0x20\n      add\n      0x00\n      keccak256\n        /* \"CompanyLotteries.sol\":4986:5018  lotteryTickets[lotteryNo].length */\n      dup1\n      sload\n      swap1\n      pop\n        /* \"CompanyLotteries.sol\":4982:4983  i */\n      dup6\n        /* \"CompanyLotteries.sol\":4982:5018  i < lotteryTickets[lotteryNo].length */\n      lt\n        /* \"CompanyLotteries.sol\":4974:5041  require(i < lotteryTickets[lotteryNo].length, \"Index out of range\") */\n      tag_196\n      jumpi\n      mload(0x40)\n      0x08c379a000000000000000000000000000000000000000000000000000000000\n      dup2\n      mstore\n      0x04\n      add\n      tag_197\n      swap1\n      tag_198\n      jump\t// in\n    tag_197:\n      mload(0x40)\n      dup1\n      swap2\n      sub\n      swap1\n      revert\n    tag_196:\n        /* \"CompanyLotteries.sol\":5051:5091  LotteryStructs.TicketInfo storage ticket */\n      0x00\n        /* \"CompanyLotteries.sol\":5094:5108  lotteryTickets */\n      0x04\n        /* \"CompanyLotteries.sol\":5094:5119  lotteryTickets[lotteryNo] */\n      0x00\n        /* \"CompanyLotteries.sol\":5109:5118  lotteryNo */\n      dup7\n        /* \"CompanyLotteries.sol\":5094:5119  lotteryTickets[lotteryNo] */\n      dup2\n      mstore\n      0x20\n      add\n      swap1\n      dup2\n      mstore\n      0x20\n      add\n      0x00\n      keccak256\n        /* \"CompanyLotteries.sol\":5120:5121  i */\n      dup7\n        /* \"CompanyLotteries.sol\":5094:5122  lotteryTickets[lotteryNo][i] */\n      dup2\n      sload\n      dup2\n      lt\n      tag_199\n      jumpi\n      tag_200\n      tag_201\n      jump\t// in\n    tag_200:\n    tag_199:\n      swap1\n      0x00\n      mstore\n      keccak256(0x00, 0x20)\n      swap1\n      0x04\n      mul\n      add\n        /* \"CompanyLotteries.sol\":5051:5122  LotteryStructs.TicketInfo storage ticket = lotteryTickets[lotteryNo][i] */\n      swap1\n      pop\n        /* \"CompanyLotteries.sol\":5140:5141  i */\n      dup6\n        /* \"CompanyLotteries.sol\":5143:5149  ticket */\n      dup2\n        /* \"CompanyLotteries.sol\":5143:5158  ticket.quantity */\n      0x01\n      add\n      sload\n        /* \"CompanyLotteries.sol\":5160:5166  ticket */\n      dup3\n        /* \"CompanyLotteries.sol\":5160:5178  ticket.participant */\n      0x00\n      add\n      0x00\n      swap1\n      sload\n      swap1\n      0x0100\n      exp\n      swap1\n      div\n      0xffffffffffffffffffffffffffffffffffffffff\n      and\n        /* \"CompanyLotteries.sol\":5132:5179  return (i, ticket.quantity, ticket.participant) */\n      swap4\n      pop\n      swap4\n      pop\n      swap4\n      pop\n      pop\n        /* \"CompanyLotteries.sol\":4834:5186  function getIthPurchasedTicketTx(uint i, uint lotteryNo) public view returns (uint sticketno, uint quantity, address participant) {... */\n      swap3\n      pop\n      swap3\n      pop\n      swap3\n      jump\t// out\n        /* \"CompanyLotteries.sol\":820:840  address public owner */\n    tag_89:\n      0x01\n      0x00\n      swap1\n      sload\n      swap1\n      0x0100\n      exp\n      swap1\n      div\n      0xffffffffffffffffffffffffffffffffffffffff\n      and\n      dup2\n      jump\t// out\n        /* \"CompanyLotteries.sol\":3867:4681  function revealRndNumberTx(uint sticketno, uint quantity, uint rnd_number) public {... */\n    tag_95:\n        /* \"CompanyLotteries.sol\":3979:3993  lotteryTickets */\n      0x04\n        /* \"CompanyLotteries.sol\":3979:4011  lotteryTickets[currentLotteryNo] */\n      0x00\n        /* \"CompanyLotteries.sol\":3994:4010  currentLotteryNo */\n      sload(0x02)\n        /* \"CompanyLotteries.sol\":3979:4011  lotteryTickets[currentLotteryNo] */\n      dup2\n      mstore\n      0x20\n      add\n      swap1\n      dup2\n      mstore\n      0x20\n      add\n      0x00\n      keccak256\n        /* \"CompanyLotteries.sol\":3979:4018  lotteryTickets[currentLotteryNo].length */\n      dup1\n      sload\n      swap1\n      pop\n        /* \"CompanyLotteries.sol\":3967:3976  sticketno */\n      dup4\n        /* \"CompanyLotteries.sol\":3967:4018  sticketno < lotteryTickets[currentLotteryNo].length */\n      lt\n        /* \"CompanyLotteries.sol\":3959:4044  require(sticketno < lotteryTickets[currentLotteryNo].length, \"Ticket does not exist\") */\n      tag_204\n      jumpi\n      mload(0x40)\n      0x08c379a000000000000000000000000000000000000000000000000000000000\n      dup2\n      mstore\n      0x04\n      add\n      tag_205\n      swap1\n      tag_206\n      jump\t// in\n    tag_205:\n      mload(0x40)\n      dup1\n      swap2\n      sub\n      swap1\n      revert\n    tag_204:\n        /* \"CompanyLotteries.sol\":4054:4094  LotteryStructs.TicketInfo storage ticket */\n      0x00\n        /* \"CompanyLotteries.sol\":4097:4111  lotteryTickets */\n      0x04\n        /* \"CompanyLotteries.sol\":4097:4129  lotteryTickets[currentLotteryNo] */\n      0x00\n        /* \"CompanyLotteries.sol\":4112:4128  currentLotteryNo */\n      sload(0x02)\n        /* \"CompanyLotteries.sol\":4097:4129  lotteryTickets[currentLotteryNo] */\n      dup2\n      mstore\n      0x20\n      add\n      swap1\n      dup2\n      mstore\n      0x20\n      add\n      0x00\n      keccak256\n        /* \"CompanyLotteries.sol\":4130:4139  sticketno */\n      dup5\n        /* \"CompanyLotteries.sol\":4097:4140  lotteryTickets[currentLotteryNo][sticketno] */\n      dup2\n      sload\n      dup2\n      lt\n      tag_207\n      jumpi\n      tag_208\n      tag_201\n      jump\t// in\n    tag_208:\n    tag_207:\n      swap1\n      0x00\n      mstore\n      keccak256(0x00, 0x20)\n      swap1\n      0x04\n      mul\n      add\n        /* \"CompanyLotteries.sol\":4054:4140  LotteryStructs.TicketInfo storage ticket = lotteryTickets[currentLotteryNo][sticketno] */\n      swap1\n      pop\n        /* \"CompanyLotteries.sol\":4180:4190  msg.sender */\n      caller\n        /* \"CompanyLotteries.sol\":4158:4190  ticket.participant == msg.sender */\n      0xffffffffffffffffffffffffffffffffffffffff\n      and\n        /* \"CompanyLotteries.sol\":4158:4164  ticket */\n      dup2\n        /* \"CompanyLotteries.sol\":4158:4176  ticket.participant */\n      0x00\n      add\n      0x00\n      swap1\n      sload\n      swap1\n      0x0100\n      exp\n      swap1\n      div\n      0xffffffffffffffffffffffffffffffffffffffff\n      and\n        /* \"CompanyLotteries.sol\":4158:4190  ticket.participant == msg.sender */\n      0xffffffffffffffffffffffffffffffffffffffff\n      and\n      eq\n        /* \"CompanyLotteries.sol\":4150:4215  require(ticket.participant == msg.sender, \"Not the ticket owner\") */\n      tag_210\n      jumpi\n      mload(0x40)\n      0x08c379a000000000000000000000000000000000000000000000000000000000\n      dup2\n      mstore\n      0x04\n      add\n      tag_211\n      swap1\n      tag_212\n      jump\t// in\n    tag_211:\n      mload(0x40)\n      dup1\n      swap2\n      sub\n      swap1\n      revert\n    tag_210:\n        /* \"CompanyLotteries.sol\":4252:4260  quantity */\n      dup3\n        /* \"CompanyLotteries.sol\":4233:4239  ticket */\n      dup2\n        /* \"CompanyLotteries.sol\":4233:4248  ticket.quantity */\n      0x01\n      add\n      sload\n        /* \"CompanyLotteries.sol\":4233:4260  ticket.quantity == quantity */\n      eq\n        /* \"CompanyLotteries.sol\":4225:4282  require(ticket.quantity == quantity, \"Quantity mismatch\") */\n      tag_213\n      jumpi\n      mload(0x40)\n      0x08c379a000000000000000000000000000000000000000000000000000000000\n      dup2\n      mstore\n      0x04\n      add\n      tag_214\n      swap1\n      tag_215\n      jump\t// in\n    tag_214:\n      mload(0x40)\n      dup1\n      swap2\n      sub\n      swap1\n      revert\n    tag_213:\n        /* \"CompanyLotteries.sol\":4301:4307  ticket */\n      dup1\n        /* \"CompanyLotteries.sol\":4301:4316  ticket.revealed */\n      0x03\n      add\n      0x00\n      swap1\n      sload\n      swap1\n      0x0100\n      exp\n      swap1\n      div\n      0xff\n      and\n        /* \"CompanyLotteries.sol\":4300:4316  !ticket.revealed */\n      iszero\n        /* \"CompanyLotteries.sol\":4292:4351  require(!ticket.revealed, \"Random number already revealed\") */\n      tag_216\n      jumpi\n      mload(0x40)\n      0x08c379a000000000000000000000000000000000000000000000000000000000\n      dup2\n      mstore\n      0x04\n      add\n      tag_217\n      swap1\n      tag_218\n      jump\t// in\n    tag_217:\n      mload(0x40)\n      dup1\n      swap2\n      sub\n      swap1\n      revert\n    tag_216:\n        /* \"CompanyLotteries.sol\":4509:4519  rnd_number */\n      dup2\n        /* \"CompanyLotteries.sol\":4492:4520  abi.encodePacked(rnd_number) */\n      add(0x20, mload(0x40))\n      tag_219\n      swap2\n      swap1\n      tag_220\n      jump\t// in\n    tag_219:\n      mload(0x40)\n      0x20\n      dup2\n      dup4\n      sub\n      sub\n      dup2\n      mstore\n      swap1\n      0x40\n      mstore\n        /* \"CompanyLotteries.sol\":4482:4521  keccak256(abi.encodePacked(rnd_number)) */\n      dup1\n      mload\n      swap1\n      0x20\n      add\n      keccak256\n        /* \"CompanyLotteries.sol\":4456:4462  ticket */\n      dup2\n        /* \"CompanyLotteries.sol\":4456:4478  ticket.hash_rnd_number */\n      0x02\n      add\n      sload\n        /* \"CompanyLotteries.sol\":4456:4521  ticket.hash_rnd_number == keccak256(abi.encodePacked(rnd_number)) */\n      eq\n        /* \"CompanyLotteries.sol\":4448:4565  require(ticket.hash_rnd_number == keccak256(abi.encodePacked(rnd_number)), \"Random number does not match commitment\") */\n      tag_221\n      jumpi\n      mload(0x40)\n      0x08c379a000000000000000000000000000000000000000000000000000000000\n      dup2\n      mstore\n      0x04\n      add\n      tag_222\n      swap1\n      tag_223\n      jump\t// in\n    tag_222:\n      mload(0x40)\n      dup1\n      swap2\n      sub\n      swap1\n      revert\n    tag_221:\n        /* \"CompanyLotteries.sol\":4594:4598  true */\n      0x01\n        /* \"CompanyLotteries.sol\":4576:4582  ticket */\n      dup2\n        /* \"CompanyLotteries.sol\":4576:4591  ticket.revealed */\n      0x03\n      add\n      0x00\n        /* \"CompanyLotteries.sol\":4576:4598  ticket.revealed = true */\n      0x0100\n      exp\n      dup2\n      sload\n      dup2\n      0xff\n      mul\n      not\n      and\n      swap1\n      dup4\n      iszero\n      iszero\n      mul\n      or\n      swap1\n      sstore\n      pop\n        /* \"CompanyLotteries.sol\":4613:4674  RandomNumberRevealed(currentLotteryNo, sticketno, rnd_number) */\n      0xb404d5122f9c343795903cd3906f44902818ed6e1270eab69b9a14b2bef0d681\n        /* \"CompanyLotteries.sol\":4634:4650  currentLotteryNo */\n      sload(0x02)\n        /* \"CompanyLotteries.sol\":4652:4661  sticketno */\n      dup6\n        /* \"CompanyLotteries.sol\":4663:4673  rnd_number */\n      dup5\n        /* \"CompanyLotteries.sol\":4613:4674  RandomNumberRevealed(currentLotteryNo, sticketno, rnd_number) */\n      mload(0x40)\n      tag_224\n      swap4\n      swap3\n      swap2\n      swap1\n      tag_161\n      jump\t// in\n    tag_224:\n      mload(0x40)\n      dup1\n      swap2\n      sub\n      swap1\n      log1\n        /* \"CompanyLotteries.sol\":3949:4681  {... */\n      pop\n        /* \"CompanyLotteries.sol\":3867:4681  function revealRndNumberTx(uint sticketno, uint quantity, uint rnd_number) public {... */\n      pop\n      pop\n      pop\n      jump\t// out\n        /* \"CompanyLotteries.sol\":5928:6050  function withdrawTicketProceeds(uint lotteryNo) public onlyOwner {... */\n    tag_98:\n        /* \"CompanyLotteries.sol\":1679:1684  owner */\n      0x01\n      0x00\n      swap1\n      sload\n      swap1\n      0x0100\n      exp\n      swap1\n      div\n      0xffffffffffffffffffffffffffffffffffffffff\n      and\n        /* \"CompanyLotteries.sol\":1665:1684  msg.sender == owner */\n      0xffffffffffffffffffffffffffffffffffffffff\n      and\n        /* \"CompanyLotteries.sol\":1665:1675  msg.sender */\n      caller\n        /* \"CompanyLotteries.sol\":1665:1684  msg.sender == owner */\n      0xffffffffffffffffffffffffffffffffffffffff\n      and\n      eq\n        /* \"CompanyLotteries.sol\":1657:1726  require(msg.sender == owner, \"Only the owner can call this function\") */\n      tag_226\n      jumpi\n      mload(0x40)\n      0x08c379a000000000000000000000000000000000000000000000000000000000\n      dup2\n      mstore\n      0x04\n      add\n      tag_227\n      swap1\n      tag_170\n      jump\t// in\n    tag_227:\n      mload(0x40)\n      dup1\n      swap2\n      sub\n      swap1\n      revert\n    tag_226:\n        /* \"CompanyLotteries.sol\":5928:6050  function withdrawTicketProceeds(uint lotteryNo) public onlyOwner {... */\n      pop\n      jump\t// out\n        /* \"CompanyLotteries.sol\":4687:4828  function getNumPurchaseTxs(uint lotteryNo) public view returns (uint numpurchasetxs) {... */\n    tag_101:\n        /* \"CompanyLotteries.sol\":4751:4770  uint numpurchasetxs */\n      0x00\n        /* \"CompanyLotteries.sol\":4789:4803  lotteryTickets */\n      0x04\n        /* \"CompanyLotteries.sol\":4789:4814  lotteryTickets[lotteryNo] */\n      0x00\n        /* \"CompanyLotteries.sol\":4804:4813  lotteryNo */\n      dup4\n        /* \"CompanyLotteries.sol\":4789:4814  lotteryTickets[lotteryNo] */\n      dup2\n      mstore\n      0x20\n      add\n      swap1\n      dup2\n      mstore\n      0x20\n      add\n      0x00\n      keccak256\n        /* \"CompanyLotteries.sol\":4789:4821  lotteryTickets[lotteryNo].length */\n      dup1\n      sload\n      swap1\n      pop\n        /* \"CompanyLotteries.sol\":4782:4821  return lotteryTickets[lotteryNo].length */\n      swap1\n      pop\n        /* \"CompanyLotteries.sol\":4687:4828  function getNumPurchaseTxs(uint lotteryNo) public view returns (uint numpurchasetxs) {... */\n      swap2\n      swap1\n      pop\n      jump\t// out\n        /* \"CompanyLotteries.sol\":7051:7183  function getLotterySales(uint lotteryNo) public view returns (uint numsold) {... */\n    tag_105:\n        /* \"CompanyLotteries.sol\":7113:7125  uint numsold */\n      0x00\n        /* \"CompanyLotteries.sol\":7144:7153  lotteries */\n      0x03\n        /* \"CompanyLotteries.sol\":7144:7164  lotteries[lotteryNo] */\n      0x00\n        /* \"CompanyLotteries.sol\":7154:7163  lotteryNo */\n      dup4\n        /* \"CompanyLotteries.sol\":7144:7164  lotteries[lotteryNo] */\n      dup2\n      mstore\n      0x20\n      add\n      swap1\n      dup2\n      mstore\n      0x20\n      add\n      0x00\n      keccak256\n        /* \"CompanyLotteries.sol\":7144:7176  lotteries[lotteryNo].soldTickets */\n      0x05\n      add\n      sload\n        /* \"CompanyLotteries.sol\":7137:7176  return lotteries[lotteryNo].soldTickets */\n      swap1\n      pop\n        /* \"CompanyLotteries.sol\":7051:7183  function getLotterySales(uint lotteryNo) public view returns (uint numsold) {... */\n      swap2\n      swap1\n      pop\n      jump\t// out\n        /* \"CompanyLotteries.sol\":6268:6409  function getPaymentToken(uint lotteryNo) public view returns (address ercTokenAddr) {... */\n    tag_109:\n        /* \"CompanyLotteries.sol\":6330:6350  address ercTokenAddr */\n      0x00\n        /* \"CompanyLotteries.sol\":6369:6378  lotteries */\n      0x03\n        /* \"CompanyLotteries.sol\":6369:6389  lotteries[lotteryNo] */\n      0x00\n        /* \"CompanyLotteries.sol\":6379:6388  lotteryNo */\n      dup4\n        /* \"CompanyLotteries.sol\":6369:6389  lotteries[lotteryNo] */\n      dup2\n      mstore\n      0x20\n      add\n      swap1\n      dup2\n      mstore\n      0x20\n      add\n      0x00\n      keccak256\n        /* \"CompanyLotteries.sol\":6369:6402  lotteries[lotteryNo].paymentToken */\n      0x09\n      add\n      0x00\n      swap1\n      sload\n      swap1\n      0x0100\n      exp\n      swap1\n      div\n      0xffffffffffffffffffffffffffffffffffffffff\n      and\n        /* \"CompanyLotteries.sol\":6362:6402  return lotteries[lotteryNo].paymentToken */\n      swap1\n      pop\n        /* \"CompanyLotteries.sol\":6268:6409  function getPaymentToken(uint lotteryNo) public view returns (address ercTokenAddr) {... */\n      swap2\n      swap1\n      pop\n      jump\t// out\n        /* \"CompanyLotteries.sol\":784:814  TicketToken public ticketToken */\n    tag_112:\n      0x00\n      dup1\n      sload\n      swap1\n      0x0100\n      exp\n      swap1\n      div\n      0xffffffffffffffffffffffffffffffffffffffff\n      and\n      dup2\n      jump\t// out\n        /* \"CompanyLotteries.sol\":6818:7045  function getLotteryURL(uint lotteryNo) public view returns (bytes32 htmlhash, string memory url) {... */\n    tag_117:\n        /* \"CompanyLotteries.sol\":6878:6894  bytes32 htmlhash */\n      0x00\n        /* \"CompanyLotteries.sol\":6896:6913  string memory url */\n      0x60\n        /* \"CompanyLotteries.sol\":6925:6967  LotteryStructs.LotteryInfo storage lottery */\n      0x00\n        /* \"CompanyLotteries.sol\":6970:6979  lotteries */\n      0x03\n        /* \"CompanyLotteries.sol\":6970:6990  lotteries[lotteryNo] */\n      0x00\n        /* \"CompanyLotteries.sol\":6980:6989  lotteryNo */\n      dup6\n        /* \"CompanyLotteries.sol\":6970:6990  lotteries[lotteryNo] */\n      dup2\n      mstore\n      0x20\n      add\n      swap1\n      dup2\n      mstore\n      0x20\n      add\n      0x00\n      keccak256\n        /* \"CompanyLotteries.sol\":6925:6990  LotteryStructs.LotteryInfo storage lottery = lotteries[lotteryNo] */\n      swap1\n      pop\n        /* \"CompanyLotteries.sol\":7008:7015  lottery */\n      dup1\n        /* \"CompanyLotteries.sol\":7008:7024  lottery.htmlhash */\n      0x07\n      add\n      sload\n        /* \"CompanyLotteries.sol\":7026:7033  lottery */\n      dup2\n        /* \"CompanyLotteries.sol\":7026:7037  lottery.url */\n      0x08\n      add\n        /* \"CompanyLotteries.sol\":7000:7038  return (lottery.htmlhash, lottery.url) */\n      dup1\n      dup1\n      sload\n      tag_233\n      swap1\n      tag_126\n      jump\t// in\n    tag_233:\n      dup1\n      0x1f\n      add\n      0x20\n      dup1\n      swap2\n      div\n      mul\n      0x20\n      add\n      mload(0x40)\n      swap1\n      dup2\n      add\n      0x40\n      mstore\n      dup1\n      swap3\n      swap2\n      swap1\n      dup2\n      dup2\n      mstore\n      0x20\n      add\n      dup3\n      dup1\n      sload\n      tag_234\n      swap1\n      tag_126\n      jump\t// in\n    tag_234:\n      dup1\n      iszero\n      tag_235\n      jumpi\n      dup1\n      0x1f\n      lt\n      tag_236\n      jumpi\n      0x0100\n      dup1\n      dup4\n      sload\n      div\n      mul\n      dup4\n      mstore\n      swap2\n      0x20\n      add\n      swap2\n      jump(tag_235)\n    tag_236:\n      dup3\n      add\n      swap2\n      swap1\n      0x00\n      mstore\n      keccak256(0x00, 0x20)\n      swap1\n    tag_237:\n      dup2\n      sload\n      dup2\n      mstore\n      swap1\n      0x01\n      add\n      swap1\n      0x20\n      add\n      dup1\n      dup4\n      gt\n      tag_237\n      jumpi\n      dup3\n      swap1\n      sub\n      0x1f\n      and\n      dup3\n      add\n      swap2\n    tag_235:\n      pop\n      pop\n      pop\n      pop\n      pop\n      swap1\n      pop\n      swap3\n      pop\n      swap3\n      pop\n      pop\n        /* \"CompanyLotteries.sol\":6818:7045  function getLotteryURL(uint lotteryNo) public view returns (bytes32 htmlhash, string memory url) {... */\n      swap2\n      pop\n      swap2\n      jump\t// out\n        /* \"CompanyLotteries.sol\":5536:5674  function getIthWinningTicket(uint lotteryNo, uint i) public view returns (uint ticketNo) {... */\n    tag_122:\n        /* \"CompanyLotteries.sol\":5610:5623  uint ticketNo */\n      0x00\n        /* \"CompanyLotteries.sol\":5536:5674  function getIthWinningTicket(uint lotteryNo, uint i) public view returns (uint ticketNo) {... */\n      swap3\n      swap2\n      pop\n      pop\n      jump\t// out\n        /* \"#utility.yul\":7:84   */\n    tag_239:\n        /* \"#utility.yul\":44:51   */\n      0x00\n        /* \"#utility.yul\":73:78   */\n      dup2\n        /* \"#utility.yul\":62:78   */\n      swap1\n      pop\n        /* \"#utility.yul\":7:84   */\n      swap2\n      swap1\n      pop\n      jump\t// out\n        /* \"#utility.yul\":90:208   */\n    tag_240:\n        /* \"#utility.yul\":177:201   */\n      tag_329\n        /* \"#utility.yul\":195:200   */\n      dup2\n        /* \"#utility.yul\":177:201   */\n      tag_239\n      jump\t// in\n    tag_329:\n        /* \"#utility.yul\":172:175   */\n      dup3\n        /* \"#utility.yul\":165:202   */\n      mstore\n        /* \"#utility.yul\":90:208   */\n      pop\n      pop\n      jump\t// out\n        /* \"#utility.yul\":214:436   */\n    tag_31:\n        /* \"#utility.yul\":307:311   */\n      0x00\n        /* \"#utility.yul\":345:347   */\n      0x20\n        /* \"#utility.yul\":334:343   */\n      dup3\n        /* \"#utility.yul\":330:348   */\n      add\n        /* \"#utility.yul\":322:348   */\n      swap1\n      pop\n        /* \"#utility.yul\":358:429   */\n      tag_331\n        /* \"#utility.yul\":426:427   */\n      0x00\n        /* \"#utility.yul\":415:424   */\n      dup4\n        /* \"#utility.yul\":411:428   */\n      add\n        /* \"#utility.yul\":402:408   */\n      dup5\n        /* \"#utility.yul\":358:429   */\n      tag_240\n      jump\t// in\n    tag_331:\n        /* \"#utility.yul\":214:436   */\n      swap3\n      swap2\n      pop\n      pop\n      jump\t// out\n        /* \"#utility.yul\":442:517   */\n    tag_241:\n        /* \"#utility.yul\":475:481   */\n      0x00\n        /* \"#utility.yul\":508:510   */\n      0x40\n        /* \"#utility.yul\":502:511   */\n      mload\n        /* \"#utility.yul\":492:511   */\n      swap1\n      pop\n        /* \"#utility.yul\":442:517   */\n      swap1\n      jump\t// out\n        /* \"#utility.yul\":523:640   */\n    tag_242:\n        /* \"#utility.yul\":632:633   */\n      0x00\n        /* \"#utility.yul\":629:630   */\n      dup1\n        /* \"#utility.yul\":622:634   */\n      revert\n        /* \"#utility.yul\":646:763   */\n    tag_243:\n        /* \"#utility.yul\":755:756   */\n      0x00\n        /* \"#utility.yul\":752:753   */\n      dup1\n        /* \"#utility.yul\":745:757   */\n      revert\n        /* \"#utility.yul\":769:891   */\n    tag_244:\n        /* \"#utility.yul\":842:866   */\n      tag_336\n        /* \"#utility.yul\":860:865   */\n      dup2\n        /* \"#utility.yul\":842:866   */\n      tag_239\n      jump\t// in\n    tag_336:\n        /* \"#utility.yul\":835:840   */\n      dup2\n        /* \"#utility.yul\":832:867   */\n      eq\n        /* \"#utility.yul\":822:885   */\n      tag_337\n      jumpi\n        /* \"#utility.yul\":881:882   */\n      0x00\n        /* \"#utility.yul\":878:879   */\n      dup1\n        /* \"#utility.yul\":871:883   */\n      revert\n        /* \"#utility.yul\":822:885   */\n    tag_337:\n        /* \"#utility.yul\":769:891   */\n      pop\n      jump\t// out\n        /* \"#utility.yul\":897:1036   */\n    tag_245:\n        /* \"#utility.yul\":943:948   */\n      0x00\n        /* \"#utility.yul\":981:987   */\n      dup2\n        /* \"#utility.yul\":968:988   */\n      calldataload\n        /* \"#utility.yul\":959:988   */\n      swap1\n      pop\n        /* \"#utility.yul\":997:1030   */\n      tag_339\n        /* \"#utility.yul\":1024:1029   */\n      dup2\n        /* \"#utility.yul\":997:1030   */\n      tag_244\n      jump\t// in\n    tag_339:\n        /* \"#utility.yul\":897:1036   */\n      swap3\n      swap2\n      pop\n      pop\n      jump\t// out\n        /* \"#utility.yul\":1042:1516   */\n    tag_34:\n        /* \"#utility.yul\":1110:1116   */\n      0x00\n        /* \"#utility.yul\":1118:1124   */\n      dup1\n        /* \"#utility.yul\":1167:1169   */\n      0x40\n        /* \"#utility.yul\":1155:1164   */\n      dup4\n        /* \"#utility.yul\":1146:1153   */\n      dup6\n        /* \"#utility.yul\":1142:1165   */\n      sub\n        /* \"#utility.yul\":1138:1170   */\n      slt\n        /* \"#utility.yul\":1135:1254   */\n      iszero\n      tag_341\n      jumpi\n        /* \"#utility.yul\":1173:1252   */\n      tag_342\n      tag_242\n      jump\t// in\n    tag_342:\n        /* \"#utility.yul\":1135:1254   */\n    tag_341:\n        /* \"#utility.yul\":1293:1294   */\n      0x00\n        /* \"#utility.yul\":1318:1371   */\n      tag_343\n        /* \"#utility.yul\":1363:1370   */\n      dup6\n        /* \"#utility.yul\":1354:1360   */\n      dup3\n        /* \"#utility.yul\":1343:1352   */\n      dup7\n        /* \"#utility.yul\":1339:1361   */\n      add\n        /* \"#utility.yul\":1318:1371   */\n      tag_245\n      jump\t// in\n    tag_343:\n        /* \"#utility.yul\":1308:1371   */\n      swap3\n      pop\n        /* \"#utility.yul\":1264:1381   */\n      pop\n        /* \"#utility.yul\":1420:1422   */\n      0x20\n        /* \"#utility.yul\":1446:1499   */\n      tag_344\n        /* \"#utility.yul\":1491:1498   */\n      dup6\n        /* \"#utility.yul\":1482:1488   */\n      dup3\n        /* \"#utility.yul\":1471:1480   */\n      dup7\n        /* \"#utility.yul\":1467:1489   */\n      add\n        /* \"#utility.yul\":1446:1499   */\n      tag_245\n      jump\t// in\n    tag_344:\n        /* \"#utility.yul\":1436:1499   */\n      swap2\n      pop\n        /* \"#utility.yul\":1391:1509   */\n      pop\n        /* \"#utility.yul\":1042:1516   */\n      swap3\n      pop\n      swap3\n      swap1\n      pop\n      jump\t// out\n        /* \"#utility.yul\":1522:1612   */\n    tag_246:\n        /* \"#utility.yul\":1556:1563   */\n      0x00\n        /* \"#utility.yul\":1599:1604   */\n      dup2\n        /* \"#utility.yul\":1592:1605   */\n      iszero\n        /* \"#utility.yul\":1585:1606   */\n      iszero\n        /* \"#utility.yul\":1574:1606   */\n      swap1\n      pop\n        /* \"#utility.yul\":1522:1612   */\n      swap2\n      swap1\n      pop\n      jump\t// out\n        /* \"#utility.yul\":1618:1727   */\n    tag_247:\n        /* \"#utility.yul\":1699:1720   */\n      tag_347\n        /* \"#utility.yul\":1714:1719   */\n      dup2\n        /* \"#utility.yul\":1699:1720   */\n      tag_246\n      jump\t// in\n    tag_347:\n        /* \"#utility.yul\":1694:1697   */\n      dup3\n        /* \"#utility.yul\":1687:1721   */\n      mstore\n        /* \"#utility.yul\":1618:1727   */\n      pop\n      pop\n      jump\t// out\n        /* \"#utility.yul\":1733:1943   */\n    tag_37:\n        /* \"#utility.yul\":1820:1824   */\n      0x00\n        /* \"#utility.yul\":1858:1860   */\n      0x20\n        /* \"#utility.yul\":1847:1856   */\n      dup3\n        /* \"#utility.yul\":1843:1861   */\n      add\n        /* \"#utility.yul\":1835:1861   */\n      swap1\n      pop\n        /* \"#utility.yul\":1871:1936   */\n      tag_349\n        /* \"#utility.yul\":1933:1934   */\n      0x00\n        /* \"#utility.yul\":1922:1931   */\n      dup4\n        /* \"#utility.yul\":1918:1935   */\n      add\n        /* \"#utility.yul\":1909:1915   */\n      dup5\n        /* \"#utility.yul\":1871:1936   */\n      tag_247\n      jump\t// in\n    tag_349:\n        /* \"#utility.yul\":1733:1943   */\n      swap3\n      swap2\n      pop\n      pop\n      jump\t// out\n        /* \"#utility.yul\":1949:2278   */\n    tag_40:\n        /* \"#utility.yul\":2008:2014   */\n      0x00\n        /* \"#utility.yul\":2057:2059   */\n      0x20\n        /* \"#utility.yul\":2045:2054   */\n      dup3\n        /* \"#utility.yul\":2036:2043   */\n      dup5\n        /* \"#utility.yul\":2032:2055   */\n      sub\n        /* \"#utility.yul\":2028:2060   */\n      slt\n        /* \"#utility.yul\":2025:2144   */\n      iszero\n      tag_351\n      jumpi\n        /* \"#utility.yul\":2063:2142   */\n      tag_352\n      tag_242\n      jump\t// in\n    tag_352:\n        /* \"#utility.yul\":2025:2144   */\n    tag_351:\n        /* \"#utility.yul\":2183:2184   */\n      0x00\n        /* \"#utility.yul\":2208:2261   */\n      tag_353\n        /* \"#utility.yul\":2253:2260   */\n      dup5\n        /* \"#utility.yul\":2244:2250   */\n      dup3\n        /* \"#utility.yul\":2233:2242   */\n      dup6\n        /* \"#utility.yul\":2229:2251   */\n      add\n        /* \"#utility.yul\":2208:2261   */\n      tag_245\n      jump\t// in\n    tag_353:\n        /* \"#utility.yul\":2198:2261   */\n      swap2\n      pop\n        /* \"#utility.yul\":2154:2271   */\n      pop\n        /* \"#utility.yul\":1949:2278   */\n      swap3\n      swap2\n      pop\n      pop\n      jump\t// out\n        /* \"#utility.yul\":2284:2464   */\n    tag_134:\n        /* \"#utility.yul\":2332:2409   */\n      0x4e487b7100000000000000000000000000000000000000000000000000000000\n        /* \"#utility.yul\":2329:2330   */\n      0x00\n        /* \"#utility.yul\":2322:2410   */\n      mstore\n        /* \"#utility.yul\":2429:2433   */\n      0x21\n        /* \"#utility.yul\":2426:2427   */\n      0x04\n        /* \"#utility.yul\":2419:2434   */\n      mstore\n        /* \"#utility.yul\":2453:2457   */\n      0x24\n        /* \"#utility.yul\":2450:2451   */\n      0x00\n        /* \"#utility.yul\":2443:2458   */\n      revert\n        /* \"#utility.yul\":2470:2592   */\n    tag_248:\n        /* \"#utility.yul\":2560:2561   */\n      0x05\n        /* \"#utility.yul\":2553:2558   */\n      dup2\n        /* \"#utility.yul\":2550:2562   */\n      lt\n        /* \"#utility.yul\":2540:2586   */\n      tag_356\n      jumpi\n        /* \"#utility.yul\":2566:2584   */\n      tag_357\n      tag_134\n      jump\t// in\n    tag_357:\n        /* \"#utility.yul\":2540:2586   */\n    tag_356:\n        /* \"#utility.yul\":2470:2592   */\n      pop\n      jump\t// out\n        /* \"#utility.yul\":2598:2743   */\n    tag_249:\n        /* \"#utility.yul\":2652:2659   */\n      0x00\n        /* \"#utility.yul\":2681:2686   */\n      dup2\n        /* \"#utility.yul\":2670:2686   */\n      swap1\n      pop\n        /* \"#utility.yul\":2687:2737   */\n      tag_359\n        /* \"#utility.yul\":2731:2736   */\n      dup3\n        /* \"#utility.yul\":2687:2737   */\n      tag_248\n      jump\t// in\n    tag_359:\n        /* \"#utility.yul\":2598:2743   */\n      swap2\n      swap1\n      pop\n      jump\t// out\n        /* \"#utility.yul\":2749:2894   */\n    tag_250:\n        /* \"#utility.yul\":2814:2823   */\n      0x00\n        /* \"#utility.yul\":2847:2888   */\n      tag_361\n        /* \"#utility.yul\":2882:2887   */\n      dup3\n        /* \"#utility.yul\":2847:2888   */\n      tag_249\n      jump\t// in\n    tag_361:\n        /* \"#utility.yul\":2834:2888   */\n      swap1\n      pop\n        /* \"#utility.yul\":2749:2894   */\n      swap2\n      swap1\n      pop\n      jump\t// out\n        /* \"#utility.yul\":2900:3061   */\n    tag_251:\n        /* \"#utility.yul\":3002:3054   */\n      tag_363\n        /* \"#utility.yul\":3048:3053   */\n      dup2\n        /* \"#utility.yul\":3002:3054   */\n      tag_250\n      jump\t// in\n    tag_363:\n        /* \"#utility.yul\":2997:3000   */\n      dup3\n        /* \"#utility.yul\":2990:3055   */\n      mstore\n        /* \"#utility.yul\":2900:3061   */\n      pop\n      pop\n      jump\t// out\n        /* \"#utility.yul\":3067:3144   */\n    tag_252:\n        /* \"#utility.yul\":3104:3111   */\n      0x00\n        /* \"#utility.yul\":3133:3138   */\n      dup2\n        /* \"#utility.yul\":3122:3138   */\n      swap1\n      pop\n        /* \"#utility.yul\":3067:3144   */\n      swap2\n      swap1\n      pop\n      jump\t// out\n        /* \"#utility.yul\":3150:3268   */\n    tag_253:\n        /* \"#utility.yul\":3237:3261   */\n      tag_366\n        /* \"#utility.yul\":3255:3260   */\n      dup2\n        /* \"#utility.yul\":3237:3261   */\n      tag_252\n      jump\t// in\n    tag_366:\n        /* \"#utility.yul\":3232:3235   */\n      dup3\n        /* \"#utility.yul\":3225:3262   */\n      mstore\n        /* \"#utility.yul\":3150:3268   */\n      pop\n      pop\n      jump\t// out\n        /* \"#utility.yul\":3274:3373   */\n    tag_254:\n        /* \"#utility.yul\":3326:3332   */\n      0x00\n        /* \"#utility.yul\":3360:3365   */\n      dup2\n        /* \"#utility.yul\":3354:3366   */\n      mload\n        /* \"#utility.yul\":3344:3366   */\n      swap1\n      pop\n        /* \"#utility.yul\":3274:3373   */\n      swap2\n      swap1\n      pop\n      jump\t// out\n        /* \"#utility.yul\":3379:3548   */\n    tag_255:\n        /* \"#utility.yul\":3463:3474   */\n      0x00\n        /* \"#utility.yul\":3497:3503   */\n      dup3\n        /* \"#utility.yul\":3492:3495   */\n      dup3\n        /* \"#utility.yul\":3485:3504   */\n      mstore\n        /* \"#utility.yul\":3537:3541   */\n      0x20\n        /* \"#utility.yul\":3532:3535   */\n      dup3\n        /* \"#utility.yul\":3528:3542   */\n      add\n        /* \"#utility.yul\":3513:3542   */\n      swap1\n      pop\n        /* \"#utility.yul\":3379:3548   */\n      swap3\n      swap2\n      pop\n      pop\n      jump\t// out\n        /* \"#utility.yul\":3554:3693   */\n    tag_256:\n        /* \"#utility.yul\":3643:3649   */\n      dup3\n        /* \"#utility.yul\":3638:3641   */\n      dup2\n        /* \"#utility.yul\":3633:3636   */\n      dup4\n        /* \"#utility.yul\":3627:3650   */\n      mcopy\n        /* \"#utility.yul\":3684:3685   */\n      0x00\n        /* \"#utility.yul\":3675:3681   */\n      dup4\n        /* \"#utility.yul\":3670:3673   */\n      dup4\n        /* \"#utility.yul\":3666:3682   */\n      add\n        /* \"#utility.yul\":3659:3686   */\n      mstore\n        /* \"#utility.yul\":3554:3693   */\n      pop\n      pop\n      pop\n      jump\t// out\n        /* \"#utility.yul\":3699:3801   */\n    tag_257:\n        /* \"#utility.yul\":3740:3746   */\n      0x00\n        /* \"#utility.yul\":3791:3793   */\n      0x1f\n        /* \"#utility.yul\":3787:3794   */\n      not\n        /* \"#utility.yul\":3782:3784   */\n      0x1f\n        /* \"#utility.yul\":3775:3780   */\n      dup4\n        /* \"#utility.yul\":3771:3785   */\n      add\n        /* \"#utility.yul\":3767:3795   */\n      and\n        /* \"#utility.yul\":3757:3795   */\n      swap1\n      pop\n        /* \"#utility.yul\":3699:3801   */\n      swap2\n      swap1\n      pop\n      jump\t// out\n        /* \"#utility.yul\":3807:4184   */\n    tag_258:\n        /* \"#utility.yul\":3895:3898   */\n      0x00\n        /* \"#utility.yul\":3923:3962   */\n      tag_372\n        /* \"#utility.yul\":3956:3961   */\n      dup3\n        /* \"#utility.yul\":3923:3962   */\n      tag_254\n      jump\t// in\n    tag_372:\n        /* \"#utility.yul\":3978:4049   */\n      tag_373\n        /* \"#utility.yul\":4042:4048   */\n      dup2\n        /* \"#utility.yul\":4037:4040   */\n      dup6\n        /* \"#utility.yul\":3978:4049   */\n      tag_255\n      jump\t// in\n    tag_373:\n        /* \"#utility.yul\":3971:4049   */\n      swap4\n      pop\n        /* \"#utility.yul\":4058:4123   */\n      tag_374\n        /* \"#utility.yul\":4116:4122   */\n      dup2\n        /* \"#utility.yul\":4111:4114   */\n      dup6\n        /* \"#utility.yul\":4104:4108   */\n      0x20\n        /* \"#utility.yul\":4097:4102   */\n      dup7\n        /* \"#utility.yul\":4093:4109   */\n      add\n        /* \"#utility.yul\":4058:4123   */\n      tag_256\n      jump\t// in\n    tag_374:\n        /* \"#utility.yul\":4148:4177   */\n      tag_375\n        /* \"#utility.yul\":4170:4176   */\n      dup2\n        /* \"#utility.yul\":4148:4177   */\n      tag_257\n      jump\t// in\n    tag_375:\n        /* \"#utility.yul\":4143:4146   */\n      dup5\n        /* \"#utility.yul\":4139:4178   */\n      add\n        /* \"#utility.yul\":4132:4178   */\n      swap2\n      pop\n        /* \"#utility.yul\":3899:4184   */\n      pop\n        /* \"#utility.yul\":3807:4184   */\n      swap3\n      swap2\n      pop\n      pop\n      jump\t// out\n        /* \"#utility.yul\":4190:4316   */\n    tag_259:\n        /* \"#utility.yul\":4227:4234   */\n      0x00\n        /* \"#utility.yul\":4267:4309   */\n      0xffffffffffffffffffffffffffffffffffffffff\n        /* \"#utility.yul\":4260:4265   */\n      dup3\n        /* \"#utility.yul\":4256:4310   */\n      and\n        /* \"#utility.yul\":4245:4310   */\n      swap1\n      pop\n        /* \"#utility.yul\":4190:4316   */\n      swap2\n      swap1\n      pop\n      jump\t// out\n        /* \"#utility.yul\":4322:4418   */\n    tag_260:\n        /* \"#utility.yul\":4359:4366   */\n      0x00\n        /* \"#utility.yul\":4388:4412   */\n      tag_378\n        /* \"#utility.yul\":4406:4411   */\n      dup3\n        /* \"#utility.yul\":4388:4412   */\n      tag_259\n      jump\t// in\n    tag_378:\n        /* \"#utility.yul\":4377:4412   */\n      swap1\n      pop\n        /* \"#utility.yul\":4322:4418   */\n      swap2\n      swap1\n      pop\n      jump\t// out\n        /* \"#utility.yul\":4424:4542   */\n    tag_261:\n        /* \"#utility.yul\":4511:4535   */\n      tag_380\n        /* \"#utility.yul\":4529:4534   */\n      dup2\n        /* \"#utility.yul\":4511:4535   */\n      tag_260\n      jump\t// in\n    tag_380:\n        /* \"#utility.yul\":4506:4509   */\n      dup3\n        /* \"#utility.yul\":4499:4536   */\n      mstore\n        /* \"#utility.yul\":4424:4542   */\n      pop\n      pop\n      jump\t// out\n        /* \"#utility.yul\":4548:5888   */\n    tag_43:\n        /* \"#utility.yul\":4928:4932   */\n      0x00\n        /* \"#utility.yul\":4966:4969   */\n      0x0140\n        /* \"#utility.yul\":4955:4964   */\n      dup3\n        /* \"#utility.yul\":4951:4970   */\n      add\n        /* \"#utility.yul\":4943:4970   */\n      swap1\n      pop\n        /* \"#utility.yul\":4980:5051   */\n      tag_382\n        /* \"#utility.yul\":5048:5049   */\n      0x00\n        /* \"#utility.yul\":5037:5046   */\n      dup4\n        /* \"#utility.yul\":5033:5050   */\n      add\n        /* \"#utility.yul\":5024:5030   */\n      dup14\n        /* \"#utility.yul\":4980:5051   */\n      tag_240\n      jump\t// in\n    tag_382:\n        /* \"#utility.yul\":5061:5133   */\n      tag_383\n        /* \"#utility.yul\":5129:5131   */\n      0x20\n        /* \"#utility.yul\":5118:5127   */\n      dup4\n        /* \"#utility.yul\":5114:5132   */\n      add\n        /* \"#utility.yul\":5105:5111   */\n      dup13\n        /* \"#utility.yul\":5061:5133   */\n      tag_240\n      jump\t// in\n    tag_383:\n        /* \"#utility.yul\":5143:5215   */\n      tag_384\n        /* \"#utility.yul\":5211:5213   */\n      0x40\n        /* \"#utility.yul\":5200:5209   */\n      dup4\n        /* \"#utility.yul\":5196:5214   */\n      add\n        /* \"#utility.yul\":5187:5193   */\n      dup12\n        /* \"#utility.yul\":5143:5215   */\n      tag_240\n      jump\t// in\n    tag_384:\n        /* \"#utility.yul\":5225:5297   */\n      tag_385\n        /* \"#utility.yul\":5293:5295   */\n      0x60\n        /* \"#utility.yul\":5282:5291   */\n      dup4\n        /* \"#utility.yul\":5278:5296   */\n      add\n        /* \"#utility.yul\":5269:5275   */\n      dup11\n        /* \"#utility.yul\":5225:5297   */\n      tag_240\n      jump\t// in\n    tag_385:\n        /* \"#utility.yul\":5307:5380   */\n      tag_386\n        /* \"#utility.yul\":5375:5378   */\n      0x80\n        /* \"#utility.yul\":5364:5373   */\n      dup4\n        /* \"#utility.yul\":5360:5379   */\n      add\n        /* \"#utility.yul\":5351:5357   */\n      dup10\n        /* \"#utility.yul\":5307:5380   */\n      tag_240\n      jump\t// in\n    tag_386:\n        /* \"#utility.yul\":5390:5463   */\n      tag_387\n        /* \"#utility.yul\":5458:5461   */\n      0xa0\n        /* \"#utility.yul\":5447:5456   */\n      dup4\n        /* \"#utility.yul\":5443:5462   */\n      add\n        /* \"#utility.yul\":5434:5440   */\n      dup9\n        /* \"#utility.yul\":5390:5463   */\n      tag_240\n      jump\t// in\n    tag_387:\n        /* \"#utility.yul\":5473:5561   */\n      tag_388\n        /* \"#utility.yul\":5556:5559   */\n      0xc0\n        /* \"#utility.yul\":5545:5554   */\n      dup4\n        /* \"#utility.yul\":5541:5560   */\n      add\n        /* \"#utility.yul\":5532:5538   */\n      dup8\n        /* \"#utility.yul\":5473:5561   */\n      tag_251\n      jump\t// in\n    tag_388:\n        /* \"#utility.yul\":5571:5644   */\n      tag_389\n        /* \"#utility.yul\":5639:5642   */\n      0xe0\n        /* \"#utility.yul\":5628:5637   */\n      dup4\n        /* \"#utility.yul\":5624:5643   */\n      add\n        /* \"#utility.yul\":5615:5621   */\n      dup7\n        /* \"#utility.yul\":5571:5644   */\n      tag_253\n      jump\t// in\n    tag_389:\n        /* \"#utility.yul\":5692:5701   */\n      dup2\n        /* \"#utility.yul\":5686:5690   */\n      dup2\n        /* \"#utility.yul\":5682:5702   */\n      sub\n        /* \"#utility.yul\":5676:5679   */\n      0x0100\n        /* \"#utility.yul\":5665:5674   */\n      dup4\n        /* \"#utility.yul\":5661:5680   */\n      add\n        /* \"#utility.yul\":5654:5703   */\n      mstore\n        /* \"#utility.yul\":5720:5798   */\n      tag_390\n        /* \"#utility.yul\":5793:5797   */\n      dup2\n        /* \"#utility.yul\":5784:5790   */\n      dup6\n        /* \"#utility.yul\":5720:5798   */\n      tag_258\n      jump\t// in\n    tag_390:\n        /* \"#utility.yul\":5712:5798   */\n      swap1\n      pop\n        /* \"#utility.yul\":5808:5881   */\n      tag_391\n        /* \"#utility.yul\":5876:5879   */\n      0x0120\n        /* \"#utility.yul\":5865:5874   */\n      dup4\n        /* \"#utility.yul\":5861:5880   */\n      add\n        /* \"#utility.yul\":5852:5858   */\n      dup5\n        /* \"#utility.yul\":5808:5881   */\n      tag_261\n      jump\t// in\n    tag_391:\n        /* \"#utility.yul\":4548:5888   */\n      swap12\n      swap11\n      pop\n      pop\n      pop\n      pop\n      pop\n      pop\n      pop\n      pop\n      pop\n      pop\n      pop\n      jump\t// out\n        /* \"#utility.yul\":5894:6016   */\n    tag_262:\n        /* \"#utility.yul\":5967:5991   */\n      tag_393\n        /* \"#utility.yul\":5985:5990   */\n      dup2\n        /* \"#utility.yul\":5967:5991   */\n      tag_252\n      jump\t// in\n    tag_393:\n        /* \"#utility.yul\":5960:5965   */\n      dup2\n        /* \"#utility.yul\":5957:5992   */\n      eq\n        /* \"#utility.yul\":5947:6010   */\n      tag_394\n      jumpi\n        /* \"#utility.yul\":6006:6007   */\n      0x00\n        /* \"#utility.yul\":6003:6004   */\n      dup1\n        /* \"#utility.yul\":5996:6008   */\n      revert\n        /* \"#utility.yul\":5947:6010   */\n    tag_394:\n        /* \"#utility.yul\":5894:6016   */\n      pop\n      jump\t// out\n        /* \"#utility.yul\":6022:6161   */\n    tag_263:\n        /* \"#utility.yul\":6068:6073   */\n      0x00\n        /* \"#utility.yul\":6106:6112   */\n      dup2\n        /* \"#utility.yul\":6093:6113   */\n      calldataload\n        /* \"#utility.yul\":6084:6113   */\n      swap1\n      pop\n        /* \"#utility.yul\":6122:6155   */\n      tag_396\n        /* \"#utility.yul\":6149:6154   */\n      dup2\n        /* \"#utility.yul\":6122:6155   */\n      tag_262\n      jump\t// in\n    tag_396:\n        /* \"#utility.yul\":6022:6161   */\n      swap3\n      swap2\n      pop\n      pop\n      jump\t// out\n        /* \"#utility.yul\":6167:6641   */\n    tag_46:\n        /* \"#utility.yul\":6235:6241   */\n      0x00\n        /* \"#utility.yul\":6243:6249   */\n      dup1\n        /* \"#utility.yul\":6292:6294   */\n      0x40\n        /* \"#utility.yul\":6280:6289   */\n      dup4\n        /* \"#utility.yul\":6271:6278   */\n      dup6\n        /* \"#utility.yul\":6267:6290   */\n      sub\n        /* \"#utility.yul\":6263:6295   */\n      slt\n        /* \"#utility.yul\":6260:6379   */\n      iszero\n      tag_398\n      jumpi\n        /* \"#utility.yul\":6298:6377   */\n      tag_399\n      tag_242\n      jump\t// in\n    tag_399:\n        /* \"#utility.yul\":6260:6379   */\n    tag_398:\n        /* \"#utility.yul\":6418:6419   */\n      0x00\n        /* \"#utility.yul\":6443:6496   */\n      tag_400\n        /* \"#utility.yul\":6488:6495   */\n      dup6\n        /* \"#utility.yul\":6479:6485   */\n      dup3\n        /* \"#utility.yul\":6468:6477   */\n      dup7\n        /* \"#utility.yul\":6464:6486   */\n      add\n        /* \"#utility.yul\":6443:6496   */\n      tag_245\n      jump\t// in\n    tag_400:\n        /* \"#utility.yul\":6433:6496   */\n      swap3\n      pop\n        /* \"#utility.yul\":6389:6506   */\n      pop\n        /* \"#utility.yul\":6545:6547   */\n      0x20\n        /* \"#utility.yul\":6571:6624   */\n      tag_401\n        /* \"#utility.yul\":6616:6623   */\n      dup6\n        /* \"#utility.yul\":6607:6613   */\n      dup3\n        /* \"#utility.yul\":6596:6605   */\n      dup7\n        /* \"#utility.yul\":6592:6614   */\n      add\n        /* \"#utility.yul\":6571:6624   */\n      tag_263\n      jump\t// in\n    tag_401:\n        /* \"#utility.yul\":6561:6624   */\n      swap2\n      pop\n        /* \"#utility.yul\":6516:6634   */\n      pop\n        /* \"#utility.yul\":6167:6641   */\n      swap3\n      pop\n      swap3\n      swap1\n      pop\n      jump\t// out\n        /* \"#utility.yul\":6647:7188   */\n    tag_53:\n        /* \"#utility.yul\":6818:6822   */\n      0x00\n        /* \"#utility.yul\":6856:6859   */\n      0x80\n        /* \"#utility.yul\":6845:6854   */\n      dup3\n        /* \"#utility.yul\":6841:6860   */\n      add\n        /* \"#utility.yul\":6833:6860   */\n      swap1\n      pop\n        /* \"#utility.yul\":6870:6941   */\n      tag_403\n        /* \"#utility.yul\":6938:6939   */\n      0x00\n        /* \"#utility.yul\":6927:6936   */\n      dup4\n        /* \"#utility.yul\":6923:6940   */\n      add\n        /* \"#utility.yul\":6914:6920   */\n      dup8\n        /* \"#utility.yul\":6870:6941   */\n      tag_261\n      jump\t// in\n    tag_403:\n        /* \"#utility.yul\":6951:7023   */\n      tag_404\n        /* \"#utility.yul\":7019:7021   */\n      0x20\n        /* \"#utility.yul\":7008:7017   */\n      dup4\n        /* \"#utility.yul\":7004:7022   */\n      add\n        /* \"#utility.yul\":6995:7001   */\n      dup7\n        /* \"#utility.yul\":6951:7023   */\n      tag_240\n      jump\t// in\n    tag_404:\n        /* \"#utility.yul\":7033:7105   */\n      tag_405\n        /* \"#utility.yul\":7101:7103   */\n      0x40\n        /* \"#utility.yul\":7090:7099   */\n      dup4\n        /* \"#utility.yul\":7086:7104   */\n      add\n        /* \"#utility.yul\":7077:7083   */\n      dup6\n        /* \"#utility.yul\":7033:7105   */\n      tag_253\n      jump\t// in\n    tag_405:\n        /* \"#utility.yul\":7115:7181   */\n      tag_406\n        /* \"#utility.yul\":7177:7179   */\n      0x60\n        /* \"#utility.yul\":7166:7175   */\n      dup4\n        /* \"#utility.yul\":7162:7180   */\n      add\n        /* \"#utility.yul\":7153:7159   */\n      dup5\n        /* \"#utility.yul\":7115:7181   */\n      tag_247\n      jump\t// in\n    tag_406:\n        /* \"#utility.yul\":6647:7188   */\n      swap6\n      swap5\n      pop\n      pop\n      pop\n      pop\n      pop\n      jump\t// out\n        /* \"#utility.yul\":7194:7316   */\n    tag_264:\n        /* \"#utility.yul\":7267:7291   */\n      tag_408\n        /* \"#utility.yul\":7285:7290   */\n      dup2\n        /* \"#utility.yul\":7267:7291   */\n      tag_260\n      jump\t// in\n    tag_408:\n        /* \"#utility.yul\":7260:7265   */\n      dup2\n        /* \"#utility.yul\":7257:7292   */\n      eq\n        /* \"#utility.yul\":7247:7310   */\n      tag_409\n      jumpi\n        /* \"#utility.yul\":7306:7307   */\n      0x00\n        /* \"#utility.yul\":7303:7304   */\n      dup1\n        /* \"#utility.yul\":7296:7308   */\n      revert\n        /* \"#utility.yul\":7247:7310   */\n    tag_409:\n        /* \"#utility.yul\":7194:7316   */\n      pop\n      jump\t// out\n        /* \"#utility.yul\":7322:7461   */\n    tag_265:\n        /* \"#utility.yul\":7368:7373   */\n      0x00\n        /* \"#utility.yul\":7406:7412   */\n      dup2\n        /* \"#utility.yul\":7393:7413   */\n      calldataload\n        /* \"#utility.yul\":7384:7413   */\n      swap1\n      pop\n        /* \"#utility.yul\":7422:7455   */\n      tag_411\n        /* \"#utility.yul\":7449:7454   */\n      dup2\n        /* \"#utility.yul\":7422:7455   */\n      tag_264\n      jump\t// in\n    tag_411:\n        /* \"#utility.yul\":7322:7461   */\n      swap3\n      swap2\n      pop\n      pop\n      jump\t// out\n        /* \"#utility.yul\":7467:8086   */\n    tag_59:\n        /* \"#utility.yul\":7544:7550   */\n      0x00\n        /* \"#utility.yul\":7552:7558   */\n      dup1\n        /* \"#utility.yul\":7560:7566   */\n      0x00\n        /* \"#utility.yul\":7609:7611   */\n      0x60\n        /* \"#utility.yul\":7597:7606   */\n      dup5\n        /* \"#utility.yul\":7588:7595   */\n      dup7\n        /* \"#utility.yul\":7584:7607   */\n      sub\n        /* \"#utility.yul\":7580:7612   */\n      slt\n        /* \"#utility.yul\":7577:7696   */\n      iszero\n      tag_413\n      jumpi\n        /* \"#utility.yul\":7615:7694   */\n      tag_414\n      tag_242\n      jump\t// in\n    tag_414:\n        /* \"#utility.yul\":7577:7696   */\n    tag_413:\n        /* \"#utility.yul\":7735:7736   */\n      0x00\n        /* \"#utility.yul\":7760:7813   */\n      tag_415\n        /* \"#utility.yul\":7805:7812   */\n      dup7\n        /* \"#utility.yul\":7796:7802   */\n      dup3\n        /* \"#utility.yul\":7785:7794   */\n      dup8\n        /* \"#utility.yul\":7781:7803   */\n      add\n        /* \"#utility.yul\":7760:7813   */\n      tag_265\n      jump\t// in\n    tag_415:\n        /* \"#utility.yul\":7750:7813   */\n      swap4\n      pop\n        /* \"#utility.yul\":7706:7823   */\n      pop\n        /* \"#utility.yul\":7862:7864   */\n      0x20\n        /* \"#utility.yul\":7888:7941   */\n      tag_416\n        /* \"#utility.yul\":7933:7940   */\n      dup7\n        /* \"#utility.yul\":7924:7930   */\n      dup3\n        /* \"#utility.yul\":7913:7922   */\n      dup8\n        /* \"#utility.yul\":7909:7931   */\n      add\n        /* \"#utility.yul\":7888:7941   */\n      tag_245\n      jump\t// in\n    tag_416:\n        /* \"#utility.yul\":7878:7941   */\n      swap3\n      pop\n        /* \"#utility.yul\":7833:7951   */\n      pop\n        /* \"#utility.yul\":7990:7992   */\n      0x40\n        /* \"#utility.yul\":8016:8069   */\n      tag_417\n        /* \"#utility.yul\":8061:8068   */\n      dup7\n        /* \"#utility.yul\":8052:8058   */\n      dup3\n        /* \"#utility.yul\":8041:8050   */\n      dup8\n        /* \"#utility.yul\":8037:8059   */\n      add\n        /* \"#utility.yul\":8016:8069   */\n      tag_245\n      jump\t// in\n    tag_417:\n        /* \"#utility.yul\":8006:8069   */\n      swap2\n      pop\n        /* \"#utility.yul\":7961:8079   */\n      pop\n        /* \"#utility.yul\":7467:8086   */\n      swap3\n      pop\n      swap3\n      pop\n      swap3\n      jump\t// out\n        /* \"#utility.yul\":8092:8421   */\n    tag_67:\n        /* \"#utility.yul\":8151:8157   */\n      0x00\n        /* \"#utility.yul\":8200:8202   */\n      0x20\n        /* \"#utility.yul\":8188:8197   */\n      dup3\n        /* \"#utility.yul\":8179:8186   */\n      dup5\n        /* \"#utility.yul\":8175:8198   */\n      sub\n        /* \"#utility.yul\":8171:8203   */\n      slt\n        /* \"#utility.yul\":8168:8287   */\n      iszero\n      tag_419\n      jumpi\n        /* \"#utility.yul\":8206:8285   */\n      tag_420\n      tag_242\n      jump\t// in\n    tag_420:\n        /* \"#utility.yul\":8168:8287   */\n    tag_419:\n        /* \"#utility.yul\":8326:8327   */\n      0x00\n        /* \"#utility.yul\":8351:8404   */\n      tag_421\n        /* \"#utility.yul\":8396:8403   */\n      dup5\n        /* \"#utility.yul\":8387:8393   */\n      dup3\n        /* \"#utility.yul\":8376:8385   */\n      dup6\n        /* \"#utility.yul\":8372:8394   */\n      add\n        /* \"#utility.yul\":8351:8404   */\n      tag_265\n      jump\t// in\n    tag_421:\n        /* \"#utility.yul\":8341:8404   */\n      swap2\n      pop\n        /* \"#utility.yul\":8297:8414   */\n      pop\n        /* \"#utility.yul\":8092:8421   */\n      swap3\n      swap2\n      pop\n      pop\n      jump\t// out\n        /* \"#utility.yul\":8427:9091   */\n    tag_77:\n        /* \"#utility.yul\":8632:8636   */\n      0x00\n        /* \"#utility.yul\":8670:8673   */\n      0xa0\n        /* \"#utility.yul\":8659:8668   */\n      dup3\n        /* \"#utility.yul\":8655:8674   */\n      add\n        /* \"#utility.yul\":8647:8674   */\n      swap1\n      pop\n        /* \"#utility.yul\":8684:8755   */\n      tag_423\n        /* \"#utility.yul\":8752:8753   */\n      0x00\n        /* \"#utility.yul\":8741:8750   */\n      dup4\n        /* \"#utility.yul\":8737:8754   */\n      add\n        /* \"#utility.yul\":8728:8734   */\n      dup9\n        /* \"#utility.yul\":8684:8755   */\n      tag_240\n      jump\t// in\n    tag_423:\n        /* \"#utility.yul\":8765:8837   */\n      tag_424\n        /* \"#utility.yul\":8833:8835   */\n      0x20\n        /* \"#utility.yul\":8822:8831   */\n      dup4\n        /* \"#utility.yul\":8818:8836   */\n      add\n        /* \"#utility.yul\":8809:8815   */\n      dup8\n        /* \"#utility.yul\":8765:8837   */\n      tag_240\n      jump\t// in\n    tag_424:\n        /* \"#utility.yul\":8847:8919   */\n      tag_425\n        /* \"#utility.yul\":8915:8917   */\n      0x40\n        /* \"#utility.yul\":8904:8913   */\n      dup4\n        /* \"#utility.yul\":8900:8918   */\n      add\n        /* \"#utility.yul\":8891:8897   */\n      dup7\n        /* \"#utility.yul\":8847:8919   */\n      tag_240\n      jump\t// in\n    tag_425:\n        /* \"#utility.yul\":8929:9001   */\n      tag_426\n        /* \"#utility.yul\":8997:8999   */\n      0x60\n        /* \"#utility.yul\":8986:8995   */\n      dup4\n        /* \"#utility.yul\":8982:9000   */\n      add\n        /* \"#utility.yul\":8973:8979   */\n      dup6\n        /* \"#utility.yul\":8929:9001   */\n      tag_240\n      jump\t// in\n    tag_426:\n        /* \"#utility.yul\":9011:9084   */\n      tag_427\n        /* \"#utility.yul\":9079:9082   */\n      0x80\n        /* \"#utility.yul\":9068:9077   */\n      dup4\n        /* \"#utility.yul\":9064:9083   */\n      add\n        /* \"#utility.yul\":9055:9061   */\n      dup5\n        /* \"#utility.yul\":9011:9084   */\n      tag_240\n      jump\t// in\n    tag_427:\n        /* \"#utility.yul\":8427:9091   */\n      swap7\n      swap6\n      pop\n      pop\n      pop\n      pop\n      pop\n      pop\n      jump\t// out\n        /* \"#utility.yul\":9097:9214   */\n    tag_266:\n        /* \"#utility.yul\":9206:9207   */\n      0x00\n        /* \"#utility.yul\":9203:9204   */\n      dup1\n        /* \"#utility.yul\":9196:9208   */\n      revert\n        /* \"#utility.yul\":9220:9337   */\n    tag_267:\n        /* \"#utility.yul\":9329:9330   */\n      0x00\n        /* \"#utility.yul\":9326:9327   */\n      dup1\n        /* \"#utility.yul\":9319:9331   */\n      revert\n        /* \"#utility.yul\":9343:9523   */\n    tag_268:\n        /* \"#utility.yul\":9391:9468   */\n      0x4e487b7100000000000000000000000000000000000000000000000000000000\n        /* \"#utility.yul\":9388:9389   */\n      0x00\n        /* \"#utility.yul\":9381:9469   */\n      mstore\n        /* \"#utility.yul\":9488:9492   */\n      0x41\n        /* \"#utility.yul\":9485:9486   */\n      0x04\n        /* \"#utility.yul\":9478:9493   */\n      mstore\n        /* \"#utility.yul\":9512:9516   */\n      0x24\n        /* \"#utility.yul\":9509:9510   */\n      0x00\n        /* \"#utility.yul\":9502:9517   */\n      revert\n        /* \"#utility.yul\":9529:9810   */\n    tag_269:\n        /* \"#utility.yul\":9612:9639   */\n      tag_432\n        /* \"#utility.yul\":9634:9638   */\n      dup3\n        /* \"#utility.yul\":9612:9639   */\n      tag_257\n      jump\t// in\n    tag_432:\n        /* \"#utility.yul\":9604:9610   */\n      dup2\n        /* \"#utility.yul\":9600:9640   */\n      add\n        /* \"#utility.yul\":9742:9748   */\n      dup2\n        /* \"#utility.yul\":9730:9740   */\n      dup2\n        /* \"#utility.yul\":9727:9749   */\n      lt\n        /* \"#utility.yul\":9706:9724   */\n      0xffffffffffffffff\n        /* \"#utility.yul\":9694:9704   */\n      dup3\n        /* \"#utility.yul\":9691:9725   */\n      gt\n        /* \"#utility.yul\":9688:9750   */\n      or\n        /* \"#utility.yul\":9685:9773   */\n      iszero\n      tag_433\n      jumpi\n        /* \"#utility.yul\":9753:9771   */\n      tag_434\n      tag_268\n      jump\t// in\n    tag_434:\n        /* \"#utility.yul\":9685:9773   */\n    tag_433:\n        /* \"#utility.yul\":9793:9803   */\n      dup1\n        /* \"#utility.yul\":9789:9791   */\n      0x40\n        /* \"#utility.yul\":9782:9804   */\n      mstore\n        /* \"#utility.yul\":9572:9810   */\n      pop\n        /* \"#utility.yul\":9529:9810   */\n      pop\n      pop\n      jump\t// out\n        /* \"#utility.yul\":9816:9945   */\n    tag_270:\n        /* \"#utility.yul\":9850:9856   */\n      0x00\n        /* \"#utility.yul\":9877:9897   */\n      tag_436\n      tag_241\n      jump\t// in\n    tag_436:\n        /* \"#utility.yul\":9867:9897   */\n      swap1\n      pop\n        /* \"#utility.yul\":9906:9939   */\n      tag_437\n        /* \"#utility.yul\":9934:9938   */\n      dup3\n        /* \"#utility.yul\":9926:9932   */\n      dup3\n        /* \"#utility.yul\":9906:9939   */\n      tag_269\n      jump\t// in\n    tag_437:\n        /* \"#utility.yul\":9816:9945   */\n      swap2\n      swap1\n      pop\n      jump\t// out\n        /* \"#utility.yul\":9951:10259   */\n    tag_271:\n        /* \"#utility.yul\":10013:10017   */\n      0x00\n        /* \"#utility.yul\":10103:10121   */\n      0xffffffffffffffff\n        /* \"#utility.yul\":10095:10101   */\n      dup3\n        /* \"#utility.yul\":10092:10122   */\n      gt\n        /* \"#utility.yul\":10089:10145   */\n      iszero\n      tag_439\n      jumpi\n        /* \"#utility.yul\":10125:10143   */\n      tag_440\n      tag_268\n      jump\t// in\n    tag_440:\n        /* \"#utility.yul\":10089:10145   */\n    tag_439:\n        /* \"#utility.yul\":10163:10192   */\n      tag_441\n        /* \"#utility.yul\":10185:10191   */\n      dup3\n        /* \"#utility.yul\":10163:10192   */\n      tag_257\n      jump\t// in\n    tag_441:\n        /* \"#utility.yul\":10155:10192   */\n      swap1\n      pop\n        /* \"#utility.yul\":10247:10251   */\n      0x20\n        /* \"#utility.yul\":10241:10245   */\n      dup2\n        /* \"#utility.yul\":10237:10252   */\n      add\n        /* \"#utility.yul\":10229:10252   */\n      swap1\n      pop\n        /* \"#utility.yul\":9951:10259   */\n      swap2\n      swap1\n      pop\n      jump\t// out\n        /* \"#utility.yul\":10265:10413   */\n    tag_272:\n        /* \"#utility.yul\":10363:10369   */\n      dup3\n        /* \"#utility.yul\":10358:10361   */\n      dup2\n        /* \"#utility.yul\":10353:10356   */\n      dup4\n        /* \"#utility.yul\":10340:10370   */\n      calldatacopy\n        /* \"#utility.yul\":10404:10405   */\n      0x00\n        /* \"#utility.yul\":10395:10401   */\n      dup4\n        /* \"#utility.yul\":10390:10393   */\n      dup4\n        /* \"#utility.yul\":10386:10402   */\n      add\n        /* \"#utility.yul\":10379:10406   */\n      mstore\n        /* \"#utility.yul\":10265:10413   */\n      pop\n      pop\n      pop\n      jump\t// out\n        /* \"#utility.yul\":10419:10844   */\n    tag_273:\n        /* \"#utility.yul\":10497:10502   */\n      0x00\n        /* \"#utility.yul\":10522:10588   */\n      tag_444\n        /* \"#utility.yul\":10538:10587   */\n      tag_445\n        /* \"#utility.yul\":10580:10586   */\n      dup5\n        /* \"#utility.yul\":10538:10587   */\n      tag_271\n      jump\t// in\n    tag_445:\n        /* \"#utility.yul\":10522:10588   */\n      tag_270\n      jump\t// in\n    tag_444:\n        /* \"#utility.yul\":10513:10588   */\n      swap1\n      pop\n        /* \"#utility.yul\":10611:10617   */\n      dup3\n        /* \"#utility.yul\":10604:10609   */\n      dup2\n        /* \"#utility.yul\":10597:10618   */\n      mstore\n        /* \"#utility.yul\":10649:10653   */\n      0x20\n        /* \"#utility.yul\":10642:10647   */\n      dup2\n        /* \"#utility.yul\":10638:10654   */\n      add\n        /* \"#utility.yul\":10687:10690   */\n      dup5\n        /* \"#utility.yul\":10678:10684   */\n      dup5\n        /* \"#utility.yul\":10673:10676   */\n      dup5\n        /* \"#utility.yul\":10669:10685   */\n      add\n        /* \"#utility.yul\":10666:10691   */\n      gt\n        /* \"#utility.yul\":10663:10775   */\n      iszero\n      tag_446\n      jumpi\n        /* \"#utility.yul\":10694:10773   */\n      tag_447\n      tag_267\n      jump\t// in\n    tag_447:\n        /* \"#utility.yul\":10663:10775   */\n    tag_446:\n        /* \"#utility.yul\":10784:10838   */\n      tag_448\n        /* \"#utility.yul\":10831:10837   */\n      dup5\n        /* \"#utility.yul\":10826:10829   */\n      dup3\n        /* \"#utility.yul\":10821:10824   */\n      dup6\n        /* \"#utility.yul\":10784:10838   */\n      tag_272\n      jump\t// in\n    tag_448:\n        /* \"#utility.yul\":10503:10844   */\n      pop\n        /* \"#utility.yul\":10419:10844   */\n      swap4\n      swap3\n      pop\n      pop\n      pop\n      jump\t// out\n        /* \"#utility.yul\":10864:11204   */\n    tag_274:\n        /* \"#utility.yul\":10920:10925   */\n      0x00\n        /* \"#utility.yul\":10969:10972   */\n      dup3\n        /* \"#utility.yul\":10962:10966   */\n      0x1f\n        /* \"#utility.yul\":10954:10960   */\n      dup4\n        /* \"#utility.yul\":10950:10967   */\n      add\n        /* \"#utility.yul\":10946:10973   */\n      slt\n        /* \"#utility.yul\":10936:11058   */\n      tag_450\n      jumpi\n        /* \"#utility.yul\":10977:11056   */\n      tag_451\n      tag_266\n      jump\t// in\n    tag_451:\n        /* \"#utility.yul\":10936:11058   */\n    tag_450:\n        /* \"#utility.yul\":11094:11100   */\n      dup2\n        /* \"#utility.yul\":11081:11101   */\n      calldataload\n        /* \"#utility.yul\":11119:11198   */\n      tag_452\n        /* \"#utility.yul\":11194:11197   */\n      dup5\n        /* \"#utility.yul\":11186:11192   */\n      dup3\n        /* \"#utility.yul\":11179:11183   */\n      0x20\n        /* \"#utility.yul\":11171:11177   */\n      dup7\n        /* \"#utility.yul\":11167:11184   */\n      add\n        /* \"#utility.yul\":11119:11198   */\n      tag_273\n      jump\t// in\n    tag_452:\n        /* \"#utility.yul\":11110:11198   */\n      swap2\n      pop\n        /* \"#utility.yul\":10926:11204   */\n      pop\n        /* \"#utility.yul\":10864:11204   */\n      swap3\n      swap2\n      pop\n      pop\n      jump\t// out\n        /* \"#utility.yul\":11210:12593   */\n    tag_80:\n        /* \"#utility.yul\":11333:11339   */\n      0x00\n        /* \"#utility.yul\":11341:11347   */\n      dup1\n        /* \"#utility.yul\":11349:11355   */\n      0x00\n        /* \"#utility.yul\":11357:11363   */\n      dup1\n        /* \"#utility.yul\":11365:11371   */\n      0x00\n        /* \"#utility.yul\":11373:11379   */\n      dup1\n        /* \"#utility.yul\":11381:11387   */\n      0x00\n        /* \"#utility.yul\":11430:11433   */\n      0xe0\n        /* \"#utility.yul\":11418:11427   */\n      dup9\n        /* \"#utility.yul\":11409:11416   */\n      dup11\n        /* \"#utility.yul\":11405:11428   */\n      sub\n        /* \"#utility.yul\":11401:11434   */\n      slt\n        /* \"#utility.yul\":11398:11518   */\n      iszero\n      tag_454\n      jumpi\n        /* \"#utility.yul\":11437:11516   */\n      tag_455\n      tag_242\n      jump\t// in\n    tag_455:\n        /* \"#utility.yul\":11398:11518   */\n    tag_454:\n        /* \"#utility.yul\":11557:11558   */\n      0x00\n        /* \"#utility.yul\":11582:11635   */\n      tag_456\n        /* \"#utility.yul\":11627:11634   */\n      dup11\n        /* \"#utility.yul\":11618:11624   */\n      dup3\n        /* \"#utility.yul\":11607:11616   */\n      dup12\n        /* \"#utility.yul\":11603:11625   */\n      add\n        /* \"#utility.yul\":11582:11635   */\n      tag_245\n      jump\t// in\n    tag_456:\n        /* \"#utility.yul\":11572:11635   */\n      swap8\n      pop\n        /* \"#utility.yul\":11528:11645   */\n      pop\n        /* \"#utility.yul\":11684:11686   */\n      0x20\n        /* \"#utility.yul\":11710:11763   */\n      tag_457\n        /* \"#utility.yul\":11755:11762   */\n      dup11\n        /* \"#utility.yul\":11746:11752   */\n      dup3\n        /* \"#utility.yul\":11735:11744   */\n      dup12\n        /* \"#utility.yul\":11731:11753   */\n      add\n        /* \"#utility.yul\":11710:11763   */\n      tag_245\n      jump\t// in\n    tag_457:\n        /* \"#utility.yul\":11700:11763   */\n      swap7\n      pop\n        /* \"#utility.yul\":11655:11773   */\n      pop\n        /* \"#utility.yul\":11812:11814   */\n      0x40\n        /* \"#utility.yul\":11838:11891   */\n      tag_458\n        /* \"#utility.yul\":11883:11890   */\n      dup11\n        /* \"#utility.yul\":11874:11880   */\n      dup3\n        /* \"#utility.yul\":11863:11872   */\n      dup12\n        /* \"#utility.yul\":11859:11881   */\n      add\n        /* \"#utility.yul\":11838:11891   */\n      tag_245\n      jump\t// in\n    tag_458:\n        /* \"#utility.yul\":11828:11891   */\n      swap6\n      pop\n        /* \"#utility.yul\":11783:11901   */\n      pop\n        /* \"#utility.yul\":11940:11942   */\n      0x60\n        /* \"#utility.yul\":11966:12019   */\n      tag_459\n        /* \"#utility.yul\":12011:12018   */\n      dup11\n        /* \"#utility.yul\":12002:12008   */\n      dup3\n        /* \"#utility.yul\":11991:12000   */\n      dup12\n        /* \"#utility.yul\":11987:12009   */\n      add\n        /* \"#utility.yul\":11966:12019   */\n      tag_245\n      jump\t// in\n    tag_459:\n        /* \"#utility.yul\":11956:12019   */\n      swap5\n      pop\n        /* \"#utility.yul\":11911:12029   */\n      pop\n        /* \"#utility.yul\":12068:12071   */\n      0x80\n        /* \"#utility.yul\":12095:12148   */\n      tag_460\n        /* \"#utility.yul\":12140:12147   */\n      dup11\n        /* \"#utility.yul\":12131:12137   */\n      dup3\n        /* \"#utility.yul\":12120:12129   */\n      dup12\n        /* \"#utility.yul\":12116:12138   */\n      add\n        /* \"#utility.yul\":12095:12148   */\n      tag_245\n      jump\t// in\n    tag_460:\n        /* \"#utility.yul\":12085:12148   */\n      swap4\n      pop\n        /* \"#utility.yul\":12039:12158   */\n      pop\n        /* \"#utility.yul\":12197:12200   */\n      0xa0\n        /* \"#utility.yul\":12224:12277   */\n      tag_461\n        /* \"#utility.yul\":12269:12276   */\n      dup11\n        /* \"#utility.yul\":12260:12266   */\n      dup3\n        /* \"#utility.yul\":12249:12258   */\n      dup12\n        /* \"#utility.yul\":12245:12267   */\n      add\n        /* \"#utility.yul\":12224:12277   */\n      tag_263\n      jump\t// in\n    tag_461:\n        /* \"#utility.yul\":12214:12277   */\n      swap3\n      pop\n        /* \"#utility.yul\":12168:12287   */\n      pop\n        /* \"#utility.yul\":12354:12357   */\n      0xc0\n        /* \"#utility.yul\":12343:12352   */\n      dup9\n        /* \"#utility.yul\":12339:12358   */\n      add\n        /* \"#utility.yul\":12326:12359   */\n      calldataload\n        /* \"#utility.yul\":12386:12404   */\n      0xffffffffffffffff\n        /* \"#utility.yul\":12378:12384   */\n      dup2\n        /* \"#utility.yul\":12375:12405   */\n      gt\n        /* \"#utility.yul\":12372:12489   */\n      iszero\n      tag_462\n      jumpi\n        /* \"#utility.yul\":12408:12487   */\n      tag_463\n      tag_243\n      jump\t// in\n    tag_463:\n        /* \"#utility.yul\":12372:12489   */\n    tag_462:\n        /* \"#utility.yul\":12513:12576   */\n      tag_464\n        /* \"#utility.yul\":12568:12575   */\n      dup11\n        /* \"#utility.yul\":12559:12565   */\n      dup3\n        /* \"#utility.yul\":12548:12557   */\n      dup12\n        /* \"#utility.yul\":12544:12566   */\n      add\n        /* \"#utility.yul\":12513:12576   */\n      tag_274\n      jump\t// in\n    tag_464:\n        /* \"#utility.yul\":12503:12576   */\n      swap2\n      pop\n        /* \"#utility.yul\":12297:12586   */\n      pop\n        /* \"#utility.yul\":11210:12593   */\n      swap3\n      swap6\n      swap9\n      swap2\n      swap5\n      swap8\n      pop\n      swap3\n      swap6\n      pop\n      jump\t// out\n        /* \"#utility.yul\":12599:13041   */\n    tag_87:\n        /* \"#utility.yul\":12748:12752   */\n      0x00\n        /* \"#utility.yul\":12786:12788   */\n      0x60\n        /* \"#utility.yul\":12775:12784   */\n      dup3\n        /* \"#utility.yul\":12771:12789   */\n      add\n        /* \"#utility.yul\":12763:12789   */\n      swap1\n      pop\n        /* \"#utility.yul\":12799:12870   */\n      tag_466\n        /* \"#utility.yul\":12867:12868   */\n      0x00\n        /* \"#utility.yul\":12856:12865   */\n      dup4\n        /* \"#utility.yul\":12852:12869   */\n      add\n        /* \"#utility.yul\":12843:12849   */\n      dup7\n        /* \"#utility.yul\":12799:12870   */\n      tag_240\n      jump\t// in\n    tag_466:\n        /* \"#utility.yul\":12880:12952   */\n      tag_467\n        /* \"#utility.yul\":12948:12950   */\n      0x20\n        /* \"#utility.yul\":12937:12946   */\n      dup4\n        /* \"#utility.yul\":12933:12951   */\n      add\n        /* \"#utility.yul\":12924:12930   */\n      dup6\n        /* \"#utility.yul\":12880:12952   */\n      tag_240\n      jump\t// in\n    tag_467:\n        /* \"#utility.yul\":12962:13034   */\n      tag_468\n        /* \"#utility.yul\":13030:13032   */\n      0x40\n        /* \"#utility.yul\":13019:13028   */\n      dup4\n        /* \"#utility.yul\":13015:13033   */\n      add\n        /* \"#utility.yul\":13006:13012   */\n      dup5\n        /* \"#utility.yul\":12962:13034   */\n      tag_261\n      jump\t// in\n    tag_468:\n        /* \"#utility.yul\":12599:13041   */\n      swap5\n      swap4\n      pop\n      pop\n      pop\n      pop\n      jump\t// out\n        /* \"#utility.yul\":13047:13269   */\n    tag_91:\n        /* \"#utility.yul\":13140:13144   */\n      0x00\n        /* \"#utility.yul\":13178:13180   */\n      0x20\n        /* \"#utility.yul\":13167:13176   */\n      dup3\n        /* \"#utility.yul\":13163:13181   */\n      add\n        /* \"#utility.yul\":13155:13181   */\n      swap1\n      pop\n        /* \"#utility.yul\":13191:13262   */\n      tag_470\n        /* \"#utility.yul\":13259:13260   */\n      0x00\n        /* \"#utility.yul\":13248:13257   */\n      dup4\n        /* \"#utility.yul\":13244:13261   */\n      add\n        /* \"#utility.yul\":13235:13241   */\n      dup5\n        /* \"#utility.yul\":13191:13262   */\n      tag_261\n      jump\t// in\n    tag_470:\n        /* \"#utility.yul\":13047:13269   */\n      swap3\n      swap2\n      pop\n      pop\n      jump\t// out\n        /* \"#utility.yul\":13275:13894   */\n    tag_94:\n        /* \"#utility.yul\":13352:13358   */\n      0x00\n        /* \"#utility.yul\":13360:13366   */\n      dup1\n        /* \"#utility.yul\":13368:13374   */\n      0x00\n        /* \"#utility.yul\":13417:13419   */\n      0x60\n        /* \"#utility.yul\":13405:13414   */\n      dup5\n        /* \"#utility.yul\":13396:13403   */\n      dup7\n        /* \"#utility.yul\":13392:13415   */\n      sub\n        /* \"#utility.yul\":13388:13420   */\n      slt\n        /* \"#utility.yul\":13385:13504   */\n      iszero\n      tag_472\n      jumpi\n        /* \"#utility.yul\":13423:13502   */\n      tag_473\n      tag_242\n      jump\t// in\n    tag_473:\n        /* \"#utility.yul\":13385:13504   */\n    tag_472:\n        /* \"#utility.yul\":13543:13544   */\n      0x00\n        /* \"#utility.yul\":13568:13621   */\n      tag_474\n        /* \"#utility.yul\":13613:13620   */\n      dup7\n        /* \"#utility.yul\":13604:13610   */\n      dup3\n        /* \"#utility.yul\":13593:13602   */\n      dup8\n        /* \"#utility.yul\":13589:13611   */\n      add\n        /* \"#utility.yul\":13568:13621   */\n      tag_245\n      jump\t// in\n    tag_474:\n        /* \"#utility.yul\":13558:13621   */\n      swap4\n      pop\n        /* \"#utility.yul\":13514:13631   */\n      pop\n        /* \"#utility.yul\":13670:13672   */\n      0x20\n        /* \"#utility.yul\":13696:13749   */\n      tag_475\n        /* \"#utility.yul\":13741:13748   */\n      dup7\n        /* \"#utility.yul\":13732:13738   */\n      dup3\n        /* \"#utility.yul\":13721:13730   */\n      dup8\n        /* \"#utility.yul\":13717:13739   */\n      add\n        /* \"#utility.yul\":13696:13749   */\n      tag_245\n      jump\t// in\n    tag_475:\n        /* \"#utility.yul\":13686:13749   */\n      swap3\n      pop\n        /* \"#utility.yul\":13641:13759   */\n      pop\n        /* \"#utility.yul\":13798:13800   */\n      0x40\n        /* \"#utility.yul\":13824:13877   */\n      tag_476\n        /* \"#utility.yul\":13869:13876   */\n      dup7\n        /* \"#utility.yul\":13860:13866   */\n      dup3\n        /* \"#utility.yul\":13849:13858   */\n      dup8\n        /* \"#utility.yul\":13845:13867   */\n      add\n        /* \"#utility.yul\":13824:13877   */\n      tag_245\n      jump\t// in\n    tag_476:\n        /* \"#utility.yul\":13814:13877   */\n      swap2\n      pop\n        /* \"#utility.yul\":13769:13887   */\n      pop\n        /* \"#utility.yul\":13275:13894   */\n      swap3\n      pop\n      swap3\n      pop\n      swap3\n      jump\t// out\n        /* \"#utility.yul\":13900:13960   */\n    tag_275:\n        /* \"#utility.yul\":13928:13931   */\n      0x00\n        /* \"#utility.yul\":13949:13954   */\n      dup2\n        /* \"#utility.yul\":13942:13954   */\n      swap1\n      pop\n        /* \"#utility.yul\":13900:13960   */\n      swap2\n      swap1\n      pop\n      jump\t// out\n        /* \"#utility.yul\":13966:14108   */\n    tag_276:\n        /* \"#utility.yul\":14016:14025   */\n      0x00\n        /* \"#utility.yul\":14049:14102   */\n      tag_479\n        /* \"#utility.yul\":14067:14101   */\n      tag_480\n        /* \"#utility.yul\":14076:14100   */\n      tag_481\n        /* \"#utility.yul\":14094:14099   */\n      dup5\n        /* \"#utility.yul\":14076:14100   */\n      tag_259\n      jump\t// in\n    tag_481:\n        /* \"#utility.yul\":14067:14101   */\n      tag_275\n      jump\t// in\n    tag_480:\n        /* \"#utility.yul\":14049:14102   */\n      tag_259\n      jump\t// in\n    tag_479:\n        /* \"#utility.yul\":14036:14102   */\n      swap1\n      pop\n        /* \"#utility.yul\":13966:14108   */\n      swap2\n      swap1\n      pop\n      jump\t// out\n        /* \"#utility.yul\":14114:14240   */\n    tag_277:\n        /* \"#utility.yul\":14164:14173   */\n      0x00\n        /* \"#utility.yul\":14197:14234   */\n      tag_483\n        /* \"#utility.yul\":14228:14233   */\n      dup3\n        /* \"#utility.yul\":14197:14234   */\n      tag_276\n      jump\t// in\n    tag_483:\n        /* \"#utility.yul\":14184:14234   */\n      swap1\n      pop\n        /* \"#utility.yul\":14114:14240   */\n      swap2\n      swap1\n      pop\n      jump\t// out\n        /* \"#utility.yul\":14246:14391   */\n    tag_278:\n        /* \"#utility.yul\":14315:14324   */\n      0x00\n        /* \"#utility.yul\":14348:14385   */\n      tag_485\n        /* \"#utility.yul\":14379:14384   */\n      dup3\n        /* \"#utility.yul\":14348:14385   */\n      tag_277\n      jump\t// in\n    tag_485:\n        /* \"#utility.yul\":14335:14385   */\n      swap1\n      pop\n        /* \"#utility.yul\":14246:14391   */\n      swap2\n      swap1\n      pop\n      jump\t// out\n        /* \"#utility.yul\":14397:14566   */\n    tag_279:\n        /* \"#utility.yul\":14503:14559   */\n      tag_487\n        /* \"#utility.yul\":14553:14558   */\n      dup2\n        /* \"#utility.yul\":14503:14559   */\n      tag_278\n      jump\t// in\n    tag_487:\n        /* \"#utility.yul\":14498:14501   */\n      dup3\n        /* \"#utility.yul\":14491:14560   */\n      mstore\n        /* \"#utility.yul\":14397:14566   */\n      pop\n      pop\n      jump\t// out\n        /* \"#utility.yul\":14572:14832   */\n    tag_114:\n        /* \"#utility.yul\":14684:14688   */\n      0x00\n        /* \"#utility.yul\":14722:14724   */\n      0x20\n        /* \"#utility.yul\":14711:14720   */\n      dup3\n        /* \"#utility.yul\":14707:14725   */\n      add\n        /* \"#utility.yul\":14699:14725   */\n      swap1\n      pop\n        /* \"#utility.yul\":14735:14825   */\n      tag_489\n        /* \"#utility.yul\":14822:14823   */\n      0x00\n        /* \"#utility.yul\":14811:14820   */\n      dup4\n        /* \"#utility.yul\":14807:14824   */\n      add\n        /* \"#utility.yul\":14798:14804   */\n      dup5\n        /* \"#utility.yul\":14735:14825   */\n      tag_279\n      jump\t// in\n    tag_489:\n        /* \"#utility.yul\":14572:14832   */\n      swap3\n      swap2\n      pop\n      pop\n      jump\t// out\n        /* \"#utility.yul\":14838:15261   */\n    tag_119:\n        /* \"#utility.yul\":14979:14983   */\n      0x00\n        /* \"#utility.yul\":15017:15019   */\n      0x40\n        /* \"#utility.yul\":15006:15015   */\n      dup3\n        /* \"#utility.yul\":15002:15020   */\n      add\n        /* \"#utility.yul\":14994:15020   */\n      swap1\n      pop\n        /* \"#utility.yul\":15030:15101   */\n      tag_491\n        /* \"#utility.yul\":15098:15099   */\n      0x00\n        /* \"#utility.yul\":15087:15096   */\n      dup4\n        /* \"#utility.yul\":15083:15100   */\n      add\n        /* \"#utility.yul\":15074:15080   */\n      dup6\n        /* \"#utility.yul\":15030:15101   */\n      tag_253\n      jump\t// in\n    tag_491:\n        /* \"#utility.yul\":15148:15157   */\n      dup2\n        /* \"#utility.yul\":15142:15146   */\n      dup2\n        /* \"#utility.yul\":15138:15158   */\n      sub\n        /* \"#utility.yul\":15133:15135   */\n      0x20\n        /* \"#utility.yul\":15122:15131   */\n      dup4\n        /* \"#utility.yul\":15118:15136   */\n      add\n        /* \"#utility.yul\":15111:15159   */\n      mstore\n        /* \"#utility.yul\":15176:15254   */\n      tag_492\n        /* \"#utility.yul\":15249:15253   */\n      dup2\n        /* \"#utility.yul\":15240:15246   */\n      dup5\n        /* \"#utility.yul\":15176:15254   */\n      tag_258\n      jump\t// in\n    tag_492:\n        /* \"#utility.yul\":15168:15254   */\n      swap1\n      pop\n        /* \"#utility.yul\":14838:15261   */\n      swap4\n      swap3\n      pop\n      pop\n      pop\n      jump\t// out\n        /* \"#utility.yul\":15267:15447   */\n    tag_280:\n        /* \"#utility.yul\":15315:15392   */\n      0x4e487b7100000000000000000000000000000000000000000000000000000000\n        /* \"#utility.yul\":15312:15313   */\n      0x00\n        /* \"#utility.yul\":15305:15393   */\n      mstore\n        /* \"#utility.yul\":15412:15416   */\n      0x22\n        /* \"#utility.yul\":15409:15410   */\n      0x04\n        /* \"#utility.yul\":15402:15417   */\n      mstore\n        /* \"#utility.yul\":15436:15440   */\n      0x24\n        /* \"#utility.yul\":15433:15434   */\n      0x00\n        /* \"#utility.yul\":15426:15441   */\n      revert\n        /* \"#utility.yul\":15453:15773   */\n    tag_126:\n        /* \"#utility.yul\":15497:15503   */\n      0x00\n        /* \"#utility.yul\":15534:15535   */\n      0x02\n        /* \"#utility.yul\":15528:15532   */\n      dup3\n        /* \"#utility.yul\":15524:15536   */\n      div\n        /* \"#utility.yul\":15514:15536   */\n      swap1\n      pop\n        /* \"#utility.yul\":15581:15582   */\n      0x01\n        /* \"#utility.yul\":15575:15579   */\n      dup3\n        /* \"#utility.yul\":15571:15583   */\n      and\n        /* \"#utility.yul\":15602:15620   */\n      dup1\n        /* \"#utility.yul\":15592:15673   */\n      tag_495\n      jumpi\n        /* \"#utility.yul\":15658:15662   */\n      0x7f\n        /* \"#utility.yul\":15650:15656   */\n      dup3\n        /* \"#utility.yul\":15646:15663   */\n      and\n        /* \"#utility.yul\":15636:15663   */\n      swap2\n      pop\n        /* \"#utility.yul\":15592:15673   */\n    tag_495:\n        /* \"#utility.yul\":15720:15722   */\n      0x20\n        /* \"#utility.yul\":15712:15718   */\n      dup3\n        /* \"#utility.yul\":15709:15723   */\n      lt\n        /* \"#utility.yul\":15689:15707   */\n      dup2\n        /* \"#utility.yul\":15686:15724   */\n      sub\n        /* \"#utility.yul\":15683:15767   */\n      tag_496\n      jumpi\n        /* \"#utility.yul\":15739:15757   */\n      tag_497\n      tag_280\n      jump\t// in\n    tag_497:\n        /* \"#utility.yul\":15683:15767   */\n    tag_496:\n        /* \"#utility.yul\":15504:15773   */\n      pop\n        /* \"#utility.yul\":15453:15773   */\n      swap2\n      swap1\n      pop\n      jump\t// out\n        /* \"#utility.yul\":15779:15950   */\n    tag_281:\n        /* \"#utility.yul\":15919:15942   */\n      0x4c6f7474657279206973206e6f74206163746976650000000000000000000000\n        /* \"#utility.yul\":15915:15916   */\n      0x00\n        /* \"#utility.yul\":15907:15913   */\n      dup3\n        /* \"#utility.yul\":15903:15917   */\n      add\n        /* \"#utility.yul\":15896:15943   */\n      mstore\n        /* \"#utility.yul\":15779:15950   */\n      pop\n      jump\t// out\n        /* \"#utility.yul\":15956:16322   */\n    tag_282:\n        /* \"#utility.yul\":16098:16101   */\n      0x00\n        /* \"#utility.yul\":16119:16186   */\n      tag_500\n        /* \"#utility.yul\":16183:16185   */\n      0x15\n        /* \"#utility.yul\":16178:16181   */\n      dup4\n        /* \"#utility.yul\":16119:16186   */\n      tag_255\n      jump\t// in\n    tag_500:\n        /* \"#utility.yul\":16112:16186   */\n      swap2\n      pop\n        /* \"#utility.yul\":16195:16288   */\n      tag_501\n        /* \"#utility.yul\":16284:16287   */\n      dup3\n        /* \"#utility.yul\":16195:16288   */\n      tag_281\n      jump\t// in\n    tag_501:\n        /* \"#utility.yul\":16313:16315   */\n      0x20\n        /* \"#utility.yul\":16308:16311   */\n      dup3\n        /* \"#utility.yul\":16304:16316   */\n      add\n        /* \"#utility.yul\":16297:16316   */\n      swap1\n      pop\n        /* \"#utility.yul\":15956:16322   */\n      swap2\n      swap1\n      pop\n      jump\t// out\n        /* \"#utility.yul\":16328:16747   */\n    tag_139:\n        /* \"#utility.yul\":16494:16498   */\n      0x00\n        /* \"#utility.yul\":16532:16534   */\n      0x20\n        /* \"#utility.yul\":16521:16530   */\n      dup3\n        /* \"#utility.yul\":16517:16535   */\n      add\n        /* \"#utility.yul\":16509:16535   */\n      swap1\n      pop\n        /* \"#utility.yul\":16581:16590   */\n      dup2\n        /* \"#utility.yul\":16575:16579   */\n      dup2\n        /* \"#utility.yul\":16571:16591   */\n      sub\n        /* \"#utility.yul\":16567:16568   */\n      0x00\n        /* \"#utility.yul\":16556:16565   */\n      dup4\n        /* \"#utility.yul\":16552:16569   */\n      add\n        /* \"#utility.yul\":16545:16592   */\n      mstore\n        /* \"#utility.yul\":16609:16740   */\n      tag_503\n        /* \"#utility.yul\":16735:16739   */\n      dup2\n        /* \"#utility.yul\":16609:16740   */\n      tag_282\n      jump\t// in\n    tag_503:\n        /* \"#utility.yul\":16601:16740   */\n      swap1\n      pop\n        /* \"#utility.yul\":16328:16747   */\n      swap2\n      swap1\n      pop\n      jump\t// out\n        /* \"#utility.yul\":16753:16920   */\n    tag_283:\n        /* \"#utility.yul\":16893:16912   */\n      0x4c6f74746572792068617320656e646564000000000000000000000000000000\n        /* \"#utility.yul\":16889:16890   */\n      0x00\n        /* \"#utility.yul\":16881:16887   */\n      dup3\n        /* \"#utility.yul\":16877:16891   */\n      add\n        /* \"#utility.yul\":16870:16913   */\n      mstore\n        /* \"#utility.yul\":16753:16920   */\n      pop\n      jump\t// out\n        /* \"#utility.yul\":16926:17292   */\n    tag_284:\n        /* \"#utility.yul\":17068:17071   */\n      0x00\n        /* \"#utility.yul\":17089:17156   */\n      tag_506\n        /* \"#utility.yul\":17153:17155   */\n      0x11\n        /* \"#utility.yul\":17148:17151   */\n      dup4\n        /* \"#utility.yul\":17089:17156   */\n      tag_255\n      jump\t// in\n    tag_506:\n        /* \"#utility.yul\":17082:17156   */\n      swap2\n      pop\n        /* \"#utility.yul\":17165:17258   */\n      tag_507\n        /* \"#utility.yul\":17254:17257   */\n      dup3\n        /* \"#utility.yul\":17165:17258   */\n      tag_283\n      jump\t// in\n    tag_507:\n        /* \"#utility.yul\":17283:17285   */\n      0x20\n        /* \"#utility.yul\":17278:17281   */\n      dup3\n        /* \"#utility.yul\":17274:17286   */\n      add\n        /* \"#utility.yul\":17267:17286   */\n      swap1\n      pop\n        /* \"#utility.yul\":16926:17292   */\n      swap2\n      swap1\n      pop\n      jump\t// out\n        /* \"#utility.yul\":17298:17717   */\n    tag_142:\n        /* \"#utility.yul\":17464:17468   */\n      0x00\n        /* \"#utility.yul\":17502:17504   */\n      0x20\n        /* \"#utility.yul\":17491:17500   */\n      dup3\n        /* \"#utility.yul\":17487:17505   */\n      add\n        /* \"#utility.yul\":17479:17505   */\n      swap1\n      pop\n        /* \"#utility.yul\":17551:17560   */\n      dup2\n        /* \"#utility.yul\":17545:17549   */\n      dup2\n        /* \"#utility.yul\":17541:17561   */\n      sub\n        /* \"#utility.yul\":17537:17538   */\n      0x00\n        /* \"#utility.yul\":17526:17535   */\n      dup4\n        /* \"#utility.yul\":17522:17539   */\n      add\n        /* \"#utility.yul\":17515:17562   */\n      mstore\n        /* \"#utility.yul\":17579:17710   */\n      tag_509\n        /* \"#utility.yul\":17705:17709   */\n      dup2\n        /* \"#utility.yul\":17579:17710   */\n      tag_284\n      jump\t// in\n    tag_509:\n        /* \"#utility.yul\":17571:17710   */\n      swap1\n      pop\n        /* \"#utility.yul\":17298:17717   */\n      swap2\n      swap1\n      pop\n      jump\t// out\n        /* \"#utility.yul\":17723:17903   */\n    tag_285:\n        /* \"#utility.yul\":17771:17848   */\n      0x4e487b7100000000000000000000000000000000000000000000000000000000\n        /* \"#utility.yul\":17768:17769   */\n      0x00\n        /* \"#utility.yul\":17761:17849   */\n      mstore\n        /* \"#utility.yul\":17868:17872   */\n      0x11\n        /* \"#utility.yul\":17865:17866   */\n      0x04\n        /* \"#utility.yul\":17858:17873   */\n      mstore\n        /* \"#utility.yul\":17892:17896   */\n      0x24\n        /* \"#utility.yul\":17889:17890   */\n      0x00\n        /* \"#utility.yul\":17882:17897   */\n      revert\n        /* \"#utility.yul\":17909:18100   */\n    tag_144:\n        /* \"#utility.yul\":17949:17952   */\n      0x00\n        /* \"#utility.yul\":17968:17988   */\n      tag_512\n        /* \"#utility.yul\":17986:17987   */\n      dup3\n        /* \"#utility.yul\":17968:17988   */\n      tag_239\n      jump\t// in\n    tag_512:\n        /* \"#utility.yul\":17963:17988   */\n      swap2\n      pop\n        /* \"#utility.yul\":18002:18022   */\n      tag_513\n        /* \"#utility.yul\":18020:18021   */\n      dup4\n        /* \"#utility.yul\":18002:18022   */\n      tag_239\n      jump\t// in\n    tag_513:\n        /* \"#utility.yul\":17997:18022   */\n      swap3\n      pop\n        /* \"#utility.yul\":18045:18046   */\n      dup3\n        /* \"#utility.yul\":18042:18043   */\n      dup3\n        /* \"#utility.yul\":18038:18047   */\n      add\n        /* \"#utility.yul\":18031:18047   */\n      swap1\n      pop\n        /* \"#utility.yul\":18066:18069   */\n      dup1\n        /* \"#utility.yul\":18063:18064   */\n      dup3\n        /* \"#utility.yul\":18060:18070   */\n      gt\n        /* \"#utility.yul\":18057:18093   */\n      iszero\n      tag_514\n      jumpi\n        /* \"#utility.yul\":18073:18091   */\n      tag_515\n      tag_285\n      jump\t// in\n    tag_515:\n        /* \"#utility.yul\":18057:18093   */\n    tag_514:\n        /* \"#utility.yul\":17909:18100   */\n      swap3\n      swap2\n      pop\n      pop\n      jump\t// out\n        /* \"#utility.yul\":18106:18284   */\n    tag_286:\n        /* \"#utility.yul\":18246:18276   */\n      0x4e6f7420656e6f756768207469636b65747320617661696c61626c6500000000\n        /* \"#utility.yul\":18242:18243   */\n      0x00\n        /* \"#utility.yul\":18234:18240   */\n      dup3\n        /* \"#utility.yul\":18230:18244   */\n      add\n        /* \"#utility.yul\":18223:18277   */\n      mstore\n        /* \"#utility.yul\":18106:18284   */\n      pop\n      jump\t// out\n        /* \"#utility.yul\":18290:18656   */\n    tag_287:\n        /* \"#utility.yul\":18432:18435   */\n      0x00\n        /* \"#utility.yul\":18453:18520   */\n      tag_518\n        /* \"#utility.yul\":18517:18519   */\n      0x1c\n        /* \"#utility.yul\":18512:18515   */\n      dup4\n        /* \"#utility.yul\":18453:18520   */\n      tag_255\n      jump\t// in\n    tag_518:\n        /* \"#utility.yul\":18446:18520   */\n      swap2\n      pop\n        /* \"#utility.yul\":18529:18622   */\n      tag_519\n        /* \"#utility.yul\":18618:18621   */\n      dup3\n        /* \"#utility.yul\":18529:18622   */\n      tag_286\n      jump\t// in\n    tag_519:\n        /* \"#utility.yul\":18647:18649   */\n      0x20\n        /* \"#utility.yul\":18642:18645   */\n      dup3\n        /* \"#utility.yul\":18638:18650   */\n      add\n        /* \"#utility.yul\":18631:18650   */\n      swap1\n      pop\n        /* \"#utility.yul\":18290:18656   */\n      swap2\n      swap1\n      pop\n      jump\t// out\n        /* \"#utility.yul\":18662:19081   */\n    tag_147:\n        /* \"#utility.yul\":18828:18832   */\n      0x00\n        /* \"#utility.yul\":18866:18868   */\n      0x20\n        /* \"#utility.yul\":18855:18864   */\n      dup3\n        /* \"#utility.yul\":18851:18869   */\n      add\n        /* \"#utility.yul\":18843:18869   */\n      swap1\n      pop\n        /* \"#utility.yul\":18915:18924   */\n      dup2\n        /* \"#utility.yul\":18909:18913   */\n      dup2\n        /* \"#utility.yul\":18905:18925   */\n      sub\n        /* \"#utility.yul\":18901:18902   */\n      0x00\n        /* \"#utility.yul\":18890:18899   */\n      dup4\n        /* \"#utility.yul\":18886:18903   */\n      add\n        /* \"#utility.yul\":18879:18926   */\n      mstore\n        /* \"#utility.yul\":18943:19074   */\n      tag_521\n        /* \"#utility.yul\":19069:19073   */\n      dup2\n        /* \"#utility.yul\":18943:19074   */\n      tag_287\n      jump\t// in\n    tag_521:\n        /* \"#utility.yul\":18935:19074   */\n      swap1\n      pop\n        /* \"#utility.yul\":18662:19081   */\n      swap2\n      swap1\n      pop\n      jump\t// out\n        /* \"#utility.yul\":19087:19497   */\n    tag_149:\n        /* \"#utility.yul\":19127:19134   */\n      0x00\n        /* \"#utility.yul\":19150:19170   */\n      tag_523\n        /* \"#utility.yul\":19168:19169   */\n      dup3\n        /* \"#utility.yul\":19150:19170   */\n      tag_239\n      jump\t// in\n    tag_523:\n        /* \"#utility.yul\":19145:19170   */\n      swap2\n      pop\n        /* \"#utility.yul\":19184:19204   */\n      tag_524\n        /* \"#utility.yul\":19202:19203   */\n      dup4\n        /* \"#utility.yul\":19184:19204   */\n      tag_239\n      jump\t// in\n    tag_524:\n        /* \"#utility.yul\":19179:19204   */\n      swap3\n      pop\n        /* \"#utility.yul\":19239:19240   */\n      dup3\n        /* \"#utility.yul\":19236:19237   */\n      dup3\n        /* \"#utility.yul\":19232:19241   */\n      mul\n        /* \"#utility.yul\":19261:19291   */\n      tag_525\n        /* \"#utility.yul\":19279:19290   */\n      dup2\n        /* \"#utility.yul\":19261:19291   */\n      tag_239\n      jump\t// in\n    tag_525:\n        /* \"#utility.yul\":19250:19291   */\n      swap2\n      pop\n        /* \"#utility.yul\":19440:19441   */\n      dup3\n        /* \"#utility.yul\":19431:19438   */\n      dup3\n        /* \"#utility.yul\":19427:19442   */\n      div\n        /* \"#utility.yul\":19424:19425   */\n      dup5\n        /* \"#utility.yul\":19421:19443   */\n      eq\n        /* \"#utility.yul\":19401:19402   */\n      dup4\n        /* \"#utility.yul\":19394:19403   */\n      iszero\n        /* \"#utility.yul\":19374:19457   */\n      or\n        /* \"#utility.yul\":19351:19490   */\n      tag_526\n      jumpi\n        /* \"#utility.yul\":19470:19488   */\n      tag_527\n      tag_285\n      jump\t// in\n    tag_527:\n        /* \"#utility.yul\":19351:19490   */\n    tag_526:\n        /* \"#utility.yul\":19135:19497   */\n      pop\n        /* \"#utility.yul\":19087:19497   */\n      swap3\n      swap2\n      pop\n      pop\n      jump\t// out\n        /* \"#utility.yul\":19503:19945   */\n    tag_151:\n        /* \"#utility.yul\":19652:19656   */\n      0x00\n        /* \"#utility.yul\":19690:19692   */\n      0x60\n        /* \"#utility.yul\":19679:19688   */\n      dup3\n        /* \"#utility.yul\":19675:19693   */\n      add\n        /* \"#utility.yul\":19667:19693   */\n      swap1\n      pop\n        /* \"#utility.yul\":19703:19774   */\n      tag_529\n        /* \"#utility.yul\":19771:19772   */\n      0x00\n        /* \"#utility.yul\":19760:19769   */\n      dup4\n        /* \"#utility.yul\":19756:19773   */\n      add\n        /* \"#utility.yul\":19747:19753   */\n      dup7\n        /* \"#utility.yul\":19703:19774   */\n      tag_261\n      jump\t// in\n    tag_529:\n        /* \"#utility.yul\":19784:19856   */\n      tag_530\n        /* \"#utility.yul\":19852:19854   */\n      0x20\n        /* \"#utility.yul\":19841:19850   */\n      dup4\n        /* \"#utility.yul\":19837:19855   */\n      add\n        /* \"#utility.yul\":19828:19834   */\n      dup6\n        /* \"#utility.yul\":19784:19856   */\n      tag_261\n      jump\t// in\n    tag_530:\n        /* \"#utility.yul\":19866:19938   */\n      tag_531\n        /* \"#utility.yul\":19934:19936   */\n      0x40\n        /* \"#utility.yul\":19923:19932   */\n      dup4\n        /* \"#utility.yul\":19919:19937   */\n      add\n        /* \"#utility.yul\":19910:19916   */\n      dup5\n        /* \"#utility.yul\":19866:19938   */\n      tag_240\n      jump\t// in\n    tag_531:\n        /* \"#utility.yul\":19503:19945   */\n      swap5\n      swap4\n      pop\n      pop\n      pop\n      pop\n      jump\t// out\n        /* \"#utility.yul\":19951:20067   */\n    tag_288:\n        /* \"#utility.yul\":20021:20042   */\n      tag_533\n        /* \"#utility.yul\":20036:20041   */\n      dup2\n        /* \"#utility.yul\":20021:20042   */\n      tag_246\n      jump\t// in\n    tag_533:\n        /* \"#utility.yul\":20014:20019   */\n      dup2\n        /* \"#utility.yul\":20011:20043   */\n      eq\n        /* \"#utility.yul\":20001:20061   */\n      tag_534\n      jumpi\n        /* \"#utility.yul\":20057:20058   */\n      0x00\n        /* \"#utility.yul\":20054:20055   */\n      dup1\n        /* \"#utility.yul\":20047:20059   */\n      revert\n        /* \"#utility.yul\":20001:20061   */\n    tag_534:\n        /* \"#utility.yul\":19951:20067   */\n      pop\n      jump\t// out\n        /* \"#utility.yul\":20073:20210   */\n    tag_289:\n        /* \"#utility.yul\":20127:20132   */\n      0x00\n        /* \"#utility.yul\":20158:20164   */\n      dup2\n        /* \"#utility.yul\":20152:20165   */\n      mload\n        /* \"#utility.yul\":20143:20165   */\n      swap1\n      pop\n        /* \"#utility.yul\":20174:20204   */\n      tag_536\n        /* \"#utility.yul\":20198:20203   */\n      dup2\n        /* \"#utility.yul\":20174:20204   */\n      tag_288\n      jump\t// in\n    tag_536:\n        /* \"#utility.yul\":20073:20210   */\n      swap3\n      swap2\n      pop\n      pop\n      jump\t// out\n        /* \"#utility.yul\":20216:20561   */\n    tag_155:\n        /* \"#utility.yul\":20283:20289   */\n      0x00\n        /* \"#utility.yul\":20332:20334   */\n      0x20\n        /* \"#utility.yul\":20320:20329   */\n      dup3\n        /* \"#utility.yul\":20311:20318   */\n      dup5\n        /* \"#utility.yul\":20307:20330   */\n      sub\n        /* \"#utility.yul\":20303:20335   */\n      slt\n        /* \"#utility.yul\":20300:20419   */\n      iszero\n      tag_538\n      jumpi\n        /* \"#utility.yul\":20338:20417   */\n      tag_539\n      tag_242\n      jump\t// in\n    tag_539:\n        /* \"#utility.yul\":20300:20419   */\n    tag_538:\n        /* \"#utility.yul\":20458:20459   */\n      0x00\n        /* \"#utility.yul\":20483:20544   */\n      tag_540\n        /* \"#utility.yul\":20536:20543   */\n      dup5\n        /* \"#utility.yul\":20527:20533   */\n      dup3\n        /* \"#utility.yul\":20516:20525   */\n      dup6\n        /* \"#utility.yul\":20512:20534   */\n      add\n        /* \"#utility.yul\":20483:20544   */\n      tag_289\n      jump\t// in\n    tag_540:\n        /* \"#utility.yul\":20473:20544   */\n      swap2\n      pop\n        /* \"#utility.yul\":20429:20554   */\n      pop\n        /* \"#utility.yul\":20216:20561   */\n      swap3\n      swap2\n      pop\n      pop\n      jump\t// out\n        /* \"#utility.yul\":20567:20761   */\n    tag_158:\n        /* \"#utility.yul\":20607:20611   */\n      0x00\n        /* \"#utility.yul\":20627:20647   */\n      tag_542\n        /* \"#utility.yul\":20645:20646   */\n      dup3\n        /* \"#utility.yul\":20627:20647   */\n      tag_239\n      jump\t// in\n    tag_542:\n        /* \"#utility.yul\":20622:20647   */\n      swap2\n      pop\n        /* \"#utility.yul\":20661:20681   */\n      tag_543\n        /* \"#utility.yul\":20679:20680   */\n      dup4\n        /* \"#utility.yul\":20661:20681   */\n      tag_239\n      jump\t// in\n    tag_543:\n        /* \"#utility.yul\":20656:20681   */\n      swap3\n      pop\n        /* \"#utility.yul\":20705:20706   */\n      dup3\n        /* \"#utility.yul\":20702:20703   */\n      dup3\n        /* \"#utility.yul\":20698:20707   */\n      sub\n        /* \"#utility.yul\":20690:20707   */\n      swap1\n      pop\n        /* \"#utility.yul\":20729:20730   */\n      dup2\n        /* \"#utility.yul\":20723:20727   */\n      dup2\n        /* \"#utility.yul\":20720:20731   */\n      gt\n        /* \"#utility.yul\":20717:20754   */\n      iszero\n      tag_544\n      jumpi\n        /* \"#utility.yul\":20734:20752   */\n      tag_545\n      tag_285\n      jump\t// in\n    tag_545:\n        /* \"#utility.yul\":20717:20754   */\n    tag_544:\n        /* \"#utility.yul\":20567:20761   */\n      swap3\n      swap2\n      pop\n      pop\n      jump\t// out\n        /* \"#utility.yul\":20767:21209   */\n    tag_161:\n        /* \"#utility.yul\":20916:20920   */\n      0x00\n        /* \"#utility.yul\":20954:20956   */\n      0x60\n        /* \"#utility.yul\":20943:20952   */\n      dup3\n        /* \"#utility.yul\":20939:20957   */\n      add\n        /* \"#utility.yul\":20931:20957   */\n      swap1\n      pop\n        /* \"#utility.yul\":20967:21038   */\n      tag_547\n        /* \"#utility.yul\":21035:21036   */\n      0x00\n        /* \"#utility.yul\":21024:21033   */\n      dup4\n        /* \"#utility.yul\":21020:21037   */\n      add\n        /* \"#utility.yul\":21011:21017   */\n      dup7\n        /* \"#utility.yul\":20967:21038   */\n      tag_240\n      jump\t// in\n    tag_547:\n        /* \"#utility.yul\":21048:21120   */\n      tag_548\n        /* \"#utility.yul\":21116:21118   */\n      0x20\n        /* \"#utility.yul\":21105:21114   */\n      dup4\n        /* \"#utility.yul\":21101:21119   */\n      add\n        /* \"#utility.yul\":21092:21098   */\n      dup6\n        /* \"#utility.yul\":21048:21120   */\n      tag_240\n      jump\t// in\n    tag_548:\n        /* \"#utility.yul\":21130:21202   */\n      tag_549\n        /* \"#utility.yul\":21198:21200   */\n      0x40\n        /* \"#utility.yul\":21187:21196   */\n      dup4\n        /* \"#utility.yul\":21183:21201   */\n      add\n        /* \"#utility.yul\":21174:21180   */\n      dup5\n        /* \"#utility.yul\":21130:21202   */\n      tag_240\n      jump\t// in\n    tag_549:\n        /* \"#utility.yul\":20767:21209   */\n      swap5\n      swap4\n      pop\n      pop\n      pop\n      pop\n      jump\t// out\n        /* \"#utility.yul\":21215:21439   */\n    tag_290:\n        /* \"#utility.yul\":21355:21389   */\n      0x4f6e6c7920746865206f776e65722063616e2063616c6c20746869732066756e\n        /* \"#utility.yul\":21351:21352   */\n      0x00\n        /* \"#utility.yul\":21343:21349   */\n      dup3\n        /* \"#utility.yul\":21339:21353   */\n      add\n        /* \"#utility.yul\":21332:21390   */\n      mstore\n        /* \"#utility.yul\":21424:21431   */\n      0x6374696f6e000000000000000000000000000000000000000000000000000000\n        /* \"#utility.yul\":21419:21421   */\n      0x20\n        /* \"#utility.yul\":21411:21417   */\n      dup3\n        /* \"#utility.yul\":21407:21422   */\n      add\n        /* \"#utility.yul\":21400:21432   */\n      mstore\n        /* \"#utility.yul\":21215:21439   */\n      pop\n      jump\t// out\n        /* \"#utility.yul\":21445:21811   */\n    tag_291:\n        /* \"#utility.yul\":21587:21590   */\n      0x00\n        /* \"#utility.yul\":21608:21675   */\n      tag_552\n        /* \"#utility.yul\":21672:21674   */\n      0x25\n        /* \"#utility.yul\":21667:21670   */\n      dup4\n        /* \"#utility.yul\":21608:21675   */\n      tag_255\n      jump\t// in\n    tag_552:\n        /* \"#utility.yul\":21601:21675   */\n      swap2\n      pop\n        /* \"#utility.yul\":21684:21777   */\n      tag_553\n        /* \"#utility.yul\":21773:21776   */\n      dup3\n        /* \"#utility.yul\":21684:21777   */\n      tag_290\n      jump\t// in\n    tag_553:\n        /* \"#utility.yul\":21802:21804   */\n      0x40\n        /* \"#utility.yul\":21797:21800   */\n      dup3\n        /* \"#utility.yul\":21793:21805   */\n      add\n        /* \"#utility.yul\":21786:21805   */\n      swap1\n      pop\n        /* \"#utility.yul\":21445:21811   */\n      swap2\n      swap1\n      pop\n      jump\t// out\n        /* \"#utility.yul\":21817:22236   */\n    tag_170:\n        /* \"#utility.yul\":21983:21987   */\n      0x00\n        /* \"#utility.yul\":22021:22023   */\n      0x20\n        /* \"#utility.yul\":22010:22019   */\n      dup3\n        /* \"#utility.yul\":22006:22024   */\n      add\n        /* \"#utility.yul\":21998:22024   */\n      swap1\n      pop\n        /* \"#utility.yul\":22070:22079   */\n      dup2\n        /* \"#utility.yul\":22064:22068   */\n      dup2\n        /* \"#utility.yul\":22060:22080   */\n      sub\n        /* \"#utility.yul\":22056:22057   */\n      0x00\n        /* \"#utility.yul\":22045:22054   */\n      dup4\n        /* \"#utility.yul\":22041:22058   */\n      add\n        /* \"#utility.yul\":22034:22081   */\n      mstore\n        /* \"#utility.yul\":22098:22229   */\n      tag_555\n        /* \"#utility.yul\":22224:22228   */\n      dup2\n        /* \"#utility.yul\":22098:22229   */\n      tag_291\n      jump\t// in\n    tag_555:\n        /* \"#utility.yul\":22090:22229   */\n      swap1\n      pop\n        /* \"#utility.yul\":21817:22236   */\n      swap2\n      swap1\n      pop\n      jump\t// out\n        /* \"#utility.yul\":22242:22413   */\n    tag_292:\n        /* \"#utility.yul\":22382:22405   */\n      0x496e76616c696420746f6b656e20616464726573730000000000000000000000\n        /* \"#utility.yul\":22378:22379   */\n      0x00\n        /* \"#utility.yul\":22370:22376   */\n      dup3\n        /* \"#utility.yul\":22366:22380   */\n      add\n        /* \"#utility.yul\":22359:22406   */\n      mstore\n        /* \"#utility.yul\":22242:22413   */\n      pop\n      jump\t// out\n        /* \"#utility.yul\":22419:22785   */\n    tag_293:\n        /* \"#utility.yul\":22561:22564   */\n      0x00\n        /* \"#utility.yul\":22582:22649   */\n      tag_558\n        /* \"#utility.yul\":22646:22648   */\n      0x15\n        /* \"#utility.yul\":22641:22644   */\n      dup4\n        /* \"#utility.yul\":22582:22649   */\n      tag_255\n      jump\t// in\n    tag_558:\n        /* \"#utility.yul\":22575:22649   */\n      swap2\n      pop\n        /* \"#utility.yul\":22658:22751   */\n      tag_559\n        /* \"#utility.yul\":22747:22750   */\n      dup3\n        /* \"#utility.yul\":22658:22751   */\n      tag_292\n      jump\t// in\n    tag_559:\n        /* \"#utility.yul\":22776:22778   */\n      0x20\n        /* \"#utility.yul\":22771:22774   */\n      dup3\n        /* \"#utility.yul\":22767:22779   */\n      add\n        /* \"#utility.yul\":22760:22779   */\n      swap1\n      pop\n        /* \"#utility.yul\":22419:22785   */\n      swap2\n      swap1\n      pop\n      jump\t// out\n        /* \"#utility.yul\":22791:23210   */\n    tag_174:\n        /* \"#utility.yul\":22957:22961   */\n      0x00\n        /* \"#utility.yul\":22995:22997   */\n      0x20\n        /* \"#utility.yul\":22984:22993   */\n      dup3\n        /* \"#utility.yul\":22980:22998   */\n      add\n        /* \"#utility.yul\":22972:22998   */\n      swap1\n      pop\n        /* \"#utility.yul\":23044:23053   */\n      dup2\n        /* \"#utility.yul\":23038:23042   */\n      dup2\n        /* \"#utility.yul\":23034:23054   */\n      sub\n        /* \"#utility.yul\":23030:23031   */\n      0x00\n        /* \"#utility.yul\":23019:23028   */\n      dup4\n        /* \"#utility.yul\":23015:23032   */\n      add\n        /* \"#utility.yul\":23008:23055   */\n      mstore\n        /* \"#utility.yul\":23072:23203   */\n      tag_561\n        /* \"#utility.yul\":23198:23202   */\n      dup2\n        /* \"#utility.yul\":23072:23203   */\n      tag_293\n      jump\t// in\n    tag_561:\n        /* \"#utility.yul\":23064:23203   */\n      swap1\n      pop\n        /* \"#utility.yul\":22791:23210   */\n      swap2\n      swap1\n      pop\n      jump\t// out\n        /* \"#utility.yul\":23216:23394   */\n    tag_294:\n        /* \"#utility.yul\":23356:23386   */\n      0x4174206c65617374206f6e652077696e6e657220726571756972656400000000\n        /* \"#utility.yul\":23352:23353   */\n      0x00\n        /* \"#utility.yul\":23344:23350   */\n      dup3\n        /* \"#utility.yul\":23340:23354   */\n      add\n        /* \"#utility.yul\":23333:23387   */\n      mstore\n        /* \"#utility.yul\":23216:23394   */\n      pop\n      jump\t// out\n        /* \"#utility.yul\":23400:23766   */\n    tag_295:\n        /* \"#utility.yul\":23542:23545   */\n      0x00\n        /* \"#utility.yul\":23563:23630   */\n      tag_564\n        /* \"#utility.yul\":23627:23629   */\n      0x1c\n        /* \"#utility.yul\":23622:23625   */\n      dup4\n        /* \"#utility.yul\":23563:23630   */\n      tag_255\n      jump\t// in\n    tag_564:\n        /* \"#utility.yul\":23556:23630   */\n      swap2\n      pop\n        /* \"#utility.yul\":23639:23732   */\n      tag_565\n        /* \"#utility.yul\":23728:23731   */\n      dup3\n        /* \"#utility.yul\":23639:23732   */\n      tag_294\n      jump\t// in\n    tag_565:\n        /* \"#utility.yul\":23757:23759   */\n      0x20\n        /* \"#utility.yul\":23752:23755   */\n      dup3\n        /* \"#utility.yul\":23748:23760   */\n      add\n        /* \"#utility.yul\":23741:23760   */\n      swap1\n      pop\n        /* \"#utility.yul\":23400:23766   */\n      swap2\n      swap1\n      pop\n      jump\t// out\n        /* \"#utility.yul\":23772:24191   */\n    tag_182:\n        /* \"#utility.yul\":23938:23942   */\n      0x00\n        /* \"#utility.yul\":23976:23978   */\n      0x20\n        /* \"#utility.yul\":23965:23974   */\n      dup3\n        /* \"#utility.yul\":23961:23979   */\n      add\n        /* \"#utility.yul\":23953:23979   */\n      swap1\n      pop\n        /* \"#utility.yul\":24025:24034   */\n      dup2\n        /* \"#utility.yul\":24019:24023   */\n      dup2\n        /* \"#utility.yul\":24015:24035   */\n      sub\n        /* \"#utility.yul\":24011:24012   */\n      0x00\n        /* \"#utility.yul\":24000:24009   */\n      dup4\n        /* \"#utility.yul\":23996:24013   */\n      add\n        /* \"#utility.yul\":23989:24036   */\n      mstore\n        /* \"#utility.yul\":24053:24184   */\n      tag_567\n        /* \"#utility.yul\":24179:24183   */\n      dup2\n        /* \"#utility.yul\":24053:24184   */\n      tag_295\n      jump\t// in\n    tag_567:\n        /* \"#utility.yul\":24045:24184   */\n      swap1\n      pop\n        /* \"#utility.yul\":23772:24191   */\n      swap2\n      swap1\n      pop\n      jump\t// out\n        /* \"#utility.yul\":24197:24419   */\n    tag_296:\n        /* \"#utility.yul\":24337:24371   */\n      0x4d696e2070617274696369706174696f6e2063616e6e6f742065786365656420\n        /* \"#utility.yul\":24333:24334   */\n      0x00\n        /* \"#utility.yul\":24325:24331   */\n      dup3\n        /* \"#utility.yul\":24321:24335   */\n      add\n        /* \"#utility.yul\":24314:24372   */\n      mstore\n        /* \"#utility.yul\":24406:24411   */\n      0x3130300000000000000000000000000000000000000000000000000000000000\n        /* \"#utility.yul\":24401:24403   */\n      0x20\n        /* \"#utility.yul\":24393:24399   */\n      dup3\n        /* \"#utility.yul\":24389:24404   */\n      add\n        /* \"#utility.yul\":24382:24412   */\n      mstore\n        /* \"#utility.yul\":24197:24419   */\n      pop\n      jump\t// out\n        /* \"#utility.yul\":24425:24791   */\n    tag_297:\n        /* \"#utility.yul\":24567:24570   */\n      0x00\n        /* \"#utility.yul\":24588:24655   */\n      tag_570\n        /* \"#utility.yul\":24652:24654   */\n      0x23\n        /* \"#utility.yul\":24647:24650   */\n      dup4\n        /* \"#utility.yul\":24588:24655   */\n      tag_255\n      jump\t// in\n    tag_570:\n        /* \"#utility.yul\":24581:24655   */\n      swap2\n      pop\n        /* \"#utility.yul\":24664:24757   */\n      tag_571\n        /* \"#utility.yul\":24753:24756   */\n      dup3\n        /* \"#utility.yul\":24664:24757   */\n      tag_296\n      jump\t// in\n    tag_571:\n        /* \"#utility.yul\":24782:24784   */\n      0x40\n        /* \"#utility.yul\":24777:24780   */\n      dup3\n        /* \"#utility.yul\":24773:24785   */\n      add\n        /* \"#utility.yul\":24766:24785   */\n      swap1\n      pop\n        /* \"#utility.yul\":24425:24791   */\n      swap2\n      swap1\n      pop\n      jump\t// out\n        /* \"#utility.yul\":24797:25216   */\n    tag_185:\n        /* \"#utility.yul\":24963:24967   */\n      0x00\n        /* \"#utility.yul\":25001:25003   */\n      0x20\n        /* \"#utility.yul\":24990:24999   */\n      dup3\n        /* \"#utility.yul\":24986:25004   */\n      add\n        /* \"#utility.yul\":24978:25004   */\n      swap1\n      pop\n        /* \"#utility.yul\":25050:25059   */\n      dup2\n        /* \"#utility.yul\":25044:25048   */\n      dup2\n        /* \"#utility.yul\":25040:25060   */\n      sub\n        /* \"#utility.yul\":25036:25037   */\n      0x00\n        /* \"#utility.yul\":25025:25034   */\n      dup4\n        /* \"#utility.yul\":25021:25038   */\n      add\n        /* \"#utility.yul\":25014:25061   */\n      mstore\n        /* \"#utility.yul\":25078:25209   */\n      tag_573\n        /* \"#utility.yul\":25204:25208   */\n      dup2\n        /* \"#utility.yul\":25078:25209   */\n      tag_297\n      jump\t// in\n    tag_573:\n        /* \"#utility.yul\":25070:25209   */\n      swap1\n      pop\n        /* \"#utility.yul\":24797:25216   */\n      swap2\n      swap1\n      pop\n      jump\t// out\n        /* \"#utility.yul\":25222:25455   */\n    tag_187:\n        /* \"#utility.yul\":25261:25264   */\n      0x00\n        /* \"#utility.yul\":25284:25308   */\n      tag_575\n        /* \"#utility.yul\":25302:25307   */\n      dup3\n        /* \"#utility.yul\":25284:25308   */\n      tag_239\n      jump\t// in\n    tag_575:\n        /* \"#utility.yul\":25275:25308   */\n      swap2\n      pop\n        /* \"#utility.yul\":25330:25396   */\n      0xffffffffffffffffffffffffffffffffffffffffffffffffffffffffffffffff\n        /* \"#utility.yul\":25323:25328   */\n      dup3\n        /* \"#utility.yul\":25320:25397   */\n      sub\n        /* \"#utility.yul\":25317:25420   */\n      tag_576\n      jumpi\n        /* \"#utility.yul\":25400:25418   */\n      tag_577\n      tag_285\n      jump\t// in\n    tag_577:\n        /* \"#utility.yul\":25317:25420   */\n    tag_576:\n        /* \"#utility.yul\":25447:25448   */\n      0x01\n        /* \"#utility.yul\":25440:25445   */\n      dup3\n        /* \"#utility.yul\":25436:25449   */\n      add\n        /* \"#utility.yul\":25429:25449   */\n      swap1\n      pop\n        /* \"#utility.yul\":25222:25455   */\n      swap2\n      swap1\n      pop\n      jump\t// out\n        /* \"#utility.yul\":25461:25602   */\n    tag_298:\n        /* \"#utility.yul\":25510:25514   */\n      0x00\n        /* \"#utility.yul\":25533:25536   */\n      dup2\n        /* \"#utility.yul\":25525:25536   */\n      swap1\n      pop\n        /* \"#utility.yul\":25556:25559   */\n      dup2\n        /* \"#utility.yul\":25553:25554   */\n      0x00\n        /* \"#utility.yul\":25546:25560   */\n      mstore\n        /* \"#utility.yul\":25590:25594   */\n      0x20\n        /* \"#utility.yul\":25587:25588   */\n      0x00\n        /* \"#utility.yul\":25577:25595   */\n      keccak256\n        /* \"#utility.yul\":25569:25595   */\n      swap1\n      pop\n        /* \"#utility.yul\":25461:25602   */\n      swap2\n      swap1\n      pop\n      jump\t// out\n        /* \"#utility.yul\":25608:25701   */\n    tag_299:\n        /* \"#utility.yul\":25645:25651   */\n      0x00\n        /* \"#utility.yul\":25692:25694   */\n      0x20\n        /* \"#utility.yul\":25687:25689   */\n      0x1f\n        /* \"#utility.yul\":25680:25685   */\n      dup4\n        /* \"#utility.yul\":25676:25690   */\n      add\n        /* \"#utility.yul\":25672:25695   */\n      div\n        /* \"#utility.yul\":25662:25695   */\n      swap1\n      pop\n        /* \"#utility.yul\":25608:25701   */\n      swap2\n      swap1\n      pop\n      jump\t// out\n        /* \"#utility.yul\":25707:25814   */\n    tag_300:\n        /* \"#utility.yul\":25751:25759   */\n      0x00\n        /* \"#utility.yul\":25801:25806   */\n      dup3\n        /* \"#utility.yul\":25795:25799   */\n      dup3\n        /* \"#utility.yul\":25791:25807   */\n      shl\n        /* \"#utility.yul\":25770:25807   */\n      swap1\n      pop\n        /* \"#utility.yul\":25707:25814   */\n      swap3\n      swap2\n      pop\n      pop\n      jump\t// out\n        /* \"#utility.yul\":25820:26213   */\n    tag_301:\n        /* \"#utility.yul\":25889:25895   */\n      0x00\n        /* \"#utility.yul\":25939:25940   */\n      0x08\n        /* \"#utility.yul\":25927:25937   */\n      dup4\n        /* \"#utility.yul\":25923:25941   */\n      mul\n        /* \"#utility.yul\":25962:26059   */\n      tag_582\n        /* \"#utility.yul\":25992:26058   */\n      0xffffffffffffffffffffffffffffffffffffffffffffffffffffffffffffffff\n        /* \"#utility.yul\":25981:25990   */\n      dup3\n        /* \"#utility.yul\":25962:26059   */\n      tag_300\n      jump\t// in\n    tag_582:\n        /* \"#utility.yul\":26080:26119   */\n      tag_583\n        /* \"#utility.yul\":26110:26118   */\n      dup7\n        /* \"#utility.yul\":26099:26108   */\n      dup4\n        /* \"#utility.yul\":26080:26119   */\n      tag_300\n      jump\t// in\n    tag_583:\n        /* \"#utility.yul\":26068:26119   */\n      swap6\n      pop\n        /* \"#utility.yul\":26152:26156   */\n      dup1\n        /* \"#utility.yul\":26148:26157   */\n      not\n        /* \"#utility.yul\":26141:26146   */\n      dup5\n        /* \"#utility.yul\":26137:26158   */\n      and\n        /* \"#utility.yul\":26128:26158   */\n      swap4\n      pop\n        /* \"#utility.yul\":26201:26205   */\n      dup1\n        /* \"#utility.yul\":26191:26199   */\n      dup7\n        /* \"#utility.yul\":26187:26206   */\n      and\n        /* \"#utility.yul\":26180:26185   */\n      dup5\n        /* \"#utility.yul\":26177:26207   */\n      or\n        /* \"#utility.yul\":26167:26207   */\n      swap3\n      pop\n        /* \"#utility.yul\":25896:26213   */\n      pop\n      pop\n        /* \"#utility.yul\":25820:26213   */\n      swap4\n      swap3\n      pop\n      pop\n      pop\n      jump\t// out\n        /* \"#utility.yul\":26219:26361   */\n    tag_302:\n        /* \"#utility.yul\":26269:26278   */\n      0x00\n        /* \"#utility.yul\":26302:26355   */\n      tag_585\n        /* \"#utility.yul\":26320:26354   */\n      tag_586\n        /* \"#utility.yul\":26329:26353   */\n      tag_587\n        /* \"#utility.yul\":26347:26352   */\n      dup5\n        /* \"#utility.yul\":26329:26353   */\n      tag_239\n      jump\t// in\n    tag_587:\n        /* \"#utility.yul\":26320:26354   */\n      tag_275\n      jump\t// in\n    tag_586:\n        /* \"#utility.yul\":26302:26355   */\n      tag_239\n      jump\t// in\n    tag_585:\n        /* \"#utility.yul\":26289:26355   */\n      swap1\n      pop\n        /* \"#utility.yul\":26219:26361   */\n      swap2\n      swap1\n      pop\n      jump\t// out\n        /* \"#utility.yul\":26367:26442   */\n    tag_303:\n        /* \"#utility.yul\":26410:26413   */\n      0x00\n        /* \"#utility.yul\":26431:26436   */\n      dup2\n        /* \"#utility.yul\":26424:26436   */\n      swap1\n      pop\n        /* \"#utility.yul\":26367:26442   */\n      swap2\n      swap1\n      pop\n      jump\t// out\n        /* \"#utility.yul\":26448:26717   */\n    tag_304:\n        /* \"#utility.yul\":26558:26597   */\n      tag_590\n        /* \"#utility.yul\":26589:26596   */\n      dup4\n        /* \"#utility.yul\":26558:26597   */\n      tag_302\n      jump\t// in\n    tag_590:\n        /* \"#utility.yul\":26619:26710   */\n      tag_591\n        /* \"#utility.yul\":26668:26709   */\n      tag_592\n        /* \"#utility.yul\":26692:26708   */\n      dup3\n        /* \"#utility.yul\":26668:26709   */\n      tag_303\n      jump\t// in\n    tag_592:\n        /* \"#utility.yul\":26660:26666   */\n      dup5\n        /* \"#utility.yul\":26653:26657   */\n      dup5\n        /* \"#utility.yul\":26647:26658   */\n      sload\n        /* \"#utility.yul\":26619:26710   */\n      tag_301\n      jump\t// in\n    tag_591:\n        /* \"#utility.yul\":26613:26617   */\n      dup3\n        /* \"#utility.yul\":26606:26711   */\n      sstore\n        /* \"#utility.yul\":26524:26717   */\n      pop\n        /* \"#utility.yul\":26448:26717   */\n      pop\n      pop\n      pop\n      jump\t// out\n        /* \"#utility.yul\":26723:26796   */\n    tag_305:\n        /* \"#utility.yul\":26768:26771   */\n      0x00\n        /* \"#utility.yul\":26723:26796   */\n      swap1\n      jump\t// out\n        /* \"#utility.yul\":26802:26991   */\n    tag_306:\n        /* \"#utility.yul\":26879:26911   */\n      tag_595\n      tag_305\n      jump\t// in\n    tag_595:\n        /* \"#utility.yul\":26920:26985   */\n      tag_596\n        /* \"#utility.yul\":26978:26984   */\n      dup2\n        /* \"#utility.yul\":26970:26976   */\n      dup5\n        /* \"#utility.yul\":26964:26968   */\n      dup5\n        /* \"#utility.yul\":26920:26985   */\n      tag_304\n      jump\t// in\n    tag_596:\n        /* \"#utility.yul\":26855:26991   */\n      pop\n        /* \"#utility.yul\":26802:26991   */\n      pop\n      pop\n      jump\t// out\n        /* \"#utility.yul\":26997:27183   */\n    tag_307:\n        /* \"#utility.yul\":27057:27177   */\n    tag_598:\n        /* \"#utility.yul\":27074:27077   */\n      dup2\n        /* \"#utility.yul\":27067:27072   */\n      dup2\n        /* \"#utility.yul\":27064:27078   */\n      lt\n        /* \"#utility.yul\":27057:27177   */\n      iszero\n      tag_600\n      jumpi\n        /* \"#utility.yul\":27128:27167   */\n      tag_601\n        /* \"#utility.yul\":27165:27166   */\n      0x00\n        /* \"#utility.yul\":27158:27163   */\n      dup3\n        /* \"#utility.yul\":27128:27167   */\n      tag_306\n      jump\t// in\n    tag_601:\n        /* \"#utility.yul\":27101:27102   */\n      0x01\n        /* \"#utility.yul\":27094:27099   */\n      dup2\n        /* \"#utility.yul\":27090:27103   */\n      add\n        /* \"#utility.yul\":27081:27103   */\n      swap1\n      pop\n        /* \"#utility.yul\":27057:27177   */\n      jump(tag_598)\n    tag_600:\n        /* \"#utility.yul\":26997:27183   */\n      pop\n      pop\n      jump\t// out\n        /* \"#utility.yul\":27189:27732   */\n    tag_308:\n        /* \"#utility.yul\":27290:27292   */\n      0x1f\n        /* \"#utility.yul\":27285:27288   */\n      dup3\n        /* \"#utility.yul\":27282:27293   */\n      gt\n        /* \"#utility.yul\":27279:27725   */\n      iszero\n      tag_603\n      jumpi\n        /* \"#utility.yul\":27324:27362   */\n      tag_604\n        /* \"#utility.yul\":27356:27361   */\n      dup2\n        /* \"#utility.yul\":27324:27362   */\n      tag_298\n      jump\t// in\n    tag_604:\n        /* \"#utility.yul\":27408:27437   */\n      tag_605\n        /* \"#utility.yul\":27426:27436   */\n      dup5\n        /* \"#utility.yul\":27408:27437   */\n      tag_299\n      jump\t// in\n    tag_605:\n        /* \"#utility.yul\":27398:27406   */\n      dup2\n        /* \"#utility.yul\":27394:27438   */\n      add\n        /* \"#utility.yul\":27591:27593   */\n      0x20\n        /* \"#utility.yul\":27579:27589   */\n      dup6\n        /* \"#utility.yul\":27576:27594   */\n      lt\n        /* \"#utility.yul\":27573:27622   */\n      iszero\n      tag_606\n      jumpi\n        /* \"#utility.yul\":27612:27620   */\n      dup2\n        /* \"#utility.yul\":27597:27620   */\n      swap1\n      pop\n        /* \"#utility.yul\":27573:27622   */\n    tag_606:\n        /* \"#utility.yul\":27635:27715   */\n      tag_607\n        /* \"#utility.yul\":27691:27713   */\n      tag_608\n        /* \"#utility.yul\":27709:27712   */\n      dup6\n        /* \"#utility.yul\":27691:27713   */\n      tag_299\n      jump\t// in\n    tag_608:\n        /* \"#utility.yul\":27681:27689   */\n      dup4\n        /* \"#utility.yul\":27677:27714   */\n      add\n        /* \"#utility.yul\":27664:27675   */\n      dup3\n        /* \"#utility.yul\":27635:27715   */\n      tag_307\n      jump\t// in\n    tag_607:\n        /* \"#utility.yul\":27294:27725   */\n      pop\n      pop\n        /* \"#utility.yul\":27279:27725   */\n    tag_603:\n        /* \"#utility.yul\":27189:27732   */\n      pop\n      pop\n      pop\n      jump\t// out\n        /* \"#utility.yul\":27738:27855   */\n    tag_309:\n        /* \"#utility.yul\":27792:27800   */\n      0x00\n        /* \"#utility.yul\":27842:27847   */\n      dup3\n        /* \"#utility.yul\":27836:27840   */\n      dup3\n        /* \"#utility.yul\":27832:27848   */\n      shr\n        /* \"#utility.yul\":27811:27848   */\n      swap1\n      pop\n        /* \"#utility.yul\":27738:27855   */\n      swap3\n      swap2\n      pop\n      pop\n      jump\t// out\n        /* \"#utility.yul\":27861:28030   */\n    tag_310:\n        /* \"#utility.yul\":27905:27911   */\n      0x00\n        /* \"#utility.yul\":27938:27989   */\n      tag_611\n        /* \"#utility.yul\":27986:27987   */\n      0x00\n        /* \"#utility.yul\":27982:27988   */\n      not\n        /* \"#utility.yul\":27974:27979   */\n      dup5\n        /* \"#utility.yul\":27971:27972   */\n      0x08\n        /* \"#utility.yul\":27967:27980   */\n      mul\n        /* \"#utility.yul\":27938:27989   */\n      tag_309\n      jump\t// in\n    tag_611:\n        /* \"#utility.yul\":27934:27990   */\n      not\n        /* \"#utility.yul\":28019:28023   */\n      dup1\n        /* \"#utility.yul\":28013:28017   */\n      dup4\n        /* \"#utility.yul\":28009:28024   */\n      and\n        /* \"#utility.yul\":27999:28024   */\n      swap2\n      pop\n        /* \"#utility.yul\":27912:28030   */\n      pop\n        /* \"#utility.yul\":27861:28030   */\n      swap3\n      swap2\n      pop\n      pop\n      jump\t// out\n        /* \"#utility.yul\":28035:28330   */\n    tag_311:\n        /* \"#utility.yul\":28111:28115   */\n      0x00\n        /* \"#utility.yul\":28257:28286   */\n      tag_613\n        /* \"#utility.yul\":28282:28285   */\n      dup4\n        /* \"#utility.yul\":28276:28280   */\n      dup4\n        /* \"#utility.yul\":28257:28286   */\n      tag_310\n      jump\t// in\n    tag_613:\n        /* \"#utility.yul\":28249:28286   */\n      swap2\n      pop\n        /* \"#utility.yul\":28319:28322   */\n      dup3\n        /* \"#utility.yul\":28316:28317   */\n      0x02\n        /* \"#utility.yul\":28312:28323   */\n      mul\n        /* \"#utility.yul\":28306:28310   */\n      dup3\n        /* \"#utility.yul\":28303:28324   */\n      or\n        /* \"#utility.yul\":28295:28324   */\n      swap1\n      pop\n        /* \"#utility.yul\":28035:28330   */\n      swap3\n      swap2\n      pop\n      pop\n      jump\t// out\n        /* \"#utility.yul\":28335:29730   */\n    tag_193:\n        /* \"#utility.yul\":28452:28489   */\n      tag_615\n        /* \"#utility.yul\":28485:28488   */\n      dup3\n        /* \"#utility.yul\":28452:28489   */\n      tag_254\n      jump\t// in\n    tag_615:\n        /* \"#utility.yul\":28554:28572   */\n      0xffffffffffffffff\n        /* \"#utility.yul\":28546:28552   */\n      dup2\n        /* \"#utility.yul\":28543:28573   */\n      gt\n        /* \"#utility.yul\":28540:28596   */\n      iszero\n      tag_616\n      jumpi\n        /* \"#utility.yul\":28576:28594   */\n      tag_617\n      tag_268\n      jump\t// in\n    tag_617:\n        /* \"#utility.yul\":28540:28596   */\n    tag_616:\n        /* \"#utility.yul\":28620:28658   */\n      tag_618\n        /* \"#utility.yul\":28652:28656   */\n      dup3\n        /* \"#utility.yul\":28646:28657   */\n      sload\n        /* \"#utility.yul\":28620:28658   */\n      tag_126\n      jump\t// in\n    tag_618:\n        /* \"#utility.yul\":28705:28772   */\n      tag_619\n        /* \"#utility.yul\":28765:28771   */\n      dup3\n        /* \"#utility.yul\":28757:28763   */\n      dup3\n        /* \"#utility.yul\":28751:28755   */\n      dup6\n        /* \"#utility.yul\":28705:28772   */\n      tag_308\n      jump\t// in\n    tag_619:\n        /* \"#utility.yul\":28799:28800   */\n      0x00\n        /* \"#utility.yul\":28823:28827   */\n      0x20\n        /* \"#utility.yul\":28810:28827   */\n      swap1\n      pop\n        /* \"#utility.yul\":28855:28857   */\n      0x1f\n        /* \"#utility.yul\":28847:28853   */\n      dup4\n        /* \"#utility.yul\":28844:28858   */\n      gt\n        /* \"#utility.yul\":28872:28873   */\n      0x01\n        /* \"#utility.yul\":28867:29485   */\n      dup2\n      eq\n      tag_621\n      jumpi\n        /* \"#utility.yul\":29529:29530   */\n      0x00\n        /* \"#utility.yul\":29546:29552   */\n      dup5\n        /* \"#utility.yul\":29543:29620   */\n      iszero\n      tag_622\n      jumpi\n        /* \"#utility.yul\":29595:29604   */\n      dup3\n        /* \"#utility.yul\":29590:29593   */\n      dup8\n        /* \"#utility.yul\":29586:29605   */\n      add\n        /* \"#utility.yul\":29580:29606   */\n      mload\n        /* \"#utility.yul\":29571:29606   */\n      swap1\n      pop\n        /* \"#utility.yul\":29543:29620   */\n    tag_622:\n        /* \"#utility.yul\":29646:29713   */\n      tag_623\n        /* \"#utility.yul\":29706:29712   */\n      dup6\n        /* \"#utility.yul\":29699:29704   */\n      dup3\n        /* \"#utility.yul\":29646:29713   */\n      tag_311\n      jump\t// in\n    tag_623:\n        /* \"#utility.yul\":29640:29644   */\n      dup7\n        /* \"#utility.yul\":29633:29714   */\n      sstore\n        /* \"#utility.yul\":29502:29724   */\n      pop\n        /* \"#utility.yul\":28837:29724   */\n      jump(tag_620)\n        /* \"#utility.yul\":28867:29485   */\n    tag_621:\n        /* \"#utility.yul\":28919:28923   */\n      0x1f\n        /* \"#utility.yul\":28915:28924   */\n      not\n        /* \"#utility.yul\":28907:28913   */\n      dup5\n        /* \"#utility.yul\":28903:28925   */\n      and\n        /* \"#utility.yul\":28953:28990   */\n      tag_624\n        /* \"#utility.yul\":28985:28989   */\n      dup7\n        /* \"#utility.yul\":28953:28990   */\n      tag_298\n      jump\t// in\n    tag_624:\n        /* \"#utility.yul\":29012:29013   */\n      0x00\n        /* \"#utility.yul\":29026:29234   */\n    tag_625:\n        /* \"#utility.yul\":29040:29047   */\n      dup3\n        /* \"#utility.yul\":29037:29038   */\n      dup2\n        /* \"#utility.yul\":29034:29048   */\n      lt\n        /* \"#utility.yul\":29026:29234   */\n      iszero\n      tag_627\n      jumpi\n        /* \"#utility.yul\":29119:29128   */\n      dup5\n        /* \"#utility.yul\":29114:29117   */\n      dup10\n        /* \"#utility.yul\":29110:29129   */\n      add\n        /* \"#utility.yul\":29104:29130   */\n      mload\n        /* \"#utility.yul\":29096:29102   */\n      dup3\n        /* \"#utility.yul\":29089:29131   */\n      sstore\n        /* \"#utility.yul\":29170:29171   */\n      0x01\n        /* \"#utility.yul\":29162:29168   */\n      dup3\n        /* \"#utility.yul\":29158:29172   */\n      add\n        /* \"#utility.yul\":29148:29172   */\n      swap2\n      pop\n        /* \"#utility.yul\":29217:29219   */\n      0x20\n        /* \"#utility.yul\":29206:29215   */\n      dup6\n        /* \"#utility.yul\":29202:29220   */\n      add\n        /* \"#utility.yul\":29189:29220   */\n      swap5\n      pop\n        /* \"#utility.yul\":29063:29067   */\n      0x20\n        /* \"#utility.yul\":29060:29061   */\n      dup2\n        /* \"#utility.yul\":29056:29068   */\n      add\n        /* \"#utility.yul\":29051:29068   */\n      swap1\n      pop\n        /* \"#utility.yul\":29026:29234   */\n      jump(tag_625)\n    tag_627:\n        /* \"#utility.yul\":29262:29268   */\n      dup7\n        /* \"#utility.yul\":29253:29260   */\n      dup4\n        /* \"#utility.yul\":29250:29269   */\n      lt\n        /* \"#utility.yul\":29247:29426   */\n      iszero\n      tag_628\n      jumpi\n        /* \"#utility.yul\":29320:29329   */\n      dup5\n        /* \"#utility.yul\":29315:29318   */\n      dup10\n        /* \"#utility.yul\":29311:29330   */\n      add\n        /* \"#utility.yul\":29305:29331   */\n      mload\n        /* \"#utility.yul\":29363:29411   */\n      tag_629\n        /* \"#utility.yul\":29405:29409   */\n      0x1f\n        /* \"#utility.yul\":29397:29403   */\n      dup10\n        /* \"#utility.yul\":29393:29410   */\n      and\n        /* \"#utility.yul\":29382:29391   */\n      dup3\n        /* \"#utility.yul\":29363:29411   */\n      tag_310\n      jump\t// in\n    tag_629:\n        /* \"#utility.yul\":29355:29361   */\n      dup4\n        /* \"#utility.yul\":29348:29412   */\n      sstore\n        /* \"#utility.yul\":29270:29426   */\n      pop\n        /* \"#utility.yul\":29247:29426   */\n    tag_628:\n        /* \"#utility.yul\":29472:29473   */\n      0x01\n        /* \"#utility.yul\":29468:29469   */\n      0x02\n        /* \"#utility.yul\":29460:29466   */\n      dup9\n        /* \"#utility.yul\":29456:29470   */\n      mul\n        /* \"#utility.yul\":29452:29474   */\n      add\n        /* \"#utility.yul\":29446:29450   */\n      dup9\n        /* \"#utility.yul\":29439:29475   */\n      sstore\n        /* \"#utility.yul\":28874:29485   */\n      pop\n      pop\n      pop\n        /* \"#utility.yul\":28837:29724   */\n    tag_620:\n      pop\n        /* \"#utility.yul\":28427:29730   */\n      pop\n      pop\n      pop\n        /* \"#utility.yul\":28335:29730   */\n      pop\n      pop\n      jump\t// out\n        /* \"#utility.yul\":29736:29904   */\n    tag_312:\n        /* \"#utility.yul\":29876:29896   */\n      0x496e646578206f7574206f662072616e67650000000000000000000000000000\n        /* \"#utility.yul\":29872:29873   */\n      0x00\n        /* \"#utility.yul\":29864:29870   */\n      dup3\n        /* \"#utility.yul\":29860:29874   */\n      add\n        /* \"#utility.yul\":29853:29897   */\n      mstore\n        /* \"#utility.yul\":29736:29904   */\n      pop\n      jump\t// out\n        /* \"#utility.yul\":29910:30276   */\n    tag_313:\n        /* \"#utility.yul\":30052:30055   */\n      0x00\n        /* \"#utility.yul\":30073:30140   */\n      tag_632\n        /* \"#utility.yul\":30137:30139   */\n      0x12\n        /* \"#utility.yul\":30132:30135   */\n      dup4\n        /* \"#utility.yul\":30073:30140   */\n      tag_255\n      jump\t// in\n    tag_632:\n        /* \"#utility.yul\":30066:30140   */\n      swap2\n      pop\n        /* \"#utility.yul\":30149:30242   */\n      tag_633\n        /* \"#utility.yul\":30238:30241   */\n      dup3\n        /* \"#utility.yul\":30149:30242   */\n      tag_312\n      jump\t// in\n    tag_633:\n        /* \"#utility.yul\":30267:30269   */\n      0x20\n        /* \"#utility.yul\":30262:30265   */\n      dup3\n        /* \"#utility.yul\":30258:30270   */\n      add\n        /* \"#utility.yul\":30251:30270   */\n      swap1\n      pop\n        /* \"#utility.yul\":29910:30276   */\n      swap2\n      swap1\n      pop\n      jump\t// out\n        /* \"#utility.yul\":30282:30701   */\n    tag_198:\n        /* \"#utility.yul\":30448:30452   */\n      0x00\n        /* \"#utility.yul\":30486:30488   */\n      0x20\n        /* \"#utility.yul\":30475:30484   */\n      dup3\n        /* \"#utility.yul\":30471:30489   */\n      add\n        /* \"#utility.yul\":30463:30489   */\n      swap1\n      pop\n        /* \"#utility.yul\":30535:30544   */\n      dup2\n        /* \"#utility.yul\":30529:30533   */\n      dup2\n        /* \"#utility.yul\":30525:30545   */\n      sub\n        /* \"#utility.yul\":30521:30522   */\n      0x00\n        /* \"#utility.yul\":30510:30519   */\n      dup4\n        /* \"#utility.yul\":30506:30523   */\n      add\n        /* \"#utility.yul\":30499:30546   */\n      mstore\n        /* \"#utility.yul\":30563:30694   */\n      tag_635\n        /* \"#utility.yul\":30689:30693   */\n      dup2\n        /* \"#utility.yul\":30563:30694   */\n      tag_313\n      jump\t// in\n    tag_635:\n        /* \"#utility.yul\":30555:30694   */\n      swap1\n      pop\n        /* \"#utility.yul\":30282:30701   */\n      swap2\n      swap1\n      pop\n      jump\t// out\n        /* \"#utility.yul\":30707:30887   */\n    tag_201:\n        /* \"#utility.yul\":30755:30832   */\n      0x4e487b7100000000000000000000000000000000000000000000000000000000\n        /* \"#utility.yul\":30752:30753   */\n      0x00\n        /* \"#utility.yul\":30745:30833   */\n      mstore\n        /* \"#utility.yul\":30852:30856   */\n      0x32\n        /* \"#utility.yul\":30849:30850   */\n      0x04\n        /* \"#utility.yul\":30842:30857   */\n      mstore\n        /* \"#utility.yul\":30876:30880   */\n      0x24\n        /* \"#utility.yul\":30873:30874   */\n      0x00\n        /* \"#utility.yul\":30866:30881   */\n      revert\n        /* \"#utility.yul\":30893:31064   */\n    tag_314:\n        /* \"#utility.yul\":31033:31056   */\n      0x5469636b657420646f6573206e6f742065786973740000000000000000000000\n        /* \"#utility.yul\":31029:31030   */\n      0x00\n        /* \"#utility.yul\":31021:31027   */\n      dup3\n        /* \"#utility.yul\":31017:31031   */\n      add\n        /* \"#utility.yul\":31010:31057   */\n      mstore\n        /* \"#utility.yul\":30893:31064   */\n      pop\n      jump\t// out\n        /* \"#utility.yul\":31070:31436   */\n    tag_315:\n        /* \"#utility.yul\":31212:31215   */\n      0x00\n        /* \"#utility.yul\":31233:31300   */\n      tag_639\n        /* \"#utility.yul\":31297:31299   */\n      0x15\n        /* \"#utility.yul\":31292:31295   */\n      dup4\n        /* \"#utility.yul\":31233:31300   */\n      tag_255\n      jump\t// in\n    tag_639:\n        /* \"#utility.yul\":31226:31300   */\n      swap2\n      pop\n        /* \"#utility.yul\":31309:31402   */\n      tag_640\n        /* \"#utility.yul\":31398:31401   */\n      dup3\n        /* \"#utility.yul\":31309:31402   */\n      tag_314\n      jump\t// in\n    tag_640:\n        /* \"#utility.yul\":31427:31429   */\n      0x20\n        /* \"#utility.yul\":31422:31425   */\n      dup3\n        /* \"#utility.yul\":31418:31430   */\n      add\n        /* \"#utility.yul\":31411:31430   */\n      swap1\n      pop\n        /* \"#utility.yul\":31070:31436   */\n      swap2\n      swap1\n      pop\n      jump\t// out\n        /* \"#utility.yul\":31442:31861   */\n    tag_206:\n        /* \"#utility.yul\":31608:31612   */\n      0x00\n        /* \"#utility.yul\":31646:31648   */\n      0x20\n        /* \"#utility.yul\":31635:31644   */\n      dup3\n        /* \"#utility.yul\":31631:31649   */\n      add\n        /* \"#utility.yul\":31623:31649   */\n      swap1\n      pop\n        /* \"#utility.yul\":31695:31704   */\n      dup2\n        /* \"#utility.yul\":31689:31693   */\n      dup2\n        /* \"#utility.yul\":31685:31705   */\n      sub\n        /* \"#utility.yul\":31681:31682   */\n      0x00\n        /* \"#utility.yul\":31670:31679   */\n      dup4\n        /* \"#utility.yul\":31666:31683   */\n      add\n        /* \"#utility.yul\":31659:31706   */\n      mstore\n        /* \"#utility.yul\":31723:31854   */\n      tag_642\n        /* \"#utility.yul\":31849:31853   */\n      dup2\n        /* \"#utility.yul\":31723:31854   */\n      tag_315\n      jump\t// in\n    tag_642:\n        /* \"#utility.yul\":31715:31854   */\n      swap1\n      pop\n        /* \"#utility.yul\":31442:31861   */\n      swap2\n      swap1\n      pop\n      jump\t// out\n        /* \"#utility.yul\":31867:32037   */\n    tag_316:\n        /* \"#utility.yul\":32007:32029   */\n      0x4e6f7420746865207469636b6574206f776e6572000000000000000000000000\n        /* \"#utility.yul\":32003:32004   */\n      0x00\n        /* \"#utility.yul\":31995:32001   */\n      dup3\n        /* \"#utility.yul\":31991:32005   */\n      add\n        /* \"#utility.yul\":31984:32030   */\n      mstore\n        /* \"#utility.yul\":31867:32037   */\n      pop\n      jump\t// out\n        /* \"#utility.yul\":32043:32409   */\n    tag_317:\n        /* \"#utility.yul\":32185:32188   */\n      0x00\n        /* \"#utility.yul\":32206:32273   */\n      tag_645\n        /* \"#utility.yul\":32270:32272   */\n      0x14\n        /* \"#utility.yul\":32265:32268   */\n      dup4\n        /* \"#utility.yul\":32206:32273   */\n      tag_255\n      jump\t// in\n    tag_645:\n        /* \"#utility.yul\":32199:32273   */\n      swap2\n      pop\n        /* \"#utility.yul\":32282:32375   */\n      tag_646\n        /* \"#utility.yul\":32371:32374   */\n      dup3\n        /* \"#utility.yul\":32282:32375   */\n      tag_316\n      jump\t// in\n    tag_646:\n        /* \"#utility.yul\":32400:32402   */\n      0x20\n        /* \"#utility.yul\":32395:32398   */\n      dup3\n        /* \"#utility.yul\":32391:32403   */\n      add\n        /* \"#utility.yul\":32384:32403   */\n      swap1\n      pop\n        /* \"#utility.yul\":32043:32409   */\n      swap2\n      swap1\n      pop\n      jump\t// out\n        /* \"#utility.yul\":32415:32834   */\n    tag_212:\n        /* \"#utility.yul\":32581:32585   */\n      0x00\n        /* \"#utility.yul\":32619:32621   */\n      0x20\n        /* \"#utility.yul\":32608:32617   */\n      dup3\n        /* \"#utility.yul\":32604:32622   */\n      add\n        /* \"#utility.yul\":32596:32622   */\n      swap1\n      pop\n        /* \"#utility.yul\":32668:32677   */\n      dup2\n        /* \"#utility.yul\":32662:32666   */\n      dup2\n        /* \"#utility.yul\":32658:32678   */\n      sub\n        /* \"#utility.yul\":32654:32655   */\n      0x00\n        /* \"#utility.yul\":32643:32652   */\n      dup4\n        /* \"#utility.yul\":32639:32656   */\n      add\n        /* \"#utility.yul\":32632:32679   */\n      mstore\n        /* \"#utility.yul\":32696:32827   */\n      tag_648\n        /* \"#utility.yul\":32822:32826   */\n      dup2\n        /* \"#utility.yul\":32696:32827   */\n      tag_317\n      jump\t// in\n    tag_648:\n        /* \"#utility.yul\":32688:32827   */\n      swap1\n      pop\n        /* \"#utility.yul\":32415:32834   */\n      swap2\n      swap1\n      pop\n      jump\t// out\n        /* \"#utility.yul\":32840:33007   */\n    tag_318:\n        /* \"#utility.yul\":32980:32999   */\n      0x5175616e74697479206d69736d61746368000000000000000000000000000000\n        /* \"#utility.yul\":32976:32977   */\n      0x00\n        /* \"#utility.yul\":32968:32974   */\n      dup3\n        /* \"#utility.yul\":32964:32978   */\n      add\n        /* \"#utility.yul\":32957:33000   */\n      mstore\n        /* \"#utility.yul\":32840:33007   */\n      pop\n      jump\t// out\n        /* \"#utility.yul\":33013:33379   */\n    tag_319:\n        /* \"#utility.yul\":33155:33158   */\n      0x00\n        /* \"#utility.yul\":33176:33243   */\n      tag_651\n        /* \"#utility.yul\":33240:33242   */\n      0x11\n        /* \"#utility.yul\":33235:33238   */\n      dup4\n        /* \"#utility.yul\":33176:33243   */\n      tag_255\n      jump\t// in\n    tag_651:\n        /* \"#utility.yul\":33169:33243   */\n      swap2\n      pop\n        /* \"#utility.yul\":33252:33345   */\n      tag_652\n        /* \"#utility.yul\":33341:33344   */\n      dup3\n        /* \"#utility.yul\":33252:33345   */\n      tag_318\n      jump\t// in\n    tag_652:\n        /* \"#utility.yul\":33370:33372   */\n      0x20\n        /* \"#utility.yul\":33365:33368   */\n      dup3\n        /* \"#utility.yul\":33361:33373   */\n      add\n        /* \"#utility.yul\":33354:33373   */\n      swap1\n      pop\n        /* \"#utility.yul\":33013:33379   */\n      swap2\n      swap1\n      pop\n      jump\t// out\n        /* \"#utility.yul\":33385:33804   */\n    tag_215:\n        /* \"#utility.yul\":33551:33555   */\n      0x00\n        /* \"#utility.yul\":33589:33591   */\n      0x20\n        /* \"#utility.yul\":33578:33587   */\n      dup3\n        /* \"#utility.yul\":33574:33592   */\n      add\n        /* \"#utility.yul\":33566:33592   */\n      swap1\n      pop\n        /* \"#utility.yul\":33638:33647   */\n      dup2\n        /* \"#utility.yul\":33632:33636   */\n      dup2\n        /* \"#utility.yul\":33628:33648   */\n      sub\n        /* \"#utility.yul\":33624:33625   */\n      0x00\n        /* \"#utility.yul\":33613:33622   */\n      dup4\n        /* \"#utility.yul\":33609:33626   */\n      add\n        /* \"#utility.yul\":33602:33649   */\n      mstore\n        /* \"#utility.yul\":33666:33797   */\n      tag_654\n        /* \"#utility.yul\":33792:33796   */\n      dup2\n        /* \"#utility.yul\":33666:33797   */\n      tag_319\n      jump\t// in\n    tag_654:\n        /* \"#utility.yul\":33658:33797   */\n      swap1\n      pop\n        /* \"#utility.yul\":33385:33804   */\n      swap2\n      swap1\n      pop\n      jump\t// out\n        /* \"#utility.yul\":33810:33990   */\n    tag_320:\n        /* \"#utility.yul\":33950:33982   */\n      0x52616e646f6d206e756d62657220616c72656164792072657665616c65640000\n        /* \"#utility.yul\":33946:33947   */\n      0x00\n        /* \"#utility.yul\":33938:33944   */\n      dup3\n        /* \"#utility.yul\":33934:33948   */\n      add\n        /* \"#utility.yul\":33927:33983   */\n      mstore\n        /* \"#utility.yul\":33810:33990   */\n      pop\n      jump\t// out\n        /* \"#utility.yul\":33996:34362   */\n    tag_321:\n        /* \"#utility.yul\":34138:34141   */\n      0x00\n        /* \"#utility.yul\":34159:34226   */\n      tag_657\n        /* \"#utility.yul\":34223:34225   */\n      0x1e\n        /* \"#utility.yul\":34218:34221   */\n      dup4\n        /* \"#utility.yul\":34159:34226   */\n      tag_255\n      jump\t// in\n    tag_657:\n        /* \"#utility.yul\":34152:34226   */\n      swap2\n      pop\n        /* \"#utility.yul\":34235:34328   */\n      tag_658\n        /* \"#utility.yul\":34324:34327   */\n      dup3\n        /* \"#utility.yul\":34235:34328   */\n      tag_320\n      jump\t// in\n    tag_658:\n        /* \"#utility.yul\":34353:34355   */\n      0x20\n        /* \"#utility.yul\":34348:34351   */\n      dup3\n        /* \"#utility.yul\":34344:34356   */\n      add\n        /* \"#utility.yul\":34337:34356   */\n      swap1\n      pop\n        /* \"#utility.yul\":33996:34362   */\n      swap2\n      swap1\n      pop\n      jump\t// out\n        /* \"#utility.yul\":34368:34787   */\n    tag_218:\n        /* \"#utility.yul\":34534:34538   */\n      0x00\n        /* \"#utility.yul\":34572:34574   */\n      0x20\n        /* \"#utility.yul\":34561:34570   */\n      dup3\n        /* \"#utility.yul\":34557:34575   */\n      add\n        /* \"#utility.yul\":34549:34575   */\n      swap1\n      pop\n        /* \"#utility.yul\":34621:34630   */\n      dup2\n        /* \"#utility.yul\":34615:34619   */\n      dup2\n        /* \"#utility.yul\":34611:34631   */\n      sub\n        /* \"#utility.yul\":34607:34608   */\n      0x00\n        /* \"#utility.yul\":34596:34605   */\n      dup4\n        /* \"#utility.yul\":34592:34609   */\n      add\n        /* \"#utility.yul\":34585:34632   */\n      mstore\n        /* \"#utility.yul\":34649:34780   */\n      tag_660\n        /* \"#utility.yul\":34775:34779   */\n      dup2\n        /* \"#utility.yul\":34649:34780   */\n      tag_321\n      jump\t// in\n    tag_660:\n        /* \"#utility.yul\":34641:34780   */\n      swap1\n      pop\n        /* \"#utility.yul\":34368:34787   */\n      swap2\n      swap1\n      pop\n      jump\t// out\n        /* \"#utility.yul\":34793:34872   */\n    tag_322:\n        /* \"#utility.yul\":34832:34839   */\n      0x00\n        /* \"#utility.yul\":34861:34866   */\n      dup2\n        /* \"#utility.yul\":34850:34866   */\n      swap1\n      pop\n        /* \"#utility.yul\":34793:34872   */\n      swap2\n      swap1\n      pop\n      jump\t// out\n        /* \"#utility.yul\":34878:35035   */\n    tag_323:\n        /* \"#utility.yul\":34983:35028   */\n      tag_663\n        /* \"#utility.yul\":35003:35027   */\n      tag_664\n        /* \"#utility.yul\":35021:35026   */\n      dup3\n        /* \"#utility.yul\":35003:35027   */\n      tag_239\n      jump\t// in\n    tag_664:\n        /* \"#utility.yul\":34983:35028   */\n      tag_322\n      jump\t// in\n    tag_663:\n        /* \"#utility.yul\":34978:34981   */\n      dup3\n        /* \"#utility.yul\":34971:35029   */\n      mstore\n        /* \"#utility.yul\":34878:35035   */\n      pop\n      pop\n      jump\t// out\n        /* \"#utility.yul\":35041:35297   */\n    tag_220:\n        /* \"#utility.yul\":35153:35156   */\n      0x00\n        /* \"#utility.yul\":35168:35243   */\n      tag_666\n        /* \"#utility.yul\":35239:35242   */\n      dup3\n        /* \"#utility.yul\":35230:35236   */\n      dup5\n        /* \"#utility.yul\":35168:35243   */\n      tag_323\n      jump\t// in\n    tag_666:\n        /* \"#utility.yul\":35268:35270   */\n      0x20\n        /* \"#utility.yul\":35263:35266   */\n      dup3\n        /* \"#utility.yul\":35259:35271   */\n      add\n        /* \"#utility.yul\":35252:35271   */\n      swap2\n      pop\n        /* \"#utility.yul\":35288:35291   */\n      dup2\n        /* \"#utility.yul\":35281:35291   */\n      swap1\n      pop\n        /* \"#utility.yul\":35041:35297   */\n      swap3\n      swap2\n      pop\n      pop\n      jump\t// out\n        /* \"#utility.yul\":35303:35529   */\n    tag_324:\n        /* \"#utility.yul\":35443:35477   */\n      0x52616e646f6d206e756d62657220646f6573206e6f74206d6174636820636f6d\n        /* \"#utility.yul\":35439:35440   */\n      0x00\n        /* \"#utility.yul\":35431:35437   */\n      dup3\n        /* \"#utility.yul\":35427:35441   */\n      add\n        /* \"#utility.yul\":35420:35478   */\n      mstore\n        /* \"#utility.yul\":35512:35521   */\n      0x6d69746d656e7400000000000000000000000000000000000000000000000000\n        /* \"#utility.yul\":35507:35509   */\n      0x20\n        /* \"#utility.yul\":35499:35505   */\n      dup3\n        /* \"#utility.yul\":35495:35510   */\n      add\n        /* \"#utility.yul\":35488:35522   */\n      mstore\n        /* \"#utility.yul\":35303:35529   */\n      pop\n      jump\t// out\n        /* \"#utility.yul\":35535:35901   */\n    tag_325:\n        /* \"#utility.yul\":35677:35680   */\n      0x00\n        /* \"#utility.yul\":35698:35765   */\n      tag_669\n        /* \"#utility.yul\":35762:35764   */\n      0x27\n        /* \"#utility.yul\":35757:35760   */\n      dup4\n        /* \"#utility.yul\":35698:35765   */\n      tag_255\n      jump\t// in\n    tag_669:\n        /* \"#utility.yul\":35691:35765   */\n      swap2\n      pop\n        /* \"#utility.yul\":35774:35867   */\n      tag_670\n        /* \"#utility.yul\":35863:35866   */\n      dup3\n        /* \"#utility.yul\":35774:35867   */\n      tag_324\n      jump\t// in\n    tag_670:\n        /* \"#utility.yul\":35892:35894   */\n      0x40\n        /* \"#utility.yul\":35887:35890   */\n      dup3\n        /* \"#utility.yul\":35883:35895   */\n      add\n        /* \"#utility.yul\":35876:35895   */\n      swap1\n      pop\n        /* \"#utility.yul\":35535:35901   */\n      swap2\n      swap1\n      pop\n      jump\t// out\n        /* \"#utility.yul\":35907:36326   */\n    tag_223:\n        /* \"#utility.yul\":36073:36077   */\n      0x00\n        /* \"#utility.yul\":36111:36113   */\n      0x20\n        /* \"#utility.yul\":36100:36109   */\n      dup3\n        /* \"#utility.yul\":36096:36114   */\n      add\n        /* \"#utility.yul\":36088:36114   */\n      swap1\n      pop\n        /* \"#utility.yul\":36160:36169   */\n      dup2\n        /* \"#utility.yul\":36154:36158   */\n      dup2\n        /* \"#utility.yul\":36150:36170   */\n      sub\n        /* \"#utility.yul\":36146:36147   */\n      0x00\n        /* \"#utility.yul\":36135:36144   */\n      dup4\n        /* \"#utility.yul\":36131:36148   */\n      add\n        /* \"#utility.yul\":36124:36171   */\n      mstore\n        /* \"#utility.yul\":36188:36319   */\n      tag_672\n        /* \"#utility.yul\":36314:36318   */\n      dup2\n        /* \"#utility.yul\":36188:36319   */\n      tag_325\n      jump\t// in\n    tag_672:\n        /* \"#utility.yul\":36180:36319   */\n      swap1\n      pop\n        /* \"#utility.yul\":35907:36326   */\n      swap2\n      swap1\n      pop\n      jump\t// out\n\n    auxdata: 0xa26469706673582212207ba2dace63247b970b494fadf760638e6c4a9c86a88765f1412ce0e8d2c2d1cc64736f6c634300081a0033\n}\n",
				"bytecode": {
					"linkReferences": {},
					"object": "608060405234801561000f575f80fd5b5060405161280f38038061280f83398181016040528101906100319190610114565b3360015f6101000a81548173ffffffffffffffffffffffffffffffffffffffff021916908373ffffffffffffffffffffffffffffffffffffffff160217905550805f806101000a81548173ffffffffffffffffffffffffffffffffffffffff021916908373ffffffffffffffffffffffffffffffffffffffff1602179055505061013f565b5f80fd5b5f73ffffffffffffffffffffffffffffffffffffffff82169050919050565b5f6100e3826100ba565b9050919050565b6100f3816100d9565b81146100fd575f80fd5b50565b5f8151905061010e816100ea565b92915050565b5f60208284031215610129576101286100b6565b5b5f61013684828501610100565b91505092915050565b6126c38061014c5f395ff3fe608060405234801561000f575f80fd5b5060043610610140575f3560e01c80637df858db116100b6578063adc51cdb1161007a578063adc51cdb146103d0578063cc42a7c514610400578063cdc2aebf14610430578063d5ed4d5a14610460578063dc969f221461047e578063e54778b5146104af57610140565b80637df858db1461031857806389b2acbc146103485780638da5cb5b1461037a5780639351e76b14610398578063ad943d1e146103b457610140565b80635b7b3d58116101085780635b7b3d581461022e5780635bddbaac1461024c578063687e47d81461027c5780636a326ab11461029857806373300f8a146102b457806376b3c8a8146102e457610140565b80630400f4d01461014457806312b349d5146101625780631398e0761461019257806327ea8dc2146101cb57806349c0de88146101fb575b5f80fd5b61014c6104df565b6040516101599190611441565b60405180910390f35b61017c60048036038101906101779190611495565b6104e5565b60405161018991906114ed565b60405180910390f35b6101ac60048036038101906101a79190611506565b6104ec565b6040516101c29a9998979695949392919061166b565b60405180910390f35b6101e560048036038101906101e09190611736565b6105ed565b6040516101f29190611441565b60405180910390f35b61021560048036038101906102109190611495565b6109b0565b6040516102259493929190611774565b60405180910390f35b610236610a21565b6040516102439190611441565b60405180910390f35b610266600480360381019061026191906117e1565b610a2a565b60405161027391906114ed565b60405180910390f35b61029660048036038101906102919190611495565b610a32565b005b6102b260048036038101906102ad9190611831565b610a36565b005b6102ce60048036038101906102c99190611495565b610b8a565b6040516102db9190611441565b60405180910390f35b6102fe60048036038101906102f99190611506565b610baa565b60405161030f95949392919061185c565b60405180910390f35b610332600480360381019061032d91906119d9565b610bef565b60405161033f9190611441565b60405180910390f35b610362600480360381019061035d9190611495565b610ede565b60405161037193929190611a92565b60405180910390f35b610382610fa0565b60405161038f9190611ac7565b60405180910390f35b6103b260048036038101906103ad9190611ae0565b610fc5565b005b6103ce60048036038101906103c99190611506565b611243565b005b6103ea60048036038101906103e59190611506565b6112d5565b6040516103f79190611441565b60405180910390f35b61041a60048036038101906104159190611506565b6112f2565b6040516104279190611441565b60405180910390f35b61044a60048036038101906104459190611506565b61130f565b6040516104579190611ac7565b60405180910390f35b61046861134b565b6040516104759190611b8b565b60405180910390f35b61049860048036038101906104939190611506565b61136e565b6040516104a6929190611ba4565b60405180910390f35b6104c960048036038101906104c49190611495565b611422565b6040516104d69190611441565b60405180910390f35b60025481565b5f92915050565b6003602052805f5260405f205f91509050805f015490806001015490806002015490806003015490806004015490806005015490806006015f9054906101000a900460ff169080600701549080600801805461054790611bff565b80601f016020809104026020016040519081016040528092919081815260200182805461057390611bff565b80156105be5780601f10610595576101008083540402835291602001916105be565b820191905f5260205f20905b8154815290600101906020018083116105a157829003601f168201915b505050505090806009015f9054906101000a900473ffffffffffffffffffffffffffffffffffffffff1690508a565b5f6001600481111561060257610601611531565b5b60035f60025481526020019081526020015f206006015f9054906101000a900460ff16600481111561063757610636611531565b5b14610677576040517f08c379a000000000000000000000000000000000000000000000000000000000815260040161066e90611c79565b60405180910390fd5b60035f60025481526020019081526020015f205f015442106106ce576040517f08c379a00000000000000000000000000000000000000000000000000000000081526004016106c590611ce1565b60405180910390fd5b60035f60025481526020019081526020015f20600101548360035f60025481526020019081526020015f20600501546107079190611d2c565b1115610748576040517f08c379a000000000000000000000000000000000000000000000000000000000815260040161073f90611da9565b60405180910390fd5b5f60035f60025481526020019081526020015f20600401548461076b9190611dc7565b90505f8054906101000a900473ffffffffffffffffffffffffffffffffffffffff1673ffffffffffffffffffffffffffffffffffffffff166323b872dd3360015f9054906101000a900473ffffffffffffffffffffffffffffffffffffffff16846040518463ffffffff1660e01b81526004016107ea93929190611e08565b6020604051808303815f875af1158015610806573d5f803e3d5ffd5b505050506040513d601f19601f8201168201806040525081019061082a9190611e67565b505f60405180608001604052803373ffffffffffffffffffffffffffffffffffffffff1681526020018681526020018581526020015f1515815250905060045f60025481526020019081526020015f2081908060018154018082558091505060019003905f5260205f2090600402015f909190919091505f820151815f015f6101000a81548173ffffffffffffffffffffffffffffffffffffffff021916908373ffffffffffffffffffffffffffffffffffffffff16021790555060208201518160010155604082015181600201556060820151816003015f6101000a81548160ff0219169083151502179055505050600160045f60025481526020019081526020015f208054905061093d9190611e92565b92508460035f60025481526020019081526020015f206005015f8282546109649190611d2c565b925050819055507f931e05748fe2ac33cc32ba05b91baf487ef85c1e67d88be897af1f2ed5ea947960025484876040516109a093929190611ec5565b60405180910390a1505092915050565b6004602052815f5260405f2081815481106109c9575f80fd5b905f5260205f2090600402015f9150915050805f015f9054906101000a900473ffffffffffffffffffffffffffffffffffffffff1690806001015490806002015490806003015f9054906101000a900460ff16905084565b5f600254905090565b5f9392505050565b5050565b60015f9054906101000a900473ffffffffffffffffffffffffffffffffffffffff1673ffffffffffffffffffffffffffffffffffffffff163373ffffffffffffffffffffffffffffffffffffffff1614610ac5576040517f08c379a0000000000000000000000000000000000000000000000000000000008152600401610abc90611f6a565b60405180910390fd5b5f73ffffffffffffffffffffffffffffffffffffffff168173ffffffffffffffffffffffffffffffffffffffff1603610b33576040517f08c379a0000000000000000000000000000000000000000000000000000000008152600401610b2a90611fd2565b60405180910390fd5b8060035f60025481526020019081526020015f206009015f6101000a81548173ffffffffffffffffffffffffffffffffffffffff021916908373ffffffffffffffffffffffffffffffffffffffff16021790555050565b6005602052815f5260405f20602052805f5260405f205f91509150505481565b5f805f805f8060035f8881526020019081526020015f209050805f01548160010154826002015483600301548460040154955095509550955095505091939590929450565b5f60015f9054906101000a900473ffffffffffffffffffffffffffffffffffffffff1673ffffffffffffffffffffffffffffffffffffffff163373ffffffffffffffffffffffffffffffffffffffff1614610c7f576040517f08c379a0000000000000000000000000000000000000000000000000000000008152600401610c7690611f6a565b60405180910390fd5b5f8611610cc1576040517f08c379a0000000000000000000000000000000000000000000000000000000008152600401610cb89061203a565b60405180910390fd5b6064851115610d05576040517f08c379a0000000000000000000000000000000000000000000000000000000008152600401610cfc906120c8565b60405180910390fd5b60025f815480929190610d17906120e6565b91905055506040518061014001604052808981526020018881526020018781526020018681526020018581526020015f815260200160016004811115610d6057610d5f611531565b5b81526020018481526020018381526020015f8054906101000a900473ffffffffffffffffffffffffffffffffffffffff1673ffffffffffffffffffffffffffffffffffffffff1681525060035f60025481526020019081526020015f205f820151815f01556020820151816001015560408201518160020155606082015181600301556080820151816004015560a0820151816005015560c0820151816006015f6101000a81548160ff02191690836004811115610e2157610e20611531565b5b021790555060e08201518160070155610100820151816008019081610e4691906122c1565b50610120820151816009015f6101000a81548173ffffffffffffffffffffffffffffffffffffffff021916908373ffffffffffffffffffffffffffffffffffffffff1602179055509050507fbcab9af3175c8a9d53b9308a82ee378a84c65b0c22e3dfea2afac802c73a078a6002548989604051610ec693929190611ec5565b60405180910390a16002549050979650505050505050565b5f805f60045f8581526020019081526020015f20805490508510610f37576040517f08c379a0000000000000000000000000000000000000000000000000000000008152600401610f2e906123da565b60405180910390fd5b5f60045f8681526020019081526020015f208681548110610f5b57610f5a6123f8565b5b905f5260205f2090600402019050858160010154825f015f9054906101000a900473ffffffffffffffffffffffffffffffffffffffff16935093509350509250925092565b60015f9054906101000a900473ffffffffffffffffffffffffffffffffffffffff1681565b60045f60025481526020019081526020015f2080549050831061101d576040517f08c379a00000000000000000000000000000000000000000000000000000000081526004016110149061246f565b60405180910390fd5b5f60045f60025481526020019081526020015f208481548110611043576110426123f8565b5b905f5260205f20906004020190503373ffffffffffffffffffffffffffffffffffffffff16815f015f9054906101000a900473ffffffffffffffffffffffffffffffffffffffff1673ffffffffffffffffffffffffffffffffffffffff16146110e1576040517f08c379a00000000000000000000000000000000000000000000000000000000081526004016110d8906124d7565b60405180910390fd5b82816001015414611127576040517f08c379a000000000000000000000000000000000000000000000000000000000815260040161111e9061253f565b60405180910390fd5b806003015f9054906101000a900460ff1615611178576040517f08c379a000000000000000000000000000000000000000000000000000000000815260040161116f906125a7565b60405180910390fd5b8160405160200161118991906125e5565b604051602081830303815290604052805190602001208160020154146111e4576040517f08c379a00000000000000000000000000000000000000000000000000000000081526004016111db9061266f565b60405180910390fd5b6001816003015f6101000a81548160ff0219169083151502179055507fb404d5122f9c343795903cd3906f44902818ed6e1270eab69b9a14b2bef0d681600254858460405161123593929190611ec5565b60405180910390a150505050565b60015f9054906101000a900473ffffffffffffffffffffffffffffffffffffffff1673ffffffffffffffffffffffffffffffffffffffff163373ffffffffffffffffffffffffffffffffffffffff16146112d2576040517f08c379a00000000000000000000000000000000000000000000000000000000081526004016112c990611f6a565b60405180910390fd5b50565b5f60045f8381526020019081526020015f20805490509050919050565b5f60035f8381526020019081526020015f20600501549050919050565b5f60035f8381526020019081526020015f206009015f9054906101000a900473ffffffffffffffffffffffffffffffffffffffff169050919050565b5f8054906101000a900473ffffffffffffffffffffffffffffffffffffffff1681565b5f60605f60035f8581526020019081526020015f20905080600701548160080180805461139a90611bff565b80601f01602080910402602001604051908101604052809291908181526020018280546113c690611bff565b80156114115780601f106113e857610100808354040283529160200191611411565b820191905f5260205f20905b8154815290600101906020018083116113f457829003601f168201915b505050505090509250925050915091565b5f92915050565b5f819050919050565b61143b81611429565b82525050565b5f6020820190506114545f830184611432565b92915050565b5f604051905090565b5f80fd5b5f80fd5b61147481611429565b811461147e575f80fd5b50565b5f8135905061148f8161146b565b92915050565b5f80604083850312156114ab576114aa611463565b5b5f6114b885828601611481565b92505060206114c985828601611481565b9150509250929050565b5f8115159050919050565b6114e7816114d3565b82525050565b5f6020820190506115005f8301846114de565b92915050565b5f6020828403121561151b5761151a611463565b5b5f61152884828501611481565b91505092915050565b7f4e487b71000000000000000000000000000000000000000000000000000000005f52602160045260245ffd5b6005811061156f5761156e611531565b5b50565b5f81905061157f8261155e565b919050565b5f61158e82611572565b9050919050565b61159e81611584565b82525050565b5f819050919050565b6115b6816115a4565b82525050565b5f81519050919050565b5f82825260208201905092915050565b8281835e5f83830152505050565b5f601f19601f8301169050919050565b5f6115fe826115bc565b61160881856115c6565b93506116188185602086016115d6565b611621816115e4565b840191505092915050565b5f73ffffffffffffffffffffffffffffffffffffffff82169050919050565b5f6116558261162c565b9050919050565b6116658161164b565b82525050565b5f6101408201905061167f5f83018d611432565b61168c602083018c611432565b611699604083018b611432565b6116a6606083018a611432565b6116b36080830189611432565b6116c060a0830188611432565b6116cd60c0830187611595565b6116da60e08301866115ad565b8181036101008301526116ed81856115f4565b90506116fd61012083018461165c565b9b9a5050505050505050505050565b611715816115a4565b811461171f575f80fd5b50565b5f813590506117308161170c565b92915050565b5f806040838503121561174c5761174b611463565b5b5f61175985828601611481565b925050602061176a85828601611722565b9150509250929050565b5f6080820190506117875f83018761165c565b6117946020830186611432565b6117a160408301856115ad565b6117ae60608301846114de565b95945050505050565b6117c08161164b565b81146117ca575f80fd5b50565b5f813590506117db816117b7565b92915050565b5f805f606084860312156117f8576117f7611463565b5b5f611805868287016117cd565b935050602061181686828701611481565b925050604061182786828701611481565b9150509250925092565b5f6020828403121561184657611845611463565b5b5f611853848285016117cd565b91505092915050565b5f60a08201905061186f5f830188611432565b61187c6020830187611432565b6118896040830186611432565b6118966060830185611432565b6118a36080830184611432565b9695505050505050565b5f80fd5b5f80fd5b7f4e487b71000000000000000000000000000000000000000000000000000000005f52604160045260245ffd5b6118eb826115e4565b810181811067ffffffffffffffff8211171561190a576119096118b5565b5b80604052505050565b5f61191c61145a565b905061192882826118e2565b919050565b5f67ffffffffffffffff821115611947576119466118b5565b5b611950826115e4565b9050602081019050919050565b828183375f83830152505050565b5f61197d6119788461192d565b611913565b905082815260208101848484011115611999576119986118b1565b5b6119a484828561195d565b509392505050565b5f82601f8301126119c0576119bf6118ad565b5b81356119d084826020860161196b565b91505092915050565b5f805f805f805f60e0888a0312156119f4576119f3611463565b5b5f611a018a828b01611481565b9750506020611a128a828b01611481565b9650506040611a238a828b01611481565b9550506060611a348a828b01611481565b9450506080611a458a828b01611481565b93505060a0611a568a828b01611722565b92505060c088013567ffffffffffffffff811115611a7757611a76611467565b5b611a838a828b016119ac565b91505092959891949750929550565b5f606082019050611aa55f830186611432565b611ab26020830185611432565b611abf604083018461165c565b949350505050565b5f602082019050611ada5f83018461165c565b92915050565b5f805f60608486031215611af757611af6611463565b5b5f611b0486828701611481565b9350506020611b1586828701611481565b9250506040611b2686828701611481565b9150509250925092565b5f819050919050565b5f611b53611b4e611b498461162c565b611b30565b61162c565b9050919050565b5f611b6482611b39565b9050919050565b5f611b7582611b5a565b9050919050565b611b8581611b6b565b82525050565b5f602082019050611b9e5f830184611b7c565b92915050565b5f604082019050611bb75f8301856115ad565b8181036020830152611bc981846115f4565b90509392505050565b7f4e487b71000000000000000000000000000000000000000000000000000000005f52602260045260245ffd5b5f6002820490506001821680611c1657607f821691505b602082108103611c2957611c28611bd2565b5b50919050565b7f4c6f7474657279206973206e6f742061637469766500000000000000000000005f82015250565b5f611c636015836115c6565b9150611c6e82611c2f565b602082019050919050565b5f6020820190508181035f830152611c9081611c57565b9050919050565b7f4c6f74746572792068617320656e6465640000000000000000000000000000005f82015250565b5f611ccb6011836115c6565b9150611cd682611c97565b602082019050919050565b5f6020820190508181035f830152611cf881611cbf565b9050919050565b7f4e487b71000000000000000000000000000000000000000000000000000000005f52601160045260245ffd5b5f611d3682611429565b9150611d4183611429565b9250828201905080821115611d5957611d58611cff565b5b92915050565b7f4e6f7420656e6f756768207469636b65747320617661696c61626c65000000005f82015250565b5f611d93601c836115c6565b9150611d9e82611d5f565b602082019050919050565b5f6020820190508181035f830152611dc081611d87565b9050919050565b5f611dd182611429565b9150611ddc83611429565b9250828202611dea81611429565b91508282048414831517611e0157611e00611cff565b5b5092915050565b5f606082019050611e1b5f83018661165c565b611e28602083018561165c565b611e356040830184611432565b949350505050565b611e46816114d3565b8114611e50575f80fd5b50565b5f81519050611e6181611e3d565b92915050565b5f60208284031215611e7c57611e7b611463565b5b5f611e8984828501611e53565b91505092915050565b5f611e9c82611429565b9150611ea783611429565b9250828203905081811115611ebf57611ebe611cff565b5b92915050565b5f606082019050611ed85f830186611432565b611ee56020830185611432565b611ef26040830184611432565b949350505050565b7f4f6e6c7920746865206f776e65722063616e2063616c6c20746869732066756e5f8201527f6374696f6e000000000000000000000000000000000000000000000000000000602082015250565b5f611f546025836115c6565b9150611f5f82611efa565b604082019050919050565b5f6020820190508181035f830152611f8181611f48565b9050919050565b7f496e76616c696420746f6b656e206164647265737300000000000000000000005f82015250565b5f611fbc6015836115c6565b9150611fc782611f88565b602082019050919050565b5f6020820190508181035f830152611fe981611fb0565b9050919050565b7f4174206c65617374206f6e652077696e6e6572207265717569726564000000005f82015250565b5f612024601c836115c6565b915061202f82611ff0565b602082019050919050565b5f6020820190508181035f83015261205181612018565b9050919050565b7f4d696e2070617274696369706174696f6e2063616e6e6f7420657863656564205f8201527f3130300000000000000000000000000000000000000000000000000000000000602082015250565b5f6120b26023836115c6565b91506120bd82612058565b604082019050919050565b5f6020820190508181035f8301526120df816120a6565b9050919050565b5f6120f082611429565b91507fffffffffffffffffffffffffffffffffffffffffffffffffffffffffffffffff820361212257612121611cff565b5b600182019050919050565b5f819050815f5260205f209050919050565b5f6020601f8301049050919050565b5f82821b905092915050565b5f600883026121897fffffffffffffffffffffffffffffffffffffffffffffffffffffffffffffffff8261214e565b612193868361214e565b95508019841693508086168417925050509392505050565b5f6121c56121c06121bb84611429565b611b30565b611429565b9050919050565b5f819050919050565b6121de836121ab565b6121f26121ea826121cc565b84845461215a565b825550505050565b5f90565b6122066121fa565b6122118184846121d5565b505050565b5b81811015612234576122295f826121fe565b600181019050612217565b5050565b601f8211156122795761224a8161212d565b6122538461213f565b81016020851015612262578190505b61227661226e8561213f565b830182612216565b50505b505050565b5f82821c905092915050565b5f6122995f198460080261227e565b1980831691505092915050565b5f6122b1838361228a565b9150826002028217905092915050565b6122ca826115bc565b67ffffffffffffffff8111156122e3576122e26118b5565b5b6122ed8254611bff565b6122f8828285612238565b5f60209050601f831160018114612329575f8415612317578287015190505b61232185826122a6565b865550612388565b601f1984166123378661212d565b5f5b8281101561235e57848901518255600182019150602085019450602081019050612339565b8683101561237b5784890151612377601f89168261228a565b8355505b6001600288020188555050505b505050505050565b7f496e646578206f7574206f662072616e676500000000000000000000000000005f82015250565b5f6123c46012836115c6565b91506123cf82612390565b602082019050919050565b5f6020820190508181035f8301526123f1816123b8565b9050919050565b7f4e487b71000000000000000000000000000000000000000000000000000000005f52603260045260245ffd5b7f5469636b657420646f6573206e6f7420657869737400000000000000000000005f82015250565b5f6124596015836115c6565b915061246482612425565b602082019050919050565b5f6020820190508181035f8301526124868161244d565b9050919050565b7f4e6f7420746865207469636b6574206f776e65720000000000000000000000005f82015250565b5f6124c16014836115c6565b91506124cc8261248d565b602082019050919050565b5f6020820190508181035f8301526124ee816124b5565b9050919050565b7f5175616e74697479206d69736d617463680000000000000000000000000000005f82015250565b5f6125296011836115c6565b9150612534826124f5565b602082019050919050565b5f6020820190508181035f8301526125568161251d565b9050919050565b7f52616e646f6d206e756d62657220616c72656164792072657665616c656400005f82015250565b5f612591601e836115c6565b915061259c8261255d565b602082019050919050565b5f6020820190508181035f8301526125be81612585565b9050919050565b5f819050919050565b6125df6125da82611429565b6125c5565b82525050565b5f6125f082846125ce565b60208201915081905092915050565b7f52616e646f6d206e756d62657220646f6573206e6f74206d6174636820636f6d5f8201527f6d69746d656e7400000000000000000000000000000000000000000000000000602082015250565b5f6126596027836115c6565b9150612664826125ff565b604082019050919050565b5f6020820190508181035f8301526126868161264d565b905091905056fea26469706673582212207ba2dace63247b970b494fadf760638e6c4a9c86a88765f1412ce0e8d2c2d1cc64736f6c634300081a0033",
					"opcodes": "PUSH1 0x80 PUSH1 0x40 MSTORE CALLVALUE DUP1 ISZERO PUSH2 0xF JUMPI PUSH0 DUP1 REVERT JUMPDEST POP PUSH1 0x40 MLOAD PUSH2 0x280F CODESIZE SUB DUP1 PUSH2 0x280F DUP4 CODECOPY DUP2 DUP2 ADD PUSH1 0x40 MSTORE DUP2 ADD SWAP1 PUSH2 0x31 SWAP2 SWAP1 PUSH2 0x114 JUMP JUMPDEST CALLER PUSH1 0x1 PUSH0 PUSH2 0x100 EXP DUP2 SLOAD DUP2 PUSH20 0xFFFFFFFFFFFFFFFFFFFFFFFFFFFFFFFFFFFFFFFF MUL NOT AND SWAP1 DUP4 PUSH20 0xFFFFFFFFFFFFFFFFFFFFFFFFFFFFFFFFFFFFFFFF AND MUL OR SWAP1 SSTORE POP DUP1 PUSH0 DUP1 PUSH2 0x100 EXP DUP2 SLOAD DUP2 PUSH20 0xFFFFFFFFFFFFFFFFFFFFFFFFFFFFFFFFFFFFFFFF MUL NOT AND SWAP1 DUP4 PUSH20 0xFFFFFFFFFFFFFFFFFFFFFFFFFFFFFFFFFFFFFFFF AND MUL OR SWAP1 SSTORE POP POP PUSH2 0x13F JUMP JUMPDEST PUSH0 DUP1 REVERT JUMPDEST PUSH0 PUSH20 0xFFFFFFFFFFFFFFFFFFFFFFFFFFFFFFFFFFFFFFFF DUP3 AND SWAP1 POP SWAP2 SWAP1 POP JUMP JUMPDEST PUSH0 PUSH2 0xE3 DUP3 PUSH2 0xBA JUMP JUMPDEST SWAP1 POP SWAP2 SWAP1 POP JUMP JUMPDEST PUSH2 0xF3 DUP2 PUSH2 0xD9 JUMP JUMPDEST DUP2 EQ PUSH2 0xFD JUMPI PUSH0 DUP1 REVERT JUMPDEST POP JUMP JUMPDEST PUSH0 DUP2 MLOAD SWAP1 POP PUSH2 0x10E DUP2 PUSH2 0xEA JUMP JUMPDEST SWAP3 SWAP2 POP POP JUMP JUMPDEST PUSH0 PUSH1 0x20 DUP3 DUP5 SUB SLT ISZERO PUSH2 0x129 JUMPI PUSH2 0x128 PUSH2 0xB6 JUMP JUMPDEST JUMPDEST PUSH0 PUSH2 0x136 DUP5 DUP3 DUP6 ADD PUSH2 0x100 JUMP JUMPDEST SWAP2 POP POP SWAP3 SWAP2 POP POP JUMP JUMPDEST PUSH2 0x26C3 DUP1 PUSH2 0x14C PUSH0 CODECOPY PUSH0 RETURN INVALID PUSH1 0x80 PUSH1 0x40 MSTORE CALLVALUE DUP1 ISZERO PUSH2 0xF JUMPI PUSH0 DUP1 REVERT JUMPDEST POP PUSH1 0x4 CALLDATASIZE LT PUSH2 0x140 JUMPI PUSH0 CALLDATALOAD PUSH1 0xE0 SHR DUP1 PUSH4 0x7DF858DB GT PUSH2 0xB6 JUMPI DUP1 PUSH4 0xADC51CDB GT PUSH2 0x7A JUMPI DUP1 PUSH4 0xADC51CDB EQ PUSH2 0x3D0 JUMPI DUP1 PUSH4 0xCC42A7C5 EQ PUSH2 0x400 JUMPI DUP1 PUSH4 0xCDC2AEBF EQ PUSH2 0x430 JUMPI DUP1 PUSH4 0xD5ED4D5A EQ PUSH2 0x460 JUMPI DUP1 PUSH4 0xDC969F22 EQ PUSH2 0x47E JUMPI DUP1 PUSH4 0xE54778B5 EQ PUSH2 0x4AF JUMPI PUSH2 0x140 JUMP JUMPDEST DUP1 PUSH4 0x7DF858DB EQ PUSH2 0x318 JUMPI DUP1 PUSH4 0x89B2ACBC EQ PUSH2 0x348 JUMPI DUP1 PUSH4 0x8DA5CB5B EQ PUSH2 0x37A JUMPI DUP1 PUSH4 0x9351E76B EQ PUSH2 0x398 JUMPI DUP1 PUSH4 0xAD943D1E EQ PUSH2 0x3B4 JUMPI PUSH2 0x140 JUMP JUMPDEST DUP1 PUSH4 0x5B7B3D58 GT PUSH2 0x108 JUMPI DUP1 PUSH4 0x5B7B3D58 EQ PUSH2 0x22E JUMPI DUP1 PUSH4 0x5BDDBAAC EQ PUSH2 0x24C JUMPI DUP1 PUSH4 0x687E47D8 EQ PUSH2 0x27C JUMPI DUP1 PUSH4 0x6A326AB1 EQ PUSH2 0x298 JUMPI DUP1 PUSH4 0x73300F8A EQ PUSH2 0x2B4 JUMPI DUP1 PUSH4 0x76B3C8A8 EQ PUSH2 0x2E4 JUMPI PUSH2 0x140 JUMP JUMPDEST DUP1 PUSH4 0x400F4D0 EQ PUSH2 0x144 JUMPI DUP1 PUSH4 0x12B349D5 EQ PUSH2 0x162 JUMPI DUP1 PUSH4 0x1398E076 EQ PUSH2 0x192 JUMPI DUP1 PUSH4 0x27EA8DC2 EQ PUSH2 0x1CB JUMPI DUP1 PUSH4 0x49C0DE88 EQ PUSH2 0x1FB JUMPI JUMPDEST PUSH0 DUP1 REVERT JUMPDEST PUSH2 0x14C PUSH2 0x4DF JUMP JUMPDEST PUSH1 0x40 MLOAD PUSH2 0x159 SWAP2 SWAP1 PUSH2 0x1441 JUMP JUMPDEST PUSH1 0x40 MLOAD DUP1 SWAP2 SUB SWAP1 RETURN JUMPDEST PUSH2 0x17C PUSH1 0x4 DUP1 CALLDATASIZE SUB DUP2 ADD SWAP1 PUSH2 0x177 SWAP2 SWAP1 PUSH2 0x1495 JUMP JUMPDEST PUSH2 0x4E5 JUMP JUMPDEST PUSH1 0x40 MLOAD PUSH2 0x189 SWAP2 SWAP1 PUSH2 0x14ED JUMP JUMPDEST PUSH1 0x40 MLOAD DUP1 SWAP2 SUB SWAP1 RETURN JUMPDEST PUSH2 0x1AC PUSH1 0x4 DUP1 CALLDATASIZE SUB DUP2 ADD SWAP1 PUSH2 0x1A7 SWAP2 SWAP1 PUSH2 0x1506 JUMP JUMPDEST PUSH2 0x4EC JUMP JUMPDEST PUSH1 0x40 MLOAD PUSH2 0x1C2 SWAP11 SWAP10 SWAP9 SWAP8 SWAP7 SWAP6 SWAP5 SWAP4 SWAP3 SWAP2 SWAP1 PUSH2 0x166B JUMP JUMPDEST PUSH1 0x40 MLOAD DUP1 SWAP2 SUB SWAP1 RETURN JUMPDEST PUSH2 0x1E5 PUSH1 0x4 DUP1 CALLDATASIZE SUB DUP2 ADD SWAP1 PUSH2 0x1E0 SWAP2 SWAP1 PUSH2 0x1736 JUMP JUMPDEST PUSH2 0x5ED JUMP JUMPDEST PUSH1 0x40 MLOAD PUSH2 0x1F2 SWAP2 SWAP1 PUSH2 0x1441 JUMP JUMPDEST PUSH1 0x40 MLOAD DUP1 SWAP2 SUB SWAP1 RETURN JUMPDEST PUSH2 0x215 PUSH1 0x4 DUP1 CALLDATASIZE SUB DUP2 ADD SWAP1 PUSH2 0x210 SWAP2 SWAP1 PUSH2 0x1495 JUMP JUMPDEST PUSH2 0x9B0 JUMP JUMPDEST PUSH1 0x40 MLOAD PUSH2 0x225 SWAP5 SWAP4 SWAP3 SWAP2 SWAP1 PUSH2 0x1774 JUMP JUMPDEST PUSH1 0x40 MLOAD DUP1 SWAP2 SUB SWAP1 RETURN JUMPDEST PUSH2 0x236 PUSH2 0xA21 JUMP JUMPDEST PUSH1 0x40 MLOAD PUSH2 0x243 SWAP2 SWAP1 PUSH2 0x1441 JUMP JUMPDEST PUSH1 0x40 MLOAD DUP1 SWAP2 SUB SWAP1 RETURN JUMPDEST PUSH2 0x266 PUSH1 0x4 DUP1 CALLDATASIZE SUB DUP2 ADD SWAP1 PUSH2 0x261 SWAP2 SWAP1 PUSH2 0x17E1 JUMP JUMPDEST PUSH2 0xA2A JUMP JUMPDEST PUSH1 0x40 MLOAD PUSH2 0x273 SWAP2 SWAP1 PUSH2 0x14ED JUMP JUMPDEST PUSH1 0x40 MLOAD DUP1 SWAP2 SUB SWAP1 RETURN JUMPDEST PUSH2 0x296 PUSH1 0x4 DUP1 CALLDATASIZE SUB DUP2 ADD SWAP1 PUSH2 0x291 SWAP2 SWAP1 PUSH2 0x1495 JUMP JUMPDEST PUSH2 0xA32 JUMP JUMPDEST STOP JUMPDEST PUSH2 0x2B2 PUSH1 0x4 DUP1 CALLDATASIZE SUB DUP2 ADD SWAP1 PUSH2 0x2AD SWAP2 SWAP1 PUSH2 0x1831 JUMP JUMPDEST PUSH2 0xA36 JUMP JUMPDEST STOP JUMPDEST PUSH2 0x2CE PUSH1 0x4 DUP1 CALLDATASIZE SUB DUP2 ADD SWAP1 PUSH2 0x2C9 SWAP2 SWAP1 PUSH2 0x1495 JUMP JUMPDEST PUSH2 0xB8A JUMP JUMPDEST PUSH1 0x40 MLOAD PUSH2 0x2DB SWAP2 SWAP1 PUSH2 0x1441 JUMP JUMPDEST PUSH1 0x40 MLOAD DUP1 SWAP2 SUB SWAP1 RETURN JUMPDEST PUSH2 0x2FE PUSH1 0x4 DUP1 CALLDATASIZE SUB DUP2 ADD SWAP1 PUSH2 0x2F9 SWAP2 SWAP1 PUSH2 0x1506 JUMP JUMPDEST PUSH2 0xBAA JUMP JUMPDEST PUSH1 0x40 MLOAD PUSH2 0x30F SWAP6 SWAP5 SWAP4 SWAP3 SWAP2 SWAP1 PUSH2 0x185C JUMP JUMPDEST PUSH1 0x40 MLOAD DUP1 SWAP2 SUB SWAP1 RETURN JUMPDEST PUSH2 0x332 PUSH1 0x4 DUP1 CALLDATASIZE SUB DUP2 ADD SWAP1 PUSH2 0x32D SWAP2 SWAP1 PUSH2 0x19D9 JUMP JUMPDEST PUSH2 0xBEF JUMP JUMPDEST PUSH1 0x40 MLOAD PUSH2 0x33F SWAP2 SWAP1 PUSH2 0x1441 JUMP JUMPDEST PUSH1 0x40 MLOAD DUP1 SWAP2 SUB SWAP1 RETURN JUMPDEST PUSH2 0x362 PUSH1 0x4 DUP1 CALLDATASIZE SUB DUP2 ADD SWAP1 PUSH2 0x35D SWAP2 SWAP1 PUSH2 0x1495 JUMP JUMPDEST PUSH2 0xEDE JUMP JUMPDEST PUSH1 0x40 MLOAD PUSH2 0x371 SWAP4 SWAP3 SWAP2 SWAP1 PUSH2 0x1A92 JUMP JUMPDEST PUSH1 0x40 MLOAD DUP1 SWAP2 SUB SWAP1 RETURN JUMPDEST PUSH2 0x382 PUSH2 0xFA0 JUMP JUMPDEST PUSH1 0x40 MLOAD PUSH2 0x38F SWAP2 SWAP1 PUSH2 0x1AC7 JUMP JUMPDEST PUSH1 0x40 MLOAD DUP1 SWAP2 SUB SWAP1 RETURN JUMPDEST PUSH2 0x3B2 PUSH1 0x4 DUP1 CALLDATASIZE SUB DUP2 ADD SWAP1 PUSH2 0x3AD SWAP2 SWAP1 PUSH2 0x1AE0 JUMP JUMPDEST PUSH2 0xFC5 JUMP JUMPDEST STOP JUMPDEST PUSH2 0x3CE PUSH1 0x4 DUP1 CALLDATASIZE SUB DUP2 ADD SWAP1 PUSH2 0x3C9 SWAP2 SWAP1 PUSH2 0x1506 JUMP JUMPDEST PUSH2 0x1243 JUMP JUMPDEST STOP JUMPDEST PUSH2 0x3EA PUSH1 0x4 DUP1 CALLDATASIZE SUB DUP2 ADD SWAP1 PUSH2 0x3E5 SWAP2 SWAP1 PUSH2 0x1506 JUMP JUMPDEST PUSH2 0x12D5 JUMP JUMPDEST PUSH1 0x40 MLOAD PUSH2 0x3F7 SWAP2 SWAP1 PUSH2 0x1441 JUMP JUMPDEST PUSH1 0x40 MLOAD DUP1 SWAP2 SUB SWAP1 RETURN JUMPDEST PUSH2 0x41A PUSH1 0x4 DUP1 CALLDATASIZE SUB DUP2 ADD SWAP1 PUSH2 0x415 SWAP2 SWAP1 PUSH2 0x1506 JUMP JUMPDEST PUSH2 0x12F2 JUMP JUMPDEST PUSH1 0x40 MLOAD PUSH2 0x427 SWAP2 SWAP1 PUSH2 0x1441 JUMP JUMPDEST PUSH1 0x40 MLOAD DUP1 SWAP2 SUB SWAP1 RETURN JUMPDEST PUSH2 0x44A PUSH1 0x4 DUP1 CALLDATASIZE SUB DUP2 ADD SWAP1 PUSH2 0x445 SWAP2 SWAP1 PUSH2 0x1506 JUMP JUMPDEST PUSH2 0x130F JUMP JUMPDEST PUSH1 0x40 MLOAD PUSH2 0x457 SWAP2 SWAP1 PUSH2 0x1AC7 JUMP JUMPDEST PUSH1 0x40 MLOAD DUP1 SWAP2 SUB SWAP1 RETURN JUMPDEST PUSH2 0x468 PUSH2 0x134B JUMP JUMPDEST PUSH1 0x40 MLOAD PUSH2 0x475 SWAP2 SWAP1 PUSH2 0x1B8B JUMP JUMPDEST PUSH1 0x40 MLOAD DUP1 SWAP2 SUB SWAP1 RETURN JUMPDEST PUSH2 0x498 PUSH1 0x4 DUP1 CALLDATASIZE SUB DUP2 ADD SWAP1 PUSH2 0x493 SWAP2 SWAP1 PUSH2 0x1506 JUMP JUMPDEST PUSH2 0x136E JUMP JUMPDEST PUSH1 0x40 MLOAD PUSH2 0x4A6 SWAP3 SWAP2 SWAP1 PUSH2 0x1BA4 JUMP JUMPDEST PUSH1 0x40 MLOAD DUP1 SWAP2 SUB SWAP1 RETURN JUMPDEST PUSH2 0x4C9 PUSH1 0x4 DUP1 CALLDATASIZE SUB DUP2 ADD SWAP1 PUSH2 0x4C4 SWAP2 SWAP1 PUSH2 0x1495 JUMP JUMPDEST PUSH2 0x1422 JUMP JUMPDEST PUSH1 0x40 MLOAD PUSH2 0x4D6 SWAP2 SWAP1 PUSH2 0x1441 JUMP JUMPDEST PUSH1 0x40 MLOAD DUP1 SWAP2 SUB SWAP1 RETURN JUMPDEST PUSH1 0x2 SLOAD DUP2 JUMP JUMPDEST PUSH0 SWAP3 SWAP2 POP POP JUMP JUMPDEST PUSH1 0x3 PUSH1 0x20 MSTORE DUP1 PUSH0 MSTORE PUSH1 0x40 PUSH0 KECCAK256 PUSH0 SWAP2 POP SWAP1 POP DUP1 PUSH0 ADD SLOAD SWAP1 DUP1 PUSH1 0x1 ADD SLOAD SWAP1 DUP1 PUSH1 0x2 ADD SLOAD SWAP1 DUP1 PUSH1 0x3 ADD SLOAD SWAP1 DUP1 PUSH1 0x4 ADD SLOAD SWAP1 DUP1 PUSH1 0x5 ADD SLOAD SWAP1 DUP1 PUSH1 0x6 ADD PUSH0 SWAP1 SLOAD SWAP1 PUSH2 0x100 EXP SWAP1 DIV PUSH1 0xFF AND SWAP1 DUP1 PUSH1 0x7 ADD SLOAD SWAP1 DUP1 PUSH1 0x8 ADD DUP1 SLOAD PUSH2 0x547 SWAP1 PUSH2 0x1BFF JUMP JUMPDEST DUP1 PUSH1 0x1F ADD PUSH1 0x20 DUP1 SWAP2 DIV MUL PUSH1 0x20 ADD PUSH1 0x40 MLOAD SWAP1 DUP2 ADD PUSH1 0x40 MSTORE DUP1 SWAP3 SWAP2 SWAP1 DUP2 DUP2 MSTORE PUSH1 0x20 ADD DUP3 DUP1 SLOAD PUSH2 0x573 SWAP1 PUSH2 0x1BFF JUMP JUMPDEST DUP1 ISZERO PUSH2 0x5BE JUMPI DUP1 PUSH1 0x1F LT PUSH2 0x595 JUMPI PUSH2 0x100 DUP1 DUP4 SLOAD DIV MUL DUP4 MSTORE SWAP2 PUSH1 0x20 ADD SWAP2 PUSH2 0x5BE JUMP JUMPDEST DUP3 ADD SWAP2 SWAP1 PUSH0 MSTORE PUSH1 0x20 PUSH0 KECCAK256 SWAP1 JUMPDEST DUP2 SLOAD DUP2 MSTORE SWAP1 PUSH1 0x1 ADD SWAP1 PUSH1 0x20 ADD DUP1 DUP4 GT PUSH2 0x5A1 JUMPI DUP3 SWAP1 SUB PUSH1 0x1F AND DUP3 ADD SWAP2 JUMPDEST POP POP POP POP POP SWAP1 DUP1 PUSH1 0x9 ADD PUSH0 SWAP1 SLOAD SWAP1 PUSH2 0x100 EXP SWAP1 DIV PUSH20 0xFFFFFFFFFFFFFFFFFFFFFFFFFFFFFFFFFFFFFFFF AND SWAP1 POP DUP11 JUMP JUMPDEST PUSH0 PUSH1 0x1 PUSH1 0x4 DUP2 GT ISZERO PUSH2 0x602 JUMPI PUSH2 0x601 PUSH2 0x1531 JUMP JUMPDEST JUMPDEST PUSH1 0x3 PUSH0 PUSH1 0x2 SLOAD DUP2 MSTORE PUSH1 0x20 ADD SWAP1 DUP2 MSTORE PUSH1 0x20 ADD PUSH0 KECCAK256 PUSH1 0x6 ADD PUSH0 SWAP1 SLOAD SWAP1 PUSH2 0x100 EXP SWAP1 DIV PUSH1 0xFF AND PUSH1 0x4 DUP2 GT ISZERO PUSH2 0x637 JUMPI PUSH2 0x636 PUSH2 0x1531 JUMP JUMPDEST JUMPDEST EQ PUSH2 0x677 JUMPI PUSH1 0x40 MLOAD PUSH32 0x8C379A000000000000000000000000000000000000000000000000000000000 DUP2 MSTORE PUSH1 0x4 ADD PUSH2 0x66E SWAP1 PUSH2 0x1C79 JUMP JUMPDEST PUSH1 0x40 MLOAD DUP1 SWAP2 SUB SWAP1 REVERT JUMPDEST PUSH1 0x3 PUSH0 PUSH1 0x2 SLOAD DUP2 MSTORE PUSH1 0x20 ADD SWAP1 DUP2 MSTORE PUSH1 0x20 ADD PUSH0 KECCAK256 PUSH0 ADD SLOAD TIMESTAMP LT PUSH2 0x6CE JUMPI PUSH1 0x40 MLOAD PUSH32 0x8C379A000000000000000000000000000000000000000000000000000000000 DUP2 MSTORE PUSH1 0x4 ADD PUSH2 0x6C5 SWAP1 PUSH2 0x1CE1 JUMP JUMPDEST PUSH1 0x40 MLOAD DUP1 SWAP2 SUB SWAP1 REVERT JUMPDEST PUSH1 0x3 PUSH0 PUSH1 0x2 SLOAD DUP2 MSTORE PUSH1 0x20 ADD SWAP1 DUP2 MSTORE PUSH1 0x20 ADD PUSH0 KECCAK256 PUSH1 0x1 ADD SLOAD DUP4 PUSH1 0x3 PUSH0 PUSH1 0x2 SLOAD DUP2 MSTORE PUSH1 0x20 ADD SWAP1 DUP2 MSTORE PUSH1 0x20 ADD PUSH0 KECCAK256 PUSH1 0x5 ADD SLOAD PUSH2 0x707 SWAP2 SWAP1 PUSH2 0x1D2C JUMP JUMPDEST GT ISZERO PUSH2 0x748 JUMPI PUSH1 0x40 MLOAD PUSH32 0x8C379A000000000000000000000000000000000000000000000000000000000 DUP2 MSTORE PUSH1 0x4 ADD PUSH2 0x73F SWAP1 PUSH2 0x1DA9 JUMP JUMPDEST PUSH1 0x40 MLOAD DUP1 SWAP2 SUB SWAP1 REVERT JUMPDEST PUSH0 PUSH1 0x3 PUSH0 PUSH1 0x2 SLOAD DUP2 MSTORE PUSH1 0x20 ADD SWAP1 DUP2 MSTORE PUSH1 0x20 ADD PUSH0 KECCAK256 PUSH1 0x4 ADD SLOAD DUP5 PUSH2 0x76B SWAP2 SWAP1 PUSH2 0x1DC7 JUMP JUMPDEST SWAP1 POP PUSH0 DUP1 SLOAD SWAP1 PUSH2 0x100 EXP SWAP1 DIV PUSH20 0xFFFFFFFFFFFFFFFFFFFFFFFFFFFFFFFFFFFFFFFF AND PUSH20 0xFFFFFFFFFFFFFFFFFFFFFFFFFFFFFFFFFFFFFFFF AND PUSH4 0x23B872DD CALLER PUSH1 0x1 PUSH0 SWAP1 SLOAD SWAP1 PUSH2 0x100 EXP SWAP1 DIV PUSH20 0xFFFFFFFFFFFFFFFFFFFFFFFFFFFFFFFFFFFFFFFF AND DUP5 PUSH1 0x40 MLOAD DUP5 PUSH4 0xFFFFFFFF AND PUSH1 0xE0 SHL DUP2 MSTORE PUSH1 0x4 ADD PUSH2 0x7EA SWAP4 SWAP3 SWAP2 SWAP1 PUSH2 0x1E08 JUMP JUMPDEST PUSH1 0x20 PUSH1 0x40 MLOAD DUP1 DUP4 SUB DUP2 PUSH0 DUP8 GAS CALL ISZERO DUP1 ISZERO PUSH2 0x806 JUMPI RETURNDATASIZE PUSH0 DUP1 RETURNDATACOPY RETURNDATASIZE PUSH0 REVERT JUMPDEST POP POP POP POP PUSH1 0x40 MLOAD RETURNDATASIZE PUSH1 0x1F NOT PUSH1 0x1F DUP3 ADD AND DUP3 ADD DUP1 PUSH1 0x40 MSTORE POP DUP2 ADD SWAP1 PUSH2 0x82A SWAP2 SWAP1 PUSH2 0x1E67 JUMP JUMPDEST POP PUSH0 PUSH1 0x40 MLOAD DUP1 PUSH1 0x80 ADD PUSH1 0x40 MSTORE DUP1 CALLER PUSH20 0xFFFFFFFFFFFFFFFFFFFFFFFFFFFFFFFFFFFFFFFF AND DUP2 MSTORE PUSH1 0x20 ADD DUP7 DUP2 MSTORE PUSH1 0x20 ADD DUP6 DUP2 MSTORE PUSH1 0x20 ADD PUSH0 ISZERO ISZERO DUP2 MSTORE POP SWAP1 POP PUSH1 0x4 PUSH0 PUSH1 0x2 SLOAD DUP2 MSTORE PUSH1 0x20 ADD SWAP1 DUP2 MSTORE PUSH1 0x20 ADD PUSH0 KECCAK256 DUP2 SWAP1 DUP1 PUSH1 0x1 DUP2 SLOAD ADD DUP1 DUP3 SSTORE DUP1 SWAP2 POP POP PUSH1 0x1 SWAP1 SUB SWAP1 PUSH0 MSTORE PUSH1 0x20 PUSH0 KECCAK256 SWAP1 PUSH1 0x4 MUL ADD PUSH0 SWAP1 SWAP2 SWAP1 SWAP2 SWAP1 SWAP2 POP PUSH0 DUP3 ADD MLOAD DUP2 PUSH0 ADD PUSH0 PUSH2 0x100 EXP DUP2 SLOAD DUP2 PUSH20 0xFFFFFFFFFFFFFFFFFFFFFFFFFFFFFFFFFFFFFFFF MUL NOT AND SWAP1 DUP4 PUSH20 0xFFFFFFFFFFFFFFFFFFFFFFFFFFFFFFFFFFFFFFFF AND MUL OR SWAP1 SSTORE POP PUSH1 0x20 DUP3 ADD MLOAD DUP2 PUSH1 0x1 ADD SSTORE PUSH1 0x40 DUP3 ADD MLOAD DUP2 PUSH1 0x2 ADD SSTORE PUSH1 0x60 DUP3 ADD MLOAD DUP2 PUSH1 0x3 ADD PUSH0 PUSH2 0x100 EXP DUP2 SLOAD DUP2 PUSH1 0xFF MUL NOT AND SWAP1 DUP4 ISZERO ISZERO MUL OR SWAP1 SSTORE POP POP POP PUSH1 0x1 PUSH1 0x4 PUSH0 PUSH1 0x2 SLOAD DUP2 MSTORE PUSH1 0x20 ADD SWAP1 DUP2 MSTORE PUSH1 0x20 ADD PUSH0 KECCAK256 DUP1 SLOAD SWAP1 POP PUSH2 0x93D SWAP2 SWAP1 PUSH2 0x1E92 JUMP JUMPDEST SWAP3 POP DUP5 PUSH1 0x3 PUSH0 PUSH1 0x2 SLOAD DUP2 MSTORE PUSH1 0x20 ADD SWAP1 DUP2 MSTORE PUSH1 0x20 ADD PUSH0 KECCAK256 PUSH1 0x5 ADD PUSH0 DUP3 DUP3 SLOAD PUSH2 0x964 SWAP2 SWAP1 PUSH2 0x1D2C JUMP JUMPDEST SWAP3 POP POP DUP2 SWAP1 SSTORE POP PUSH32 0x931E05748FE2AC33CC32BA05B91BAF487EF85C1E67D88BE897AF1F2ED5EA9479 PUSH1 0x2 SLOAD DUP5 DUP8 PUSH1 0x40 MLOAD PUSH2 0x9A0 SWAP4 SWAP3 SWAP2 SWAP1 PUSH2 0x1EC5 JUMP JUMPDEST PUSH1 0x40 MLOAD DUP1 SWAP2 SUB SWAP1 LOG1 POP POP SWAP3 SWAP2 POP POP JUMP JUMPDEST PUSH1 0x4 PUSH1 0x20 MSTORE DUP2 PUSH0 MSTORE PUSH1 0x40 PUSH0 KECCAK256 DUP2 DUP2 SLOAD DUP2 LT PUSH2 0x9C9 JUMPI PUSH0 DUP1 REVERT JUMPDEST SWAP1 PUSH0 MSTORE PUSH1 0x20 PUSH0 KECCAK256 SWAP1 PUSH1 0x4 MUL ADD PUSH0 SWAP2 POP SWAP2 POP POP DUP1 PUSH0 ADD PUSH0 SWAP1 SLOAD SWAP1 PUSH2 0x100 EXP SWAP1 DIV PUSH20 0xFFFFFFFFFFFFFFFFFFFFFFFFFFFFFFFFFFFFFFFF AND SWAP1 DUP1 PUSH1 0x1 ADD SLOAD SWAP1 DUP1 PUSH1 0x2 ADD SLOAD SWAP1 DUP1 PUSH1 0x3 ADD PUSH0 SWAP1 SLOAD SWAP1 PUSH2 0x100 EXP SWAP1 DIV PUSH1 0xFF AND SWAP1 POP DUP5 JUMP JUMPDEST PUSH0 PUSH1 0x2 SLOAD SWAP1 POP SWAP1 JUMP JUMPDEST PUSH0 SWAP4 SWAP3 POP POP POP JUMP JUMPDEST POP POP JUMP JUMPDEST PUSH1 0x1 PUSH0 SWAP1 SLOAD SWAP1 PUSH2 0x100 EXP SWAP1 DIV PUSH20 0xFFFFFFFFFFFFFFFFFFFFFFFFFFFFFFFFFFFFFFFF AND PUSH20 0xFFFFFFFFFFFFFFFFFFFFFFFFFFFFFFFFFFFFFFFF AND CALLER PUSH20 0xFFFFFFFFFFFFFFFFFFFFFFFFFFFFFFFFFFFFFFFF AND EQ PUSH2 0xAC5 JUMPI PUSH1 0x40 MLOAD PUSH32 0x8C379A000000000000000000000000000000000000000000000000000000000 DUP2 MSTORE PUSH1 0x4 ADD PUSH2 0xABC SWAP1 PUSH2 0x1F6A JUMP JUMPDEST PUSH1 0x40 MLOAD DUP1 SWAP2 SUB SWAP1 REVERT JUMPDEST PUSH0 PUSH20 0xFFFFFFFFFFFFFFFFFFFFFFFFFFFFFFFFFFFFFFFF AND DUP2 PUSH20 0xFFFFFFFFFFFFFFFFFFFFFFFFFFFFFFFFFFFFFFFF AND SUB PUSH2 0xB33 JUMPI PUSH1 0x40 MLOAD PUSH32 0x8C379A000000000000000000000000000000000000000000000000000000000 DUP2 MSTORE PUSH1 0x4 ADD PUSH2 0xB2A SWAP1 PUSH2 0x1FD2 JUMP JUMPDEST PUSH1 0x40 MLOAD DUP1 SWAP2 SUB SWAP1 REVERT JUMPDEST DUP1 PUSH1 0x3 PUSH0 PUSH1 0x2 SLOAD DUP2 MSTORE PUSH1 0x20 ADD SWAP1 DUP2 MSTORE PUSH1 0x20 ADD PUSH0 KECCAK256 PUSH1 0x9 ADD PUSH0 PUSH2 0x100 EXP DUP2 SLOAD DUP2 PUSH20 0xFFFFFFFFFFFFFFFFFFFFFFFFFFFFFFFFFFFFFFFF MUL NOT AND SWAP1 DUP4 PUSH20 0xFFFFFFFFFFFFFFFFFFFFFFFFFFFFFFFFFFFFFFFF AND MUL OR SWAP1 SSTORE POP POP JUMP JUMPDEST PUSH1 0x5 PUSH1 0x20 MSTORE DUP2 PUSH0 MSTORE PUSH1 0x40 PUSH0 KECCAK256 PUSH1 0x20 MSTORE DUP1 PUSH0 MSTORE PUSH1 0x40 PUSH0 KECCAK256 PUSH0 SWAP2 POP SWAP2 POP POP SLOAD DUP2 JUMP JUMPDEST PUSH0 DUP1 PUSH0 DUP1 PUSH0 DUP1 PUSH1 0x3 PUSH0 DUP9 DUP2 MSTORE PUSH1 0x20 ADD SWAP1 DUP2 MSTORE PUSH1 0x20 ADD PUSH0 KECCAK256 SWAP1 POP DUP1 PUSH0 ADD SLOAD DUP2 PUSH1 0x1 ADD SLOAD DUP3 PUSH1 0x2 ADD SLOAD DUP4 PUSH1 0x3 ADD SLOAD DUP5 PUSH1 0x4 ADD SLOAD SWAP6 POP SWAP6 POP SWAP6 POP SWAP6 POP SWAP6 POP POP SWAP2 SWAP4 SWAP6 SWAP1 SWAP3 SWAP5 POP JUMP JUMPDEST PUSH0 PUSH1 0x1 PUSH0 SWAP1 SLOAD SWAP1 PUSH2 0x100 EXP SWAP1 DIV PUSH20 0xFFFFFFFFFFFFFFFFFFFFFFFFFFFFFFFFFFFFFFFF AND PUSH20 0xFFFFFFFFFFFFFFFFFFFFFFFFFFFFFFFFFFFFFFFF AND CALLER PUSH20 0xFFFFFFFFFFFFFFFFFFFFFFFFFFFFFFFFFFFFFFFF AND EQ PUSH2 0xC7F JUMPI PUSH1 0x40 MLOAD PUSH32 0x8C379A000000000000000000000000000000000000000000000000000000000 DUP2 MSTORE PUSH1 0x4 ADD PUSH2 0xC76 SWAP1 PUSH2 0x1F6A JUMP JUMPDEST PUSH1 0x40 MLOAD DUP1 SWAP2 SUB SWAP1 REVERT JUMPDEST PUSH0 DUP7 GT PUSH2 0xCC1 JUMPI PUSH1 0x40 MLOAD PUSH32 0x8C379A000000000000000000000000000000000000000000000000000000000 DUP2 MSTORE PUSH1 0x4 ADD PUSH2 0xCB8 SWAP1 PUSH2 0x203A JUMP JUMPDEST PUSH1 0x40 MLOAD DUP1 SWAP2 SUB SWAP1 REVERT JUMPDEST PUSH1 0x64 DUP6 GT ISZERO PUSH2 0xD05 JUMPI PUSH1 0x40 MLOAD PUSH32 0x8C379A000000000000000000000000000000000000000000000000000000000 DUP2 MSTORE PUSH1 0x4 ADD PUSH2 0xCFC SWAP1 PUSH2 0x20C8 JUMP JUMPDEST PUSH1 0x40 MLOAD DUP1 SWAP2 SUB SWAP1 REVERT JUMPDEST PUSH1 0x2 PUSH0 DUP2 SLOAD DUP1 SWAP3 SWAP2 SWAP1 PUSH2 0xD17 SWAP1 PUSH2 0x20E6 JUMP JUMPDEST SWAP2 SWAP1 POP SSTORE POP PUSH1 0x40 MLOAD DUP1 PUSH2 0x140 ADD PUSH1 0x40 MSTORE DUP1 DUP10 DUP2 MSTORE PUSH1 0x20 ADD DUP9 DUP2 MSTORE PUSH1 0x20 ADD DUP8 DUP2 MSTORE PUSH1 0x20 ADD DUP7 DUP2 MSTORE PUSH1 0x20 ADD DUP6 DUP2 MSTORE PUSH1 0x20 ADD PUSH0 DUP2 MSTORE PUSH1 0x20 ADD PUSH1 0x1 PUSH1 0x4 DUP2 GT ISZERO PUSH2 0xD60 JUMPI PUSH2 0xD5F PUSH2 0x1531 JUMP JUMPDEST JUMPDEST DUP2 MSTORE PUSH1 0x20 ADD DUP5 DUP2 MSTORE PUSH1 0x20 ADD DUP4 DUP2 MSTORE PUSH1 0x20 ADD PUSH0 DUP1 SLOAD SWAP1 PUSH2 0x100 EXP SWAP1 DIV PUSH20 0xFFFFFFFFFFFFFFFFFFFFFFFFFFFFFFFFFFFFFFFF AND PUSH20 0xFFFFFFFFFFFFFFFFFFFFFFFFFFFFFFFFFFFFFFFF AND DUP2 MSTORE POP PUSH1 0x3 PUSH0 PUSH1 0x2 SLOAD DUP2 MSTORE PUSH1 0x20 ADD SWAP1 DUP2 MSTORE PUSH1 0x20 ADD PUSH0 KECCAK256 PUSH0 DUP3 ADD MLOAD DUP2 PUSH0 ADD SSTORE PUSH1 0x20 DUP3 ADD MLOAD DUP2 PUSH1 0x1 ADD SSTORE PUSH1 0x40 DUP3 ADD MLOAD DUP2 PUSH1 0x2 ADD SSTORE PUSH1 0x60 DUP3 ADD MLOAD DUP2 PUSH1 0x3 ADD SSTORE PUSH1 0x80 DUP3 ADD MLOAD DUP2 PUSH1 0x4 ADD SSTORE PUSH1 0xA0 DUP3 ADD MLOAD DUP2 PUSH1 0x5 ADD SSTORE PUSH1 0xC0 DUP3 ADD MLOAD DUP2 PUSH1 0x6 ADD PUSH0 PUSH2 0x100 EXP DUP2 SLOAD DUP2 PUSH1 0xFF MUL NOT AND SWAP1 DUP4 PUSH1 0x4 DUP2 GT ISZERO PUSH2 0xE21 JUMPI PUSH2 0xE20 PUSH2 0x1531 JUMP JUMPDEST JUMPDEST MUL OR SWAP1 SSTORE POP PUSH1 0xE0 DUP3 ADD MLOAD DUP2 PUSH1 0x7 ADD SSTORE PUSH2 0x100 DUP3 ADD MLOAD DUP2 PUSH1 0x8 ADD SWAP1 DUP2 PUSH2 0xE46 SWAP2 SWAP1 PUSH2 0x22C1 JUMP JUMPDEST POP PUSH2 0x120 DUP3 ADD MLOAD DUP2 PUSH1 0x9 ADD PUSH0 PUSH2 0x100 EXP DUP2 SLOAD DUP2 PUSH20 0xFFFFFFFFFFFFFFFFFFFFFFFFFFFFFFFFFFFFFFFF MUL NOT AND SWAP1 DUP4 PUSH20 0xFFFFFFFFFFFFFFFFFFFFFFFFFFFFFFFFFFFFFFFF AND MUL OR SWAP1 SSTORE POP SWAP1 POP POP PUSH32 0xBCAB9AF3175C8A9D53B9308A82EE378A84C65B0C22E3DFEA2AFAC802C73A078A PUSH1 0x2 SLOAD DUP10 DUP10 PUSH1 0x40 MLOAD PUSH2 0xEC6 SWAP4 SWAP3 SWAP2 SWAP1 PUSH2 0x1EC5 JUMP JUMPDEST PUSH1 0x40 MLOAD DUP1 SWAP2 SUB SWAP1 LOG1 PUSH1 0x2 SLOAD SWAP1 POP SWAP8 SWAP7 POP POP POP POP POP POP POP JUMP JUMPDEST PUSH0 DUP1 PUSH0 PUSH1 0x4 PUSH0 DUP6 DUP2 MSTORE PUSH1 0x20 ADD SWAP1 DUP2 MSTORE PUSH1 0x20 ADD PUSH0 KECCAK256 DUP1 SLOAD SWAP1 POP DUP6 LT PUSH2 0xF37 JUMPI PUSH1 0x40 MLOAD PUSH32 0x8C379A000000000000000000000000000000000000000000000000000000000 DUP2 MSTORE PUSH1 0x4 ADD PUSH2 0xF2E SWAP1 PUSH2 0x23DA JUMP JUMPDEST PUSH1 0x40 MLOAD DUP1 SWAP2 SUB SWAP1 REVERT JUMPDEST PUSH0 PUSH1 0x4 PUSH0 DUP7 DUP2 MSTORE PUSH1 0x20 ADD SWAP1 DUP2 MSTORE PUSH1 0x20 ADD PUSH0 KECCAK256 DUP7 DUP2 SLOAD DUP2 LT PUSH2 0xF5B JUMPI PUSH2 0xF5A PUSH2 0x23F8 JUMP JUMPDEST JUMPDEST SWAP1 PUSH0 MSTORE PUSH1 0x20 PUSH0 KECCAK256 SWAP1 PUSH1 0x4 MUL ADD SWAP1 POP DUP6 DUP2 PUSH1 0x1 ADD SLOAD DUP3 PUSH0 ADD PUSH0 SWAP1 SLOAD SWAP1 PUSH2 0x100 EXP SWAP1 DIV PUSH20 0xFFFFFFFFFFFFFFFFFFFFFFFFFFFFFFFFFFFFFFFF AND SWAP4 POP SWAP4 POP SWAP4 POP POP SWAP3 POP SWAP3 POP SWAP3 JUMP JUMPDEST PUSH1 0x1 PUSH0 SWAP1 SLOAD SWAP1 PUSH2 0x100 EXP SWAP1 DIV PUSH20 0xFFFFFFFFFFFFFFFFFFFFFFFFFFFFFFFFFFFFFFFF AND DUP2 JUMP JUMPDEST PUSH1 0x4 PUSH0 PUSH1 0x2 SLOAD DUP2 MSTORE PUSH1 0x20 ADD SWAP1 DUP2 MSTORE PUSH1 0x20 ADD PUSH0 KECCAK256 DUP1 SLOAD SWAP1 POP DUP4 LT PUSH2 0x101D JUMPI PUSH1 0x40 MLOAD PUSH32 0x8C379A000000000000000000000000000000000000000000000000000000000 DUP2 MSTORE PUSH1 0x4 ADD PUSH2 0x1014 SWAP1 PUSH2 0x246F JUMP JUMPDEST PUSH1 0x40 MLOAD DUP1 SWAP2 SUB SWAP1 REVERT JUMPDEST PUSH0 PUSH1 0x4 PUSH0 PUSH1 0x2 SLOAD DUP2 MSTORE PUSH1 0x20 ADD SWAP1 DUP2 MSTORE PUSH1 0x20 ADD PUSH0 KECCAK256 DUP5 DUP2 SLOAD DUP2 LT PUSH2 0x1043 JUMPI PUSH2 0x1042 PUSH2 0x23F8 JUMP JUMPDEST JUMPDEST SWAP1 PUSH0 MSTORE PUSH1 0x20 PUSH0 KECCAK256 SWAP1 PUSH1 0x4 MUL ADD SWAP1 POP CALLER PUSH20 0xFFFFFFFFFFFFFFFFFFFFFFFFFFFFFFFFFFFFFFFF AND DUP2 PUSH0 ADD PUSH0 SWAP1 SLOAD SWAP1 PUSH2 0x100 EXP SWAP1 DIV PUSH20 0xFFFFFFFFFFFFFFFFFFFFFFFFFFFFFFFFFFFFFFFF AND PUSH20 0xFFFFFFFFFFFFFFFFFFFFFFFFFFFFFFFFFFFFFFFF AND EQ PUSH2 0x10E1 JUMPI PUSH1 0x40 MLOAD PUSH32 0x8C379A000000000000000000000000000000000000000000000000000000000 DUP2 MSTORE PUSH1 0x4 ADD PUSH2 0x10D8 SWAP1 PUSH2 0x24D7 JUMP JUMPDEST PUSH1 0x40 MLOAD DUP1 SWAP2 SUB SWAP1 REVERT JUMPDEST DUP3 DUP2 PUSH1 0x1 ADD SLOAD EQ PUSH2 0x1127 JUMPI PUSH1 0x40 MLOAD PUSH32 0x8C379A000000000000000000000000000000000000000000000000000000000 DUP2 MSTORE PUSH1 0x4 ADD PUSH2 0x111E SWAP1 PUSH2 0x253F JUMP JUMPDEST PUSH1 0x40 MLOAD DUP1 SWAP2 SUB SWAP1 REVERT JUMPDEST DUP1 PUSH1 0x3 ADD PUSH0 SWAP1 SLOAD SWAP1 PUSH2 0x100 EXP SWAP1 DIV PUSH1 0xFF AND ISZERO PUSH2 0x1178 JUMPI PUSH1 0x40 MLOAD PUSH32 0x8C379A000000000000000000000000000000000000000000000000000000000 DUP2 MSTORE PUSH1 0x4 ADD PUSH2 0x116F SWAP1 PUSH2 0x25A7 JUMP JUMPDEST PUSH1 0x40 MLOAD DUP1 SWAP2 SUB SWAP1 REVERT JUMPDEST DUP2 PUSH1 0x40 MLOAD PUSH1 0x20 ADD PUSH2 0x1189 SWAP2 SWAP1 PUSH2 0x25E5 JUMP JUMPDEST PUSH1 0x40 MLOAD PUSH1 0x20 DUP2 DUP4 SUB SUB DUP2 MSTORE SWAP1 PUSH1 0x40 MSTORE DUP1 MLOAD SWAP1 PUSH1 0x20 ADD KECCAK256 DUP2 PUSH1 0x2 ADD SLOAD EQ PUSH2 0x11E4 JUMPI PUSH1 0x40 MLOAD PUSH32 0x8C379A000000000000000000000000000000000000000000000000000000000 DUP2 MSTORE PUSH1 0x4 ADD PUSH2 0x11DB SWAP1 PUSH2 0x266F JUMP JUMPDEST PUSH1 0x40 MLOAD DUP1 SWAP2 SUB SWAP1 REVERT JUMPDEST PUSH1 0x1 DUP2 PUSH1 0x3 ADD PUSH0 PUSH2 0x100 EXP DUP2 SLOAD DUP2 PUSH1 0xFF MUL NOT AND SWAP1 DUP4 ISZERO ISZERO MUL OR SWAP1 SSTORE POP PUSH32 0xB404D5122F9C343795903CD3906F44902818ED6E1270EAB69B9A14B2BEF0D681 PUSH1 0x2 SLOAD DUP6 DUP5 PUSH1 0x40 MLOAD PUSH2 0x1235 SWAP4 SWAP3 SWAP2 SWAP1 PUSH2 0x1EC5 JUMP JUMPDEST PUSH1 0x40 MLOAD DUP1 SWAP2 SUB SWAP1 LOG1 POP POP POP POP JUMP JUMPDEST PUSH1 0x1 PUSH0 SWAP1 SLOAD SWAP1 PUSH2 0x100 EXP SWAP1 DIV PUSH20 0xFFFFFFFFFFFFFFFFFFFFFFFFFFFFFFFFFFFFFFFF AND PUSH20 0xFFFFFFFFFFFFFFFFFFFFFFFFFFFFFFFFFFFFFFFF AND CALLER PUSH20 0xFFFFFFFFFFFFFFFFFFFFFFFFFFFFFFFFFFFFFFFF AND EQ PUSH2 0x12D2 JUMPI PUSH1 0x40 MLOAD PUSH32 0x8C379A000000000000000000000000000000000000000000000000000000000 DUP2 MSTORE PUSH1 0x4 ADD PUSH2 0x12C9 SWAP1 PUSH2 0x1F6A JUMP JUMPDEST PUSH1 0x40 MLOAD DUP1 SWAP2 SUB SWAP1 REVERT JUMPDEST POP JUMP JUMPDEST PUSH0 PUSH1 0x4 PUSH0 DUP4 DUP2 MSTORE PUSH1 0x20 ADD SWAP1 DUP2 MSTORE PUSH1 0x20 ADD PUSH0 KECCAK256 DUP1 SLOAD SWAP1 POP SWAP1 POP SWAP2 SWAP1 POP JUMP JUMPDEST PUSH0 PUSH1 0x3 PUSH0 DUP4 DUP2 MSTORE PUSH1 0x20 ADD SWAP1 DUP2 MSTORE PUSH1 0x20 ADD PUSH0 KECCAK256 PUSH1 0x5 ADD SLOAD SWAP1 POP SWAP2 SWAP1 POP JUMP JUMPDEST PUSH0 PUSH1 0x3 PUSH0 DUP4 DUP2 MSTORE PUSH1 0x20 ADD SWAP1 DUP2 MSTORE PUSH1 0x20 ADD PUSH0 KECCAK256 PUSH1 0x9 ADD PUSH0 SWAP1 SLOAD SWAP1 PUSH2 0x100 EXP SWAP1 DIV PUSH20 0xFFFFFFFFFFFFFFFFFFFFFFFFFFFFFFFFFFFFFFFF AND SWAP1 POP SWAP2 SWAP1 POP JUMP JUMPDEST PUSH0 DUP1 SLOAD SWAP1 PUSH2 0x100 EXP SWAP1 DIV PUSH20 0xFFFFFFFFFFFFFFFFFFFFFFFFFFFFFFFFFFFFFFFF AND DUP2 JUMP JUMPDEST PUSH0 PUSH1 0x60 PUSH0 PUSH1 0x3 PUSH0 DUP6 DUP2 MSTORE PUSH1 0x20 ADD SWAP1 DUP2 MSTORE PUSH1 0x20 ADD PUSH0 KECCAK256 SWAP1 POP DUP1 PUSH1 0x7 ADD SLOAD DUP2 PUSH1 0x8 ADD DUP1 DUP1 SLOAD PUSH2 0x139A SWAP1 PUSH2 0x1BFF JUMP JUMPDEST DUP1 PUSH1 0x1F ADD PUSH1 0x20 DUP1 SWAP2 DIV MUL PUSH1 0x20 ADD PUSH1 0x40 MLOAD SWAP1 DUP2 ADD PUSH1 0x40 MSTORE DUP1 SWAP3 SWAP2 SWAP1 DUP2 DUP2 MSTORE PUSH1 0x20 ADD DUP3 DUP1 SLOAD PUSH2 0x13C6 SWAP1 PUSH2 0x1BFF JUMP JUMPDEST DUP1 ISZERO PUSH2 0x1411 JUMPI DUP1 PUSH1 0x1F LT PUSH2 0x13E8 JUMPI PUSH2 0x100 DUP1 DUP4 SLOAD DIV MUL DUP4 MSTORE SWAP2 PUSH1 0x20 ADD SWAP2 PUSH2 0x1411 JUMP JUMPDEST DUP3 ADD SWAP2 SWAP1 PUSH0 MSTORE PUSH1 0x20 PUSH0 KECCAK256 SWAP1 JUMPDEST DUP2 SLOAD DUP2 MSTORE SWAP1 PUSH1 0x1 ADD SWAP1 PUSH1 0x20 ADD DUP1 DUP4 GT PUSH2 0x13F4 JUMPI DUP3 SWAP1 SUB PUSH1 0x1F AND DUP3 ADD SWAP2 JUMPDEST POP POP POP POP POP SWAP1 POP SWAP3 POP SWAP3 POP POP SWAP2 POP SWAP2 JUMP JUMPDEST PUSH0 SWAP3 SWAP2 POP POP JUMP JUMPDEST PUSH0 DUP2 SWAP1 POP SWAP2 SWAP1 POP JUMP JUMPDEST PUSH2 0x143B DUP2 PUSH2 0x1429 JUMP JUMPDEST DUP3 MSTORE POP POP JUMP JUMPDEST PUSH0 PUSH1 0x20 DUP3 ADD SWAP1 POP PUSH2 0x1454 PUSH0 DUP4 ADD DUP5 PUSH2 0x1432 JUMP JUMPDEST SWAP3 SWAP2 POP POP JUMP JUMPDEST PUSH0 PUSH1 0x40 MLOAD SWAP1 POP SWAP1 JUMP JUMPDEST PUSH0 DUP1 REVERT JUMPDEST PUSH0 DUP1 REVERT JUMPDEST PUSH2 0x1474 DUP2 PUSH2 0x1429 JUMP JUMPDEST DUP2 EQ PUSH2 0x147E JUMPI PUSH0 DUP1 REVERT JUMPDEST POP JUMP JUMPDEST PUSH0 DUP2 CALLDATALOAD SWAP1 POP PUSH2 0x148F DUP2 PUSH2 0x146B JUMP JUMPDEST SWAP3 SWAP2 POP POP JUMP JUMPDEST PUSH0 DUP1 PUSH1 0x40 DUP4 DUP6 SUB SLT ISZERO PUSH2 0x14AB JUMPI PUSH2 0x14AA PUSH2 0x1463 JUMP JUMPDEST JUMPDEST PUSH0 PUSH2 0x14B8 DUP6 DUP3 DUP7 ADD PUSH2 0x1481 JUMP JUMPDEST SWAP3 POP POP PUSH1 0x20 PUSH2 0x14C9 DUP6 DUP3 DUP7 ADD PUSH2 0x1481 JUMP JUMPDEST SWAP2 POP POP SWAP3 POP SWAP3 SWAP1 POP JUMP JUMPDEST PUSH0 DUP2 ISZERO ISZERO SWAP1 POP SWAP2 SWAP1 POP JUMP JUMPDEST PUSH2 0x14E7 DUP2 PUSH2 0x14D3 JUMP JUMPDEST DUP3 MSTORE POP POP JUMP JUMPDEST PUSH0 PUSH1 0x20 DUP3 ADD SWAP1 POP PUSH2 0x1500 PUSH0 DUP4 ADD DUP5 PUSH2 0x14DE JUMP JUMPDEST SWAP3 SWAP2 POP POP JUMP JUMPDEST PUSH0 PUSH1 0x20 DUP3 DUP5 SUB SLT ISZERO PUSH2 0x151B JUMPI PUSH2 0x151A PUSH2 0x1463 JUMP JUMPDEST JUMPDEST PUSH0 PUSH2 0x1528 DUP5 DUP3 DUP6 ADD PUSH2 0x1481 JUMP JUMPDEST SWAP2 POP POP SWAP3 SWAP2 POP POP JUMP JUMPDEST PUSH32 0x4E487B7100000000000000000000000000000000000000000000000000000000 PUSH0 MSTORE PUSH1 0x21 PUSH1 0x4 MSTORE PUSH1 0x24 PUSH0 REVERT JUMPDEST PUSH1 0x5 DUP2 LT PUSH2 0x156F JUMPI PUSH2 0x156E PUSH2 0x1531 JUMP JUMPDEST JUMPDEST POP JUMP JUMPDEST PUSH0 DUP2 SWAP1 POP PUSH2 0x157F DUP3 PUSH2 0x155E JUMP JUMPDEST SWAP2 SWAP1 POP JUMP JUMPDEST PUSH0 PUSH2 0x158E DUP3 PUSH2 0x1572 JUMP JUMPDEST SWAP1 POP SWAP2 SWAP1 POP JUMP JUMPDEST PUSH2 0x159E DUP2 PUSH2 0x1584 JUMP JUMPDEST DUP3 MSTORE POP POP JUMP JUMPDEST PUSH0 DUP2 SWAP1 POP SWAP2 SWAP1 POP JUMP JUMPDEST PUSH2 0x15B6 DUP2 PUSH2 0x15A4 JUMP JUMPDEST DUP3 MSTORE POP POP JUMP JUMPDEST PUSH0 DUP2 MLOAD SWAP1 POP SWAP2 SWAP1 POP JUMP JUMPDEST PUSH0 DUP3 DUP3 MSTORE PUSH1 0x20 DUP3 ADD SWAP1 POP SWAP3 SWAP2 POP POP JUMP JUMPDEST DUP3 DUP2 DUP4 MCOPY PUSH0 DUP4 DUP4 ADD MSTORE POP POP POP JUMP JUMPDEST PUSH0 PUSH1 0x1F NOT PUSH1 0x1F DUP4 ADD AND SWAP1 POP SWAP2 SWAP1 POP JUMP JUMPDEST PUSH0 PUSH2 0x15FE DUP3 PUSH2 0x15BC JUMP JUMPDEST PUSH2 0x1608 DUP2 DUP6 PUSH2 0x15C6 JUMP JUMPDEST SWAP4 POP PUSH2 0x1618 DUP2 DUP6 PUSH1 0x20 DUP7 ADD PUSH2 0x15D6 JUMP JUMPDEST PUSH2 0x1621 DUP2 PUSH2 0x15E4 JUMP JUMPDEST DUP5 ADD SWAP2 POP POP SWAP3 SWAP2 POP POP JUMP JUMPDEST PUSH0 PUSH20 0xFFFFFFFFFFFFFFFFFFFFFFFFFFFFFFFFFFFFFFFF DUP3 AND SWAP1 POP SWAP2 SWAP1 POP JUMP JUMPDEST PUSH0 PUSH2 0x1655 DUP3 PUSH2 0x162C JUMP JUMPDEST SWAP1 POP SWAP2 SWAP1 POP JUMP JUMPDEST PUSH2 0x1665 DUP2 PUSH2 0x164B JUMP JUMPDEST DUP3 MSTORE POP POP JUMP JUMPDEST PUSH0 PUSH2 0x140 DUP3 ADD SWAP1 POP PUSH2 0x167F PUSH0 DUP4 ADD DUP14 PUSH2 0x1432 JUMP JUMPDEST PUSH2 0x168C PUSH1 0x20 DUP4 ADD DUP13 PUSH2 0x1432 JUMP JUMPDEST PUSH2 0x1699 PUSH1 0x40 DUP4 ADD DUP12 PUSH2 0x1432 JUMP JUMPDEST PUSH2 0x16A6 PUSH1 0x60 DUP4 ADD DUP11 PUSH2 0x1432 JUMP JUMPDEST PUSH2 0x16B3 PUSH1 0x80 DUP4 ADD DUP10 PUSH2 0x1432 JUMP JUMPDEST PUSH2 0x16C0 PUSH1 0xA0 DUP4 ADD DUP9 PUSH2 0x1432 JUMP JUMPDEST PUSH2 0x16CD PUSH1 0xC0 DUP4 ADD DUP8 PUSH2 0x1595 JUMP JUMPDEST PUSH2 0x16DA PUSH1 0xE0 DUP4 ADD DUP7 PUSH2 0x15AD JUMP JUMPDEST DUP2 DUP2 SUB PUSH2 0x100 DUP4 ADD MSTORE PUSH2 0x16ED DUP2 DUP6 PUSH2 0x15F4 JUMP JUMPDEST SWAP1 POP PUSH2 0x16FD PUSH2 0x120 DUP4 ADD DUP5 PUSH2 0x165C JUMP JUMPDEST SWAP12 SWAP11 POP POP POP POP POP POP POP POP POP POP POP JUMP JUMPDEST PUSH2 0x1715 DUP2 PUSH2 0x15A4 JUMP JUMPDEST DUP2 EQ PUSH2 0x171F JUMPI PUSH0 DUP1 REVERT JUMPDEST POP JUMP JUMPDEST PUSH0 DUP2 CALLDATALOAD SWAP1 POP PUSH2 0x1730 DUP2 PUSH2 0x170C JUMP JUMPDEST SWAP3 SWAP2 POP POP JUMP JUMPDEST PUSH0 DUP1 PUSH1 0x40 DUP4 DUP6 SUB SLT ISZERO PUSH2 0x174C JUMPI PUSH2 0x174B PUSH2 0x1463 JUMP JUMPDEST JUMPDEST PUSH0 PUSH2 0x1759 DUP6 DUP3 DUP7 ADD PUSH2 0x1481 JUMP JUMPDEST SWAP3 POP POP PUSH1 0x20 PUSH2 0x176A DUP6 DUP3 DUP7 ADD PUSH2 0x1722 JUMP JUMPDEST SWAP2 POP POP SWAP3 POP SWAP3 SWAP1 POP JUMP JUMPDEST PUSH0 PUSH1 0x80 DUP3 ADD SWAP1 POP PUSH2 0x1787 PUSH0 DUP4 ADD DUP8 PUSH2 0x165C JUMP JUMPDEST PUSH2 0x1794 PUSH1 0x20 DUP4 ADD DUP7 PUSH2 0x1432 JUMP JUMPDEST PUSH2 0x17A1 PUSH1 0x40 DUP4 ADD DUP6 PUSH2 0x15AD JUMP JUMPDEST PUSH2 0x17AE PUSH1 0x60 DUP4 ADD DUP5 PUSH2 0x14DE JUMP JUMPDEST SWAP6 SWAP5 POP POP POP POP POP JUMP JUMPDEST PUSH2 0x17C0 DUP2 PUSH2 0x164B JUMP JUMPDEST DUP2 EQ PUSH2 0x17CA JUMPI PUSH0 DUP1 REVERT JUMPDEST POP JUMP JUMPDEST PUSH0 DUP2 CALLDATALOAD SWAP1 POP PUSH2 0x17DB DUP2 PUSH2 0x17B7 JUMP JUMPDEST SWAP3 SWAP2 POP POP JUMP JUMPDEST PUSH0 DUP1 PUSH0 PUSH1 0x60 DUP5 DUP7 SUB SLT ISZERO PUSH2 0x17F8 JUMPI PUSH2 0x17F7 PUSH2 0x1463 JUMP JUMPDEST JUMPDEST PUSH0 PUSH2 0x1805 DUP7 DUP3 DUP8 ADD PUSH2 0x17CD JUMP JUMPDEST SWAP4 POP POP PUSH1 0x20 PUSH2 0x1816 DUP7 DUP3 DUP8 ADD PUSH2 0x1481 JUMP JUMPDEST SWAP3 POP POP PUSH1 0x40 PUSH2 0x1827 DUP7 DUP3 DUP8 ADD PUSH2 0x1481 JUMP JUMPDEST SWAP2 POP POP SWAP3 POP SWAP3 POP SWAP3 JUMP JUMPDEST PUSH0 PUSH1 0x20 DUP3 DUP5 SUB SLT ISZERO PUSH2 0x1846 JUMPI PUSH2 0x1845 PUSH2 0x1463 JUMP JUMPDEST JUMPDEST PUSH0 PUSH2 0x1853 DUP5 DUP3 DUP6 ADD PUSH2 0x17CD JUMP JUMPDEST SWAP2 POP POP SWAP3 SWAP2 POP POP JUMP JUMPDEST PUSH0 PUSH1 0xA0 DUP3 ADD SWAP1 POP PUSH2 0x186F PUSH0 DUP4 ADD DUP9 PUSH2 0x1432 JUMP JUMPDEST PUSH2 0x187C PUSH1 0x20 DUP4 ADD DUP8 PUSH2 0x1432 JUMP JUMPDEST PUSH2 0x1889 PUSH1 0x40 DUP4 ADD DUP7 PUSH2 0x1432 JUMP JUMPDEST PUSH2 0x1896 PUSH1 0x60 DUP4 ADD DUP6 PUSH2 0x1432 JUMP JUMPDEST PUSH2 0x18A3 PUSH1 0x80 DUP4 ADD DUP5 PUSH2 0x1432 JUMP JUMPDEST SWAP7 SWAP6 POP POP POP POP POP POP JUMP JUMPDEST PUSH0 DUP1 REVERT JUMPDEST PUSH0 DUP1 REVERT JUMPDEST PUSH32 0x4E487B7100000000000000000000000000000000000000000000000000000000 PUSH0 MSTORE PUSH1 0x41 PUSH1 0x4 MSTORE PUSH1 0x24 PUSH0 REVERT JUMPDEST PUSH2 0x18EB DUP3 PUSH2 0x15E4 JUMP JUMPDEST DUP2 ADD DUP2 DUP2 LT PUSH8 0xFFFFFFFFFFFFFFFF DUP3 GT OR ISZERO PUSH2 0x190A JUMPI PUSH2 0x1909 PUSH2 0x18B5 JUMP JUMPDEST JUMPDEST DUP1 PUSH1 0x40 MSTORE POP POP POP JUMP JUMPDEST PUSH0 PUSH2 0x191C PUSH2 0x145A JUMP JUMPDEST SWAP1 POP PUSH2 0x1928 DUP3 DUP3 PUSH2 0x18E2 JUMP JUMPDEST SWAP2 SWAP1 POP JUMP JUMPDEST PUSH0 PUSH8 0xFFFFFFFFFFFFFFFF DUP3 GT ISZERO PUSH2 0x1947 JUMPI PUSH2 0x1946 PUSH2 0x18B5 JUMP JUMPDEST JUMPDEST PUSH2 0x1950 DUP3 PUSH2 0x15E4 JUMP JUMPDEST SWAP1 POP PUSH1 0x20 DUP2 ADD SWAP1 POP SWAP2 SWAP1 POP JUMP JUMPDEST DUP3 DUP2 DUP4 CALLDATACOPY PUSH0 DUP4 DUP4 ADD MSTORE POP POP POP JUMP JUMPDEST PUSH0 PUSH2 0x197D PUSH2 0x1978 DUP5 PUSH2 0x192D JUMP JUMPDEST PUSH2 0x1913 JUMP JUMPDEST SWAP1 POP DUP3 DUP2 MSTORE PUSH1 0x20 DUP2 ADD DUP5 DUP5 DUP5 ADD GT ISZERO PUSH2 0x1999 JUMPI PUSH2 0x1998 PUSH2 0x18B1 JUMP JUMPDEST JUMPDEST PUSH2 0x19A4 DUP5 DUP3 DUP6 PUSH2 0x195D JUMP JUMPDEST POP SWAP4 SWAP3 POP POP POP JUMP JUMPDEST PUSH0 DUP3 PUSH1 0x1F DUP4 ADD SLT PUSH2 0x19C0 JUMPI PUSH2 0x19BF PUSH2 0x18AD JUMP JUMPDEST JUMPDEST DUP2 CALLDATALOAD PUSH2 0x19D0 DUP5 DUP3 PUSH1 0x20 DUP7 ADD PUSH2 0x196B JUMP JUMPDEST SWAP2 POP POP SWAP3 SWAP2 POP POP JUMP JUMPDEST PUSH0 DUP1 PUSH0 DUP1 PUSH0 DUP1 PUSH0 PUSH1 0xE0 DUP9 DUP11 SUB SLT ISZERO PUSH2 0x19F4 JUMPI PUSH2 0x19F3 PUSH2 0x1463 JUMP JUMPDEST JUMPDEST PUSH0 PUSH2 0x1A01 DUP11 DUP3 DUP12 ADD PUSH2 0x1481 JUMP JUMPDEST SWAP8 POP POP PUSH1 0x20 PUSH2 0x1A12 DUP11 DUP3 DUP12 ADD PUSH2 0x1481 JUMP JUMPDEST SWAP7 POP POP PUSH1 0x40 PUSH2 0x1A23 DUP11 DUP3 DUP12 ADD PUSH2 0x1481 JUMP JUMPDEST SWAP6 POP POP PUSH1 0x60 PUSH2 0x1A34 DUP11 DUP3 DUP12 ADD PUSH2 0x1481 JUMP JUMPDEST SWAP5 POP POP PUSH1 0x80 PUSH2 0x1A45 DUP11 DUP3 DUP12 ADD PUSH2 0x1481 JUMP JUMPDEST SWAP4 POP POP PUSH1 0xA0 PUSH2 0x1A56 DUP11 DUP3 DUP12 ADD PUSH2 0x1722 JUMP JUMPDEST SWAP3 POP POP PUSH1 0xC0 DUP9 ADD CALLDATALOAD PUSH8 0xFFFFFFFFFFFFFFFF DUP2 GT ISZERO PUSH2 0x1A77 JUMPI PUSH2 0x1A76 PUSH2 0x1467 JUMP JUMPDEST JUMPDEST PUSH2 0x1A83 DUP11 DUP3 DUP12 ADD PUSH2 0x19AC JUMP JUMPDEST SWAP2 POP POP SWAP3 SWAP6 SWAP9 SWAP2 SWAP5 SWAP8 POP SWAP3 SWAP6 POP JUMP JUMPDEST PUSH0 PUSH1 0x60 DUP3 ADD SWAP1 POP PUSH2 0x1AA5 PUSH0 DUP4 ADD DUP7 PUSH2 0x1432 JUMP JUMPDEST PUSH2 0x1AB2 PUSH1 0x20 DUP4 ADD DUP6 PUSH2 0x1432 JUMP JUMPDEST PUSH2 0x1ABF PUSH1 0x40 DUP4 ADD DUP5 PUSH2 0x165C JUMP JUMPDEST SWAP5 SWAP4 POP POP POP POP JUMP JUMPDEST PUSH0 PUSH1 0x20 DUP3 ADD SWAP1 POP PUSH2 0x1ADA PUSH0 DUP4 ADD DUP5 PUSH2 0x165C JUMP JUMPDEST SWAP3 SWAP2 POP POP JUMP JUMPDEST PUSH0 DUP1 PUSH0 PUSH1 0x60 DUP5 DUP7 SUB SLT ISZERO PUSH2 0x1AF7 JUMPI PUSH2 0x1AF6 PUSH2 0x1463 JUMP JUMPDEST JUMPDEST PUSH0 PUSH2 0x1B04 DUP7 DUP3 DUP8 ADD PUSH2 0x1481 JUMP JUMPDEST SWAP4 POP POP PUSH1 0x20 PUSH2 0x1B15 DUP7 DUP3 DUP8 ADD PUSH2 0x1481 JUMP JUMPDEST SWAP3 POP POP PUSH1 0x40 PUSH2 0x1B26 DUP7 DUP3 DUP8 ADD PUSH2 0x1481 JUMP JUMPDEST SWAP2 POP POP SWAP3 POP SWAP3 POP SWAP3 JUMP JUMPDEST PUSH0 DUP2 SWAP1 POP SWAP2 SWAP1 POP JUMP JUMPDEST PUSH0 PUSH2 0x1B53 PUSH2 0x1B4E PUSH2 0x1B49 DUP5 PUSH2 0x162C JUMP JUMPDEST PUSH2 0x1B30 JUMP JUMPDEST PUSH2 0x162C JUMP JUMPDEST SWAP1 POP SWAP2 SWAP1 POP JUMP JUMPDEST PUSH0 PUSH2 0x1B64 DUP3 PUSH2 0x1B39 JUMP JUMPDEST SWAP1 POP SWAP2 SWAP1 POP JUMP JUMPDEST PUSH0 PUSH2 0x1B75 DUP3 PUSH2 0x1B5A JUMP JUMPDEST SWAP1 POP SWAP2 SWAP1 POP JUMP JUMPDEST PUSH2 0x1B85 DUP2 PUSH2 0x1B6B JUMP JUMPDEST DUP3 MSTORE POP POP JUMP JUMPDEST PUSH0 PUSH1 0x20 DUP3 ADD SWAP1 POP PUSH2 0x1B9E PUSH0 DUP4 ADD DUP5 PUSH2 0x1B7C JUMP JUMPDEST SWAP3 SWAP2 POP POP JUMP JUMPDEST PUSH0 PUSH1 0x40 DUP3 ADD SWAP1 POP PUSH2 0x1BB7 PUSH0 DUP4 ADD DUP6 PUSH2 0x15AD JUMP JUMPDEST DUP2 DUP2 SUB PUSH1 0x20 DUP4 ADD MSTORE PUSH2 0x1BC9 DUP2 DUP5 PUSH2 0x15F4 JUMP JUMPDEST SWAP1 POP SWAP4 SWAP3 POP POP POP JUMP JUMPDEST PUSH32 0x4E487B7100000000000000000000000000000000000000000000000000000000 PUSH0 MSTORE PUSH1 0x22 PUSH1 0x4 MSTORE PUSH1 0x24 PUSH0 REVERT JUMPDEST PUSH0 PUSH1 0x2 DUP3 DIV SWAP1 POP PUSH1 0x1 DUP3 AND DUP1 PUSH2 0x1C16 JUMPI PUSH1 0x7F DUP3 AND SWAP2 POP JUMPDEST PUSH1 0x20 DUP3 LT DUP2 SUB PUSH2 0x1C29 JUMPI PUSH2 0x1C28 PUSH2 0x1BD2 JUMP JUMPDEST JUMPDEST POP SWAP2 SWAP1 POP JUMP JUMPDEST PUSH32 0x4C6F7474657279206973206E6F74206163746976650000000000000000000000 PUSH0 DUP3 ADD MSTORE POP JUMP JUMPDEST PUSH0 PUSH2 0x1C63 PUSH1 0x15 DUP4 PUSH2 0x15C6 JUMP JUMPDEST SWAP2 POP PUSH2 0x1C6E DUP3 PUSH2 0x1C2F JUMP JUMPDEST PUSH1 0x20 DUP3 ADD SWAP1 POP SWAP2 SWAP1 POP JUMP JUMPDEST PUSH0 PUSH1 0x20 DUP3 ADD SWAP1 POP DUP2 DUP2 SUB PUSH0 DUP4 ADD MSTORE PUSH2 0x1C90 DUP2 PUSH2 0x1C57 JUMP JUMPDEST SWAP1 POP SWAP2 SWAP1 POP JUMP JUMPDEST PUSH32 0x4C6F74746572792068617320656E646564000000000000000000000000000000 PUSH0 DUP3 ADD MSTORE POP JUMP JUMPDEST PUSH0 PUSH2 0x1CCB PUSH1 0x11 DUP4 PUSH2 0x15C6 JUMP JUMPDEST SWAP2 POP PUSH2 0x1CD6 DUP3 PUSH2 0x1C97 JUMP JUMPDEST PUSH1 0x20 DUP3 ADD SWAP1 POP SWAP2 SWAP1 POP JUMP JUMPDEST PUSH0 PUSH1 0x20 DUP3 ADD SWAP1 POP DUP2 DUP2 SUB PUSH0 DUP4 ADD MSTORE PUSH2 0x1CF8 DUP2 PUSH2 0x1CBF JUMP JUMPDEST SWAP1 POP SWAP2 SWAP1 POP JUMP JUMPDEST PUSH32 0x4E487B7100000000000000000000000000000000000000000000000000000000 PUSH0 MSTORE PUSH1 0x11 PUSH1 0x4 MSTORE PUSH1 0x24 PUSH0 REVERT JUMPDEST PUSH0 PUSH2 0x1D36 DUP3 PUSH2 0x1429 JUMP JUMPDEST SWAP2 POP PUSH2 0x1D41 DUP4 PUSH2 0x1429 JUMP JUMPDEST SWAP3 POP DUP3 DUP3 ADD SWAP1 POP DUP1 DUP3 GT ISZERO PUSH2 0x1D59 JUMPI PUSH2 0x1D58 PUSH2 0x1CFF JUMP JUMPDEST JUMPDEST SWAP3 SWAP2 POP POP JUMP JUMPDEST PUSH32 0x4E6F7420656E6F756768207469636B65747320617661696C61626C6500000000 PUSH0 DUP3 ADD MSTORE POP JUMP JUMPDEST PUSH0 PUSH2 0x1D93 PUSH1 0x1C DUP4 PUSH2 0x15C6 JUMP JUMPDEST SWAP2 POP PUSH2 0x1D9E DUP3 PUSH2 0x1D5F JUMP JUMPDEST PUSH1 0x20 DUP3 ADD SWAP1 POP SWAP2 SWAP1 POP JUMP JUMPDEST PUSH0 PUSH1 0x20 DUP3 ADD SWAP1 POP DUP2 DUP2 SUB PUSH0 DUP4 ADD MSTORE PUSH2 0x1DC0 DUP2 PUSH2 0x1D87 JUMP JUMPDEST SWAP1 POP SWAP2 SWAP1 POP JUMP JUMPDEST PUSH0 PUSH2 0x1DD1 DUP3 PUSH2 0x1429 JUMP JUMPDEST SWAP2 POP PUSH2 0x1DDC DUP4 PUSH2 0x1429 JUMP JUMPDEST SWAP3 POP DUP3 DUP3 MUL PUSH2 0x1DEA DUP2 PUSH2 0x1429 JUMP JUMPDEST SWAP2 POP DUP3 DUP3 DIV DUP5 EQ DUP4 ISZERO OR PUSH2 0x1E01 JUMPI PUSH2 0x1E00 PUSH2 0x1CFF JUMP JUMPDEST JUMPDEST POP SWAP3 SWAP2 POP POP JUMP JUMPDEST PUSH0 PUSH1 0x60 DUP3 ADD SWAP1 POP PUSH2 0x1E1B PUSH0 DUP4 ADD DUP7 PUSH2 0x165C JUMP JUMPDEST PUSH2 0x1E28 PUSH1 0x20 DUP4 ADD DUP6 PUSH2 0x165C JUMP JUMPDEST PUSH2 0x1E35 PUSH1 0x40 DUP4 ADD DUP5 PUSH2 0x1432 JUMP JUMPDEST SWAP5 SWAP4 POP POP POP POP JUMP JUMPDEST PUSH2 0x1E46 DUP2 PUSH2 0x14D3 JUMP JUMPDEST DUP2 EQ PUSH2 0x1E50 JUMPI PUSH0 DUP1 REVERT JUMPDEST POP JUMP JUMPDEST PUSH0 DUP2 MLOAD SWAP1 POP PUSH2 0x1E61 DUP2 PUSH2 0x1E3D JUMP JUMPDEST SWAP3 SWAP2 POP POP JUMP JUMPDEST PUSH0 PUSH1 0x20 DUP3 DUP5 SUB SLT ISZERO PUSH2 0x1E7C JUMPI PUSH2 0x1E7B PUSH2 0x1463 JUMP JUMPDEST JUMPDEST PUSH0 PUSH2 0x1E89 DUP5 DUP3 DUP6 ADD PUSH2 0x1E53 JUMP JUMPDEST SWAP2 POP POP SWAP3 SWAP2 POP POP JUMP JUMPDEST PUSH0 PUSH2 0x1E9C DUP3 PUSH2 0x1429 JUMP JUMPDEST SWAP2 POP PUSH2 0x1EA7 DUP4 PUSH2 0x1429 JUMP JUMPDEST SWAP3 POP DUP3 DUP3 SUB SWAP1 POP DUP2 DUP2 GT ISZERO PUSH2 0x1EBF JUMPI PUSH2 0x1EBE PUSH2 0x1CFF JUMP JUMPDEST JUMPDEST SWAP3 SWAP2 POP POP JUMP JUMPDEST PUSH0 PUSH1 0x60 DUP3 ADD SWAP1 POP PUSH2 0x1ED8 PUSH0 DUP4 ADD DUP7 PUSH2 0x1432 JUMP JUMPDEST PUSH2 0x1EE5 PUSH1 0x20 DUP4 ADD DUP6 PUSH2 0x1432 JUMP JUMPDEST PUSH2 0x1EF2 PUSH1 0x40 DUP4 ADD DUP5 PUSH2 0x1432 JUMP JUMPDEST SWAP5 SWAP4 POP POP POP POP JUMP JUMPDEST PUSH32 0x4F6E6C7920746865206F776E65722063616E2063616C6C20746869732066756E PUSH0 DUP3 ADD MSTORE PUSH32 0x6374696F6E000000000000000000000000000000000000000000000000000000 PUSH1 0x20 DUP3 ADD MSTORE POP JUMP JUMPDEST PUSH0 PUSH2 0x1F54 PUSH1 0x25 DUP4 PUSH2 0x15C6 JUMP JUMPDEST SWAP2 POP PUSH2 0x1F5F DUP3 PUSH2 0x1EFA JUMP JUMPDEST PUSH1 0x40 DUP3 ADD SWAP1 POP SWAP2 SWAP1 POP JUMP JUMPDEST PUSH0 PUSH1 0x20 DUP3 ADD SWAP1 POP DUP2 DUP2 SUB PUSH0 DUP4 ADD MSTORE PUSH2 0x1F81 DUP2 PUSH2 0x1F48 JUMP JUMPDEST SWAP1 POP SWAP2 SWAP1 POP JUMP JUMPDEST PUSH32 0x496E76616C696420746F6B656E20616464726573730000000000000000000000 PUSH0 DUP3 ADD MSTORE POP JUMP JUMPDEST PUSH0 PUSH2 0x1FBC PUSH1 0x15 DUP4 PUSH2 0x15C6 JUMP JUMPDEST SWAP2 POP PUSH2 0x1FC7 DUP3 PUSH2 0x1F88 JUMP JUMPDEST PUSH1 0x20 DUP3 ADD SWAP1 POP SWAP2 SWAP1 POP JUMP JUMPDEST PUSH0 PUSH1 0x20 DUP3 ADD SWAP1 POP DUP2 DUP2 SUB PUSH0 DUP4 ADD MSTORE PUSH2 0x1FE9 DUP2 PUSH2 0x1FB0 JUMP JUMPDEST SWAP1 POP SWAP2 SWAP1 POP JUMP JUMPDEST PUSH32 0x4174206C65617374206F6E652077696E6E657220726571756972656400000000 PUSH0 DUP3 ADD MSTORE POP JUMP JUMPDEST PUSH0 PUSH2 0x2024 PUSH1 0x1C DUP4 PUSH2 0x15C6 JUMP JUMPDEST SWAP2 POP PUSH2 0x202F DUP3 PUSH2 0x1FF0 JUMP JUMPDEST PUSH1 0x20 DUP3 ADD SWAP1 POP SWAP2 SWAP1 POP JUMP JUMPDEST PUSH0 PUSH1 0x20 DUP3 ADD SWAP1 POP DUP2 DUP2 SUB PUSH0 DUP4 ADD MSTORE PUSH2 0x2051 DUP2 PUSH2 0x2018 JUMP JUMPDEST SWAP1 POP SWAP2 SWAP1 POP JUMP JUMPDEST PUSH32 0x4D696E2070617274696369706174696F6E2063616E6E6F742065786365656420 PUSH0 DUP3 ADD MSTORE PUSH32 0x3130300000000000000000000000000000000000000000000000000000000000 PUSH1 0x20 DUP3 ADD MSTORE POP JUMP JUMPDEST PUSH0 PUSH2 0x20B2 PUSH1 0x23 DUP4 PUSH2 0x15C6 JUMP JUMPDEST SWAP2 POP PUSH2 0x20BD DUP3 PUSH2 0x2058 JUMP JUMPDEST PUSH1 0x40 DUP3 ADD SWAP1 POP SWAP2 SWAP1 POP JUMP JUMPDEST PUSH0 PUSH1 0x20 DUP3 ADD SWAP1 POP DUP2 DUP2 SUB PUSH0 DUP4 ADD MSTORE PUSH2 0x20DF DUP2 PUSH2 0x20A6 JUMP JUMPDEST SWAP1 POP SWAP2 SWAP1 POP JUMP JUMPDEST PUSH0 PUSH2 0x20F0 DUP3 PUSH2 0x1429 JUMP JUMPDEST SWAP2 POP PUSH32 0xFFFFFFFFFFFFFFFFFFFFFFFFFFFFFFFFFFFFFFFFFFFFFFFFFFFFFFFFFFFFFFFF DUP3 SUB PUSH2 0x2122 JUMPI PUSH2 0x2121 PUSH2 0x1CFF JUMP JUMPDEST JUMPDEST PUSH1 0x1 DUP3 ADD SWAP1 POP SWAP2 SWAP1 POP JUMP JUMPDEST PUSH0 DUP2 SWAP1 POP DUP2 PUSH0 MSTORE PUSH1 0x20 PUSH0 KECCAK256 SWAP1 POP SWAP2 SWAP1 POP JUMP JUMPDEST PUSH0 PUSH1 0x20 PUSH1 0x1F DUP4 ADD DIV SWAP1 POP SWAP2 SWAP1 POP JUMP JUMPDEST PUSH0 DUP3 DUP3 SHL SWAP1 POP SWAP3 SWAP2 POP POP JUMP JUMPDEST PUSH0 PUSH1 0x8 DUP4 MUL PUSH2 0x2189 PUSH32 0xFFFFFFFFFFFFFFFFFFFFFFFFFFFFFFFFFFFFFFFFFFFFFFFFFFFFFFFFFFFFFFFF DUP3 PUSH2 0x214E JUMP JUMPDEST PUSH2 0x2193 DUP7 DUP4 PUSH2 0x214E JUMP JUMPDEST SWAP6 POP DUP1 NOT DUP5 AND SWAP4 POP DUP1 DUP7 AND DUP5 OR SWAP3 POP POP POP SWAP4 SWAP3 POP POP POP JUMP JUMPDEST PUSH0 PUSH2 0x21C5 PUSH2 0x21C0 PUSH2 0x21BB DUP5 PUSH2 0x1429 JUMP JUMPDEST PUSH2 0x1B30 JUMP JUMPDEST PUSH2 0x1429 JUMP JUMPDEST SWAP1 POP SWAP2 SWAP1 POP JUMP JUMPDEST PUSH0 DUP2 SWAP1 POP SWAP2 SWAP1 POP JUMP JUMPDEST PUSH2 0x21DE DUP4 PUSH2 0x21AB JUMP JUMPDEST PUSH2 0x21F2 PUSH2 0x21EA DUP3 PUSH2 0x21CC JUMP JUMPDEST DUP5 DUP5 SLOAD PUSH2 0x215A JUMP JUMPDEST DUP3 SSTORE POP POP POP POP JUMP JUMPDEST PUSH0 SWAP1 JUMP JUMPDEST PUSH2 0x2206 PUSH2 0x21FA JUMP JUMPDEST PUSH2 0x2211 DUP2 DUP5 DUP5 PUSH2 0x21D5 JUMP JUMPDEST POP POP POP JUMP JUMPDEST JUMPDEST DUP2 DUP2 LT ISZERO PUSH2 0x2234 JUMPI PUSH2 0x2229 PUSH0 DUP3 PUSH2 0x21FE JUMP JUMPDEST PUSH1 0x1 DUP2 ADD SWAP1 POP PUSH2 0x2217 JUMP JUMPDEST POP POP JUMP JUMPDEST PUSH1 0x1F DUP3 GT ISZERO PUSH2 0x2279 JUMPI PUSH2 0x224A DUP2 PUSH2 0x212D JUMP JUMPDEST PUSH2 0x2253 DUP5 PUSH2 0x213F JUMP JUMPDEST DUP2 ADD PUSH1 0x20 DUP6 LT ISZERO PUSH2 0x2262 JUMPI DUP2 SWAP1 POP JUMPDEST PUSH2 0x2276 PUSH2 0x226E DUP6 PUSH2 0x213F JUMP JUMPDEST DUP4 ADD DUP3 PUSH2 0x2216 JUMP JUMPDEST POP POP JUMPDEST POP POP POP JUMP JUMPDEST PUSH0 DUP3 DUP3 SHR SWAP1 POP SWAP3 SWAP2 POP POP JUMP JUMPDEST PUSH0 PUSH2 0x2299 PUSH0 NOT DUP5 PUSH1 0x8 MUL PUSH2 0x227E JUMP JUMPDEST NOT DUP1 DUP4 AND SWAP2 POP POP SWAP3 SWAP2 POP POP JUMP JUMPDEST PUSH0 PUSH2 0x22B1 DUP4 DUP4 PUSH2 0x228A JUMP JUMPDEST SWAP2 POP DUP3 PUSH1 0x2 MUL DUP3 OR SWAP1 POP SWAP3 SWAP2 POP POP JUMP JUMPDEST PUSH2 0x22CA DUP3 PUSH2 0x15BC JUMP JUMPDEST PUSH8 0xFFFFFFFFFFFFFFFF DUP2 GT ISZERO PUSH2 0x22E3 JUMPI PUSH2 0x22E2 PUSH2 0x18B5 JUMP JUMPDEST JUMPDEST PUSH2 0x22ED DUP3 SLOAD PUSH2 0x1BFF JUMP JUMPDEST PUSH2 0x22F8 DUP3 DUP3 DUP6 PUSH2 0x2238 JUMP JUMPDEST PUSH0 PUSH1 0x20 SWAP1 POP PUSH1 0x1F DUP4 GT PUSH1 0x1 DUP2 EQ PUSH2 0x2329 JUMPI PUSH0 DUP5 ISZERO PUSH2 0x2317 JUMPI DUP3 DUP8 ADD MLOAD SWAP1 POP JUMPDEST PUSH2 0x2321 DUP6 DUP3 PUSH2 0x22A6 JUMP JUMPDEST DUP7 SSTORE POP PUSH2 0x2388 JUMP JUMPDEST PUSH1 0x1F NOT DUP5 AND PUSH2 0x2337 DUP7 PUSH2 0x212D JUMP JUMPDEST PUSH0 JUMPDEST DUP3 DUP2 LT ISZERO PUSH2 0x235E JUMPI DUP5 DUP10 ADD MLOAD DUP3 SSTORE PUSH1 0x1 DUP3 ADD SWAP2 POP PUSH1 0x20 DUP6 ADD SWAP5 POP PUSH1 0x20 DUP2 ADD SWAP1 POP PUSH2 0x2339 JUMP JUMPDEST DUP7 DUP4 LT ISZERO PUSH2 0x237B JUMPI DUP5 DUP10 ADD MLOAD PUSH2 0x2377 PUSH1 0x1F DUP10 AND DUP3 PUSH2 0x228A JUMP JUMPDEST DUP4 SSTORE POP JUMPDEST PUSH1 0x1 PUSH1 0x2 DUP9 MUL ADD DUP9 SSTORE POP POP POP JUMPDEST POP POP POP POP POP POP JUMP JUMPDEST PUSH32 0x496E646578206F7574206F662072616E67650000000000000000000000000000 PUSH0 DUP3 ADD MSTORE POP JUMP JUMPDEST PUSH0 PUSH2 0x23C4 PUSH1 0x12 DUP4 PUSH2 0x15C6 JUMP JUMPDEST SWAP2 POP PUSH2 0x23CF DUP3 PUSH2 0x2390 JUMP JUMPDEST PUSH1 0x20 DUP3 ADD SWAP1 POP SWAP2 SWAP1 POP JUMP JUMPDEST PUSH0 PUSH1 0x20 DUP3 ADD SWAP1 POP DUP2 DUP2 SUB PUSH0 DUP4 ADD MSTORE PUSH2 0x23F1 DUP2 PUSH2 0x23B8 JUMP JUMPDEST SWAP1 POP SWAP2 SWAP1 POP JUMP JUMPDEST PUSH32 0x4E487B7100000000000000000000000000000000000000000000000000000000 PUSH0 MSTORE PUSH1 0x32 PUSH1 0x4 MSTORE PUSH1 0x24 PUSH0 REVERT JUMPDEST PUSH32 0x5469636B657420646F6573206E6F742065786973740000000000000000000000 PUSH0 DUP3 ADD MSTORE POP JUMP JUMPDEST PUSH0 PUSH2 0x2459 PUSH1 0x15 DUP4 PUSH2 0x15C6 JUMP JUMPDEST SWAP2 POP PUSH2 0x2464 DUP3 PUSH2 0x2425 JUMP JUMPDEST PUSH1 0x20 DUP3 ADD SWAP1 POP SWAP2 SWAP1 POP JUMP JUMPDEST PUSH0 PUSH1 0x20 DUP3 ADD SWAP1 POP DUP2 DUP2 SUB PUSH0 DUP4 ADD MSTORE PUSH2 0x2486 DUP2 PUSH2 0x244D JUMP JUMPDEST SWAP1 POP SWAP2 SWAP1 POP JUMP JUMPDEST PUSH32 0x4E6F7420746865207469636B6574206F776E6572000000000000000000000000 PUSH0 DUP3 ADD MSTORE POP JUMP JUMPDEST PUSH0 PUSH2 0x24C1 PUSH1 0x14 DUP4 PUSH2 0x15C6 JUMP JUMPDEST SWAP2 POP PUSH2 0x24CC DUP3 PUSH2 0x248D JUMP JUMPDEST PUSH1 0x20 DUP3 ADD SWAP1 POP SWAP2 SWAP1 POP JUMP JUMPDEST PUSH0 PUSH1 0x20 DUP3 ADD SWAP1 POP DUP2 DUP2 SUB PUSH0 DUP4 ADD MSTORE PUSH2 0x24EE DUP2 PUSH2 0x24B5 JUMP JUMPDEST SWAP1 POP SWAP2 SWAP1 POP JUMP JUMPDEST PUSH32 0x5175616E74697479206D69736D61746368000000000000000000000000000000 PUSH0 DUP3 ADD MSTORE POP JUMP JUMPDEST PUSH0 PUSH2 0x2529 PUSH1 0x11 DUP4 PUSH2 0x15C6 JUMP JUMPDEST SWAP2 POP PUSH2 0x2534 DUP3 PUSH2 0x24F5 JUMP JUMPDEST PUSH1 0x20 DUP3 ADD SWAP1 POP SWAP2 SWAP1 POP JUMP JUMPDEST PUSH0 PUSH1 0x20 DUP3 ADD SWAP1 POP DUP2 DUP2 SUB PUSH0 DUP4 ADD MSTORE PUSH2 0x2556 DUP2 PUSH2 0x251D JUMP JUMPDEST SWAP1 POP SWAP2 SWAP1 POP JUMP JUMPDEST PUSH32 0x52616E646F6D206E756D62657220616C72656164792072657665616C65640000 PUSH0 DUP3 ADD MSTORE POP JUMP JUMPDEST PUSH0 PUSH2 0x2591 PUSH1 0x1E DUP4 PUSH2 0x15C6 JUMP JUMPDEST SWAP2 POP PUSH2 0x259C DUP3 PUSH2 0x255D JUMP JUMPDEST PUSH1 0x20 DUP3 ADD SWAP1 POP SWAP2 SWAP1 POP JUMP JUMPDEST PUSH0 PUSH1 0x20 DUP3 ADD SWAP1 POP DUP2 DUP2 SUB PUSH0 DUP4 ADD MSTORE PUSH2 0x25BE DUP2 PUSH2 0x2585 JUMP JUMPDEST SWAP1 POP SWAP2 SWAP1 POP JUMP JUMPDEST PUSH0 DUP2 SWAP1 POP SWAP2 SWAP1 POP JUMP JUMPDEST PUSH2 0x25DF PUSH2 0x25DA DUP3 PUSH2 0x1429 JUMP JUMPDEST PUSH2 0x25C5 JUMP JUMPDEST DUP3 MSTORE POP POP JUMP JUMPDEST PUSH0 PUSH2 0x25F0 DUP3 DUP5 PUSH2 0x25CE JUMP JUMPDEST PUSH1 0x20 DUP3 ADD SWAP2 POP DUP2 SWAP1 POP SWAP3 SWAP2 POP POP JUMP JUMPDEST PUSH32 0x52616E646F6D206E756D62657220646F6573206E6F74206D6174636820636F6D PUSH0 DUP3 ADD MSTORE PUSH32 0x6D69746D656E7400000000000000000000000000000000000000000000000000 PUSH1 0x20 DUP3 ADD MSTORE POP JUMP JUMPDEST PUSH0 PUSH2 0x2659 PUSH1 0x27 DUP4 PUSH2 0x15C6 JUMP JUMPDEST SWAP2 POP PUSH2 0x2664 DUP3 PUSH2 0x25FF JUMP JUMPDEST PUSH1 0x40 DUP3 ADD SWAP1 POP SWAP2 SWAP1 POP JUMP JUMPDEST PUSH0 PUSH1 0x20 DUP3 ADD SWAP1 POP DUP2 DUP2 SUB PUSH0 DUP4 ADD MSTORE PUSH2 0x2686 DUP2 PUSH2 0x264D JUMP JUMPDEST SWAP1 POP SWAP2 SWAP1 POP JUMP INVALID LOG2 PUSH5 0x6970667358 0x22 SLT KECCAK256 PUSH28 0xA2DACE63247B970B494FADF760638E6C4A9C86A88765F1412CE0E8D2 0xC2 0xD1 0xCC PUSH5 0x736F6C6343 STOP ADDMOD BYTE STOP CALLER "
				},
				"gasEstimates": {
					"creation": {
						"codeDepositCost": "1984600",
						"executionCost": "infinite",
						"totalCost": "infinite"
					},
					"external": {
						"buyTicketTx(uint256,bytes32)": "infinite",
						"checkIfAddrTicketWon(address,uint256,uint256)": "infinite",
						"checkIfMyTicketWon(uint256,uint256)": "infinite",
						"createLottery(uint256,uint256,uint256,uint256,uint256,bytes32,string)": "infinite",
						"currentLotteryNo()": "2449",
						"getCurrentLotteryNo()": "2455",
						"getIthPurchasedTicketTx(uint256,uint256)": "infinite",
						"getIthWinningTicket(uint256,uint256)": "infinite",
						"getLotteryInfo(uint256)": "infinite",
						"getLotterySales(uint256)": "infinite",
						"getLotteryURL(uint256)": "infinite",
						"getNumPurchaseTxs(uint256)": "infinite",
						"getPaymentToken(uint256)": "2924",
						"lotteries(uint256)": "infinite",
						"lotteryTickets(uint256,uint256)": "infinite",
						"owner()": "2575",
						"revealRndNumberTx(uint256,uint256,uint256)": "infinite",
						"setPaymentToken(address)": "29189",
						"ticketPurchaseQuantities(uint256,uint256)": "infinite",
						"ticketToken()": "infinite",
						"withdrawTicketProceeds(uint256)": "2981",
						"withdrawTicketRefund(uint256,uint256)": "infinite"
					}
				},
				"methodIdentifiers": {
					"buyTicketTx(uint256,bytes32)": "27ea8dc2",
					"checkIfAddrTicketWon(address,uint256,uint256)": "5bddbaac",
					"checkIfMyTicketWon(uint256,uint256)": "12b349d5",
					"createLottery(uint256,uint256,uint256,uint256,uint256,bytes32,string)": "7df858db",
					"currentLotteryNo()": "0400f4d0",
					"getCurrentLotteryNo()": "5b7b3d58",
					"getIthPurchasedTicketTx(uint256,uint256)": "89b2acbc",
					"getIthWinningTicket(uint256,uint256)": "e54778b5",
					"getLotteryInfo(uint256)": "76b3c8a8",
					"getLotterySales(uint256)": "cc42a7c5",
					"getLotteryURL(uint256)": "dc969f22",
					"getNumPurchaseTxs(uint256)": "adc51cdb",
					"getPaymentToken(uint256)": "cdc2aebf",
					"lotteries(uint256)": "1398e076",
					"lotteryTickets(uint256,uint256)": "49c0de88",
					"owner()": "8da5cb5b",
					"revealRndNumberTx(uint256,uint256,uint256)": "9351e76b",
					"setPaymentToken(address)": "6a326ab1",
					"ticketPurchaseQuantities(uint256,uint256)": "73300f8a",
					"ticketToken()": "d5ed4d5a",
					"withdrawTicketProceeds(uint256)": "ad943d1e",
					"withdrawTicketRefund(uint256,uint256)": "687e47d8"
				}
			},
			"storageLayout": {
				"storage": [
					{
						"astId": 843,
						"contract": "CompanyLotteries.sol:CompanyLottery",
						"label": "ticketToken",
						"offset": 0,
						"slot": "0",
						"type": "t_contract(TicketToken)828"
					},
					{
						"astId": 845,
						"contract": "CompanyLotteries.sol:CompanyLottery",
						"label": "owner",
						"offset": 0,
						"slot": "1",
						"type": "t_address"
					},
					{
						"astId": 847,
						"contract": "CompanyLotteries.sol:CompanyLottery",
						"label": "currentLotteryNo",
						"offset": 0,
						"slot": "2",
						"type": "t_uint256"
					},
					{
						"astId": 852,
						"contract": "CompanyLotteries.sol:CompanyLottery",
						"label": "lotteries",
						"offset": 0,
						"slot": "3",
						"type": "t_mapping(t_uint256,t_struct(LotteryInfo)1437_storage)"
					},
					{
						"astId": 858,
						"contract": "CompanyLotteries.sol:CompanyLottery",
						"label": "lotteryTickets",
						"offset": 0,
						"slot": "4",
						"type": "t_mapping(t_uint256,t_array(t_struct(TicketInfo)1446_storage)dyn_storage)"
					},
					{
						"astId": 864,
						"contract": "CompanyLotteries.sol:CompanyLottery",
						"label": "ticketPurchaseQuantities",
						"offset": 0,
						"slot": "5",
						"type": "t_mapping(t_uint256,t_mapping(t_uint256,t_uint256))"
					}
				],
				"types": {
					"t_address": {
						"encoding": "inplace",
						"label": "address",
						"numberOfBytes": "20"
					},
					"t_array(t_struct(TicketInfo)1446_storage)dyn_storage": {
						"base": "t_struct(TicketInfo)1446_storage",
						"encoding": "dynamic_array",
						"label": "struct LotteryStructs.TicketInfo[]",
						"numberOfBytes": "32"
					},
					"t_bool": {
						"encoding": "inplace",
						"label": "bool",
						"numberOfBytes": "1"
					},
					"t_bytes32": {
						"encoding": "inplace",
						"label": "bytes32",
						"numberOfBytes": "32"
					},
					"t_contract(TicketToken)828": {
						"encoding": "inplace",
						"label": "contract TicketToken",
						"numberOfBytes": "20"
					},
					"t_enum(LotteryState)1415": {
						"encoding": "inplace",
						"label": "enum LotteryStructs.LotteryState",
						"numberOfBytes": "1"
					},
					"t_mapping(t_uint256,t_array(t_struct(TicketInfo)1446_storage)dyn_storage)": {
						"encoding": "mapping",
						"key": "t_uint256",
						"label": "mapping(uint256 => struct LotteryStructs.TicketInfo[])",
						"numberOfBytes": "32",
						"value": "t_array(t_struct(TicketInfo)1446_storage)dyn_storage"
					},
					"t_mapping(t_uint256,t_mapping(t_uint256,t_uint256))": {
						"encoding": "mapping",
						"key": "t_uint256",
						"label": "mapping(uint256 => mapping(uint256 => uint256))",
						"numberOfBytes": "32",
						"value": "t_mapping(t_uint256,t_uint256)"
					},
					"t_mapping(t_uint256,t_struct(LotteryInfo)1437_storage)": {
						"encoding": "mapping",
						"key": "t_uint256",
						"label": "mapping(uint256 => struct LotteryStructs.LotteryInfo)",
						"numberOfBytes": "32",
						"value": "t_struct(LotteryInfo)1437_storage"
					},
					"t_mapping(t_uint256,t_uint256)": {
						"encoding": "mapping",
						"key": "t_uint256",
						"label": "mapping(uint256 => uint256)",
						"numberOfBytes": "32",
						"value": "t_uint256"
					},
					"t_string_storage": {
						"encoding": "bytes",
						"label": "string",
						"numberOfBytes": "32"
					},
					"t_struct(LotteryInfo)1437_storage": {
						"encoding": "inplace",
						"label": "struct LotteryStructs.LotteryInfo",
						"members": [
							{
								"astId": 1417,
								"contract": "CompanyLotteries.sol:CompanyLottery",
								"label": "unixbeg",
								"offset": 0,
								"slot": "0",
								"type": "t_uint256"
							},
							{
								"astId": 1419,
								"contract": "CompanyLotteries.sol:CompanyLottery",
								"label": "nooftickets",
								"offset": 0,
								"slot": "1",
								"type": "t_uint256"
							},
							{
								"astId": 1421,
								"contract": "CompanyLotteries.sol:CompanyLottery",
								"label": "noofwinners",
								"offset": 0,
								"slot": "2",
								"type": "t_uint256"
							},
							{
								"astId": 1423,
								"contract": "CompanyLotteries.sol:CompanyLottery",
								"label": "minpercentage",
								"offset": 0,
								"slot": "3",
								"type": "t_uint256"
							},
							{
								"astId": 1425,
								"contract": "CompanyLotteries.sol:CompanyLottery",
								"label": "ticketprice",
								"offset": 0,
								"slot": "4",
								"type": "t_uint256"
							},
							{
								"astId": 1427,
								"contract": "CompanyLotteries.sol:CompanyLottery",
								"label": "soldTickets",
								"offset": 0,
								"slot": "5",
								"type": "t_uint256"
							},
							{
								"astId": 1430,
								"contract": "CompanyLotteries.sol:CompanyLottery",
								"label": "state",
								"offset": 0,
								"slot": "6",
								"type": "t_enum(LotteryState)1415"
							},
							{
								"astId": 1432,
								"contract": "CompanyLotteries.sol:CompanyLottery",
								"label": "htmlhash",
								"offset": 0,
								"slot": "7",
								"type": "t_bytes32"
							},
							{
								"astId": 1434,
								"contract": "CompanyLotteries.sol:CompanyLottery",
								"label": "url",
								"offset": 0,
								"slot": "8",
								"type": "t_string_storage"
							},
							{
								"astId": 1436,
								"contract": "CompanyLotteries.sol:CompanyLottery",
								"label": "paymentToken",
								"offset": 0,
								"slot": "9",
								"type": "t_address"
							}
						],
						"numberOfBytes": "320"
					},
					"t_struct(TicketInfo)1446_storage": {
						"encoding": "inplace",
						"label": "struct LotteryStructs.TicketInfo",
						"members": [
							{
								"astId": 1439,
								"contract": "CompanyLotteries.sol:CompanyLottery",
								"label": "participant",
								"offset": 0,
								"slot": "0",
								"type": "t_address"
							},
							{
								"astId": 1441,
								"contract": "CompanyLotteries.sol:CompanyLottery",
								"label": "quantity",
								"offset": 0,
								"slot": "1",
								"type": "t_uint256"
							},
							{
								"astId": 1443,
								"contract": "CompanyLotteries.sol:CompanyLottery",
								"label": "hash_rnd_number",
								"offset": 0,
								"slot": "2",
								"type": "t_bytes32"
							},
							{
								"astId": 1445,
								"contract": "CompanyLotteries.sol:CompanyLottery",
								"label": "revealed",
								"offset": 0,
								"slot": "3",
								"type": "t_bool"
							}
						],
						"numberOfBytes": "128"
					},
					"t_uint256": {
						"encoding": "inplace",
						"label": "uint256",
						"numberOfBytes": "32"
					}
				}
			},
			"userdoc": {
				"kind": "user",
				"methods": {},
				"version": 1
			}
		}
	}
}