{
	"data": {
		"bytecode": {
			"linkReferences": {
				"remix_tests.sol": {
					"Assert": [
						{
							"length": 20,
							"start": 913
						},
						{
							"length": 20,
							"start": 1469
						},
						{
							"length": 20,
							"start": 2110
						},
						{
							"length": 20,
							"start": 2665
						},
						{
							"length": 20,
							"start": 3109
						},
						{
							"length": 20,
							"start": 3917
						},
						{
							"length": 20,
							"start": 4562
						}
					]
				}
			},
			"object": "6080604052348015600e575f80fd5b506123dd8061001c5f395ff3fe608060405234801561000f575f80fd5b506004361061009c575f3560e01c806398237eae1161006457806398237eae146100d25780639d5a7766146100dc578063ac1717b0146100e6578063b9edb1af14610104578063c84d676a146101225761009c565b8063096241db146100a05780635b20bfbd146100aa57806371fb9725146100b457806378d5cc8f146100be5780637fea0d4b146100c8575b5f80fd5b6100a8610140565b005b6100b26103f3565b005b6100bc61061e565b005b6100c661089f565b005b6100d0610c88565b005b6100da610d72565b005b6100e4610fb0565b005b6100ee611233565b6040516100fb91906112ec565b60405180910390f35b61010c611258565b60405161011991906112ec565b60405180910390f35b61012a61127d565b6040516101379190611360565b60405180910390f35b5f6040518060400160405280601081526020017f75736572315f636f6d6d69746d656e740000000000000000000000000000000081525090505f61303990505f82826040516020016101939291906113f4565b6040516020818303038152906040528051906020012090505f8054906101000a900473ffffffffffffffffffffffffffffffffffffffff1673ffffffffffffffffffffffffffffffffffffffff1663e522bf1d826040518263ffffffff1660e01b81526004016102039190611433565b5f604051808303815f87803b15801561021a575f80fd5b505af115801561022c573d5f803e3d5ffd5b505050505f8054906101000a900473ffffffffffffffffffffffffffffffffffffffff1673ffffffffffffffffffffffffffffffffffffffff16633a92b2c384846040518363ffffffff1660e01b815260040161028a9291906114b3565b5f604051808303815f87803b1580156102a1575f80fd5b505af11580156102b3573d5f803e3d5ffd5b505050505f805f9054906101000a900473ffffffffffffffffffffffffffffffffffffffff1673ffffffffffffffffffffffffffffffffffffffff1663e711a81260015f9054906101000a900473ffffffffffffffffffffffffffffffffffffffff166040518263ffffffff1660e01b815260040161033291906112ec565b602060405180830381865afa15801561034d573d5f803e3d5ffd5b505050506040513d601f19601f82011682018060405250810190610371919061151a565b905073__$acbfb1c35000d78352310b16a054a6b106$__63767392b38260016040518363ffffffff1660e01b81526004016103ad9291906115d4565b602060405180830381865af41580156103c8573d5f803e3d5ffd5b505050506040513d601f19601f820116820180604052508101906103ec919061151a565b5050505050565b5f6040518060400160405280601081526020017f75736572315f636f6d6d69746d656e740000000000000000000000000000000081525090505f61303990505f82826040516020016104469291906113f4565b6040516020818303038152906040528051906020012090505f8054906101000a900473ffffffffffffffffffffffffffffffffffffffff1673ffffffffffffffffffffffffffffffffffffffff1663e522bf1d826040518263ffffffff1660e01b81526004016104b69190611433565b5f604051808303815f87803b1580156104cd575f80fd5b505af11580156104df573d5f803e3d5ffd5b505050505f805f9054906101000a900473ffffffffffffffffffffffffffffffffffffffff1673ffffffffffffffffffffffffffffffffffffffff1663e711a81260015f9054906101000a900473ffffffffffffffffffffffffffffffffffffffff166040518263ffffffff1660e01b815260040161055e91906112ec565b602060405180830381865afa158015610579573d5f803e3d5ffd5b505050506040513d601f19601f8201168201806040525081019061059d919061151a565b905073__$acbfb1c35000d78352310b16a054a6b106$__63767392b3825f6040518363ffffffff1660e01b81526004016105d892919061167e565b602060405180830381865af41580156105f3573d5f803e3d5ffd5b505050506040513d601f19601f82011682018060405250810190610617919061151a565b5050505050565b5f6040518060400160405280601081526020017f75736572325f636f6d6d69746d656e740000000000000000000000000000000081525090505f61d43190505f82826040516020016106719291906113f4565b6040516020818303038152906040528051906020012090505f8054906101000a900473ffffffffffffffffffffffffffffffffffffffff1673ffffffffffffffffffffffffffffffffffffffff1663e522bf1d826040518263ffffffff1660e01b81526004016106e19190611433565b5f604051808303815f87803b1580156106f8575f80fd5b505af115801561070a573d5f803e3d5ffd5b505050505f8054906101000a900473ffffffffffffffffffffffffffffffffffffffff1673ffffffffffffffffffffffffffffffffffffffff16633a92b2c384846040518363ffffffff1660e01b81526004016107689291906114b3565b5f604051808303815f87803b15801561077f575f80fd5b505af1158015610791573d5f803e3d5ffd5b505050505f808054906101000a900473ffffffffffffffffffffffffffffffffffffffff1673ffffffffffffffffffffffffffffffffffffffff1663e522bf1d836040518263ffffffff1660e01b81526004016107ee9190611433565b5f604051808303815f87803b158015610805575f80fd5b505af1925050508015610816575060015b1561082057600190505b73__$acbfb1c35000d78352310b16a054a6b106$__63767392b3825f6040518363ffffffff1660e01b8152600401610859929190611728565b602060405180830381865af4158015610874573d5f803e3d5ffd5b505050506040513d601f19601f82011682018060405250810190610898919061151a565b5050505050565b5f6040518060400160405280601081526020017f75736572325f636f6d6d69746d656e740000000000000000000000000000000081525090505f61d43190505f82826040516020016108f29291906113f4565b6040516020818303038152906040528051906020012090505f8054906101000a900473ffffffffffffffffffffffffffffffffffffffff1673ffffffffffffffffffffffffffffffffffffffff1663e522bf1d826040518263ffffffff1660e01b81526004016109629190611433565b5f604051808303815f87803b158015610979575f80fd5b505af115801561098b573d5f803e3d5ffd5b505050505f805f9054906101000a900473ffffffffffffffffffffffffffffffffffffffff1673ffffffffffffffffffffffffffffffffffffffff1663e711a81260025f9054906101000a900473ffffffffffffffffffffffffffffffffffffffff166040518263ffffffff1660e01b8152600401610a0a91906112ec565b602060405180830381865afa158015610a25573d5f803e3d5ffd5b505050506040513d601f19601f82011682018060405250810190610a49919061151a565b905073__$acbfb1c35000d78352310b16a054a6b106$__63767392b3825f6040518363ffffffff1660e01b8152600401610a849291906117d2565b602060405180830381865af4158015610a9f573d5f803e3d5ffd5b505050506040513d601f19601f82011682018060405250810190610ac3919061151a565b505f8054906101000a900473ffffffffffffffffffffffffffffffffffffffff1673ffffffffffffffffffffffffffffffffffffffff16633a92b2c385856040518363ffffffff1660e01b8152600401610b1e9291906114b3565b5f604051808303815f87803b158015610b35575f80fd5b505af1158015610b47573d5f803e3d5ffd5b505050505f805f9054906101000a900473ffffffffffffffffffffffffffffffffffffffff1673ffffffffffffffffffffffffffffffffffffffff1663e711a81260025f9054906101000a900473ffffffffffffffffffffffffffffffffffffffff166040518263ffffffff1660e01b8152600401610bc691906112ec565b602060405180830381865afa158015610be1573d5f803e3d5ffd5b505050506040513d601f19601f82011682018060405250810190610c05919061151a565b905073__$acbfb1c35000d78352310b16a054a6b106$__63767392b38260016040518363ffffffff1660e01b8152600401610c4192919061187c565b602060405180830381865af4158015610c5c573d5f803e3d5ffd5b505050506040513d601f19601f82011682018060405250810190610c80919061151a565b505050505050565b604051610c94906112a0565b604051809103905ff080158015610cad573d5f803e3d5ffd5b505f806101000a81548173ffffffffffffffffffffffffffffffffffffffff021916908373ffffffffffffffffffffffffffffffffffffffff16021790555061012360015f6101000a81548173ffffffffffffffffffffffffffffffffffffffff021916908373ffffffffffffffffffffffffffffffffffffffff16021790555061045660025f6101000a81548173ffffffffffffffffffffffffffffffffffffffff021916908373ffffffffffffffffffffffffffffffffffffffff160217905550565b5f6040518060400160405280601081526020017f75736572315f636f6d6d69746d656e740000000000000000000000000000000081525090505f61303990505f8282604051602001610dc59291906113f4565b6040516020818303038152906040528051906020012090505f8054906101000a900473ffffffffffffffffffffffffffffffffffffffff1673ffffffffffffffffffffffffffffffffffffffff1663e522bf1d826040518263ffffffff1660e01b8152600401610e359190611433565b5f604051808303815f87803b158015610e4c575f80fd5b505af1158015610e5e573d5f803e3d5ffd5b505050505f6040518060400160405280600b81526020017f77726f6e675f76616c756500000000000000000000000000000000000000000081525090505f6201093290505f808054906101000a900473ffffffffffffffffffffffffffffffffffffffff1673ffffffffffffffffffffffffffffffffffffffff16633a92b2c384846040518363ffffffff1660e01b8152600401610efd9291906114b3565b5f604051808303815f87803b158015610f14575f80fd5b505af1925050508015610f25575060015b15610f2f57600190505b73__$acbfb1c35000d78352310b16a054a6b106$__63767392b3825f6040518363ffffffff1660e01b8152600401610f68929190611926565b602060405180830381865af4158015610f83573d5f803e3d5ffd5b505050506040513d601f19601f82011682018060405250810190610fa7919061151a565b50505050505050565b5f6040518060400160405280601081526020017f75736572315f636f6d6d69746d656e740000000000000000000000000000000081525090505f61303990505f82826040516020016110039291906113f4565b6040516020818303038152906040528051906020012090505f8054906101000a900473ffffffffffffffffffffffffffffffffffffffff1673ffffffffffffffffffffffffffffffffffffffff1663e522bf1d826040518263ffffffff1660e01b81526004016110739190611433565b5f604051808303815f87803b15801561108a575f80fd5b505af115801561109c573d5f803e3d5ffd5b505050505f8054906101000a900473ffffffffffffffffffffffffffffffffffffffff1673ffffffffffffffffffffffffffffffffffffffff16633a92b2c384846040518363ffffffff1660e01b81526004016110fa9291906114b3565b5f604051808303815f87803b158015611111575f80fd5b505af1158015611123573d5f803e3d5ffd5b505050505f808054906101000a900473ffffffffffffffffffffffffffffffffffffffff1673ffffffffffffffffffffffffffffffffffffffff16633a92b2c385856040518363ffffffff1660e01b81526004016111829291906114b3565b5f604051808303815f87803b158015611199575f80fd5b505af19250505080156111aa575060015b156111b457600190505b73__$acbfb1c35000d78352310b16a054a6b106$__63767392b3825f6040518363ffffffff1660e01b81526004016111ed9291906119d0565b602060405180830381865af4158015611208573d5f803e3d5ffd5b505050506040513d601f19601f8201168201806040525081019061122c919061151a565b5050505050565b60015f9054906101000a900473ffffffffffffffffffffffffffffffffffffffff1681565b60025f9054906101000a900473ffffffffffffffffffffffffffffffffffffffff1681565b5f8054906101000a900473ffffffffffffffffffffffffffffffffffffffff1681565b61099d80611a0b83390190565b5f73ffffffffffffffffffffffffffffffffffffffff82169050919050565b5f6112d6826112ad565b9050919050565b6112e6816112cc565b82525050565b5f6020820190506112ff5f8301846112dd565b92915050565b5f819050919050565b5f61132861132361131e846112ad565b611305565b6112ad565b9050919050565b5f6113398261130e565b9050919050565b5f61134a8261132f565b9050919050565b61135a81611340565b82525050565b5f6020820190506113735f830184611351565b92915050565b5f81519050919050565b5f81905092915050565b8281835e5f83830152505050565b5f6113a582611379565b6113af8185611383565b93506113bf81856020860161138d565b80840191505092915050565b5f819050919050565b5f819050919050565b6113ee6113e9826113cb565b6113d4565b82525050565b5f6113ff828561139b565b915061140b82846113dd565b6020820191508190509392505050565b5f819050919050565b61142d8161141b565b82525050565b5f6020820190506114465f830184611424565b92915050565b5f82825260208201905092915050565b5f601f19601f8301169050919050565b5f61147682611379565b611480818561144c565b935061149081856020860161138d565b6114998161145c565b840191505092915050565b6114ad816113cb565b82525050565b5f6040820190508181035f8301526114cb818561146c565b90506114da60208301846114a4565b9392505050565b5f80fd5b5f8115159050919050565b6114f9816114e5565b8114611503575f80fd5b50565b5f81519050611514816114f0565b92915050565b5f6020828403121561152f5761152e6114e1565b5b5f61153c84828501611506565b91505092915050565b61154e816114e5565b82525050565b5f82825260208201905092915050565b7f55736572277320636f6d6d69746d656e742073686f756c6420626520726576655f8201527f616c65642061667465722072657665616c696e67000000000000000000000000602082015250565b5f6115be603483611554565b91506115c982611564565b604082019050919050565b5f6060820190506115e75f830185611545565b6115f46020830184611545565b8181036040830152611605816115b2565b90509392505050565b7f55736572277320636f6d6d69746d656e742073686f756c64206e6f74206265205f8201527f72657665616c6564207965740000000000000000000000000000000000000000602082015250565b5f611668602c83611554565b91506116738261160e565b604082019050919050565b5f6060820190506116915f830185611545565b61169e6020830184611545565b81810360408301526116af8161165c565b90509392505050565b7f43616e6e6f74206d616b652061206e657720636f6d6d69746d656e74206166745f8201527f65722072657665616c696e670000000000000000000000000000000000000000602082015250565b5f611712602c83611554565b915061171d826116b8565b604082019050919050565b5f60608201905061173b5f830185611545565b6117486020830184611545565b818103604083015261175981611706565b90509392505050565b7f5573657232277320636f6d6d69746d656e742073686f756c64206e6f742062655f8201527f2072657665616c656420696e697469616c6c7900000000000000000000000000602082015250565b5f6117bc603383611554565b91506117c782611762565b604082019050919050565b5f6060820190506117e55f830185611545565b6117f26020830184611545565b8181036040830152611803816117b0565b90509392505050565b7f5573657232277320636f6d6d69746d656e742073686f756c64206265207265765f8201527f65616c65642061667465722072657665616c696e670000000000000000000000602082015250565b5f611866603583611554565b91506118718261180c565b604082019050919050565b5f60608201905061188f5f830185611545565b61189c6020830184611545565b81810360408301526118ad8161185a565b90509392505050565b7f52657665616c696e67207769746820696e636f72726563742076616c7565206f5f8201527f72206e6f6e63652073686f756c64206661696c00000000000000000000000000602082015250565b5f611910603383611554565b915061191b826118b6565b604082019050919050565b5f6060820190506119395f830185611545565b6119466020830184611545565b818103604083015261195781611904565b90509392505050565b7f52657665616c696e67207468652073616d6520636f6d6d69746d656e742074775f8201527f6963652073686f756c64206661696c0000000000000000000000000000000000602082015250565b5f6119ba602f83611554565b91506119c582611960565b604082019050919050565b5f6060820190506119e35f830185611545565b6119f06020830184611545565b8181036040830152611a01816119ae565b9050939250505056fe6080604052348015600e575f80fd5b506109818061001c5f395ff3fe608060405234801561000f575f80fd5b506004361061004a575f3560e01c80633a92b2c31461004e578063e522bf1d1461006a578063e711a81214610086578063e8fcf723146100b6575b5f80fd5b6100686004803603810190610063919061055c565b6100e7565b005b610084600480360381019061007f91906105e9565b610251565b005b6100a0600480360381019061009b919061066e565b61035d565b6040516100ad91906106b3565b60405180910390f35b6100d060048036038101906100cb919061066e565b6103b1565b6040516100de9291906106db565b60405180910390f35b5f805f3373ffffffffffffffffffffffffffffffffffffffff1673ffffffffffffffffffffffffffffffffffffffff1681526020019081526020015f209050806001015f9054906101000a900460ff1615610177576040517f08c379a000000000000000000000000000000000000000000000000000000000815260040161016e9061075c565b60405180910390fd5b5f801b815f0154036101be576040517f08c379a00000000000000000000000000000000000000000000000000000000081526004016101b5906107c4565b60405180910390fd5b5f83836040516020016101d2929190610854565b604051602081830303815290604052805190602001209050815f0154811461022f576040517f08c379a0000000000000000000000000000000000000000000000000000000008152600401610226906108c5565b60405180910390fd5b6001826001015f6101000a81548160ff02191690831515021790555050505050565b5f803373ffffffffffffffffffffffffffffffffffffffff1673ffffffffffffffffffffffffffffffffffffffff1681526020019081526020015f206001015f9054906101000a900460ff16156102dd576040517f08c379a00000000000000000000000000000000000000000000000000000000081526004016102d49061092d565b60405180910390fd5b60405180604001604052808281526020015f15158152505f803373ffffffffffffffffffffffffffffffffffffffff1673ffffffffffffffffffffffffffffffffffffffff1681526020019081526020015f205f820151815f01556020820151816001015f6101000a81548160ff02191690831515021790555090505050565b5f805f8373ffffffffffffffffffffffffffffffffffffffff1673ffffffffffffffffffffffffffffffffffffffff1681526020019081526020015f206001015f9054906101000a900460ff169050919050565b5f602052805f5260405f205f91509050805f015490806001015f9054906101000a900460ff16905082565b5f604051905090565b5f80fd5b5f80fd5b5f80fd5b5f80fd5b5f601f19601f8301169050919050565b7f4e487b71000000000000000000000000000000000000000000000000000000005f52604160045260245ffd5b61043b826103f5565b810181811067ffffffffffffffff8211171561045a57610459610405565b5b80604052505050565b5f61046c6103dc565b90506104788282610432565b919050565b5f67ffffffffffffffff82111561049757610496610405565b5b6104a0826103f5565b9050602081019050919050565b828183375f83830152505050565b5f6104cd6104c88461047d565b610463565b9050828152602081018484840111156104e9576104e86103f1565b5b6104f48482856104ad565b509392505050565b5f82601f8301126105105761050f6103ed565b5b81356105208482602086016104bb565b91505092915050565b5f819050919050565b61053b81610529565b8114610545575f80fd5b50565b5f8135905061055681610532565b92915050565b5f8060408385031215610572576105716103e5565b5b5f83013567ffffffffffffffff81111561058f5761058e6103e9565b5b61059b858286016104fc565b92505060206105ac85828601610548565b9150509250929050565b5f819050919050565b6105c8816105b6565b81146105d2575f80fd5b50565b5f813590506105e3816105bf565b92915050565b5f602082840312156105fe576105fd6103e5565b5b5f61060b848285016105d5565b91505092915050565b5f73ffffffffffffffffffffffffffffffffffffffff82169050919050565b5f61063d82610614565b9050919050565b61064d81610633565b8114610657575f80fd5b50565b5f8135905061066881610644565b92915050565b5f60208284031215610683576106826103e5565b5b5f6106908482850161065a565b91505092915050565b5f8115159050919050565b6106ad81610699565b82525050565b5f6020820190506106c65f8301846106a4565b92915050565b6106d5816105b6565b82525050565b5f6040820190506106ee5f8301856106cc565b6106fb60208301846106a4565b9392505050565b5f82825260208201905092915050565b7f436f6d6d69746d656e7420616c72656164792072657665616c65642e000000005f82015250565b5f610746601c83610702565b915061075182610712565b602082019050919050565b5f6020820190508181035f8301526107738161073a565b9050919050565b7f4e6f20636f6d6d69746d656e74206d6164652e000000000000000000000000005f82015250565b5f6107ae601383610702565b91506107b98261077a565b602082019050919050565b5f6020820190508181035f8301526107db816107a2565b9050919050565b5f81519050919050565b5f81905092915050565b8281835e5f83830152505050565b5f61080e826107e2565b61081881856107ec565b93506108288185602086016107f6565b80840191505092915050565b5f819050919050565b61084e61084982610529565b610834565b82525050565b5f61085f8285610804565b915061086b828461083d565b6020820191508190509392505050565b7f436f6d6d69746d656e7420646f6573206e6f74206d617463682e0000000000005f82015250565b5f6108af601a83610702565b91506108ba8261087b565b602082019050919050565b5f6020820190508181035f8301526108dc816108a3565b9050919050565b7f416c726561647920636f6d6d697474656420616e642072657665616c65642e005f82015250565b5f610917601f83610702565b9150610922826108e3565b602082019050919050565b5f6020820190508181035f8301526109448161090b565b905091905056fea2646970667358221220e7a125a75a5b96af6f141bd79a2860ca6cdd7236e8cbbcd10e0900dbca76d57064736f6c634300081a0033a26469706673582212204bf0654105563053e70fe8e5f6884053f9f69b2455c2ee7329215ff9b9bfcbab64736f6c634300081a0033",
			"opcodes": "PUSH1 0x80 PUSH1 0x40 MSTORE CALLVALUE DUP1 ISZERO PUSH1 0xE JUMPI PUSH0 DUP1 REVERT JUMPDEST POP PUSH2 0x23DD DUP1 PUSH2 0x1C PUSH0 CODECOPY PUSH0 RETURN INVALID PUSH1 0x80 PUSH1 0x40 MSTORE CALLVALUE DUP1 ISZERO PUSH2 0xF JUMPI PUSH0 DUP1 REVERT JUMPDEST POP PUSH1 0x4 CALLDATASIZE LT PUSH2 0x9C JUMPI PUSH0 CALLDATALOAD PUSH1 0xE0 SHR DUP1 PUSH4 0x98237EAE GT PUSH2 0x64 JUMPI DUP1 PUSH4 0x98237EAE EQ PUSH2 0xD2 JUMPI DUP1 PUSH4 0x9D5A7766 EQ PUSH2 0xDC JUMPI DUP1 PUSH4 0xAC1717B0 EQ PUSH2 0xE6 JUMPI DUP1 PUSH4 0xB9EDB1AF EQ PUSH2 0x104 JUMPI DUP1 PUSH4 0xC84D676A EQ PUSH2 0x122 JUMPI PUSH2 0x9C JUMP JUMPDEST DUP1 PUSH4 0x96241DB EQ PUSH2 0xA0 JUMPI DUP1 PUSH4 0x5B20BFBD EQ PUSH2 0xAA JUMPI DUP1 PUSH4 0x71FB9725 EQ PUSH2 0xB4 JUMPI DUP1 PUSH4 0x78D5CC8F EQ PUSH2 0xBE JUMPI DUP1 PUSH4 0x7FEA0D4B EQ PUSH2 0xC8 JUMPI JUMPDEST PUSH0 DUP1 REVERT JUMPDEST PUSH2 0xA8 PUSH2 0x140 JUMP JUMPDEST STOP JUMPDEST PUSH2 0xB2 PUSH2 0x3F3 JUMP JUMPDEST STOP JUMPDEST PUSH2 0xBC PUSH2 0x61E JUMP JUMPDEST STOP JUMPDEST PUSH2 0xC6 PUSH2 0x89F JUMP JUMPDEST STOP JUMPDEST PUSH2 0xD0 PUSH2 0xC88 JUMP JUMPDEST STOP JUMPDEST PUSH2 0xDA PUSH2 0xD72 JUMP JUMPDEST STOP JUMPDEST PUSH2 0xE4 PUSH2 0xFB0 JUMP JUMPDEST STOP JUMPDEST PUSH2 0xEE PUSH2 0x1233 JUMP JUMPDEST PUSH1 0x40 MLOAD PUSH2 0xFB SWAP2 SWAP1 PUSH2 0x12EC JUMP JUMPDEST PUSH1 0x40 MLOAD DUP1 SWAP2 SUB SWAP1 RETURN JUMPDEST PUSH2 0x10C PUSH2 0x1258 JUMP JUMPDEST PUSH1 0x40 MLOAD PUSH2 0x119 SWAP2 SWAP1 PUSH2 0x12EC JUMP JUMPDEST PUSH1 0x40 MLOAD DUP1 SWAP2 SUB SWAP1 RETURN JUMPDEST PUSH2 0x12A PUSH2 0x127D JUMP JUMPDEST PUSH1 0x40 MLOAD PUSH2 0x137 SWAP2 SWAP1 PUSH2 0x1360 JUMP JUMPDEST PUSH1 0x40 MLOAD DUP1 SWAP2 SUB SWAP1 RETURN JUMPDEST PUSH0 PUSH1 0x40 MLOAD DUP1 PUSH1 0x40 ADD PUSH1 0x40 MSTORE DUP1 PUSH1 0x10 DUP2 MSTORE PUSH1 0x20 ADD PUSH32 0x75736572315F636F6D6D69746D656E7400000000000000000000000000000000 DUP2 MSTORE POP SWAP1 POP PUSH0 PUSH2 0x3039 SWAP1 POP PUSH0 DUP3 DUP3 PUSH1 0x40 MLOAD PUSH1 0x20 ADD PUSH2 0x193 SWAP3 SWAP2 SWAP1 PUSH2 0x13F4 JUMP JUMPDEST PUSH1 0x40 MLOAD PUSH1 0x20 DUP2 DUP4 SUB SUB DUP2 MSTORE SWAP1 PUSH1 0x40 MSTORE DUP1 MLOAD SWAP1 PUSH1 0x20 ADD KECCAK256 SWAP1 POP PUSH0 DUP1 SLOAD SWAP1 PUSH2 0x100 EXP SWAP1 DIV PUSH20 0xFFFFFFFFFFFFFFFFFFFFFFFFFFFFFFFFFFFFFFFF AND PUSH20 0xFFFFFFFFFFFFFFFFFFFFFFFFFFFFFFFFFFFFFFFF AND PUSH4 0xE522BF1D DUP3 PUSH1 0x40 MLOAD DUP3 PUSH4 0xFFFFFFFF AND PUSH1 0xE0 SHL DUP2 MSTORE PUSH1 0x4 ADD PUSH2 0x203 SWAP2 SWAP1 PUSH2 0x1433 JUMP JUMPDEST PUSH0 PUSH1 0x40 MLOAD DUP1 DUP4 SUB DUP2 PUSH0 DUP8 DUP1 EXTCODESIZE ISZERO DUP1 ISZERO PUSH2 0x21A JUMPI PUSH0 DUP1 REVERT JUMPDEST POP GAS CALL ISZERO DUP1 ISZERO PUSH2 0x22C JUMPI RETURNDATASIZE PUSH0 DUP1 RETURNDATACOPY RETURNDATASIZE PUSH0 REVERT JUMPDEST POP POP POP POP PUSH0 DUP1 SLOAD SWAP1 PUSH2 0x100 EXP SWAP1 DIV PUSH20 0xFFFFFFFFFFFFFFFFFFFFFFFFFFFFFFFFFFFFFFFF AND PUSH20 0xFFFFFFFFFFFFFFFFFFFFFFFFFFFFFFFFFFFFFFFF AND PUSH4 0x3A92B2C3 DUP5 DUP5 PUSH1 0x40 MLOAD DUP4 PUSH4 0xFFFFFFFF AND PUSH1 0xE0 SHL DUP2 MSTORE PUSH1 0x4 ADD PUSH2 0x28A SWAP3 SWAP2 SWAP1 PUSH2 0x14B3 JUMP JUMPDEST PUSH0 PUSH1 0x40 MLOAD DUP1 DUP4 SUB DUP2 PUSH0 DUP8 DUP1 EXTCODESIZE ISZERO DUP1 ISZERO PUSH2 0x2A1 JUMPI PUSH0 DUP1 REVERT JUMPDEST POP GAS CALL ISZERO DUP1 ISZERO PUSH2 0x2B3 JUMPI RETURNDATASIZE PUSH0 DUP1 RETURNDATACOPY RETURNDATASIZE PUSH0 REVERT JUMPDEST POP POP POP POP PUSH0 DUP1 PUSH0 SWAP1 SLOAD SWAP1 PUSH2 0x100 EXP SWAP1 DIV PUSH20 0xFFFFFFFFFFFFFFFFFFFFFFFFFFFFFFFFFFFFFFFF AND PUSH20 0xFFFFFFFFFFFFFFFFFFFFFFFFFFFFFFFFFFFFFFFF AND PUSH4 0xE711A812 PUSH1 0x1 PUSH0 SWAP1 SLOAD SWAP1 PUSH2 0x100 EXP SWAP1 DIV PUSH20 0xFFFFFFFFFFFFFFFFFFFFFFFFFFFFFFFFFFFFFFFF AND PUSH1 0x40 MLOAD DUP3 PUSH4 0xFFFFFFFF AND PUSH1 0xE0 SHL DUP2 MSTORE PUSH1 0x4 ADD PUSH2 0x332 SWAP2 SWAP1 PUSH2 0x12EC JUMP JUMPDEST PUSH1 0x20 PUSH1 0x40 MLOAD DUP1 DUP4 SUB DUP2 DUP7 GAS STATICCALL ISZERO DUP1 ISZERO PUSH2 0x34D JUMPI RETURNDATASIZE PUSH0 DUP1 RETURNDATACOPY RETURNDATASIZE PUSH0 REVERT JUMPDEST POP POP POP POP PUSH1 0x40 MLOAD RETURNDATASIZE PUSH1 0x1F NOT PUSH1 0x1F DUP3 ADD AND DUP3 ADD DUP1 PUSH1 0x40 MSTORE POP DUP2 ADD SWAP1 PUSH2 0x371 SWAP2 SWAP1 PUSH2 0x151A JUMP JUMPDEST SWAP1 POP PUSH20 0x0 PUSH4 0x767392B3 DUP3 PUSH1 0x1 PUSH1 0x40 MLOAD DUP4 PUSH4 0xFFFFFFFF AND PUSH1 0xE0 SHL DUP2 MSTORE PUSH1 0x4 ADD PUSH2 0x3AD SWAP3 SWAP2 SWAP1 PUSH2 0x15D4 JUMP JUMPDEST PUSH1 0x20 PUSH1 0x40 MLOAD DUP1 DUP4 SUB DUP2 DUP7 GAS DELEGATECALL ISZERO DUP1 ISZERO PUSH2 0x3C8 JUMPI RETURNDATASIZE PUSH0 DUP1 RETURNDATACOPY RETURNDATASIZE PUSH0 REVERT JUMPDEST POP POP POP POP PUSH1 0x40 MLOAD RETURNDATASIZE PUSH1 0x1F NOT PUSH1 0x1F DUP3 ADD AND DUP3 ADD DUP1 PUSH1 0x40 MSTORE POP DUP2 ADD SWAP1 PUSH2 0x3EC SWAP2 SWAP1 PUSH2 0x151A JUMP JUMPDEST POP POP POP POP POP JUMP JUMPDEST PUSH0 PUSH1 0x40 MLOAD DUP1 PUSH1 0x40 ADD PUSH1 0x40 MSTORE DUP1 PUSH1 0x10 DUP2 MSTORE PUSH1 0x20 ADD PUSH32 0x75736572315F636F6D6D69746D656E7400000000000000000000000000000000 DUP2 MSTORE POP SWAP1 POP PUSH0 PUSH2 0x3039 SWAP1 POP PUSH0 DUP3 DUP3 PUSH1 0x40 MLOAD PUSH1 0x20 ADD PUSH2 0x446 SWAP3 SWAP2 SWAP1 PUSH2 0x13F4 JUMP JUMPDEST PUSH1 0x40 MLOAD PUSH1 0x20 DUP2 DUP4 SUB SUB DUP2 MSTORE SWAP1 PUSH1 0x40 MSTORE DUP1 MLOAD SWAP1 PUSH1 0x20 ADD KECCAK256 SWAP1 POP PUSH0 DUP1 SLOAD SWAP1 PUSH2 0x100 EXP SWAP1 DIV PUSH20 0xFFFFFFFFFFFFFFFFFFFFFFFFFFFFFFFFFFFFFFFF AND PUSH20 0xFFFFFFFFFFFFFFFFFFFFFFFFFFFFFFFFFFFFFFFF AND PUSH4 0xE522BF1D DUP3 PUSH1 0x40 MLOAD DUP3 PUSH4 0xFFFFFFFF AND PUSH1 0xE0 SHL DUP2 MSTORE PUSH1 0x4 ADD PUSH2 0x4B6 SWAP2 SWAP1 PUSH2 0x1433 JUMP JUMPDEST PUSH0 PUSH1 0x40 MLOAD DUP1 DUP4 SUB DUP2 PUSH0 DUP8 DUP1 EXTCODESIZE ISZERO DUP1 ISZERO PUSH2 0x4CD JUMPI PUSH0 DUP1 REVERT JUMPDEST POP GAS CALL ISZERO DUP1 ISZERO PUSH2 0x4DF JUMPI RETURNDATASIZE PUSH0 DUP1 RETURNDATACOPY RETURNDATASIZE PUSH0 REVERT JUMPDEST POP POP POP POP PUSH0 DUP1 PUSH0 SWAP1 SLOAD SWAP1 PUSH2 0x100 EXP SWAP1 DIV PUSH20 0xFFFFFFFFFFFFFFFFFFFFFFFFFFFFFFFFFFFFFFFF AND PUSH20 0xFFFFFFFFFFFFFFFFFFFFFFFFFFFFFFFFFFFFFFFF AND PUSH4 0xE711A812 PUSH1 0x1 PUSH0 SWAP1 SLOAD SWAP1 PUSH2 0x100 EXP SWAP1 DIV PUSH20 0xFFFFFFFFFFFFFFFFFFFFFFFFFFFFFFFFFFFFFFFF AND PUSH1 0x40 MLOAD DUP3 PUSH4 0xFFFFFFFF AND PUSH1 0xE0 SHL DUP2 MSTORE PUSH1 0x4 ADD PUSH2 0x55E SWAP2 SWAP1 PUSH2 0x12EC JUMP JUMPDEST PUSH1 0x20 PUSH1 0x40 MLOAD DUP1 DUP4 SUB DUP2 DUP7 GAS STATICCALL ISZERO DUP1 ISZERO PUSH2 0x579 JUMPI RETURNDATASIZE PUSH0 DUP1 RETURNDATACOPY RETURNDATASIZE PUSH0 REVERT JUMPDEST POP POP POP POP PUSH1 0x40 MLOAD RETURNDATASIZE PUSH1 0x1F NOT PUSH1 0x1F DUP3 ADD AND DUP3 ADD DUP1 PUSH1 0x40 MSTORE POP DUP2 ADD SWAP1 PUSH2 0x59D SWAP2 SWAP1 PUSH2 0x151A JUMP JUMPDEST SWAP1 POP PUSH20 0x0 PUSH4 0x767392B3 DUP3 PUSH0 PUSH1 0x40 MLOAD DUP4 PUSH4 0xFFFFFFFF AND PUSH1 0xE0 SHL DUP2 MSTORE PUSH1 0x4 ADD PUSH2 0x5D8 SWAP3 SWAP2 SWAP1 PUSH2 0x167E JUMP JUMPDEST PUSH1 0x20 PUSH1 0x40 MLOAD DUP1 DUP4 SUB DUP2 DUP7 GAS DELEGATECALL ISZERO DUP1 ISZERO PUSH2 0x5F3 JUMPI RETURNDATASIZE PUSH0 DUP1 RETURNDATACOPY RETURNDATASIZE PUSH0 REVERT JUMPDEST POP POP POP POP PUSH1 0x40 MLOAD RETURNDATASIZE PUSH1 0x1F NOT PUSH1 0x1F DUP3 ADD AND DUP3 ADD DUP1 PUSH1 0x40 MSTORE POP DUP2 ADD SWAP1 PUSH2 0x617 SWAP2 SWAP1 PUSH2 0x151A JUMP JUMPDEST POP POP POP POP POP JUMP JUMPDEST PUSH0 PUSH1 0x40 MLOAD DUP1 PUSH1 0x40 ADD PUSH1 0x40 MSTORE DUP1 PUSH1 0x10 DUP2 MSTORE PUSH1 0x20 ADD PUSH32 0x75736572325F636F6D6D69746D656E7400000000000000000000000000000000 DUP2 MSTORE POP SWAP1 POP PUSH0 PUSH2 0xD431 SWAP1 POP PUSH0 DUP3 DUP3 PUSH1 0x40 MLOAD PUSH1 0x20 ADD PUSH2 0x671 SWAP3 SWAP2 SWAP1 PUSH2 0x13F4 JUMP JUMPDEST PUSH1 0x40 MLOAD PUSH1 0x20 DUP2 DUP4 SUB SUB DUP2 MSTORE SWAP1 PUSH1 0x40 MSTORE DUP1 MLOAD SWAP1 PUSH1 0x20 ADD KECCAK256 SWAP1 POP PUSH0 DUP1 SLOAD SWAP1 PUSH2 0x100 EXP SWAP1 DIV PUSH20 0xFFFFFFFFFFFFFFFFFFFFFFFFFFFFFFFFFFFFFFFF AND PUSH20 0xFFFFFFFFFFFFFFFFFFFFFFFFFFFFFFFFFFFFFFFF AND PUSH4 0xE522BF1D DUP3 PUSH1 0x40 MLOAD DUP3 PUSH4 0xFFFFFFFF AND PUSH1 0xE0 SHL DUP2 MSTORE PUSH1 0x4 ADD PUSH2 0x6E1 SWAP2 SWAP1 PUSH2 0x1433 JUMP JUMPDEST PUSH0 PUSH1 0x40 MLOAD DUP1 DUP4 SUB DUP2 PUSH0 DUP8 DUP1 EXTCODESIZE ISZERO DUP1 ISZERO PUSH2 0x6F8 JUMPI PUSH0 DUP1 REVERT JUMPDEST POP GAS CALL ISZERO DUP1 ISZERO PUSH2 0x70A JUMPI RETURNDATASIZE PUSH0 DUP1 RETURNDATACOPY RETURNDATASIZE PUSH0 REVERT JUMPDEST POP POP POP POP PUSH0 DUP1 SLOAD SWAP1 PUSH2 0x100 EXP SWAP1 DIV PUSH20 0xFFFFFFFFFFFFFFFFFFFFFFFFFFFFFFFFFFFFFFFF AND PUSH20 0xFFFFFFFFFFFFFFFFFFFFFFFFFFFFFFFFFFFFFFFF AND PUSH4 0x3A92B2C3 DUP5 DUP5 PUSH1 0x40 MLOAD DUP4 PUSH4 0xFFFFFFFF AND PUSH1 0xE0 SHL DUP2 MSTORE PUSH1 0x4 ADD PUSH2 0x768 SWAP3 SWAP2 SWAP1 PUSH2 0x14B3 JUMP JUMPDEST PUSH0 PUSH1 0x40 MLOAD DUP1 DUP4 SUB DUP2 PUSH0 DUP8 DUP1 EXTCODESIZE ISZERO DUP1 ISZERO PUSH2 0x77F JUMPI PUSH0 DUP1 REVERT JUMPDEST POP GAS CALL ISZERO DUP1 ISZERO PUSH2 0x791 JUMPI RETURNDATASIZE PUSH0 DUP1 RETURNDATACOPY RETURNDATASIZE PUSH0 REVERT JUMPDEST POP POP POP POP PUSH0 DUP1 DUP1 SLOAD SWAP1 PUSH2 0x100 EXP SWAP1 DIV PUSH20 0xFFFFFFFFFFFFFFFFFFFFFFFFFFFFFFFFFFFFFFFF AND PUSH20 0xFFFFFFFFFFFFFFFFFFFFFFFFFFFFFFFFFFFFFFFF AND PUSH4 0xE522BF1D DUP4 PUSH1 0x40 MLOAD DUP3 PUSH4 0xFFFFFFFF AND PUSH1 0xE0 SHL DUP2 MSTORE PUSH1 0x4 ADD PUSH2 0x7EE SWAP2 SWAP1 PUSH2 0x1433 JUMP JUMPDEST PUSH0 PUSH1 0x40 MLOAD DUP1 DUP4 SUB DUP2 PUSH0 DUP8 DUP1 EXTCODESIZE ISZERO DUP1 ISZERO PUSH2 0x805 JUMPI PUSH0 DUP1 REVERT JUMPDEST POP GAS CALL SWAP3 POP POP POP DUP1 ISZERO PUSH2 0x816 JUMPI POP PUSH1 0x1 JUMPDEST ISZERO PUSH2 0x820 JUMPI PUSH1 0x1 SWAP1 POP JUMPDEST PUSH20 0x0 PUSH4 0x767392B3 DUP3 PUSH0 PUSH1 0x40 MLOAD DUP4 PUSH4 0xFFFFFFFF AND PUSH1 0xE0 SHL DUP2 MSTORE PUSH1 0x4 ADD PUSH2 0x859 SWAP3 SWAP2 SWAP1 PUSH2 0x1728 JUMP JUMPDEST PUSH1 0x20 PUSH1 0x40 MLOAD DUP1 DUP4 SUB DUP2 DUP7 GAS DELEGATECALL ISZERO DUP1 ISZERO PUSH2 0x874 JUMPI RETURNDATASIZE PUSH0 DUP1 RETURNDATACOPY RETURNDATASIZE PUSH0 REVERT JUMPDEST POP POP POP POP PUSH1 0x40 MLOAD RETURNDATASIZE PUSH1 0x1F NOT PUSH1 0x1F DUP3 ADD AND DUP3 ADD DUP1 PUSH1 0x40 MSTORE POP DUP2 ADD SWAP1 PUSH2 0x898 SWAP2 SWAP1 PUSH2 0x151A JUMP JUMPDEST POP POP POP POP POP JUMP JUMPDEST PUSH0 PUSH1 0x40 MLOAD DUP1 PUSH1 0x40 ADD PUSH1 0x40 MSTORE DUP1 PUSH1 0x10 DUP2 MSTORE PUSH1 0x20 ADD PUSH32 0x75736572325F636F6D6D69746D656E7400000000000000000000000000000000 DUP2 MSTORE POP SWAP1 POP PUSH0 PUSH2 0xD431 SWAP1 POP PUSH0 DUP3 DUP3 PUSH1 0x40 MLOAD PUSH1 0x20 ADD PUSH2 0x8F2 SWAP3 SWAP2 SWAP1 PUSH2 0x13F4 JUMP JUMPDEST PUSH1 0x40 MLOAD PUSH1 0x20 DUP2 DUP4 SUB SUB DUP2 MSTORE SWAP1 PUSH1 0x40 MSTORE DUP1 MLOAD SWAP1 PUSH1 0x20 ADD KECCAK256 SWAP1 POP PUSH0 DUP1 SLOAD SWAP1 PUSH2 0x100 EXP SWAP1 DIV PUSH20 0xFFFFFFFFFFFFFFFFFFFFFFFFFFFFFFFFFFFFFFFF AND PUSH20 0xFFFFFFFFFFFFFFFFFFFFFFFFFFFFFFFFFFFFFFFF AND PUSH4 0xE522BF1D DUP3 PUSH1 0x40 MLOAD DUP3 PUSH4 0xFFFFFFFF AND PUSH1 0xE0 SHL DUP2 MSTORE PUSH1 0x4 ADD PUSH2 0x962 SWAP2 SWAP1 PUSH2 0x1433 JUMP JUMPDEST PUSH0 PUSH1 0x40 MLOAD DUP1 DUP4 SUB DUP2 PUSH0 DUP8 DUP1 EXTCODESIZE ISZERO DUP1 ISZERO PUSH2 0x979 JUMPI PUSH0 DUP1 REVERT JUMPDEST POP GAS CALL ISZERO DUP1 ISZERO PUSH2 0x98B JUMPI RETURNDATASIZE PUSH0 DUP1 RETURNDATACOPY RETURNDATASIZE PUSH0 REVERT JUMPDEST POP POP POP POP PUSH0 DUP1 PUSH0 SWAP1 SLOAD SWAP1 PUSH2 0x100 EXP SWAP1 DIV PUSH20 0xFFFFFFFFFFFFFFFFFFFFFFFFFFFFFFFFFFFFFFFF AND PUSH20 0xFFFFFFFFFFFFFFFFFFFFFFFFFFFFFFFFFFFFFFFF AND PUSH4 0xE711A812 PUSH1 0x2 PUSH0 SWAP1 SLOAD SWAP1 PUSH2 0x100 EXP SWAP1 DIV PUSH20 0xFFFFFFFFFFFFFFFFFFFFFFFFFFFFFFFFFFFFFFFF AND PUSH1 0x40 MLOAD DUP3 PUSH4 0xFFFFFFFF AND PUSH1 0xE0 SHL DUP2 MSTORE PUSH1 0x4 ADD PUSH2 0xA0A SWAP2 SWAP1 PUSH2 0x12EC JUMP JUMPDEST PUSH1 0x20 PUSH1 0x40 MLOAD DUP1 DUP4 SUB DUP2 DUP7 GAS STATICCALL ISZERO DUP1 ISZERO PUSH2 0xA25 JUMPI RETURNDATASIZE PUSH0 DUP1 RETURNDATACOPY RETURNDATASIZE PUSH0 REVERT JUMPDEST POP POP POP POP PUSH1 0x40 MLOAD RETURNDATASIZE PUSH1 0x1F NOT PUSH1 0x1F DUP3 ADD AND DUP3 ADD DUP1 PUSH1 0x40 MSTORE POP DUP2 ADD SWAP1 PUSH2 0xA49 SWAP2 SWAP1 PUSH2 0x151A JUMP JUMPDEST SWAP1 POP PUSH20 0x0 PUSH4 0x767392B3 DUP3 PUSH0 PUSH1 0x40 MLOAD DUP4 PUSH4 0xFFFFFFFF AND PUSH1 0xE0 SHL DUP2 MSTORE PUSH1 0x4 ADD PUSH2 0xA84 SWAP3 SWAP2 SWAP1 PUSH2 0x17D2 JUMP JUMPDEST PUSH1 0x20 PUSH1 0x40 MLOAD DUP1 DUP4 SUB DUP2 DUP7 GAS DELEGATECALL ISZERO DUP1 ISZERO PUSH2 0xA9F JUMPI RETURNDATASIZE PUSH0 DUP1 RETURNDATACOPY RETURNDATASIZE PUSH0 REVERT JUMPDEST POP POP POP POP PUSH1 0x40 MLOAD RETURNDATASIZE PUSH1 0x1F NOT PUSH1 0x1F DUP3 ADD AND DUP3 ADD DUP1 PUSH1 0x40 MSTORE POP DUP2 ADD SWAP1 PUSH2 0xAC3 SWAP2 SWAP1 PUSH2 0x151A JUMP JUMPDEST POP PUSH0 DUP1 SLOAD SWAP1 PUSH2 0x100 EXP SWAP1 DIV PUSH20 0xFFFFFFFFFFFFFFFFFFFFFFFFFFFFFFFFFFFFFFFF AND PUSH20 0xFFFFFFFFFFFFFFFFFFFFFFFFFFFFFFFFFFFFFFFF AND PUSH4 0x3A92B2C3 DUP6 DUP6 PUSH1 0x40 MLOAD DUP4 PUSH4 0xFFFFFFFF AND PUSH1 0xE0 SHL DUP2 MSTORE PUSH1 0x4 ADD PUSH2 0xB1E SWAP3 SWAP2 SWAP1 PUSH2 0x14B3 JUMP JUMPDEST PUSH0 PUSH1 0x40 MLOAD DUP1 DUP4 SUB DUP2 PUSH0 DUP8 DUP1 EXTCODESIZE ISZERO DUP1 ISZERO PUSH2 0xB35 JUMPI PUSH0 DUP1 REVERT JUMPDEST POP GAS CALL ISZERO DUP1 ISZERO PUSH2 0xB47 JUMPI RETURNDATASIZE PUSH0 DUP1 RETURNDATACOPY RETURNDATASIZE PUSH0 REVERT JUMPDEST POP POP POP POP PUSH0 DUP1 PUSH0 SWAP1 SLOAD SWAP1 PUSH2 0x100 EXP SWAP1 DIV PUSH20 0xFFFFFFFFFFFFFFFFFFFFFFFFFFFFFFFFFFFFFFFF AND PUSH20 0xFFFFFFFFFFFFFFFFFFFFFFFFFFFFFFFFFFFFFFFF AND PUSH4 0xE711A812 PUSH1 0x2 PUSH0 SWAP1 SLOAD SWAP1 PUSH2 0x100 EXP SWAP1 DIV PUSH20 0xFFFFFFFFFFFFFFFFFFFFFFFFFFFFFFFFFFFFFFFF AND PUSH1 0x40 MLOAD DUP3 PUSH4 0xFFFFFFFF AND PUSH1 0xE0 SHL DUP2 MSTORE PUSH1 0x4 ADD PUSH2 0xBC6 SWAP2 SWAP1 PUSH2 0x12EC JUMP JUMPDEST PUSH1 0x20 PUSH1 0x40 MLOAD DUP1 DUP4 SUB DUP2 DUP7 GAS STATICCALL ISZERO DUP1 ISZERO PUSH2 0xBE1 JUMPI RETURNDATASIZE PUSH0 DUP1 RETURNDATACOPY RETURNDATASIZE PUSH0 REVERT JUMPDEST POP POP POP POP PUSH1 0x40 MLOAD RETURNDATASIZE PUSH1 0x1F NOT PUSH1 0x1F DUP3 ADD AND DUP3 ADD DUP1 PUSH1 0x40 MSTORE POP DUP2 ADD SWAP1 PUSH2 0xC05 SWAP2 SWAP1 PUSH2 0x151A JUMP JUMPDEST SWAP1 POP PUSH20 0x0 PUSH4 0x767392B3 DUP3 PUSH1 0x1 PUSH1 0x40 MLOAD DUP4 PUSH4 0xFFFFFFFF AND PUSH1 0xE0 SHL DUP2 MSTORE PUSH1 0x4 ADD PUSH2 0xC41 SWAP3 SWAP2 SWAP1 PUSH2 0x187C JUMP JUMPDEST PUSH1 0x20 PUSH1 0x40 MLOAD DUP1 DUP4 SUB DUP2 DUP7 GAS DELEGATECALL ISZERO DUP1 ISZERO PUSH2 0xC5C JUMPI RETURNDATASIZE PUSH0 DUP1 RETURNDATACOPY RETURNDATASIZE PUSH0 REVERT JUMPDEST POP POP POP POP PUSH1 0x40 MLOAD RETURNDATASIZE PUSH1 0x1F NOT PUSH1 0x1F DUP3 ADD AND DUP3 ADD DUP1 PUSH1 0x40 MSTORE POP DUP2 ADD SWAP1 PUSH2 0xC80 SWAP2 SWAP1 PUSH2 0x151A JUMP JUMPDEST POP POP POP POP POP POP JUMP JUMPDEST PUSH1 0x40 MLOAD PUSH2 0xC94 SWAP1 PUSH2 0x12A0 JUMP JUMPDEST PUSH1 0x40 MLOAD DUP1 SWAP2 SUB SWAP1 PUSH0 CREATE DUP1 ISZERO DUP1 ISZERO PUSH2 0xCAD JUMPI RETURNDATASIZE PUSH0 DUP1 RETURNDATACOPY RETURNDATASIZE PUSH0 REVERT JUMPDEST POP PUSH0 DUP1 PUSH2 0x100 EXP DUP2 SLOAD DUP2 PUSH20 0xFFFFFFFFFFFFFFFFFFFFFFFFFFFFFFFFFFFFFFFF MUL NOT AND SWAP1 DUP4 PUSH20 0xFFFFFFFFFFFFFFFFFFFFFFFFFFFFFFFFFFFFFFFF AND MUL OR SWAP1 SSTORE POP PUSH2 0x123 PUSH1 0x1 PUSH0 PUSH2 0x100 EXP DUP2 SLOAD DUP2 PUSH20 0xFFFFFFFFFFFFFFFFFFFFFFFFFFFFFFFFFFFFFFFF MUL NOT AND SWAP1 DUP4 PUSH20 0xFFFFFFFFFFFFFFFFFFFFFFFFFFFFFFFFFFFFFFFF AND MUL OR SWAP1 SSTORE POP PUSH2 0x456 PUSH1 0x2 PUSH0 PUSH2 0x100 EXP DUP2 SLOAD DUP2 PUSH20 0xFFFFFFFFFFFFFFFFFFFFFFFFFFFFFFFFFFFFFFFF MUL NOT AND SWAP1 DUP4 PUSH20 0xFFFFFFFFFFFFFFFFFFFFFFFFFFFFFFFFFFFFFFFF AND MUL OR SWAP1 SSTORE POP JUMP JUMPDEST PUSH0 PUSH1 0x40 MLOAD DUP1 PUSH1 0x40 ADD PUSH1 0x40 MSTORE DUP1 PUSH1 0x10 DUP2 MSTORE PUSH1 0x20 ADD PUSH32 0x75736572315F636F6D6D69746D656E7400000000000000000000000000000000 DUP2 MSTORE POP SWAP1 POP PUSH0 PUSH2 0x3039 SWAP1 POP PUSH0 DUP3 DUP3 PUSH1 0x40 MLOAD PUSH1 0x20 ADD PUSH2 0xDC5 SWAP3 SWAP2 SWAP1 PUSH2 0x13F4 JUMP JUMPDEST PUSH1 0x40 MLOAD PUSH1 0x20 DUP2 DUP4 SUB SUB DUP2 MSTORE SWAP1 PUSH1 0x40 MSTORE DUP1 MLOAD SWAP1 PUSH1 0x20 ADD KECCAK256 SWAP1 POP PUSH0 DUP1 SLOAD SWAP1 PUSH2 0x100 EXP SWAP1 DIV PUSH20 0xFFFFFFFFFFFFFFFFFFFFFFFFFFFFFFFFFFFFFFFF AND PUSH20 0xFFFFFFFFFFFFFFFFFFFFFFFFFFFFFFFFFFFFFFFF AND PUSH4 0xE522BF1D DUP3 PUSH1 0x40 MLOAD DUP3 PUSH4 0xFFFFFFFF AND PUSH1 0xE0 SHL DUP2 MSTORE PUSH1 0x4 ADD PUSH2 0xE35 SWAP2 SWAP1 PUSH2 0x1433 JUMP JUMPDEST PUSH0 PUSH1 0x40 MLOAD DUP1 DUP4 SUB DUP2 PUSH0 DUP8 DUP1 EXTCODESIZE ISZERO DUP1 ISZERO PUSH2 0xE4C JUMPI PUSH0 DUP1 REVERT JUMPDEST POP GAS CALL ISZERO DUP1 ISZERO PUSH2 0xE5E JUMPI RETURNDATASIZE PUSH0 DUP1 RETURNDATACOPY RETURNDATASIZE PUSH0 REVERT JUMPDEST POP POP POP POP PUSH0 PUSH1 0x40 MLOAD DUP1 PUSH1 0x40 ADD PUSH1 0x40 MSTORE DUP1 PUSH1 0xB DUP2 MSTORE PUSH1 0x20 ADD PUSH32 0x77726F6E675F76616C7565000000000000000000000000000000000000000000 DUP2 MSTORE POP SWAP1 POP PUSH0 PUSH3 0x10932 SWAP1 POP PUSH0 DUP1 DUP1 SLOAD SWAP1 PUSH2 0x100 EXP SWAP1 DIV PUSH20 0xFFFFFFFFFFFFFFFFFFFFFFFFFFFFFFFFFFFFFFFF AND PUSH20 0xFFFFFFFFFFFFFFFFFFFFFFFFFFFFFFFFFFFFFFFF AND PUSH4 0x3A92B2C3 DUP5 DUP5 PUSH1 0x40 MLOAD DUP4 PUSH4 0xFFFFFFFF AND PUSH1 0xE0 SHL DUP2 MSTORE PUSH1 0x4 ADD PUSH2 0xEFD SWAP3 SWAP2 SWAP1 PUSH2 0x14B3 JUMP JUMPDEST PUSH0 PUSH1 0x40 MLOAD DUP1 DUP4 SUB DUP2 PUSH0 DUP8 DUP1 EXTCODESIZE ISZERO DUP1 ISZERO PUSH2 0xF14 JUMPI PUSH0 DUP1 REVERT JUMPDEST POP GAS CALL SWAP3 POP POP POP DUP1 ISZERO PUSH2 0xF25 JUMPI POP PUSH1 0x1 JUMPDEST ISZERO PUSH2 0xF2F JUMPI PUSH1 0x1 SWAP1 POP JUMPDEST PUSH20 0x0 PUSH4 0x767392B3 DUP3 PUSH0 PUSH1 0x40 MLOAD DUP4 PUSH4 0xFFFFFFFF AND PUSH1 0xE0 SHL DUP2 MSTORE PUSH1 0x4 ADD PUSH2 0xF68 SWAP3 SWAP2 SWAP1 PUSH2 0x1926 JUMP JUMPDEST PUSH1 0x20 PUSH1 0x40 MLOAD DUP1 DUP4 SUB DUP2 DUP7 GAS DELEGATECALL ISZERO DUP1 ISZERO PUSH2 0xF83 JUMPI RETURNDATASIZE PUSH0 DUP1 RETURNDATACOPY RETURNDATASIZE PUSH0 REVERT JUMPDEST POP POP POP POP PUSH1 0x40 MLOAD RETURNDATASIZE PUSH1 0x1F NOT PUSH1 0x1F DUP3 ADD AND DUP3 ADD DUP1 PUSH1 0x40 MSTORE POP DUP2 ADD SWAP1 PUSH2 0xFA7 SWAP2 SWAP1 PUSH2 0x151A JUMP JUMPDEST POP POP POP POP POP POP POP JUMP JUMPDEST PUSH0 PUSH1 0x40 MLOAD DUP1 PUSH1 0x40 ADD PUSH1 0x40 MSTORE DUP1 PUSH1 0x10 DUP2 MSTORE PUSH1 0x20 ADD PUSH32 0x75736572315F636F6D6D69746D656E7400000000000000000000000000000000 DUP2 MSTORE POP SWAP1 POP PUSH0 PUSH2 0x3039 SWAP1 POP PUSH0 DUP3 DUP3 PUSH1 0x40 MLOAD PUSH1 0x20 ADD PUSH2 0x1003 SWAP3 SWAP2 SWAP1 PUSH2 0x13F4 JUMP JUMPDEST PUSH1 0x40 MLOAD PUSH1 0x20 DUP2 DUP4 SUB SUB DUP2 MSTORE SWAP1 PUSH1 0x40 MSTORE DUP1 MLOAD SWAP1 PUSH1 0x20 ADD KECCAK256 SWAP1 POP PUSH0 DUP1 SLOAD SWAP1 PUSH2 0x100 EXP SWAP1 DIV PUSH20 0xFFFFFFFFFFFFFFFFFFFFFFFFFFFFFFFFFFFFFFFF AND PUSH20 0xFFFFFFFFFFFFFFFFFFFFFFFFFFFFFFFFFFFFFFFF AND PUSH4 0xE522BF1D DUP3 PUSH1 0x40 MLOAD DUP3 PUSH4 0xFFFFFFFF AND PUSH1 0xE0 SHL DUP2 MSTORE PUSH1 0x4 ADD PUSH2 0x1073 SWAP2 SWAP1 PUSH2 0x1433 JUMP JUMPDEST PUSH0 PUSH1 0x40 MLOAD DUP1 DUP4 SUB DUP2 PUSH0 DUP8 DUP1 EXTCODESIZE ISZERO DUP1 ISZERO PUSH2 0x108A JUMPI PUSH0 DUP1 REVERT JUMPDEST POP GAS CALL ISZERO DUP1 ISZERO PUSH2 0x109C JUMPI RETURNDATASIZE PUSH0 DUP1 RETURNDATACOPY RETURNDATASIZE PUSH0 REVERT JUMPDEST POP POP POP POP PUSH0 DUP1 SLOAD SWAP1 PUSH2 0x100 EXP SWAP1 DIV PUSH20 0xFFFFFFFFFFFFFFFFFFFFFFFFFFFFFFFFFFFFFFFF AND PUSH20 0xFFFFFFFFFFFFFFFFFFFFFFFFFFFFFFFFFFFFFFFF AND PUSH4 0x3A92B2C3 DUP5 DUP5 PUSH1 0x40 MLOAD DUP4 PUSH4 0xFFFFFFFF AND PUSH1 0xE0 SHL DUP2 MSTORE PUSH1 0x4 ADD PUSH2 0x10FA SWAP3 SWAP2 SWAP1 PUSH2 0x14B3 JUMP JUMPDEST PUSH0 PUSH1 0x40 MLOAD DUP1 DUP4 SUB DUP2 PUSH0 DUP8 DUP1 EXTCODESIZE ISZERO DUP1 ISZERO PUSH2 0x1111 JUMPI PUSH0 DUP1 REVERT JUMPDEST POP GAS CALL ISZERO DUP1 ISZERO PUSH2 0x1123 JUMPI RETURNDATASIZE PUSH0 DUP1 RETURNDATACOPY RETURNDATASIZE PUSH0 REVERT JUMPDEST POP POP POP POP PUSH0 DUP1 DUP1 SLOAD SWAP1 PUSH2 0x100 EXP SWAP1 DIV PUSH20 0xFFFFFFFFFFFFFFFFFFFFFFFFFFFFFFFFFFFFFFFF AND PUSH20 0xFFFFFFFFFFFFFFFFFFFFFFFFFFFFFFFFFFFFFFFF AND PUSH4 0x3A92B2C3 DUP6 DUP6 PUSH1 0x40 MLOAD DUP4 PUSH4 0xFFFFFFFF AND PUSH1 0xE0 SHL DUP2 MSTORE PUSH1 0x4 ADD PUSH2 0x1182 SWAP3 SWAP2 SWAP1 PUSH2 0x14B3 JUMP JUMPDEST PUSH0 PUSH1 0x40 MLOAD DUP1 DUP4 SUB DUP2 PUSH0 DUP8 DUP1 EXTCODESIZE ISZERO DUP1 ISZERO PUSH2 0x1199 JUMPI PUSH0 DUP1 REVERT JUMPDEST POP GAS CALL SWAP3 POP POP POP DUP1 ISZERO PUSH2 0x11AA JUMPI POP PUSH1 0x1 JUMPDEST ISZERO PUSH2 0x11B4 JUMPI PUSH1 0x1 SWAP1 POP JUMPDEST PUSH20 0x0 PUSH4 0x767392B3 DUP3 PUSH0 PUSH1 0x40 MLOAD DUP4 PUSH4 0xFFFFFFFF AND PUSH1 0xE0 SHL DUP2 MSTORE PUSH1 0x4 ADD PUSH2 0x11ED SWAP3 SWAP2 SWAP1 PUSH2 0x19D0 JUMP JUMPDEST PUSH1 0x20 PUSH1 0x40 MLOAD DUP1 DUP4 SUB DUP2 DUP7 GAS DELEGATECALL ISZERO DUP1 ISZERO PUSH2 0x1208 JUMPI RETURNDATASIZE PUSH0 DUP1 RETURNDATACOPY RETURNDATASIZE PUSH0 REVERT JUMPDEST POP POP POP POP PUSH1 0x40 MLOAD RETURNDATASIZE PUSH1 0x1F NOT PUSH1 0x1F DUP3 ADD AND DUP3 ADD DUP1 PUSH1 0x40 MSTORE POP DUP2 ADD SWAP1 PUSH2 0x122C SWAP2 SWAP1 PUSH2 0x151A JUMP JUMPDEST POP POP POP POP POP JUMP JUMPDEST PUSH1 0x1 PUSH0 SWAP1 SLOAD SWAP1 PUSH2 0x100 EXP SWAP1 DIV PUSH20 0xFFFFFFFFFFFFFFFFFFFFFFFFFFFFFFFFFFFFFFFF AND DUP2 JUMP JUMPDEST PUSH1 0x2 PUSH0 SWAP1 SLOAD SWAP1 PUSH2 0x100 EXP SWAP1 DIV PUSH20 0xFFFFFFFFFFFFFFFFFFFFFFFFFFFFFFFFFFFFFFFF AND DUP2 JUMP JUMPDEST PUSH0 DUP1 SLOAD SWAP1 PUSH2 0x100 EXP SWAP1 DIV PUSH20 0xFFFFFFFFFFFFFFFFFFFFFFFFFFFFFFFFFFFFFFFF AND DUP2 JUMP JUMPDEST PUSH2 0x99D DUP1 PUSH2 0x1A0B DUP4 CODECOPY ADD SWAP1 JUMP JUMPDEST PUSH0 PUSH20 0xFFFFFFFFFFFFFFFFFFFFFFFFFFFFFFFFFFFFFFFF DUP3 AND SWAP1 POP SWAP2 SWAP1 POP JUMP JUMPDEST PUSH0 PUSH2 0x12D6 DUP3 PUSH2 0x12AD JUMP JUMPDEST SWAP1 POP SWAP2 SWAP1 POP JUMP JUMPDEST PUSH2 0x12E6 DUP2 PUSH2 0x12CC JUMP JUMPDEST DUP3 MSTORE POP POP JUMP JUMPDEST PUSH0 PUSH1 0x20 DUP3 ADD SWAP1 POP PUSH2 0x12FF PUSH0 DUP4 ADD DUP5 PUSH2 0x12DD JUMP JUMPDEST SWAP3 SWAP2 POP POP JUMP JUMPDEST PUSH0 DUP2 SWAP1 POP SWAP2 SWAP1 POP JUMP JUMPDEST PUSH0 PUSH2 0x1328 PUSH2 0x1323 PUSH2 0x131E DUP5 PUSH2 0x12AD JUMP JUMPDEST PUSH2 0x1305 JUMP JUMPDEST PUSH2 0x12AD JUMP JUMPDEST SWAP1 POP SWAP2 SWAP1 POP JUMP JUMPDEST PUSH0 PUSH2 0x1339 DUP3 PUSH2 0x130E JUMP JUMPDEST SWAP1 POP SWAP2 SWAP1 POP JUMP JUMPDEST PUSH0 PUSH2 0x134A DUP3 PUSH2 0x132F JUMP JUMPDEST SWAP1 POP SWAP2 SWAP1 POP JUMP JUMPDEST PUSH2 0x135A DUP2 PUSH2 0x1340 JUMP JUMPDEST DUP3 MSTORE POP POP JUMP JUMPDEST PUSH0 PUSH1 0x20 DUP3 ADD SWAP1 POP PUSH2 0x1373 PUSH0 DUP4 ADD DUP5 PUSH2 0x1351 JUMP JUMPDEST SWAP3 SWAP2 POP POP JUMP JUMPDEST PUSH0 DUP2 MLOAD SWAP1 POP SWAP2 SWAP1 POP JUMP JUMPDEST PUSH0 DUP2 SWAP1 POP SWAP3 SWAP2 POP POP JUMP JUMPDEST DUP3 DUP2 DUP4 MCOPY PUSH0 DUP4 DUP4 ADD MSTORE POP POP POP JUMP JUMPDEST PUSH0 PUSH2 0x13A5 DUP3 PUSH2 0x1379 JUMP JUMPDEST PUSH2 0x13AF DUP2 DUP6 PUSH2 0x1383 JUMP JUMPDEST SWAP4 POP PUSH2 0x13BF DUP2 DUP6 PUSH1 0x20 DUP7 ADD PUSH2 0x138D JUMP JUMPDEST DUP1 DUP5 ADD SWAP2 POP POP SWAP3 SWAP2 POP POP JUMP JUMPDEST PUSH0 DUP2 SWAP1 POP SWAP2 SWAP1 POP JUMP JUMPDEST PUSH0 DUP2 SWAP1 POP SWAP2 SWAP1 POP JUMP JUMPDEST PUSH2 0x13EE PUSH2 0x13E9 DUP3 PUSH2 0x13CB JUMP JUMPDEST PUSH2 0x13D4 JUMP JUMPDEST DUP3 MSTORE POP POP JUMP JUMPDEST PUSH0 PUSH2 0x13FF DUP3 DUP6 PUSH2 0x139B JUMP JUMPDEST SWAP2 POP PUSH2 0x140B DUP3 DUP5 PUSH2 0x13DD JUMP JUMPDEST PUSH1 0x20 DUP3 ADD SWAP2 POP DUP2 SWAP1 POP SWAP4 SWAP3 POP POP POP JUMP JUMPDEST PUSH0 DUP2 SWAP1 POP SWAP2 SWAP1 POP JUMP JUMPDEST PUSH2 0x142D DUP2 PUSH2 0x141B JUMP JUMPDEST DUP3 MSTORE POP POP JUMP JUMPDEST PUSH0 PUSH1 0x20 DUP3 ADD SWAP1 POP PUSH2 0x1446 PUSH0 DUP4 ADD DUP5 PUSH2 0x1424 JUMP JUMPDEST SWAP3 SWAP2 POP POP JUMP JUMPDEST PUSH0 DUP3 DUP3 MSTORE PUSH1 0x20 DUP3 ADD SWAP1 POP SWAP3 SWAP2 POP POP JUMP JUMPDEST PUSH0 PUSH1 0x1F NOT PUSH1 0x1F DUP4 ADD AND SWAP1 POP SWAP2 SWAP1 POP JUMP JUMPDEST PUSH0 PUSH2 0x1476 DUP3 PUSH2 0x1379 JUMP JUMPDEST PUSH2 0x1480 DUP2 DUP6 PUSH2 0x144C JUMP JUMPDEST SWAP4 POP PUSH2 0x1490 DUP2 DUP6 PUSH1 0x20 DUP7 ADD PUSH2 0x138D JUMP JUMPDEST PUSH2 0x1499 DUP2 PUSH2 0x145C JUMP JUMPDEST DUP5 ADD SWAP2 POP POP SWAP3 SWAP2 POP POP JUMP JUMPDEST PUSH2 0x14AD DUP2 PUSH2 0x13CB JUMP JUMPDEST DUP3 MSTORE POP POP JUMP JUMPDEST PUSH0 PUSH1 0x40 DUP3 ADD SWAP1 POP DUP2 DUP2 SUB PUSH0 DUP4 ADD MSTORE PUSH2 0x14CB DUP2 DUP6 PUSH2 0x146C JUMP JUMPDEST SWAP1 POP PUSH2 0x14DA PUSH1 0x20 DUP4 ADD DUP5 PUSH2 0x14A4 JUMP JUMPDEST SWAP4 SWAP3 POP POP POP JUMP JUMPDEST PUSH0 DUP1 REVERT JUMPDEST PUSH0 DUP2 ISZERO ISZERO SWAP1 POP SWAP2 SWAP1 POP JUMP JUMPDEST PUSH2 0x14F9 DUP2 PUSH2 0x14E5 JUMP JUMPDEST DUP2 EQ PUSH2 0x1503 JUMPI PUSH0 DUP1 REVERT JUMPDEST POP JUMP JUMPDEST PUSH0 DUP2 MLOAD SWAP1 POP PUSH2 0x1514 DUP2 PUSH2 0x14F0 JUMP JUMPDEST SWAP3 SWAP2 POP POP JUMP JUMPDEST PUSH0 PUSH1 0x20 DUP3 DUP5 SUB SLT ISZERO PUSH2 0x152F JUMPI PUSH2 0x152E PUSH2 0x14E1 JUMP JUMPDEST JUMPDEST PUSH0 PUSH2 0x153C DUP5 DUP3 DUP6 ADD PUSH2 0x1506 JUMP JUMPDEST SWAP2 POP POP SWAP3 SWAP2 POP POP JUMP JUMPDEST PUSH2 0x154E DUP2 PUSH2 0x14E5 JUMP JUMPDEST DUP3 MSTORE POP POP JUMP JUMPDEST PUSH0 DUP3 DUP3 MSTORE PUSH1 0x20 DUP3 ADD SWAP1 POP SWAP3 SWAP2 POP POP JUMP JUMPDEST PUSH32 0x55736572277320636F6D6D69746D656E742073686F756C642062652072657665 PUSH0 DUP3 ADD MSTORE PUSH32 0x616C65642061667465722072657665616C696E67000000000000000000000000 PUSH1 0x20 DUP3 ADD MSTORE POP JUMP JUMPDEST PUSH0 PUSH2 0x15BE PUSH1 0x34 DUP4 PUSH2 0x1554 JUMP JUMPDEST SWAP2 POP PUSH2 0x15C9 DUP3 PUSH2 0x1564 JUMP JUMPDEST PUSH1 0x40 DUP3 ADD SWAP1 POP SWAP2 SWAP1 POP JUMP JUMPDEST PUSH0 PUSH1 0x60 DUP3 ADD SWAP1 POP PUSH2 0x15E7 PUSH0 DUP4 ADD DUP6 PUSH2 0x1545 JUMP JUMPDEST PUSH2 0x15F4 PUSH1 0x20 DUP4 ADD DUP5 PUSH2 0x1545 JUMP JUMPDEST DUP2 DUP2 SUB PUSH1 0x40 DUP4 ADD MSTORE PUSH2 0x1605 DUP2 PUSH2 0x15B2 JUMP JUMPDEST SWAP1 POP SWAP4 SWAP3 POP POP POP JUMP JUMPDEST PUSH32 0x55736572277320636F6D6D69746D656E742073686F756C64206E6F7420626520 PUSH0 DUP3 ADD MSTORE PUSH32 0x72657665616C6564207965740000000000000000000000000000000000000000 PUSH1 0x20 DUP3 ADD MSTORE POP JUMP JUMPDEST PUSH0 PUSH2 0x1668 PUSH1 0x2C DUP4 PUSH2 0x1554 JUMP JUMPDEST SWAP2 POP PUSH2 0x1673 DUP3 PUSH2 0x160E JUMP JUMPDEST PUSH1 0x40 DUP3 ADD SWAP1 POP SWAP2 SWAP1 POP JUMP JUMPDEST PUSH0 PUSH1 0x60 DUP3 ADD SWAP1 POP PUSH2 0x1691 PUSH0 DUP4 ADD DUP6 PUSH2 0x1545 JUMP JUMPDEST PUSH2 0x169E PUSH1 0x20 DUP4 ADD DUP5 PUSH2 0x1545 JUMP JUMPDEST DUP2 DUP2 SUB PUSH1 0x40 DUP4 ADD MSTORE PUSH2 0x16AF DUP2 PUSH2 0x165C JUMP JUMPDEST SWAP1 POP SWAP4 SWAP3 POP POP POP JUMP JUMPDEST PUSH32 0x43616E6E6F74206D616B652061206E657720636F6D6D69746D656E7420616674 PUSH0 DUP3 ADD MSTORE PUSH32 0x65722072657665616C696E670000000000000000000000000000000000000000 PUSH1 0x20 DUP3 ADD MSTORE POP JUMP JUMPDEST PUSH0 PUSH2 0x1712 PUSH1 0x2C DUP4 PUSH2 0x1554 JUMP JUMPDEST SWAP2 POP PUSH2 0x171D DUP3 PUSH2 0x16B8 JUMP JUMPDEST PUSH1 0x40 DUP3 ADD SWAP1 POP SWAP2 SWAP1 POP JUMP JUMPDEST PUSH0 PUSH1 0x60 DUP3 ADD SWAP1 POP PUSH2 0x173B PUSH0 DUP4 ADD DUP6 PUSH2 0x1545 JUMP JUMPDEST PUSH2 0x1748 PUSH1 0x20 DUP4 ADD DUP5 PUSH2 0x1545 JUMP JUMPDEST DUP2 DUP2 SUB PUSH1 0x40 DUP4 ADD MSTORE PUSH2 0x1759 DUP2 PUSH2 0x1706 JUMP JUMPDEST SWAP1 POP SWAP4 SWAP3 POP POP POP JUMP JUMPDEST PUSH32 0x5573657232277320636F6D6D69746D656E742073686F756C64206E6F74206265 PUSH0 DUP3 ADD MSTORE PUSH32 0x2072657665616C656420696E697469616C6C7900000000000000000000000000 PUSH1 0x20 DUP3 ADD MSTORE POP JUMP JUMPDEST PUSH0 PUSH2 0x17BC PUSH1 0x33 DUP4 PUSH2 0x1554 JUMP JUMPDEST SWAP2 POP PUSH2 0x17C7 DUP3 PUSH2 0x1762 JUMP JUMPDEST PUSH1 0x40 DUP3 ADD SWAP1 POP SWAP2 SWAP1 POP JUMP JUMPDEST PUSH0 PUSH1 0x60 DUP3 ADD SWAP1 POP PUSH2 0x17E5 PUSH0 DUP4 ADD DUP6 PUSH2 0x1545 JUMP JUMPDEST PUSH2 0x17F2 PUSH1 0x20 DUP4 ADD DUP5 PUSH2 0x1545 JUMP JUMPDEST DUP2 DUP2 SUB PUSH1 0x40 DUP4 ADD MSTORE PUSH2 0x1803 DUP2 PUSH2 0x17B0 JUMP JUMPDEST SWAP1 POP SWAP4 SWAP3 POP POP POP JUMP JUMPDEST PUSH32 0x5573657232277320636F6D6D69746D656E742073686F756C6420626520726576 PUSH0 DUP3 ADD MSTORE PUSH32 0x65616C65642061667465722072657665616C696E670000000000000000000000 PUSH1 0x20 DUP3 ADD MSTORE POP JUMP JUMPDEST PUSH0 PUSH2 0x1866 PUSH1 0x35 DUP4 PUSH2 0x1554 JUMP JUMPDEST SWAP2 POP PUSH2 0x1871 DUP3 PUSH2 0x180C JUMP JUMPDEST PUSH1 0x40 DUP3 ADD SWAP1 POP SWAP2 SWAP1 POP JUMP JUMPDEST PUSH0 PUSH1 0x60 DUP3 ADD SWAP1 POP PUSH2 0x188F PUSH0 DUP4 ADD DUP6 PUSH2 0x1545 JUMP JUMPDEST PUSH2 0x189C PUSH1 0x20 DUP4 ADD DUP5 PUSH2 0x1545 JUMP JUMPDEST DUP2 DUP2 SUB PUSH1 0x40 DUP4 ADD MSTORE PUSH2 0x18AD DUP2 PUSH2 0x185A JUMP JUMPDEST SWAP1 POP SWAP4 SWAP3 POP POP POP JUMP JUMPDEST PUSH32 0x52657665616C696E67207769746820696E636F72726563742076616C7565206F PUSH0 DUP3 ADD MSTORE PUSH32 0x72206E6F6E63652073686F756C64206661696C00000000000000000000000000 PUSH1 0x20 DUP3 ADD MSTORE POP JUMP JUMPDEST PUSH0 PUSH2 0x1910 PUSH1 0x33 DUP4 PUSH2 0x1554 JUMP JUMPDEST SWAP2 POP PUSH2 0x191B DUP3 PUSH2 0x18B6 JUMP JUMPDEST PUSH1 0x40 DUP3 ADD SWAP1 POP SWAP2 SWAP1 POP JUMP JUMPDEST PUSH0 PUSH1 0x60 DUP3 ADD SWAP1 POP PUSH2 0x1939 PUSH0 DUP4 ADD DUP6 PUSH2 0x1545 JUMP JUMPDEST PUSH2 0x1946 PUSH1 0x20 DUP4 ADD DUP5 PUSH2 0x1545 JUMP JUMPDEST DUP2 DUP2 SUB PUSH1 0x40 DUP4 ADD MSTORE PUSH2 0x1957 DUP2 PUSH2 0x1904 JUMP JUMPDEST SWAP1 POP SWAP4 SWAP3 POP POP POP JUMP JUMPDEST PUSH32 0x52657665616C696E67207468652073616D6520636F6D6D69746D656E74207477 PUSH0 DUP3 ADD MSTORE PUSH32 0x6963652073686F756C64206661696C0000000000000000000000000000000000 PUSH1 0x20 DUP3 ADD MSTORE POP JUMP JUMPDEST PUSH0 PUSH2 0x19BA PUSH1 0x2F DUP4 PUSH2 0x1554 JUMP JUMPDEST SWAP2 POP PUSH2 0x19C5 DUP3 PUSH2 0x1960 JUMP JUMPDEST PUSH1 0x40 DUP3 ADD SWAP1 POP SWAP2 SWAP1 POP JUMP JUMPDEST PUSH0 PUSH1 0x60 DUP3 ADD SWAP1 POP PUSH2 0x19E3 PUSH0 DUP4 ADD DUP6 PUSH2 0x1545 JUMP JUMPDEST PUSH2 0x19F0 PUSH1 0x20 DUP4 ADD DUP5 PUSH2 0x1545 JUMP JUMPDEST DUP2 DUP2 SUB PUSH1 0x40 DUP4 ADD MSTORE PUSH2 0x1A01 DUP2 PUSH2 0x19AE JUMP JUMPDEST SWAP1 POP SWAP4 SWAP3 POP POP POP JUMP INVALID PUSH1 0x80 PUSH1 0x40 MSTORE CALLVALUE DUP1 ISZERO PUSH1 0xE JUMPI PUSH0 DUP1 REVERT JUMPDEST POP PUSH2 0x981 DUP1 PUSH2 0x1C PUSH0 CODECOPY PUSH0 RETURN INVALID PUSH1 0x80 PUSH1 0x40 MSTORE CALLVALUE DUP1 ISZERO PUSH2 0xF JUMPI PUSH0 DUP1 REVERT JUMPDEST POP PUSH1 0x4 CALLDATASIZE LT PUSH2 0x4A JUMPI PUSH0 CALLDATALOAD PUSH1 0xE0 SHR DUP1 PUSH4 0x3A92B2C3 EQ PUSH2 0x4E JUMPI DUP1 PUSH4 0xE522BF1D EQ PUSH2 0x6A JUMPI DUP1 PUSH4 0xE711A812 EQ PUSH2 0x86 JUMPI DUP1 PUSH4 0xE8FCF723 EQ PUSH2 0xB6 JUMPI JUMPDEST PUSH0 DUP1 REVERT JUMPDEST PUSH2 0x68 PUSH1 0x4 DUP1 CALLDATASIZE SUB DUP2 ADD SWAP1 PUSH2 0x63 SWAP2 SWAP1 PUSH2 0x55C JUMP JUMPDEST PUSH2 0xE7 JUMP JUMPDEST STOP JUMPDEST PUSH2 0x84 PUSH1 0x4 DUP1 CALLDATASIZE SUB DUP2 ADD SWAP1 PUSH2 0x7F SWAP2 SWAP1 PUSH2 0x5E9 JUMP JUMPDEST PUSH2 0x251 JUMP JUMPDEST STOP JUMPDEST PUSH2 0xA0 PUSH1 0x4 DUP1 CALLDATASIZE SUB DUP2 ADD SWAP1 PUSH2 0x9B SWAP2 SWAP1 PUSH2 0x66E JUMP JUMPDEST PUSH2 0x35D JUMP JUMPDEST PUSH1 0x40 MLOAD PUSH2 0xAD SWAP2 SWAP1 PUSH2 0x6B3 JUMP JUMPDEST PUSH1 0x40 MLOAD DUP1 SWAP2 SUB SWAP1 RETURN JUMPDEST PUSH2 0xD0 PUSH1 0x4 DUP1 CALLDATASIZE SUB DUP2 ADD SWAP1 PUSH2 0xCB SWAP2 SWAP1 PUSH2 0x66E JUMP JUMPDEST PUSH2 0x3B1 JUMP JUMPDEST PUSH1 0x40 MLOAD PUSH2 0xDE SWAP3 SWAP2 SWAP1 PUSH2 0x6DB JUMP JUMPDEST PUSH1 0x40 MLOAD DUP1 SWAP2 SUB SWAP1 RETURN JUMPDEST PUSH0 DUP1 PUSH0 CALLER PUSH20 0xFFFFFFFFFFFFFFFFFFFFFFFFFFFFFFFFFFFFFFFF AND PUSH20 0xFFFFFFFFFFFFFFFFFFFFFFFFFFFFFFFFFFFFFFFF AND DUP2 MSTORE PUSH1 0x20 ADD SWAP1 DUP2 MSTORE PUSH1 0x20 ADD PUSH0 KECCAK256 SWAP1 POP DUP1 PUSH1 0x1 ADD PUSH0 SWAP1 SLOAD SWAP1 PUSH2 0x100 EXP SWAP1 DIV PUSH1 0xFF AND ISZERO PUSH2 0x177 JUMPI PUSH1 0x40 MLOAD PUSH32 0x8C379A000000000000000000000000000000000000000000000000000000000 DUP2 MSTORE PUSH1 0x4 ADD PUSH2 0x16E SWAP1 PUSH2 0x75C JUMP JUMPDEST PUSH1 0x40 MLOAD DUP1 SWAP2 SUB SWAP1 REVERT JUMPDEST PUSH0 DUP1 SHL DUP2 PUSH0 ADD SLOAD SUB PUSH2 0x1BE JUMPI PUSH1 0x40 MLOAD PUSH32 0x8C379A000000000000000000000000000000000000000000000000000000000 DUP2 MSTORE PUSH1 0x4 ADD PUSH2 0x1B5 SWAP1 PUSH2 0x7C4 JUMP JUMPDEST PUSH1 0x40 MLOAD DUP1 SWAP2 SUB SWAP1 REVERT JUMPDEST PUSH0 DUP4 DUP4 PUSH1 0x40 MLOAD PUSH1 0x20 ADD PUSH2 0x1D2 SWAP3 SWAP2 SWAP1 PUSH2 0x854 JUMP JUMPDEST PUSH1 0x40 MLOAD PUSH1 0x20 DUP2 DUP4 SUB SUB DUP2 MSTORE SWAP1 PUSH1 0x40 MSTORE DUP1 MLOAD SWAP1 PUSH1 0x20 ADD KECCAK256 SWAP1 POP DUP2 PUSH0 ADD SLOAD DUP2 EQ PUSH2 0x22F JUMPI PUSH1 0x40 MLOAD PUSH32 0x8C379A000000000000000000000000000000000000000000000000000000000 DUP2 MSTORE PUSH1 0x4 ADD PUSH2 0x226 SWAP1 PUSH2 0x8C5 JUMP JUMPDEST PUSH1 0x40 MLOAD DUP1 SWAP2 SUB SWAP1 REVERT JUMPDEST PUSH1 0x1 DUP3 PUSH1 0x1 ADD PUSH0 PUSH2 0x100 EXP DUP2 SLOAD DUP2 PUSH1 0xFF MUL NOT AND SWAP1 DUP4 ISZERO ISZERO MUL OR SWAP1 SSTORE POP POP POP POP POP JUMP JUMPDEST PUSH0 DUP1 CALLER PUSH20 0xFFFFFFFFFFFFFFFFFFFFFFFFFFFFFFFFFFFFFFFF AND PUSH20 0xFFFFFFFFFFFFFFFFFFFFFFFFFFFFFFFFFFFFFFFF AND DUP2 MSTORE PUSH1 0x20 ADD SWAP1 DUP2 MSTORE PUSH1 0x20 ADD PUSH0 KECCAK256 PUSH1 0x1 ADD PUSH0 SWAP1 SLOAD SWAP1 PUSH2 0x100 EXP SWAP1 DIV PUSH1 0xFF AND ISZERO PUSH2 0x2DD JUMPI PUSH1 0x40 MLOAD PUSH32 0x8C379A000000000000000000000000000000000000000000000000000000000 DUP2 MSTORE PUSH1 0x4 ADD PUSH2 0x2D4 SWAP1 PUSH2 0x92D JUMP JUMPDEST PUSH1 0x40 MLOAD DUP1 SWAP2 SUB SWAP1 REVERT JUMPDEST PUSH1 0x40 MLOAD DUP1 PUSH1 0x40 ADD PUSH1 0x40 MSTORE DUP1 DUP3 DUP2 MSTORE PUSH1 0x20 ADD PUSH0 ISZERO ISZERO DUP2 MSTORE POP PUSH0 DUP1 CALLER PUSH20 0xFFFFFFFFFFFFFFFFFFFFFFFFFFFFFFFFFFFFFFFF AND PUSH20 0xFFFFFFFFFFFFFFFFFFFFFFFFFFFFFFFFFFFFFFFF AND DUP2 MSTORE PUSH1 0x20 ADD SWAP1 DUP2 MSTORE PUSH1 0x20 ADD PUSH0 KECCAK256 PUSH0 DUP3 ADD MLOAD DUP2 PUSH0 ADD SSTORE PUSH1 0x20 DUP3 ADD MLOAD DUP2 PUSH1 0x1 ADD PUSH0 PUSH2 0x100 EXP DUP2 SLOAD DUP2 PUSH1 0xFF MUL NOT AND SWAP1 DUP4 ISZERO ISZERO MUL OR SWAP1 SSTORE POP SWAP1 POP POP POP JUMP JUMPDEST PUSH0 DUP1 PUSH0 DUP4 PUSH20 0xFFFFFFFFFFFFFFFFFFFFFFFFFFFFFFFFFFFFFFFF AND PUSH20 0xFFFFFFFFFFFFFFFFFFFFFFFFFFFFFFFFFFFFFFFF AND DUP2 MSTORE PUSH1 0x20 ADD SWAP1 DUP2 MSTORE PUSH1 0x20 ADD PUSH0 KECCAK256 PUSH1 0x1 ADD PUSH0 SWAP1 SLOAD SWAP1 PUSH2 0x100 EXP SWAP1 DIV PUSH1 0xFF AND SWAP1 POP SWAP2 SWAP1 POP JUMP JUMPDEST PUSH0 PUSH1 0x20 MSTORE DUP1 PUSH0 MSTORE PUSH1 0x40 PUSH0 KECCAK256 PUSH0 SWAP2 POP SWAP1 POP DUP1 PUSH0 ADD SLOAD SWAP1 DUP1 PUSH1 0x1 ADD PUSH0 SWAP1 SLOAD SWAP1 PUSH2 0x100 EXP SWAP1 DIV PUSH1 0xFF AND SWAP1 POP DUP3 JUMP JUMPDEST PUSH0 PUSH1 0x40 MLOAD SWAP1 POP SWAP1 JUMP JUMPDEST PUSH0 DUP1 REVERT JUMPDEST PUSH0 DUP1 REVERT JUMPDEST PUSH0 DUP1 REVERT JUMPDEST PUSH0 DUP1 REVERT JUMPDEST PUSH0 PUSH1 0x1F NOT PUSH1 0x1F DUP4 ADD AND SWAP1 POP SWAP2 SWAP1 POP JUMP JUMPDEST PUSH32 0x4E487B7100000000000000000000000000000000000000000000000000000000 PUSH0 MSTORE PUSH1 0x41 PUSH1 0x4 MSTORE PUSH1 0x24 PUSH0 REVERT JUMPDEST PUSH2 0x43B DUP3 PUSH2 0x3F5 JUMP JUMPDEST DUP2 ADD DUP2 DUP2 LT PUSH8 0xFFFFFFFFFFFFFFFF DUP3 GT OR ISZERO PUSH2 0x45A JUMPI PUSH2 0x459 PUSH2 0x405 JUMP JUMPDEST JUMPDEST DUP1 PUSH1 0x40 MSTORE POP POP POP JUMP JUMPDEST PUSH0 PUSH2 0x46C PUSH2 0x3DC JUMP JUMPDEST SWAP1 POP PUSH2 0x478 DUP3 DUP3 PUSH2 0x432 JUMP JUMPDEST SWAP2 SWAP1 POP JUMP JUMPDEST PUSH0 PUSH8 0xFFFFFFFFFFFFFFFF DUP3 GT ISZERO PUSH2 0x497 JUMPI PUSH2 0x496 PUSH2 0x405 JUMP JUMPDEST JUMPDEST PUSH2 0x4A0 DUP3 PUSH2 0x3F5 JUMP JUMPDEST SWAP1 POP PUSH1 0x20 DUP2 ADD SWAP1 POP SWAP2 SWAP1 POP JUMP JUMPDEST DUP3 DUP2 DUP4 CALLDATACOPY PUSH0 DUP4 DUP4 ADD MSTORE POP POP POP JUMP JUMPDEST PUSH0 PUSH2 0x4CD PUSH2 0x4C8 DUP5 PUSH2 0x47D JUMP JUMPDEST PUSH2 0x463 JUMP JUMPDEST SWAP1 POP DUP3 DUP2 MSTORE PUSH1 0x20 DUP2 ADD DUP5 DUP5 DUP5 ADD GT ISZERO PUSH2 0x4E9 JUMPI PUSH2 0x4E8 PUSH2 0x3F1 JUMP JUMPDEST JUMPDEST PUSH2 0x4F4 DUP5 DUP3 DUP6 PUSH2 0x4AD JUMP JUMPDEST POP SWAP4 SWAP3 POP POP POP JUMP JUMPDEST PUSH0 DUP3 PUSH1 0x1F DUP4 ADD SLT PUSH2 0x510 JUMPI PUSH2 0x50F PUSH2 0x3ED JUMP JUMPDEST JUMPDEST DUP2 CALLDATALOAD PUSH2 0x520 DUP5 DUP3 PUSH1 0x20 DUP7 ADD PUSH2 0x4BB JUMP JUMPDEST SWAP2 POP POP SWAP3 SWAP2 POP POP JUMP JUMPDEST PUSH0 DUP2 SWAP1 POP SWAP2 SWAP1 POP JUMP JUMPDEST PUSH2 0x53B DUP2 PUSH2 0x529 JUMP JUMPDEST DUP2 EQ PUSH2 0x545 JUMPI PUSH0 DUP1 REVERT JUMPDEST POP JUMP JUMPDEST PUSH0 DUP2 CALLDATALOAD SWAP1 POP PUSH2 0x556 DUP2 PUSH2 0x532 JUMP JUMPDEST SWAP3 SWAP2 POP POP JUMP JUMPDEST PUSH0 DUP1 PUSH1 0x40 DUP4 DUP6 SUB SLT ISZERO PUSH2 0x572 JUMPI PUSH2 0x571 PUSH2 0x3E5 JUMP JUMPDEST JUMPDEST PUSH0 DUP4 ADD CALLDATALOAD PUSH8 0xFFFFFFFFFFFFFFFF DUP2 GT ISZERO PUSH2 0x58F JUMPI PUSH2 0x58E PUSH2 0x3E9 JUMP JUMPDEST JUMPDEST PUSH2 0x59B DUP6 DUP3 DUP7 ADD PUSH2 0x4FC JUMP JUMPDEST SWAP3 POP POP PUSH1 0x20 PUSH2 0x5AC DUP6 DUP3 DUP7 ADD PUSH2 0x548 JUMP JUMPDEST SWAP2 POP POP SWAP3 POP SWAP3 SWAP1 POP JUMP JUMPDEST PUSH0 DUP2 SWAP1 POP SWAP2 SWAP1 POP JUMP JUMPDEST PUSH2 0x5C8 DUP2 PUSH2 0x5B6 JUMP JUMPDEST DUP2 EQ PUSH2 0x5D2 JUMPI PUSH0 DUP1 REVERT JUMPDEST POP JUMP JUMPDEST PUSH0 DUP2 CALLDATALOAD SWAP1 POP PUSH2 0x5E3 DUP2 PUSH2 0x5BF JUMP JUMPDEST SWAP3 SWAP2 POP POP JUMP JUMPDEST PUSH0 PUSH1 0x20 DUP3 DUP5 SUB SLT ISZERO PUSH2 0x5FE JUMPI PUSH2 0x5FD PUSH2 0x3E5 JUMP JUMPDEST JUMPDEST PUSH0 PUSH2 0x60B DUP5 DUP3 DUP6 ADD PUSH2 0x5D5 JUMP JUMPDEST SWAP2 POP POP SWAP3 SWAP2 POP POP JUMP JUMPDEST PUSH0 PUSH20 0xFFFFFFFFFFFFFFFFFFFFFFFFFFFFFFFFFFFFFFFF DUP3 AND SWAP1 POP SWAP2 SWAP1 POP JUMP JUMPDEST PUSH0 PUSH2 0x63D DUP3 PUSH2 0x614 JUMP JUMPDEST SWAP1 POP SWAP2 SWAP1 POP JUMP JUMPDEST PUSH2 0x64D DUP2 PUSH2 0x633 JUMP JUMPDEST DUP2 EQ PUSH2 0x657 JUMPI PUSH0 DUP1 REVERT JUMPDEST POP JUMP JUMPDEST PUSH0 DUP2 CALLDATALOAD SWAP1 POP PUSH2 0x668 DUP2 PUSH2 0x644 JUMP JUMPDEST SWAP3 SWAP2 POP POP JUMP JUMPDEST PUSH0 PUSH1 0x20 DUP3 DUP5 SUB SLT ISZERO PUSH2 0x683 JUMPI PUSH2 0x682 PUSH2 0x3E5 JUMP JUMPDEST JUMPDEST PUSH0 PUSH2 0x690 DUP5 DUP3 DUP6 ADD PUSH2 0x65A JUMP JUMPDEST SWAP2 POP POP SWAP3 SWAP2 POP POP JUMP JUMPDEST PUSH0 DUP2 ISZERO ISZERO SWAP1 POP SWAP2 SWAP1 POP JUMP JUMPDEST PUSH2 0x6AD DUP2 PUSH2 0x699 JUMP JUMPDEST DUP3 MSTORE POP POP JUMP JUMPDEST PUSH0 PUSH1 0x20 DUP3 ADD SWAP1 POP PUSH2 0x6C6 PUSH0 DUP4 ADD DUP5 PUSH2 0x6A4 JUMP JUMPDEST SWAP3 SWAP2 POP POP JUMP JUMPDEST PUSH2 0x6D5 DUP2 PUSH2 0x5B6 JUMP JUMPDEST DUP3 MSTORE POP POP JUMP JUMPDEST PUSH0 PUSH1 0x40 DUP3 ADD SWAP1 POP PUSH2 0x6EE PUSH0 DUP4 ADD DUP6 PUSH2 0x6CC JUMP JUMPDEST PUSH2 0x6FB PUSH1 0x20 DUP4 ADD DUP5 PUSH2 0x6A4 JUMP JUMPDEST SWAP4 SWAP3 POP POP POP JUMP JUMPDEST PUSH0 DUP3 DUP3 MSTORE PUSH1 0x20 DUP3 ADD SWAP1 POP SWAP3 SWAP2 POP POP JUMP JUMPDEST PUSH32 0x436F6D6D69746D656E7420616C72656164792072657665616C65642E00000000 PUSH0 DUP3 ADD MSTORE POP JUMP JUMPDEST PUSH0 PUSH2 0x746 PUSH1 0x1C DUP4 PUSH2 0x702 JUMP JUMPDEST SWAP2 POP PUSH2 0x751 DUP3 PUSH2 0x712 JUMP JUMPDEST PUSH1 0x20 DUP3 ADD SWAP1 POP SWAP2 SWAP1 POP JUMP JUMPDEST PUSH0 PUSH1 0x20 DUP3 ADD SWAP1 POP DUP2 DUP2 SUB PUSH0 DUP4 ADD MSTORE PUSH2 0x773 DUP2 PUSH2 0x73A JUMP JUMPDEST SWAP1 POP SWAP2 SWAP1 POP JUMP JUMPDEST PUSH32 0x4E6F20636F6D6D69746D656E74206D6164652E00000000000000000000000000 PUSH0 DUP3 ADD MSTORE POP JUMP JUMPDEST PUSH0 PUSH2 0x7AE PUSH1 0x13 DUP4 PUSH2 0x702 JUMP JUMPDEST SWAP2 POP PUSH2 0x7B9 DUP3 PUSH2 0x77A JUMP JUMPDEST PUSH1 0x20 DUP3 ADD SWAP1 POP SWAP2 SWAP1 POP JUMP JUMPDEST PUSH0 PUSH1 0x20 DUP3 ADD SWAP1 POP DUP2 DUP2 SUB PUSH0 DUP4 ADD MSTORE PUSH2 0x7DB DUP2 PUSH2 0x7A2 JUMP JUMPDEST SWAP1 POP SWAP2 SWAP1 POP JUMP JUMPDEST PUSH0 DUP2 MLOAD SWAP1 POP SWAP2 SWAP1 POP JUMP JUMPDEST PUSH0 DUP2 SWAP1 POP SWAP3 SWAP2 POP POP JUMP JUMPDEST DUP3 DUP2 DUP4 MCOPY PUSH0 DUP4 DUP4 ADD MSTORE POP POP POP JUMP JUMPDEST PUSH0 PUSH2 0x80E DUP3 PUSH2 0x7E2 JUMP JUMPDEST PUSH2 0x818 DUP2 DUP6 PUSH2 0x7EC JUMP JUMPDEST SWAP4 POP PUSH2 0x828 DUP2 DUP6 PUSH1 0x20 DUP7 ADD PUSH2 0x7F6 JUMP JUMPDEST DUP1 DUP5 ADD SWAP2 POP POP SWAP3 SWAP2 POP POP JUMP JUMPDEST PUSH0 DUP2 SWAP1 POP SWAP2 SWAP1 POP JUMP JUMPDEST PUSH2 0x84E PUSH2 0x849 DUP3 PUSH2 0x529 JUMP JUMPDEST PUSH2 0x834 JUMP JUMPDEST DUP3 MSTORE POP POP JUMP JUMPDEST PUSH0 PUSH2 0x85F DUP3 DUP6 PUSH2 0x804 JUMP JUMPDEST SWAP2 POP PUSH2 0x86B DUP3 DUP5 PUSH2 0x83D JUMP JUMPDEST PUSH1 0x20 DUP3 ADD SWAP2 POP DUP2 SWAP1 POP SWAP4 SWAP3 POP POP POP JUMP JUMPDEST PUSH32 0x436F6D6D69746D656E7420646F6573206E6F74206D617463682E000000000000 PUSH0 DUP3 ADD MSTORE POP JUMP JUMPDEST PUSH0 PUSH2 0x8AF PUSH1 0x1A DUP4 PUSH2 0x702 JUMP JUMPDEST SWAP2 POP PUSH2 0x8BA DUP3 PUSH2 0x87B JUMP JUMPDEST PUSH1 0x20 DUP3 ADD SWAP1 POP SWAP2 SWAP1 POP JUMP JUMPDEST PUSH0 PUSH1 0x20 DUP3 ADD SWAP1 POP DUP2 DUP2 SUB PUSH0 DUP4 ADD MSTORE PUSH2 0x8DC DUP2 PUSH2 0x8A3 JUMP JUMPDEST SWAP1 POP SWAP2 SWAP1 POP JUMP JUMPDEST PUSH32 0x416C726561647920636F6D6D697474656420616E642072657665616C65642E00 PUSH0 DUP3 ADD MSTORE POP JUMP JUMPDEST PUSH0 PUSH2 0x917 PUSH1 0x1F DUP4 PUSH2 0x702 JUMP JUMPDEST SWAP2 POP PUSH2 0x922 DUP3 PUSH2 0x8E3 JUMP JUMPDEST PUSH1 0x20 DUP3 ADD SWAP1 POP SWAP2 SWAP1 POP JUMP JUMPDEST PUSH0 PUSH1 0x20 DUP3 ADD SWAP1 POP DUP2 DUP2 SUB PUSH0 DUP4 ADD MSTORE PUSH2 0x944 DUP2 PUSH2 0x90B JUMP JUMPDEST SWAP1 POP SWAP2 SWAP1 POP JUMP INVALID LOG2 PUSH5 0x6970667358 0x22 SLT KECCAK256 0xE7 LOG1 0x25 0xA7 GAS JUMPDEST SWAP7 0xAF PUSH16 0x141BD79A2860CA6CDD7236E8CBBCD10E MULMOD STOP 0xDB 0xCA PUSH23 0xD57064736F6C634300081A0033A2646970667358221220 0x4B CREATE PUSH6 0x4105563053E7 0xF 0xE8 0xE5 0xF6 DUP9 BLOCKHASH MSTORE8 0xF9 0xF6 SWAP12 0x24 SSTORE 0xC2 0xEE PUSH20 0x29215FF9B9BFCBAB64736F6C634300081A003300 "
		},
		"gasEstimates": {
			"creation": {
				"codeDepositCost": "1836200",
				"executionCost": "1931",
				"totalCost": "1838131"
			},
			"external": {
				"beforeAll()": "infinite",
				"commitmentScheme()": "infinite",
				"testIsRevealed()": "infinite",
				"testMakeCommitment()": "infinite",
				"testMakeCommitmentAfterReveal()": "infinite",
				"testRevealCommitment()": "infinite",
				"testRevealCommitmentFail()": "infinite",
				"testRevealCommitmentTwice()": "infinite",
				"user1()": "2552",
				"user2()": "2574"
			}
		},
		"methodIdentifiers": {
			"beforeAll()": "7fea0d4b",
			"commitmentScheme()": "c84d676a",
			"testIsRevealed()": "78d5cc8f",
			"testMakeCommitment()": "5b20bfbd",
			"testMakeCommitmentAfterReveal()": "71fb9725",
			"testRevealCommitment()": "096241db",
			"testRevealCommitmentFail()": "98237eae",
			"testRevealCommitmentTwice()": "9d5a7766",
			"user1()": "ac1717b0",
			"user2()": "b9edb1af"
		}
	},
	"abi": [
		{
			"inputs": [],
			"name": "beforeAll",
			"outputs": [],
			"stateMutability": "nonpayable",
			"type": "function"
		},
		{
			"inputs": [],
			"name": "commitmentScheme",
			"outputs": [
				{
					"internalType": "contract CommitmentScheme",
					"name": "",
					"type": "address"
				}
			],
			"stateMutability": "view",
			"type": "function"
		},
		{
			"inputs": [],
			"name": "testIsRevealed",
			"outputs": [],
			"stateMutability": "nonpayable",
			"type": "function"
		},
		{
			"inputs": [],
			"name": "testMakeCommitment",
			"outputs": [],
			"stateMutability": "nonpayable",
			"type": "function"
		},
		{
			"inputs": [],
			"name": "testMakeCommitmentAfterReveal",
			"outputs": [],
			"stateMutability": "nonpayable",
			"type": "function"
		},
		{
			"inputs": [],
			"name": "testRevealCommitment",
			"outputs": [],
			"stateMutability": "nonpayable",
			"type": "function"
		},
		{
			"inputs": [],
			"name": "testRevealCommitmentFail",
			"outputs": [],
			"stateMutability": "nonpayable",
			"type": "function"
		},
		{
			"inputs": [],
			"name": "testRevealCommitmentTwice",
			"outputs": [],
			"stateMutability": "nonpayable",
			"type": "function"
		},
		{
			"inputs": [],
			"name": "user1",
			"outputs": [
				{
					"internalType": "address",
					"name": "",
					"type": "address"
				}
			],
			"stateMutability": "view",
			"type": "function"
		},
		{
			"inputs": [],
			"name": "user2",
			"outputs": [
				{
					"internalType": "address",
					"name": "",
					"type": "address"
				}
			],
			"stateMutability": "view",
			"type": "function"
		}
	]
}