{
	"data": {
		"bytecode": {
			"linkReferences": {},
			"object": "60f461004c600b8282823980515f1a6073146040577f4e487b71000000000000000000000000000000000000000000000000000000005f525f60045260245ffd5b305f52607381538281f3fe73000000000000000000000000000000000000000030146080604052600436106032575f3560e01c80635b7b3d58146036575b5f80fd5b603c6050565b6040516047919060a7565b60405180910390f35b5f8060586065565b9050806003015491505090565b5f807f755d7b3c7227e1f30e6cde2e9db88bc1d20ae16efd7e1368f3c80b4bf3d6e53a90508091505090565b5f819050919050565b60a1816091565b82525050565b5f60208201905060b85f830184609a565b9291505056fea2646970667358221220fe3693e75a8e86160f7be9fff7788bcbeda3fdc4fd2fa9eaa512ad094d9b19ac64736f6c634300081a0033",
			"opcodes": "PUSH1 0xF4 PUSH2 0x4C PUSH1 0xB DUP3 DUP3 DUP3 CODECOPY DUP1 MLOAD PUSH0 BYTE PUSH1 0x73 EQ PUSH1 0x40 JUMPI PUSH32 0x4E487B7100000000000000000000000000000000000000000000000000000000 PUSH0 MSTORE PUSH0 PUSH1 0x4 MSTORE PUSH1 0x24 PUSH0 REVERT JUMPDEST ADDRESS PUSH0 MSTORE PUSH1 0x73 DUP2 MSTORE8 DUP3 DUP2 RETURN INVALID PUSH20 0x0 ADDRESS EQ PUSH1 0x80 PUSH1 0x40 MSTORE PUSH1 0x4 CALLDATASIZE LT PUSH1 0x32 JUMPI PUSH0 CALLDATALOAD PUSH1 0xE0 SHR DUP1 PUSH4 0x5B7B3D58 EQ PUSH1 0x36 JUMPI JUMPDEST PUSH0 DUP1 REVERT JUMPDEST PUSH1 0x3C PUSH1 0x50 JUMP JUMPDEST PUSH1 0x40 MLOAD PUSH1 0x47 SWAP2 SWAP1 PUSH1 0xA7 JUMP JUMPDEST PUSH1 0x40 MLOAD DUP1 SWAP2 SUB SWAP1 RETURN JUMPDEST PUSH0 DUP1 PUSH1 0x58 PUSH1 0x65 JUMP JUMPDEST SWAP1 POP DUP1 PUSH1 0x3 ADD SLOAD SWAP2 POP POP SWAP1 JUMP JUMPDEST PUSH0 DUP1 PUSH32 0x755D7B3C7227E1F30E6CDE2E9DB88BC1D20AE16EFD7E1368F3C80B4BF3D6E53A SWAP1 POP DUP1 SWAP2 POP POP SWAP1 JUMP JUMPDEST PUSH0 DUP2 SWAP1 POP SWAP2 SWAP1 POP JUMP JUMPDEST PUSH1 0xA1 DUP2 PUSH1 0x91 JUMP JUMPDEST DUP3 MSTORE POP POP JUMP JUMPDEST PUSH0 PUSH1 0x20 DUP3 ADD SWAP1 POP PUSH1 0xB8 PUSH0 DUP4 ADD DUP5 PUSH1 0x9A JUMP JUMPDEST SWAP3 SWAP2 POP POP JUMP INVALID LOG2 PUSH5 0x6970667358 0x22 SLT KECCAK256 INVALID CALLDATASIZE SWAP4 0xE7 GAS DUP15 DUP7 AND 0xF PUSH28 0xE9FFF7788BCBEDA3FDC4FD2FA9EAA512AD094D9B19AC64736F6C6343 STOP ADDMOD BYTE STOP CALLER "
		},
		"gasEstimates": {
			"creation": {
				"codeDepositCost": "48800",
				"executionCost": "122",
				"totalCost": "48922"
			},
			"external": {
				"getCurrentLotteryNo()": "2460"
			},
			"internal": {
				"addLottery(uint256,struct LotteryStructs.Lottery memory)": "infinite",
				"addTicket(uint256,struct LotteryStructs.Ticket memory)": "infinite",
				"getLottery(uint256)": "infinite",
				"getStorage()": "35",
				"getTickets(uint256)": "infinite",
				"updateCurrentLotteryNo(uint256)": "infinite"
			}
		},
		"methodIdentifiers": {
			"getCurrentLotteryNo()": "5b7b3d58"
		}
	},
	"abi": [
		{
			"inputs": [],
			"name": "getCurrentLotteryNo",
			"outputs": [
				{
					"internalType": "uint256",
					"name": "",
					"type": "uint256"
				}
			],
			"stateMutability": "view",
			"type": "function"
		}
	]
}