{
	"contracts/DiamondLoupeFacet.sol": {
		"DiamondLoupeFacet": {
			"abi": [
				{
					"inputs": [
						{
							"internalType": "bytes4",
							"name": "_functionSelector",
							"type": "bytes4"
						}
					],
					"name": "facetAddress",
					"outputs": [
						{
							"internalType": "address",
							"name": "",
							"type": "address"
						}
					],
					"stateMutability": "view",
					"type": "function"
				},
				{
					"inputs": [],
					"name": "facetAddresses",
					"outputs": [
						{
							"internalType": "address[]",
							"name": "",
							"type": "address[]"
						}
					],
					"stateMutability": "view",
					"type": "function"
				}
			],
			"devdoc": {
				"kind": "dev",
				"methods": {},
				"version": 1
			},
			"evm": {
				"assembly": "    /* \"contracts/DiamondLoupeFacet.sol\":140:770  contract DiamondLoupeFacet is IDiamondLoupe {... */\n  mstore(0x40, 0x80)\n  callvalue\n  dup1\n  iszero\n  tag_1\n  jumpi\n  0x00\n  dup1\n  revert\ntag_1:\n  pop\n  dataSize(sub_0)\n  dup1\n  dataOffset(sub_0)\n  0x00\n  codecopy\n  0x00\n  return\nstop\n\nsub_0: assembly {\n        /* \"contracts/DiamondLoupeFacet.sol\":140:770  contract DiamondLoupeFacet is IDiamondLoupe {... */\n      mstore(0x40, 0x80)\n      callvalue\n      dup1\n      iszero\n      tag_1\n      jumpi\n      0x00\n      dup1\n      revert\n    tag_1:\n      pop\n      jumpi(tag_2, lt(calldatasize, 0x04))\n      shr(0xe0, calldataload(0x00))\n      dup1\n      0x52ef6b2c\n      eq\n      tag_3\n      jumpi\n      dup1\n      0xcdffacc6\n      eq\n      tag_4\n      jumpi\n    tag_2:\n      0x00\n      dup1\n      revert\n        /* \"contracts/DiamondLoupeFacet.sol\":366:768  function facetAddresses() external view override returns (address[] memory) {... */\n    tag_3:\n      tag_5\n      tag_6\n      jump\t// in\n    tag_5:\n      mload(0x40)\n      tag_7\n      swap2\n      swap1\n      tag_8\n      jump\t// in\n    tag_7:\n      mload(0x40)\n      dup1\n      swap2\n      sub\n      swap1\n      return\n        /* \"contracts/DiamondLoupeFacet.sol\":190:360  function facetAddress(bytes4 _functionSelector) external view override returns (address) {... */\n    tag_4:\n      tag_9\n      0x04\n      dup1\n      calldatasize\n      sub\n      dup2\n      add\n      swap1\n      tag_10\n      swap2\n      swap1\n      tag_11\n      jump\t// in\n    tag_10:\n      tag_12\n      jump\t// in\n    tag_9:\n      mload(0x40)\n      tag_13\n      swap2\n      swap1\n      tag_14\n      jump\t// in\n    tag_13:\n      mload(0x40)\n      dup1\n      swap2\n      sub\n      swap1\n      return\n        /* \"contracts/DiamondLoupeFacet.sol\":366:768  function facetAddresses() external view override returns (address[] memory) {... */\n    tag_6:\n        /* \"contracts/DiamondLoupeFacet.sol\":424:440  address[] memory */\n      0x60\n        /* \"contracts/DiamondLoupeFacet.sol\":452:498  DiamondStorage.DiamondStorageStruct storage ds */\n      0x00\n        /* \"contracts/DiamondLoupeFacet.sol\":501:532  DiamondStorage.diamondStorage() */\n      tag_16\n        /* \"contracts/DiamondLoupeFacet.sol\":501:530  DiamondStorage.diamondStorage */\n      tag_17\n        /* \"contracts/DiamondLoupeFacet.sol\":501:532  DiamondStorage.diamondStorage() */\n      jump\t// in\n    tag_16:\n        /* \"contracts/DiamondLoupeFacet.sol\":452:532  DiamondStorage.DiamondStorageStruct storage ds = DiamondStorage.diamondStorage() */\n      swap1\n      pop\n        /* \"contracts/DiamondLoupeFacet.sol\":542:555  uint256 count */\n      0x00\n        /* \"contracts/DiamondLoupeFacet.sol\":558:560  ds */\n      dup2\n        /* \"contracts/DiamondLoupeFacet.sol\":558:571  ds.facetCount */\n      0x04\n      add\n      sload\n        /* \"contracts/DiamondLoupeFacet.sol\":542:571  uint256 count = ds.facetCount */\n      swap1\n      pop\n        /* \"contracts/DiamondLoupeFacet.sol\":581:607  address[] memory addresses */\n      0x00\n        /* \"contracts/DiamondLoupeFacet.sol\":624:629  count */\n      dup2\n        /* \"contracts/DiamondLoupeFacet.sol\":610:630  new address[](count) */\n      0xffffffffffffffff\n      dup2\n      gt\n      iszero\n      tag_18\n      jumpi\n      tag_19\n      tag_20\n      jump\t// in\n    tag_19:\n    tag_18:\n      mload(0x40)\n      swap1\n      dup1\n      dup3\n      mstore\n      dup1\n      0x20\n      mul\n      0x20\n      add\n      dup3\n      add\n      0x40\n      mstore\n      dup1\n      iszero\n      tag_21\n      jumpi\n      dup2\n      0x20\n      add\n      0x20\n      dup3\n      mul\n      dup1\n      calldatasize\n      dup4\n      calldatacopy\n      dup1\n      dup3\n      add\n      swap2\n      pop\n      pop\n      swap1\n      pop\n    tag_21:\n      pop\n        /* \"contracts/DiamondLoupeFacet.sol\":581:630  address[] memory addresses = new address[](count) */\n      swap1\n      pop\n        /* \"contracts/DiamondLoupeFacet.sol\":645:654  uint256 i */\n      0x00\n        /* \"contracts/DiamondLoupeFacet.sol\":640:736  for (uint256 i = 0; i < count; i++) {... */\n    tag_22:\n        /* \"contracts/DiamondLoupeFacet.sol\":664:669  count */\n      dup3\n        /* \"contracts/DiamondLoupeFacet.sol\":660:661  i */\n      dup2\n        /* \"contracts/DiamondLoupeFacet.sol\":660:669  i < count */\n      lt\n        /* \"contracts/DiamondLoupeFacet.sol\":640:736  for (uint256 i = 0; i < count; i++) {... */\n      iszero\n      tag_23\n      jumpi\n        /* \"contracts/DiamondLoupeFacet.sol\":705:707  ds */\n      dup4\n        /* \"contracts/DiamondLoupeFacet.sol\":705:722  ds.facetAddresses */\n      0x01\n      add\n        /* \"contracts/DiamondLoupeFacet.sol\":723:724  i */\n      dup2\n        /* \"contracts/DiamondLoupeFacet.sol\":705:725  ds.facetAddresses[i] */\n      dup2\n      sload\n      dup2\n      lt\n      tag_25\n      jumpi\n      tag_26\n      tag_27\n      jump\t// in\n    tag_26:\n    tag_25:\n      swap1\n      0x00\n      mstore\n      keccak256(0x00, 0x20)\n      add\n      0x00\n      swap1\n      sload\n      swap1\n      0x0100\n      exp\n      swap1\n      div\n      0xffffffffffffffffffffffffffffffffffffffff\n      and\n        /* \"contracts/DiamondLoupeFacet.sol\":690:699  addresses */\n      dup3\n        /* \"contracts/DiamondLoupeFacet.sol\":700:701  i */\n      dup3\n        /* \"contracts/DiamondLoupeFacet.sol\":690:702  addresses[i] */\n      dup2\n      mload\n      dup2\n      lt\n      tag_29\n      jumpi\n      tag_30\n      tag_27\n      jump\t// in\n    tag_30:\n    tag_29:\n      0x20\n      mul\n      0x20\n      add\n      add\n        /* \"contracts/DiamondLoupeFacet.sol\":690:725  addresses[i] = ds.facetAddresses[i] */\n      swap1\n      0xffffffffffffffffffffffffffffffffffffffff\n      and\n      swap1\n      dup2\n      0xffffffffffffffffffffffffffffffffffffffff\n      and\n      dup2\n      mstore\n      pop\n      pop\n        /* \"contracts/DiamondLoupeFacet.sol\":671:674  i++ */\n      dup1\n      dup1\n      0x01\n      add\n      swap2\n      pop\n      pop\n        /* \"contracts/DiamondLoupeFacet.sol\":640:736  for (uint256 i = 0; i < count; i++) {... */\n      jump(tag_22)\n    tag_23:\n      pop\n        /* \"contracts/DiamondLoupeFacet.sol\":752:761  addresses */\n      dup1\n        /* \"contracts/DiamondLoupeFacet.sol\":745:761  return addresses */\n      swap4\n      pop\n      pop\n      pop\n      pop\n        /* \"contracts/DiamondLoupeFacet.sol\":366:768  function facetAddresses() external view override returns (address[] memory) {... */\n      swap1\n      jump\t// out\n        /* \"contracts/DiamondLoupeFacet.sol\":190:360  function facetAddress(bytes4 _functionSelector) external view override returns (address) {... */\n    tag_12:\n        /* \"contracts/DiamondLoupeFacet.sol\":270:277  address */\n      0x00\n        /* \"contracts/DiamondLoupeFacet.sol\":296:327  DiamondStorage.diamondStorage() */\n      tag_32\n        /* \"contracts/DiamondLoupeFacet.sol\":296:325  DiamondStorage.diamondStorage */\n      tag_17\n        /* \"contracts/DiamondLoupeFacet.sol\":296:327  DiamondStorage.diamondStorage() */\n      jump\t// in\n    tag_32:\n        /* \"contracts/DiamondLoupeFacet.sol\":296:334  DiamondStorage.diamondStorage().facets */\n      0x00\n      add\n        /* \"contracts/DiamondLoupeFacet.sol\":296:353  DiamondStorage.diamondStorage().facets[_functionSelector] */\n      0x00\n        /* \"contracts/DiamondLoupeFacet.sol\":335:352  _functionSelector */\n      dup4\n        /* \"contracts/DiamondLoupeFacet.sol\":296:353  DiamondStorage.diamondStorage().facets[_functionSelector] */\n      not(0xffffffffffffffffffffffffffffffffffffffffffffffffffffffff)\n      and\n      not(0xffffffffffffffffffffffffffffffffffffffffffffffffffffffff)\n      and\n      dup2\n      mstore\n      0x20\n      add\n      swap1\n      dup2\n      mstore\n      0x20\n      add\n      0x00\n      keccak256\n      0x00\n      swap1\n      sload\n      swap1\n      0x0100\n      exp\n      swap1\n      div\n      0xffffffffffffffffffffffffffffffffffffffff\n      and\n        /* \"contracts/DiamondLoupeFacet.sol\":289:353  return DiamondStorage.diamondStorage().facets[_functionSelector] */\n      swap1\n      pop\n        /* \"contracts/DiamondLoupeFacet.sol\":190:360  function facetAddress(bytes4 _functionSelector) external view override returns (address) {... */\n      swap2\n      swap1\n      pop\n      jump\t// out\n        /* \"contracts/libraries/DiamondStorage.sol\":730:933  function diamondStorage() internal pure returns (DiamondStorageStruct storage ds) {... */\n    tag_17:\n        /* \"contracts/libraries/DiamondStorage.sol\":779:810  DiamondStorageStruct storage ds */\n      0x00\n        /* \"contracts/libraries/DiamondStorage.sol\":822:838  bytes32 position */\n      dup1\n        /* \"contracts/libraries/DiamondStorage.sol\":130:175  keccak256(\"diamond.standard.diamond.storage\") */\n      0xc8fcad8db84d3cc18b4c41d551ea0ee66dd599cde068d998e57d5e09332c131c\n        /* \"contracts/libraries/DiamondStorage.sol\":822:865  bytes32 position = DIAMOND_STORAGE_POSITION */\n      swap1\n      pop\n        /* \"contracts/libraries/DiamondStorage.sol\":909:917  position */\n      dup1\n        /* \"contracts/libraries/DiamondStorage.sol\":898:917  ds.slot := position */\n      swap2\n      pop\n        /* \"contracts/libraries/DiamondStorage.sol\":884:927  {... */\n      pop\n        /* \"contracts/libraries/DiamondStorage.sol\":730:933  function diamondStorage() internal pure returns (DiamondStorageStruct storage ds) {... */\n      swap1\n      jump\t// out\n        /* \"#utility.yul\":7:121   */\n    tag_34:\n        /* \"#utility.yul\":74:80   */\n      0x00\n        /* \"#utility.yul\":108:113   */\n      dup2\n        /* \"#utility.yul\":102:114   */\n      mload\n        /* \"#utility.yul\":92:114   */\n      swap1\n      pop\n        /* \"#utility.yul\":7:121   */\n      swap2\n      swap1\n      pop\n      jump\t// out\n        /* \"#utility.yul\":127:311   */\n    tag_35:\n        /* \"#utility.yul\":226:237   */\n      0x00\n        /* \"#utility.yul\":260:266   */\n      dup3\n        /* \"#utility.yul\":255:258   */\n      dup3\n        /* \"#utility.yul\":248:267   */\n      mstore\n        /* \"#utility.yul\":300:304   */\n      0x20\n        /* \"#utility.yul\":295:298   */\n      dup3\n        /* \"#utility.yul\":291:305   */\n      add\n        /* \"#utility.yul\":276:305   */\n      swap1\n      pop\n        /* \"#utility.yul\":127:311   */\n      swap3\n      swap2\n      pop\n      pop\n      jump\t// out\n        /* \"#utility.yul\":317:449   */\n    tag_36:\n        /* \"#utility.yul\":384:388   */\n      0x00\n        /* \"#utility.yul\":407:410   */\n      dup2\n        /* \"#utility.yul\":399:410   */\n      swap1\n      pop\n        /* \"#utility.yul\":437:441   */\n      0x20\n        /* \"#utility.yul\":432:435   */\n      dup3\n        /* \"#utility.yul\":428:442   */\n      add\n        /* \"#utility.yul\":420:442   */\n      swap1\n      pop\n        /* \"#utility.yul\":317:449   */\n      swap2\n      swap1\n      pop\n      jump\t// out\n        /* \"#utility.yul\":455:581   */\n    tag_37:\n        /* \"#utility.yul\":492:499   */\n      0x00\n        /* \"#utility.yul\":532:574   */\n      0xffffffffffffffffffffffffffffffffffffffff\n        /* \"#utility.yul\":525:530   */\n      dup3\n        /* \"#utility.yul\":521:575   */\n      and\n        /* \"#utility.yul\":510:575   */\n      swap1\n      pop\n        /* \"#utility.yul\":455:581   */\n      swap2\n      swap1\n      pop\n      jump\t// out\n        /* \"#utility.yul\":587:683   */\n    tag_38:\n        /* \"#utility.yul\":624:631   */\n      0x00\n        /* \"#utility.yul\":653:677   */\n      tag_56\n        /* \"#utility.yul\":671:676   */\n      dup3\n        /* \"#utility.yul\":653:677   */\n      tag_37\n      jump\t// in\n    tag_56:\n        /* \"#utility.yul\":642:677   */\n      swap1\n      pop\n        /* \"#utility.yul\":587:683   */\n      swap2\n      swap1\n      pop\n      jump\t// out\n        /* \"#utility.yul\":689:797   */\n    tag_39:\n        /* \"#utility.yul\":766:790   */\n      tag_58\n        /* \"#utility.yul\":784:789   */\n      dup2\n        /* \"#utility.yul\":766:790   */\n      tag_38\n      jump\t// in\n    tag_58:\n        /* \"#utility.yul\":761:764   */\n      dup3\n        /* \"#utility.yul\":754:791   */\n      mstore\n        /* \"#utility.yul\":689:797   */\n      pop\n      pop\n      jump\t// out\n        /* \"#utility.yul\":803:982   */\n    tag_40:\n        /* \"#utility.yul\":872:882   */\n      0x00\n        /* \"#utility.yul\":893:939   */\n      tag_60\n        /* \"#utility.yul\":935:938   */\n      dup4\n        /* \"#utility.yul\":927:933   */\n      dup4\n        /* \"#utility.yul\":893:939   */\n      tag_39\n      jump\t// in\n    tag_60:\n        /* \"#utility.yul\":971:975   */\n      0x20\n        /* \"#utility.yul\":966:969   */\n      dup4\n        /* \"#utility.yul\":962:976   */\n      add\n        /* \"#utility.yul\":948:976   */\n      swap1\n      pop\n        /* \"#utility.yul\":803:982   */\n      swap3\n      swap2\n      pop\n      pop\n      jump\t// out\n        /* \"#utility.yul\":988:1101   */\n    tag_41:\n        /* \"#utility.yul\":1058:1062   */\n      0x00\n        /* \"#utility.yul\":1090:1094   */\n      0x20\n        /* \"#utility.yul\":1085:1088   */\n      dup3\n        /* \"#utility.yul\":1081:1095   */\n      add\n        /* \"#utility.yul\":1073:1095   */\n      swap1\n      pop\n        /* \"#utility.yul\":988:1101   */\n      swap2\n      swap1\n      pop\n      jump\t// out\n        /* \"#utility.yul\":1137:1869   */\n    tag_42:\n        /* \"#utility.yul\":1256:1259   */\n      0x00\n        /* \"#utility.yul\":1285:1339   */\n      tag_63\n        /* \"#utility.yul\":1333:1338   */\n      dup3\n        /* \"#utility.yul\":1285:1339   */\n      tag_34\n      jump\t// in\n    tag_63:\n        /* \"#utility.yul\":1355:1441   */\n      tag_64\n        /* \"#utility.yul\":1434:1440   */\n      dup2\n        /* \"#utility.yul\":1429:1432   */\n      dup6\n        /* \"#utility.yul\":1355:1441   */\n      tag_35\n      jump\t// in\n    tag_64:\n        /* \"#utility.yul\":1348:1441   */\n      swap4\n      pop\n        /* \"#utility.yul\":1465:1521   */\n      tag_65\n        /* \"#utility.yul\":1515:1520   */\n      dup4\n        /* \"#utility.yul\":1465:1521   */\n      tag_36\n      jump\t// in\n    tag_65:\n        /* \"#utility.yul\":1544:1551   */\n      dup1\n        /* \"#utility.yul\":1575:1576   */\n      0x00\n        /* \"#utility.yul\":1560:1844   */\n    tag_66:\n        /* \"#utility.yul\":1585:1591   */\n      dup4\n        /* \"#utility.yul\":1582:1583   */\n      dup2\n        /* \"#utility.yul\":1579:1592   */\n      lt\n        /* \"#utility.yul\":1560:1844   */\n      iszero\n      tag_68\n      jumpi\n        /* \"#utility.yul\":1661:1667   */\n      dup2\n        /* \"#utility.yul\":1655:1668   */\n      mload\n        /* \"#utility.yul\":1688:1751   */\n      tag_69\n        /* \"#utility.yul\":1747:1750   */\n      dup9\n        /* \"#utility.yul\":1732:1745   */\n      dup3\n        /* \"#utility.yul\":1688:1751   */\n      tag_40\n      jump\t// in\n    tag_69:\n        /* \"#utility.yul\":1681:1751   */\n      swap8\n      pop\n        /* \"#utility.yul\":1774:1834   */\n      tag_70\n        /* \"#utility.yul\":1827:1833   */\n      dup4\n        /* \"#utility.yul\":1774:1834   */\n      tag_41\n      jump\t// in\n    tag_70:\n        /* \"#utility.yul\":1764:1834   */\n      swap3\n      pop\n        /* \"#utility.yul\":1620:1844   */\n      pop\n        /* \"#utility.yul\":1607:1608   */\n      0x01\n        /* \"#utility.yul\":1604:1605   */\n      dup2\n        /* \"#utility.yul\":1600:1609   */\n      add\n        /* \"#utility.yul\":1595:1609   */\n      swap1\n      pop\n        /* \"#utility.yul\":1560:1844   */\n      jump(tag_66)\n    tag_68:\n        /* \"#utility.yul\":1564:1578   */\n      pop\n        /* \"#utility.yul\":1860:1863   */\n      dup6\n        /* \"#utility.yul\":1853:1863   */\n      swap4\n      pop\n        /* \"#utility.yul\":1261:1869   */\n      pop\n      pop\n      pop\n        /* \"#utility.yul\":1137:1869   */\n      swap3\n      swap2\n      pop\n      pop\n      jump\t// out\n        /* \"#utility.yul\":1875:2248   */\n    tag_8:\n        /* \"#utility.yul\":2018:2022   */\n      0x00\n        /* \"#utility.yul\":2056:2058   */\n      0x20\n        /* \"#utility.yul\":2045:2054   */\n      dup3\n        /* \"#utility.yul\":2041:2059   */\n      add\n        /* \"#utility.yul\":2033:2059   */\n      swap1\n      pop\n        /* \"#utility.yul\":2105:2114   */\n      dup2\n        /* \"#utility.yul\":2099:2103   */\n      dup2\n        /* \"#utility.yul\":2095:2115   */\n      sub\n        /* \"#utility.yul\":2091:2092   */\n      0x00\n        /* \"#utility.yul\":2080:2089   */\n      dup4\n        /* \"#utility.yul\":2076:2093   */\n      add\n        /* \"#utility.yul\":2069:2116   */\n      mstore\n        /* \"#utility.yul\":2133:2241   */\n      tag_72\n        /* \"#utility.yul\":2236:2240   */\n      dup2\n        /* \"#utility.yul\":2227:2233   */\n      dup5\n        /* \"#utility.yul\":2133:2241   */\n      tag_42\n      jump\t// in\n    tag_72:\n        /* \"#utility.yul\":2125:2241   */\n      swap1\n      pop\n        /* \"#utility.yul\":1875:2248   */\n      swap3\n      swap2\n      pop\n      pop\n      jump\t// out\n        /* \"#utility.yul\":2335:2452   */\n    tag_44:\n        /* \"#utility.yul\":2444:2445   */\n      0x00\n        /* \"#utility.yul\":2441:2442   */\n      dup1\n        /* \"#utility.yul\":2434:2446   */\n      revert\n        /* \"#utility.yul\":2581:2730   */\n    tag_46:\n        /* \"#utility.yul\":2617:2624   */\n      0x00\n        /* \"#utility.yul\":2657:2723   */\n      0xffffffff00000000000000000000000000000000000000000000000000000000\n        /* \"#utility.yul\":2650:2655   */\n      dup3\n        /* \"#utility.yul\":2646:2724   */\n      and\n        /* \"#utility.yul\":2635:2724   */\n      swap1\n      pop\n        /* \"#utility.yul\":2581:2730   */\n      swap2\n      swap1\n      pop\n      jump\t// out\n        /* \"#utility.yul\":2736:2856   */\n    tag_47:\n        /* \"#utility.yul\":2808:2831   */\n      tag_78\n        /* \"#utility.yul\":2825:2830   */\n      dup2\n        /* \"#utility.yul\":2808:2831   */\n      tag_46\n      jump\t// in\n    tag_78:\n        /* \"#utility.yul\":2801:2806   */\n      dup2\n        /* \"#utility.yul\":2798:2832   */\n      eq\n        /* \"#utility.yul\":2788:2850   */\n      tag_79\n      jumpi\n        /* \"#utility.yul\":2846:2847   */\n      0x00\n        /* \"#utility.yul\":2843:2844   */\n      dup1\n        /* \"#utility.yul\":2836:2848   */\n      revert\n        /* \"#utility.yul\":2788:2850   */\n    tag_79:\n        /* \"#utility.yul\":2736:2856   */\n      pop\n      jump\t// out\n        /* \"#utility.yul\":2862:2999   */\n    tag_48:\n        /* \"#utility.yul\":2907:2912   */\n      0x00\n        /* \"#utility.yul\":2945:2951   */\n      dup2\n        /* \"#utility.yul\":2932:2952   */\n      calldataload\n        /* \"#utility.yul\":2923:2952   */\n      swap1\n      pop\n        /* \"#utility.yul\":2961:2993   */\n      tag_81\n        /* \"#utility.yul\":2987:2992   */\n      dup2\n        /* \"#utility.yul\":2961:2993   */\n      tag_47\n      jump\t// in\n    tag_81:\n        /* \"#utility.yul\":2862:2999   */\n      swap3\n      swap2\n      pop\n      pop\n      jump\t// out\n        /* \"#utility.yul\":3005:3332   */\n    tag_11:\n        /* \"#utility.yul\":3063:3069   */\n      0x00\n        /* \"#utility.yul\":3112:3114   */\n      0x20\n        /* \"#utility.yul\":3100:3109   */\n      dup3\n        /* \"#utility.yul\":3091:3098   */\n      dup5\n        /* \"#utility.yul\":3087:3110   */\n      sub\n        /* \"#utility.yul\":3083:3115   */\n      slt\n        /* \"#utility.yul\":3080:3199   */\n      iszero\n      tag_83\n      jumpi\n        /* \"#utility.yul\":3118:3197   */\n      tag_84\n      tag_44\n      jump\t// in\n    tag_84:\n        /* \"#utility.yul\":3080:3199   */\n    tag_83:\n        /* \"#utility.yul\":3238:3239   */\n      0x00\n        /* \"#utility.yul\":3263:3315   */\n      tag_85\n        /* \"#utility.yul\":3307:3314   */\n      dup5\n        /* \"#utility.yul\":3298:3304   */\n      dup3\n        /* \"#utility.yul\":3287:3296   */\n      dup6\n        /* \"#utility.yul\":3283:3305   */\n      add\n        /* \"#utility.yul\":3263:3315   */\n      tag_48\n      jump\t// in\n    tag_85:\n        /* \"#utility.yul\":3253:3315   */\n      swap2\n      pop\n        /* \"#utility.yul\":3209:3325   */\n      pop\n        /* \"#utility.yul\":3005:3332   */\n      swap3\n      swap2\n      pop\n      pop\n      jump\t// out\n        /* \"#utility.yul\":3338:3456   */\n    tag_49:\n        /* \"#utility.yul\":3425:3449   */\n      tag_87\n        /* \"#utility.yul\":3443:3448   */\n      dup2\n        /* \"#utility.yul\":3425:3449   */\n      tag_38\n      jump\t// in\n    tag_87:\n        /* \"#utility.yul\":3420:3423   */\n      dup3\n        /* \"#utility.yul\":3413:3450   */\n      mstore\n        /* \"#utility.yul\":3338:3456   */\n      pop\n      pop\n      jump\t// out\n        /* \"#utility.yul\":3462:3684   */\n    tag_14:\n        /* \"#utility.yul\":3555:3559   */\n      0x00\n        /* \"#utility.yul\":3593:3595   */\n      0x20\n        /* \"#utility.yul\":3582:3591   */\n      dup3\n        /* \"#utility.yul\":3578:3596   */\n      add\n        /* \"#utility.yul\":3570:3596   */\n      swap1\n      pop\n        /* \"#utility.yul\":3606:3677   */\n      tag_89\n        /* \"#utility.yul\":3674:3675   */\n      0x00\n        /* \"#utility.yul\":3663:3672   */\n      dup4\n        /* \"#utility.yul\":3659:3676   */\n      add\n        /* \"#utility.yul\":3650:3656   */\n      dup5\n        /* \"#utility.yul\":3606:3677   */\n      tag_49\n      jump\t// in\n    tag_89:\n        /* \"#utility.yul\":3462:3684   */\n      swap3\n      swap2\n      pop\n      pop\n      jump\t// out\n        /* \"#utility.yul\":3690:3870   */\n    tag_20:\n        /* \"#utility.yul\":3738:3815   */\n      0x4e487b7100000000000000000000000000000000000000000000000000000000\n        /* \"#utility.yul\":3735:3736   */\n      0x00\n        /* \"#utility.yul\":3728:3816   */\n      mstore\n        /* \"#utility.yul\":3835:3839   */\n      0x41\n        /* \"#utility.yul\":3832:3833   */\n      0x04\n        /* \"#utility.yul\":3825:3840   */\n      mstore\n        /* \"#utility.yul\":3859:3863   */\n      0x24\n        /* \"#utility.yul\":3856:3857   */\n      0x00\n        /* \"#utility.yul\":3849:3864   */\n      revert\n        /* \"#utility.yul\":3876:4056   */\n    tag_27:\n        /* \"#utility.yul\":3924:4001   */\n      0x4e487b7100000000000000000000000000000000000000000000000000000000\n        /* \"#utility.yul\":3921:3922   */\n      0x00\n        /* \"#utility.yul\":3914:4002   */\n      mstore\n        /* \"#utility.yul\":4021:4025   */\n      0x32\n        /* \"#utility.yul\":4018:4019   */\n      0x04\n        /* \"#utility.yul\":4011:4026   */\n      mstore\n        /* \"#utility.yul\":4045:4049   */\n      0x24\n        /* \"#utility.yul\":4042:4043   */\n      0x00\n        /* \"#utility.yul\":4035:4050   */\n      revert\n\n    auxdata: 0xa264697066735822122036616b55494ad1c2aa49fb46a5078d5e9176079948d4051bcfe2ceb2267c6d6c64736f6c634300081a0033\n}\n",
				"bytecode": {
					"linkReferences": {},
					"object": "6080604052348015600e575f80fd5b506104818061001c5f395ff3fe608060405234801561000f575f80fd5b5060043610610034575f3560e01c806352ef6b2c14610038578063cdffacc614610056575b5f80fd5b610040610086565b60405161004d9190610325565b60405180910390f35b610070600480360381019061006b919061039e565b610193565b60405161007d91906103d8565b60405180910390f35b60605f610091610212565b90505f816004015490505f8167ffffffffffffffff8111156100b6576100b56103f1565b5b6040519080825280602002602001820160405280156100e45781602001602082028036833780820191505090505b5090505f5b82811015610189578360010181815481106101075761010661041e565b5b905f5260205f20015f9054906101000a900473ffffffffffffffffffffffffffffffffffffffff168282815181106101425761014161041e565b5b602002602001019073ffffffffffffffffffffffffffffffffffffffff16908173ffffffffffffffffffffffffffffffffffffffff168152505080806001019150506100e9565b5080935050505090565b5f61019c610212565b5f015f837bffffffffffffffffffffffffffffffffffffffffffffffffffffffff19167bffffffffffffffffffffffffffffffffffffffffffffffffffffffff191681526020019081526020015f205f9054906101000a900473ffffffffffffffffffffffffffffffffffffffff169050919050565b5f807fc8fcad8db84d3cc18b4c41d551ea0ee66dd599cde068d998e57d5e09332c131c90508091505090565b5f81519050919050565b5f82825260208201905092915050565b5f819050602082019050919050565b5f73ffffffffffffffffffffffffffffffffffffffff82169050919050565b5f61029082610267565b9050919050565b6102a081610286565b82525050565b5f6102b18383610297565b60208301905092915050565b5f602082019050919050565b5f6102d38261023e565b6102dd8185610248565b93506102e883610258565b805f5b838110156103185781516102ff88826102a6565b975061030a836102bd565b9250506001810190506102eb565b5085935050505092915050565b5f6020820190508181035f83015261033d81846102c9565b905092915050565b5f80fd5b5f7fffffffff0000000000000000000000000000000000000000000000000000000082169050919050565b61037d81610349565b8114610387575f80fd5b50565b5f8135905061039881610374565b92915050565b5f602082840312156103b3576103b2610345565b5b5f6103c08482850161038a565b91505092915050565b6103d281610286565b82525050565b5f6020820190506103eb5f8301846103c9565b92915050565b7f4e487b71000000000000000000000000000000000000000000000000000000005f52604160045260245ffd5b7f4e487b71000000000000000000000000000000000000000000000000000000005f52603260045260245ffdfea264697066735822122036616b55494ad1c2aa49fb46a5078d5e9176079948d4051bcfe2ceb2267c6d6c64736f6c634300081a0033",
					"opcodes": "PUSH1 0x80 PUSH1 0x40 MSTORE CALLVALUE DUP1 ISZERO PUSH1 0xE JUMPI PUSH0 DUP1 REVERT JUMPDEST POP PUSH2 0x481 DUP1 PUSH2 0x1C PUSH0 CODECOPY PUSH0 RETURN INVALID PUSH1 0x80 PUSH1 0x40 MSTORE CALLVALUE DUP1 ISZERO PUSH2 0xF JUMPI PUSH0 DUP1 REVERT JUMPDEST POP PUSH1 0x4 CALLDATASIZE LT PUSH2 0x34 JUMPI PUSH0 CALLDATALOAD PUSH1 0xE0 SHR DUP1 PUSH4 0x52EF6B2C EQ PUSH2 0x38 JUMPI DUP1 PUSH4 0xCDFFACC6 EQ PUSH2 0x56 JUMPI JUMPDEST PUSH0 DUP1 REVERT JUMPDEST PUSH2 0x40 PUSH2 0x86 JUMP JUMPDEST PUSH1 0x40 MLOAD PUSH2 0x4D SWAP2 SWAP1 PUSH2 0x325 JUMP JUMPDEST PUSH1 0x40 MLOAD DUP1 SWAP2 SUB SWAP1 RETURN JUMPDEST PUSH2 0x70 PUSH1 0x4 DUP1 CALLDATASIZE SUB DUP2 ADD SWAP1 PUSH2 0x6B SWAP2 SWAP1 PUSH2 0x39E JUMP JUMPDEST PUSH2 0x193 JUMP JUMPDEST PUSH1 0x40 MLOAD PUSH2 0x7D SWAP2 SWAP1 PUSH2 0x3D8 JUMP JUMPDEST PUSH1 0x40 MLOAD DUP1 SWAP2 SUB SWAP1 RETURN JUMPDEST PUSH1 0x60 PUSH0 PUSH2 0x91 PUSH2 0x212 JUMP JUMPDEST SWAP1 POP PUSH0 DUP2 PUSH1 0x4 ADD SLOAD SWAP1 POP PUSH0 DUP2 PUSH8 0xFFFFFFFFFFFFFFFF DUP2 GT ISZERO PUSH2 0xB6 JUMPI PUSH2 0xB5 PUSH2 0x3F1 JUMP JUMPDEST JUMPDEST PUSH1 0x40 MLOAD SWAP1 DUP1 DUP3 MSTORE DUP1 PUSH1 0x20 MUL PUSH1 0x20 ADD DUP3 ADD PUSH1 0x40 MSTORE DUP1 ISZERO PUSH2 0xE4 JUMPI DUP2 PUSH1 0x20 ADD PUSH1 0x20 DUP3 MUL DUP1 CALLDATASIZE DUP4 CALLDATACOPY DUP1 DUP3 ADD SWAP2 POP POP SWAP1 POP JUMPDEST POP SWAP1 POP PUSH0 JUMPDEST DUP3 DUP2 LT ISZERO PUSH2 0x189 JUMPI DUP4 PUSH1 0x1 ADD DUP2 DUP2 SLOAD DUP2 LT PUSH2 0x107 JUMPI PUSH2 0x106 PUSH2 0x41E JUMP JUMPDEST JUMPDEST SWAP1 PUSH0 MSTORE PUSH1 0x20 PUSH0 KECCAK256 ADD PUSH0 SWAP1 SLOAD SWAP1 PUSH2 0x100 EXP SWAP1 DIV PUSH20 0xFFFFFFFFFFFFFFFFFFFFFFFFFFFFFFFFFFFFFFFF AND DUP3 DUP3 DUP2 MLOAD DUP2 LT PUSH2 0x142 JUMPI PUSH2 0x141 PUSH2 0x41E JUMP JUMPDEST JUMPDEST PUSH1 0x20 MUL PUSH1 0x20 ADD ADD SWAP1 PUSH20 0xFFFFFFFFFFFFFFFFFFFFFFFFFFFFFFFFFFFFFFFF AND SWAP1 DUP2 PUSH20 0xFFFFFFFFFFFFFFFFFFFFFFFFFFFFFFFFFFFFFFFF AND DUP2 MSTORE POP POP DUP1 DUP1 PUSH1 0x1 ADD SWAP2 POP POP PUSH2 0xE9 JUMP JUMPDEST POP DUP1 SWAP4 POP POP POP POP SWAP1 JUMP JUMPDEST PUSH0 PUSH2 0x19C PUSH2 0x212 JUMP JUMPDEST PUSH0 ADD PUSH0 DUP4 PUSH28 0xFFFFFFFFFFFFFFFFFFFFFFFFFFFFFFFFFFFFFFFFFFFFFFFFFFFFFFFF NOT AND PUSH28 0xFFFFFFFFFFFFFFFFFFFFFFFFFFFFFFFFFFFFFFFFFFFFFFFFFFFFFFFF NOT AND DUP2 MSTORE PUSH1 0x20 ADD SWAP1 DUP2 MSTORE PUSH1 0x20 ADD PUSH0 KECCAK256 PUSH0 SWAP1 SLOAD SWAP1 PUSH2 0x100 EXP SWAP1 DIV PUSH20 0xFFFFFFFFFFFFFFFFFFFFFFFFFFFFFFFFFFFFFFFF AND SWAP1 POP SWAP2 SWAP1 POP JUMP JUMPDEST PUSH0 DUP1 PUSH32 0xC8FCAD8DB84D3CC18B4C41D551EA0EE66DD599CDE068D998E57D5E09332C131C SWAP1 POP DUP1 SWAP2 POP POP SWAP1 JUMP JUMPDEST PUSH0 DUP2 MLOAD SWAP1 POP SWAP2 SWAP1 POP JUMP JUMPDEST PUSH0 DUP3 DUP3 MSTORE PUSH1 0x20 DUP3 ADD SWAP1 POP SWAP3 SWAP2 POP POP JUMP JUMPDEST PUSH0 DUP2 SWAP1 POP PUSH1 0x20 DUP3 ADD SWAP1 POP SWAP2 SWAP1 POP JUMP JUMPDEST PUSH0 PUSH20 0xFFFFFFFFFFFFFFFFFFFFFFFFFFFFFFFFFFFFFFFF DUP3 AND SWAP1 POP SWAP2 SWAP1 POP JUMP JUMPDEST PUSH0 PUSH2 0x290 DUP3 PUSH2 0x267 JUMP JUMPDEST SWAP1 POP SWAP2 SWAP1 POP JUMP JUMPDEST PUSH2 0x2A0 DUP2 PUSH2 0x286 JUMP JUMPDEST DUP3 MSTORE POP POP JUMP JUMPDEST PUSH0 PUSH2 0x2B1 DUP4 DUP4 PUSH2 0x297 JUMP JUMPDEST PUSH1 0x20 DUP4 ADD SWAP1 POP SWAP3 SWAP2 POP POP JUMP JUMPDEST PUSH0 PUSH1 0x20 DUP3 ADD SWAP1 POP SWAP2 SWAP1 POP JUMP JUMPDEST PUSH0 PUSH2 0x2D3 DUP3 PUSH2 0x23E JUMP JUMPDEST PUSH2 0x2DD DUP2 DUP6 PUSH2 0x248 JUMP JUMPDEST SWAP4 POP PUSH2 0x2E8 DUP4 PUSH2 0x258 JUMP JUMPDEST DUP1 PUSH0 JUMPDEST DUP4 DUP2 LT ISZERO PUSH2 0x318 JUMPI DUP2 MLOAD PUSH2 0x2FF DUP9 DUP3 PUSH2 0x2A6 JUMP JUMPDEST SWAP8 POP PUSH2 0x30A DUP4 PUSH2 0x2BD JUMP JUMPDEST SWAP3 POP POP PUSH1 0x1 DUP2 ADD SWAP1 POP PUSH2 0x2EB JUMP JUMPDEST POP DUP6 SWAP4 POP POP POP POP SWAP3 SWAP2 POP POP JUMP JUMPDEST PUSH0 PUSH1 0x20 DUP3 ADD SWAP1 POP DUP2 DUP2 SUB PUSH0 DUP4 ADD MSTORE PUSH2 0x33D DUP2 DUP5 PUSH2 0x2C9 JUMP JUMPDEST SWAP1 POP SWAP3 SWAP2 POP POP JUMP JUMPDEST PUSH0 DUP1 REVERT JUMPDEST PUSH0 PUSH32 0xFFFFFFFF00000000000000000000000000000000000000000000000000000000 DUP3 AND SWAP1 POP SWAP2 SWAP1 POP JUMP JUMPDEST PUSH2 0x37D DUP2 PUSH2 0x349 JUMP JUMPDEST DUP2 EQ PUSH2 0x387 JUMPI PUSH0 DUP1 REVERT JUMPDEST POP JUMP JUMPDEST PUSH0 DUP2 CALLDATALOAD SWAP1 POP PUSH2 0x398 DUP2 PUSH2 0x374 JUMP JUMPDEST SWAP3 SWAP2 POP POP JUMP JUMPDEST PUSH0 PUSH1 0x20 DUP3 DUP5 SUB SLT ISZERO PUSH2 0x3B3 JUMPI PUSH2 0x3B2 PUSH2 0x345 JUMP JUMPDEST JUMPDEST PUSH0 PUSH2 0x3C0 DUP5 DUP3 DUP6 ADD PUSH2 0x38A JUMP JUMPDEST SWAP2 POP POP SWAP3 SWAP2 POP POP JUMP JUMPDEST PUSH2 0x3D2 DUP2 PUSH2 0x286 JUMP JUMPDEST DUP3 MSTORE POP POP JUMP JUMPDEST PUSH0 PUSH1 0x20 DUP3 ADD SWAP1 POP PUSH2 0x3EB PUSH0 DUP4 ADD DUP5 PUSH2 0x3C9 JUMP JUMPDEST SWAP3 SWAP2 POP POP JUMP JUMPDEST PUSH32 0x4E487B7100000000000000000000000000000000000000000000000000000000 PUSH0 MSTORE PUSH1 0x41 PUSH1 0x4 MSTORE PUSH1 0x24 PUSH0 REVERT JUMPDEST PUSH32 0x4E487B7100000000000000000000000000000000000000000000000000000000 PUSH0 MSTORE PUSH1 0x32 PUSH1 0x4 MSTORE PUSH1 0x24 PUSH0 REVERT INVALID LOG2 PUSH5 0x6970667358 0x22 SLT KECCAK256 CALLDATASIZE PUSH2 0x6B55 BLOBHASH BLOBBASEFEE 0xD1 0xC2 0xAA BLOBHASH 0xFB CHAINID 0xA5 SMOD DUP14 MCOPY SWAP2 PUSH23 0x79948D4051BCFE2CEB2267C6D6C64736F6C634300081A STOP CALLER "
				},
				"gasEstimates": {
					"creation": {
						"codeDepositCost": "230600",
						"executionCost": "273",
						"totalCost": "230873"
					},
					"external": {
						"facetAddress(bytes4)": "2928",
						"facetAddresses()": "infinite"
					}
				},
				"methodIdentifiers": {
					"facetAddress(bytes4)": "cdffacc6",
					"facetAddresses()": "52ef6b2c"
				}
			},
			"storageLayout": {
				"storage": [],
				"types": null
			},
			"userdoc": {
				"kind": "user",
				"methods": {},
				"version": 1
			}
		}
	}
}