{
	"contracts/facets/WinnerDeterminationFacet.sol": {
		"WinnerDeterminationFacet": {
			"abi": [
				{
					"anonymous": false,
					"inputs": [
						{
							"indexed": true,
							"internalType": "uint256",
							"name": "lottery_no",
							"type": "uint256"
						},
						{
							"indexed": false,
							"internalType": "uint256[]",
							"name": "winners",
							"type": "uint256[]"
						}
					],
					"name": "WinnersDetermined",
					"type": "event"
				},
				{
					"inputs": [
						{
							"internalType": "address",
							"name": "addr",
							"type": "address"
						},
						{
							"internalType": "uint256",
							"name": "lottery_no",
							"type": "uint256"
						},
						{
							"internalType": "uint256",
							"name": "ticket_no",
							"type": "uint256"
						}
					],
					"name": "checkIfAddrTicketWon",
					"outputs": [
						{
							"internalType": "bool",
							"name": "won",
							"type": "bool"
						}
					],
					"stateMutability": "view",
					"type": "function"
				},
				{
					"inputs": [
						{
							"internalType": "uint256",
							"name": "lottery_no",
							"type": "uint256"
						},
						{
							"internalType": "uint256",
							"name": "ticket_no",
							"type": "uint256"
						}
					],
					"name": "checkIfMyTicketWon",
					"outputs": [
						{
							"internalType": "bool",
							"name": "won",
							"type": "bool"
						}
					],
					"stateMutability": "view",
					"type": "function"
				},
				{
					"inputs": [
						{
							"internalType": "uint256",
							"name": "lottery_no",
							"type": "uint256"
						}
					],
					"name": "determineWinners",
					"outputs": [],
					"stateMutability": "nonpayable",
					"type": "function"
				},
				{
					"inputs": [
						{
							"internalType": "uint256",
							"name": "lottery_no",
							"type": "uint256"
						},
						{
							"internalType": "uint256",
							"name": "i",
							"type": "uint256"
						}
					],
					"name": "getIthWinningTicket",
					"outputs": [
						{
							"internalType": "uint256",
							"name": "ticketno",
							"type": "uint256"
						}
					],
					"stateMutability": "view",
					"type": "function"
				}
			],
			"devdoc": {
				"events": {
					"WinnersDetermined(uint256,uint256[])": {
						"params": {
							"lottery_no": "The ID of the lottery.",
							"winners": "Array of winning ticket indices."
						}
					}
				},
				"kind": "dev",
				"methods": {
					"checkIfMyTicketWon(uint256,uint256)": {
						"params": {
							"lottery_no": "The ID of the lottery.",
							"ticket_no": "The ticket number to check (starting from 0 for the first ticket)."
						},
						"returns": {
							"won": "A boolean indicating whether the specified ticket has won.   "
						}
					},
					"determineWinners(uint256)": {
						"params": {
							"lottery_no": "The ID of the lottery for which the winners will be determined."
						}
					},
					"getIthWinningTicket(uint256,uint256)": {
						"params": {
							"i": "The index of the winning ticket (starting from 1 for the first winner).",
							"lottery_no": "The ID of the lottery."
						},
						"returns": {
							"ticketno": "The ticket number of the i-th winner."
						}
					}
				},
				"version": 1
			},
			"evm": {
				"assembly": "    /* \"contracts/facets/WinnerDeterminationFacet.sol\":308:7493  contract WinnerDeterminationFacet {... */\n  mstore(0x40, 0x80)\n  callvalue\n  dup1\n  iszero\n  tag_1\n  jumpi\n  0x00\n  dup1\n  revert\ntag_1:\n  pop\n  dataSize(sub_0)\n  dup1\n  dataOffset(sub_0)\n  0x00\n  codecopy\n  0x00\n  return\nstop\n\nsub_0: assembly {\n        /* \"contracts/facets/WinnerDeterminationFacet.sol\":308:7493  contract WinnerDeterminationFacet {... */\n      mstore(0x40, 0x80)\n      callvalue\n      dup1\n      iszero\n      tag_1\n      jumpi\n      0x00\n      dup1\n      revert\n    tag_1:\n      pop\n      jumpi(tag_2, lt(calldatasize, 0x04))\n      shr(0xe0, calldataload(0x00))\n      dup1\n      0x12b349d5\n      eq\n      tag_3\n      jumpi\n      dup1\n      0x5bddbaac\n      eq\n      tag_4\n      jumpi\n      dup1\n      0xc5929bc7\n      eq\n      tag_5\n      jumpi\n      dup1\n      0xe54778b5\n      eq\n      tag_6\n      jumpi\n    tag_2:\n      0x00\n      dup1\n      revert\n        /* \"contracts/facets/WinnerDeterminationFacet.sol\":4259:5357  function checkIfMyTicketWon(... */\n    tag_3:\n      tag_7\n      0x04\n      dup1\n      calldatasize\n      sub\n      dup2\n      add\n      swap1\n      tag_8\n      swap2\n      swap1\n      tag_9\n      jump\t// in\n    tag_8:\n      tag_10\n      jump\t// in\n    tag_7:\n      mload(0x40)\n      tag_11\n      swap2\n      swap1\n      tag_12\n      jump\t// in\n    tag_11:\n      mload(0x40)\n      dup1\n      swap2\n      sub\n      swap1\n      return\n        /* \"contracts/facets/WinnerDeterminationFacet.sol\":5723:6911  function checkIfAddrTicketWon(... */\n    tag_4:\n      tag_13\n      0x04\n      dup1\n      calldatasize\n      sub\n      dup2\n      add\n      swap1\n      tag_14\n      swap2\n      swap1\n      tag_15\n      jump\t// in\n    tag_14:\n      tag_16\n      jump\t// in\n    tag_13:\n      mload(0x40)\n      tag_17\n      swap2\n      swap1\n      tag_12\n      jump\t// in\n    tag_17:\n      mload(0x40)\n      dup1\n      swap2\n      sub\n      swap1\n      return\n        /* \"contracts/facets/WinnerDeterminationFacet.sol\":1373:2986  function determineWinners(uint256 lottery_no)... */\n    tag_5:\n      tag_18\n      0x04\n      dup1\n      calldatasize\n      sub\n      dup2\n      add\n      swap1\n      tag_19\n      swap2\n      swap1\n      tag_20\n      jump\t// in\n    tag_19:\n      tag_21\n      jump\t// in\n    tag_18:\n      stop\n        /* \"contracts/facets/WinnerDeterminationFacet.sol\":3286:3865  function getIthWinningTicket(... */\n    tag_6:\n      tag_22\n      0x04\n      dup1\n      calldatasize\n      sub\n      dup2\n      add\n      swap1\n      tag_23\n      swap2\n      swap1\n      tag_9\n      jump\t// in\n    tag_23:\n      tag_24\n      jump\t// in\n    tag_22:\n      mload(0x40)\n      tag_25\n      swap2\n      swap1\n      tag_26\n      jump\t// in\n    tag_25:\n      mload(0x40)\n      dup1\n      swap2\n      sub\n      swap1\n      return\n        /* \"contracts/facets/WinnerDeterminationFacet.sol\":4259:5357  function checkIfMyTicketWon(... */\n    tag_10:\n        /* \"contracts/facets/WinnerDeterminationFacet.sol\":4418:4426  bool won */\n      0x00\n        /* \"contracts/facets/WinnerDeterminationFacet.sol\":4389:4399  lottery_no */\n      dup3\n        /* \"contracts/facets/WinnerDeterminationFacet.sol\":925:955  LotteryStorage.State storage s */\n      0x00\n        /* \"contracts/facets/WinnerDeterminationFacet.sol\":958:985  LotteryStorage.getStorage() */\n      tag_28\n        /* \"contracts/facets/WinnerDeterminationFacet.sol\":958:983  LotteryStorage.getStorage */\n      tag_29\n        /* \"contracts/facets/WinnerDeterminationFacet.sol\":958:985  LotteryStorage.getStorage() */\n      jump\t// in\n    tag_28:\n        /* \"contracts/facets/WinnerDeterminationFacet.sol\":925:985  LotteryStorage.State storage s = LotteryStorage.getStorage() */\n      swap1\n      pop\n        /* \"contracts/facets/WinnerDeterminationFacet.sol\":1016:1017  0 */\n      0x00\n        /* \"contracts/facets/WinnerDeterminationFacet.sol\":1003:1013  lottery_no */\n      dup3\n        /* \"contracts/facets/WinnerDeterminationFacet.sol\":1003:1017  lottery_no > 0 */\n      gt\n        /* \"contracts/facets/WinnerDeterminationFacet.sol\":1003:1055  lottery_no > 0 && lottery_no-1 <= s.currentLotteryNo */\n      dup1\n      iszero\n      tag_30\n      jumpi\n      pop\n        /* \"contracts/facets/WinnerDeterminationFacet.sol\":1037:1038  s */\n      dup1\n        /* \"contracts/facets/WinnerDeterminationFacet.sol\":1037:1055  s.currentLotteryNo */\n      0x03\n      add\n      sload\n        /* \"contracts/facets/WinnerDeterminationFacet.sol\":1032:1033  1 */\n      0x01\n        /* \"contracts/facets/WinnerDeterminationFacet.sol\":1021:1031  lottery_no */\n      dup4\n        /* \"contracts/facets/WinnerDeterminationFacet.sol\":1021:1033  lottery_no-1 */\n      tag_31\n      swap2\n      swap1\n      tag_32\n      jump\t// in\n    tag_31:\n        /* \"contracts/facets/WinnerDeterminationFacet.sol\":1021:1055  lottery_no-1 <= s.currentLotteryNo */\n      gt\n      iszero\n        /* \"contracts/facets/WinnerDeterminationFacet.sol\":1003:1055  lottery_no > 0 && lottery_no-1 <= s.currentLotteryNo */\n    tag_30:\n        /* \"contracts/facets/WinnerDeterminationFacet.sol\":995:1082  require(lottery_no > 0 && lottery_no-1 <= s.currentLotteryNo, \"Invalid lottery number\") */\n      tag_33\n      jumpi\n      mload(0x40)\n      0x08c379a000000000000000000000000000000000000000000000000000000000\n      dup2\n      mstore\n      0x04\n      add\n      tag_34\n      swap1\n      tag_35\n      jump\t// in\n    tag_34:\n      mload(0x40)\n      dup1\n      swap2\n      sub\n      swap1\n      revert\n    tag_33:\n        /* \"contracts/facets/WinnerDeterminationFacet.sol\":4439:4469  LotteryStorage.State storage s */\n      0x00\n        /* \"contracts/facets/WinnerDeterminationFacet.sol\":4472:4499  LotteryStorage.getStorage() */\n      tag_37\n        /* \"contracts/facets/WinnerDeterminationFacet.sol\":4472:4497  LotteryStorage.getStorage */\n      tag_29\n        /* \"contracts/facets/WinnerDeterminationFacet.sol\":4472:4499  LotteryStorage.getStorage() */\n      jump\t// in\n    tag_37:\n        /* \"contracts/facets/WinnerDeterminationFacet.sol\":4439:4499  LotteryStorage.State storage s = LotteryStorage.getStorage() */\n      swap1\n      pop\n        /* \"contracts/facets/WinnerDeterminationFacet.sol\":4509:4547  LotteryStructs.Lottery storage lottery */\n      0x00\n        /* \"contracts/facets/WinnerDeterminationFacet.sol\":4550:4551  s */\n      dup2\n        /* \"contracts/facets/WinnerDeterminationFacet.sol\":4550:4561  s.lotteries */\n      0x01\n      add\n        /* \"contracts/facets/WinnerDeterminationFacet.sol\":4550:4575  s.lotteries[lottery_no-1] */\n      0x00\n        /* \"contracts/facets/WinnerDeterminationFacet.sol\":4573:4574  1 */\n      0x01\n        /* \"contracts/facets/WinnerDeterminationFacet.sol\":4562:4572  lottery_no */\n      dup10\n        /* \"contracts/facets/WinnerDeterminationFacet.sol\":4562:4574  lottery_no-1 */\n      tag_38\n      swap2\n      swap1\n      tag_32\n      jump\t// in\n    tag_38:\n        /* \"contracts/facets/WinnerDeterminationFacet.sol\":4550:4575  s.lotteries[lottery_no-1] */\n      dup2\n      mstore\n      0x20\n      add\n      swap1\n      dup2\n      mstore\n      0x20\n      add\n      0x00\n      keccak256\n        /* \"contracts/facets/WinnerDeterminationFacet.sol\":4509:4575  LotteryStructs.Lottery storage lottery = s.lotteries[lottery_no-1] */\n      swap1\n      pop\n        /* \"contracts/facets/WinnerDeterminationFacet.sol\":4611:4648  LotteryStructs.LotteryState.COMPLETED */\n      0x02\n        /* \"contracts/facets/WinnerDeterminationFacet.sol\":4594:4648  lottery.state == LotteryStructs.LotteryState.COMPLETED */\n      0x03\n      dup2\n      gt\n      iszero\n      tag_39\n      jumpi\n      tag_40\n      tag_41\n      jump\t// in\n    tag_40:\n    tag_39:\n        /* \"contracts/facets/WinnerDeterminationFacet.sol\":4594:4601  lottery */\n      dup2\n        /* \"contracts/facets/WinnerDeterminationFacet.sol\":4594:4607  lottery.state */\n      0x08\n      add\n      0x00\n      swap1\n      sload\n      swap1\n      0x0100\n      exp\n      swap1\n      div\n      0xff\n      and\n        /* \"contracts/facets/WinnerDeterminationFacet.sol\":4594:4648  lottery.state == LotteryStructs.LotteryState.COMPLETED */\n      0x03\n      dup2\n      gt\n      iszero\n      tag_42\n      jumpi\n      tag_43\n      tag_41\n      jump\t// in\n    tag_43:\n    tag_42:\n      eq\n        /* \"contracts/facets/WinnerDeterminationFacet.sol\":4586:4683  require(lottery.state == LotteryStructs.LotteryState.COMPLETED, \"Lottery is not COMPLETED state\") */\n      tag_44\n      jumpi\n      mload(0x40)\n      0x08c379a000000000000000000000000000000000000000000000000000000000\n      dup2\n      mstore\n      0x04\n      add\n      tag_45\n      swap1\n      tag_46\n      jump\t// in\n    tag_45:\n      mload(0x40)\n      dup1\n      swap2\n      sub\n      swap1\n      revert\n    tag_44:\n        /* \"contracts/facets/WinnerDeterminationFacet.sol\":4713:4714  s */\n      dup2\n        /* \"contracts/facets/WinnerDeterminationFacet.sol\":4713:4729  s.lotteryTickets */\n      0x02\n      add\n        /* \"contracts/facets/WinnerDeterminationFacet.sol\":4713:4741  s.lotteryTickets[lottery_no] */\n      0x00\n        /* \"contracts/facets/WinnerDeterminationFacet.sol\":4730:4740  lottery_no */\n      dup9\n        /* \"contracts/facets/WinnerDeterminationFacet.sol\":4713:4741  s.lotteryTickets[lottery_no] */\n      dup2\n      mstore\n      0x20\n      add\n      swap1\n      dup2\n      mstore\n      0x20\n      add\n      0x00\n      keccak256\n        /* \"contracts/facets/WinnerDeterminationFacet.sol\":4713:4748  s.lotteryTickets[lottery_no].length */\n      dup1\n      sload\n      swap1\n      pop\n        /* \"contracts/facets/WinnerDeterminationFacet.sol\":4701:4710  ticket_no */\n      dup7\n        /* \"contracts/facets/WinnerDeterminationFacet.sol\":4701:4748  ticket_no < s.lotteryTickets[lottery_no].length */\n      lt\n        /* \"contracts/facets/WinnerDeterminationFacet.sol\":4693:4774  require(ticket_no < s.lotteryTickets[lottery_no].length, \"Invalid ticket number\") */\n      tag_47\n      jumpi\n      mload(0x40)\n      0x08c379a000000000000000000000000000000000000000000000000000000000\n      dup2\n      mstore\n      0x04\n      add\n      tag_48\n      swap1\n      tag_49\n      jump\t// in\n    tag_48:\n      mload(0x40)\n      dup1\n      swap2\n      sub\n      swap1\n      revert\n    tag_47:\n        /* \"contracts/facets/WinnerDeterminationFacet.sol\":4785:4821  LotteryStructs.Ticket storage ticket */\n      0x00\n        /* \"contracts/facets/WinnerDeterminationFacet.sol\":4824:4825  s */\n      dup3\n        /* \"contracts/facets/WinnerDeterminationFacet.sol\":4824:4840  s.lotteryTickets */\n      0x02\n      add\n        /* \"contracts/facets/WinnerDeterminationFacet.sol\":4824:4852  s.lotteryTickets[lottery_no] */\n      0x00\n        /* \"contracts/facets/WinnerDeterminationFacet.sol\":4841:4851  lottery_no */\n      dup10\n        /* \"contracts/facets/WinnerDeterminationFacet.sol\":4824:4852  s.lotteryTickets[lottery_no] */\n      dup2\n      mstore\n      0x20\n      add\n      swap1\n      dup2\n      mstore\n      0x20\n      add\n      0x00\n      keccak256\n        /* \"contracts/facets/WinnerDeterminationFacet.sol\":4853:4862  ticket_no */\n      dup8\n        /* \"contracts/facets/WinnerDeterminationFacet.sol\":4824:4863  s.lotteryTickets[lottery_no][ticket_no] */\n      dup2\n      sload\n      dup2\n      lt\n      tag_50\n      jumpi\n      tag_51\n      tag_52\n      jump\t// in\n    tag_51:\n    tag_50:\n      swap1\n      0x00\n      mstore\n      keccak256(0x00, 0x20)\n      swap1\n      0x04\n      mul\n      add\n        /* \"contracts/facets/WinnerDeterminationFacet.sol\":4785:4863  LotteryStructs.Ticket storage ticket = s.lotteryTickets[lottery_no][ticket_no] */\n      swap1\n      pop\n        /* \"contracts/facets/WinnerDeterminationFacet.sol\":4948:4958  msg.sender */\n      caller\n        /* \"contracts/facets/WinnerDeterminationFacet.sol\":4932:4958  ticket.owner == msg.sender */\n      0xffffffffffffffffffffffffffffffffffffffff\n      and\n        /* \"contracts/facets/WinnerDeterminationFacet.sol\":4932:4938  ticket */\n      dup2\n        /* \"contracts/facets/WinnerDeterminationFacet.sol\":4932:4944  ticket.owner */\n      0x00\n      add\n      0x00\n      swap1\n      sload\n      swap1\n      0x0100\n      exp\n      swap1\n      div\n      0xffffffffffffffffffffffffffffffffffffffff\n      and\n        /* \"contracts/facets/WinnerDeterminationFacet.sol\":4932:4958  ticket.owner == msg.sender */\n      0xffffffffffffffffffffffffffffffffffffffff\n      and\n      eq\n        /* \"contracts/facets/WinnerDeterminationFacet.sol\":4924:4989  require(ticket.owner == msg.sender, \"You do not own this ticket\") */\n      tag_54\n      jumpi\n      mload(0x40)\n      0x08c379a000000000000000000000000000000000000000000000000000000000\n      dup2\n      mstore\n      0x04\n      add\n      tag_55\n      swap1\n      tag_56\n      jump\t// in\n    tag_55:\n      mload(0x40)\n      dup1\n      swap2\n      sub\n      swap1\n      revert\n    tag_54:\n        /* \"contracts/facets/WinnerDeterminationFacet.sol\":5026:5030  true */\n      0x01\n        /* \"contracts/facets/WinnerDeterminationFacet.sol\":5007:5030  ticket.revealed == true */\n      iszero\n      iszero\n        /* \"contracts/facets/WinnerDeterminationFacet.sol\":5007:5013  ticket */\n      dup2\n        /* \"contracts/facets/WinnerDeterminationFacet.sol\":5007:5022  ticket.revealed */\n      0x03\n      add\n      0x00\n      swap1\n      sload\n      swap1\n      0x0100\n      exp\n      swap1\n      div\n      0xff\n      and\n        /* \"contracts/facets/WinnerDeterminationFacet.sol\":5007:5030  ticket.revealed == true */\n      iszero\n      iszero\n      eq\n        /* \"contracts/facets/WinnerDeterminationFacet.sol\":4999:5076  require(ticket.revealed == true , \"You did not submitted your random number\") */\n      tag_57\n      jumpi\n      mload(0x40)\n      0x08c379a000000000000000000000000000000000000000000000000000000000\n      dup2\n      mstore\n      0x04\n      add\n      tag_58\n      swap1\n      tag_59\n      jump\t// in\n    tag_58:\n      mload(0x40)\n      dup1\n      swap2\n      sub\n      swap1\n      revert\n    tag_57:\n        /* \"contracts/facets/WinnerDeterminationFacet.sol\":5163:5172  uint256 i */\n      0x00\n        /* \"contracts/facets/WinnerDeterminationFacet.sol\":5158:5329  for (uint256 i = 0; i < lottery.lotteryWinners.length;i++) {... */\n    tag_60:\n        /* \"contracts/facets/WinnerDeterminationFacet.sol\":5182:5189  lottery */\n      dup3\n        /* \"contracts/facets/WinnerDeterminationFacet.sol\":5182:5204  lottery.lotteryWinners */\n      0x0c\n      add\n        /* \"contracts/facets/WinnerDeterminationFacet.sol\":5182:5211  lottery.lotteryWinners.length */\n      dup1\n      sload\n      swap1\n      pop\n        /* \"contracts/facets/WinnerDeterminationFacet.sol\":5178:5179  i */\n      dup2\n        /* \"contracts/facets/WinnerDeterminationFacet.sol\":5178:5211  i < lottery.lotteryWinners.length */\n      lt\n        /* \"contracts/facets/WinnerDeterminationFacet.sol\":5158:5329  for (uint256 i = 0; i < lottery.lotteryWinners.length;i++) {... */\n      iszero\n      tag_61\n      jumpi\n        /* \"contracts/facets/WinnerDeterminationFacet.sol\":5264:5273  ticket_no */\n      dup8\n        /* \"contracts/facets/WinnerDeterminationFacet.sol\":5235:5242  lottery */\n      dup4\n        /* \"contracts/facets/WinnerDeterminationFacet.sol\":5235:5257  lottery.lotteryWinners */\n      0x0c\n      add\n        /* \"contracts/facets/WinnerDeterminationFacet.sol\":5258:5259  i */\n      dup3\n        /* \"contracts/facets/WinnerDeterminationFacet.sol\":5235:5260  lottery.lotteryWinners[i] */\n      dup2\n      sload\n      dup2\n      lt\n      tag_63\n      jumpi\n      tag_64\n      tag_52\n      jump\t// in\n    tag_64:\n    tag_63:\n      swap1\n      0x00\n      mstore\n      keccak256(0x00, 0x20)\n      add\n      sload\n        /* \"contracts/facets/WinnerDeterminationFacet.sol\":5235:5273  lottery.lotteryWinners[i] == ticket_no */\n      sub\n        /* \"contracts/facets/WinnerDeterminationFacet.sol\":5231:5319  if (lottery.lotteryWinners[i] == ticket_no) {... */\n      tag_66\n      jumpi\n        /* \"contracts/facets/WinnerDeterminationFacet.sol\":5300:5304  true */\n      0x01\n        /* \"contracts/facets/WinnerDeterminationFacet.sol\":5293:5304  return true */\n      swap7\n      pop\n      pop\n      pop\n      pop\n      pop\n      jump(tag_36)\n        /* \"contracts/facets/WinnerDeterminationFacet.sol\":5231:5319  if (lottery.lotteryWinners[i] == ticket_no) {... */\n    tag_66:\n        /* \"contracts/facets/WinnerDeterminationFacet.sol\":5212:5215  i++ */\n      dup1\n      dup1\n      0x01\n      add\n      swap2\n      pop\n      pop\n        /* \"contracts/facets/WinnerDeterminationFacet.sol\":5158:5329  for (uint256 i = 0; i < lottery.lotteryWinners.length;i++) {... */\n      jump(tag_60)\n    tag_61:\n      pop\n        /* \"contracts/facets/WinnerDeterminationFacet.sol\":5345:5350  false */\n      0x00\n        /* \"contracts/facets/WinnerDeterminationFacet.sol\":5338:5350  return false */\n      swap6\n      pop\n      pop\n      pop\n      pop\n        /* \"contracts/facets/WinnerDeterminationFacet.sol\":1092:1093  _ */\n    tag_36:\n        /* \"contracts/facets/WinnerDeterminationFacet.sol\":915:1100  {... */\n      pop\n        /* \"contracts/facets/WinnerDeterminationFacet.sol\":4259:5357  function checkIfMyTicketWon(... */\n      pop\n      swap3\n      swap2\n      pop\n      pop\n      jump\t// out\n        /* \"contracts/facets/WinnerDeterminationFacet.sol\":5723:6911  function checkIfAddrTicketWon(... */\n    tag_16:\n        /* \"contracts/facets/WinnerDeterminationFacet.sol\":5904:5912  bool won */\n      0x00\n        /* \"contracts/facets/WinnerDeterminationFacet.sol\":5875:5885  lottery_no */\n      dup3\n        /* \"contracts/facets/WinnerDeterminationFacet.sol\":925:955  LotteryStorage.State storage s */\n      0x00\n        /* \"contracts/facets/WinnerDeterminationFacet.sol\":958:985  LotteryStorage.getStorage() */\n      tag_68\n        /* \"contracts/facets/WinnerDeterminationFacet.sol\":958:983  LotteryStorage.getStorage */\n      tag_29\n        /* \"contracts/facets/WinnerDeterminationFacet.sol\":958:985  LotteryStorage.getStorage() */\n      jump\t// in\n    tag_68:\n        /* \"contracts/facets/WinnerDeterminationFacet.sol\":925:985  LotteryStorage.State storage s = LotteryStorage.getStorage() */\n      swap1\n      pop\n        /* \"contracts/facets/WinnerDeterminationFacet.sol\":1016:1017  0 */\n      0x00\n        /* \"contracts/facets/WinnerDeterminationFacet.sol\":1003:1013  lottery_no */\n      dup3\n        /* \"contracts/facets/WinnerDeterminationFacet.sol\":1003:1017  lottery_no > 0 */\n      gt\n        /* \"contracts/facets/WinnerDeterminationFacet.sol\":1003:1055  lottery_no > 0 && lottery_no-1 <= s.currentLotteryNo */\n      dup1\n      iszero\n      tag_69\n      jumpi\n      pop\n        /* \"contracts/facets/WinnerDeterminationFacet.sol\":1037:1038  s */\n      dup1\n        /* \"contracts/facets/WinnerDeterminationFacet.sol\":1037:1055  s.currentLotteryNo */\n      0x03\n      add\n      sload\n        /* \"contracts/facets/WinnerDeterminationFacet.sol\":1032:1033  1 */\n      0x01\n        /* \"contracts/facets/WinnerDeterminationFacet.sol\":1021:1031  lottery_no */\n      dup4\n        /* \"contracts/facets/WinnerDeterminationFacet.sol\":1021:1033  lottery_no-1 */\n      tag_70\n      swap2\n      swap1\n      tag_32\n      jump\t// in\n    tag_70:\n        /* \"contracts/facets/WinnerDeterminationFacet.sol\":1021:1055  lottery_no-1 <= s.currentLotteryNo */\n      gt\n      iszero\n        /* \"contracts/facets/WinnerDeterminationFacet.sol\":1003:1055  lottery_no > 0 && lottery_no-1 <= s.currentLotteryNo */\n    tag_69:\n        /* \"contracts/facets/WinnerDeterminationFacet.sol\":995:1082  require(lottery_no > 0 && lottery_no-1 <= s.currentLotteryNo, \"Invalid lottery number\") */\n      tag_71\n      jumpi\n      mload(0x40)\n      0x08c379a000000000000000000000000000000000000000000000000000000000\n      dup2\n      mstore\n      0x04\n      add\n      tag_72\n      swap1\n      tag_35\n      jump\t// in\n    tag_72:\n      mload(0x40)\n      dup1\n      swap2\n      sub\n      swap1\n      revert\n    tag_71:\n        /* \"contracts/facets/WinnerDeterminationFacet.sol\":5925:5955  LotteryStorage.State storage s */\n      0x00\n        /* \"contracts/facets/WinnerDeterminationFacet.sol\":5958:5985  LotteryStorage.getStorage() */\n      tag_74\n        /* \"contracts/facets/WinnerDeterminationFacet.sol\":5958:5983  LotteryStorage.getStorage */\n      tag_29\n        /* \"contracts/facets/WinnerDeterminationFacet.sol\":5958:5985  LotteryStorage.getStorage() */\n      jump\t// in\n    tag_74:\n        /* \"contracts/facets/WinnerDeterminationFacet.sol\":5925:5985  LotteryStorage.State storage s = LotteryStorage.getStorage() */\n      swap1\n      pop\n        /* \"contracts/facets/WinnerDeterminationFacet.sol\":5995:6033  LotteryStructs.Lottery storage lottery */\n      0x00\n        /* \"contracts/facets/WinnerDeterminationFacet.sol\":6036:6037  s */\n      dup2\n        /* \"contracts/facets/WinnerDeterminationFacet.sol\":6036:6047  s.lotteries */\n      0x01\n      add\n        /* \"contracts/facets/WinnerDeterminationFacet.sol\":6036:6061  s.lotteries[lottery_no-1] */\n      0x00\n        /* \"contracts/facets/WinnerDeterminationFacet.sol\":6059:6060  1 */\n      0x01\n        /* \"contracts/facets/WinnerDeterminationFacet.sol\":6048:6058  lottery_no */\n      dup10\n        /* \"contracts/facets/WinnerDeterminationFacet.sol\":6048:6060  lottery_no-1 */\n      tag_75\n      swap2\n      swap1\n      tag_32\n      jump\t// in\n    tag_75:\n        /* \"contracts/facets/WinnerDeterminationFacet.sol\":6036:6061  s.lotteries[lottery_no-1] */\n      dup2\n      mstore\n      0x20\n      add\n      swap1\n      dup2\n      mstore\n      0x20\n      add\n      0x00\n      keccak256\n        /* \"contracts/facets/WinnerDeterminationFacet.sol\":5995:6061  LotteryStructs.Lottery storage lottery = s.lotteries[lottery_no-1] */\n      swap1\n      pop\n        /* \"contracts/facets/WinnerDeterminationFacet.sol\":6119:6156  LotteryStructs.LotteryState.COMPLETED */\n      0x02\n        /* \"contracts/facets/WinnerDeterminationFacet.sol\":6102:6156  lottery.state == LotteryStructs.LotteryState.COMPLETED */\n      0x03\n      dup2\n      gt\n      iszero\n      tag_76\n      jumpi\n      tag_77\n      tag_41\n      jump\t// in\n    tag_77:\n    tag_76:\n        /* \"contracts/facets/WinnerDeterminationFacet.sol\":6102:6109  lottery */\n      dup2\n        /* \"contracts/facets/WinnerDeterminationFacet.sol\":6102:6115  lottery.state */\n      0x08\n      add\n      0x00\n      swap1\n      sload\n      swap1\n      0x0100\n      exp\n      swap1\n      div\n      0xff\n      and\n        /* \"contracts/facets/WinnerDeterminationFacet.sol\":6102:6156  lottery.state == LotteryStructs.LotteryState.COMPLETED */\n      0x03\n      dup2\n      gt\n      iszero\n      tag_78\n      jumpi\n      tag_79\n      tag_41\n      jump\t// in\n    tag_79:\n    tag_78:\n      eq\n        /* \"contracts/facets/WinnerDeterminationFacet.sol\":6094:6182  require(lottery.state == LotteryStructs.LotteryState.COMPLETED, \"Lottery not completed\") */\n      tag_80\n      jumpi\n      mload(0x40)\n      0x08c379a000000000000000000000000000000000000000000000000000000000\n      dup2\n      mstore\n      0x04\n      add\n      tag_81\n      swap1\n      tag_82\n      jump\t// in\n    tag_81:\n      mload(0x40)\n      dup1\n      swap2\n      sub\n      swap1\n      revert\n    tag_80:\n        /* \"contracts/facets/WinnerDeterminationFacet.sol\":6212:6213  s */\n      dup2\n        /* \"contracts/facets/WinnerDeterminationFacet.sol\":6212:6228  s.lotteryTickets */\n      0x02\n      add\n        /* \"contracts/facets/WinnerDeterminationFacet.sol\":6212:6240  s.lotteryTickets[lottery_no] */\n      0x00\n        /* \"contracts/facets/WinnerDeterminationFacet.sol\":6229:6239  lottery_no */\n      dup9\n        /* \"contracts/facets/WinnerDeterminationFacet.sol\":6212:6240  s.lotteryTickets[lottery_no] */\n      dup2\n      mstore\n      0x20\n      add\n      swap1\n      dup2\n      mstore\n      0x20\n      add\n      0x00\n      keccak256\n        /* \"contracts/facets/WinnerDeterminationFacet.sol\":6212:6247  s.lotteryTickets[lottery_no].length */\n      dup1\n      sload\n      swap1\n      pop\n        /* \"contracts/facets/WinnerDeterminationFacet.sol\":6200:6209  ticket_no */\n      dup7\n        /* \"contracts/facets/WinnerDeterminationFacet.sol\":6200:6247  ticket_no < s.lotteryTickets[lottery_no].length */\n      lt\n        /* \"contracts/facets/WinnerDeterminationFacet.sol\":6192:6273  require(ticket_no < s.lotteryTickets[lottery_no].length, \"Invalid ticket number\") */\n      tag_83\n      jumpi\n      mload(0x40)\n      0x08c379a000000000000000000000000000000000000000000000000000000000\n      dup2\n      mstore\n      0x04\n      add\n      tag_84\n      swap1\n      tag_49\n      jump\t// in\n    tag_84:\n      mload(0x40)\n      dup1\n      swap2\n      sub\n      swap1\n      revert\n    tag_83:\n        /* \"contracts/facets/WinnerDeterminationFacet.sol\":6284:6320  LotteryStructs.Ticket storage ticket */\n      0x00\n        /* \"contracts/facets/WinnerDeterminationFacet.sol\":6323:6324  s */\n      dup3\n        /* \"contracts/facets/WinnerDeterminationFacet.sol\":6323:6339  s.lotteryTickets */\n      0x02\n      add\n        /* \"contracts/facets/WinnerDeterminationFacet.sol\":6323:6351  s.lotteryTickets[lottery_no] */\n      0x00\n        /* \"contracts/facets/WinnerDeterminationFacet.sol\":6340:6350  lottery_no */\n      dup10\n        /* \"contracts/facets/WinnerDeterminationFacet.sol\":6323:6351  s.lotteryTickets[lottery_no] */\n      dup2\n      mstore\n      0x20\n      add\n      swap1\n      dup2\n      mstore\n      0x20\n      add\n      0x00\n      keccak256\n        /* \"contracts/facets/WinnerDeterminationFacet.sol\":6352:6361  ticket_no */\n      dup8\n        /* \"contracts/facets/WinnerDeterminationFacet.sol\":6323:6362  s.lotteryTickets[lottery_no][ticket_no] */\n      dup2\n      sload\n      dup2\n      lt\n      tag_85\n      jumpi\n      tag_86\n      tag_52\n      jump\t// in\n    tag_86:\n    tag_85:\n      swap1\n      0x00\n      mstore\n      keccak256(0x00, 0x20)\n      swap1\n      0x04\n      mul\n      add\n        /* \"contracts/facets/WinnerDeterminationFacet.sol\":6284:6362  LotteryStructs.Ticket storage ticket = s.lotteryTickets[lottery_no][ticket_no] */\n      swap1\n      pop\n        /* \"contracts/facets/WinnerDeterminationFacet.sol\":6396:6400  addr */\n      dup9\n        /* \"contracts/facets/WinnerDeterminationFacet.sol\":6380:6400  ticket.owner == addr */\n      0xffffffffffffffffffffffffffffffffffffffff\n      and\n        /* \"contracts/facets/WinnerDeterminationFacet.sol\":6380:6386  ticket */\n      dup2\n        /* \"contracts/facets/WinnerDeterminationFacet.sol\":6380:6392  ticket.owner */\n      0x00\n      add\n      0x00\n      swap1\n      sload\n      swap1\n      0x0100\n      exp\n      swap1\n      div\n      0xffffffffffffffffffffffffffffffffffffffff\n      and\n        /* \"contracts/facets/WinnerDeterminationFacet.sol\":6380:6400  ticket.owner == addr */\n      0xffffffffffffffffffffffffffffffffffffffff\n      and\n      eq\n        /* \"contracts/facets/WinnerDeterminationFacet.sol\":6372:6437  require(ticket.owner == addr, \"Address does not own this ticket\") */\n      tag_88\n      jumpi\n      mload(0x40)\n      0x08c379a000000000000000000000000000000000000000000000000000000000\n      dup2\n      mstore\n      0x04\n      add\n      tag_89\n      swap1\n      tag_90\n      jump\t// in\n    tag_89:\n      mload(0x40)\n      dup1\n      swap2\n      sub\n      swap1\n      revert\n    tag_88:\n        /* \"contracts/facets/WinnerDeterminationFacet.sol\":6508:6512  true */\n      0x01\n        /* \"contracts/facets/WinnerDeterminationFacet.sol\":6456:6512  s.lotteryTickets[lottery_no][ticket_no].revealed == true */\n      iszero\n      iszero\n        /* \"contracts/facets/WinnerDeterminationFacet.sol\":6456:6457  s */\n      dup4\n        /* \"contracts/facets/WinnerDeterminationFacet.sol\":6456:6472  s.lotteryTickets */\n      0x02\n      add\n        /* \"contracts/facets/WinnerDeterminationFacet.sol\":6456:6484  s.lotteryTickets[lottery_no] */\n      0x00\n        /* \"contracts/facets/WinnerDeterminationFacet.sol\":6473:6483  lottery_no */\n      dup11\n        /* \"contracts/facets/WinnerDeterminationFacet.sol\":6456:6484  s.lotteryTickets[lottery_no] */\n      dup2\n      mstore\n      0x20\n      add\n      swap1\n      dup2\n      mstore\n      0x20\n      add\n      0x00\n      keccak256\n        /* \"contracts/facets/WinnerDeterminationFacet.sol\":6485:6494  ticket_no */\n      dup9\n        /* \"contracts/facets/WinnerDeterminationFacet.sol\":6456:6495  s.lotteryTickets[lottery_no][ticket_no] */\n      dup2\n      sload\n      dup2\n      lt\n      tag_91\n      jumpi\n      tag_92\n      tag_52\n      jump\t// in\n    tag_92:\n    tag_91:\n      swap1\n      0x00\n      mstore\n      keccak256(0x00, 0x20)\n      swap1\n      0x04\n      mul\n      add\n        /* \"contracts/facets/WinnerDeterminationFacet.sol\":6456:6504  s.lotteryTickets[lottery_no][ticket_no].revealed */\n      0x03\n      add\n      0x00\n      swap1\n      sload\n      swap1\n      0x0100\n      exp\n      swap1\n      div\n      0xff\n      and\n        /* \"contracts/facets/WinnerDeterminationFacet.sol\":6456:6512  s.lotteryTickets[lottery_no][ticket_no].revealed == true */\n      iszero\n      iszero\n      eq\n        /* \"contracts/facets/WinnerDeterminationFacet.sol\":6448:6564  require(s.lotteryTickets[lottery_no][ticket_no].revealed == true, \"The address was not submitted its random number\") */\n      tag_94\n      jumpi\n      mload(0x40)\n      0x08c379a000000000000000000000000000000000000000000000000000000000\n      dup2\n      mstore\n      0x04\n      add\n      tag_95\n      swap1\n      tag_96\n      jump\t// in\n    tag_95:\n      mload(0x40)\n      dup1\n      swap2\n      sub\n      swap1\n      revert\n    tag_94:\n        /* \"contracts/facets/WinnerDeterminationFacet.sol\":6651:6660  uint256 i */\n      0x00\n        /* \"contracts/facets/WinnerDeterminationFacet.sol\":6646:6883  for (uint256 i = 0; i < lottery.lotteryWinners.length;i++) {... */\n    tag_97:\n        /* \"contracts/facets/WinnerDeterminationFacet.sol\":6670:6677  lottery */\n      dup3\n        /* \"contracts/facets/WinnerDeterminationFacet.sol\":6670:6692  lottery.lotteryWinners */\n      0x0c\n      add\n        /* \"contracts/facets/WinnerDeterminationFacet.sol\":6670:6699  lottery.lotteryWinners.length */\n      dup1\n      sload\n      swap1\n      pop\n        /* \"contracts/facets/WinnerDeterminationFacet.sol\":6666:6667  i */\n      dup2\n        /* \"contracts/facets/WinnerDeterminationFacet.sol\":6666:6699  i < lottery.lotteryWinners.length */\n      lt\n        /* \"contracts/facets/WinnerDeterminationFacet.sol\":6646:6883  for (uint256 i = 0; i < lottery.lotteryWinners.length;i++) {... */\n      iszero\n      tag_98\n      jumpi\n        /* \"contracts/facets/WinnerDeterminationFacet.sol\":6752:6761  ticket_no */\n      dup8\n        /* \"contracts/facets/WinnerDeterminationFacet.sol\":6723:6730  lottery */\n      dup4\n        /* \"contracts/facets/WinnerDeterminationFacet.sol\":6723:6745  lottery.lotteryWinners */\n      0x0c\n      add\n        /* \"contracts/facets/WinnerDeterminationFacet.sol\":6746:6747  i */\n      dup3\n        /* \"contracts/facets/WinnerDeterminationFacet.sol\":6723:6748  lottery.lotteryWinners[i] */\n      dup2\n      sload\n      dup2\n      lt\n      tag_100\n      jumpi\n      tag_101\n      tag_52\n      jump\t// in\n    tag_101:\n    tag_100:\n      swap1\n      0x00\n      mstore\n      keccak256(0x00, 0x20)\n      add\n      sload\n        /* \"contracts/facets/WinnerDeterminationFacet.sol\":6723:6761  lottery.lotteryWinners[i] == ticket_no */\n      sub\n        /* \"contracts/facets/WinnerDeterminationFacet.sol\":6719:6873  if (lottery.lotteryWinners[i] == ticket_no) {... */\n      tag_103\n      jumpi\n        /* \"contracts/facets/WinnerDeterminationFacet.sol\":6801:6805  addr */\n      dup10\n        /* \"contracts/facets/WinnerDeterminationFacet.sol\":6785:6805  ticket.owner == addr */\n      0xffffffffffffffffffffffffffffffffffffffff\n      and\n        /* \"contracts/facets/WinnerDeterminationFacet.sol\":6785:6791  ticket */\n      dup3\n        /* \"contracts/facets/WinnerDeterminationFacet.sol\":6785:6797  ticket.owner */\n      0x00\n      add\n      0x00\n      swap1\n      sload\n      swap1\n      0x0100\n      exp\n      swap1\n      div\n      0xffffffffffffffffffffffffffffffffffffffff\n      and\n        /* \"contracts/facets/WinnerDeterminationFacet.sol\":6785:6805  ticket.owner == addr */\n      0xffffffffffffffffffffffffffffffffffffffff\n      and\n      sub\n        /* \"contracts/facets/WinnerDeterminationFacet.sol\":6781:6859  if (ticket.owner == addr) {... */\n      tag_104\n      jumpi\n        /* \"contracts/facets/WinnerDeterminationFacet.sol\":6836:6840  true */\n      0x01\n        /* \"contracts/facets/WinnerDeterminationFacet.sol\":6829:6840  return true */\n      swap7\n      pop\n      pop\n      pop\n      pop\n      pop\n      jump(tag_73)\n        /* \"contracts/facets/WinnerDeterminationFacet.sol\":6781:6859  if (ticket.owner == addr) {... */\n    tag_104:\n        /* \"contracts/facets/WinnerDeterminationFacet.sol\":6719:6873  if (lottery.lotteryWinners[i] == ticket_no) {... */\n    tag_103:\n        /* \"contracts/facets/WinnerDeterminationFacet.sol\":6700:6703  i++ */\n      dup1\n      dup1\n      0x01\n      add\n      swap2\n      pop\n      pop\n        /* \"contracts/facets/WinnerDeterminationFacet.sol\":6646:6883  for (uint256 i = 0; i < lottery.lotteryWinners.length;i++) {... */\n      jump(tag_97)\n    tag_98:\n      pop\n        /* \"contracts/facets/WinnerDeterminationFacet.sol\":6899:6904  false */\n      0x00\n        /* \"contracts/facets/WinnerDeterminationFacet.sol\":6892:6904  return false */\n      swap6\n      pop\n      pop\n      pop\n      pop\n        /* \"contracts/facets/WinnerDeterminationFacet.sol\":1092:1093  _ */\n    tag_73:\n        /* \"contracts/facets/WinnerDeterminationFacet.sol\":915:1100  {... */\n      pop\n        /* \"contracts/facets/WinnerDeterminationFacet.sol\":5723:6911  function checkIfAddrTicketWon(... */\n      pop\n      swap4\n      swap3\n      pop\n      pop\n      pop\n      jump\t// out\n        /* \"contracts/facets/WinnerDeterminationFacet.sol\":1373:2986  function determineWinners(uint256 lottery_no)... */\n    tag_21:\n        /* \"contracts/facets/WinnerDeterminationFacet.sol\":749:753  this */\n      address\n        /* \"contracts/facets/WinnerDeterminationFacet.sol\":722:764  AccessControlFacet(address(this)).getOwner */\n      0xffffffffffffffffffffffffffffffffffffffff\n      and\n      0x893d20e8\n        /* \"contracts/facets/WinnerDeterminationFacet.sol\":722:766  AccessControlFacet(address(this)).getOwner() */\n      mload(0x40)\n      dup2\n      0xffffffff\n      and\n      0xe0\n      shl\n      dup2\n      mstore\n      0x04\n      add\n      0x20\n      mload(0x40)\n      dup1\n      dup4\n      sub\n      dup2\n      dup7\n      gas\n      staticcall\n      iszero\n      dup1\n      iszero\n      tag_107\n      jumpi\n      returndatasize\n      0x00\n      dup1\n      returndatacopy\n      revert(0x00, returndatasize)\n    tag_107:\n      pop\n      pop\n      pop\n      pop\n      mload(0x40)\n      returndatasize\n      not(0x1f)\n      0x1f\n      dup3\n      add\n      and\n      dup3\n      add\n      dup1\n      0x40\n      mstore\n      pop\n      dup2\n      add\n      swap1\n      tag_108\n      swap2\n      swap1\n      tag_109\n      jump\t// in\n    tag_108:\n        /* \"contracts/facets/WinnerDeterminationFacet.sol\":708:766  msg.sender == AccessControlFacet(address(this)).getOwner() */\n      0xffffffffffffffffffffffffffffffffffffffff\n      and\n        /* \"contracts/facets/WinnerDeterminationFacet.sol\":708:718  msg.sender */\n      caller\n        /* \"contracts/facets/WinnerDeterminationFacet.sol\":708:766  msg.sender == AccessControlFacet(address(this)).getOwner() */\n      0xffffffffffffffffffffffffffffffffffffffff\n      and\n      eq\n        /* \"contracts/facets/WinnerDeterminationFacet.sol\":700:808  require(msg.sender == AccessControlFacet(address(this)).getOwner(), \"Only the owner can call this function\") */\n      tag_110\n      jumpi\n      mload(0x40)\n      0x08c379a000000000000000000000000000000000000000000000000000000000\n      dup2\n      mstore\n      0x04\n      add\n      tag_111\n      swap1\n      tag_112\n      jump\t// in\n    tag_111:\n      mload(0x40)\n      dup1\n      swap2\n      sub\n      swap1\n      revert\n    tag_110:\n        /* \"contracts/facets/WinnerDeterminationFacet.sol\":1477:1487  lottery_no */\n      dup1\n        /* \"contracts/facets/WinnerDeterminationFacet.sol\":925:955  LotteryStorage.State storage s */\n      0x00\n        /* \"contracts/facets/WinnerDeterminationFacet.sol\":958:985  LotteryStorage.getStorage() */\n      tag_114\n        /* \"contracts/facets/WinnerDeterminationFacet.sol\":958:983  LotteryStorage.getStorage */\n      tag_29\n        /* \"contracts/facets/WinnerDeterminationFacet.sol\":958:985  LotteryStorage.getStorage() */\n      jump\t// in\n    tag_114:\n        /* \"contracts/facets/WinnerDeterminationFacet.sol\":925:985  LotteryStorage.State storage s = LotteryStorage.getStorage() */\n      swap1\n      pop\n        /* \"contracts/facets/WinnerDeterminationFacet.sol\":1016:1017  0 */\n      0x00\n        /* \"contracts/facets/WinnerDeterminationFacet.sol\":1003:1013  lottery_no */\n      dup3\n        /* \"contracts/facets/WinnerDeterminationFacet.sol\":1003:1017  lottery_no > 0 */\n      gt\n        /* \"contracts/facets/WinnerDeterminationFacet.sol\":1003:1055  lottery_no > 0 && lottery_no-1 <= s.currentLotteryNo */\n      dup1\n      iszero\n      tag_115\n      jumpi\n      pop\n        /* \"contracts/facets/WinnerDeterminationFacet.sol\":1037:1038  s */\n      dup1\n        /* \"contracts/facets/WinnerDeterminationFacet.sol\":1037:1055  s.currentLotteryNo */\n      0x03\n      add\n      sload\n        /* \"contracts/facets/WinnerDeterminationFacet.sol\":1032:1033  1 */\n      0x01\n        /* \"contracts/facets/WinnerDeterminationFacet.sol\":1021:1031  lottery_no */\n      dup4\n        /* \"contracts/facets/WinnerDeterminationFacet.sol\":1021:1033  lottery_no-1 */\n      tag_116\n      swap2\n      swap1\n      tag_32\n      jump\t// in\n    tag_116:\n        /* \"contracts/facets/WinnerDeterminationFacet.sol\":1021:1055  lottery_no-1 <= s.currentLotteryNo */\n      gt\n      iszero\n        /* \"contracts/facets/WinnerDeterminationFacet.sol\":1003:1055  lottery_no > 0 && lottery_no-1 <= s.currentLotteryNo */\n    tag_115:\n        /* \"contracts/facets/WinnerDeterminationFacet.sol\":995:1082  require(lottery_no > 0 && lottery_no-1 <= s.currentLotteryNo, \"Invalid lottery number\") */\n      tag_117\n      jumpi\n      mload(0x40)\n      0x08c379a000000000000000000000000000000000000000000000000000000000\n      dup2\n      mstore\n      0x04\n      add\n      tag_118\n      swap1\n      tag_35\n      jump\t// in\n    tag_118:\n      mload(0x40)\n      dup1\n      swap2\n      sub\n      swap1\n      revert\n    tag_117:\n        /* \"contracts/facets/WinnerDeterminationFacet.sol\":1500:1530  LotteryStorage.State storage s */\n      0x00\n        /* \"contracts/facets/WinnerDeterminationFacet.sol\":1533:1560  LotteryStorage.getStorage() */\n      tag_120\n        /* \"contracts/facets/WinnerDeterminationFacet.sol\":1533:1558  LotteryStorage.getStorage */\n      tag_29\n        /* \"contracts/facets/WinnerDeterminationFacet.sol\":1533:1560  LotteryStorage.getStorage() */\n      jump\t// in\n    tag_120:\n        /* \"contracts/facets/WinnerDeterminationFacet.sol\":1500:1560  LotteryStorage.State storage s = LotteryStorage.getStorage() */\n      swap1\n      pop\n        /* \"contracts/facets/WinnerDeterminationFacet.sol\":1570:1608  LotteryStructs.Lottery storage lottery */\n      0x00\n        /* \"contracts/facets/WinnerDeterminationFacet.sol\":1611:1612  s */\n      dup2\n        /* \"contracts/facets/WinnerDeterminationFacet.sol\":1611:1622  s.lotteries */\n      0x01\n      add\n        /* \"contracts/facets/WinnerDeterminationFacet.sol\":1611:1636  s.lotteries[lottery_no-1] */\n      0x00\n        /* \"contracts/facets/WinnerDeterminationFacet.sol\":1634:1635  1 */\n      0x01\n        /* \"contracts/facets/WinnerDeterminationFacet.sol\":1623:1633  lottery_no */\n      dup8\n        /* \"contracts/facets/WinnerDeterminationFacet.sol\":1623:1635  lottery_no-1 */\n      tag_121\n      swap2\n      swap1\n      tag_32\n      jump\t// in\n    tag_121:\n        /* \"contracts/facets/WinnerDeterminationFacet.sol\":1611:1636  s.lotteries[lottery_no-1] */\n      dup2\n      mstore\n      0x20\n      add\n      swap1\n      dup2\n      mstore\n      0x20\n      add\n      0x00\n      keccak256\n        /* \"contracts/facets/WinnerDeterminationFacet.sol\":1570:1636  LotteryStructs.Lottery storage lottery = s.lotteries[lottery_no-1] */\n      swap1\n      pop\n        /* \"contracts/facets/WinnerDeterminationFacet.sol\":1672:1709  LotteryStructs.LotteryState.COMPLETED */\n      0x02\n        /* \"contracts/facets/WinnerDeterminationFacet.sol\":1655:1709  lottery.state == LotteryStructs.LotteryState.COMPLETED */\n      0x03\n      dup2\n      gt\n      iszero\n      tag_122\n      jumpi\n      tag_123\n      tag_41\n      jump\t// in\n    tag_123:\n    tag_122:\n        /* \"contracts/facets/WinnerDeterminationFacet.sol\":1655:1662  lottery */\n      dup2\n        /* \"contracts/facets/WinnerDeterminationFacet.sol\":1655:1668  lottery.state */\n      0x08\n      add\n      0x00\n      swap1\n      sload\n      swap1\n      0x0100\n      exp\n      swap1\n      div\n      0xff\n      and\n        /* \"contracts/facets/WinnerDeterminationFacet.sol\":1655:1709  lottery.state == LotteryStructs.LotteryState.COMPLETED */\n      0x03\n      dup2\n      gt\n      iszero\n      tag_124\n      jumpi\n      tag_125\n      tag_41\n      jump\t// in\n    tag_125:\n    tag_124:\n      eq\n        /* \"contracts/facets/WinnerDeterminationFacet.sol\":1647:1744  require(lottery.state == LotteryStructs.LotteryState.COMPLETED, \"Lottery has not been completed\") */\n      tag_126\n      jumpi\n      mload(0x40)\n      0x08c379a000000000000000000000000000000000000000000000000000000000\n      dup2\n      mstore\n      0x04\n      add\n      tag_127\n      swap1\n      tag_128\n      jump\t// in\n    tag_127:\n      mload(0x40)\n      dup1\n      swap2\n      sub\n      swap1\n      revert\n    tag_126:\n        /* \"contracts/facets/WinnerDeterminationFacet.sol\":1834:1860  uint256 minTicketsRequired */\n      0x00\n        /* \"contracts/facets/WinnerDeterminationFacet.sol\":1911:1914  100 */\n      0x64\n        /* \"contracts/facets/WinnerDeterminationFacet.sol\":1886:1893  lottery */\n      dup3\n        /* \"contracts/facets/WinnerDeterminationFacet.sol\":1886:1907  lottery.minpercentage */\n      0x03\n      add\n      sload\n        /* \"contracts/facets/WinnerDeterminationFacet.sol\":1864:1871  lottery */\n      dup4\n        /* \"contracts/facets/WinnerDeterminationFacet.sol\":1864:1883  lottery.nooftickets */\n      0x01\n      add\n      sload\n        /* \"contracts/facets/WinnerDeterminationFacet.sol\":1864:1907  lottery.nooftickets * lottery.minpercentage */\n      tag_129\n      swap2\n      swap1\n      tag_130\n      jump\t// in\n    tag_129:\n        /* \"contracts/facets/WinnerDeterminationFacet.sol\":1863:1914  (lottery.nooftickets * lottery.minpercentage) / 100 */\n      tag_131\n      swap2\n      swap1\n      tag_132\n      jump\t// in\n    tag_131:\n        /* \"contracts/facets/WinnerDeterminationFacet.sol\":1834:1914  uint256 minTicketsRequired = (lottery.nooftickets * lottery.minpercentage) / 100 */\n      swap1\n      pop\n        /* \"contracts/facets/WinnerDeterminationFacet.sol\":1951:1969  minTicketsRequired */\n      dup1\n        /* \"contracts/facets/WinnerDeterminationFacet.sol\":1932:1939  lottery */\n      dup3\n        /* \"contracts/facets/WinnerDeterminationFacet.sol\":1932:1947  lottery.numsold */\n      0x09\n      add\n      sload\n        /* \"contracts/facets/WinnerDeterminationFacet.sol\":1932:1969  lottery.numsold >= minTicketsRequired */\n      lt\n      iszero\n        /* \"contracts/facets/WinnerDeterminationFacet.sol\":1924:1997  require(lottery.numsold >= minTicketsRequired, \"Not enough tickets sold\") */\n      tag_133\n      jumpi\n      mload(0x40)\n      0x08c379a000000000000000000000000000000000000000000000000000000000\n      dup2\n      mstore\n      0x04\n      add\n      tag_134\n      swap1\n      tag_135\n      jump\t// in\n    tag_134:\n      mload(0x40)\n      dup1\n      swap2\n      sub\n      swap1\n      revert\n    tag_133:\n        /* \"contracts/facets/WinnerDeterminationFacet.sol\":2008:2028  uint256 totalTickets */\n      0x00\n        /* \"contracts/facets/WinnerDeterminationFacet.sol\":2031:2038  lottery */\n      dup3\n        /* \"contracts/facets/WinnerDeterminationFacet.sol\":2031:2046  lottery.numsold */\n      0x09\n      add\n      sload\n        /* \"contracts/facets/WinnerDeterminationFacet.sol\":2008:2046  uint256 totalTickets = lottery.numsold */\n      swap1\n      pop\n        /* \"contracts/facets/WinnerDeterminationFacet.sol\":2056:2074  uint256 numWinners */\n      0x00\n        /* \"contracts/facets/WinnerDeterminationFacet.sol\":2077:2084  lottery */\n      dup4\n        /* \"contracts/facets/WinnerDeterminationFacet.sol\":2077:2096  lottery.noofwinners */\n      0x02\n      add\n      sload\n        /* \"contracts/facets/WinnerDeterminationFacet.sol\":2056:2096  uint256 numWinners = lottery.noofwinners */\n      swap1\n      pop\n        /* \"contracts/facets/WinnerDeterminationFacet.sol\":2106:2124  uint256 randomSeed */\n      0x00\n        /* \"contracts/facets/WinnerDeterminationFacet.sol\":2127:2134  lottery */\n      dup5\n        /* \"contracts/facets/WinnerDeterminationFacet.sol\":2127:2148  lottery.currentRandom */\n      0x0b\n      add\n      sload\n        /* \"contracts/facets/WinnerDeterminationFacet.sol\":2106:2148  uint256 randomSeed = lottery.currentRandom */\n      swap1\n      pop\n        /* \"contracts/facets/WinnerDeterminationFacet.sol\":2248:2257  uint256 i */\n      0x00\n        /* \"contracts/facets/WinnerDeterminationFacet.sol\":2243:2752  for (uint256 i = 0; i < numWinners; i++) {... */\n    tag_136:\n        /* \"contracts/facets/WinnerDeterminationFacet.sol\":2267:2277  numWinners */\n      dup3\n        /* \"contracts/facets/WinnerDeterminationFacet.sol\":2263:2264  i */\n      dup2\n        /* \"contracts/facets/WinnerDeterminationFacet.sol\":2263:2277  i < numWinners */\n      lt\n        /* \"contracts/facets/WinnerDeterminationFacet.sol\":2243:2752  for (uint256 i = 0; i < numWinners; i++) {... */\n      iszero\n      tag_137\n      jumpi\n        /* \"contracts/facets/WinnerDeterminationFacet.sol\":2345:2364  uint256 winnerIndex */\n      0x00\n        /* \"contracts/facets/WinnerDeterminationFacet.sol\":2421:2433  totalTickets */\n      dup5\n        /* \"contracts/facets/WinnerDeterminationFacet.sol\":2402:2412  randomSeed */\n      dup4\n        /* \"contracts/facets/WinnerDeterminationFacet.sol\":2414:2415  i */\n      dup4\n        /* \"contracts/facets/WinnerDeterminationFacet.sol\":2385:2416  abi.encodePacked(randomSeed, i) */\n      add(0x20, mload(0x40))\n      tag_139\n      swap3\n      swap2\n      swap1\n      tag_140\n      jump\t// in\n    tag_139:\n      mload(0x40)\n      0x20\n      dup2\n      dup4\n      sub\n      sub\n      dup2\n      mstore\n      swap1\n      0x40\n      mstore\n        /* \"contracts/facets/WinnerDeterminationFacet.sol\":2375:2417  keccak256(abi.encodePacked(randomSeed, i)) */\n      dup1\n      mload\n      swap1\n      0x20\n      add\n      keccak256\n        /* \"contracts/facets/WinnerDeterminationFacet.sol\":2367:2418  uint256(keccak256(abi.encodePacked(randomSeed, i))) */\n      0x00\n      shr\n        /* \"contracts/facets/WinnerDeterminationFacet.sol\":2367:2433  uint256(keccak256(abi.encodePacked(randomSeed, i))) % totalTickets */\n      tag_141\n      swap2\n      swap1\n      tag_142\n      jump\t// in\n    tag_141:\n        /* \"contracts/facets/WinnerDeterminationFacet.sol\":2345:2433  uint256 winnerIndex = uint256(keccak256(abi.encodePacked(randomSeed, i))) % totalTickets */\n      swap1\n      pop\n        /* \"contracts/facets/WinnerDeterminationFacet.sol\":2491:2634  while (_isDuplicateWinner(lottery.lotteryWinners, winnerIndex)) {... */\n    tag_143:\n        /* \"contracts/facets/WinnerDeterminationFacet.sol\":2498:2553  _isDuplicateWinner(lottery.lotteryWinners, winnerIndex) */\n      tag_145\n        /* \"contracts/facets/WinnerDeterminationFacet.sol\":2517:2524  lottery */\n      dup8\n        /* \"contracts/facets/WinnerDeterminationFacet.sol\":2517:2539  lottery.lotteryWinners */\n      0x0c\n      add\n        /* \"contracts/facets/WinnerDeterminationFacet.sol\":2498:2553  _isDuplicateWinner(lottery.lotteryWinners, winnerIndex) */\n      dup1\n      sload\n      dup1\n      0x20\n      mul\n      0x20\n      add\n      mload(0x40)\n      swap1\n      dup2\n      add\n      0x40\n      mstore\n      dup1\n      swap3\n      swap2\n      swap1\n      dup2\n      dup2\n      mstore\n      0x20\n      add\n      dup3\n      dup1\n      sload\n      dup1\n      iszero\n      tag_146\n      jumpi\n      0x20\n      mul\n      dup3\n      add\n      swap2\n      swap1\n      0x00\n      mstore\n      keccak256(0x00, 0x20)\n      swap1\n    tag_147:\n      dup2\n      sload\n      dup2\n      mstore\n      0x20\n      add\n      swap1\n      0x01\n      add\n      swap1\n      dup1\n      dup4\n      gt\n      tag_147\n      jumpi\n    tag_146:\n      pop\n      pop\n      pop\n      pop\n      pop\n        /* \"contracts/facets/WinnerDeterminationFacet.sol\":2541:2552  winnerIndex */\n      dup3\n        /* \"contracts/facets/WinnerDeterminationFacet.sol\":2498:2516  _isDuplicateWinner */\n      tag_148\n        /* \"contracts/facets/WinnerDeterminationFacet.sol\":2498:2553  _isDuplicateWinner(lottery.lotteryWinners, winnerIndex) */\n      jump\t// in\n    tag_145:\n        /* \"contracts/facets/WinnerDeterminationFacet.sol\":2491:2634  while (_isDuplicateWinner(lottery.lotteryWinners, winnerIndex)) {... */\n      iszero\n      tag_144\n      jumpi\n        /* \"contracts/facets/WinnerDeterminationFacet.sol\":2607:2619  totalTickets */\n      dup5\n        /* \"contracts/facets/WinnerDeterminationFacet.sol\":2602:2603  1 */\n      0x01\n        /* \"contracts/facets/WinnerDeterminationFacet.sol\":2588:2599  winnerIndex */\n      dup3\n        /* \"contracts/facets/WinnerDeterminationFacet.sol\":2588:2603  winnerIndex + 1 */\n      tag_149\n      swap2\n      swap1\n      tag_150\n      jump\t// in\n    tag_149:\n        /* \"contracts/facets/WinnerDeterminationFacet.sol\":2587:2619  (winnerIndex + 1) % totalTickets */\n      tag_151\n      swap2\n      swap1\n      tag_142\n      jump\t// in\n    tag_151:\n        /* \"contracts/facets/WinnerDeterminationFacet.sol\":2573:2619  winnerIndex = (winnerIndex + 1) % totalTickets */\n      swap1\n      pop\n        /* \"contracts/facets/WinnerDeterminationFacet.sol\":2491:2634  while (_isDuplicateWinner(lottery.lotteryWinners, winnerIndex)) {... */\n      jump(tag_143)\n    tag_144:\n        /* \"contracts/facets/WinnerDeterminationFacet.sol\":2730:2741  winnerIndex */\n      dup1\n        /* \"contracts/facets/WinnerDeterminationFacet.sol\":2702:2709  lottery */\n      dup8\n        /* \"contracts/facets/WinnerDeterminationFacet.sol\":2702:2724  lottery.lotteryWinners */\n      0x0c\n      add\n        /* \"contracts/facets/WinnerDeterminationFacet.sol\":2725:2726  i */\n      dup4\n        /* \"contracts/facets/WinnerDeterminationFacet.sol\":2702:2727  lottery.lotteryWinners[i] */\n      dup2\n      sload\n      dup2\n      lt\n      tag_152\n      jumpi\n      tag_153\n      tag_52\n      jump\t// in\n    tag_153:\n    tag_152:\n      swap1\n      0x00\n      mstore\n      keccak256(0x00, 0x20)\n      add\n        /* \"contracts/facets/WinnerDeterminationFacet.sol\":2702:2741  lottery.lotteryWinners[i] = winnerIndex */\n      dup2\n      swap1\n      sstore\n      pop\n        /* \"contracts/facets/WinnerDeterminationFacet.sol\":2284:2752  {... */\n      pop\n        /* \"contracts/facets/WinnerDeterminationFacet.sol\":2279:2282  i++ */\n      dup1\n      dup1\n      0x01\n      add\n      swap2\n      pop\n      pop\n        /* \"contracts/facets/WinnerDeterminationFacet.sol\":2243:2752  for (uint256 i = 0; i < numWinners; i++) {... */\n      jump(tag_136)\n    tag_137:\n      pop\n        /* \"contracts/facets/WinnerDeterminationFacet.sol\":2823:2860  LotteryStructs.LotteryState.COMPLETED */\n      0x02\n        /* \"contracts/facets/WinnerDeterminationFacet.sol\":2807:2814  lottery */\n      dup6\n        /* \"contracts/facets/WinnerDeterminationFacet.sol\":2807:2820  lottery.state */\n      0x08\n      add\n      0x00\n        /* \"contracts/facets/WinnerDeterminationFacet.sol\":2807:2860  lottery.state = LotteryStructs.LotteryState.COMPLETED */\n      0x0100\n      exp\n      dup2\n      sload\n      dup2\n      0xff\n      mul\n      not\n      and\n      swap1\n      dup4\n      0x03\n      dup2\n      gt\n      iszero\n      tag_155\n      jumpi\n      tag_156\n      tag_41\n      jump\t// in\n    tag_156:\n    tag_155:\n      mul\n      or\n      swap1\n      sstore\n      pop\n        /* \"contracts/facets/WinnerDeterminationFacet.sol\":2944:2954  lottery_no */\n      dup9\n        /* \"contracts/facets/WinnerDeterminationFacet.sol\":2926:2979  WinnersDetermined(lottery_no, lottery.lotteryWinners) */\n      0xdcd4c188264d71a205a9af0b423e86acd556683d1eb112389101b992ce0188a5\n        /* \"contracts/facets/WinnerDeterminationFacet.sol\":2956:2963  lottery */\n      dup7\n        /* \"contracts/facets/WinnerDeterminationFacet.sol\":2956:2978  lottery.lotteryWinners */\n      0x0c\n      add\n        /* \"contracts/facets/WinnerDeterminationFacet.sol\":2926:2979  WinnersDetermined(lottery_no, lottery.lotteryWinners) */\n      mload(0x40)\n      tag_157\n      swap2\n      swap1\n      tag_158\n      jump\t// in\n    tag_157:\n      mload(0x40)\n      dup1\n      swap2\n      sub\n      swap1\n      log2\n        /* \"contracts/facets/WinnerDeterminationFacet.sol\":1489:2986  {... */\n      pop\n      pop\n      pop\n      pop\n      pop\n      pop\n        /* \"contracts/facets/WinnerDeterminationFacet.sol\":915:1100  {... */\n      pop\n        /* \"contracts/facets/WinnerDeterminationFacet.sol\":818:819  _ */\n      pop\n        /* \"contracts/facets/WinnerDeterminationFacet.sol\":1373:2986  function determineWinners(uint256 lottery_no)... */\n      pop\n      jump\t// out\n        /* \"contracts/facets/WinnerDeterminationFacet.sol\":3286:3865  function getIthWinningTicket(... */\n    tag_24:\n        /* \"contracts/facets/WinnerDeterminationFacet.sol\":3437:3450  uint ticketno */\n      0x00\n        /* \"contracts/facets/WinnerDeterminationFacet.sol\":3408:3418  lottery_no */\n      dup3\n        /* \"contracts/facets/WinnerDeterminationFacet.sol\":925:955  LotteryStorage.State storage s */\n      0x00\n        /* \"contracts/facets/WinnerDeterminationFacet.sol\":958:985  LotteryStorage.getStorage() */\n      tag_160\n        /* \"contracts/facets/WinnerDeterminationFacet.sol\":958:983  LotteryStorage.getStorage */\n      tag_29\n        /* \"contracts/facets/WinnerDeterminationFacet.sol\":958:985  LotteryStorage.getStorage() */\n      jump\t// in\n    tag_160:\n        /* \"contracts/facets/WinnerDeterminationFacet.sol\":925:985  LotteryStorage.State storage s = LotteryStorage.getStorage() */\n      swap1\n      pop\n        /* \"contracts/facets/WinnerDeterminationFacet.sol\":1016:1017  0 */\n      0x00\n        /* \"contracts/facets/WinnerDeterminationFacet.sol\":1003:1013  lottery_no */\n      dup3\n        /* \"contracts/facets/WinnerDeterminationFacet.sol\":1003:1017  lottery_no > 0 */\n      gt\n        /* \"contracts/facets/WinnerDeterminationFacet.sol\":1003:1055  lottery_no > 0 && lottery_no-1 <= s.currentLotteryNo */\n      dup1\n      iszero\n      tag_161\n      jumpi\n      pop\n        /* \"contracts/facets/WinnerDeterminationFacet.sol\":1037:1038  s */\n      dup1\n        /* \"contracts/facets/WinnerDeterminationFacet.sol\":1037:1055  s.currentLotteryNo */\n      0x03\n      add\n      sload\n        /* \"contracts/facets/WinnerDeterminationFacet.sol\":1032:1033  1 */\n      0x01\n        /* \"contracts/facets/WinnerDeterminationFacet.sol\":1021:1031  lottery_no */\n      dup4\n        /* \"contracts/facets/WinnerDeterminationFacet.sol\":1021:1033  lottery_no-1 */\n      tag_162\n      swap2\n      swap1\n      tag_32\n      jump\t// in\n    tag_162:\n        /* \"contracts/facets/WinnerDeterminationFacet.sol\":1021:1055  lottery_no-1 <= s.currentLotteryNo */\n      gt\n      iszero\n        /* \"contracts/facets/WinnerDeterminationFacet.sol\":1003:1055  lottery_no > 0 && lottery_no-1 <= s.currentLotteryNo */\n    tag_161:\n        /* \"contracts/facets/WinnerDeterminationFacet.sol\":995:1082  require(lottery_no > 0 && lottery_no-1 <= s.currentLotteryNo, \"Invalid lottery number\") */\n      tag_163\n      jumpi\n      mload(0x40)\n      0x08c379a000000000000000000000000000000000000000000000000000000000\n      dup2\n      mstore\n      0x04\n      add\n      tag_164\n      swap1\n      tag_35\n      jump\t// in\n    tag_164:\n      mload(0x40)\n      dup1\n      swap2\n      sub\n      swap1\n      revert\n    tag_163:\n        /* \"contracts/facets/WinnerDeterminationFacet.sol\":3463:3493  LotteryStorage.State storage s */\n      0x00\n        /* \"contracts/facets/WinnerDeterminationFacet.sol\":3496:3523  LotteryStorage.getStorage() */\n      tag_166\n        /* \"contracts/facets/WinnerDeterminationFacet.sol\":3496:3521  LotteryStorage.getStorage */\n      tag_29\n        /* \"contracts/facets/WinnerDeterminationFacet.sol\":3496:3523  LotteryStorage.getStorage() */\n      jump\t// in\n    tag_166:\n        /* \"contracts/facets/WinnerDeterminationFacet.sol\":3463:3523  LotteryStorage.State storage s = LotteryStorage.getStorage() */\n      swap1\n      pop\n        /* \"contracts/facets/WinnerDeterminationFacet.sol\":3533:3571  LotteryStructs.Lottery storage lottery */\n      0x00\n        /* \"contracts/facets/WinnerDeterminationFacet.sol\":3574:3575  s */\n      dup2\n        /* \"contracts/facets/WinnerDeterminationFacet.sol\":3574:3585  s.lotteries */\n      0x01\n      add\n        /* \"contracts/facets/WinnerDeterminationFacet.sol\":3574:3599  s.lotteries[lottery_no-1] */\n      0x00\n        /* \"contracts/facets/WinnerDeterminationFacet.sol\":3597:3598  1 */\n      0x01\n        /* \"contracts/facets/WinnerDeterminationFacet.sol\":3586:3596  lottery_no */\n      dup10\n        /* \"contracts/facets/WinnerDeterminationFacet.sol\":3586:3598  lottery_no-1 */\n      tag_167\n      swap2\n      swap1\n      tag_32\n      jump\t// in\n    tag_167:\n        /* \"contracts/facets/WinnerDeterminationFacet.sol\":3574:3599  s.lotteries[lottery_no-1] */\n      dup2\n      mstore\n      0x20\n      add\n      swap1\n      dup2\n      mstore\n      0x20\n      add\n      0x00\n      keccak256\n        /* \"contracts/facets/WinnerDeterminationFacet.sol\":3533:3599  LotteryStructs.Lottery storage lottery = s.lotteries[lottery_no-1] */\n      swap1\n      pop\n        /* \"contracts/facets/WinnerDeterminationFacet.sol\":3635:3672  LotteryStructs.LotteryState.COMPLETED */\n      0x02\n        /* \"contracts/facets/WinnerDeterminationFacet.sol\":3618:3672  lottery.state == LotteryStructs.LotteryState.COMPLETED */\n      0x03\n      dup2\n      gt\n      iszero\n      tag_168\n      jumpi\n      tag_169\n      tag_41\n      jump\t// in\n    tag_169:\n    tag_168:\n        /* \"contracts/facets/WinnerDeterminationFacet.sol\":3618:3625  lottery */\n      dup2\n        /* \"contracts/facets/WinnerDeterminationFacet.sol\":3618:3631  lottery.state */\n      0x08\n      add\n      0x00\n      swap1\n      sload\n      swap1\n      0x0100\n      exp\n      swap1\n      div\n      0xff\n      and\n        /* \"contracts/facets/WinnerDeterminationFacet.sol\":3618:3672  lottery.state == LotteryStructs.LotteryState.COMPLETED */\n      0x03\n      dup2\n      gt\n      iszero\n      tag_170\n      jumpi\n      tag_171\n      tag_41\n      jump\t// in\n    tag_171:\n    tag_170:\n      eq\n        /* \"contracts/facets/WinnerDeterminationFacet.sol\":3610:3707  require(lottery.state == LotteryStructs.LotteryState.COMPLETED, \"Lottery has not been completed\") */\n      tag_172\n      jumpi\n      mload(0x40)\n      0x08c379a000000000000000000000000000000000000000000000000000000000\n      dup2\n      mstore\n      0x04\n      add\n      tag_173\n      swap1\n      tag_128\n      jump\t// in\n    tag_173:\n      mload(0x40)\n      dup1\n      swap2\n      sub\n      swap1\n      revert\n    tag_172:\n        /* \"contracts/facets/WinnerDeterminationFacet.sol\":3729:3730  0 */\n      0x00\n        /* \"contracts/facets/WinnerDeterminationFacet.sol\":3725:3726  i */\n      dup7\n        /* \"contracts/facets/WinnerDeterminationFacet.sol\":3725:3730  i > 0 */\n      gt\n        /* \"contracts/facets/WinnerDeterminationFacet.sol\":3725:3758  i > 0 && i <= lottery.noofwinners */\n      dup1\n      iszero\n      tag_174\n      jumpi\n      pop\n        /* \"contracts/facets/WinnerDeterminationFacet.sol\":3739:3746  lottery */\n      dup1\n        /* \"contracts/facets/WinnerDeterminationFacet.sol\":3739:3758  lottery.noofwinners */\n      0x02\n      add\n      sload\n        /* \"contracts/facets/WinnerDeterminationFacet.sol\":3734:3735  i */\n      dup7\n        /* \"contracts/facets/WinnerDeterminationFacet.sol\":3734:3758  i <= lottery.noofwinners */\n      gt\n      iszero\n        /* \"contracts/facets/WinnerDeterminationFacet.sol\":3725:3758  i > 0 && i <= lottery.noofwinners */\n    tag_174:\n        /* \"contracts/facets/WinnerDeterminationFacet.sol\":3717:3783  require(i > 0 && i <= lottery.noofwinners, \"Invalid winner index\") */\n      tag_175\n      jumpi\n      mload(0x40)\n      0x08c379a000000000000000000000000000000000000000000000000000000000\n      dup2\n      mstore\n      0x04\n      add\n      tag_176\n      swap1\n      tag_177\n      jump\t// in\n    tag_176:\n      mload(0x40)\n      dup1\n      swap2\n      sub\n      swap1\n      revert\n    tag_175:\n        /* \"contracts/facets/WinnerDeterminationFacet.sol\":3801:3808  lottery */\n      dup1\n        /* \"contracts/facets/WinnerDeterminationFacet.sol\":3801:3823  lottery.lotteryWinners */\n      0x0c\n      add\n        /* \"contracts/facets/WinnerDeterminationFacet.sol\":3828:3829  1 */\n      0x01\n        /* \"contracts/facets/WinnerDeterminationFacet.sol\":3824:3825  i */\n      dup8\n        /* \"contracts/facets/WinnerDeterminationFacet.sol\":3824:3829  i - 1 */\n      tag_178\n      swap2\n      swap1\n      tag_32\n      jump\t// in\n    tag_178:\n        /* \"contracts/facets/WinnerDeterminationFacet.sol\":3801:3830  lottery.lotteryWinners[i - 1] */\n      dup2\n      sload\n      dup2\n      lt\n      tag_179\n      jumpi\n      tag_180\n      tag_52\n      jump\t// in\n    tag_180:\n    tag_179:\n      swap1\n      0x00\n      mstore\n      keccak256(0x00, 0x20)\n      add\n      sload\n        /* \"contracts/facets/WinnerDeterminationFacet.sol\":3794:3830  return lottery.lotteryWinners[i - 1] */\n      swap5\n      pop\n      pop\n      pop\n        /* \"contracts/facets/WinnerDeterminationFacet.sol\":915:1100  {... */\n      pop\n        /* \"contracts/facets/WinnerDeterminationFacet.sol\":3286:3865  function getIthWinningTicket(... */\n      pop\n      swap3\n      swap2\n      pop\n      pop\n      jump\t// out\n        /* \"contracts/libraries/LotteryStorage.sol\":1477:1651  function getStorage() internal pure returns (State storage s) {... */\n    tag_29:\n        /* \"contracts/libraries/LotteryStorage.sol\":1522:1537  State storage s */\n      0x00\n        /* \"contracts/libraries/LotteryStorage.sol\":1549:1565  bytes32 position */\n      dup1\n        /* \"contracts/libraries/LotteryStorage.sol\":589:625  keccak256(\"diamond.storage.lottery\") */\n      0x755d7b3c7227e1f30e6cde2e9db88bc1d20ae16efd7e1368f3c80b4bf3d6e53a\n        /* \"contracts/libraries/LotteryStorage.sol\":1549:1584  bytes32 position = STORAGE_POSITION */\n      swap1\n      pop\n        /* \"contracts/libraries/LotteryStorage.sol\":1627:1635  position */\n      dup1\n        /* \"contracts/libraries/LotteryStorage.sol\":1617:1635  s.slot := position */\n      swap2\n      pop\n        /* \"contracts/libraries/LotteryStorage.sol\":1603:1645  {... */\n      pop\n        /* \"contracts/libraries/LotteryStorage.sol\":1477:1651  function getStorage() internal pure returns (State storage s) {... */\n      swap1\n      jump\t// out\n        /* \"contracts/facets/WinnerDeterminationFacet.sol\":7198:7491  function _isDuplicateWinner(uint256[] memory winners, uint256 ticket_no) private pure returns (bool isDuplicate) {... */\n    tag_148:\n        /* \"contracts/facets/WinnerDeterminationFacet.sol\":7293:7309  bool isDuplicate */\n      0x00\n        /* \"contracts/facets/WinnerDeterminationFacet.sol\":7326:7335  uint256 i */\n      dup1\n        /* \"contracts/facets/WinnerDeterminationFacet.sol\":7338:7339  0 */\n      0x00\n        /* \"contracts/facets/WinnerDeterminationFacet.sol\":7326:7339  uint256 i = 0 */\n      swap1\n      pop\n        /* \"contracts/facets/WinnerDeterminationFacet.sol\":7321:7463  for (uint256 i = 0; i < winners.length; i++) {... */\n    tag_184:\n        /* \"contracts/facets/WinnerDeterminationFacet.sol\":7345:7352  winners */\n      dup4\n        /* \"contracts/facets/WinnerDeterminationFacet.sol\":7345:7359  winners.length */\n      mload\n        /* \"contracts/facets/WinnerDeterminationFacet.sol\":7341:7342  i */\n      dup2\n        /* \"contracts/facets/WinnerDeterminationFacet.sol\":7341:7359  i < winners.length */\n      lt\n        /* \"contracts/facets/WinnerDeterminationFacet.sol\":7321:7463  for (uint256 i = 0; i < winners.length; i++) {... */\n      iszero\n      tag_185\n      jumpi\n        /* \"contracts/facets/WinnerDeterminationFacet.sol\":7398:7407  ticket_no */\n      dup3\n        /* \"contracts/facets/WinnerDeterminationFacet.sol\":7384:7391  winners */\n      dup5\n        /* \"contracts/facets/WinnerDeterminationFacet.sol\":7392:7393  i */\n      dup3\n        /* \"contracts/facets/WinnerDeterminationFacet.sol\":7384:7394  winners[i] */\n      dup2\n      mload\n      dup2\n      lt\n      tag_187\n      jumpi\n      tag_188\n      tag_52\n      jump\t// in\n    tag_188:\n    tag_187:\n      0x20\n      mul\n      0x20\n      add\n      add\n      mload\n        /* \"contracts/facets/WinnerDeterminationFacet.sol\":7384:7407  winners[i] == ticket_no */\n      sub\n        /* \"contracts/facets/WinnerDeterminationFacet.sol\":7380:7453  if (winners[i] == ticket_no) {... */\n      tag_189\n      jumpi\n        /* \"contracts/facets/WinnerDeterminationFacet.sol\":7434:7438  true */\n      0x01\n        /* \"contracts/facets/WinnerDeterminationFacet.sol\":7427:7438  return true */\n      swap2\n      pop\n      pop\n      jump(tag_183)\n        /* \"contracts/facets/WinnerDeterminationFacet.sol\":7380:7453  if (winners[i] == ticket_no) {... */\n    tag_189:\n        /* \"contracts/facets/WinnerDeterminationFacet.sol\":7361:7364  i++ */\n      dup1\n      dup1\n      0x01\n      add\n      swap2\n      pop\n      pop\n        /* \"contracts/facets/WinnerDeterminationFacet.sol\":7321:7463  for (uint256 i = 0; i < winners.length; i++) {... */\n      jump(tag_184)\n    tag_185:\n      pop\n        /* \"contracts/facets/WinnerDeterminationFacet.sol\":7479:7484  false */\n      0x00\n        /* \"contracts/facets/WinnerDeterminationFacet.sol\":7472:7484  return false */\n      swap1\n      pop\n        /* \"contracts/facets/WinnerDeterminationFacet.sol\":7198:7491  function _isDuplicateWinner(uint256[] memory winners, uint256 ticket_no) private pure returns (bool isDuplicate) {... */\n    tag_183:\n      swap3\n      swap2\n      pop\n      pop\n      jump\t// out\n        /* \"#utility.yul\":88:205   */\n    tag_191:\n        /* \"#utility.yul\":197:198   */\n      0x00\n        /* \"#utility.yul\":194:195   */\n      dup1\n        /* \"#utility.yul\":187:199   */\n      revert\n        /* \"#utility.yul\":334:411   */\n    tag_193:\n        /* \"#utility.yul\":371:378   */\n      0x00\n        /* \"#utility.yul\":400:405   */\n      dup2\n        /* \"#utility.yul\":389:405   */\n      swap1\n      pop\n        /* \"#utility.yul\":334:411   */\n      swap2\n      swap1\n      pop\n      jump\t// out\n        /* \"#utility.yul\":417:539   */\n    tag_194:\n        /* \"#utility.yul\":490:514   */\n      tag_250\n        /* \"#utility.yul\":508:513   */\n      dup2\n        /* \"#utility.yul\":490:514   */\n      tag_193\n      jump\t// in\n    tag_250:\n        /* \"#utility.yul\":483:488   */\n      dup2\n        /* \"#utility.yul\":480:515   */\n      eq\n        /* \"#utility.yul\":470:533   */\n      tag_251\n      jumpi\n        /* \"#utility.yul\":529:530   */\n      0x00\n        /* \"#utility.yul\":526:527   */\n      dup1\n        /* \"#utility.yul\":519:531   */\n      revert\n        /* \"#utility.yul\":470:533   */\n    tag_251:\n        /* \"#utility.yul\":417:539   */\n      pop\n      jump\t// out\n        /* \"#utility.yul\":545:684   */\n    tag_195:\n        /* \"#utility.yul\":591:596   */\n      0x00\n        /* \"#utility.yul\":629:635   */\n      dup2\n        /* \"#utility.yul\":616:636   */\n      calldataload\n        /* \"#utility.yul\":607:636   */\n      swap1\n      pop\n        /* \"#utility.yul\":645:678   */\n      tag_253\n        /* \"#utility.yul\":672:677   */\n      dup2\n        /* \"#utility.yul\":645:678   */\n      tag_194\n      jump\t// in\n    tag_253:\n        /* \"#utility.yul\":545:684   */\n      swap3\n      swap2\n      pop\n      pop\n      jump\t// out\n        /* \"#utility.yul\":690:1164   */\n    tag_9:\n        /* \"#utility.yul\":758:764   */\n      0x00\n        /* \"#utility.yul\":766:772   */\n      dup1\n        /* \"#utility.yul\":815:817   */\n      0x40\n        /* \"#utility.yul\":803:812   */\n      dup4\n        /* \"#utility.yul\":794:801   */\n      dup6\n        /* \"#utility.yul\":790:813   */\n      sub\n        /* \"#utility.yul\":786:818   */\n      slt\n        /* \"#utility.yul\":783:902   */\n      iszero\n      tag_255\n      jumpi\n        /* \"#utility.yul\":821:900   */\n      tag_256\n      tag_191\n      jump\t// in\n    tag_256:\n        /* \"#utility.yul\":783:902   */\n    tag_255:\n        /* \"#utility.yul\":941:942   */\n      0x00\n        /* \"#utility.yul\":966:1019   */\n      tag_257\n        /* \"#utility.yul\":1011:1018   */\n      dup6\n        /* \"#utility.yul\":1002:1008   */\n      dup3\n        /* \"#utility.yul\":991:1000   */\n      dup7\n        /* \"#utility.yul\":987:1009   */\n      add\n        /* \"#utility.yul\":966:1019   */\n      tag_195\n      jump\t// in\n    tag_257:\n        /* \"#utility.yul\":956:1019   */\n      swap3\n      pop\n        /* \"#utility.yul\":912:1029   */\n      pop\n        /* \"#utility.yul\":1068:1070   */\n      0x20\n        /* \"#utility.yul\":1094:1147   */\n      tag_258\n        /* \"#utility.yul\":1139:1146   */\n      dup6\n        /* \"#utility.yul\":1130:1136   */\n      dup3\n        /* \"#utility.yul\":1119:1128   */\n      dup7\n        /* \"#utility.yul\":1115:1137   */\n      add\n        /* \"#utility.yul\":1094:1147   */\n      tag_195\n      jump\t// in\n    tag_258:\n        /* \"#utility.yul\":1084:1147   */\n      swap2\n      pop\n        /* \"#utility.yul\":1039:1157   */\n      pop\n        /* \"#utility.yul\":690:1164   */\n      swap3\n      pop\n      swap3\n      swap1\n      pop\n      jump\t// out\n        /* \"#utility.yul\":1170:1260   */\n    tag_196:\n        /* \"#utility.yul\":1204:1211   */\n      0x00\n        /* \"#utility.yul\":1247:1252   */\n      dup2\n        /* \"#utility.yul\":1240:1253   */\n      iszero\n        /* \"#utility.yul\":1233:1254   */\n      iszero\n        /* \"#utility.yul\":1222:1254   */\n      swap1\n      pop\n        /* \"#utility.yul\":1170:1260   */\n      swap2\n      swap1\n      pop\n      jump\t// out\n        /* \"#utility.yul\":1266:1375   */\n    tag_197:\n        /* \"#utility.yul\":1347:1368   */\n      tag_261\n        /* \"#utility.yul\":1362:1367   */\n      dup2\n        /* \"#utility.yul\":1347:1368   */\n      tag_196\n      jump\t// in\n    tag_261:\n        /* \"#utility.yul\":1342:1345   */\n      dup3\n        /* \"#utility.yul\":1335:1369   */\n      mstore\n        /* \"#utility.yul\":1266:1375   */\n      pop\n      pop\n      jump\t// out\n        /* \"#utility.yul\":1381:1591   */\n    tag_12:\n        /* \"#utility.yul\":1468:1472   */\n      0x00\n        /* \"#utility.yul\":1506:1508   */\n      0x20\n        /* \"#utility.yul\":1495:1504   */\n      dup3\n        /* \"#utility.yul\":1491:1509   */\n      add\n        /* \"#utility.yul\":1483:1509   */\n      swap1\n      pop\n        /* \"#utility.yul\":1519:1584   */\n      tag_263\n        /* \"#utility.yul\":1581:1582   */\n      0x00\n        /* \"#utility.yul\":1570:1579   */\n      dup4\n        /* \"#utility.yul\":1566:1583   */\n      add\n        /* \"#utility.yul\":1557:1563   */\n      dup5\n        /* \"#utility.yul\":1519:1584   */\n      tag_197\n      jump\t// in\n    tag_263:\n        /* \"#utility.yul\":1381:1591   */\n      swap3\n      swap2\n      pop\n      pop\n      jump\t// out\n        /* \"#utility.yul\":1597:1723   */\n    tag_198:\n        /* \"#utility.yul\":1634:1641   */\n      0x00\n        /* \"#utility.yul\":1674:1716   */\n      0xffffffffffffffffffffffffffffffffffffffff\n        /* \"#utility.yul\":1667:1672   */\n      dup3\n        /* \"#utility.yul\":1663:1717   */\n      and\n        /* \"#utility.yul\":1652:1717   */\n      swap1\n      pop\n        /* \"#utility.yul\":1597:1723   */\n      swap2\n      swap1\n      pop\n      jump\t// out\n        /* \"#utility.yul\":1729:1825   */\n    tag_199:\n        /* \"#utility.yul\":1766:1773   */\n      0x00\n        /* \"#utility.yul\":1795:1819   */\n      tag_266\n        /* \"#utility.yul\":1813:1818   */\n      dup3\n        /* \"#utility.yul\":1795:1819   */\n      tag_198\n      jump\t// in\n    tag_266:\n        /* \"#utility.yul\":1784:1819   */\n      swap1\n      pop\n        /* \"#utility.yul\":1729:1825   */\n      swap2\n      swap1\n      pop\n      jump\t// out\n        /* \"#utility.yul\":1831:1953   */\n    tag_200:\n        /* \"#utility.yul\":1904:1928   */\n      tag_268\n        /* \"#utility.yul\":1922:1927   */\n      dup2\n        /* \"#utility.yul\":1904:1928   */\n      tag_199\n      jump\t// in\n    tag_268:\n        /* \"#utility.yul\":1897:1902   */\n      dup2\n        /* \"#utility.yul\":1894:1929   */\n      eq\n        /* \"#utility.yul\":1884:1947   */\n      tag_269\n      jumpi\n        /* \"#utility.yul\":1943:1944   */\n      0x00\n        /* \"#utility.yul\":1940:1941   */\n      dup1\n        /* \"#utility.yul\":1933:1945   */\n      revert\n        /* \"#utility.yul\":1884:1947   */\n    tag_269:\n        /* \"#utility.yul\":1831:1953   */\n      pop\n      jump\t// out\n        /* \"#utility.yul\":1959:2098   */\n    tag_201:\n        /* \"#utility.yul\":2005:2010   */\n      0x00\n        /* \"#utility.yul\":2043:2049   */\n      dup2\n        /* \"#utility.yul\":2030:2050   */\n      calldataload\n        /* \"#utility.yul\":2021:2050   */\n      swap1\n      pop\n        /* \"#utility.yul\":2059:2092   */\n      tag_271\n        /* \"#utility.yul\":2086:2091   */\n      dup2\n        /* \"#utility.yul\":2059:2092   */\n      tag_200\n      jump\t// in\n    tag_271:\n        /* \"#utility.yul\":1959:2098   */\n      swap3\n      swap2\n      pop\n      pop\n      jump\t// out\n        /* \"#utility.yul\":2104:2723   */\n    tag_15:\n        /* \"#utility.yul\":2181:2187   */\n      0x00\n        /* \"#utility.yul\":2189:2195   */\n      dup1\n        /* \"#utility.yul\":2197:2203   */\n      0x00\n        /* \"#utility.yul\":2246:2248   */\n      0x60\n        /* \"#utility.yul\":2234:2243   */\n      dup5\n        /* \"#utility.yul\":2225:2232   */\n      dup7\n        /* \"#utility.yul\":2221:2244   */\n      sub\n        /* \"#utility.yul\":2217:2249   */\n      slt\n        /* \"#utility.yul\":2214:2333   */\n      iszero\n      tag_273\n      jumpi\n        /* \"#utility.yul\":2252:2331   */\n      tag_274\n      tag_191\n      jump\t// in\n    tag_274:\n        /* \"#utility.yul\":2214:2333   */\n    tag_273:\n        /* \"#utility.yul\":2372:2373   */\n      0x00\n        /* \"#utility.yul\":2397:2450   */\n      tag_275\n        /* \"#utility.yul\":2442:2449   */\n      dup7\n        /* \"#utility.yul\":2433:2439   */\n      dup3\n        /* \"#utility.yul\":2422:2431   */\n      dup8\n        /* \"#utility.yul\":2418:2440   */\n      add\n        /* \"#utility.yul\":2397:2450   */\n      tag_201\n      jump\t// in\n    tag_275:\n        /* \"#utility.yul\":2387:2450   */\n      swap4\n      pop\n        /* \"#utility.yul\":2343:2460   */\n      pop\n        /* \"#utility.yul\":2499:2501   */\n      0x20\n        /* \"#utility.yul\":2525:2578   */\n      tag_276\n        /* \"#utility.yul\":2570:2577   */\n      dup7\n        /* \"#utility.yul\":2561:2567   */\n      dup3\n        /* \"#utility.yul\":2550:2559   */\n      dup8\n        /* \"#utility.yul\":2546:2568   */\n      add\n        /* \"#utility.yul\":2525:2578   */\n      tag_195\n      jump\t// in\n    tag_276:\n        /* \"#utility.yul\":2515:2578   */\n      swap3\n      pop\n        /* \"#utility.yul\":2470:2588   */\n      pop\n        /* \"#utility.yul\":2627:2629   */\n      0x40\n        /* \"#utility.yul\":2653:2706   */\n      tag_277\n        /* \"#utility.yul\":2698:2705   */\n      dup7\n        /* \"#utility.yul\":2689:2695   */\n      dup3\n        /* \"#utility.yul\":2678:2687   */\n      dup8\n        /* \"#utility.yul\":2674:2696   */\n      add\n        /* \"#utility.yul\":2653:2706   */\n      tag_195\n      jump\t// in\n    tag_277:\n        /* \"#utility.yul\":2643:2706   */\n      swap2\n      pop\n        /* \"#utility.yul\":2598:2716   */\n      pop\n        /* \"#utility.yul\":2104:2723   */\n      swap3\n      pop\n      swap3\n      pop\n      swap3\n      jump\t// out\n        /* \"#utility.yul\":2729:3058   */\n    tag_20:\n        /* \"#utility.yul\":2788:2794   */\n      0x00\n        /* \"#utility.yul\":2837:2839   */\n      0x20\n        /* \"#utility.yul\":2825:2834   */\n      dup3\n        /* \"#utility.yul\":2816:2823   */\n      dup5\n        /* \"#utility.yul\":2812:2835   */\n      sub\n        /* \"#utility.yul\":2808:2840   */\n      slt\n        /* \"#utility.yul\":2805:2924   */\n      iszero\n      tag_279\n      jumpi\n        /* \"#utility.yul\":2843:2922   */\n      tag_280\n      tag_191\n      jump\t// in\n    tag_280:\n        /* \"#utility.yul\":2805:2924   */\n    tag_279:\n        /* \"#utility.yul\":2963:2964   */\n      0x00\n        /* \"#utility.yul\":2988:3041   */\n      tag_281\n        /* \"#utility.yul\":3033:3040   */\n      dup5\n        /* \"#utility.yul\":3024:3030   */\n      dup3\n        /* \"#utility.yul\":3013:3022   */\n      dup6\n        /* \"#utility.yul\":3009:3031   */\n      add\n        /* \"#utility.yul\":2988:3041   */\n      tag_195\n      jump\t// in\n    tag_281:\n        /* \"#utility.yul\":2978:3041   */\n      swap2\n      pop\n        /* \"#utility.yul\":2934:3051   */\n      pop\n        /* \"#utility.yul\":2729:3058   */\n      swap3\n      swap2\n      pop\n      pop\n      jump\t// out\n        /* \"#utility.yul\":3064:3182   */\n    tag_202:\n        /* \"#utility.yul\":3151:3175   */\n      tag_283\n        /* \"#utility.yul\":3169:3174   */\n      dup2\n        /* \"#utility.yul\":3151:3175   */\n      tag_193\n      jump\t// in\n    tag_283:\n        /* \"#utility.yul\":3146:3149   */\n      dup3\n        /* \"#utility.yul\":3139:3176   */\n      mstore\n        /* \"#utility.yul\":3064:3182   */\n      pop\n      pop\n      jump\t// out\n        /* \"#utility.yul\":3188:3410   */\n    tag_26:\n        /* \"#utility.yul\":3281:3285   */\n      0x00\n        /* \"#utility.yul\":3319:3321   */\n      0x20\n        /* \"#utility.yul\":3308:3317   */\n      dup3\n        /* \"#utility.yul\":3304:3322   */\n      add\n        /* \"#utility.yul\":3296:3322   */\n      swap1\n      pop\n        /* \"#utility.yul\":3332:3403   */\n      tag_285\n        /* \"#utility.yul\":3400:3401   */\n      0x00\n        /* \"#utility.yul\":3389:3398   */\n      dup4\n        /* \"#utility.yul\":3385:3402   */\n      add\n        /* \"#utility.yul\":3376:3382   */\n      dup5\n        /* \"#utility.yul\":3332:3403   */\n      tag_202\n      jump\t// in\n    tag_285:\n        /* \"#utility.yul\":3188:3410   */\n      swap3\n      swap2\n      pop\n      pop\n      jump\t// out\n        /* \"#utility.yul\":3416:3596   */\n    tag_203:\n        /* \"#utility.yul\":3464:3541   */\n      0x4e487b7100000000000000000000000000000000000000000000000000000000\n        /* \"#utility.yul\":3461:3462   */\n      0x00\n        /* \"#utility.yul\":3454:3542   */\n      mstore\n        /* \"#utility.yul\":3561:3565   */\n      0x11\n        /* \"#utility.yul\":3558:3559   */\n      0x04\n        /* \"#utility.yul\":3551:3566   */\n      mstore\n        /* \"#utility.yul\":3585:3589   */\n      0x24\n        /* \"#utility.yul\":3582:3583   */\n      0x00\n        /* \"#utility.yul\":3575:3590   */\n      revert\n        /* \"#utility.yul\":3602:3796   */\n    tag_32:\n        /* \"#utility.yul\":3642:3646   */\n      0x00\n        /* \"#utility.yul\":3662:3682   */\n      tag_288\n        /* \"#utility.yul\":3680:3681   */\n      dup3\n        /* \"#utility.yul\":3662:3682   */\n      tag_193\n      jump\t// in\n    tag_288:\n        /* \"#utility.yul\":3657:3682   */\n      swap2\n      pop\n        /* \"#utility.yul\":3696:3716   */\n      tag_289\n        /* \"#utility.yul\":3714:3715   */\n      dup4\n        /* \"#utility.yul\":3696:3716   */\n      tag_193\n      jump\t// in\n    tag_289:\n        /* \"#utility.yul\":3691:3716   */\n      swap3\n      pop\n        /* \"#utility.yul\":3740:3741   */\n      dup3\n        /* \"#utility.yul\":3737:3738   */\n      dup3\n        /* \"#utility.yul\":3733:3742   */\n      sub\n        /* \"#utility.yul\":3725:3742   */\n      swap1\n      pop\n        /* \"#utility.yul\":3764:3765   */\n      dup2\n        /* \"#utility.yul\":3758:3762   */\n      dup2\n        /* \"#utility.yul\":3755:3766   */\n      gt\n        /* \"#utility.yul\":3752:3789   */\n      iszero\n      tag_290\n      jumpi\n        /* \"#utility.yul\":3769:3787   */\n      tag_291\n      tag_203\n      jump\t// in\n    tag_291:\n        /* \"#utility.yul\":3752:3789   */\n    tag_290:\n        /* \"#utility.yul\":3602:3796   */\n      swap3\n      swap2\n      pop\n      pop\n      jump\t// out\n        /* \"#utility.yul\":3802:3971   */\n    tag_204:\n        /* \"#utility.yul\":3886:3897   */\n      0x00\n        /* \"#utility.yul\":3920:3926   */\n      dup3\n        /* \"#utility.yul\":3915:3918   */\n      dup3\n        /* \"#utility.yul\":3908:3927   */\n      mstore\n        /* \"#utility.yul\":3960:3964   */\n      0x20\n        /* \"#utility.yul\":3955:3958   */\n      dup3\n        /* \"#utility.yul\":3951:3965   */\n      add\n        /* \"#utility.yul\":3936:3965   */\n      swap1\n      pop\n        /* \"#utility.yul\":3802:3971   */\n      swap3\n      swap2\n      pop\n      pop\n      jump\t// out\n        /* \"#utility.yul\":3977:4149   */\n    tag_205:\n        /* \"#utility.yul\":4117:4141   */\n      0x496e76616c6964206c6f7474657279206e756d62657200000000000000000000\n        /* \"#utility.yul\":4113:4114   */\n      0x00\n        /* \"#utility.yul\":4105:4111   */\n      dup3\n        /* \"#utility.yul\":4101:4115   */\n      add\n        /* \"#utility.yul\":4094:4142   */\n      mstore\n        /* \"#utility.yul\":3977:4149   */\n      pop\n      jump\t// out\n        /* \"#utility.yul\":4155:4521   */\n    tag_206:\n        /* \"#utility.yul\":4297:4300   */\n      0x00\n        /* \"#utility.yul\":4318:4385   */\n      tag_295\n        /* \"#utility.yul\":4382:4384   */\n      0x16\n        /* \"#utility.yul\":4377:4380   */\n      dup4\n        /* \"#utility.yul\":4318:4385   */\n      tag_204\n      jump\t// in\n    tag_295:\n        /* \"#utility.yul\":4311:4385   */\n      swap2\n      pop\n        /* \"#utility.yul\":4394:4487   */\n      tag_296\n        /* \"#utility.yul\":4483:4486   */\n      dup3\n        /* \"#utility.yul\":4394:4487   */\n      tag_205\n      jump\t// in\n    tag_296:\n        /* \"#utility.yul\":4512:4514   */\n      0x20\n        /* \"#utility.yul\":4507:4510   */\n      dup3\n        /* \"#utility.yul\":4503:4515   */\n      add\n        /* \"#utility.yul\":4496:4515   */\n      swap1\n      pop\n        /* \"#utility.yul\":4155:4521   */\n      swap2\n      swap1\n      pop\n      jump\t// out\n        /* \"#utility.yul\":4527:4946   */\n    tag_35:\n        /* \"#utility.yul\":4693:4697   */\n      0x00\n        /* \"#utility.yul\":4731:4733   */\n      0x20\n        /* \"#utility.yul\":4720:4729   */\n      dup3\n        /* \"#utility.yul\":4716:4734   */\n      add\n        /* \"#utility.yul\":4708:4734   */\n      swap1\n      pop\n        /* \"#utility.yul\":4780:4789   */\n      dup2\n        /* \"#utility.yul\":4774:4778   */\n      dup2\n        /* \"#utility.yul\":4770:4790   */\n      sub\n        /* \"#utility.yul\":4766:4767   */\n      0x00\n        /* \"#utility.yul\":4755:4764   */\n      dup4\n        /* \"#utility.yul\":4751:4768   */\n      add\n        /* \"#utility.yul\":4744:4791   */\n      mstore\n        /* \"#utility.yul\":4808:4939   */\n      tag_298\n        /* \"#utility.yul\":4934:4938   */\n      dup2\n        /* \"#utility.yul\":4808:4939   */\n      tag_206\n      jump\t// in\n    tag_298:\n        /* \"#utility.yul\":4800:4939   */\n      swap1\n      pop\n        /* \"#utility.yul\":4527:4946   */\n      swap2\n      swap1\n      pop\n      jump\t// out\n        /* \"#utility.yul\":4952:5132   */\n    tag_41:\n        /* \"#utility.yul\":5000:5077   */\n      0x4e487b7100000000000000000000000000000000000000000000000000000000\n        /* \"#utility.yul\":4997:4998   */\n      0x00\n        /* \"#utility.yul\":4990:5078   */\n      mstore\n        /* \"#utility.yul\":5097:5101   */\n      0x21\n        /* \"#utility.yul\":5094:5095   */\n      0x04\n        /* \"#utility.yul\":5087:5102   */\n      mstore\n        /* \"#utility.yul\":5121:5125   */\n      0x24\n        /* \"#utility.yul\":5118:5119   */\n      0x00\n        /* \"#utility.yul\":5111:5126   */\n      revert\n        /* \"#utility.yul\":5138:5318   */\n    tag_207:\n        /* \"#utility.yul\":5278:5310   */\n      0x4c6f7474657279206973206e6f7420434f4d504c455445442073746174650000\n        /* \"#utility.yul\":5274:5275   */\n      0x00\n        /* \"#utility.yul\":5266:5272   */\n      dup3\n        /* \"#utility.yul\":5262:5276   */\n      add\n        /* \"#utility.yul\":5255:5311   */\n      mstore\n        /* \"#utility.yul\":5138:5318   */\n      pop\n      jump\t// out\n        /* \"#utility.yul\":5324:5690   */\n    tag_208:\n        /* \"#utility.yul\":5466:5469   */\n      0x00\n        /* \"#utility.yul\":5487:5554   */\n      tag_302\n        /* \"#utility.yul\":5551:5553   */\n      0x1e\n        /* \"#utility.yul\":5546:5549   */\n      dup4\n        /* \"#utility.yul\":5487:5554   */\n      tag_204\n      jump\t// in\n    tag_302:\n        /* \"#utility.yul\":5480:5554   */\n      swap2\n      pop\n        /* \"#utility.yul\":5563:5656   */\n      tag_303\n        /* \"#utility.yul\":5652:5655   */\n      dup3\n        /* \"#utility.yul\":5563:5656   */\n      tag_207\n      jump\t// in\n    tag_303:\n        /* \"#utility.yul\":5681:5683   */\n      0x20\n        /* \"#utility.yul\":5676:5679   */\n      dup3\n        /* \"#utility.yul\":5672:5684   */\n      add\n        /* \"#utility.yul\":5665:5684   */\n      swap1\n      pop\n        /* \"#utility.yul\":5324:5690   */\n      swap2\n      swap1\n      pop\n      jump\t// out\n        /* \"#utility.yul\":5696:6115   */\n    tag_46:\n        /* \"#utility.yul\":5862:5866   */\n      0x00\n        /* \"#utility.yul\":5900:5902   */\n      0x20\n        /* \"#utility.yul\":5889:5898   */\n      dup3\n        /* \"#utility.yul\":5885:5903   */\n      add\n        /* \"#utility.yul\":5877:5903   */\n      swap1\n      pop\n        /* \"#utility.yul\":5949:5958   */\n      dup2\n        /* \"#utility.yul\":5943:5947   */\n      dup2\n        /* \"#utility.yul\":5939:5959   */\n      sub\n        /* \"#utility.yul\":5935:5936   */\n      0x00\n        /* \"#utility.yul\":5924:5933   */\n      dup4\n        /* \"#utility.yul\":5920:5937   */\n      add\n        /* \"#utility.yul\":5913:5960   */\n      mstore\n        /* \"#utility.yul\":5977:6108   */\n      tag_305\n        /* \"#utility.yul\":6103:6107   */\n      dup2\n        /* \"#utility.yul\":5977:6108   */\n      tag_208\n      jump\t// in\n    tag_305:\n        /* \"#utility.yul\":5969:6108   */\n      swap1\n      pop\n        /* \"#utility.yul\":5696:6115   */\n      swap2\n      swap1\n      pop\n      jump\t// out\n        /* \"#utility.yul\":6121:6292   */\n    tag_209:\n        /* \"#utility.yul\":6261:6284   */\n      0x496e76616c6964207469636b6574206e756d6265720000000000000000000000\n        /* \"#utility.yul\":6257:6258   */\n      0x00\n        /* \"#utility.yul\":6249:6255   */\n      dup3\n        /* \"#utility.yul\":6245:6259   */\n      add\n        /* \"#utility.yul\":6238:6285   */\n      mstore\n        /* \"#utility.yul\":6121:6292   */\n      pop\n      jump\t// out\n        /* \"#utility.yul\":6298:6664   */\n    tag_210:\n        /* \"#utility.yul\":6440:6443   */\n      0x00\n        /* \"#utility.yul\":6461:6528   */\n      tag_308\n        /* \"#utility.yul\":6525:6527   */\n      0x15\n        /* \"#utility.yul\":6520:6523   */\n      dup4\n        /* \"#utility.yul\":6461:6528   */\n      tag_204\n      jump\t// in\n    tag_308:\n        /* \"#utility.yul\":6454:6528   */\n      swap2\n      pop\n        /* \"#utility.yul\":6537:6630   */\n      tag_309\n        /* \"#utility.yul\":6626:6629   */\n      dup3\n        /* \"#utility.yul\":6537:6630   */\n      tag_209\n      jump\t// in\n    tag_309:\n        /* \"#utility.yul\":6655:6657   */\n      0x20\n        /* \"#utility.yul\":6650:6653   */\n      dup3\n        /* \"#utility.yul\":6646:6658   */\n      add\n        /* \"#utility.yul\":6639:6658   */\n      swap1\n      pop\n        /* \"#utility.yul\":6298:6664   */\n      swap2\n      swap1\n      pop\n      jump\t// out\n        /* \"#utility.yul\":6670:7089   */\n    tag_49:\n        /* \"#utility.yul\":6836:6840   */\n      0x00\n        /* \"#utility.yul\":6874:6876   */\n      0x20\n        /* \"#utility.yul\":6863:6872   */\n      dup3\n        /* \"#utility.yul\":6859:6877   */\n      add\n        /* \"#utility.yul\":6851:6877   */\n      swap1\n      pop\n        /* \"#utility.yul\":6923:6932   */\n      dup2\n        /* \"#utility.yul\":6917:6921   */\n      dup2\n        /* \"#utility.yul\":6913:6933   */\n      sub\n        /* \"#utility.yul\":6909:6910   */\n      0x00\n        /* \"#utility.yul\":6898:6907   */\n      dup4\n        /* \"#utility.yul\":6894:6911   */\n      add\n        /* \"#utility.yul\":6887:6934   */\n      mstore\n        /* \"#utility.yul\":6951:7082   */\n      tag_311\n        /* \"#utility.yul\":7077:7081   */\n      dup2\n        /* \"#utility.yul\":6951:7082   */\n      tag_210\n      jump\t// in\n    tag_311:\n        /* \"#utility.yul\":6943:7082   */\n      swap1\n      pop\n        /* \"#utility.yul\":6670:7089   */\n      swap2\n      swap1\n      pop\n      jump\t// out\n        /* \"#utility.yul\":7095:7275   */\n    tag_52:\n        /* \"#utility.yul\":7143:7220   */\n      0x4e487b7100000000000000000000000000000000000000000000000000000000\n        /* \"#utility.yul\":7140:7141   */\n      0x00\n        /* \"#utility.yul\":7133:7221   */\n      mstore\n        /* \"#utility.yul\":7240:7244   */\n      0x32\n        /* \"#utility.yul\":7237:7238   */\n      0x04\n        /* \"#utility.yul\":7230:7245   */\n      mstore\n        /* \"#utility.yul\":7264:7268   */\n      0x24\n        /* \"#utility.yul\":7261:7262   */\n      0x00\n        /* \"#utility.yul\":7254:7269   */\n      revert\n        /* \"#utility.yul\":7281:7457   */\n    tag_211:\n        /* \"#utility.yul\":7421:7449   */\n      0x596f7520646f206e6f74206f776e2074686973207469636b6574000000000000\n        /* \"#utility.yul\":7417:7418   */\n      0x00\n        /* \"#utility.yul\":7409:7415   */\n      dup3\n        /* \"#utility.yul\":7405:7419   */\n      add\n        /* \"#utility.yul\":7398:7450   */\n      mstore\n        /* \"#utility.yul\":7281:7457   */\n      pop\n      jump\t// out\n        /* \"#utility.yul\":7463:7829   */\n    tag_212:\n        /* \"#utility.yul\":7605:7608   */\n      0x00\n        /* \"#utility.yul\":7626:7693   */\n      tag_315\n        /* \"#utility.yul\":7690:7692   */\n      0x1a\n        /* \"#utility.yul\":7685:7688   */\n      dup4\n        /* \"#utility.yul\":7626:7693   */\n      tag_204\n      jump\t// in\n    tag_315:\n        /* \"#utility.yul\":7619:7693   */\n      swap2\n      pop\n        /* \"#utility.yul\":7702:7795   */\n      tag_316\n        /* \"#utility.yul\":7791:7794   */\n      dup3\n        /* \"#utility.yul\":7702:7795   */\n      tag_211\n      jump\t// in\n    tag_316:\n        /* \"#utility.yul\":7820:7822   */\n      0x20\n        /* \"#utility.yul\":7815:7818   */\n      dup3\n        /* \"#utility.yul\":7811:7823   */\n      add\n        /* \"#utility.yul\":7804:7823   */\n      swap1\n      pop\n        /* \"#utility.yul\":7463:7829   */\n      swap2\n      swap1\n      pop\n      jump\t// out\n        /* \"#utility.yul\":7835:8254   */\n    tag_56:\n        /* \"#utility.yul\":8001:8005   */\n      0x00\n        /* \"#utility.yul\":8039:8041   */\n      0x20\n        /* \"#utility.yul\":8028:8037   */\n      dup3\n        /* \"#utility.yul\":8024:8042   */\n      add\n        /* \"#utility.yul\":8016:8042   */\n      swap1\n      pop\n        /* \"#utility.yul\":8088:8097   */\n      dup2\n        /* \"#utility.yul\":8082:8086   */\n      dup2\n        /* \"#utility.yul\":8078:8098   */\n      sub\n        /* \"#utility.yul\":8074:8075   */\n      0x00\n        /* \"#utility.yul\":8063:8072   */\n      dup4\n        /* \"#utility.yul\":8059:8076   */\n      add\n        /* \"#utility.yul\":8052:8099   */\n      mstore\n        /* \"#utility.yul\":8116:8247   */\n      tag_318\n        /* \"#utility.yul\":8242:8246   */\n      dup2\n        /* \"#utility.yul\":8116:8247   */\n      tag_212\n      jump\t// in\n    tag_318:\n        /* \"#utility.yul\":8108:8247   */\n      swap1\n      pop\n        /* \"#utility.yul\":7835:8254   */\n      swap2\n      swap1\n      pop\n      jump\t// out\n        /* \"#utility.yul\":8260:8487   */\n    tag_213:\n        /* \"#utility.yul\":8400:8434   */\n      0x596f7520646964206e6f74207375626d697474656420796f75722072616e646f\n        /* \"#utility.yul\":8396:8397   */\n      0x00\n        /* \"#utility.yul\":8388:8394   */\n      dup3\n        /* \"#utility.yul\":8384:8398   */\n      add\n        /* \"#utility.yul\":8377:8435   */\n      mstore\n        /* \"#utility.yul\":8469:8479   */\n      0x6d206e756d626572000000000000000000000000000000000000000000000000\n        /* \"#utility.yul\":8464:8466   */\n      0x20\n        /* \"#utility.yul\":8456:8462   */\n      dup3\n        /* \"#utility.yul\":8452:8467   */\n      add\n        /* \"#utility.yul\":8445:8480   */\n      mstore\n        /* \"#utility.yul\":8260:8487   */\n      pop\n      jump\t// out\n        /* \"#utility.yul\":8493:8859   */\n    tag_214:\n        /* \"#utility.yul\":8635:8638   */\n      0x00\n        /* \"#utility.yul\":8656:8723   */\n      tag_321\n        /* \"#utility.yul\":8720:8722   */\n      0x28\n        /* \"#utility.yul\":8715:8718   */\n      dup4\n        /* \"#utility.yul\":8656:8723   */\n      tag_204\n      jump\t// in\n    tag_321:\n        /* \"#utility.yul\":8649:8723   */\n      swap2\n      pop\n        /* \"#utility.yul\":8732:8825   */\n      tag_322\n        /* \"#utility.yul\":8821:8824   */\n      dup3\n        /* \"#utility.yul\":8732:8825   */\n      tag_213\n      jump\t// in\n    tag_322:\n        /* \"#utility.yul\":8850:8852   */\n      0x40\n        /* \"#utility.yul\":8845:8848   */\n      dup3\n        /* \"#utility.yul\":8841:8853   */\n      add\n        /* \"#utility.yul\":8834:8853   */\n      swap1\n      pop\n        /* \"#utility.yul\":8493:8859   */\n      swap2\n      swap1\n      pop\n      jump\t// out\n        /* \"#utility.yul\":8865:9284   */\n    tag_59:\n        /* \"#utility.yul\":9031:9035   */\n      0x00\n        /* \"#utility.yul\":9069:9071   */\n      0x20\n        /* \"#utility.yul\":9058:9067   */\n      dup3\n        /* \"#utility.yul\":9054:9072   */\n      add\n        /* \"#utility.yul\":9046:9072   */\n      swap1\n      pop\n        /* \"#utility.yul\":9118:9127   */\n      dup2\n        /* \"#utility.yul\":9112:9116   */\n      dup2\n        /* \"#utility.yul\":9108:9128   */\n      sub\n        /* \"#utility.yul\":9104:9105   */\n      0x00\n        /* \"#utility.yul\":9093:9102   */\n      dup4\n        /* \"#utility.yul\":9089:9106   */\n      add\n        /* \"#utility.yul\":9082:9129   */\n      mstore\n        /* \"#utility.yul\":9146:9277   */\n      tag_324\n        /* \"#utility.yul\":9272:9276   */\n      dup2\n        /* \"#utility.yul\":9146:9277   */\n      tag_214\n      jump\t// in\n    tag_324:\n        /* \"#utility.yul\":9138:9277   */\n      swap1\n      pop\n        /* \"#utility.yul\":8865:9284   */\n      swap2\n      swap1\n      pop\n      jump\t// out\n        /* \"#utility.yul\":9290:9461   */\n    tag_215:\n        /* \"#utility.yul\":9430:9453   */\n      0x4c6f7474657279206e6f7420636f6d706c657465640000000000000000000000\n        /* \"#utility.yul\":9426:9427   */\n      0x00\n        /* \"#utility.yul\":9418:9424   */\n      dup3\n        /* \"#utility.yul\":9414:9428   */\n      add\n        /* \"#utility.yul\":9407:9454   */\n      mstore\n        /* \"#utility.yul\":9290:9461   */\n      pop\n      jump\t// out\n        /* \"#utility.yul\":9467:9833   */\n    tag_216:\n        /* \"#utility.yul\":9609:9612   */\n      0x00\n        /* \"#utility.yul\":9630:9697   */\n      tag_327\n        /* \"#utility.yul\":9694:9696   */\n      0x15\n        /* \"#utility.yul\":9689:9692   */\n      dup4\n        /* \"#utility.yul\":9630:9697   */\n      tag_204\n      jump\t// in\n    tag_327:\n        /* \"#utility.yul\":9623:9697   */\n      swap2\n      pop\n        /* \"#utility.yul\":9706:9799   */\n      tag_328\n        /* \"#utility.yul\":9795:9798   */\n      dup3\n        /* \"#utility.yul\":9706:9799   */\n      tag_215\n      jump\t// in\n    tag_328:\n        /* \"#utility.yul\":9824:9826   */\n      0x20\n        /* \"#utility.yul\":9819:9822   */\n      dup3\n        /* \"#utility.yul\":9815:9827   */\n      add\n        /* \"#utility.yul\":9808:9827   */\n      swap1\n      pop\n        /* \"#utility.yul\":9467:9833   */\n      swap2\n      swap1\n      pop\n      jump\t// out\n        /* \"#utility.yul\":9839:10258   */\n    tag_82:\n        /* \"#utility.yul\":10005:10009   */\n      0x00\n        /* \"#utility.yul\":10043:10045   */\n      0x20\n        /* \"#utility.yul\":10032:10041   */\n      dup3\n        /* \"#utility.yul\":10028:10046   */\n      add\n        /* \"#utility.yul\":10020:10046   */\n      swap1\n      pop\n        /* \"#utility.yul\":10092:10101   */\n      dup2\n        /* \"#utility.yul\":10086:10090   */\n      dup2\n        /* \"#utility.yul\":10082:10102   */\n      sub\n        /* \"#utility.yul\":10078:10079   */\n      0x00\n        /* \"#utility.yul\":10067:10076   */\n      dup4\n        /* \"#utility.yul\":10063:10080   */\n      add\n        /* \"#utility.yul\":10056:10103   */\n      mstore\n        /* \"#utility.yul\":10120:10251   */\n      tag_330\n        /* \"#utility.yul\":10246:10250   */\n      dup2\n        /* \"#utility.yul\":10120:10251   */\n      tag_216\n      jump\t// in\n    tag_330:\n        /* \"#utility.yul\":10112:10251   */\n      swap1\n      pop\n        /* \"#utility.yul\":9839:10258   */\n      swap2\n      swap1\n      pop\n      jump\t// out\n        /* \"#utility.yul\":10264:10446   */\n    tag_217:\n        /* \"#utility.yul\":10404:10438   */\n      0x4164647265737320646f6573206e6f74206f776e2074686973207469636b6574\n        /* \"#utility.yul\":10400:10401   */\n      0x00\n        /* \"#utility.yul\":10392:10398   */\n      dup3\n        /* \"#utility.yul\":10388:10402   */\n      add\n        /* \"#utility.yul\":10381:10439   */\n      mstore\n        /* \"#utility.yul\":10264:10446   */\n      pop\n      jump\t// out\n        /* \"#utility.yul\":10452:10818   */\n    tag_218:\n        /* \"#utility.yul\":10594:10597   */\n      0x00\n        /* \"#utility.yul\":10615:10682   */\n      tag_333\n        /* \"#utility.yul\":10679:10681   */\n      0x20\n        /* \"#utility.yul\":10674:10677   */\n      dup4\n        /* \"#utility.yul\":10615:10682   */\n      tag_204\n      jump\t// in\n    tag_333:\n        /* \"#utility.yul\":10608:10682   */\n      swap2\n      pop\n        /* \"#utility.yul\":10691:10784   */\n      tag_334\n        /* \"#utility.yul\":10780:10783   */\n      dup3\n        /* \"#utility.yul\":10691:10784   */\n      tag_217\n      jump\t// in\n    tag_334:\n        /* \"#utility.yul\":10809:10811   */\n      0x20\n        /* \"#utility.yul\":10804:10807   */\n      dup3\n        /* \"#utility.yul\":10800:10812   */\n      add\n        /* \"#utility.yul\":10793:10812   */\n      swap1\n      pop\n        /* \"#utility.yul\":10452:10818   */\n      swap2\n      swap1\n      pop\n      jump\t// out\n        /* \"#utility.yul\":10824:11243   */\n    tag_90:\n        /* \"#utility.yul\":10990:10994   */\n      0x00\n        /* \"#utility.yul\":11028:11030   */\n      0x20\n        /* \"#utility.yul\":11017:11026   */\n      dup3\n        /* \"#utility.yul\":11013:11031   */\n      add\n        /* \"#utility.yul\":11005:11031   */\n      swap1\n      pop\n        /* \"#utility.yul\":11077:11086   */\n      dup2\n        /* \"#utility.yul\":11071:11075   */\n      dup2\n        /* \"#utility.yul\":11067:11087   */\n      sub\n        /* \"#utility.yul\":11063:11064   */\n      0x00\n        /* \"#utility.yul\":11052:11061   */\n      dup4\n        /* \"#utility.yul\":11048:11065   */\n      add\n        /* \"#utility.yul\":11041:11088   */\n      mstore\n        /* \"#utility.yul\":11105:11236   */\n      tag_336\n        /* \"#utility.yul\":11231:11235   */\n      dup2\n        /* \"#utility.yul\":11105:11236   */\n      tag_218\n      jump\t// in\n    tag_336:\n        /* \"#utility.yul\":11097:11236   */\n      swap1\n      pop\n        /* \"#utility.yul\":10824:11243   */\n      swap2\n      swap1\n      pop\n      jump\t// out\n        /* \"#utility.yul\":11249:11483   */\n    tag_219:\n        /* \"#utility.yul\":11389:11423   */\n      0x546865206164647265737320776173206e6f74207375626d6974746564206974\n        /* \"#utility.yul\":11385:11386   */\n      0x00\n        /* \"#utility.yul\":11377:11383   */\n      dup3\n        /* \"#utility.yul\":11373:11387   */\n      add\n        /* \"#utility.yul\":11366:11424   */\n      mstore\n        /* \"#utility.yul\":11458:11475   */\n      0x732072616e646f6d206e756d6265720000000000000000000000000000000000\n        /* \"#utility.yul\":11453:11455   */\n      0x20\n        /* \"#utility.yul\":11445:11451   */\n      dup3\n        /* \"#utility.yul\":11441:11456   */\n      add\n        /* \"#utility.yul\":11434:11476   */\n      mstore\n        /* \"#utility.yul\":11249:11483   */\n      pop\n      jump\t// out\n        /* \"#utility.yul\":11489:11855   */\n    tag_220:\n        /* \"#utility.yul\":11631:11634   */\n      0x00\n        /* \"#utility.yul\":11652:11719   */\n      tag_339\n        /* \"#utility.yul\":11716:11718   */\n      0x2f\n        /* \"#utility.yul\":11711:11714   */\n      dup4\n        /* \"#utility.yul\":11652:11719   */\n      tag_204\n      jump\t// in\n    tag_339:\n        /* \"#utility.yul\":11645:11719   */\n      swap2\n      pop\n        /* \"#utility.yul\":11728:11821   */\n      tag_340\n        /* \"#utility.yul\":11817:11820   */\n      dup3\n        /* \"#utility.yul\":11728:11821   */\n      tag_219\n      jump\t// in\n    tag_340:\n        /* \"#utility.yul\":11846:11848   */\n      0x40\n        /* \"#utility.yul\":11841:11844   */\n      dup3\n        /* \"#utility.yul\":11837:11849   */\n      add\n        /* \"#utility.yul\":11830:11849   */\n      swap1\n      pop\n        /* \"#utility.yul\":11489:11855   */\n      swap2\n      swap1\n      pop\n      jump\t// out\n        /* \"#utility.yul\":11861:12280   */\n    tag_96:\n        /* \"#utility.yul\":12027:12031   */\n      0x00\n        /* \"#utility.yul\":12065:12067   */\n      0x20\n        /* \"#utility.yul\":12054:12063   */\n      dup3\n        /* \"#utility.yul\":12050:12068   */\n      add\n        /* \"#utility.yul\":12042:12068   */\n      swap1\n      pop\n        /* \"#utility.yul\":12114:12123   */\n      dup2\n        /* \"#utility.yul\":12108:12112   */\n      dup2\n        /* \"#utility.yul\":12104:12124   */\n      sub\n        /* \"#utility.yul\":12100:12101   */\n      0x00\n        /* \"#utility.yul\":12089:12098   */\n      dup4\n        /* \"#utility.yul\":12085:12102   */\n      add\n        /* \"#utility.yul\":12078:12125   */\n      mstore\n        /* \"#utility.yul\":12142:12273   */\n      tag_342\n        /* \"#utility.yul\":12268:12272   */\n      dup2\n        /* \"#utility.yul\":12142:12273   */\n      tag_220\n      jump\t// in\n    tag_342:\n        /* \"#utility.yul\":12134:12273   */\n      swap1\n      pop\n        /* \"#utility.yul\":11861:12280   */\n      swap2\n      swap1\n      pop\n      jump\t// out\n        /* \"#utility.yul\":12286:12429   */\n    tag_221:\n        /* \"#utility.yul\":12343:12348   */\n      0x00\n        /* \"#utility.yul\":12374:12380   */\n      dup2\n        /* \"#utility.yul\":12368:12381   */\n      mload\n        /* \"#utility.yul\":12359:12381   */\n      swap1\n      pop\n        /* \"#utility.yul\":12390:12423   */\n      tag_344\n        /* \"#utility.yul\":12417:12422   */\n      dup2\n        /* \"#utility.yul\":12390:12423   */\n      tag_200\n      jump\t// in\n    tag_344:\n        /* \"#utility.yul\":12286:12429   */\n      swap3\n      swap2\n      pop\n      pop\n      jump\t// out\n        /* \"#utility.yul\":12435:12786   */\n    tag_109:\n        /* \"#utility.yul\":12505:12511   */\n      0x00\n        /* \"#utility.yul\":12554:12556   */\n      0x20\n        /* \"#utility.yul\":12542:12551   */\n      dup3\n        /* \"#utility.yul\":12533:12540   */\n      dup5\n        /* \"#utility.yul\":12529:12552   */\n      sub\n        /* \"#utility.yul\":12525:12557   */\n      slt\n        /* \"#utility.yul\":12522:12641   */\n      iszero\n      tag_346\n      jumpi\n        /* \"#utility.yul\":12560:12639   */\n      tag_347\n      tag_191\n      jump\t// in\n    tag_347:\n        /* \"#utility.yul\":12522:12641   */\n    tag_346:\n        /* \"#utility.yul\":12680:12681   */\n      0x00\n        /* \"#utility.yul\":12705:12769   */\n      tag_348\n        /* \"#utility.yul\":12761:12768   */\n      dup5\n        /* \"#utility.yul\":12752:12758   */\n      dup3\n        /* \"#utility.yul\":12741:12750   */\n      dup6\n        /* \"#utility.yul\":12737:12759   */\n      add\n        /* \"#utility.yul\":12705:12769   */\n      tag_221\n      jump\t// in\n    tag_348:\n        /* \"#utility.yul\":12695:12769   */\n      swap2\n      pop\n        /* \"#utility.yul\":12651:12779   */\n      pop\n        /* \"#utility.yul\":12435:12786   */\n      swap3\n      swap2\n      pop\n      pop\n      jump\t// out\n        /* \"#utility.yul\":12792:13016   */\n    tag_222:\n        /* \"#utility.yul\":12932:12966   */\n      0x4f6e6c7920746865206f776e65722063616e2063616c6c20746869732066756e\n        /* \"#utility.yul\":12928:12929   */\n      0x00\n        /* \"#utility.yul\":12920:12926   */\n      dup3\n        /* \"#utility.yul\":12916:12930   */\n      add\n        /* \"#utility.yul\":12909:12967   */\n      mstore\n        /* \"#utility.yul\":13001:13008   */\n      0x6374696f6e000000000000000000000000000000000000000000000000000000\n        /* \"#utility.yul\":12996:12998   */\n      0x20\n        /* \"#utility.yul\":12988:12994   */\n      dup3\n        /* \"#utility.yul\":12984:12999   */\n      add\n        /* \"#utility.yul\":12977:13009   */\n      mstore\n        /* \"#utility.yul\":12792:13016   */\n      pop\n      jump\t// out\n        /* \"#utility.yul\":13022:13388   */\n    tag_223:\n        /* \"#utility.yul\":13164:13167   */\n      0x00\n        /* \"#utility.yul\":13185:13252   */\n      tag_351\n        /* \"#utility.yul\":13249:13251   */\n      0x25\n        /* \"#utility.yul\":13244:13247   */\n      dup4\n        /* \"#utility.yul\":13185:13252   */\n      tag_204\n      jump\t// in\n    tag_351:\n        /* \"#utility.yul\":13178:13252   */\n      swap2\n      pop\n        /* \"#utility.yul\":13261:13354   */\n      tag_352\n        /* \"#utility.yul\":13350:13353   */\n      dup3\n        /* \"#utility.yul\":13261:13354   */\n      tag_222\n      jump\t// in\n    tag_352:\n        /* \"#utility.yul\":13379:13381   */\n      0x40\n        /* \"#utility.yul\":13374:13377   */\n      dup3\n        /* \"#utility.yul\":13370:13382   */\n      add\n        /* \"#utility.yul\":13363:13382   */\n      swap1\n      pop\n        /* \"#utility.yul\":13022:13388   */\n      swap2\n      swap1\n      pop\n      jump\t// out\n        /* \"#utility.yul\":13394:13813   */\n    tag_112:\n        /* \"#utility.yul\":13560:13564   */\n      0x00\n        /* \"#utility.yul\":13598:13600   */\n      0x20\n        /* \"#utility.yul\":13587:13596   */\n      dup3\n        /* \"#utility.yul\":13583:13601   */\n      add\n        /* \"#utility.yul\":13575:13601   */\n      swap1\n      pop\n        /* \"#utility.yul\":13647:13656   */\n      dup2\n        /* \"#utility.yul\":13641:13645   */\n      dup2\n        /* \"#utility.yul\":13637:13657   */\n      sub\n        /* \"#utility.yul\":13633:13634   */\n      0x00\n        /* \"#utility.yul\":13622:13631   */\n      dup4\n        /* \"#utility.yul\":13618:13635   */\n      add\n        /* \"#utility.yul\":13611:13658   */\n      mstore\n        /* \"#utility.yul\":13675:13806   */\n      tag_354\n        /* \"#utility.yul\":13801:13805   */\n      dup2\n        /* \"#utility.yul\":13675:13806   */\n      tag_223\n      jump\t// in\n    tag_354:\n        /* \"#utility.yul\":13667:13806   */\n      swap1\n      pop\n        /* \"#utility.yul\":13394:13813   */\n      swap2\n      swap1\n      pop\n      jump\t// out\n        /* \"#utility.yul\":13819:13999   */\n    tag_224:\n        /* \"#utility.yul\":13959:13991   */\n      0x4c6f747465727920686173206e6f74206265656e20636f6d706c657465640000\n        /* \"#utility.yul\":13955:13956   */\n      0x00\n        /* \"#utility.yul\":13947:13953   */\n      dup3\n        /* \"#utility.yul\":13943:13957   */\n      add\n        /* \"#utility.yul\":13936:13992   */\n      mstore\n        /* \"#utility.yul\":13819:13999   */\n      pop\n      jump\t// out\n        /* \"#utility.yul\":14005:14371   */\n    tag_225:\n        /* \"#utility.yul\":14147:14150   */\n      0x00\n        /* \"#utility.yul\":14168:14235   */\n      tag_357\n        /* \"#utility.yul\":14232:14234   */\n      0x1e\n        /* \"#utility.yul\":14227:14230   */\n      dup4\n        /* \"#utility.yul\":14168:14235   */\n      tag_204\n      jump\t// in\n    tag_357:\n        /* \"#utility.yul\":14161:14235   */\n      swap2\n      pop\n        /* \"#utility.yul\":14244:14337   */\n      tag_358\n        /* \"#utility.yul\":14333:14336   */\n      dup3\n        /* \"#utility.yul\":14244:14337   */\n      tag_224\n      jump\t// in\n    tag_358:\n        /* \"#utility.yul\":14362:14364   */\n      0x20\n        /* \"#utility.yul\":14357:14360   */\n      dup3\n        /* \"#utility.yul\":14353:14365   */\n      add\n        /* \"#utility.yul\":14346:14365   */\n      swap1\n      pop\n        /* \"#utility.yul\":14005:14371   */\n      swap2\n      swap1\n      pop\n      jump\t// out\n        /* \"#utility.yul\":14377:14796   */\n    tag_128:\n        /* \"#utility.yul\":14543:14547   */\n      0x00\n        /* \"#utility.yul\":14581:14583   */\n      0x20\n        /* \"#utility.yul\":14570:14579   */\n      dup3\n        /* \"#utility.yul\":14566:14584   */\n      add\n        /* \"#utility.yul\":14558:14584   */\n      swap1\n      pop\n        /* \"#utility.yul\":14630:14639   */\n      dup2\n        /* \"#utility.yul\":14624:14628   */\n      dup2\n        /* \"#utility.yul\":14620:14640   */\n      sub\n        /* \"#utility.yul\":14616:14617   */\n      0x00\n        /* \"#utility.yul\":14605:14614   */\n      dup4\n        /* \"#utility.yul\":14601:14618   */\n      add\n        /* \"#utility.yul\":14594:14641   */\n      mstore\n        /* \"#utility.yul\":14658:14789   */\n      tag_360\n        /* \"#utility.yul\":14784:14788   */\n      dup2\n        /* \"#utility.yul\":14658:14789   */\n      tag_225\n      jump\t// in\n    tag_360:\n        /* \"#utility.yul\":14650:14789   */\n      swap1\n      pop\n        /* \"#utility.yul\":14377:14796   */\n      swap2\n      swap1\n      pop\n      jump\t// out\n        /* \"#utility.yul\":14802:15212   */\n    tag_130:\n        /* \"#utility.yul\":14842:14849   */\n      0x00\n        /* \"#utility.yul\":14865:14885   */\n      tag_362\n        /* \"#utility.yul\":14883:14884   */\n      dup3\n        /* \"#utility.yul\":14865:14885   */\n      tag_193\n      jump\t// in\n    tag_362:\n        /* \"#utility.yul\":14860:14885   */\n      swap2\n      pop\n        /* \"#utility.yul\":14899:14919   */\n      tag_363\n        /* \"#utility.yul\":14917:14918   */\n      dup4\n        /* \"#utility.yul\":14899:14919   */\n      tag_193\n      jump\t// in\n    tag_363:\n        /* \"#utility.yul\":14894:14919   */\n      swap3\n      pop\n        /* \"#utility.yul\":14954:14955   */\n      dup3\n        /* \"#utility.yul\":14951:14952   */\n      dup3\n        /* \"#utility.yul\":14947:14956   */\n      mul\n        /* \"#utility.yul\":14976:15006   */\n      tag_364\n        /* \"#utility.yul\":14994:15005   */\n      dup2\n        /* \"#utility.yul\":14976:15006   */\n      tag_193\n      jump\t// in\n    tag_364:\n        /* \"#utility.yul\":14965:15006   */\n      swap2\n      pop\n        /* \"#utility.yul\":15155:15156   */\n      dup3\n        /* \"#utility.yul\":15146:15153   */\n      dup3\n        /* \"#utility.yul\":15142:15157   */\n      div\n        /* \"#utility.yul\":15139:15140   */\n      dup5\n        /* \"#utility.yul\":15136:15158   */\n      eq\n        /* \"#utility.yul\":15116:15117   */\n      dup4\n        /* \"#utility.yul\":15109:15118   */\n      iszero\n        /* \"#utility.yul\":15089:15172   */\n      or\n        /* \"#utility.yul\":15066:15205   */\n      tag_365\n      jumpi\n        /* \"#utility.yul\":15185:15203   */\n      tag_366\n      tag_203\n      jump\t// in\n    tag_366:\n        /* \"#utility.yul\":15066:15205   */\n    tag_365:\n        /* \"#utility.yul\":14850:15212   */\n      pop\n        /* \"#utility.yul\":14802:15212   */\n      swap3\n      swap2\n      pop\n      pop\n      jump\t// out\n        /* \"#utility.yul\":15218:15398   */\n    tag_226:\n        /* \"#utility.yul\":15266:15343   */\n      0x4e487b7100000000000000000000000000000000000000000000000000000000\n        /* \"#utility.yul\":15263:15264   */\n      0x00\n        /* \"#utility.yul\":15256:15344   */\n      mstore\n        /* \"#utility.yul\":15363:15367   */\n      0x12\n        /* \"#utility.yul\":15360:15361   */\n      0x04\n        /* \"#utility.yul\":15353:15368   */\n      mstore\n        /* \"#utility.yul\":15387:15391   */\n      0x24\n        /* \"#utility.yul\":15384:15385   */\n      0x00\n        /* \"#utility.yul\":15377:15392   */\n      revert\n        /* \"#utility.yul\":15404:15589   */\n    tag_132:\n        /* \"#utility.yul\":15444:15445   */\n      0x00\n        /* \"#utility.yul\":15461:15481   */\n      tag_369\n        /* \"#utility.yul\":15479:15480   */\n      dup3\n        /* \"#utility.yul\":15461:15481   */\n      tag_193\n      jump\t// in\n    tag_369:\n        /* \"#utility.yul\":15456:15481   */\n      swap2\n      pop\n        /* \"#utility.yul\":15495:15515   */\n      tag_370\n        /* \"#utility.yul\":15513:15514   */\n      dup4\n        /* \"#utility.yul\":15495:15515   */\n      tag_193\n      jump\t// in\n    tag_370:\n        /* \"#utility.yul\":15490:15515   */\n      swap3\n      pop\n        /* \"#utility.yul\":15534:15535   */\n      dup3\n        /* \"#utility.yul\":15524:15559   */\n      tag_371\n      jumpi\n        /* \"#utility.yul\":15539:15557   */\n      tag_372\n      tag_226\n      jump\t// in\n    tag_372:\n        /* \"#utility.yul\":15524:15559   */\n    tag_371:\n        /* \"#utility.yul\":15581:15582   */\n      dup3\n        /* \"#utility.yul\":15578:15579   */\n      dup3\n        /* \"#utility.yul\":15574:15583   */\n      div\n        /* \"#utility.yul\":15569:15583   */\n      swap1\n      pop\n        /* \"#utility.yul\":15404:15589   */\n      swap3\n      swap2\n      pop\n      pop\n      jump\t// out\n        /* \"#utility.yul\":15595:15768   */\n    tag_227:\n        /* \"#utility.yul\":15735:15760   */\n      0x4e6f7420656e6f756768207469636b65747320736f6c64000000000000000000\n        /* \"#utility.yul\":15731:15732   */\n      0x00\n        /* \"#utility.yul\":15723:15729   */\n      dup3\n        /* \"#utility.yul\":15719:15733   */\n      add\n        /* \"#utility.yul\":15712:15761   */\n      mstore\n        /* \"#utility.yul\":15595:15768   */\n      pop\n      jump\t// out\n        /* \"#utility.yul\":15774:16140   */\n    tag_228:\n        /* \"#utility.yul\":15916:15919   */\n      0x00\n        /* \"#utility.yul\":15937:16004   */\n      tag_375\n        /* \"#utility.yul\":16001:16003   */\n      0x17\n        /* \"#utility.yul\":15996:15999   */\n      dup4\n        /* \"#utility.yul\":15937:16004   */\n      tag_204\n      jump\t// in\n    tag_375:\n        /* \"#utility.yul\":15930:16004   */\n      swap2\n      pop\n        /* \"#utility.yul\":16013:16106   */\n      tag_376\n        /* \"#utility.yul\":16102:16105   */\n      dup3\n        /* \"#utility.yul\":16013:16106   */\n      tag_227\n      jump\t// in\n    tag_376:\n        /* \"#utility.yul\":16131:16133   */\n      0x20\n        /* \"#utility.yul\":16126:16129   */\n      dup3\n        /* \"#utility.yul\":16122:16134   */\n      add\n        /* \"#utility.yul\":16115:16134   */\n      swap1\n      pop\n        /* \"#utility.yul\":15774:16140   */\n      swap2\n      swap1\n      pop\n      jump\t// out\n        /* \"#utility.yul\":16146:16565   */\n    tag_135:\n        /* \"#utility.yul\":16312:16316   */\n      0x00\n        /* \"#utility.yul\":16350:16352   */\n      0x20\n        /* \"#utility.yul\":16339:16348   */\n      dup3\n        /* \"#utility.yul\":16335:16353   */\n      add\n        /* \"#utility.yul\":16327:16353   */\n      swap1\n      pop\n        /* \"#utility.yul\":16399:16408   */\n      dup2\n        /* \"#utility.yul\":16393:16397   */\n      dup2\n        /* \"#utility.yul\":16389:16409   */\n      sub\n        /* \"#utility.yul\":16385:16386   */\n      0x00\n        /* \"#utility.yul\":16374:16383   */\n      dup4\n        /* \"#utility.yul\":16370:16387   */\n      add\n        /* \"#utility.yul\":16363:16410   */\n      mstore\n        /* \"#utility.yul\":16427:16558   */\n      tag_378\n        /* \"#utility.yul\":16553:16557   */\n      dup2\n        /* \"#utility.yul\":16427:16558   */\n      tag_228\n      jump\t// in\n    tag_378:\n        /* \"#utility.yul\":16419:16558   */\n      swap1\n      pop\n        /* \"#utility.yul\":16146:16565   */\n      swap2\n      swap1\n      pop\n      jump\t// out\n        /* \"#utility.yul\":16571:16650   */\n    tag_229:\n        /* \"#utility.yul\":16610:16617   */\n      0x00\n        /* \"#utility.yul\":16639:16644   */\n      dup2\n        /* \"#utility.yul\":16628:16644   */\n      swap1\n      pop\n        /* \"#utility.yul\":16571:16650   */\n      swap2\n      swap1\n      pop\n      jump\t// out\n        /* \"#utility.yul\":16656:16813   */\n    tag_230:\n        /* \"#utility.yul\":16761:16806   */\n      tag_381\n        /* \"#utility.yul\":16781:16805   */\n      tag_382\n        /* \"#utility.yul\":16799:16804   */\n      dup3\n        /* \"#utility.yul\":16781:16805   */\n      tag_193\n      jump\t// in\n    tag_382:\n        /* \"#utility.yul\":16761:16806   */\n      tag_229\n      jump\t// in\n    tag_381:\n        /* \"#utility.yul\":16756:16759   */\n      dup3\n        /* \"#utility.yul\":16749:16807   */\n      mstore\n        /* \"#utility.yul\":16656:16813   */\n      pop\n      pop\n      jump\t// out\n        /* \"#utility.yul\":16819:17216   */\n    tag_140:\n        /* \"#utility.yul\":16959:16962   */\n      0x00\n        /* \"#utility.yul\":16974:17049   */\n      tag_384\n        /* \"#utility.yul\":17045:17048   */\n      dup3\n        /* \"#utility.yul\":17036:17042   */\n      dup6\n        /* \"#utility.yul\":16974:17049   */\n      tag_230\n      jump\t// in\n    tag_384:\n        /* \"#utility.yul\":17074:17076   */\n      0x20\n        /* \"#utility.yul\":17069:17072   */\n      dup3\n        /* \"#utility.yul\":17065:17077   */\n      add\n        /* \"#utility.yul\":17058:17077   */\n      swap2\n      pop\n        /* \"#utility.yul\":17087:17162   */\n      tag_385\n        /* \"#utility.yul\":17158:17161   */\n      dup3\n        /* \"#utility.yul\":17149:17155   */\n      dup5\n        /* \"#utility.yul\":17087:17162   */\n      tag_230\n      jump\t// in\n    tag_385:\n        /* \"#utility.yul\":17187:17189   */\n      0x20\n        /* \"#utility.yul\":17182:17185   */\n      dup3\n        /* \"#utility.yul\":17178:17190   */\n      add\n        /* \"#utility.yul\":17171:17190   */\n      swap2\n      pop\n        /* \"#utility.yul\":17207:17210   */\n      dup2\n        /* \"#utility.yul\":17200:17210   */\n      swap1\n      pop\n        /* \"#utility.yul\":16819:17216   */\n      swap4\n      swap3\n      pop\n      pop\n      pop\n      jump\t// out\n        /* \"#utility.yul\":17222:17398   */\n    tag_142:\n        /* \"#utility.yul\":17254:17255   */\n      0x00\n        /* \"#utility.yul\":17271:17291   */\n      tag_387\n        /* \"#utility.yul\":17289:17290   */\n      dup3\n        /* \"#utility.yul\":17271:17291   */\n      tag_193\n      jump\t// in\n    tag_387:\n        /* \"#utility.yul\":17266:17291   */\n      swap2\n      pop\n        /* \"#utility.yul\":17305:17325   */\n      tag_388\n        /* \"#utility.yul\":17323:17324   */\n      dup4\n        /* \"#utility.yul\":17305:17325   */\n      tag_193\n      jump\t// in\n    tag_388:\n        /* \"#utility.yul\":17300:17325   */\n      swap3\n      pop\n        /* \"#utility.yul\":17344:17345   */\n      dup3\n        /* \"#utility.yul\":17334:17369   */\n      tag_389\n      jumpi\n        /* \"#utility.yul\":17349:17367   */\n      tag_390\n      tag_226\n      jump\t// in\n    tag_390:\n        /* \"#utility.yul\":17334:17369   */\n    tag_389:\n        /* \"#utility.yul\":17390:17391   */\n      dup3\n        /* \"#utility.yul\":17387:17388   */\n      dup3\n        /* \"#utility.yul\":17383:17392   */\n      mod\n        /* \"#utility.yul\":17378:17392   */\n      swap1\n      pop\n        /* \"#utility.yul\":17222:17398   */\n      swap3\n      swap2\n      pop\n      pop\n      jump\t// out\n        /* \"#utility.yul\":17404:17595   */\n    tag_150:\n        /* \"#utility.yul\":17444:17447   */\n      0x00\n        /* \"#utility.yul\":17463:17483   */\n      tag_392\n        /* \"#utility.yul\":17481:17482   */\n      dup3\n        /* \"#utility.yul\":17463:17483   */\n      tag_193\n      jump\t// in\n    tag_392:\n        /* \"#utility.yul\":17458:17483   */\n      swap2\n      pop\n        /* \"#utility.yul\":17497:17517   */\n      tag_393\n        /* \"#utility.yul\":17515:17516   */\n      dup4\n        /* \"#utility.yul\":17497:17517   */\n      tag_193\n      jump\t// in\n    tag_393:\n        /* \"#utility.yul\":17492:17517   */\n      swap3\n      pop\n        /* \"#utility.yul\":17540:17541   */\n      dup3\n        /* \"#utility.yul\":17537:17538   */\n      dup3\n        /* \"#utility.yul\":17533:17542   */\n      add\n        /* \"#utility.yul\":17526:17542   */\n      swap1\n      pop\n        /* \"#utility.yul\":17561:17564   */\n      dup1\n        /* \"#utility.yul\":17558:17559   */\n      dup3\n        /* \"#utility.yul\":17555:17565   */\n      gt\n        /* \"#utility.yul\":17552:17588   */\n      iszero\n      tag_394\n      jumpi\n        /* \"#utility.yul\":17568:17586   */\n      tag_395\n      tag_203\n      jump\t// in\n    tag_395:\n        /* \"#utility.yul\":17552:17588   */\n    tag_394:\n        /* \"#utility.yul\":17404:17595   */\n      swap3\n      swap2\n      pop\n      pop\n      jump\t// out\n        /* \"#utility.yul\":17601:17712   */\n    tag_231:\n        /* \"#utility.yul\":17665:17671   */\n      0x00\n        /* \"#utility.yul\":17699:17704   */\n      dup2\n        /* \"#utility.yul\":17693:17705   */\n      sload\n        /* \"#utility.yul\":17683:17705   */\n      swap1\n      pop\n        /* \"#utility.yul\":17601:17712   */\n      swap2\n      swap1\n      pop\n      jump\t// out\n        /* \"#utility.yul\":17718:17902   */\n    tag_232:\n        /* \"#utility.yul\":17817:17828   */\n      0x00\n        /* \"#utility.yul\":17851:17857   */\n      dup3\n        /* \"#utility.yul\":17846:17849   */\n      dup3\n        /* \"#utility.yul\":17839:17858   */\n      mstore\n        /* \"#utility.yul\":17891:17895   */\n      0x20\n        /* \"#utility.yul\":17886:17889   */\n      dup3\n        /* \"#utility.yul\":17882:17896   */\n      add\n        /* \"#utility.yul\":17867:17896   */\n      swap1\n      pop\n        /* \"#utility.yul\":17718:17902   */\n      swap3\n      swap2\n      pop\n      pop\n      jump\t// out\n        /* \"#utility.yul\":17908:18064   */\n    tag_233:\n        /* \"#utility.yul\":17972:17976   */\n      0x00\n        /* \"#utility.yul\":17995:17998   */\n      dup2\n        /* \"#utility.yul\":17987:17998   */\n      swap1\n      pop\n        /* \"#utility.yul\":18018:18021   */\n      dup2\n        /* \"#utility.yul\":18015:18016   */\n      0x00\n        /* \"#utility.yul\":18008:18022   */\n      mstore\n        /* \"#utility.yul\":18052:18056   */\n      0x20\n        /* \"#utility.yul\":18049:18050   */\n      0x00\n        /* \"#utility.yul\":18039:18057   */\n      keccak256\n        /* \"#utility.yul\":18031:18057   */\n      swap1\n      pop\n        /* \"#utility.yul\":17908:18064   */\n      swap2\n      swap1\n      pop\n      jump\t// out\n        /* \"#utility.yul\":18070:18178   */\n    tag_234:\n        /* \"#utility.yul\":18147:18171   */\n      tag_400\n        /* \"#utility.yul\":18165:18170   */\n      dup2\n        /* \"#utility.yul\":18147:18171   */\n      tag_193\n      jump\t// in\n    tag_400:\n        /* \"#utility.yul\":18142:18145   */\n      dup3\n        /* \"#utility.yul\":18135:18172   */\n      mstore\n        /* \"#utility.yul\":18070:18178   */\n      pop\n      pop\n      jump\t// out\n        /* \"#utility.yul\":18184:18363   */\n    tag_235:\n        /* \"#utility.yul\":18253:18263   */\n      0x00\n        /* \"#utility.yul\":18274:18320   */\n      tag_402\n        /* \"#utility.yul\":18316:18319   */\n      dup4\n        /* \"#utility.yul\":18308:18314   */\n      dup4\n        /* \"#utility.yul\":18274:18320   */\n      tag_234\n      jump\t// in\n    tag_402:\n        /* \"#utility.yul\":18352:18356   */\n      0x20\n        /* \"#utility.yul\":18347:18350   */\n      dup4\n        /* \"#utility.yul\":18343:18357   */\n      add\n        /* \"#utility.yul\":18329:18357   */\n      swap1\n      pop\n        /* \"#utility.yul\":18184:18363   */\n      swap3\n      swap2\n      pop\n      pop\n      jump\t// out\n        /* \"#utility.yul\":18369:18471   */\n    tag_236:\n        /* \"#utility.yul\":18411:18419   */\n      0x00\n        /* \"#utility.yul\":18458:18463   */\n      dup2\n        /* \"#utility.yul\":18455:18456   */\n      0x00\n        /* \"#utility.yul\":18451:18464   */\n      shr\n        /* \"#utility.yul\":18430:18464   */\n      swap1\n      pop\n        /* \"#utility.yul\":18369:18471   */\n      swap2\n      swap1\n      pop\n      jump\t// out\n        /* \"#utility.yul\":18477:18567   */\n    tag_237:\n        /* \"#utility.yul\":18527:18534   */\n      0x00\n        /* \"#utility.yul\":18556:18561   */\n      dup2\n        /* \"#utility.yul\":18545:18561   */\n      swap1\n      pop\n        /* \"#utility.yul\":18477:18567   */\n      swap2\n      swap1\n      pop\n      jump\t// out\n        /* \"#utility.yul\":18573:18739   */\n    tag_238:\n        /* \"#utility.yul\":18642:18647   */\n      0x00\n        /* \"#utility.yul\":18667:18733   */\n      tag_406\n        /* \"#utility.yul\":18698:18732   */\n      tag_407\n        /* \"#utility.yul\":18721:18731   */\n      dup4\n        /* \"#utility.yul\":18698:18732   */\n      tag_236\n      jump\t// in\n    tag_407:\n        /* \"#utility.yul\":18667:18733   */\n      tag_237\n      jump\t// in\n    tag_406:\n        /* \"#utility.yul\":18658:18733   */\n      swap1\n      pop\n        /* \"#utility.yul\":18573:18739   */\n      swap2\n      swap1\n      pop\n      jump\t// out\n        /* \"#utility.yul\":18745:18889   */\n    tag_239:\n        /* \"#utility.yul\":18800:18805   */\n      0x00\n        /* \"#utility.yul\":18825:18882   */\n      tag_409\n        /* \"#utility.yul\":18876:18880   */\n      dup3\n        /* \"#utility.yul\":18870:18881   */\n      sload\n        /* \"#utility.yul\":18825:18882   */\n      tag_238\n      jump\t// in\n    tag_409:\n        /* \"#utility.yul\":18816:18882   */\n      swap1\n      pop\n        /* \"#utility.yul\":18745:18889   */\n      swap2\n      swap1\n      pop\n      jump\t// out\n        /* \"#utility.yul\":18895:19005   */\n    tag_240:\n        /* \"#utility.yul\":18962:18966   */\n      0x00\n        /* \"#utility.yul\":18994:18998   */\n      0x01\n        /* \"#utility.yul\":18989:18992   */\n      dup3\n        /* \"#utility.yul\":18985:18999   */\n      add\n        /* \"#utility.yul\":18977:18999   */\n      swap1\n      pop\n        /* \"#utility.yul\":18895:19005   */\n      swap2\n      swap1\n      pop\n      jump\t// out\n        /* \"#utility.yul\":19041:19792   */\n    tag_241:\n        /* \"#utility.yul\":19157:19160   */\n      0x00\n        /* \"#utility.yul\":19186:19237   */\n      tag_412\n        /* \"#utility.yul\":19231:19236   */\n      dup3\n        /* \"#utility.yul\":19186:19237   */\n      tag_231\n      jump\t// in\n    tag_412:\n        /* \"#utility.yul\":19253:19339   */\n      tag_413\n        /* \"#utility.yul\":19332:19338   */\n      dup2\n        /* \"#utility.yul\":19327:19330   */\n      dup6\n        /* \"#utility.yul\":19253:19339   */\n      tag_232\n      jump\t// in\n    tag_413:\n        /* \"#utility.yul\":19246:19339   */\n      swap4\n      pop\n        /* \"#utility.yul\":19363:19416   */\n      tag_414\n        /* \"#utility.yul\":19410:19415   */\n      dup4\n        /* \"#utility.yul\":19363:19416   */\n      tag_233\n      jump\t// in\n    tag_414:\n        /* \"#utility.yul\":19439:19446   */\n      dup1\n        /* \"#utility.yul\":19470:19471   */\n      0x00\n        /* \"#utility.yul\":19455:19767   */\n    tag_415:\n        /* \"#utility.yul\":19480:19486   */\n      dup4\n        /* \"#utility.yul\":19477:19478   */\n      dup2\n        /* \"#utility.yul\":19474:19487   */\n      lt\n        /* \"#utility.yul\":19455:19767   */\n      iszero\n      tag_417\n      jumpi\n        /* \"#utility.yul\":19550:19594   */\n      tag_418\n        /* \"#utility.yul\":19587:19593   */\n      dup3\n        /* \"#utility.yul\":19550:19594   */\n      tag_239\n      jump\t// in\n    tag_418:\n        /* \"#utility.yul\":19614:19677   */\n      tag_419\n        /* \"#utility.yul\":19673:19676   */\n      dup9\n        /* \"#utility.yul\":19658:19671   */\n      dup3\n        /* \"#utility.yul\":19614:19677   */\n      tag_235\n      jump\t// in\n    tag_419:\n        /* \"#utility.yul\":19607:19677   */\n      swap8\n      pop\n        /* \"#utility.yul\":19700:19757   */\n      tag_420\n        /* \"#utility.yul\":19750:19756   */\n      dup4\n        /* \"#utility.yul\":19700:19757   */\n      tag_240\n      jump\t// in\n    tag_420:\n        /* \"#utility.yul\":19690:19757   */\n      swap3\n      pop\n        /* \"#utility.yul\":19515:19767   */\n      pop\n        /* \"#utility.yul\":19502:19503   */\n      0x01\n        /* \"#utility.yul\":19499:19500   */\n      dup2\n        /* \"#utility.yul\":19495:19504   */\n      add\n        /* \"#utility.yul\":19490:19504   */\n      swap1\n      pop\n        /* \"#utility.yul\":19455:19767   */\n      jump(tag_415)\n    tag_417:\n        /* \"#utility.yul\":19459:19473   */\n      pop\n        /* \"#utility.yul\":19783:19786   */\n      dup6\n        /* \"#utility.yul\":19776:19786   */\n      swap4\n      pop\n        /* \"#utility.yul\":19162:19792   */\n      pop\n      pop\n      pop\n        /* \"#utility.yul\":19041:19792   */\n      swap3\n      swap2\n      pop\n      pop\n      jump\t// out\n        /* \"#utility.yul\":19798:20165   */\n    tag_158:\n        /* \"#utility.yul\":19938:19942   */\n      0x00\n        /* \"#utility.yul\":19976:19978   */\n      0x20\n        /* \"#utility.yul\":19965:19974   */\n      dup3\n        /* \"#utility.yul\":19961:19979   */\n      add\n        /* \"#utility.yul\":19953:19979   */\n      swap1\n      pop\n        /* \"#utility.yul\":20025:20034   */\n      dup2\n        /* \"#utility.yul\":20019:20023   */\n      dup2\n        /* \"#utility.yul\":20015:20035   */\n      sub\n        /* \"#utility.yul\":20011:20012   */\n      0x00\n        /* \"#utility.yul\":20000:20009   */\n      dup4\n        /* \"#utility.yul\":19996:20013   */\n      add\n        /* \"#utility.yul\":19989:20036   */\n      mstore\n        /* \"#utility.yul\":20053:20158   */\n      tag_422\n        /* \"#utility.yul\":20153:20157   */\n      dup2\n        /* \"#utility.yul\":20144:20150   */\n      dup5\n        /* \"#utility.yul\":20053:20158   */\n      tag_241\n      jump\t// in\n    tag_422:\n        /* \"#utility.yul\":20045:20158   */\n      swap1\n      pop\n        /* \"#utility.yul\":19798:20165   */\n      swap3\n      swap2\n      pop\n      pop\n      jump\t// out\n        /* \"#utility.yul\":20171:20341   */\n    tag_242:\n        /* \"#utility.yul\":20311:20333   */\n      0x496e76616c69642077696e6e657220696e646578000000000000000000000000\n        /* \"#utility.yul\":20307:20308   */\n      0x00\n        /* \"#utility.yul\":20299:20305   */\n      dup3\n        /* \"#utility.yul\":20295:20309   */\n      add\n        /* \"#utility.yul\":20288:20334   */\n      mstore\n        /* \"#utility.yul\":20171:20341   */\n      pop\n      jump\t// out\n        /* \"#utility.yul\":20347:20713   */\n    tag_243:\n        /* \"#utility.yul\":20489:20492   */\n      0x00\n        /* \"#utility.yul\":20510:20577   */\n      tag_425\n        /* \"#utility.yul\":20574:20576   */\n      0x14\n        /* \"#utility.yul\":20569:20572   */\n      dup4\n        /* \"#utility.yul\":20510:20577   */\n      tag_204\n      jump\t// in\n    tag_425:\n        /* \"#utility.yul\":20503:20577   */\n      swap2\n      pop\n        /* \"#utility.yul\":20586:20679   */\n      tag_426\n        /* \"#utility.yul\":20675:20678   */\n      dup3\n        /* \"#utility.yul\":20586:20679   */\n      tag_242\n      jump\t// in\n    tag_426:\n        /* \"#utility.yul\":20704:20706   */\n      0x20\n        /* \"#utility.yul\":20699:20702   */\n      dup3\n        /* \"#utility.yul\":20695:20707   */\n      add\n        /* \"#utility.yul\":20688:20707   */\n      swap1\n      pop\n        /* \"#utility.yul\":20347:20713   */\n      swap2\n      swap1\n      pop\n      jump\t// out\n        /* \"#utility.yul\":20719:21138   */\n    tag_177:\n        /* \"#utility.yul\":20885:20889   */\n      0x00\n        /* \"#utility.yul\":20923:20925   */\n      0x20\n        /* \"#utility.yul\":20912:20921   */\n      dup3\n        /* \"#utility.yul\":20908:20926   */\n      add\n        /* \"#utility.yul\":20900:20926   */\n      swap1\n      pop\n        /* \"#utility.yul\":20972:20981   */\n      dup2\n        /* \"#utility.yul\":20966:20970   */\n      dup2\n        /* \"#utility.yul\":20962:20982   */\n      sub\n        /* \"#utility.yul\":20958:20959   */\n      0x00\n        /* \"#utility.yul\":20947:20956   */\n      dup4\n        /* \"#utility.yul\":20943:20960   */\n      add\n        /* \"#utility.yul\":20936:20983   */\n      mstore\n        /* \"#utility.yul\":21000:21131   */\n      tag_428\n        /* \"#utility.yul\":21126:21130   */\n      dup2\n        /* \"#utility.yul\":21000:21131   */\n      tag_243\n      jump\t// in\n    tag_428:\n        /* \"#utility.yul\":20992:21131   */\n      swap1\n      pop\n        /* \"#utility.yul\":20719:21138   */\n      swap2\n      swap1\n      pop\n      jump\t// out\n\n    auxdata: 0xa2646970667358221220b0a47870d013d7796356f6ae188ff1f2e1b5742082ce7bd3f615f5c41094534064736f6c634300081a0033\n}\n",
				"bytecode": {
					"linkReferences": {},
					"object": "6080604052348015600e575f80fd5b506117cd8061001c5f395ff3fe608060405234801561000f575f80fd5b506004361061004a575f3560e01c806312b349d51461004e5780635bddbaac1461007e578063c5929bc7146100ae578063e54778b5146100ca575b5f80fd5b61006860048036038101906100639190610d62565b6100fa565b6040516100759190610dba565b60405180910390f35b61009860048036038101906100939190610e2d565b6103dc565b6040516100a59190610dba565b60405180910390f35b6100c860048036038101906100c39190610e7d565b610745565b005b6100e460048036038101906100df9190610d62565b610b15565b6040516100f19190610eb7565b60405180910390f35b5f825f610105610cad565b90505f82118015610126575080600301546001836101239190610efd565b11155b610165576040517f08c379a000000000000000000000000000000000000000000000000000000000815260040161015c90610f8a565b60405180910390fd5b5f61016e610cad565b90505f816001015f6001896101839190610efd565b81526020019081526020015f209050600260038111156101a6576101a5610fa8565b5b816008015f9054906101000a900460ff1660038111156101c9576101c8610fa8565b5b14610209576040517f08c379a00000000000000000000000000000000000000000000000000000000081526004016102009061101f565b60405180910390fd5b816002015f8881526020019081526020015f20805490508610610261576040517f08c379a000000000000000000000000000000000000000000000000000000000815260040161025890611087565b60405180910390fd5b5f826002015f8981526020019081526020015f208781548110610287576102866110a5565b5b905f5260205f20906004020190503373ffffffffffffffffffffffffffffffffffffffff16815f015f9054906101000a900473ffffffffffffffffffffffffffffffffffffffff1673ffffffffffffffffffffffffffffffffffffffff1614610325576040517f08c379a000000000000000000000000000000000000000000000000000000000815260040161031c9061111c565b60405180910390fd5b60011515816003015f9054906101000a900460ff1615151461037c576040517f08c379a0000000000000000000000000000000000000000000000000000000008152600401610373906111aa565b60405180910390fd5b5f5b82600c01805490508110156103cc578783600c0182815481106103a4576103a36110a5565b5b905f5260205f200154036103bf5760019650505050506103d4565b808060010191505061037e565b505f95505050505b505092915050565b5f825f6103e7610cad565b90505f82118015610408575080600301546001836104059190610efd565b11155b610447576040517f08c379a000000000000000000000000000000000000000000000000000000000815260040161043e90610f8a565b60405180910390fd5b5f610450610cad565b90505f816001015f6001896104659190610efd565b81526020019081526020015f2090506002600381111561048857610487610fa8565b5b816008015f9054906101000a900460ff1660038111156104ab576104aa610fa8565b5b146104eb576040517f08c379a00000000000000000000000000000000000000000000000000000000081526004016104e290611212565b60405180910390fd5b816002015f8881526020019081526020015f20805490508610610543576040517f08c379a000000000000000000000000000000000000000000000000000000000815260040161053a90611087565b60405180910390fd5b5f826002015f8981526020019081526020015f208781548110610569576105686110a5565b5b905f5260205f20906004020190508873ffffffffffffffffffffffffffffffffffffffff16815f015f9054906101000a900473ffffffffffffffffffffffffffffffffffffffff1673ffffffffffffffffffffffffffffffffffffffff1614610607576040517f08c379a00000000000000000000000000000000000000000000000000000000081526004016105fe9061127a565b60405180910390fd5b60011515836002015f8a81526020019081526020015f2088815481106106305761062f6110a5565b5b905f5260205f2090600402016003015f9054906101000a900460ff1615151461068e576040517f08c379a000000000000000000000000000000000000000000000000000000000815260040161068590611308565b60405180910390fd5b5f5b82600c0180549050811015610734578783600c0182815481106106b6576106b56110a5565b5b905f5260205f20015403610727578973ffffffffffffffffffffffffffffffffffffffff16825f015f9054906101000a900473ffffffffffffffffffffffffffffffffffffffff1673ffffffffffffffffffffffffffffffffffffffff160361072657600196505050505061073c565b5b8080600101915050610690565b505f95505050505b50509392505050565b3073ffffffffffffffffffffffffffffffffffffffff1663893d20e86040518163ffffffff1660e01b8152600401602060405180830381865afa15801561078e573d5f803e3d5ffd5b505050506040513d601f19601f820116820180604052508101906107b2919061133a565b73ffffffffffffffffffffffffffffffffffffffff163373ffffffffffffffffffffffffffffffffffffffff161461081f576040517f08c379a0000000000000000000000000000000000000000000000000000000008152600401610816906113d5565b60405180910390fd5b805f610829610cad565b90505f8211801561084a575080600301546001836108479190610efd565b11155b610889576040517f08c379a000000000000000000000000000000000000000000000000000000000815260040161088090610f8a565b60405180910390fd5b5f610892610cad565b90505f816001015f6001876108a79190610efd565b81526020019081526020015f209050600260038111156108ca576108c9610fa8565b5b816008015f9054906101000a900460ff1660038111156108ed576108ec610fa8565b5b1461092d576040517f08c379a00000000000000000000000000000000000000000000000000000000081526004016109249061143d565b60405180910390fd5b5f606482600301548360010154610944919061145b565b61094e91906114c9565b90508082600901541015610997576040517f08c379a000000000000000000000000000000000000000000000000000000000815260040161098e90611543565b60405180910390fd5b5f826009015490505f836002015490505f84600b015490505f5b82811015610aa2575f8483836040516020016109ce929190611581565b604051602081830303815290604052805190602001205f1c6109f091906115ac565b90505b610a4d87600c01805480602002602001604051908101604052809291908181526020018280548015610a4257602002820191905f5260205f20905b815481526020019060010190808311610a2e575b505050505082610cd9565b15610a715784600182610a6091906115dc565b610a6a91906115ac565b90506109f3565b8087600c018381548110610a8857610a876110a5565b5b905f5260205f2001819055505080806001019150506109b1565b506002856008015f6101000a81548160ff02191690836003811115610aca57610ac9610fa8565b5b0217905550887fdcd4c188264d71a205a9af0b423e86acd556683d1eb112389101b992ce0188a586600c01604051610b02919061170f565b60405180910390a2505050505050505050565b5f825f610b20610cad565b90505f82118015610b4157508060030154600183610b3e9190610efd565b11155b610b80576040517f08c379a0000000000000000000000000000000000000000000000000000000008152600401610b7790610f8a565b60405180910390fd5b5f610b89610cad565b90505f816001015f600189610b9e9190610efd565b81526020019081526020015f20905060026003811115610bc157610bc0610fa8565b5b816008015f9054906101000a900460ff166003811115610be457610be3610fa8565b5b14610c24576040517f08c379a0000000000000000000000000000000000000000000000000000000008152600401610c1b9061143d565b60405180910390fd5b5f86118015610c37575080600201548611155b610c76576040517f08c379a0000000000000000000000000000000000000000000000000000000008152600401610c6d90611779565b60405180910390fd5b80600c01600187610c879190610efd565b81548110610c9857610c976110a5565b5b905f5260205f20015494505050505092915050565b5f807f755d7b3c7227e1f30e6cde2e9db88bc1d20ae16efd7e1368f3c80b4bf3d6e53a90508091505090565b5f805f90505b8351811015610d205782848281518110610cfc57610cfb6110a5565b5b602002602001015103610d13576001915050610d25565b8080600101915050610cdf565b505f90505b92915050565b5f80fd5b5f819050919050565b610d4181610d2f565b8114610d4b575f80fd5b50565b5f81359050610d5c81610d38565b92915050565b5f8060408385031215610d7857610d77610d2b565b5b5f610d8585828601610d4e565b9250506020610d9685828601610d4e565b9150509250929050565b5f8115159050919050565b610db481610da0565b82525050565b5f602082019050610dcd5f830184610dab565b92915050565b5f73ffffffffffffffffffffffffffffffffffffffff82169050919050565b5f610dfc82610dd3565b9050919050565b610e0c81610df2565b8114610e16575f80fd5b50565b5f81359050610e2781610e03565b92915050565b5f805f60608486031215610e4457610e43610d2b565b5b5f610e5186828701610e19565b9350506020610e6286828701610d4e565b9250506040610e7386828701610d4e565b9150509250925092565b5f60208284031215610e9257610e91610d2b565b5b5f610e9f84828501610d4e565b91505092915050565b610eb181610d2f565b82525050565b5f602082019050610eca5f830184610ea8565b92915050565b7f4e487b71000000000000000000000000000000000000000000000000000000005f52601160045260245ffd5b5f610f0782610d2f565b9150610f1283610d2f565b9250828203905081811115610f2a57610f29610ed0565b5b92915050565b5f82825260208201905092915050565b7f496e76616c6964206c6f7474657279206e756d626572000000000000000000005f82015250565b5f610f74601683610f30565b9150610f7f82610f40565b602082019050919050565b5f6020820190508181035f830152610fa181610f68565b9050919050565b7f4e487b71000000000000000000000000000000000000000000000000000000005f52602160045260245ffd5b7f4c6f7474657279206973206e6f7420434f4d504c4554454420737461746500005f82015250565b5f611009601e83610f30565b915061101482610fd5565b602082019050919050565b5f6020820190508181035f83015261103681610ffd565b9050919050565b7f496e76616c6964207469636b6574206e756d62657200000000000000000000005f82015250565b5f611071601583610f30565b915061107c8261103d565b602082019050919050565b5f6020820190508181035f83015261109e81611065565b9050919050565b7f4e487b71000000000000000000000000000000000000000000000000000000005f52603260045260245ffd5b7f596f7520646f206e6f74206f776e2074686973207469636b65740000000000005f82015250565b5f611106601a83610f30565b9150611111826110d2565b602082019050919050565b5f6020820190508181035f830152611133816110fa565b9050919050565b7f596f7520646964206e6f74207375626d697474656420796f75722072616e646f5f8201527f6d206e756d626572000000000000000000000000000000000000000000000000602082015250565b5f611194602883610f30565b915061119f8261113a565b604082019050919050565b5f6020820190508181035f8301526111c181611188565b9050919050565b7f4c6f7474657279206e6f7420636f6d706c6574656400000000000000000000005f82015250565b5f6111fc601583610f30565b9150611207826111c8565b602082019050919050565b5f6020820190508181035f830152611229816111f0565b9050919050565b7f4164647265737320646f6573206e6f74206f776e2074686973207469636b65745f82015250565b5f611264602083610f30565b915061126f82611230565b602082019050919050565b5f6020820190508181035f83015261129181611258565b9050919050565b7f546865206164647265737320776173206e6f74207375626d69747465642069745f8201527f732072616e646f6d206e756d6265720000000000000000000000000000000000602082015250565b5f6112f2602f83610f30565b91506112fd82611298565b604082019050919050565b5f6020820190508181035f83015261131f816112e6565b9050919050565b5f8151905061133481610e03565b92915050565b5f6020828403121561134f5761134e610d2b565b5b5f61135c84828501611326565b91505092915050565b7f4f6e6c7920746865206f776e65722063616e2063616c6c20746869732066756e5f8201527f6374696f6e000000000000000000000000000000000000000000000000000000602082015250565b5f6113bf602583610f30565b91506113ca82611365565b604082019050919050565b5f6020820190508181035f8301526113ec816113b3565b9050919050565b7f4c6f747465727920686173206e6f74206265656e20636f6d706c6574656400005f82015250565b5f611427601e83610f30565b9150611432826113f3565b602082019050919050565b5f6020820190508181035f8301526114548161141b565b9050919050565b5f61146582610d2f565b915061147083610d2f565b925082820261147e81610d2f565b9150828204841483151761149557611494610ed0565b5b5092915050565b7f4e487b71000000000000000000000000000000000000000000000000000000005f52601260045260245ffd5b5f6114d382610d2f565b91506114de83610d2f565b9250826114ee576114ed61149c565b5b828204905092915050565b7f4e6f7420656e6f756768207469636b65747320736f6c640000000000000000005f82015250565b5f61152d601783610f30565b9150611538826114f9565b602082019050919050565b5f6020820190508181035f83015261155a81611521565b9050919050565b5f819050919050565b61157b61157682610d2f565b611561565b82525050565b5f61158c828561156a565b60208201915061159c828461156a565b6020820191508190509392505050565b5f6115b682610d2f565b91506115c183610d2f565b9250826115d1576115d061149c565b5b828206905092915050565b5f6115e682610d2f565b91506115f183610d2f565b925082820190508082111561160957611608610ed0565b5b92915050565b5f81549050919050565b5f82825260208201905092915050565b5f819050815f5260205f209050919050565b61164481610d2f565b82525050565b5f611655838361163b565b60208301905092915050565b5f815f1c9050919050565b5f819050919050565b5f61168761168283611661565b61166c565b9050919050565b5f6116998254611675565b9050919050565b5f600182019050919050565b5f6116b68261160f565b6116c08185611619565b93506116cb83611629565b805f5b83811015611702576116df8261168e565b6116e9888261164a565b97506116f4836116a0565b9250506001810190506116ce565b5085935050505092915050565b5f6020820190508181035f83015261172781846116ac565b905092915050565b7f496e76616c69642077696e6e657220696e6465780000000000000000000000005f82015250565b5f611763601483610f30565b915061176e8261172f565b602082019050919050565b5f6020820190508181035f83015261179081611757565b905091905056fea2646970667358221220b0a47870d013d7796356f6ae188ff1f2e1b5742082ce7bd3f615f5c41094534064736f6c634300081a0033",
					"opcodes": "PUSH1 0x80 PUSH1 0x40 MSTORE CALLVALUE DUP1 ISZERO PUSH1 0xE JUMPI PUSH0 DUP1 REVERT JUMPDEST POP PUSH2 0x17CD DUP1 PUSH2 0x1C PUSH0 CODECOPY PUSH0 RETURN INVALID PUSH1 0x80 PUSH1 0x40 MSTORE CALLVALUE DUP1 ISZERO PUSH2 0xF JUMPI PUSH0 DUP1 REVERT JUMPDEST POP PUSH1 0x4 CALLDATASIZE LT PUSH2 0x4A JUMPI PUSH0 CALLDATALOAD PUSH1 0xE0 SHR DUP1 PUSH4 0x12B349D5 EQ PUSH2 0x4E JUMPI DUP1 PUSH4 0x5BDDBAAC EQ PUSH2 0x7E JUMPI DUP1 PUSH4 0xC5929BC7 EQ PUSH2 0xAE JUMPI DUP1 PUSH4 0xE54778B5 EQ PUSH2 0xCA JUMPI JUMPDEST PUSH0 DUP1 REVERT JUMPDEST PUSH2 0x68 PUSH1 0x4 DUP1 CALLDATASIZE SUB DUP2 ADD SWAP1 PUSH2 0x63 SWAP2 SWAP1 PUSH2 0xD62 JUMP JUMPDEST PUSH2 0xFA JUMP JUMPDEST PUSH1 0x40 MLOAD PUSH2 0x75 SWAP2 SWAP1 PUSH2 0xDBA JUMP JUMPDEST PUSH1 0x40 MLOAD DUP1 SWAP2 SUB SWAP1 RETURN JUMPDEST PUSH2 0x98 PUSH1 0x4 DUP1 CALLDATASIZE SUB DUP2 ADD SWAP1 PUSH2 0x93 SWAP2 SWAP1 PUSH2 0xE2D JUMP JUMPDEST PUSH2 0x3DC JUMP JUMPDEST PUSH1 0x40 MLOAD PUSH2 0xA5 SWAP2 SWAP1 PUSH2 0xDBA JUMP JUMPDEST PUSH1 0x40 MLOAD DUP1 SWAP2 SUB SWAP1 RETURN JUMPDEST PUSH2 0xC8 PUSH1 0x4 DUP1 CALLDATASIZE SUB DUP2 ADD SWAP1 PUSH2 0xC3 SWAP2 SWAP1 PUSH2 0xE7D JUMP JUMPDEST PUSH2 0x745 JUMP JUMPDEST STOP JUMPDEST PUSH2 0xE4 PUSH1 0x4 DUP1 CALLDATASIZE SUB DUP2 ADD SWAP1 PUSH2 0xDF SWAP2 SWAP1 PUSH2 0xD62 JUMP JUMPDEST PUSH2 0xB15 JUMP JUMPDEST PUSH1 0x40 MLOAD PUSH2 0xF1 SWAP2 SWAP1 PUSH2 0xEB7 JUMP JUMPDEST PUSH1 0x40 MLOAD DUP1 SWAP2 SUB SWAP1 RETURN JUMPDEST PUSH0 DUP3 PUSH0 PUSH2 0x105 PUSH2 0xCAD JUMP JUMPDEST SWAP1 POP PUSH0 DUP3 GT DUP1 ISZERO PUSH2 0x126 JUMPI POP DUP1 PUSH1 0x3 ADD SLOAD PUSH1 0x1 DUP4 PUSH2 0x123 SWAP2 SWAP1 PUSH2 0xEFD JUMP JUMPDEST GT ISZERO JUMPDEST PUSH2 0x165 JUMPI PUSH1 0x40 MLOAD PUSH32 0x8C379A000000000000000000000000000000000000000000000000000000000 DUP2 MSTORE PUSH1 0x4 ADD PUSH2 0x15C SWAP1 PUSH2 0xF8A JUMP JUMPDEST PUSH1 0x40 MLOAD DUP1 SWAP2 SUB SWAP1 REVERT JUMPDEST PUSH0 PUSH2 0x16E PUSH2 0xCAD JUMP JUMPDEST SWAP1 POP PUSH0 DUP2 PUSH1 0x1 ADD PUSH0 PUSH1 0x1 DUP10 PUSH2 0x183 SWAP2 SWAP1 PUSH2 0xEFD JUMP JUMPDEST DUP2 MSTORE PUSH1 0x20 ADD SWAP1 DUP2 MSTORE PUSH1 0x20 ADD PUSH0 KECCAK256 SWAP1 POP PUSH1 0x2 PUSH1 0x3 DUP2 GT ISZERO PUSH2 0x1A6 JUMPI PUSH2 0x1A5 PUSH2 0xFA8 JUMP JUMPDEST JUMPDEST DUP2 PUSH1 0x8 ADD PUSH0 SWAP1 SLOAD SWAP1 PUSH2 0x100 EXP SWAP1 DIV PUSH1 0xFF AND PUSH1 0x3 DUP2 GT ISZERO PUSH2 0x1C9 JUMPI PUSH2 0x1C8 PUSH2 0xFA8 JUMP JUMPDEST JUMPDEST EQ PUSH2 0x209 JUMPI PUSH1 0x40 MLOAD PUSH32 0x8C379A000000000000000000000000000000000000000000000000000000000 DUP2 MSTORE PUSH1 0x4 ADD PUSH2 0x200 SWAP1 PUSH2 0x101F JUMP JUMPDEST PUSH1 0x40 MLOAD DUP1 SWAP2 SUB SWAP1 REVERT JUMPDEST DUP2 PUSH1 0x2 ADD PUSH0 DUP9 DUP2 MSTORE PUSH1 0x20 ADD SWAP1 DUP2 MSTORE PUSH1 0x20 ADD PUSH0 KECCAK256 DUP1 SLOAD SWAP1 POP DUP7 LT PUSH2 0x261 JUMPI PUSH1 0x40 MLOAD PUSH32 0x8C379A000000000000000000000000000000000000000000000000000000000 DUP2 MSTORE PUSH1 0x4 ADD PUSH2 0x258 SWAP1 PUSH2 0x1087 JUMP JUMPDEST PUSH1 0x40 MLOAD DUP1 SWAP2 SUB SWAP1 REVERT JUMPDEST PUSH0 DUP3 PUSH1 0x2 ADD PUSH0 DUP10 DUP2 MSTORE PUSH1 0x20 ADD SWAP1 DUP2 MSTORE PUSH1 0x20 ADD PUSH0 KECCAK256 DUP8 DUP2 SLOAD DUP2 LT PUSH2 0x287 JUMPI PUSH2 0x286 PUSH2 0x10A5 JUMP JUMPDEST JUMPDEST SWAP1 PUSH0 MSTORE PUSH1 0x20 PUSH0 KECCAK256 SWAP1 PUSH1 0x4 MUL ADD SWAP1 POP CALLER PUSH20 0xFFFFFFFFFFFFFFFFFFFFFFFFFFFFFFFFFFFFFFFF AND DUP2 PUSH0 ADD PUSH0 SWAP1 SLOAD SWAP1 PUSH2 0x100 EXP SWAP1 DIV PUSH20 0xFFFFFFFFFFFFFFFFFFFFFFFFFFFFFFFFFFFFFFFF AND PUSH20 0xFFFFFFFFFFFFFFFFFFFFFFFFFFFFFFFFFFFFFFFF AND EQ PUSH2 0x325 JUMPI PUSH1 0x40 MLOAD PUSH32 0x8C379A000000000000000000000000000000000000000000000000000000000 DUP2 MSTORE PUSH1 0x4 ADD PUSH2 0x31C SWAP1 PUSH2 0x111C JUMP JUMPDEST PUSH1 0x40 MLOAD DUP1 SWAP2 SUB SWAP1 REVERT JUMPDEST PUSH1 0x1 ISZERO ISZERO DUP2 PUSH1 0x3 ADD PUSH0 SWAP1 SLOAD SWAP1 PUSH2 0x100 EXP SWAP1 DIV PUSH1 0xFF AND ISZERO ISZERO EQ PUSH2 0x37C JUMPI PUSH1 0x40 MLOAD PUSH32 0x8C379A000000000000000000000000000000000000000000000000000000000 DUP2 MSTORE PUSH1 0x4 ADD PUSH2 0x373 SWAP1 PUSH2 0x11AA JUMP JUMPDEST PUSH1 0x40 MLOAD DUP1 SWAP2 SUB SWAP1 REVERT JUMPDEST PUSH0 JUMPDEST DUP3 PUSH1 0xC ADD DUP1 SLOAD SWAP1 POP DUP2 LT ISZERO PUSH2 0x3CC JUMPI DUP8 DUP4 PUSH1 0xC ADD DUP3 DUP2 SLOAD DUP2 LT PUSH2 0x3A4 JUMPI PUSH2 0x3A3 PUSH2 0x10A5 JUMP JUMPDEST JUMPDEST SWAP1 PUSH0 MSTORE PUSH1 0x20 PUSH0 KECCAK256 ADD SLOAD SUB PUSH2 0x3BF JUMPI PUSH1 0x1 SWAP7 POP POP POP POP POP PUSH2 0x3D4 JUMP JUMPDEST DUP1 DUP1 PUSH1 0x1 ADD SWAP2 POP POP PUSH2 0x37E JUMP JUMPDEST POP PUSH0 SWAP6 POP POP POP POP JUMPDEST POP POP SWAP3 SWAP2 POP POP JUMP JUMPDEST PUSH0 DUP3 PUSH0 PUSH2 0x3E7 PUSH2 0xCAD JUMP JUMPDEST SWAP1 POP PUSH0 DUP3 GT DUP1 ISZERO PUSH2 0x408 JUMPI POP DUP1 PUSH1 0x3 ADD SLOAD PUSH1 0x1 DUP4 PUSH2 0x405 SWAP2 SWAP1 PUSH2 0xEFD JUMP JUMPDEST GT ISZERO JUMPDEST PUSH2 0x447 JUMPI PUSH1 0x40 MLOAD PUSH32 0x8C379A000000000000000000000000000000000000000000000000000000000 DUP2 MSTORE PUSH1 0x4 ADD PUSH2 0x43E SWAP1 PUSH2 0xF8A JUMP JUMPDEST PUSH1 0x40 MLOAD DUP1 SWAP2 SUB SWAP1 REVERT JUMPDEST PUSH0 PUSH2 0x450 PUSH2 0xCAD JUMP JUMPDEST SWAP1 POP PUSH0 DUP2 PUSH1 0x1 ADD PUSH0 PUSH1 0x1 DUP10 PUSH2 0x465 SWAP2 SWAP1 PUSH2 0xEFD JUMP JUMPDEST DUP2 MSTORE PUSH1 0x20 ADD SWAP1 DUP2 MSTORE PUSH1 0x20 ADD PUSH0 KECCAK256 SWAP1 POP PUSH1 0x2 PUSH1 0x3 DUP2 GT ISZERO PUSH2 0x488 JUMPI PUSH2 0x487 PUSH2 0xFA8 JUMP JUMPDEST JUMPDEST DUP2 PUSH1 0x8 ADD PUSH0 SWAP1 SLOAD SWAP1 PUSH2 0x100 EXP SWAP1 DIV PUSH1 0xFF AND PUSH1 0x3 DUP2 GT ISZERO PUSH2 0x4AB JUMPI PUSH2 0x4AA PUSH2 0xFA8 JUMP JUMPDEST JUMPDEST EQ PUSH2 0x4EB JUMPI PUSH1 0x40 MLOAD PUSH32 0x8C379A000000000000000000000000000000000000000000000000000000000 DUP2 MSTORE PUSH1 0x4 ADD PUSH2 0x4E2 SWAP1 PUSH2 0x1212 JUMP JUMPDEST PUSH1 0x40 MLOAD DUP1 SWAP2 SUB SWAP1 REVERT JUMPDEST DUP2 PUSH1 0x2 ADD PUSH0 DUP9 DUP2 MSTORE PUSH1 0x20 ADD SWAP1 DUP2 MSTORE PUSH1 0x20 ADD PUSH0 KECCAK256 DUP1 SLOAD SWAP1 POP DUP7 LT PUSH2 0x543 JUMPI PUSH1 0x40 MLOAD PUSH32 0x8C379A000000000000000000000000000000000000000000000000000000000 DUP2 MSTORE PUSH1 0x4 ADD PUSH2 0x53A SWAP1 PUSH2 0x1087 JUMP JUMPDEST PUSH1 0x40 MLOAD DUP1 SWAP2 SUB SWAP1 REVERT JUMPDEST PUSH0 DUP3 PUSH1 0x2 ADD PUSH0 DUP10 DUP2 MSTORE PUSH1 0x20 ADD SWAP1 DUP2 MSTORE PUSH1 0x20 ADD PUSH0 KECCAK256 DUP8 DUP2 SLOAD DUP2 LT PUSH2 0x569 JUMPI PUSH2 0x568 PUSH2 0x10A5 JUMP JUMPDEST JUMPDEST SWAP1 PUSH0 MSTORE PUSH1 0x20 PUSH0 KECCAK256 SWAP1 PUSH1 0x4 MUL ADD SWAP1 POP DUP9 PUSH20 0xFFFFFFFFFFFFFFFFFFFFFFFFFFFFFFFFFFFFFFFF AND DUP2 PUSH0 ADD PUSH0 SWAP1 SLOAD SWAP1 PUSH2 0x100 EXP SWAP1 DIV PUSH20 0xFFFFFFFFFFFFFFFFFFFFFFFFFFFFFFFFFFFFFFFF AND PUSH20 0xFFFFFFFFFFFFFFFFFFFFFFFFFFFFFFFFFFFFFFFF AND EQ PUSH2 0x607 JUMPI PUSH1 0x40 MLOAD PUSH32 0x8C379A000000000000000000000000000000000000000000000000000000000 DUP2 MSTORE PUSH1 0x4 ADD PUSH2 0x5FE SWAP1 PUSH2 0x127A JUMP JUMPDEST PUSH1 0x40 MLOAD DUP1 SWAP2 SUB SWAP1 REVERT JUMPDEST PUSH1 0x1 ISZERO ISZERO DUP4 PUSH1 0x2 ADD PUSH0 DUP11 DUP2 MSTORE PUSH1 0x20 ADD SWAP1 DUP2 MSTORE PUSH1 0x20 ADD PUSH0 KECCAK256 DUP9 DUP2 SLOAD DUP2 LT PUSH2 0x630 JUMPI PUSH2 0x62F PUSH2 0x10A5 JUMP JUMPDEST JUMPDEST SWAP1 PUSH0 MSTORE PUSH1 0x20 PUSH0 KECCAK256 SWAP1 PUSH1 0x4 MUL ADD PUSH1 0x3 ADD PUSH0 SWAP1 SLOAD SWAP1 PUSH2 0x100 EXP SWAP1 DIV PUSH1 0xFF AND ISZERO ISZERO EQ PUSH2 0x68E JUMPI PUSH1 0x40 MLOAD PUSH32 0x8C379A000000000000000000000000000000000000000000000000000000000 DUP2 MSTORE PUSH1 0x4 ADD PUSH2 0x685 SWAP1 PUSH2 0x1308 JUMP JUMPDEST PUSH1 0x40 MLOAD DUP1 SWAP2 SUB SWAP1 REVERT JUMPDEST PUSH0 JUMPDEST DUP3 PUSH1 0xC ADD DUP1 SLOAD SWAP1 POP DUP2 LT ISZERO PUSH2 0x734 JUMPI DUP8 DUP4 PUSH1 0xC ADD DUP3 DUP2 SLOAD DUP2 LT PUSH2 0x6B6 JUMPI PUSH2 0x6B5 PUSH2 0x10A5 JUMP JUMPDEST JUMPDEST SWAP1 PUSH0 MSTORE PUSH1 0x20 PUSH0 KECCAK256 ADD SLOAD SUB PUSH2 0x727 JUMPI DUP10 PUSH20 0xFFFFFFFFFFFFFFFFFFFFFFFFFFFFFFFFFFFFFFFF AND DUP3 PUSH0 ADD PUSH0 SWAP1 SLOAD SWAP1 PUSH2 0x100 EXP SWAP1 DIV PUSH20 0xFFFFFFFFFFFFFFFFFFFFFFFFFFFFFFFFFFFFFFFF AND PUSH20 0xFFFFFFFFFFFFFFFFFFFFFFFFFFFFFFFFFFFFFFFF AND SUB PUSH2 0x726 JUMPI PUSH1 0x1 SWAP7 POP POP POP POP POP PUSH2 0x73C JUMP JUMPDEST JUMPDEST DUP1 DUP1 PUSH1 0x1 ADD SWAP2 POP POP PUSH2 0x690 JUMP JUMPDEST POP PUSH0 SWAP6 POP POP POP POP JUMPDEST POP POP SWAP4 SWAP3 POP POP POP JUMP JUMPDEST ADDRESS PUSH20 0xFFFFFFFFFFFFFFFFFFFFFFFFFFFFFFFFFFFFFFFF AND PUSH4 0x893D20E8 PUSH1 0x40 MLOAD DUP2 PUSH4 0xFFFFFFFF AND PUSH1 0xE0 SHL DUP2 MSTORE PUSH1 0x4 ADD PUSH1 0x20 PUSH1 0x40 MLOAD DUP1 DUP4 SUB DUP2 DUP7 GAS STATICCALL ISZERO DUP1 ISZERO PUSH2 0x78E JUMPI RETURNDATASIZE PUSH0 DUP1 RETURNDATACOPY RETURNDATASIZE PUSH0 REVERT JUMPDEST POP POP POP POP PUSH1 0x40 MLOAD RETURNDATASIZE PUSH1 0x1F NOT PUSH1 0x1F DUP3 ADD AND DUP3 ADD DUP1 PUSH1 0x40 MSTORE POP DUP2 ADD SWAP1 PUSH2 0x7B2 SWAP2 SWAP1 PUSH2 0x133A JUMP JUMPDEST PUSH20 0xFFFFFFFFFFFFFFFFFFFFFFFFFFFFFFFFFFFFFFFF AND CALLER PUSH20 0xFFFFFFFFFFFFFFFFFFFFFFFFFFFFFFFFFFFFFFFF AND EQ PUSH2 0x81F JUMPI PUSH1 0x40 MLOAD PUSH32 0x8C379A000000000000000000000000000000000000000000000000000000000 DUP2 MSTORE PUSH1 0x4 ADD PUSH2 0x816 SWAP1 PUSH2 0x13D5 JUMP JUMPDEST PUSH1 0x40 MLOAD DUP1 SWAP2 SUB SWAP1 REVERT JUMPDEST DUP1 PUSH0 PUSH2 0x829 PUSH2 0xCAD JUMP JUMPDEST SWAP1 POP PUSH0 DUP3 GT DUP1 ISZERO PUSH2 0x84A JUMPI POP DUP1 PUSH1 0x3 ADD SLOAD PUSH1 0x1 DUP4 PUSH2 0x847 SWAP2 SWAP1 PUSH2 0xEFD JUMP JUMPDEST GT ISZERO JUMPDEST PUSH2 0x889 JUMPI PUSH1 0x40 MLOAD PUSH32 0x8C379A000000000000000000000000000000000000000000000000000000000 DUP2 MSTORE PUSH1 0x4 ADD PUSH2 0x880 SWAP1 PUSH2 0xF8A JUMP JUMPDEST PUSH1 0x40 MLOAD DUP1 SWAP2 SUB SWAP1 REVERT JUMPDEST PUSH0 PUSH2 0x892 PUSH2 0xCAD JUMP JUMPDEST SWAP1 POP PUSH0 DUP2 PUSH1 0x1 ADD PUSH0 PUSH1 0x1 DUP8 PUSH2 0x8A7 SWAP2 SWAP1 PUSH2 0xEFD JUMP JUMPDEST DUP2 MSTORE PUSH1 0x20 ADD SWAP1 DUP2 MSTORE PUSH1 0x20 ADD PUSH0 KECCAK256 SWAP1 POP PUSH1 0x2 PUSH1 0x3 DUP2 GT ISZERO PUSH2 0x8CA JUMPI PUSH2 0x8C9 PUSH2 0xFA8 JUMP JUMPDEST JUMPDEST DUP2 PUSH1 0x8 ADD PUSH0 SWAP1 SLOAD SWAP1 PUSH2 0x100 EXP SWAP1 DIV PUSH1 0xFF AND PUSH1 0x3 DUP2 GT ISZERO PUSH2 0x8ED JUMPI PUSH2 0x8EC PUSH2 0xFA8 JUMP JUMPDEST JUMPDEST EQ PUSH2 0x92D JUMPI PUSH1 0x40 MLOAD PUSH32 0x8C379A000000000000000000000000000000000000000000000000000000000 DUP2 MSTORE PUSH1 0x4 ADD PUSH2 0x924 SWAP1 PUSH2 0x143D JUMP JUMPDEST PUSH1 0x40 MLOAD DUP1 SWAP2 SUB SWAP1 REVERT JUMPDEST PUSH0 PUSH1 0x64 DUP3 PUSH1 0x3 ADD SLOAD DUP4 PUSH1 0x1 ADD SLOAD PUSH2 0x944 SWAP2 SWAP1 PUSH2 0x145B JUMP JUMPDEST PUSH2 0x94E SWAP2 SWAP1 PUSH2 0x14C9 JUMP JUMPDEST SWAP1 POP DUP1 DUP3 PUSH1 0x9 ADD SLOAD LT ISZERO PUSH2 0x997 JUMPI PUSH1 0x40 MLOAD PUSH32 0x8C379A000000000000000000000000000000000000000000000000000000000 DUP2 MSTORE PUSH1 0x4 ADD PUSH2 0x98E SWAP1 PUSH2 0x1543 JUMP JUMPDEST PUSH1 0x40 MLOAD DUP1 SWAP2 SUB SWAP1 REVERT JUMPDEST PUSH0 DUP3 PUSH1 0x9 ADD SLOAD SWAP1 POP PUSH0 DUP4 PUSH1 0x2 ADD SLOAD SWAP1 POP PUSH0 DUP5 PUSH1 0xB ADD SLOAD SWAP1 POP PUSH0 JUMPDEST DUP3 DUP2 LT ISZERO PUSH2 0xAA2 JUMPI PUSH0 DUP5 DUP4 DUP4 PUSH1 0x40 MLOAD PUSH1 0x20 ADD PUSH2 0x9CE SWAP3 SWAP2 SWAP1 PUSH2 0x1581 JUMP JUMPDEST PUSH1 0x40 MLOAD PUSH1 0x20 DUP2 DUP4 SUB SUB DUP2 MSTORE SWAP1 PUSH1 0x40 MSTORE DUP1 MLOAD SWAP1 PUSH1 0x20 ADD KECCAK256 PUSH0 SHR PUSH2 0x9F0 SWAP2 SWAP1 PUSH2 0x15AC JUMP JUMPDEST SWAP1 POP JUMPDEST PUSH2 0xA4D DUP8 PUSH1 0xC ADD DUP1 SLOAD DUP1 PUSH1 0x20 MUL PUSH1 0x20 ADD PUSH1 0x40 MLOAD SWAP1 DUP2 ADD PUSH1 0x40 MSTORE DUP1 SWAP3 SWAP2 SWAP1 DUP2 DUP2 MSTORE PUSH1 0x20 ADD DUP3 DUP1 SLOAD DUP1 ISZERO PUSH2 0xA42 JUMPI PUSH1 0x20 MUL DUP3 ADD SWAP2 SWAP1 PUSH0 MSTORE PUSH1 0x20 PUSH0 KECCAK256 SWAP1 JUMPDEST DUP2 SLOAD DUP2 MSTORE PUSH1 0x20 ADD SWAP1 PUSH1 0x1 ADD SWAP1 DUP1 DUP4 GT PUSH2 0xA2E JUMPI JUMPDEST POP POP POP POP POP DUP3 PUSH2 0xCD9 JUMP JUMPDEST ISZERO PUSH2 0xA71 JUMPI DUP5 PUSH1 0x1 DUP3 PUSH2 0xA60 SWAP2 SWAP1 PUSH2 0x15DC JUMP JUMPDEST PUSH2 0xA6A SWAP2 SWAP1 PUSH2 0x15AC JUMP JUMPDEST SWAP1 POP PUSH2 0x9F3 JUMP JUMPDEST DUP1 DUP8 PUSH1 0xC ADD DUP4 DUP2 SLOAD DUP2 LT PUSH2 0xA88 JUMPI PUSH2 0xA87 PUSH2 0x10A5 JUMP JUMPDEST JUMPDEST SWAP1 PUSH0 MSTORE PUSH1 0x20 PUSH0 KECCAK256 ADD DUP2 SWAP1 SSTORE POP POP DUP1 DUP1 PUSH1 0x1 ADD SWAP2 POP POP PUSH2 0x9B1 JUMP JUMPDEST POP PUSH1 0x2 DUP6 PUSH1 0x8 ADD PUSH0 PUSH2 0x100 EXP DUP2 SLOAD DUP2 PUSH1 0xFF MUL NOT AND SWAP1 DUP4 PUSH1 0x3 DUP2 GT ISZERO PUSH2 0xACA JUMPI PUSH2 0xAC9 PUSH2 0xFA8 JUMP JUMPDEST JUMPDEST MUL OR SWAP1 SSTORE POP DUP9 PUSH32 0xDCD4C188264D71A205A9AF0B423E86ACD556683D1EB112389101B992CE0188A5 DUP7 PUSH1 0xC ADD PUSH1 0x40 MLOAD PUSH2 0xB02 SWAP2 SWAP1 PUSH2 0x170F JUMP JUMPDEST PUSH1 0x40 MLOAD DUP1 SWAP2 SUB SWAP1 LOG2 POP POP POP POP POP POP POP POP POP JUMP JUMPDEST PUSH0 DUP3 PUSH0 PUSH2 0xB20 PUSH2 0xCAD JUMP JUMPDEST SWAP1 POP PUSH0 DUP3 GT DUP1 ISZERO PUSH2 0xB41 JUMPI POP DUP1 PUSH1 0x3 ADD SLOAD PUSH1 0x1 DUP4 PUSH2 0xB3E SWAP2 SWAP1 PUSH2 0xEFD JUMP JUMPDEST GT ISZERO JUMPDEST PUSH2 0xB80 JUMPI PUSH1 0x40 MLOAD PUSH32 0x8C379A000000000000000000000000000000000000000000000000000000000 DUP2 MSTORE PUSH1 0x4 ADD PUSH2 0xB77 SWAP1 PUSH2 0xF8A JUMP JUMPDEST PUSH1 0x40 MLOAD DUP1 SWAP2 SUB SWAP1 REVERT JUMPDEST PUSH0 PUSH2 0xB89 PUSH2 0xCAD JUMP JUMPDEST SWAP1 POP PUSH0 DUP2 PUSH1 0x1 ADD PUSH0 PUSH1 0x1 DUP10 PUSH2 0xB9E SWAP2 SWAP1 PUSH2 0xEFD JUMP JUMPDEST DUP2 MSTORE PUSH1 0x20 ADD SWAP1 DUP2 MSTORE PUSH1 0x20 ADD PUSH0 KECCAK256 SWAP1 POP PUSH1 0x2 PUSH1 0x3 DUP2 GT ISZERO PUSH2 0xBC1 JUMPI PUSH2 0xBC0 PUSH2 0xFA8 JUMP JUMPDEST JUMPDEST DUP2 PUSH1 0x8 ADD PUSH0 SWAP1 SLOAD SWAP1 PUSH2 0x100 EXP SWAP1 DIV PUSH1 0xFF AND PUSH1 0x3 DUP2 GT ISZERO PUSH2 0xBE4 JUMPI PUSH2 0xBE3 PUSH2 0xFA8 JUMP JUMPDEST JUMPDEST EQ PUSH2 0xC24 JUMPI PUSH1 0x40 MLOAD PUSH32 0x8C379A000000000000000000000000000000000000000000000000000000000 DUP2 MSTORE PUSH1 0x4 ADD PUSH2 0xC1B SWAP1 PUSH2 0x143D JUMP JUMPDEST PUSH1 0x40 MLOAD DUP1 SWAP2 SUB SWAP1 REVERT JUMPDEST PUSH0 DUP7 GT DUP1 ISZERO PUSH2 0xC37 JUMPI POP DUP1 PUSH1 0x2 ADD SLOAD DUP7 GT ISZERO JUMPDEST PUSH2 0xC76 JUMPI PUSH1 0x40 MLOAD PUSH32 0x8C379A000000000000000000000000000000000000000000000000000000000 DUP2 MSTORE PUSH1 0x4 ADD PUSH2 0xC6D SWAP1 PUSH2 0x1779 JUMP JUMPDEST PUSH1 0x40 MLOAD DUP1 SWAP2 SUB SWAP1 REVERT JUMPDEST DUP1 PUSH1 0xC ADD PUSH1 0x1 DUP8 PUSH2 0xC87 SWAP2 SWAP1 PUSH2 0xEFD JUMP JUMPDEST DUP2 SLOAD DUP2 LT PUSH2 0xC98 JUMPI PUSH2 0xC97 PUSH2 0x10A5 JUMP JUMPDEST JUMPDEST SWAP1 PUSH0 MSTORE PUSH1 0x20 PUSH0 KECCAK256 ADD SLOAD SWAP5 POP POP POP POP POP SWAP3 SWAP2 POP POP JUMP JUMPDEST PUSH0 DUP1 PUSH32 0x755D7B3C7227E1F30E6CDE2E9DB88BC1D20AE16EFD7E1368F3C80B4BF3D6E53A SWAP1 POP DUP1 SWAP2 POP POP SWAP1 JUMP JUMPDEST PUSH0 DUP1 PUSH0 SWAP1 POP JUMPDEST DUP4 MLOAD DUP2 LT ISZERO PUSH2 0xD20 JUMPI DUP3 DUP5 DUP3 DUP2 MLOAD DUP2 LT PUSH2 0xCFC JUMPI PUSH2 0xCFB PUSH2 0x10A5 JUMP JUMPDEST JUMPDEST PUSH1 0x20 MUL PUSH1 0x20 ADD ADD MLOAD SUB PUSH2 0xD13 JUMPI PUSH1 0x1 SWAP2 POP POP PUSH2 0xD25 JUMP JUMPDEST DUP1 DUP1 PUSH1 0x1 ADD SWAP2 POP POP PUSH2 0xCDF JUMP JUMPDEST POP PUSH0 SWAP1 POP JUMPDEST SWAP3 SWAP2 POP POP JUMP JUMPDEST PUSH0 DUP1 REVERT JUMPDEST PUSH0 DUP2 SWAP1 POP SWAP2 SWAP1 POP JUMP JUMPDEST PUSH2 0xD41 DUP2 PUSH2 0xD2F JUMP JUMPDEST DUP2 EQ PUSH2 0xD4B JUMPI PUSH0 DUP1 REVERT JUMPDEST POP JUMP JUMPDEST PUSH0 DUP2 CALLDATALOAD SWAP1 POP PUSH2 0xD5C DUP2 PUSH2 0xD38 JUMP JUMPDEST SWAP3 SWAP2 POP POP JUMP JUMPDEST PUSH0 DUP1 PUSH1 0x40 DUP4 DUP6 SUB SLT ISZERO PUSH2 0xD78 JUMPI PUSH2 0xD77 PUSH2 0xD2B JUMP JUMPDEST JUMPDEST PUSH0 PUSH2 0xD85 DUP6 DUP3 DUP7 ADD PUSH2 0xD4E JUMP JUMPDEST SWAP3 POP POP PUSH1 0x20 PUSH2 0xD96 DUP6 DUP3 DUP7 ADD PUSH2 0xD4E JUMP JUMPDEST SWAP2 POP POP SWAP3 POP SWAP3 SWAP1 POP JUMP JUMPDEST PUSH0 DUP2 ISZERO ISZERO SWAP1 POP SWAP2 SWAP1 POP JUMP JUMPDEST PUSH2 0xDB4 DUP2 PUSH2 0xDA0 JUMP JUMPDEST DUP3 MSTORE POP POP JUMP JUMPDEST PUSH0 PUSH1 0x20 DUP3 ADD SWAP1 POP PUSH2 0xDCD PUSH0 DUP4 ADD DUP5 PUSH2 0xDAB JUMP JUMPDEST SWAP3 SWAP2 POP POP JUMP JUMPDEST PUSH0 PUSH20 0xFFFFFFFFFFFFFFFFFFFFFFFFFFFFFFFFFFFFFFFF DUP3 AND SWAP1 POP SWAP2 SWAP1 POP JUMP JUMPDEST PUSH0 PUSH2 0xDFC DUP3 PUSH2 0xDD3 JUMP JUMPDEST SWAP1 POP SWAP2 SWAP1 POP JUMP JUMPDEST PUSH2 0xE0C DUP2 PUSH2 0xDF2 JUMP JUMPDEST DUP2 EQ PUSH2 0xE16 JUMPI PUSH0 DUP1 REVERT JUMPDEST POP JUMP JUMPDEST PUSH0 DUP2 CALLDATALOAD SWAP1 POP PUSH2 0xE27 DUP2 PUSH2 0xE03 JUMP JUMPDEST SWAP3 SWAP2 POP POP JUMP JUMPDEST PUSH0 DUP1 PUSH0 PUSH1 0x60 DUP5 DUP7 SUB SLT ISZERO PUSH2 0xE44 JUMPI PUSH2 0xE43 PUSH2 0xD2B JUMP JUMPDEST JUMPDEST PUSH0 PUSH2 0xE51 DUP7 DUP3 DUP8 ADD PUSH2 0xE19 JUMP JUMPDEST SWAP4 POP POP PUSH1 0x20 PUSH2 0xE62 DUP7 DUP3 DUP8 ADD PUSH2 0xD4E JUMP JUMPDEST SWAP3 POP POP PUSH1 0x40 PUSH2 0xE73 DUP7 DUP3 DUP8 ADD PUSH2 0xD4E JUMP JUMPDEST SWAP2 POP POP SWAP3 POP SWAP3 POP SWAP3 JUMP JUMPDEST PUSH0 PUSH1 0x20 DUP3 DUP5 SUB SLT ISZERO PUSH2 0xE92 JUMPI PUSH2 0xE91 PUSH2 0xD2B JUMP JUMPDEST JUMPDEST PUSH0 PUSH2 0xE9F DUP5 DUP3 DUP6 ADD PUSH2 0xD4E JUMP JUMPDEST SWAP2 POP POP SWAP3 SWAP2 POP POP JUMP JUMPDEST PUSH2 0xEB1 DUP2 PUSH2 0xD2F JUMP JUMPDEST DUP3 MSTORE POP POP JUMP JUMPDEST PUSH0 PUSH1 0x20 DUP3 ADD SWAP1 POP PUSH2 0xECA PUSH0 DUP4 ADD DUP5 PUSH2 0xEA8 JUMP JUMPDEST SWAP3 SWAP2 POP POP JUMP JUMPDEST PUSH32 0x4E487B7100000000000000000000000000000000000000000000000000000000 PUSH0 MSTORE PUSH1 0x11 PUSH1 0x4 MSTORE PUSH1 0x24 PUSH0 REVERT JUMPDEST PUSH0 PUSH2 0xF07 DUP3 PUSH2 0xD2F JUMP JUMPDEST SWAP2 POP PUSH2 0xF12 DUP4 PUSH2 0xD2F JUMP JUMPDEST SWAP3 POP DUP3 DUP3 SUB SWAP1 POP DUP2 DUP2 GT ISZERO PUSH2 0xF2A JUMPI PUSH2 0xF29 PUSH2 0xED0 JUMP JUMPDEST JUMPDEST SWAP3 SWAP2 POP POP JUMP JUMPDEST PUSH0 DUP3 DUP3 MSTORE PUSH1 0x20 DUP3 ADD SWAP1 POP SWAP3 SWAP2 POP POP JUMP JUMPDEST PUSH32 0x496E76616C6964206C6F7474657279206E756D62657200000000000000000000 PUSH0 DUP3 ADD MSTORE POP JUMP JUMPDEST PUSH0 PUSH2 0xF74 PUSH1 0x16 DUP4 PUSH2 0xF30 JUMP JUMPDEST SWAP2 POP PUSH2 0xF7F DUP3 PUSH2 0xF40 JUMP JUMPDEST PUSH1 0x20 DUP3 ADD SWAP1 POP SWAP2 SWAP1 POP JUMP JUMPDEST PUSH0 PUSH1 0x20 DUP3 ADD SWAP1 POP DUP2 DUP2 SUB PUSH0 DUP4 ADD MSTORE PUSH2 0xFA1 DUP2 PUSH2 0xF68 JUMP JUMPDEST SWAP1 POP SWAP2 SWAP1 POP JUMP JUMPDEST PUSH32 0x4E487B7100000000000000000000000000000000000000000000000000000000 PUSH0 MSTORE PUSH1 0x21 PUSH1 0x4 MSTORE PUSH1 0x24 PUSH0 REVERT JUMPDEST PUSH32 0x4C6F7474657279206973206E6F7420434F4D504C455445442073746174650000 PUSH0 DUP3 ADD MSTORE POP JUMP JUMPDEST PUSH0 PUSH2 0x1009 PUSH1 0x1E DUP4 PUSH2 0xF30 JUMP JUMPDEST SWAP2 POP PUSH2 0x1014 DUP3 PUSH2 0xFD5 JUMP JUMPDEST PUSH1 0x20 DUP3 ADD SWAP1 POP SWAP2 SWAP1 POP JUMP JUMPDEST PUSH0 PUSH1 0x20 DUP3 ADD SWAP1 POP DUP2 DUP2 SUB PUSH0 DUP4 ADD MSTORE PUSH2 0x1036 DUP2 PUSH2 0xFFD JUMP JUMPDEST SWAP1 POP SWAP2 SWAP1 POP JUMP JUMPDEST PUSH32 0x496E76616C6964207469636B6574206E756D6265720000000000000000000000 PUSH0 DUP3 ADD MSTORE POP JUMP JUMPDEST PUSH0 PUSH2 0x1071 PUSH1 0x15 DUP4 PUSH2 0xF30 JUMP JUMPDEST SWAP2 POP PUSH2 0x107C DUP3 PUSH2 0x103D JUMP JUMPDEST PUSH1 0x20 DUP3 ADD SWAP1 POP SWAP2 SWAP1 POP JUMP JUMPDEST PUSH0 PUSH1 0x20 DUP3 ADD SWAP1 POP DUP2 DUP2 SUB PUSH0 DUP4 ADD MSTORE PUSH2 0x109E DUP2 PUSH2 0x1065 JUMP JUMPDEST SWAP1 POP SWAP2 SWAP1 POP JUMP JUMPDEST PUSH32 0x4E487B7100000000000000000000000000000000000000000000000000000000 PUSH0 MSTORE PUSH1 0x32 PUSH1 0x4 MSTORE PUSH1 0x24 PUSH0 REVERT JUMPDEST PUSH32 0x596F7520646F206E6F74206F776E2074686973207469636B6574000000000000 PUSH0 DUP3 ADD MSTORE POP JUMP JUMPDEST PUSH0 PUSH2 0x1106 PUSH1 0x1A DUP4 PUSH2 0xF30 JUMP JUMPDEST SWAP2 POP PUSH2 0x1111 DUP3 PUSH2 0x10D2 JUMP JUMPDEST PUSH1 0x20 DUP3 ADD SWAP1 POP SWAP2 SWAP1 POP JUMP JUMPDEST PUSH0 PUSH1 0x20 DUP3 ADD SWAP1 POP DUP2 DUP2 SUB PUSH0 DUP4 ADD MSTORE PUSH2 0x1133 DUP2 PUSH2 0x10FA JUMP JUMPDEST SWAP1 POP SWAP2 SWAP1 POP JUMP JUMPDEST PUSH32 0x596F7520646964206E6F74207375626D697474656420796F75722072616E646F PUSH0 DUP3 ADD MSTORE PUSH32 0x6D206E756D626572000000000000000000000000000000000000000000000000 PUSH1 0x20 DUP3 ADD MSTORE POP JUMP JUMPDEST PUSH0 PUSH2 0x1194 PUSH1 0x28 DUP4 PUSH2 0xF30 JUMP JUMPDEST SWAP2 POP PUSH2 0x119F DUP3 PUSH2 0x113A JUMP JUMPDEST PUSH1 0x40 DUP3 ADD SWAP1 POP SWAP2 SWAP1 POP JUMP JUMPDEST PUSH0 PUSH1 0x20 DUP3 ADD SWAP1 POP DUP2 DUP2 SUB PUSH0 DUP4 ADD MSTORE PUSH2 0x11C1 DUP2 PUSH2 0x1188 JUMP JUMPDEST SWAP1 POP SWAP2 SWAP1 POP JUMP JUMPDEST PUSH32 0x4C6F7474657279206E6F7420636F6D706C657465640000000000000000000000 PUSH0 DUP3 ADD MSTORE POP JUMP JUMPDEST PUSH0 PUSH2 0x11FC PUSH1 0x15 DUP4 PUSH2 0xF30 JUMP JUMPDEST SWAP2 POP PUSH2 0x1207 DUP3 PUSH2 0x11C8 JUMP JUMPDEST PUSH1 0x20 DUP3 ADD SWAP1 POP SWAP2 SWAP1 POP JUMP JUMPDEST PUSH0 PUSH1 0x20 DUP3 ADD SWAP1 POP DUP2 DUP2 SUB PUSH0 DUP4 ADD MSTORE PUSH2 0x1229 DUP2 PUSH2 0x11F0 JUMP JUMPDEST SWAP1 POP SWAP2 SWAP1 POP JUMP JUMPDEST PUSH32 0x4164647265737320646F6573206E6F74206F776E2074686973207469636B6574 PUSH0 DUP3 ADD MSTORE POP JUMP JUMPDEST PUSH0 PUSH2 0x1264 PUSH1 0x20 DUP4 PUSH2 0xF30 JUMP JUMPDEST SWAP2 POP PUSH2 0x126F DUP3 PUSH2 0x1230 JUMP JUMPDEST PUSH1 0x20 DUP3 ADD SWAP1 POP SWAP2 SWAP1 POP JUMP JUMPDEST PUSH0 PUSH1 0x20 DUP3 ADD SWAP1 POP DUP2 DUP2 SUB PUSH0 DUP4 ADD MSTORE PUSH2 0x1291 DUP2 PUSH2 0x1258 JUMP JUMPDEST SWAP1 POP SWAP2 SWAP1 POP JUMP JUMPDEST PUSH32 0x546865206164647265737320776173206E6F74207375626D6974746564206974 PUSH0 DUP3 ADD MSTORE PUSH32 0x732072616E646F6D206E756D6265720000000000000000000000000000000000 PUSH1 0x20 DUP3 ADD MSTORE POP JUMP JUMPDEST PUSH0 PUSH2 0x12F2 PUSH1 0x2F DUP4 PUSH2 0xF30 JUMP JUMPDEST SWAP2 POP PUSH2 0x12FD DUP3 PUSH2 0x1298 JUMP JUMPDEST PUSH1 0x40 DUP3 ADD SWAP1 POP SWAP2 SWAP1 POP JUMP JUMPDEST PUSH0 PUSH1 0x20 DUP3 ADD SWAP1 POP DUP2 DUP2 SUB PUSH0 DUP4 ADD MSTORE PUSH2 0x131F DUP2 PUSH2 0x12E6 JUMP JUMPDEST SWAP1 POP SWAP2 SWAP1 POP JUMP JUMPDEST PUSH0 DUP2 MLOAD SWAP1 POP PUSH2 0x1334 DUP2 PUSH2 0xE03 JUMP JUMPDEST SWAP3 SWAP2 POP POP JUMP JUMPDEST PUSH0 PUSH1 0x20 DUP3 DUP5 SUB SLT ISZERO PUSH2 0x134F JUMPI PUSH2 0x134E PUSH2 0xD2B JUMP JUMPDEST JUMPDEST PUSH0 PUSH2 0x135C DUP5 DUP3 DUP6 ADD PUSH2 0x1326 JUMP JUMPDEST SWAP2 POP POP SWAP3 SWAP2 POP POP JUMP JUMPDEST PUSH32 0x4F6E6C7920746865206F776E65722063616E2063616C6C20746869732066756E PUSH0 DUP3 ADD MSTORE PUSH32 0x6374696F6E000000000000000000000000000000000000000000000000000000 PUSH1 0x20 DUP3 ADD MSTORE POP JUMP JUMPDEST PUSH0 PUSH2 0x13BF PUSH1 0x25 DUP4 PUSH2 0xF30 JUMP JUMPDEST SWAP2 POP PUSH2 0x13CA DUP3 PUSH2 0x1365 JUMP JUMPDEST PUSH1 0x40 DUP3 ADD SWAP1 POP SWAP2 SWAP1 POP JUMP JUMPDEST PUSH0 PUSH1 0x20 DUP3 ADD SWAP1 POP DUP2 DUP2 SUB PUSH0 DUP4 ADD MSTORE PUSH2 0x13EC DUP2 PUSH2 0x13B3 JUMP JUMPDEST SWAP1 POP SWAP2 SWAP1 POP JUMP JUMPDEST PUSH32 0x4C6F747465727920686173206E6F74206265656E20636F6D706C657465640000 PUSH0 DUP3 ADD MSTORE POP JUMP JUMPDEST PUSH0 PUSH2 0x1427 PUSH1 0x1E DUP4 PUSH2 0xF30 JUMP JUMPDEST SWAP2 POP PUSH2 0x1432 DUP3 PUSH2 0x13F3 JUMP JUMPDEST PUSH1 0x20 DUP3 ADD SWAP1 POP SWAP2 SWAP1 POP JUMP JUMPDEST PUSH0 PUSH1 0x20 DUP3 ADD SWAP1 POP DUP2 DUP2 SUB PUSH0 DUP4 ADD MSTORE PUSH2 0x1454 DUP2 PUSH2 0x141B JUMP JUMPDEST SWAP1 POP SWAP2 SWAP1 POP JUMP JUMPDEST PUSH0 PUSH2 0x1465 DUP3 PUSH2 0xD2F JUMP JUMPDEST SWAP2 POP PUSH2 0x1470 DUP4 PUSH2 0xD2F JUMP JUMPDEST SWAP3 POP DUP3 DUP3 MUL PUSH2 0x147E DUP2 PUSH2 0xD2F JUMP JUMPDEST SWAP2 POP DUP3 DUP3 DIV DUP5 EQ DUP4 ISZERO OR PUSH2 0x1495 JUMPI PUSH2 0x1494 PUSH2 0xED0 JUMP JUMPDEST JUMPDEST POP SWAP3 SWAP2 POP POP JUMP JUMPDEST PUSH32 0x4E487B7100000000000000000000000000000000000000000000000000000000 PUSH0 MSTORE PUSH1 0x12 PUSH1 0x4 MSTORE PUSH1 0x24 PUSH0 REVERT JUMPDEST PUSH0 PUSH2 0x14D3 DUP3 PUSH2 0xD2F JUMP JUMPDEST SWAP2 POP PUSH2 0x14DE DUP4 PUSH2 0xD2F JUMP JUMPDEST SWAP3 POP DUP3 PUSH2 0x14EE JUMPI PUSH2 0x14ED PUSH2 0x149C JUMP JUMPDEST JUMPDEST DUP3 DUP3 DIV SWAP1 POP SWAP3 SWAP2 POP POP JUMP JUMPDEST PUSH32 0x4E6F7420656E6F756768207469636B65747320736F6C64000000000000000000 PUSH0 DUP3 ADD MSTORE POP JUMP JUMPDEST PUSH0 PUSH2 0x152D PUSH1 0x17 DUP4 PUSH2 0xF30 JUMP JUMPDEST SWAP2 POP PUSH2 0x1538 DUP3 PUSH2 0x14F9 JUMP JUMPDEST PUSH1 0x20 DUP3 ADD SWAP1 POP SWAP2 SWAP1 POP JUMP JUMPDEST PUSH0 PUSH1 0x20 DUP3 ADD SWAP1 POP DUP2 DUP2 SUB PUSH0 DUP4 ADD MSTORE PUSH2 0x155A DUP2 PUSH2 0x1521 JUMP JUMPDEST SWAP1 POP SWAP2 SWAP1 POP JUMP JUMPDEST PUSH0 DUP2 SWAP1 POP SWAP2 SWAP1 POP JUMP JUMPDEST PUSH2 0x157B PUSH2 0x1576 DUP3 PUSH2 0xD2F JUMP JUMPDEST PUSH2 0x1561 JUMP JUMPDEST DUP3 MSTORE POP POP JUMP JUMPDEST PUSH0 PUSH2 0x158C DUP3 DUP6 PUSH2 0x156A JUMP JUMPDEST PUSH1 0x20 DUP3 ADD SWAP2 POP PUSH2 0x159C DUP3 DUP5 PUSH2 0x156A JUMP JUMPDEST PUSH1 0x20 DUP3 ADD SWAP2 POP DUP2 SWAP1 POP SWAP4 SWAP3 POP POP POP JUMP JUMPDEST PUSH0 PUSH2 0x15B6 DUP3 PUSH2 0xD2F JUMP JUMPDEST SWAP2 POP PUSH2 0x15C1 DUP4 PUSH2 0xD2F JUMP JUMPDEST SWAP3 POP DUP3 PUSH2 0x15D1 JUMPI PUSH2 0x15D0 PUSH2 0x149C JUMP JUMPDEST JUMPDEST DUP3 DUP3 MOD SWAP1 POP SWAP3 SWAP2 POP POP JUMP JUMPDEST PUSH0 PUSH2 0x15E6 DUP3 PUSH2 0xD2F JUMP JUMPDEST SWAP2 POP PUSH2 0x15F1 DUP4 PUSH2 0xD2F JUMP JUMPDEST SWAP3 POP DUP3 DUP3 ADD SWAP1 POP DUP1 DUP3 GT ISZERO PUSH2 0x1609 JUMPI PUSH2 0x1608 PUSH2 0xED0 JUMP JUMPDEST JUMPDEST SWAP3 SWAP2 POP POP JUMP JUMPDEST PUSH0 DUP2 SLOAD SWAP1 POP SWAP2 SWAP1 POP JUMP JUMPDEST PUSH0 DUP3 DUP3 MSTORE PUSH1 0x20 DUP3 ADD SWAP1 POP SWAP3 SWAP2 POP POP JUMP JUMPDEST PUSH0 DUP2 SWAP1 POP DUP2 PUSH0 MSTORE PUSH1 0x20 PUSH0 KECCAK256 SWAP1 POP SWAP2 SWAP1 POP JUMP JUMPDEST PUSH2 0x1644 DUP2 PUSH2 0xD2F JUMP JUMPDEST DUP3 MSTORE POP POP JUMP JUMPDEST PUSH0 PUSH2 0x1655 DUP4 DUP4 PUSH2 0x163B JUMP JUMPDEST PUSH1 0x20 DUP4 ADD SWAP1 POP SWAP3 SWAP2 POP POP JUMP JUMPDEST PUSH0 DUP2 PUSH0 SHR SWAP1 POP SWAP2 SWAP1 POP JUMP JUMPDEST PUSH0 DUP2 SWAP1 POP SWAP2 SWAP1 POP JUMP JUMPDEST PUSH0 PUSH2 0x1687 PUSH2 0x1682 DUP4 PUSH2 0x1661 JUMP JUMPDEST PUSH2 0x166C JUMP JUMPDEST SWAP1 POP SWAP2 SWAP1 POP JUMP JUMPDEST PUSH0 PUSH2 0x1699 DUP3 SLOAD PUSH2 0x1675 JUMP JUMPDEST SWAP1 POP SWAP2 SWAP1 POP JUMP JUMPDEST PUSH0 PUSH1 0x1 DUP3 ADD SWAP1 POP SWAP2 SWAP1 POP JUMP JUMPDEST PUSH0 PUSH2 0x16B6 DUP3 PUSH2 0x160F JUMP JUMPDEST PUSH2 0x16C0 DUP2 DUP6 PUSH2 0x1619 JUMP JUMPDEST SWAP4 POP PUSH2 0x16CB DUP4 PUSH2 0x1629 JUMP JUMPDEST DUP1 PUSH0 JUMPDEST DUP4 DUP2 LT ISZERO PUSH2 0x1702 JUMPI PUSH2 0x16DF DUP3 PUSH2 0x168E JUMP JUMPDEST PUSH2 0x16E9 DUP9 DUP3 PUSH2 0x164A JUMP JUMPDEST SWAP8 POP PUSH2 0x16F4 DUP4 PUSH2 0x16A0 JUMP JUMPDEST SWAP3 POP POP PUSH1 0x1 DUP2 ADD SWAP1 POP PUSH2 0x16CE JUMP JUMPDEST POP DUP6 SWAP4 POP POP POP POP SWAP3 SWAP2 POP POP JUMP JUMPDEST PUSH0 PUSH1 0x20 DUP3 ADD SWAP1 POP DUP2 DUP2 SUB PUSH0 DUP4 ADD MSTORE PUSH2 0x1727 DUP2 DUP5 PUSH2 0x16AC JUMP JUMPDEST SWAP1 POP SWAP3 SWAP2 POP POP JUMP JUMPDEST PUSH32 0x496E76616C69642077696E6E657220696E646578000000000000000000000000 PUSH0 DUP3 ADD MSTORE POP JUMP JUMPDEST PUSH0 PUSH2 0x1763 PUSH1 0x14 DUP4 PUSH2 0xF30 JUMP JUMPDEST SWAP2 POP PUSH2 0x176E DUP3 PUSH2 0x172F JUMP JUMPDEST PUSH1 0x20 DUP3 ADD SWAP1 POP SWAP2 SWAP1 POP JUMP JUMPDEST PUSH0 PUSH1 0x20 DUP3 ADD SWAP1 POP DUP2 DUP2 SUB PUSH0 DUP4 ADD MSTORE PUSH2 0x1790 DUP2 PUSH2 0x1757 JUMP JUMPDEST SWAP1 POP SWAP2 SWAP1 POP JUMP INVALID LOG2 PUSH5 0x6970667358 0x22 SLT KECCAK256 0xB0 LOG4 PUSH25 0x70D013D7796356F6AE188FF1F2E1B5742082CE7BD3F615F5C4 LT SWAP5 MSTORE8 BLOCKHASH PUSH5 0x736F6C6343 STOP ADDMOD BYTE STOP CALLER "
				},
				"gasEstimates": {
					"creation": {
						"codeDepositCost": "1218600",
						"executionCost": "1266",
						"totalCost": "1219866"
					},
					"external": {
						"checkIfAddrTicketWon(address,uint256,uint256)": "infinite",
						"checkIfMyTicketWon(uint256,uint256)": "infinite",
						"determineWinners(uint256)": "infinite",
						"getIthWinningTicket(uint256,uint256)": "infinite"
					},
					"internal": {
						"_isDuplicateWinner(uint256[] memory,uint256)": "infinite"
					}
				},
				"methodIdentifiers": {
					"checkIfAddrTicketWon(address,uint256,uint256)": "5bddbaac",
					"checkIfMyTicketWon(uint256,uint256)": "12b349d5",
					"determineWinners(uint256)": "c5929bc7",
					"getIthWinningTicket(uint256,uint256)": "e54778b5"
				}
			},
			"storageLayout": {
				"storage": [],
				"types": null
			},
			"userdoc": {
				"events": {
					"WinnersDetermined(uint256,uint256[])": {
						"notice": "Event emitted when winners are determined."
					}
				},
				"kind": "user",
				"methods": {
					"checkIfMyTicketWon(uint256,uint256)": {
						"notice": "Function to check if a specific ticket has won in a specified lottery. This function assumes the winners are determined and marked in some way "
					},
					"determineWinners(uint256)": {
						"notice": "Determines the winners of a specific lottery. This function assumes that winners are selected based on a predetermined random number or another method."
					},
					"getIthWinningTicket(uint256,uint256)": {
						"notice": "Retrieves the ticket number of the i-th winning ticket in a specific lottery."
					}
				},
				"notice": "WinnerDeterminationFacet Facet responsible for determining and retrieving lottery winners in a Diamond architecture.",
				"version": 1
			}
		}
	}
}