{
	"contracts/facets/PaymentFacet.sol": {
		"PaymentFacet": {
			"abi": [
				{
					"inputs": [
						{
							"internalType": "uint256",
							"name": "lottery_no",
							"type": "uint256"
						}
					],
					"name": "getPaymentToken",
					"outputs": [
						{
							"internalType": "address",
							"name": "erctokenaddr",
							"type": "address"
						}
					],
					"stateMutability": "view",
					"type": "function"
				},
				{
					"inputs": [
						{
							"internalType": "address",
							"name": "erctokenaddr",
							"type": "address"
						}
					],
					"name": "setPaymentToken",
					"outputs": [],
					"stateMutability": "nonpayable",
					"type": "function"
				},
				{
					"inputs": [
						{
							"internalType": "uint256",
							"name": "lottery_no",
							"type": "uint256"
						}
					],
					"name": "withdrawTicketProceeds",
					"outputs": [],
					"stateMutability": "nonpayable",
					"type": "function"
				}
			],
			"devdoc": {
				"kind": "dev",
				"methods": {
					"getPaymentToken(uint256)": {
						"params": {
							"lottery_no": "The ID of the lottery for which the payment token address is being retrieved."
						},
						"returns": {
							"erctokenaddr": "The ERC20 token address used for ticket purchases in the specified lottery."
						}
					},
					"setPaymentToken(address)": {
						"params": {
							"erctokenaddr": "The address of the new ERC20 token contract to be used for ticket payments."
						}
					},
					"withdrawTicketProceeds(uint256)": {
						"params": {
							"lottery_no": "The ID of the lottery for which the proceeds are being withdrawn."
						}
					}
				},
				"version": 1
			},
			"evm": {
				"assembly": "    /* \"contracts/facets/PaymentFacet.sol\":305:3571  contract PaymentFacet {... */\n  mstore(0x40, 0x80)\n  callvalue\n  dup1\n  iszero\n  tag_1\n  jumpi\n  0x00\n  dup1\n  revert\ntag_1:\n  pop\n  dataSize(sub_0)\n  dup1\n  dataOffset(sub_0)\n  0x00\n  codecopy\n  0x00\n  return\nstop\n\nsub_0: assembly {\n        /* \"contracts/facets/PaymentFacet.sol\":305:3571  contract PaymentFacet {... */\n      mstore(0x40, 0x80)\n      callvalue\n      dup1\n      iszero\n      tag_1\n      jumpi\n      0x00\n      dup1\n      revert\n    tag_1:\n      pop\n      jumpi(tag_2, lt(calldatasize, 0x04))\n      shr(0xe0, calldataload(0x00))\n      dup1\n      0x6a326ab1\n      eq\n      tag_3\n      jumpi\n      dup1\n      0xad943d1e\n      eq\n      tag_4\n      jumpi\n      dup1\n      0xcdc2aebf\n      eq\n      tag_5\n      jumpi\n    tag_2:\n      0x00\n      dup1\n      revert\n        /* \"contracts/facets/PaymentFacet.sol\":1069:1546  function setPaymentToken(address erctokenaddr) public onlyOwner {... */\n    tag_3:\n      tag_6\n      0x04\n      dup1\n      calldatasize\n      sub\n      dup2\n      add\n      swap1\n      tag_7\n      swap2\n      swap1\n      tag_8\n      jump\t// in\n    tag_7:\n      tag_9\n      jump\t// in\n    tag_6:\n      stop\n        /* \"contracts/facets/PaymentFacet.sol\":2521:3569  function withdrawTicketProceeds(uint lottery_no)... */\n    tag_4:\n      tag_10\n      0x04\n      dup1\n      calldatasize\n      sub\n      dup2\n      add\n      swap1\n      tag_11\n      swap2\n      swap1\n      tag_12\n      jump\t// in\n    tag_11:\n      tag_13\n      jump\t// in\n    tag_10:\n      stop\n        /* \"contracts/facets/PaymentFacet.sol\":1861:2207  function getPaymentToken(uint lottery_no)... */\n    tag_5:\n      tag_14\n      0x04\n      dup1\n      calldatasize\n      sub\n      dup2\n      add\n      swap1\n      tag_15\n      swap2\n      swap1\n      tag_12\n      jump\t// in\n    tag_15:\n      tag_16\n      jump\t// in\n    tag_14:\n      mload(0x40)\n      tag_17\n      swap2\n      swap1\n      tag_18\n      jump\t// in\n    tag_17:\n      mload(0x40)\n      dup1\n      swap2\n      sub\n      swap1\n      return\n        /* \"contracts/facets/PaymentFacet.sol\":1069:1546  function setPaymentToken(address erctokenaddr) public onlyOwner {... */\n    tag_9:\n        /* \"contracts/facets/PaymentFacet.sol\":488:492  this */\n      address\n        /* \"contracts/facets/PaymentFacet.sol\":461:503  AccessControlFacet(address(this)).getOwner */\n      0xffffffffffffffffffffffffffffffffffffffff\n      and\n      0x893d20e8\n        /* \"contracts/facets/PaymentFacet.sol\":461:505  AccessControlFacet(address(this)).getOwner() */\n      mload(0x40)\n      dup2\n      0xffffffff\n      and\n      0xe0\n      shl\n      dup2\n      mstore\n      0x04\n      add\n      0x20\n      mload(0x40)\n      dup1\n      dup4\n      sub\n      dup2\n      dup7\n      gas\n      staticcall\n      iszero\n      dup1\n      iszero\n      tag_21\n      jumpi\n      returndatasize\n      0x00\n      dup1\n      returndatacopy\n      revert(0x00, returndatasize)\n    tag_21:\n      pop\n      pop\n      pop\n      pop\n      mload(0x40)\n      returndatasize\n      not(0x1f)\n      0x1f\n      dup3\n      add\n      and\n      dup3\n      add\n      dup1\n      0x40\n      mstore\n      pop\n      dup2\n      add\n      swap1\n      tag_22\n      swap2\n      swap1\n      tag_23\n      jump\t// in\n    tag_22:\n        /* \"contracts/facets/PaymentFacet.sol\":447:505  msg.sender == AccessControlFacet(address(this)).getOwner() */\n      0xffffffffffffffffffffffffffffffffffffffff\n      and\n        /* \"contracts/facets/PaymentFacet.sol\":447:457  msg.sender */\n      caller\n        /* \"contracts/facets/PaymentFacet.sol\":447:505  msg.sender == AccessControlFacet(address(this)).getOwner() */\n      0xffffffffffffffffffffffffffffffffffffffff\n      and\n      eq\n        /* \"contracts/facets/PaymentFacet.sol\":439:547  require(msg.sender == AccessControlFacet(address(this)).getOwner(), \"Only the owner can call this function\") */\n      tag_24\n      jumpi\n      mload(0x40)\n      0x08c379a000000000000000000000000000000000000000000000000000000000\n      dup2\n      mstore\n      0x04\n      add\n      tag_25\n      swap1\n      tag_26\n      jump\t// in\n    tag_25:\n      mload(0x40)\n      dup1\n      swap2\n      sub\n      swap1\n      revert\n    tag_24:\n        /* \"contracts/facets/PaymentFacet.sol\":1175:1176  0 */\n      0x00\n        /* \"contracts/facets/PaymentFacet.sol\":1151:1177  erctokenaddr != address(0) */\n      0xffffffffffffffffffffffffffffffffffffffff\n      and\n        /* \"contracts/facets/PaymentFacet.sol\":1151:1163  erctokenaddr */\n      dup2\n        /* \"contracts/facets/PaymentFacet.sol\":1151:1177  erctokenaddr != address(0) */\n      0xffffffffffffffffffffffffffffffffffffffff\n      and\n      sub\n        /* \"contracts/facets/PaymentFacet.sol\":1143:1203  require(erctokenaddr != address(0), \"Invalid token address\") */\n      tag_28\n      jumpi\n      mload(0x40)\n      0x08c379a000000000000000000000000000000000000000000000000000000000\n      dup2\n      mstore\n      0x04\n      add\n      tag_29\n      swap1\n      tag_30\n      jump\t// in\n    tag_29:\n      mload(0x40)\n      dup1\n      swap2\n      sub\n      swap1\n      revert\n    tag_28:\n        /* \"contracts/facets/PaymentFacet.sol\":1214:1244  LotteryStorage.State storage s */\n      0x00\n        /* \"contracts/facets/PaymentFacet.sol\":1247:1274  LotteryStorage.getStorage() */\n      tag_31\n        /* \"contracts/facets/PaymentFacet.sol\":1247:1272  LotteryStorage.getStorage */\n      tag_32\n        /* \"contracts/facets/PaymentFacet.sol\":1247:1274  LotteryStorage.getStorage() */\n      jump\t// in\n    tag_31:\n        /* \"contracts/facets/PaymentFacet.sol\":1214:1274  LotteryStorage.State storage s = LotteryStorage.getStorage() */\n      swap1\n      pop\n        /* \"contracts/facets/PaymentFacet.sol\":1284:1307  TicketToken ticketToken */\n      0x00\n        /* \"contracts/facets/PaymentFacet.sol\":1322:1334  erctokenaddr */\n      dup3\n        /* \"contracts/facets/PaymentFacet.sol\":1284:1335  TicketToken ticketToken = TicketToken(erctokenaddr) */\n      swap1\n      pop\n        /* \"contracts/facets/PaymentFacet.sol\":1429:1430  0 */\n      0x00\n        /* \"contracts/facets/PaymentFacet.sol\":1401:1412  ticketToken */\n      dup2\n        /* \"contracts/facets/PaymentFacet.sol\":1401:1424  ticketToken.totalSupply */\n      0xffffffffffffffffffffffffffffffffffffffff\n      and\n      0x18160ddd\n        /* \"contracts/facets/PaymentFacet.sol\":1401:1426  ticketToken.totalSupply() */\n      mload(0x40)\n      dup2\n      0xffffffff\n      and\n      0xe0\n      shl\n      dup2\n      mstore\n      0x04\n      add\n      0x20\n      mload(0x40)\n      dup1\n      dup4\n      sub\n      dup2\n      dup7\n      gas\n      staticcall\n      iszero\n      dup1\n      iszero\n      tag_34\n      jumpi\n      returndatasize\n      0x00\n      dup1\n      returndatacopy\n      revert(0x00, returndatasize)\n    tag_34:\n      pop\n      pop\n      pop\n      pop\n      mload(0x40)\n      returndatasize\n      not(0x1f)\n      0x1f\n      dup3\n      add\n      and\n      dup3\n      add\n      dup1\n      0x40\n      mstore\n      pop\n      dup2\n      add\n      swap1\n      tag_35\n      swap2\n      swap1\n      tag_36\n      jump\t// in\n    tag_35:\n        /* \"contracts/facets/PaymentFacet.sol\":1401:1430  ticketToken.totalSupply() > 0 */\n      gt\n        /* \"contracts/facets/PaymentFacet.sol\":1393:1457  require(ticketToken.totalSupply() > 0, \"Invalid token contract\") */\n      tag_37\n      jumpi\n      mload(0x40)\n      0x08c379a000000000000000000000000000000000000000000000000000000000\n      dup2\n      mstore\n      0x04\n      add\n      tag_38\n      swap1\n      tag_39\n      jump\t// in\n    tag_38:\n      mload(0x40)\n      dup1\n      swap2\n      sub\n      swap1\n      revert\n    tag_37:\n        /* \"contracts/facets/PaymentFacet.sol\":1528:1539  ticketToken */\n      dup1\n        /* \"contracts/facets/PaymentFacet.sol\":1511:1512  s */\n      dup3\n        /* \"contracts/facets/PaymentFacet.sol\":1511:1525  s.paymentToken */\n      0x04\n      add\n      0x00\n        /* \"contracts/facets/PaymentFacet.sol\":1511:1539  s.paymentToken = ticketToken */\n      0x0100\n      exp\n      dup2\n      sload\n      dup2\n      0xffffffffffffffffffffffffffffffffffffffff\n      mul\n      not\n      and\n      swap1\n      dup4\n      0xffffffffffffffffffffffffffffffffffffffff\n      and\n      mul\n      or\n      swap1\n      sstore\n      pop\n        /* \"contracts/facets/PaymentFacet.sol\":1133:1546  {... */\n      pop\n      pop\n        /* \"contracts/facets/PaymentFacet.sol\":1069:1546  function setPaymentToken(address erctokenaddr) public onlyOwner {... */\n      pop\n      jump\t// out\n        /* \"contracts/facets/PaymentFacet.sol\":2521:3569  function withdrawTicketProceeds(uint lottery_no)... */\n    tag_13:\n        /* \"contracts/facets/PaymentFacet.sol\":488:492  this */\n      address\n        /* \"contracts/facets/PaymentFacet.sol\":461:503  AccessControlFacet(address(this)).getOwner */\n      0xffffffffffffffffffffffffffffffffffffffff\n      and\n      0x893d20e8\n        /* \"contracts/facets/PaymentFacet.sol\":461:505  AccessControlFacet(address(this)).getOwner() */\n      mload(0x40)\n      dup2\n      0xffffffff\n      and\n      0xe0\n      shl\n      dup2\n      mstore\n      0x04\n      add\n      0x20\n      mload(0x40)\n      dup1\n      dup4\n      sub\n      dup2\n      dup7\n      gas\n      staticcall\n      iszero\n      dup1\n      iszero\n      tag_42\n      jumpi\n      returndatasize\n      0x00\n      dup1\n      returndatacopy\n      revert(0x00, returndatasize)\n    tag_42:\n      pop\n      pop\n      pop\n      pop\n      mload(0x40)\n      returndatasize\n      not(0x1f)\n      0x1f\n      dup3\n      add\n      and\n      dup3\n      add\n      dup1\n      0x40\n      mstore\n      pop\n      dup2\n      add\n      swap1\n      tag_43\n      swap2\n      swap1\n      tag_23\n      jump\t// in\n    tag_43:\n        /* \"contracts/facets/PaymentFacet.sol\":447:505  msg.sender == AccessControlFacet(address(this)).getOwner() */\n      0xffffffffffffffffffffffffffffffffffffffff\n      and\n        /* \"contracts/facets/PaymentFacet.sol\":447:457  msg.sender */\n      caller\n        /* \"contracts/facets/PaymentFacet.sol\":447:505  msg.sender == AccessControlFacet(address(this)).getOwner() */\n      0xffffffffffffffffffffffffffffffffffffffff\n      and\n      eq\n        /* \"contracts/facets/PaymentFacet.sol\":439:547  require(msg.sender == AccessControlFacet(address(this)).getOwner(), \"Only the owner can call this function\") */\n      tag_44\n      jumpi\n      mload(0x40)\n      0x08c379a000000000000000000000000000000000000000000000000000000000\n      dup2\n      mstore\n      0x04\n      add\n      tag_45\n      swap1\n      tag_26\n      jump\t// in\n    tag_45:\n      mload(0x40)\n      dup1\n      swap2\n      sub\n      swap1\n      revert\n    tag_44:\n        /* \"contracts/facets/PaymentFacet.sol\":2626:2636  lottery_no */\n      dup1\n        /* \"contracts/facets/PaymentFacet.sol\":664:694  LotteryStorage.State storage s */\n      0x00\n        /* \"contracts/facets/PaymentFacet.sol\":697:724  LotteryStorage.getStorage() */\n      tag_47\n        /* \"contracts/facets/PaymentFacet.sol\":697:722  LotteryStorage.getStorage */\n      tag_32\n        /* \"contracts/facets/PaymentFacet.sol\":697:724  LotteryStorage.getStorage() */\n      jump\t// in\n    tag_47:\n        /* \"contracts/facets/PaymentFacet.sol\":664:724  LotteryStorage.State storage s = LotteryStorage.getStorage() */\n      swap1\n      pop\n        /* \"contracts/facets/PaymentFacet.sol\":755:756  0 */\n      0x00\n        /* \"contracts/facets/PaymentFacet.sol\":742:752  lottery_no */\n      dup3\n        /* \"contracts/facets/PaymentFacet.sol\":742:756  lottery_no > 0 */\n      gt\n        /* \"contracts/facets/PaymentFacet.sol\":742:794  lottery_no > 0 && lottery_no-1 <= s.currentLotteryNo */\n      dup1\n      iszero\n      tag_48\n      jumpi\n      pop\n        /* \"contracts/facets/PaymentFacet.sol\":776:777  s */\n      dup1\n        /* \"contracts/facets/PaymentFacet.sol\":776:794  s.currentLotteryNo */\n      0x03\n      add\n      sload\n        /* \"contracts/facets/PaymentFacet.sol\":771:772  1 */\n      0x01\n        /* \"contracts/facets/PaymentFacet.sol\":760:770  lottery_no */\n      dup4\n        /* \"contracts/facets/PaymentFacet.sol\":760:772  lottery_no-1 */\n      tag_49\n      swap2\n      swap1\n      tag_50\n      jump\t// in\n    tag_49:\n        /* \"contracts/facets/PaymentFacet.sol\":760:794  lottery_no-1 <= s.currentLotteryNo */\n      gt\n      iszero\n        /* \"contracts/facets/PaymentFacet.sol\":742:794  lottery_no > 0 && lottery_no-1 <= s.currentLotteryNo */\n    tag_48:\n        /* \"contracts/facets/PaymentFacet.sol\":734:821  require(lottery_no > 0 && lottery_no-1 <= s.currentLotteryNo, \"Invalid lottery number\") */\n      tag_51\n      jumpi\n      mload(0x40)\n      0x08c379a000000000000000000000000000000000000000000000000000000000\n      dup2\n      mstore\n      0x04\n      add\n      tag_52\n      swap1\n      tag_53\n      jump\t// in\n    tag_52:\n      mload(0x40)\n      dup1\n      swap2\n      sub\n      swap1\n      revert\n    tag_51:\n        /* \"contracts/facets/PaymentFacet.sol\":2649:2679  LotteryStorage.State storage s */\n      0x00\n        /* \"contracts/facets/PaymentFacet.sol\":2682:2709  LotteryStorage.getStorage() */\n      tag_55\n        /* \"contracts/facets/PaymentFacet.sol\":2682:2707  LotteryStorage.getStorage */\n      tag_32\n        /* \"contracts/facets/PaymentFacet.sol\":2682:2709  LotteryStorage.getStorage() */\n      jump\t// in\n    tag_55:\n        /* \"contracts/facets/PaymentFacet.sol\":2649:2709  LotteryStorage.State storage s = LotteryStorage.getStorage() */\n      swap1\n      pop\n        /* \"contracts/facets/PaymentFacet.sol\":2719:2757  LotteryStructs.Lottery storage lottery */\n      0x00\n        /* \"contracts/facets/PaymentFacet.sol\":2760:2761  s */\n      dup2\n        /* \"contracts/facets/PaymentFacet.sol\":2760:2771  s.lotteries */\n      0x01\n      add\n        /* \"contracts/facets/PaymentFacet.sol\":2760:2785  s.lotteries[lottery_no-1] */\n      0x00\n        /* \"contracts/facets/PaymentFacet.sol\":2783:2784  1 */\n      0x01\n        /* \"contracts/facets/PaymentFacet.sol\":2772:2782  lottery_no */\n      dup8\n        /* \"contracts/facets/PaymentFacet.sol\":2772:2784  lottery_no-1 */\n      tag_56\n      swap2\n      swap1\n      tag_50\n      jump\t// in\n    tag_56:\n        /* \"contracts/facets/PaymentFacet.sol\":2760:2785  s.lotteries[lottery_no-1] */\n      dup2\n      mstore\n      0x20\n      add\n      swap1\n      dup2\n      mstore\n      0x20\n      add\n      0x00\n      keccak256\n        /* \"contracts/facets/PaymentFacet.sol\":2719:2785  LotteryStructs.Lottery storage lottery = s.lotteries[lottery_no-1] */\n      swap1\n      pop\n        /* \"contracts/facets/PaymentFacet.sol\":2821:2858  LotteryStructs.LotteryState.COMPLETED */\n      0x02\n        /* \"contracts/facets/PaymentFacet.sol\":2804:2858  lottery.state == LotteryStructs.LotteryState.COMPLETED */\n      0x03\n      dup2\n      gt\n      iszero\n      tag_57\n      jumpi\n      tag_58\n      tag_59\n      jump\t// in\n    tag_58:\n    tag_57:\n        /* \"contracts/facets/PaymentFacet.sol\":2804:2811  lottery */\n      dup2\n        /* \"contracts/facets/PaymentFacet.sol\":2804:2817  lottery.state */\n      0x08\n      add\n      0x00\n      swap1\n      sload\n      swap1\n      0x0100\n      exp\n      swap1\n      div\n      0xff\n      and\n        /* \"contracts/facets/PaymentFacet.sol\":2804:2858  lottery.state == LotteryStructs.LotteryState.COMPLETED */\n      0x03\n      dup2\n      gt\n      iszero\n      tag_60\n      jumpi\n      tag_61\n      tag_59\n      jump\t// in\n    tag_61:\n    tag_60:\n      eq\n        /* \"contracts/facets/PaymentFacet.sol\":2796:2893  require(lottery.state == LotteryStructs.LotteryState.COMPLETED, \"Lottery has not been completed\") */\n      tag_62\n      jumpi\n      mload(0x40)\n      0x08c379a000000000000000000000000000000000000000000000000000000000\n      dup2\n      mstore\n      0x04\n      add\n      tag_63\n      swap1\n      tag_64\n      jump\t// in\n    tag_63:\n      mload(0x40)\n      dup1\n      swap2\n      sub\n      swap1\n      revert\n    tag_62:\n        /* \"contracts/facets/PaymentFacet.sol\":2929:2930  0 */\n      0x00\n        /* \"contracts/facets/PaymentFacet.sol\":2911:2918  lottery */\n      dup2\n        /* \"contracts/facets/PaymentFacet.sol\":2911:2926  lottery.numsold */\n      0x09\n      add\n      sload\n        /* \"contracts/facets/PaymentFacet.sol\":2911:2930  lottery.numsold > 0 */\n      gt\n        /* \"contracts/facets/PaymentFacet.sol\":2903:2950  require(lottery.numsold > 0, \"No tickets sold\") */\n      tag_65\n      jumpi\n      mload(0x40)\n      0x08c379a000000000000000000000000000000000000000000000000000000000\n      dup2\n      mstore\n      0x04\n      add\n      tag_66\n      swap1\n      tag_67\n      jump\t// in\n    tag_66:\n      mload(0x40)\n      dup1\n      swap2\n      sub\n      swap1\n      revert\n    tag_65:\n        /* \"contracts/facets/PaymentFacet.sol\":3014:3035  uint256 totalProceeds */\n      0x00\n        /* \"contracts/facets/PaymentFacet.sol\":3056:3063  lottery */\n      dup2\n        /* \"contracts/facets/PaymentFacet.sol\":3056:3075  lottery.ticketprice */\n      0x04\n      add\n      sload\n        /* \"contracts/facets/PaymentFacet.sol\":3038:3045  lottery */\n      dup3\n        /* \"contracts/facets/PaymentFacet.sol\":3038:3053  lottery.numsold */\n      0x09\n      add\n      sload\n        /* \"contracts/facets/PaymentFacet.sol\":3038:3075  lottery.numsold * lottery.ticketprice */\n      tag_68\n      swap2\n      swap1\n      tag_69\n      jump\t// in\n    tag_68:\n        /* \"contracts/facets/PaymentFacet.sol\":3014:3075  uint256 totalProceeds = lottery.numsold * lottery.ticketprice */\n      swap1\n      pop\n        /* \"contracts/facets/PaymentFacet.sol\":3142:3165  TicketToken ticketToken */\n      0x00\n        /* \"contracts/facets/PaymentFacet.sol\":3188:3189  s */\n      dup4\n        /* \"contracts/facets/PaymentFacet.sol\":3188:3202  s.paymentToken */\n      0x04\n      add\n      0x00\n      swap1\n      sload\n      swap1\n      0x0100\n      exp\n      swap1\n      div\n      0xffffffffffffffffffffffffffffffffffffffff\n      and\n        /* \"contracts/facets/PaymentFacet.sol\":3142:3204  TicketToken ticketToken = TicketToken(address(s.paymentToken)) */\n      swap1\n      pop\n        /* \"contracts/facets/PaymentFacet.sol\":3214:3237  uint256 contractBalance */\n      0x00\n        /* \"contracts/facets/PaymentFacet.sol\":3240:3251  ticketToken */\n      dup2\n        /* \"contracts/facets/PaymentFacet.sol\":3240:3261  ticketToken.balanceOf */\n      0xffffffffffffffffffffffffffffffffffffffff\n      and\n      0x70a08231\n        /* \"contracts/facets/PaymentFacet.sol\":3270:3274  this */\n      address\n        /* \"contracts/facets/PaymentFacet.sol\":3240:3276  ticketToken.balanceOf(address(this)) */\n      mload(0x40)\n      dup3\n      0xffffffff\n      and\n      0xe0\n      shl\n      dup2\n      mstore\n      0x04\n      add\n      tag_70\n      swap2\n      swap1\n      tag_18\n      jump\t// in\n    tag_70:\n      0x20\n      mload(0x40)\n      dup1\n      dup4\n      sub\n      dup2\n      dup7\n      gas\n      staticcall\n      iszero\n      dup1\n      iszero\n      tag_72\n      jumpi\n      returndatasize\n      0x00\n      dup1\n      returndatacopy\n      revert(0x00, returndatasize)\n    tag_72:\n      pop\n      pop\n      pop\n      pop\n      mload(0x40)\n      returndatasize\n      not(0x1f)\n      0x1f\n      dup3\n      add\n      and\n      dup3\n      add\n      dup1\n      0x40\n      mstore\n      pop\n      dup2\n      add\n      swap1\n      tag_73\n      swap2\n      swap1\n      tag_36\n      jump\t// in\n    tag_73:\n        /* \"contracts/facets/PaymentFacet.sol\":3214:3276  uint256 contractBalance = ticketToken.balanceOf(address(this)) */\n      swap1\n      pop\n        /* \"contracts/facets/PaymentFacet.sol\":3313:3326  totalProceeds */\n      dup3\n        /* \"contracts/facets/PaymentFacet.sol\":3294:3309  contractBalance */\n      dup2\n        /* \"contracts/facets/PaymentFacet.sol\":3294:3326  contractBalance >= totalProceeds */\n      lt\n      iszero\n        /* \"contracts/facets/PaymentFacet.sol\":3286:3349  require(contractBalance >= totalProceeds, \"Insufficient funds\") */\n      tag_74\n      jumpi\n      mload(0x40)\n      0x08c379a000000000000000000000000000000000000000000000000000000000\n      dup2\n      mstore\n      0x04\n      add\n      tag_75\n      swap1\n      tag_76\n      jump\t// in\n    tag_75:\n      mload(0x40)\n      dup1\n      swap2\n      sub\n      swap1\n      revert\n    tag_74:\n        /* \"contracts/facets/PaymentFacet.sol\":3422:3435  address owner */\n      0x00\n        /* \"contracts/facets/PaymentFacet.sol\":3465:3469  this */\n      address\n        /* \"contracts/facets/PaymentFacet.sol\":3438:3480  AccessControlFacet(address(this)).getOwner */\n      0xffffffffffffffffffffffffffffffffffffffff\n      and\n      0x893d20e8\n        /* \"contracts/facets/PaymentFacet.sol\":3438:3482  AccessControlFacet(address(this)).getOwner() */\n      mload(0x40)\n      dup2\n      0xffffffff\n      and\n      0xe0\n      shl\n      dup2\n      mstore\n      0x04\n      add\n      0x20\n      mload(0x40)\n      dup1\n      dup4\n      sub\n      dup2\n      dup7\n      gas\n      staticcall\n      iszero\n      dup1\n      iszero\n      tag_78\n      jumpi\n      returndatasize\n      0x00\n      dup1\n      returndatacopy\n      revert(0x00, returndatasize)\n    tag_78:\n      pop\n      pop\n      pop\n      pop\n      mload(0x40)\n      returndatasize\n      not(0x1f)\n      0x1f\n      dup3\n      add\n      and\n      dup3\n      add\n      dup1\n      0x40\n      mstore\n      pop\n      dup2\n      add\n      swap1\n      tag_79\n      swap2\n      swap1\n      tag_23\n      jump\t// in\n    tag_79:\n        /* \"contracts/facets/PaymentFacet.sol\":3422:3482  address owner = AccessControlFacet(address(this)).getOwner() */\n      swap1\n      pop\n        /* \"contracts/facets/PaymentFacet.sol\":3500:3511  ticketToken */\n      dup3\n        /* \"contracts/facets/PaymentFacet.sol\":3500:3520  ticketToken.transfer */\n      0xffffffffffffffffffffffffffffffffffffffff\n      and\n      0xa9059cbb\n        /* \"contracts/facets/PaymentFacet.sol\":3521:3526  owner */\n      dup3\n        /* \"contracts/facets/PaymentFacet.sol\":3528:3541  totalProceeds */\n      dup7\n        /* \"contracts/facets/PaymentFacet.sol\":3500:3542  ticketToken.transfer(owner, totalProceeds) */\n      mload(0x40)\n      dup4\n      0xffffffff\n      and\n      0xe0\n      shl\n      dup2\n      mstore\n      0x04\n      add\n      tag_80\n      swap3\n      swap2\n      swap1\n      tag_81\n      jump\t// in\n    tag_80:\n      0x20\n      mload(0x40)\n      dup1\n      dup4\n      sub\n      dup2\n      0x00\n      dup8\n      gas\n      call\n      iszero\n      dup1\n      iszero\n      tag_83\n      jumpi\n      returndatasize\n      0x00\n      dup1\n      returndatacopy\n      revert(0x00, returndatasize)\n    tag_83:\n      pop\n      pop\n      pop\n      pop\n      mload(0x40)\n      returndatasize\n      not(0x1f)\n      0x1f\n      dup3\n      add\n      and\n      dup3\n      add\n      dup1\n      0x40\n      mstore\n      pop\n      dup2\n      add\n      swap1\n      tag_84\n      swap2\n      swap1\n      tag_85\n      jump\t// in\n    tag_84:\n        /* \"contracts/facets/PaymentFacet.sol\":3492:3562  require(ticketToken.transfer(owner, totalProceeds), \"Transfer failed\") */\n      tag_86\n      jumpi\n      mload(0x40)\n      0x08c379a000000000000000000000000000000000000000000000000000000000\n      dup2\n      mstore\n      0x04\n      add\n      tag_87\n      swap1\n      tag_88\n      jump\t// in\n    tag_87:\n      mload(0x40)\n      dup1\n      swap2\n      sub\n      swap1\n      revert\n    tag_86:\n        /* \"contracts/facets/PaymentFacet.sol\":2638:3569  {... */\n      pop\n      pop\n      pop\n      pop\n      pop\n      pop\n        /* \"contracts/facets/PaymentFacet.sol\":654:839  {... */\n      pop\n        /* \"contracts/facets/PaymentFacet.sol\":557:558  _ */\n      pop\n        /* \"contracts/facets/PaymentFacet.sol\":2521:3569  function withdrawTicketProceeds(uint lottery_no)... */\n      pop\n      jump\t// out\n        /* \"contracts/facets/PaymentFacet.sol\":1861:2207  function getPaymentToken(uint lottery_no)... */\n    tag_16:\n        /* \"contracts/facets/PaymentFacet.sol\":1983:2003  address erctokenaddr */\n      0x00\n        /* \"contracts/facets/PaymentFacet.sol\":1954:1964  lottery_no */\n      dup2\n        /* \"contracts/facets/PaymentFacet.sol\":664:694  LotteryStorage.State storage s */\n      0x00\n        /* \"contracts/facets/PaymentFacet.sol\":697:724  LotteryStorage.getStorage() */\n      tag_90\n        /* \"contracts/facets/PaymentFacet.sol\":697:722  LotteryStorage.getStorage */\n      tag_32\n        /* \"contracts/facets/PaymentFacet.sol\":697:724  LotteryStorage.getStorage() */\n      jump\t// in\n    tag_90:\n        /* \"contracts/facets/PaymentFacet.sol\":664:724  LotteryStorage.State storage s = LotteryStorage.getStorage() */\n      swap1\n      pop\n        /* \"contracts/facets/PaymentFacet.sol\":755:756  0 */\n      0x00\n        /* \"contracts/facets/PaymentFacet.sol\":742:752  lottery_no */\n      dup3\n        /* \"contracts/facets/PaymentFacet.sol\":742:756  lottery_no > 0 */\n      gt\n        /* \"contracts/facets/PaymentFacet.sol\":742:794  lottery_no > 0 && lottery_no-1 <= s.currentLotteryNo */\n      dup1\n      iszero\n      tag_91\n      jumpi\n      pop\n        /* \"contracts/facets/PaymentFacet.sol\":776:777  s */\n      dup1\n        /* \"contracts/facets/PaymentFacet.sol\":776:794  s.currentLotteryNo */\n      0x03\n      add\n      sload\n        /* \"contracts/facets/PaymentFacet.sol\":771:772  1 */\n      0x01\n        /* \"contracts/facets/PaymentFacet.sol\":760:770  lottery_no */\n      dup4\n        /* \"contracts/facets/PaymentFacet.sol\":760:772  lottery_no-1 */\n      tag_92\n      swap2\n      swap1\n      tag_50\n      jump\t// in\n    tag_92:\n        /* \"contracts/facets/PaymentFacet.sol\":760:794  lottery_no-1 <= s.currentLotteryNo */\n      gt\n      iszero\n        /* \"contracts/facets/PaymentFacet.sol\":742:794  lottery_no > 0 && lottery_no-1 <= s.currentLotteryNo */\n    tag_91:\n        /* \"contracts/facets/PaymentFacet.sol\":734:821  require(lottery_no > 0 && lottery_no-1 <= s.currentLotteryNo, \"Invalid lottery number\") */\n      tag_93\n      jumpi\n      mload(0x40)\n      0x08c379a000000000000000000000000000000000000000000000000000000000\n      dup2\n      mstore\n      0x04\n      add\n      tag_94\n      swap1\n      tag_53\n      jump\t// in\n    tag_94:\n      mload(0x40)\n      dup1\n      swap2\n      sub\n      swap1\n      revert\n    tag_93:\n        /* \"contracts/facets/PaymentFacet.sol\":2015:2045  LotteryStorage.State storage s */\n      0x00\n        /* \"contracts/facets/PaymentFacet.sol\":2048:2075  LotteryStorage.getStorage() */\n      tag_96\n        /* \"contracts/facets/PaymentFacet.sol\":2048:2073  LotteryStorage.getStorage */\n      tag_32\n        /* \"contracts/facets/PaymentFacet.sol\":2048:2075  LotteryStorage.getStorage() */\n      jump\t// in\n    tag_96:\n        /* \"contracts/facets/PaymentFacet.sol\":2015:2075  LotteryStorage.State storage s = LotteryStorage.getStorage() */\n      swap1\n      pop\n        /* \"contracts/facets/PaymentFacet.sol\":2100:2101  s */\n      dup1\n        /* \"contracts/facets/PaymentFacet.sol\":2100:2114  s.paymentToken */\n      0x04\n      add\n      0x00\n      swap1\n      sload\n      swap1\n      0x0100\n      exp\n      swap1\n      div\n      0xffffffffffffffffffffffffffffffffffffffff\n      and\n        /* \"contracts/facets/PaymentFacet.sol\":2085:2115  return address(s.paymentToken) */\n      swap4\n      pop\n      pop\n        /* \"contracts/facets/PaymentFacet.sol\":654:839  {... */\n      pop\n        /* \"contracts/facets/PaymentFacet.sol\":1861:2207  function getPaymentToken(uint lottery_no)... */\n      pop\n      swap2\n      swap1\n      pop\n      jump\t// out\n        /* \"contracts/libraries/LotteryStorage.sol\":1477:1651  function getStorage() internal pure returns (State storage s) {... */\n    tag_32:\n        /* \"contracts/libraries/LotteryStorage.sol\":1522:1537  State storage s */\n      0x00\n        /* \"contracts/libraries/LotteryStorage.sol\":1549:1565  bytes32 position */\n      dup1\n        /* \"contracts/libraries/LotteryStorage.sol\":589:625  keccak256(\"diamond.storage.lottery\") */\n      0x755d7b3c7227e1f30e6cde2e9db88bc1d20ae16efd7e1368f3c80b4bf3d6e53a\n        /* \"contracts/libraries/LotteryStorage.sol\":1549:1584  bytes32 position = STORAGE_POSITION */\n      swap1\n      pop\n        /* \"contracts/libraries/LotteryStorage.sol\":1627:1635  position */\n      dup1\n        /* \"contracts/libraries/LotteryStorage.sol\":1617:1635  s.slot := position */\n      swap2\n      pop\n        /* \"contracts/libraries/LotteryStorage.sol\":1603:1645  {... */\n      pop\n        /* \"contracts/libraries/LotteryStorage.sol\":1477:1651  function getStorage() internal pure returns (State storage s) {... */\n      swap1\n      jump\t// out\n        /* \"#utility.yul\":88:205   */\n    tag_99:\n        /* \"#utility.yul\":197:198   */\n      0x00\n        /* \"#utility.yul\":194:195   */\n      dup1\n        /* \"#utility.yul\":187:199   */\n      revert\n        /* \"#utility.yul\":334:460   */\n    tag_101:\n        /* \"#utility.yul\":371:378   */\n      0x00\n        /* \"#utility.yul\":411:453   */\n      0xffffffffffffffffffffffffffffffffffffffff\n        /* \"#utility.yul\":404:409   */\n      dup3\n        /* \"#utility.yul\":400:454   */\n      and\n        /* \"#utility.yul\":389:454   */\n      swap1\n      pop\n        /* \"#utility.yul\":334:460   */\n      swap2\n      swap1\n      pop\n      jump\t// out\n        /* \"#utility.yul\":466:562   */\n    tag_102:\n        /* \"#utility.yul\":503:510   */\n      0x00\n        /* \"#utility.yul\":532:556   */\n      tag_139\n        /* \"#utility.yul\":550:555   */\n      dup3\n        /* \"#utility.yul\":532:556   */\n      tag_101\n      jump\t// in\n    tag_139:\n        /* \"#utility.yul\":521:556   */\n      swap1\n      pop\n        /* \"#utility.yul\":466:562   */\n      swap2\n      swap1\n      pop\n      jump\t// out\n        /* \"#utility.yul\":568:690   */\n    tag_103:\n        /* \"#utility.yul\":641:665   */\n      tag_141\n        /* \"#utility.yul\":659:664   */\n      dup2\n        /* \"#utility.yul\":641:665   */\n      tag_102\n      jump\t// in\n    tag_141:\n        /* \"#utility.yul\":634:639   */\n      dup2\n        /* \"#utility.yul\":631:666   */\n      eq\n        /* \"#utility.yul\":621:684   */\n      tag_142\n      jumpi\n        /* \"#utility.yul\":680:681   */\n      0x00\n        /* \"#utility.yul\":677:678   */\n      dup1\n        /* \"#utility.yul\":670:682   */\n      revert\n        /* \"#utility.yul\":621:684   */\n    tag_142:\n        /* \"#utility.yul\":568:690   */\n      pop\n      jump\t// out\n        /* \"#utility.yul\":696:835   */\n    tag_104:\n        /* \"#utility.yul\":742:747   */\n      0x00\n        /* \"#utility.yul\":780:786   */\n      dup2\n        /* \"#utility.yul\":767:787   */\n      calldataload\n        /* \"#utility.yul\":758:787   */\n      swap1\n      pop\n        /* \"#utility.yul\":796:829   */\n      tag_144\n        /* \"#utility.yul\":823:828   */\n      dup2\n        /* \"#utility.yul\":796:829   */\n      tag_103\n      jump\t// in\n    tag_144:\n        /* \"#utility.yul\":696:835   */\n      swap3\n      swap2\n      pop\n      pop\n      jump\t// out\n        /* \"#utility.yul\":841:1170   */\n    tag_8:\n        /* \"#utility.yul\":900:906   */\n      0x00\n        /* \"#utility.yul\":949:951   */\n      0x20\n        /* \"#utility.yul\":937:946   */\n      dup3\n        /* \"#utility.yul\":928:935   */\n      dup5\n        /* \"#utility.yul\":924:947   */\n      sub\n        /* \"#utility.yul\":920:952   */\n      slt\n        /* \"#utility.yul\":917:1036   */\n      iszero\n      tag_146\n      jumpi\n        /* \"#utility.yul\":955:1034   */\n      tag_147\n      tag_99\n      jump\t// in\n    tag_147:\n        /* \"#utility.yul\":917:1036   */\n    tag_146:\n        /* \"#utility.yul\":1075:1076   */\n      0x00\n        /* \"#utility.yul\":1100:1153   */\n      tag_148\n        /* \"#utility.yul\":1145:1152   */\n      dup5\n        /* \"#utility.yul\":1136:1142   */\n      dup3\n        /* \"#utility.yul\":1125:1134   */\n      dup6\n        /* \"#utility.yul\":1121:1143   */\n      add\n        /* \"#utility.yul\":1100:1153   */\n      tag_104\n      jump\t// in\n    tag_148:\n        /* \"#utility.yul\":1090:1153   */\n      swap2\n      pop\n        /* \"#utility.yul\":1046:1163   */\n      pop\n        /* \"#utility.yul\":841:1170   */\n      swap3\n      swap2\n      pop\n      pop\n      jump\t// out\n        /* \"#utility.yul\":1176:1253   */\n    tag_105:\n        /* \"#utility.yul\":1213:1220   */\n      0x00\n        /* \"#utility.yul\":1242:1247   */\n      dup2\n        /* \"#utility.yul\":1231:1247   */\n      swap1\n      pop\n        /* \"#utility.yul\":1176:1253   */\n      swap2\n      swap1\n      pop\n      jump\t// out\n        /* \"#utility.yul\":1259:1381   */\n    tag_106:\n        /* \"#utility.yul\":1332:1356   */\n      tag_151\n        /* \"#utility.yul\":1350:1355   */\n      dup2\n        /* \"#utility.yul\":1332:1356   */\n      tag_105\n      jump\t// in\n    tag_151:\n        /* \"#utility.yul\":1325:1330   */\n      dup2\n        /* \"#utility.yul\":1322:1357   */\n      eq\n        /* \"#utility.yul\":1312:1375   */\n      tag_152\n      jumpi\n        /* \"#utility.yul\":1371:1372   */\n      0x00\n        /* \"#utility.yul\":1368:1369   */\n      dup1\n        /* \"#utility.yul\":1361:1373   */\n      revert\n        /* \"#utility.yul\":1312:1375   */\n    tag_152:\n        /* \"#utility.yul\":1259:1381   */\n      pop\n      jump\t// out\n        /* \"#utility.yul\":1387:1526   */\n    tag_107:\n        /* \"#utility.yul\":1433:1438   */\n      0x00\n        /* \"#utility.yul\":1471:1477   */\n      dup2\n        /* \"#utility.yul\":1458:1478   */\n      calldataload\n        /* \"#utility.yul\":1449:1478   */\n      swap1\n      pop\n        /* \"#utility.yul\":1487:1520   */\n      tag_154\n        /* \"#utility.yul\":1514:1519   */\n      dup2\n        /* \"#utility.yul\":1487:1520   */\n      tag_106\n      jump\t// in\n    tag_154:\n        /* \"#utility.yul\":1387:1526   */\n      swap3\n      swap2\n      pop\n      pop\n      jump\t// out\n        /* \"#utility.yul\":1532:1861   */\n    tag_12:\n        /* \"#utility.yul\":1591:1597   */\n      0x00\n        /* \"#utility.yul\":1640:1642   */\n      0x20\n        /* \"#utility.yul\":1628:1637   */\n      dup3\n        /* \"#utility.yul\":1619:1626   */\n      dup5\n        /* \"#utility.yul\":1615:1638   */\n      sub\n        /* \"#utility.yul\":1611:1643   */\n      slt\n        /* \"#utility.yul\":1608:1727   */\n      iszero\n      tag_156\n      jumpi\n        /* \"#utility.yul\":1646:1725   */\n      tag_157\n      tag_99\n      jump\t// in\n    tag_157:\n        /* \"#utility.yul\":1608:1727   */\n    tag_156:\n        /* \"#utility.yul\":1766:1767   */\n      0x00\n        /* \"#utility.yul\":1791:1844   */\n      tag_158\n        /* \"#utility.yul\":1836:1843   */\n      dup5\n        /* \"#utility.yul\":1827:1833   */\n      dup3\n        /* \"#utility.yul\":1816:1825   */\n      dup6\n        /* \"#utility.yul\":1812:1834   */\n      add\n        /* \"#utility.yul\":1791:1844   */\n      tag_107\n      jump\t// in\n    tag_158:\n        /* \"#utility.yul\":1781:1844   */\n      swap2\n      pop\n        /* \"#utility.yul\":1737:1854   */\n      pop\n        /* \"#utility.yul\":1532:1861   */\n      swap3\n      swap2\n      pop\n      pop\n      jump\t// out\n        /* \"#utility.yul\":1867:1985   */\n    tag_108:\n        /* \"#utility.yul\":1954:1978   */\n      tag_160\n        /* \"#utility.yul\":1972:1977   */\n      dup2\n        /* \"#utility.yul\":1954:1978   */\n      tag_102\n      jump\t// in\n    tag_160:\n        /* \"#utility.yul\":1949:1952   */\n      dup3\n        /* \"#utility.yul\":1942:1979   */\n      mstore\n        /* \"#utility.yul\":1867:1985   */\n      pop\n      pop\n      jump\t// out\n        /* \"#utility.yul\":1991:2213   */\n    tag_18:\n        /* \"#utility.yul\":2084:2088   */\n      0x00\n        /* \"#utility.yul\":2122:2124   */\n      0x20\n        /* \"#utility.yul\":2111:2120   */\n      dup3\n        /* \"#utility.yul\":2107:2125   */\n      add\n        /* \"#utility.yul\":2099:2125   */\n      swap1\n      pop\n        /* \"#utility.yul\":2135:2206   */\n      tag_162\n        /* \"#utility.yul\":2203:2204   */\n      0x00\n        /* \"#utility.yul\":2192:2201   */\n      dup4\n        /* \"#utility.yul\":2188:2205   */\n      add\n        /* \"#utility.yul\":2179:2185   */\n      dup5\n        /* \"#utility.yul\":2135:2206   */\n      tag_108\n      jump\t// in\n    tag_162:\n        /* \"#utility.yul\":1991:2213   */\n      swap3\n      swap2\n      pop\n      pop\n      jump\t// out\n        /* \"#utility.yul\":2219:2362   */\n    tag_109:\n        /* \"#utility.yul\":2276:2281   */\n      0x00\n        /* \"#utility.yul\":2307:2313   */\n      dup2\n        /* \"#utility.yul\":2301:2314   */\n      mload\n        /* \"#utility.yul\":2292:2314   */\n      swap1\n      pop\n        /* \"#utility.yul\":2323:2356   */\n      tag_164\n        /* \"#utility.yul\":2350:2355   */\n      dup2\n        /* \"#utility.yul\":2323:2356   */\n      tag_103\n      jump\t// in\n    tag_164:\n        /* \"#utility.yul\":2219:2362   */\n      swap3\n      swap2\n      pop\n      pop\n      jump\t// out\n        /* \"#utility.yul\":2368:2719   */\n    tag_23:\n        /* \"#utility.yul\":2438:2444   */\n      0x00\n        /* \"#utility.yul\":2487:2489   */\n      0x20\n        /* \"#utility.yul\":2475:2484   */\n      dup3\n        /* \"#utility.yul\":2466:2473   */\n      dup5\n        /* \"#utility.yul\":2462:2485   */\n      sub\n        /* \"#utility.yul\":2458:2490   */\n      slt\n        /* \"#utility.yul\":2455:2574   */\n      iszero\n      tag_166\n      jumpi\n        /* \"#utility.yul\":2493:2572   */\n      tag_167\n      tag_99\n      jump\t// in\n    tag_167:\n        /* \"#utility.yul\":2455:2574   */\n    tag_166:\n        /* \"#utility.yul\":2613:2614   */\n      0x00\n        /* \"#utility.yul\":2638:2702   */\n      tag_168\n        /* \"#utility.yul\":2694:2701   */\n      dup5\n        /* \"#utility.yul\":2685:2691   */\n      dup3\n        /* \"#utility.yul\":2674:2683   */\n      dup6\n        /* \"#utility.yul\":2670:2692   */\n      add\n        /* \"#utility.yul\":2638:2702   */\n      tag_109\n      jump\t// in\n    tag_168:\n        /* \"#utility.yul\":2628:2702   */\n      swap2\n      pop\n        /* \"#utility.yul\":2584:2712   */\n      pop\n        /* \"#utility.yul\":2368:2719   */\n      swap3\n      swap2\n      pop\n      pop\n      jump\t// out\n        /* \"#utility.yul\":2725:2894   */\n    tag_110:\n        /* \"#utility.yul\":2809:2820   */\n      0x00\n        /* \"#utility.yul\":2843:2849   */\n      dup3\n        /* \"#utility.yul\":2838:2841   */\n      dup3\n        /* \"#utility.yul\":2831:2850   */\n      mstore\n        /* \"#utility.yul\":2883:2887   */\n      0x20\n        /* \"#utility.yul\":2878:2881   */\n      dup3\n        /* \"#utility.yul\":2874:2888   */\n      add\n        /* \"#utility.yul\":2859:2888   */\n      swap1\n      pop\n        /* \"#utility.yul\":2725:2894   */\n      swap3\n      swap2\n      pop\n      pop\n      jump\t// out\n        /* \"#utility.yul\":2900:3124   */\n    tag_111:\n        /* \"#utility.yul\":3040:3074   */\n      0x4f6e6c7920746865206f776e65722063616e2063616c6c20746869732066756e\n        /* \"#utility.yul\":3036:3037   */\n      0x00\n        /* \"#utility.yul\":3028:3034   */\n      dup3\n        /* \"#utility.yul\":3024:3038   */\n      add\n        /* \"#utility.yul\":3017:3075   */\n      mstore\n        /* \"#utility.yul\":3109:3116   */\n      0x6374696f6e000000000000000000000000000000000000000000000000000000\n        /* \"#utility.yul\":3104:3106   */\n      0x20\n        /* \"#utility.yul\":3096:3102   */\n      dup3\n        /* \"#utility.yul\":3092:3107   */\n      add\n        /* \"#utility.yul\":3085:3117   */\n      mstore\n        /* \"#utility.yul\":2900:3124   */\n      pop\n      jump\t// out\n        /* \"#utility.yul\":3130:3496   */\n    tag_112:\n        /* \"#utility.yul\":3272:3275   */\n      0x00\n        /* \"#utility.yul\":3293:3360   */\n      tag_172\n        /* \"#utility.yul\":3357:3359   */\n      0x25\n        /* \"#utility.yul\":3352:3355   */\n      dup4\n        /* \"#utility.yul\":3293:3360   */\n      tag_110\n      jump\t// in\n    tag_172:\n        /* \"#utility.yul\":3286:3360   */\n      swap2\n      pop\n        /* \"#utility.yul\":3369:3462   */\n      tag_173\n        /* \"#utility.yul\":3458:3461   */\n      dup3\n        /* \"#utility.yul\":3369:3462   */\n      tag_111\n      jump\t// in\n    tag_173:\n        /* \"#utility.yul\":3487:3489   */\n      0x40\n        /* \"#utility.yul\":3482:3485   */\n      dup3\n        /* \"#utility.yul\":3478:3490   */\n      add\n        /* \"#utility.yul\":3471:3490   */\n      swap1\n      pop\n        /* \"#utility.yul\":3130:3496   */\n      swap2\n      swap1\n      pop\n      jump\t// out\n        /* \"#utility.yul\":3502:3921   */\n    tag_26:\n        /* \"#utility.yul\":3668:3672   */\n      0x00\n        /* \"#utility.yul\":3706:3708   */\n      0x20\n        /* \"#utility.yul\":3695:3704   */\n      dup3\n        /* \"#utility.yul\":3691:3709   */\n      add\n        /* \"#utility.yul\":3683:3709   */\n      swap1\n      pop\n        /* \"#utility.yul\":3755:3764   */\n      dup2\n        /* \"#utility.yul\":3749:3753   */\n      dup2\n        /* \"#utility.yul\":3745:3765   */\n      sub\n        /* \"#utility.yul\":3741:3742   */\n      0x00\n        /* \"#utility.yul\":3730:3739   */\n      dup4\n        /* \"#utility.yul\":3726:3743   */\n      add\n        /* \"#utility.yul\":3719:3766   */\n      mstore\n        /* \"#utility.yul\":3783:3914   */\n      tag_175\n        /* \"#utility.yul\":3909:3913   */\n      dup2\n        /* \"#utility.yul\":3783:3914   */\n      tag_112\n      jump\t// in\n    tag_175:\n        /* \"#utility.yul\":3775:3914   */\n      swap1\n      pop\n        /* \"#utility.yul\":3502:3921   */\n      swap2\n      swap1\n      pop\n      jump\t// out\n        /* \"#utility.yul\":3927:4098   */\n    tag_113:\n        /* \"#utility.yul\":4067:4090   */\n      0x496e76616c696420746f6b656e20616464726573730000000000000000000000\n        /* \"#utility.yul\":4063:4064   */\n      0x00\n        /* \"#utility.yul\":4055:4061   */\n      dup3\n        /* \"#utility.yul\":4051:4065   */\n      add\n        /* \"#utility.yul\":4044:4091   */\n      mstore\n        /* \"#utility.yul\":3927:4098   */\n      pop\n      jump\t// out\n        /* \"#utility.yul\":4104:4470   */\n    tag_114:\n        /* \"#utility.yul\":4246:4249   */\n      0x00\n        /* \"#utility.yul\":4267:4334   */\n      tag_178\n        /* \"#utility.yul\":4331:4333   */\n      0x15\n        /* \"#utility.yul\":4326:4329   */\n      dup4\n        /* \"#utility.yul\":4267:4334   */\n      tag_110\n      jump\t// in\n    tag_178:\n        /* \"#utility.yul\":4260:4334   */\n      swap2\n      pop\n        /* \"#utility.yul\":4343:4436   */\n      tag_179\n        /* \"#utility.yul\":4432:4435   */\n      dup3\n        /* \"#utility.yul\":4343:4436   */\n      tag_113\n      jump\t// in\n    tag_179:\n        /* \"#utility.yul\":4461:4463   */\n      0x20\n        /* \"#utility.yul\":4456:4459   */\n      dup3\n        /* \"#utility.yul\":4452:4464   */\n      add\n        /* \"#utility.yul\":4445:4464   */\n      swap1\n      pop\n        /* \"#utility.yul\":4104:4470   */\n      swap2\n      swap1\n      pop\n      jump\t// out\n        /* \"#utility.yul\":4476:4895   */\n    tag_30:\n        /* \"#utility.yul\":4642:4646   */\n      0x00\n        /* \"#utility.yul\":4680:4682   */\n      0x20\n        /* \"#utility.yul\":4669:4678   */\n      dup3\n        /* \"#utility.yul\":4665:4683   */\n      add\n        /* \"#utility.yul\":4657:4683   */\n      swap1\n      pop\n        /* \"#utility.yul\":4729:4738   */\n      dup2\n        /* \"#utility.yul\":4723:4727   */\n      dup2\n        /* \"#utility.yul\":4719:4739   */\n      sub\n        /* \"#utility.yul\":4715:4716   */\n      0x00\n        /* \"#utility.yul\":4704:4713   */\n      dup4\n        /* \"#utility.yul\":4700:4717   */\n      add\n        /* \"#utility.yul\":4693:4740   */\n      mstore\n        /* \"#utility.yul\":4757:4888   */\n      tag_181\n        /* \"#utility.yul\":4883:4887   */\n      dup2\n        /* \"#utility.yul\":4757:4888   */\n      tag_114\n      jump\t// in\n    tag_181:\n        /* \"#utility.yul\":4749:4888   */\n      swap1\n      pop\n        /* \"#utility.yul\":4476:4895   */\n      swap2\n      swap1\n      pop\n      jump\t// out\n        /* \"#utility.yul\":4901:5044   */\n    tag_115:\n        /* \"#utility.yul\":4958:4963   */\n      0x00\n        /* \"#utility.yul\":4989:4995   */\n      dup2\n        /* \"#utility.yul\":4983:4996   */\n      mload\n        /* \"#utility.yul\":4974:4996   */\n      swap1\n      pop\n        /* \"#utility.yul\":5005:5038   */\n      tag_183\n        /* \"#utility.yul\":5032:5037   */\n      dup2\n        /* \"#utility.yul\":5005:5038   */\n      tag_106\n      jump\t// in\n    tag_183:\n        /* \"#utility.yul\":4901:5044   */\n      swap3\n      swap2\n      pop\n      pop\n      jump\t// out\n        /* \"#utility.yul\":5050:5401   */\n    tag_36:\n        /* \"#utility.yul\":5120:5126   */\n      0x00\n        /* \"#utility.yul\":5169:5171   */\n      0x20\n        /* \"#utility.yul\":5157:5166   */\n      dup3\n        /* \"#utility.yul\":5148:5155   */\n      dup5\n        /* \"#utility.yul\":5144:5167   */\n      sub\n        /* \"#utility.yul\":5140:5172   */\n      slt\n        /* \"#utility.yul\":5137:5256   */\n      iszero\n      tag_185\n      jumpi\n        /* \"#utility.yul\":5175:5254   */\n      tag_186\n      tag_99\n      jump\t// in\n    tag_186:\n        /* \"#utility.yul\":5137:5256   */\n    tag_185:\n        /* \"#utility.yul\":5295:5296   */\n      0x00\n        /* \"#utility.yul\":5320:5384   */\n      tag_187\n        /* \"#utility.yul\":5376:5383   */\n      dup5\n        /* \"#utility.yul\":5367:5373   */\n      dup3\n        /* \"#utility.yul\":5356:5365   */\n      dup6\n        /* \"#utility.yul\":5352:5374   */\n      add\n        /* \"#utility.yul\":5320:5384   */\n      tag_115\n      jump\t// in\n    tag_187:\n        /* \"#utility.yul\":5310:5384   */\n      swap2\n      pop\n        /* \"#utility.yul\":5266:5394   */\n      pop\n        /* \"#utility.yul\":5050:5401   */\n      swap3\n      swap2\n      pop\n      pop\n      jump\t// out\n        /* \"#utility.yul\":5407:5579   */\n    tag_116:\n        /* \"#utility.yul\":5547:5571   */\n      0x496e76616c696420746f6b656e20636f6e747261637400000000000000000000\n        /* \"#utility.yul\":5543:5544   */\n      0x00\n        /* \"#utility.yul\":5535:5541   */\n      dup3\n        /* \"#utility.yul\":5531:5545   */\n      add\n        /* \"#utility.yul\":5524:5572   */\n      mstore\n        /* \"#utility.yul\":5407:5579   */\n      pop\n      jump\t// out\n        /* \"#utility.yul\":5585:5951   */\n    tag_117:\n        /* \"#utility.yul\":5727:5730   */\n      0x00\n        /* \"#utility.yul\":5748:5815   */\n      tag_190\n        /* \"#utility.yul\":5812:5814   */\n      0x16\n        /* \"#utility.yul\":5807:5810   */\n      dup4\n        /* \"#utility.yul\":5748:5815   */\n      tag_110\n      jump\t// in\n    tag_190:\n        /* \"#utility.yul\":5741:5815   */\n      swap2\n      pop\n        /* \"#utility.yul\":5824:5917   */\n      tag_191\n        /* \"#utility.yul\":5913:5916   */\n      dup3\n        /* \"#utility.yul\":5824:5917   */\n      tag_116\n      jump\t// in\n    tag_191:\n        /* \"#utility.yul\":5942:5944   */\n      0x20\n        /* \"#utility.yul\":5937:5940   */\n      dup3\n        /* \"#utility.yul\":5933:5945   */\n      add\n        /* \"#utility.yul\":5926:5945   */\n      swap1\n      pop\n        /* \"#utility.yul\":5585:5951   */\n      swap2\n      swap1\n      pop\n      jump\t// out\n        /* \"#utility.yul\":5957:6376   */\n    tag_39:\n        /* \"#utility.yul\":6123:6127   */\n      0x00\n        /* \"#utility.yul\":6161:6163   */\n      0x20\n        /* \"#utility.yul\":6150:6159   */\n      dup3\n        /* \"#utility.yul\":6146:6164   */\n      add\n        /* \"#utility.yul\":6138:6164   */\n      swap1\n      pop\n        /* \"#utility.yul\":6210:6219   */\n      dup2\n        /* \"#utility.yul\":6204:6208   */\n      dup2\n        /* \"#utility.yul\":6200:6220   */\n      sub\n        /* \"#utility.yul\":6196:6197   */\n      0x00\n        /* \"#utility.yul\":6185:6194   */\n      dup4\n        /* \"#utility.yul\":6181:6198   */\n      add\n        /* \"#utility.yul\":6174:6221   */\n      mstore\n        /* \"#utility.yul\":6238:6369   */\n      tag_193\n        /* \"#utility.yul\":6364:6368   */\n      dup2\n        /* \"#utility.yul\":6238:6369   */\n      tag_117\n      jump\t// in\n    tag_193:\n        /* \"#utility.yul\":6230:6369   */\n      swap1\n      pop\n        /* \"#utility.yul\":5957:6376   */\n      swap2\n      swap1\n      pop\n      jump\t// out\n        /* \"#utility.yul\":6382:6562   */\n    tag_118:\n        /* \"#utility.yul\":6430:6507   */\n      0x4e487b7100000000000000000000000000000000000000000000000000000000\n        /* \"#utility.yul\":6427:6428   */\n      0x00\n        /* \"#utility.yul\":6420:6508   */\n      mstore\n        /* \"#utility.yul\":6527:6531   */\n      0x11\n        /* \"#utility.yul\":6524:6525   */\n      0x04\n        /* \"#utility.yul\":6517:6532   */\n      mstore\n        /* \"#utility.yul\":6551:6555   */\n      0x24\n        /* \"#utility.yul\":6548:6549   */\n      0x00\n        /* \"#utility.yul\":6541:6556   */\n      revert\n        /* \"#utility.yul\":6568:6762   */\n    tag_50:\n        /* \"#utility.yul\":6608:6612   */\n      0x00\n        /* \"#utility.yul\":6628:6648   */\n      tag_196\n        /* \"#utility.yul\":6646:6647   */\n      dup3\n        /* \"#utility.yul\":6628:6648   */\n      tag_105\n      jump\t// in\n    tag_196:\n        /* \"#utility.yul\":6623:6648   */\n      swap2\n      pop\n        /* \"#utility.yul\":6662:6682   */\n      tag_197\n        /* \"#utility.yul\":6680:6681   */\n      dup4\n        /* \"#utility.yul\":6662:6682   */\n      tag_105\n      jump\t// in\n    tag_197:\n        /* \"#utility.yul\":6657:6682   */\n      swap3\n      pop\n        /* \"#utility.yul\":6706:6707   */\n      dup3\n        /* \"#utility.yul\":6703:6704   */\n      dup3\n        /* \"#utility.yul\":6699:6708   */\n      sub\n        /* \"#utility.yul\":6691:6708   */\n      swap1\n      pop\n        /* \"#utility.yul\":6730:6731   */\n      dup2\n        /* \"#utility.yul\":6724:6728   */\n      dup2\n        /* \"#utility.yul\":6721:6732   */\n      gt\n        /* \"#utility.yul\":6718:6755   */\n      iszero\n      tag_198\n      jumpi\n        /* \"#utility.yul\":6735:6753   */\n      tag_199\n      tag_118\n      jump\t// in\n    tag_199:\n        /* \"#utility.yul\":6718:6755   */\n    tag_198:\n        /* \"#utility.yul\":6568:6762   */\n      swap3\n      swap2\n      pop\n      pop\n      jump\t// out\n        /* \"#utility.yul\":6768:6940   */\n    tag_119:\n        /* \"#utility.yul\":6908:6932   */\n      0x496e76616c6964206c6f7474657279206e756d62657200000000000000000000\n        /* \"#utility.yul\":6904:6905   */\n      0x00\n        /* \"#utility.yul\":6896:6902   */\n      dup3\n        /* \"#utility.yul\":6892:6906   */\n      add\n        /* \"#utility.yul\":6885:6933   */\n      mstore\n        /* \"#utility.yul\":6768:6940   */\n      pop\n      jump\t// out\n        /* \"#utility.yul\":6946:7312   */\n    tag_120:\n        /* \"#utility.yul\":7088:7091   */\n      0x00\n        /* \"#utility.yul\":7109:7176   */\n      tag_202\n        /* \"#utility.yul\":7173:7175   */\n      0x16\n        /* \"#utility.yul\":7168:7171   */\n      dup4\n        /* \"#utility.yul\":7109:7176   */\n      tag_110\n      jump\t// in\n    tag_202:\n        /* \"#utility.yul\":7102:7176   */\n      swap2\n      pop\n        /* \"#utility.yul\":7185:7278   */\n      tag_203\n        /* \"#utility.yul\":7274:7277   */\n      dup3\n        /* \"#utility.yul\":7185:7278   */\n      tag_119\n      jump\t// in\n    tag_203:\n        /* \"#utility.yul\":7303:7305   */\n      0x20\n        /* \"#utility.yul\":7298:7301   */\n      dup3\n        /* \"#utility.yul\":7294:7306   */\n      add\n        /* \"#utility.yul\":7287:7306   */\n      swap1\n      pop\n        /* \"#utility.yul\":6946:7312   */\n      swap2\n      swap1\n      pop\n      jump\t// out\n        /* \"#utility.yul\":7318:7737   */\n    tag_53:\n        /* \"#utility.yul\":7484:7488   */\n      0x00\n        /* \"#utility.yul\":7522:7524   */\n      0x20\n        /* \"#utility.yul\":7511:7520   */\n      dup3\n        /* \"#utility.yul\":7507:7525   */\n      add\n        /* \"#utility.yul\":7499:7525   */\n      swap1\n      pop\n        /* \"#utility.yul\":7571:7580   */\n      dup2\n        /* \"#utility.yul\":7565:7569   */\n      dup2\n        /* \"#utility.yul\":7561:7581   */\n      sub\n        /* \"#utility.yul\":7557:7558   */\n      0x00\n        /* \"#utility.yul\":7546:7555   */\n      dup4\n        /* \"#utility.yul\":7542:7559   */\n      add\n        /* \"#utility.yul\":7535:7582   */\n      mstore\n        /* \"#utility.yul\":7599:7730   */\n      tag_205\n        /* \"#utility.yul\":7725:7729   */\n      dup2\n        /* \"#utility.yul\":7599:7730   */\n      tag_120\n      jump\t// in\n    tag_205:\n        /* \"#utility.yul\":7591:7730   */\n      swap1\n      pop\n        /* \"#utility.yul\":7318:7737   */\n      swap2\n      swap1\n      pop\n      jump\t// out\n        /* \"#utility.yul\":7743:7923   */\n    tag_59:\n        /* \"#utility.yul\":7791:7868   */\n      0x4e487b7100000000000000000000000000000000000000000000000000000000\n        /* \"#utility.yul\":7788:7789   */\n      0x00\n        /* \"#utility.yul\":7781:7869   */\n      mstore\n        /* \"#utility.yul\":7888:7892   */\n      0x21\n        /* \"#utility.yul\":7885:7886   */\n      0x04\n        /* \"#utility.yul\":7878:7893   */\n      mstore\n        /* \"#utility.yul\":7912:7916   */\n      0x24\n        /* \"#utility.yul\":7909:7910   */\n      0x00\n        /* \"#utility.yul\":7902:7917   */\n      revert\n        /* \"#utility.yul\":7929:8109   */\n    tag_121:\n        /* \"#utility.yul\":8069:8101   */\n      0x4c6f747465727920686173206e6f74206265656e20636f6d706c657465640000\n        /* \"#utility.yul\":8065:8066   */\n      0x00\n        /* \"#utility.yul\":8057:8063   */\n      dup3\n        /* \"#utility.yul\":8053:8067   */\n      add\n        /* \"#utility.yul\":8046:8102   */\n      mstore\n        /* \"#utility.yul\":7929:8109   */\n      pop\n      jump\t// out\n        /* \"#utility.yul\":8115:8481   */\n    tag_122:\n        /* \"#utility.yul\":8257:8260   */\n      0x00\n        /* \"#utility.yul\":8278:8345   */\n      tag_209\n        /* \"#utility.yul\":8342:8344   */\n      0x1e\n        /* \"#utility.yul\":8337:8340   */\n      dup4\n        /* \"#utility.yul\":8278:8345   */\n      tag_110\n      jump\t// in\n    tag_209:\n        /* \"#utility.yul\":8271:8345   */\n      swap2\n      pop\n        /* \"#utility.yul\":8354:8447   */\n      tag_210\n        /* \"#utility.yul\":8443:8446   */\n      dup3\n        /* \"#utility.yul\":8354:8447   */\n      tag_121\n      jump\t// in\n    tag_210:\n        /* \"#utility.yul\":8472:8474   */\n      0x20\n        /* \"#utility.yul\":8467:8470   */\n      dup3\n        /* \"#utility.yul\":8463:8475   */\n      add\n        /* \"#utility.yul\":8456:8475   */\n      swap1\n      pop\n        /* \"#utility.yul\":8115:8481   */\n      swap2\n      swap1\n      pop\n      jump\t// out\n        /* \"#utility.yul\":8487:8906   */\n    tag_64:\n        /* \"#utility.yul\":8653:8657   */\n      0x00\n        /* \"#utility.yul\":8691:8693   */\n      0x20\n        /* \"#utility.yul\":8680:8689   */\n      dup3\n        /* \"#utility.yul\":8676:8694   */\n      add\n        /* \"#utility.yul\":8668:8694   */\n      swap1\n      pop\n        /* \"#utility.yul\":8740:8749   */\n      dup2\n        /* \"#utility.yul\":8734:8738   */\n      dup2\n        /* \"#utility.yul\":8730:8750   */\n      sub\n        /* \"#utility.yul\":8726:8727   */\n      0x00\n        /* \"#utility.yul\":8715:8724   */\n      dup4\n        /* \"#utility.yul\":8711:8728   */\n      add\n        /* \"#utility.yul\":8704:8751   */\n      mstore\n        /* \"#utility.yul\":8768:8899   */\n      tag_212\n        /* \"#utility.yul\":8894:8898   */\n      dup2\n        /* \"#utility.yul\":8768:8899   */\n      tag_122\n      jump\t// in\n    tag_212:\n        /* \"#utility.yul\":8760:8899   */\n      swap1\n      pop\n        /* \"#utility.yul\":8487:8906   */\n      swap2\n      swap1\n      pop\n      jump\t// out\n        /* \"#utility.yul\":8912:9077   */\n    tag_123:\n        /* \"#utility.yul\":9052:9069   */\n      0x4e6f207469636b65747320736f6c640000000000000000000000000000000000\n        /* \"#utility.yul\":9048:9049   */\n      0x00\n        /* \"#utility.yul\":9040:9046   */\n      dup3\n        /* \"#utility.yul\":9036:9050   */\n      add\n        /* \"#utility.yul\":9029:9070   */\n      mstore\n        /* \"#utility.yul\":8912:9077   */\n      pop\n      jump\t// out\n        /* \"#utility.yul\":9083:9449   */\n    tag_124:\n        /* \"#utility.yul\":9225:9228   */\n      0x00\n        /* \"#utility.yul\":9246:9313   */\n      tag_215\n        /* \"#utility.yul\":9310:9312   */\n      0x0f\n        /* \"#utility.yul\":9305:9308   */\n      dup4\n        /* \"#utility.yul\":9246:9313   */\n      tag_110\n      jump\t// in\n    tag_215:\n        /* \"#utility.yul\":9239:9313   */\n      swap2\n      pop\n        /* \"#utility.yul\":9322:9415   */\n      tag_216\n        /* \"#utility.yul\":9411:9414   */\n      dup3\n        /* \"#utility.yul\":9322:9415   */\n      tag_123\n      jump\t// in\n    tag_216:\n        /* \"#utility.yul\":9440:9442   */\n      0x20\n        /* \"#utility.yul\":9435:9438   */\n      dup3\n        /* \"#utility.yul\":9431:9443   */\n      add\n        /* \"#utility.yul\":9424:9443   */\n      swap1\n      pop\n        /* \"#utility.yul\":9083:9449   */\n      swap2\n      swap1\n      pop\n      jump\t// out\n        /* \"#utility.yul\":9455:9874   */\n    tag_67:\n        /* \"#utility.yul\":9621:9625   */\n      0x00\n        /* \"#utility.yul\":9659:9661   */\n      0x20\n        /* \"#utility.yul\":9648:9657   */\n      dup3\n        /* \"#utility.yul\":9644:9662   */\n      add\n        /* \"#utility.yul\":9636:9662   */\n      swap1\n      pop\n        /* \"#utility.yul\":9708:9717   */\n      dup2\n        /* \"#utility.yul\":9702:9706   */\n      dup2\n        /* \"#utility.yul\":9698:9718   */\n      sub\n        /* \"#utility.yul\":9694:9695   */\n      0x00\n        /* \"#utility.yul\":9683:9692   */\n      dup4\n        /* \"#utility.yul\":9679:9696   */\n      add\n        /* \"#utility.yul\":9672:9719   */\n      mstore\n        /* \"#utility.yul\":9736:9867   */\n      tag_218\n        /* \"#utility.yul\":9862:9866   */\n      dup2\n        /* \"#utility.yul\":9736:9867   */\n      tag_124\n      jump\t// in\n    tag_218:\n        /* \"#utility.yul\":9728:9867   */\n      swap1\n      pop\n        /* \"#utility.yul\":9455:9874   */\n      swap2\n      swap1\n      pop\n      jump\t// out\n        /* \"#utility.yul\":9880:10290   */\n    tag_69:\n        /* \"#utility.yul\":9920:9927   */\n      0x00\n        /* \"#utility.yul\":9943:9963   */\n      tag_220\n        /* \"#utility.yul\":9961:9962   */\n      dup3\n        /* \"#utility.yul\":9943:9963   */\n      tag_105\n      jump\t// in\n    tag_220:\n        /* \"#utility.yul\":9938:9963   */\n      swap2\n      pop\n        /* \"#utility.yul\":9977:9997   */\n      tag_221\n        /* \"#utility.yul\":9995:9996   */\n      dup4\n        /* \"#utility.yul\":9977:9997   */\n      tag_105\n      jump\t// in\n    tag_221:\n        /* \"#utility.yul\":9972:9997   */\n      swap3\n      pop\n        /* \"#utility.yul\":10032:10033   */\n      dup3\n        /* \"#utility.yul\":10029:10030   */\n      dup3\n        /* \"#utility.yul\":10025:10034   */\n      mul\n        /* \"#utility.yul\":10054:10084   */\n      tag_222\n        /* \"#utility.yul\":10072:10083   */\n      dup2\n        /* \"#utility.yul\":10054:10084   */\n      tag_105\n      jump\t// in\n    tag_222:\n        /* \"#utility.yul\":10043:10084   */\n      swap2\n      pop\n        /* \"#utility.yul\":10233:10234   */\n      dup3\n        /* \"#utility.yul\":10224:10231   */\n      dup3\n        /* \"#utility.yul\":10220:10235   */\n      div\n        /* \"#utility.yul\":10217:10218   */\n      dup5\n        /* \"#utility.yul\":10214:10236   */\n      eq\n        /* \"#utility.yul\":10194:10195   */\n      dup4\n        /* \"#utility.yul\":10187:10196   */\n      iszero\n        /* \"#utility.yul\":10167:10250   */\n      or\n        /* \"#utility.yul\":10144:10283   */\n      tag_223\n      jumpi\n        /* \"#utility.yul\":10263:10281   */\n      tag_224\n      tag_118\n      jump\t// in\n    tag_224:\n        /* \"#utility.yul\":10144:10283   */\n    tag_223:\n        /* \"#utility.yul\":9928:10290   */\n      pop\n        /* \"#utility.yul\":9880:10290   */\n      swap3\n      swap2\n      pop\n      pop\n      jump\t// out\n        /* \"#utility.yul\":10296:10464   */\n    tag_125:\n        /* \"#utility.yul\":10436:10456   */\n      0x496e73756666696369656e742066756e64730000000000000000000000000000\n        /* \"#utility.yul\":10432:10433   */\n      0x00\n        /* \"#utility.yul\":10424:10430   */\n      dup3\n        /* \"#utility.yul\":10420:10434   */\n      add\n        /* \"#utility.yul\":10413:10457   */\n      mstore\n        /* \"#utility.yul\":10296:10464   */\n      pop\n      jump\t// out\n        /* \"#utility.yul\":10470:10836   */\n    tag_126:\n        /* \"#utility.yul\":10612:10615   */\n      0x00\n        /* \"#utility.yul\":10633:10700   */\n      tag_227\n        /* \"#utility.yul\":10697:10699   */\n      0x12\n        /* \"#utility.yul\":10692:10695   */\n      dup4\n        /* \"#utility.yul\":10633:10700   */\n      tag_110\n      jump\t// in\n    tag_227:\n        /* \"#utility.yul\":10626:10700   */\n      swap2\n      pop\n        /* \"#utility.yul\":10709:10802   */\n      tag_228\n        /* \"#utility.yul\":10798:10801   */\n      dup3\n        /* \"#utility.yul\":10709:10802   */\n      tag_125\n      jump\t// in\n    tag_228:\n        /* \"#utility.yul\":10827:10829   */\n      0x20\n        /* \"#utility.yul\":10822:10825   */\n      dup3\n        /* \"#utility.yul\":10818:10830   */\n      add\n        /* \"#utility.yul\":10811:10830   */\n      swap1\n      pop\n        /* \"#utility.yul\":10470:10836   */\n      swap2\n      swap1\n      pop\n      jump\t// out\n        /* \"#utility.yul\":10842:11261   */\n    tag_76:\n        /* \"#utility.yul\":11008:11012   */\n      0x00\n        /* \"#utility.yul\":11046:11048   */\n      0x20\n        /* \"#utility.yul\":11035:11044   */\n      dup3\n        /* \"#utility.yul\":11031:11049   */\n      add\n        /* \"#utility.yul\":11023:11049   */\n      swap1\n      pop\n        /* \"#utility.yul\":11095:11104   */\n      dup2\n        /* \"#utility.yul\":11089:11093   */\n      dup2\n        /* \"#utility.yul\":11085:11105   */\n      sub\n        /* \"#utility.yul\":11081:11082   */\n      0x00\n        /* \"#utility.yul\":11070:11079   */\n      dup4\n        /* \"#utility.yul\":11066:11083   */\n      add\n        /* \"#utility.yul\":11059:11106   */\n      mstore\n        /* \"#utility.yul\":11123:11254   */\n      tag_230\n        /* \"#utility.yul\":11249:11253   */\n      dup2\n        /* \"#utility.yul\":11123:11254   */\n      tag_126\n      jump\t// in\n    tag_230:\n        /* \"#utility.yul\":11115:11254   */\n      swap1\n      pop\n        /* \"#utility.yul\":10842:11261   */\n      swap2\n      swap1\n      pop\n      jump\t// out\n        /* \"#utility.yul\":11267:11385   */\n    tag_127:\n        /* \"#utility.yul\":11354:11378   */\n      tag_232\n        /* \"#utility.yul\":11372:11377   */\n      dup2\n        /* \"#utility.yul\":11354:11378   */\n      tag_105\n      jump\t// in\n    tag_232:\n        /* \"#utility.yul\":11349:11352   */\n      dup3\n        /* \"#utility.yul\":11342:11379   */\n      mstore\n        /* \"#utility.yul\":11267:11385   */\n      pop\n      pop\n      jump\t// out\n        /* \"#utility.yul\":11391:11723   */\n    tag_81:\n        /* \"#utility.yul\":11512:11516   */\n      0x00\n        /* \"#utility.yul\":11550:11552   */\n      0x40\n        /* \"#utility.yul\":11539:11548   */\n      dup3\n        /* \"#utility.yul\":11535:11553   */\n      add\n        /* \"#utility.yul\":11527:11553   */\n      swap1\n      pop\n        /* \"#utility.yul\":11563:11634   */\n      tag_234\n        /* \"#utility.yul\":11631:11632   */\n      0x00\n        /* \"#utility.yul\":11620:11629   */\n      dup4\n        /* \"#utility.yul\":11616:11633   */\n      add\n        /* \"#utility.yul\":11607:11613   */\n      dup6\n        /* \"#utility.yul\":11563:11634   */\n      tag_108\n      jump\t// in\n    tag_234:\n        /* \"#utility.yul\":11644:11716   */\n      tag_235\n        /* \"#utility.yul\":11712:11714   */\n      0x20\n        /* \"#utility.yul\":11701:11710   */\n      dup4\n        /* \"#utility.yul\":11697:11715   */\n      add\n        /* \"#utility.yul\":11688:11694   */\n      dup5\n        /* \"#utility.yul\":11644:11716   */\n      tag_127\n      jump\t// in\n    tag_235:\n        /* \"#utility.yul\":11391:11723   */\n      swap4\n      swap3\n      pop\n      pop\n      pop\n      jump\t// out\n        /* \"#utility.yul\":11729:11819   */\n    tag_128:\n        /* \"#utility.yul\":11763:11770   */\n      0x00\n        /* \"#utility.yul\":11806:11811   */\n      dup2\n        /* \"#utility.yul\":11799:11812   */\n      iszero\n        /* \"#utility.yul\":11792:11813   */\n      iszero\n        /* \"#utility.yul\":11781:11813   */\n      swap1\n      pop\n        /* \"#utility.yul\":11729:11819   */\n      swap2\n      swap1\n      pop\n      jump\t// out\n        /* \"#utility.yul\":11825:11941   */\n    tag_129:\n        /* \"#utility.yul\":11895:11916   */\n      tag_238\n        /* \"#utility.yul\":11910:11915   */\n      dup2\n        /* \"#utility.yul\":11895:11916   */\n      tag_128\n      jump\t// in\n    tag_238:\n        /* \"#utility.yul\":11888:11893   */\n      dup2\n        /* \"#utility.yul\":11885:11917   */\n      eq\n        /* \"#utility.yul\":11875:11935   */\n      tag_239\n      jumpi\n        /* \"#utility.yul\":11931:11932   */\n      0x00\n        /* \"#utility.yul\":11928:11929   */\n      dup1\n        /* \"#utility.yul\":11921:11933   */\n      revert\n        /* \"#utility.yul\":11875:11935   */\n    tag_239:\n        /* \"#utility.yul\":11825:11941   */\n      pop\n      jump\t// out\n        /* \"#utility.yul\":11947:12084   */\n    tag_130:\n        /* \"#utility.yul\":12001:12006   */\n      0x00\n        /* \"#utility.yul\":12032:12038   */\n      dup2\n        /* \"#utility.yul\":12026:12039   */\n      mload\n        /* \"#utility.yul\":12017:12039   */\n      swap1\n      pop\n        /* \"#utility.yul\":12048:12078   */\n      tag_241\n        /* \"#utility.yul\":12072:12077   */\n      dup2\n        /* \"#utility.yul\":12048:12078   */\n      tag_129\n      jump\t// in\n    tag_241:\n        /* \"#utility.yul\":11947:12084   */\n      swap3\n      swap2\n      pop\n      pop\n      jump\t// out\n        /* \"#utility.yul\":12090:12435   */\n    tag_85:\n        /* \"#utility.yul\":12157:12163   */\n      0x00\n        /* \"#utility.yul\":12206:12208   */\n      0x20\n        /* \"#utility.yul\":12194:12203   */\n      dup3\n        /* \"#utility.yul\":12185:12192   */\n      dup5\n        /* \"#utility.yul\":12181:12204   */\n      sub\n        /* \"#utility.yul\":12177:12209   */\n      slt\n        /* \"#utility.yul\":12174:12293   */\n      iszero\n      tag_243\n      jumpi\n        /* \"#utility.yul\":12212:12291   */\n      tag_244\n      tag_99\n      jump\t// in\n    tag_244:\n        /* \"#utility.yul\":12174:12293   */\n    tag_243:\n        /* \"#utility.yul\":12332:12333   */\n      0x00\n        /* \"#utility.yul\":12357:12418   */\n      tag_245\n        /* \"#utility.yul\":12410:12417   */\n      dup5\n        /* \"#utility.yul\":12401:12407   */\n      dup3\n        /* \"#utility.yul\":12390:12399   */\n      dup6\n        /* \"#utility.yul\":12386:12408   */\n      add\n        /* \"#utility.yul\":12357:12418   */\n      tag_130\n      jump\t// in\n    tag_245:\n        /* \"#utility.yul\":12347:12418   */\n      swap2\n      pop\n        /* \"#utility.yul\":12303:12428   */\n      pop\n        /* \"#utility.yul\":12090:12435   */\n      swap3\n      swap2\n      pop\n      pop\n      jump\t// out\n        /* \"#utility.yul\":12441:12606   */\n    tag_131:\n        /* \"#utility.yul\":12581:12598   */\n      0x5472616e73666572206661696c65640000000000000000000000000000000000\n        /* \"#utility.yul\":12577:12578   */\n      0x00\n        /* \"#utility.yul\":12569:12575   */\n      dup3\n        /* \"#utility.yul\":12565:12579   */\n      add\n        /* \"#utility.yul\":12558:12599   */\n      mstore\n        /* \"#utility.yul\":12441:12606   */\n      pop\n      jump\t// out\n        /* \"#utility.yul\":12612:12978   */\n    tag_132:\n        /* \"#utility.yul\":12754:12757   */\n      0x00\n        /* \"#utility.yul\":12775:12842   */\n      tag_248\n        /* \"#utility.yul\":12839:12841   */\n      0x0f\n        /* \"#utility.yul\":12834:12837   */\n      dup4\n        /* \"#utility.yul\":12775:12842   */\n      tag_110\n      jump\t// in\n    tag_248:\n        /* \"#utility.yul\":12768:12842   */\n      swap2\n      pop\n        /* \"#utility.yul\":12851:12944   */\n      tag_249\n        /* \"#utility.yul\":12940:12943   */\n      dup3\n        /* \"#utility.yul\":12851:12944   */\n      tag_131\n      jump\t// in\n    tag_249:\n        /* \"#utility.yul\":12969:12971   */\n      0x20\n        /* \"#utility.yul\":12964:12967   */\n      dup3\n        /* \"#utility.yul\":12960:12972   */\n      add\n        /* \"#utility.yul\":12953:12972   */\n      swap1\n      pop\n        /* \"#utility.yul\":12612:12978   */\n      swap2\n      swap1\n      pop\n      jump\t// out\n        /* \"#utility.yul\":12984:13403   */\n    tag_88:\n        /* \"#utility.yul\":13150:13154   */\n      0x00\n        /* \"#utility.yul\":13188:13190   */\n      0x20\n        /* \"#utility.yul\":13177:13186   */\n      dup3\n        /* \"#utility.yul\":13173:13191   */\n      add\n        /* \"#utility.yul\":13165:13191   */\n      swap1\n      pop\n        /* \"#utility.yul\":13237:13246   */\n      dup2\n        /* \"#utility.yul\":13231:13235   */\n      dup2\n        /* \"#utility.yul\":13227:13247   */\n      sub\n        /* \"#utility.yul\":13223:13224   */\n      0x00\n        /* \"#utility.yul\":13212:13221   */\n      dup4\n        /* \"#utility.yul\":13208:13225   */\n      add\n        /* \"#utility.yul\":13201:13248   */\n      mstore\n        /* \"#utility.yul\":13265:13396   */\n      tag_251\n        /* \"#utility.yul\":13391:13395   */\n      dup2\n        /* \"#utility.yul\":13265:13396   */\n      tag_132\n      jump\t// in\n    tag_251:\n        /* \"#utility.yul\":13257:13396   */\n      swap1\n      pop\n        /* \"#utility.yul\":12984:13403   */\n      swap2\n      swap1\n      pop\n      jump\t// out\n\n    auxdata: 0xa26469706673582212209f7184bf5b31b25b3e1d82632f293b7d99b09aeb60071de54a19abfbb011a39064736f6c634300081a0033\n}\n",
				"bytecode": {
					"linkReferences": {},
					"object": "6080604052348015600e575f80fd5b50610ec38061001c5f395ff3fe608060405234801561000f575f80fd5b506004361061003f575f3560e01c80636a326ab114610043578063ad943d1e1461005f578063cdc2aebf1461007b575b5f80fd5b61005d60048036038101906100589190610884565b6100ab565b005b610079600480360381019061007491906108e2565b6102f7565b005b610095600480360381019061009091906108e2565b610756565b6040516100a2919061091c565b60405180910390f35b3073ffffffffffffffffffffffffffffffffffffffff1663893d20e86040518163ffffffff1660e01b8152600401602060405180830381865afa1580156100f4573d5f803e3d5ffd5b505050506040513d601f19601f820116820180604052508101906101189190610949565b73ffffffffffffffffffffffffffffffffffffffff163373ffffffffffffffffffffffffffffffffffffffff1614610185576040517f08c379a000000000000000000000000000000000000000000000000000000000815260040161017c906109f4565b60405180910390fd5b5f73ffffffffffffffffffffffffffffffffffffffff168173ffffffffffffffffffffffffffffffffffffffff16036101f3576040517f08c379a00000000000000000000000000000000000000000000000000000000081526004016101ea90610a5c565b60405180910390fd5b5f6101fc6107fa565b90505f8290505f8173ffffffffffffffffffffffffffffffffffffffff166318160ddd6040518163ffffffff1660e01b8152600401602060405180830381865afa15801561024c573d5f803e3d5ffd5b505050506040513d601f19601f820116820180604052508101906102709190610a8e565b116102b0576040517f08c379a00000000000000000000000000000000000000000000000000000000081526004016102a790610b03565b60405180910390fd5b80826004015f6101000a81548173ffffffffffffffffffffffffffffffffffffffff021916908373ffffffffffffffffffffffffffffffffffffffff160217905550505050565b3073ffffffffffffffffffffffffffffffffffffffff1663893d20e86040518163ffffffff1660e01b8152600401602060405180830381865afa158015610340573d5f803e3d5ffd5b505050506040513d601f19601f820116820180604052508101906103649190610949565b73ffffffffffffffffffffffffffffffffffffffff163373ffffffffffffffffffffffffffffffffffffffff16146103d1576040517f08c379a00000000000000000000000000000000000000000000000000000000081526004016103c8906109f4565b60405180910390fd5b805f6103db6107fa565b90505f821180156103fc575080600301546001836103f99190610b4e565b11155b61043b576040517f08c379a000000000000000000000000000000000000000000000000000000000815260040161043290610bcb565b60405180910390fd5b5f6104446107fa565b90505f816001015f6001876104599190610b4e565b81526020019081526020015f2090506002600381111561047c5761047b610be9565b5b816008015f9054906101000a900460ff16600381111561049f5761049e610be9565b5b146104df576040517f08c379a00000000000000000000000000000000000000000000000000000000081526004016104d690610c60565b60405180910390fd5b5f816009015411610525576040517f08c379a000000000000000000000000000000000000000000000000000000000815260040161051c90610cc8565b60405180910390fd5b5f8160040154826009015461053a9190610ce6565b90505f836004015f9054906101000a900473ffffffffffffffffffffffffffffffffffffffff1690505f8173ffffffffffffffffffffffffffffffffffffffff166370a08231306040518263ffffffff1660e01b815260040161059d919061091c565b602060405180830381865afa1580156105b8573d5f803e3d5ffd5b505050506040513d601f19601f820116820180604052508101906105dc9190610a8e565b905082811015610621576040517f08c379a000000000000000000000000000000000000000000000000000000000815260040161061890610d71565b60405180910390fd5b5f3073ffffffffffffffffffffffffffffffffffffffff1663893d20e86040518163ffffffff1660e01b8152600401602060405180830381865afa15801561066b573d5f803e3d5ffd5b505050506040513d601f19601f8201168201806040525081019061068f9190610949565b90508273ffffffffffffffffffffffffffffffffffffffff1663a9059cbb82866040518363ffffffff1660e01b81526004016106cc929190610d9e565b6020604051808303815f875af11580156106e8573d5f803e3d5ffd5b505050506040513d601f19601f8201168201806040525081019061070c9190610dfa565b61074b576040517f08c379a000000000000000000000000000000000000000000000000000000000815260040161074290610e6f565b60405180910390fd5b505050505050505050565b5f815f6107616107fa565b90505f821180156107825750806003015460018361077f9190610b4e565b11155b6107c1576040517f08c379a00000000000000000000000000000000000000000000000000000000081526004016107b890610bcb565b60405180910390fd5b5f6107ca6107fa565b9050806004015f9054906101000a900473ffffffffffffffffffffffffffffffffffffffff169350505050919050565b5f807f755d7b3c7227e1f30e6cde2e9db88bc1d20ae16efd7e1368f3c80b4bf3d6e53a90508091505090565b5f80fd5b5f73ffffffffffffffffffffffffffffffffffffffff82169050919050565b5f6108538261082a565b9050919050565b61086381610849565b811461086d575f80fd5b50565b5f8135905061087e8161085a565b92915050565b5f6020828403121561089957610898610826565b5b5f6108a684828501610870565b91505092915050565b5f819050919050565b6108c1816108af565b81146108cb575f80fd5b50565b5f813590506108dc816108b8565b92915050565b5f602082840312156108f7576108f6610826565b5b5f610904848285016108ce565b91505092915050565b61091681610849565b82525050565b5f60208201905061092f5f83018461090d565b92915050565b5f815190506109438161085a565b92915050565b5f6020828403121561095e5761095d610826565b5b5f61096b84828501610935565b91505092915050565b5f82825260208201905092915050565b7f4f6e6c7920746865206f776e65722063616e2063616c6c20746869732066756e5f8201527f6374696f6e000000000000000000000000000000000000000000000000000000602082015250565b5f6109de602583610974565b91506109e982610984565b604082019050919050565b5f6020820190508181035f830152610a0b816109d2565b9050919050565b7f496e76616c696420746f6b656e206164647265737300000000000000000000005f82015250565b5f610a46601583610974565b9150610a5182610a12565b602082019050919050565b5f6020820190508181035f830152610a7381610a3a565b9050919050565b5f81519050610a88816108b8565b92915050565b5f60208284031215610aa357610aa2610826565b5b5f610ab084828501610a7a565b91505092915050565b7f496e76616c696420746f6b656e20636f6e7472616374000000000000000000005f82015250565b5f610aed601683610974565b9150610af882610ab9565b602082019050919050565b5f6020820190508181035f830152610b1a81610ae1565b9050919050565b7f4e487b71000000000000000000000000000000000000000000000000000000005f52601160045260245ffd5b5f610b58826108af565b9150610b63836108af565b9250828203905081811115610b7b57610b7a610b21565b5b92915050565b7f496e76616c6964206c6f7474657279206e756d626572000000000000000000005f82015250565b5f610bb5601683610974565b9150610bc082610b81565b602082019050919050565b5f6020820190508181035f830152610be281610ba9565b9050919050565b7f4e487b71000000000000000000000000000000000000000000000000000000005f52602160045260245ffd5b7f4c6f747465727920686173206e6f74206265656e20636f6d706c6574656400005f82015250565b5f610c4a601e83610974565b9150610c5582610c16565b602082019050919050565b5f6020820190508181035f830152610c7781610c3e565b9050919050565b7f4e6f207469636b65747320736f6c6400000000000000000000000000000000005f82015250565b5f610cb2600f83610974565b9150610cbd82610c7e565b602082019050919050565b5f6020820190508181035f830152610cdf81610ca6565b9050919050565b5f610cf0826108af565b9150610cfb836108af565b9250828202610d09816108af565b91508282048414831517610d2057610d1f610b21565b5b5092915050565b7f496e73756666696369656e742066756e647300000000000000000000000000005f82015250565b5f610d5b601283610974565b9150610d6682610d27565b602082019050919050565b5f6020820190508181035f830152610d8881610d4f565b9050919050565b610d98816108af565b82525050565b5f604082019050610db15f83018561090d565b610dbe6020830184610d8f565b9392505050565b5f8115159050919050565b610dd981610dc5565b8114610de3575f80fd5b50565b5f81519050610df481610dd0565b92915050565b5f60208284031215610e0f57610e0e610826565b5b5f610e1c84828501610de6565b91505092915050565b7f5472616e73666572206661696c656400000000000000000000000000000000005f82015250565b5f610e59600f83610974565b9150610e6482610e25565b602082019050919050565b5f6020820190508181035f830152610e8681610e4d565b905091905056fea26469706673582212209f7184bf5b31b25b3e1d82632f293b7d99b09aeb60071de54a19abfbb011a39064736f6c634300081a0033",
					"opcodes": "PUSH1 0x80 PUSH1 0x40 MSTORE CALLVALUE DUP1 ISZERO PUSH1 0xE JUMPI PUSH0 DUP1 REVERT JUMPDEST POP PUSH2 0xEC3 DUP1 PUSH2 0x1C PUSH0 CODECOPY PUSH0 RETURN INVALID PUSH1 0x80 PUSH1 0x40 MSTORE CALLVALUE DUP1 ISZERO PUSH2 0xF JUMPI PUSH0 DUP1 REVERT JUMPDEST POP PUSH1 0x4 CALLDATASIZE LT PUSH2 0x3F JUMPI PUSH0 CALLDATALOAD PUSH1 0xE0 SHR DUP1 PUSH4 0x6A326AB1 EQ PUSH2 0x43 JUMPI DUP1 PUSH4 0xAD943D1E EQ PUSH2 0x5F JUMPI DUP1 PUSH4 0xCDC2AEBF EQ PUSH2 0x7B JUMPI JUMPDEST PUSH0 DUP1 REVERT JUMPDEST PUSH2 0x5D PUSH1 0x4 DUP1 CALLDATASIZE SUB DUP2 ADD SWAP1 PUSH2 0x58 SWAP2 SWAP1 PUSH2 0x884 JUMP JUMPDEST PUSH2 0xAB JUMP JUMPDEST STOP JUMPDEST PUSH2 0x79 PUSH1 0x4 DUP1 CALLDATASIZE SUB DUP2 ADD SWAP1 PUSH2 0x74 SWAP2 SWAP1 PUSH2 0x8E2 JUMP JUMPDEST PUSH2 0x2F7 JUMP JUMPDEST STOP JUMPDEST PUSH2 0x95 PUSH1 0x4 DUP1 CALLDATASIZE SUB DUP2 ADD SWAP1 PUSH2 0x90 SWAP2 SWAP1 PUSH2 0x8E2 JUMP JUMPDEST PUSH2 0x756 JUMP JUMPDEST PUSH1 0x40 MLOAD PUSH2 0xA2 SWAP2 SWAP1 PUSH2 0x91C JUMP JUMPDEST PUSH1 0x40 MLOAD DUP1 SWAP2 SUB SWAP1 RETURN JUMPDEST ADDRESS PUSH20 0xFFFFFFFFFFFFFFFFFFFFFFFFFFFFFFFFFFFFFFFF AND PUSH4 0x893D20E8 PUSH1 0x40 MLOAD DUP2 PUSH4 0xFFFFFFFF AND PUSH1 0xE0 SHL DUP2 MSTORE PUSH1 0x4 ADD PUSH1 0x20 PUSH1 0x40 MLOAD DUP1 DUP4 SUB DUP2 DUP7 GAS STATICCALL ISZERO DUP1 ISZERO PUSH2 0xF4 JUMPI RETURNDATASIZE PUSH0 DUP1 RETURNDATACOPY RETURNDATASIZE PUSH0 REVERT JUMPDEST POP POP POP POP PUSH1 0x40 MLOAD RETURNDATASIZE PUSH1 0x1F NOT PUSH1 0x1F DUP3 ADD AND DUP3 ADD DUP1 PUSH1 0x40 MSTORE POP DUP2 ADD SWAP1 PUSH2 0x118 SWAP2 SWAP1 PUSH2 0x949 JUMP JUMPDEST PUSH20 0xFFFFFFFFFFFFFFFFFFFFFFFFFFFFFFFFFFFFFFFF AND CALLER PUSH20 0xFFFFFFFFFFFFFFFFFFFFFFFFFFFFFFFFFFFFFFFF AND EQ PUSH2 0x185 JUMPI PUSH1 0x40 MLOAD PUSH32 0x8C379A000000000000000000000000000000000000000000000000000000000 DUP2 MSTORE PUSH1 0x4 ADD PUSH2 0x17C SWAP1 PUSH2 0x9F4 JUMP JUMPDEST PUSH1 0x40 MLOAD DUP1 SWAP2 SUB SWAP1 REVERT JUMPDEST PUSH0 PUSH20 0xFFFFFFFFFFFFFFFFFFFFFFFFFFFFFFFFFFFFFFFF AND DUP2 PUSH20 0xFFFFFFFFFFFFFFFFFFFFFFFFFFFFFFFFFFFFFFFF AND SUB PUSH2 0x1F3 JUMPI PUSH1 0x40 MLOAD PUSH32 0x8C379A000000000000000000000000000000000000000000000000000000000 DUP2 MSTORE PUSH1 0x4 ADD PUSH2 0x1EA SWAP1 PUSH2 0xA5C JUMP JUMPDEST PUSH1 0x40 MLOAD DUP1 SWAP2 SUB SWAP1 REVERT JUMPDEST PUSH0 PUSH2 0x1FC PUSH2 0x7FA JUMP JUMPDEST SWAP1 POP PUSH0 DUP3 SWAP1 POP PUSH0 DUP2 PUSH20 0xFFFFFFFFFFFFFFFFFFFFFFFFFFFFFFFFFFFFFFFF AND PUSH4 0x18160DDD PUSH1 0x40 MLOAD DUP2 PUSH4 0xFFFFFFFF AND PUSH1 0xE0 SHL DUP2 MSTORE PUSH1 0x4 ADD PUSH1 0x20 PUSH1 0x40 MLOAD DUP1 DUP4 SUB DUP2 DUP7 GAS STATICCALL ISZERO DUP1 ISZERO PUSH2 0x24C JUMPI RETURNDATASIZE PUSH0 DUP1 RETURNDATACOPY RETURNDATASIZE PUSH0 REVERT JUMPDEST POP POP POP POP PUSH1 0x40 MLOAD RETURNDATASIZE PUSH1 0x1F NOT PUSH1 0x1F DUP3 ADD AND DUP3 ADD DUP1 PUSH1 0x40 MSTORE POP DUP2 ADD SWAP1 PUSH2 0x270 SWAP2 SWAP1 PUSH2 0xA8E JUMP JUMPDEST GT PUSH2 0x2B0 JUMPI PUSH1 0x40 MLOAD PUSH32 0x8C379A000000000000000000000000000000000000000000000000000000000 DUP2 MSTORE PUSH1 0x4 ADD PUSH2 0x2A7 SWAP1 PUSH2 0xB03 JUMP JUMPDEST PUSH1 0x40 MLOAD DUP1 SWAP2 SUB SWAP1 REVERT JUMPDEST DUP1 DUP3 PUSH1 0x4 ADD PUSH0 PUSH2 0x100 EXP DUP2 SLOAD DUP2 PUSH20 0xFFFFFFFFFFFFFFFFFFFFFFFFFFFFFFFFFFFFFFFF MUL NOT AND SWAP1 DUP4 PUSH20 0xFFFFFFFFFFFFFFFFFFFFFFFFFFFFFFFFFFFFFFFF AND MUL OR SWAP1 SSTORE POP POP POP POP JUMP JUMPDEST ADDRESS PUSH20 0xFFFFFFFFFFFFFFFFFFFFFFFFFFFFFFFFFFFFFFFF AND PUSH4 0x893D20E8 PUSH1 0x40 MLOAD DUP2 PUSH4 0xFFFFFFFF AND PUSH1 0xE0 SHL DUP2 MSTORE PUSH1 0x4 ADD PUSH1 0x20 PUSH1 0x40 MLOAD DUP1 DUP4 SUB DUP2 DUP7 GAS STATICCALL ISZERO DUP1 ISZERO PUSH2 0x340 JUMPI RETURNDATASIZE PUSH0 DUP1 RETURNDATACOPY RETURNDATASIZE PUSH0 REVERT JUMPDEST POP POP POP POP PUSH1 0x40 MLOAD RETURNDATASIZE PUSH1 0x1F NOT PUSH1 0x1F DUP3 ADD AND DUP3 ADD DUP1 PUSH1 0x40 MSTORE POP DUP2 ADD SWAP1 PUSH2 0x364 SWAP2 SWAP1 PUSH2 0x949 JUMP JUMPDEST PUSH20 0xFFFFFFFFFFFFFFFFFFFFFFFFFFFFFFFFFFFFFFFF AND CALLER PUSH20 0xFFFFFFFFFFFFFFFFFFFFFFFFFFFFFFFFFFFFFFFF AND EQ PUSH2 0x3D1 JUMPI PUSH1 0x40 MLOAD PUSH32 0x8C379A000000000000000000000000000000000000000000000000000000000 DUP2 MSTORE PUSH1 0x4 ADD PUSH2 0x3C8 SWAP1 PUSH2 0x9F4 JUMP JUMPDEST PUSH1 0x40 MLOAD DUP1 SWAP2 SUB SWAP1 REVERT JUMPDEST DUP1 PUSH0 PUSH2 0x3DB PUSH2 0x7FA JUMP JUMPDEST SWAP1 POP PUSH0 DUP3 GT DUP1 ISZERO PUSH2 0x3FC JUMPI POP DUP1 PUSH1 0x3 ADD SLOAD PUSH1 0x1 DUP4 PUSH2 0x3F9 SWAP2 SWAP1 PUSH2 0xB4E JUMP JUMPDEST GT ISZERO JUMPDEST PUSH2 0x43B JUMPI PUSH1 0x40 MLOAD PUSH32 0x8C379A000000000000000000000000000000000000000000000000000000000 DUP2 MSTORE PUSH1 0x4 ADD PUSH2 0x432 SWAP1 PUSH2 0xBCB JUMP JUMPDEST PUSH1 0x40 MLOAD DUP1 SWAP2 SUB SWAP1 REVERT JUMPDEST PUSH0 PUSH2 0x444 PUSH2 0x7FA JUMP JUMPDEST SWAP1 POP PUSH0 DUP2 PUSH1 0x1 ADD PUSH0 PUSH1 0x1 DUP8 PUSH2 0x459 SWAP2 SWAP1 PUSH2 0xB4E JUMP JUMPDEST DUP2 MSTORE PUSH1 0x20 ADD SWAP1 DUP2 MSTORE PUSH1 0x20 ADD PUSH0 KECCAK256 SWAP1 POP PUSH1 0x2 PUSH1 0x3 DUP2 GT ISZERO PUSH2 0x47C JUMPI PUSH2 0x47B PUSH2 0xBE9 JUMP JUMPDEST JUMPDEST DUP2 PUSH1 0x8 ADD PUSH0 SWAP1 SLOAD SWAP1 PUSH2 0x100 EXP SWAP1 DIV PUSH1 0xFF AND PUSH1 0x3 DUP2 GT ISZERO PUSH2 0x49F JUMPI PUSH2 0x49E PUSH2 0xBE9 JUMP JUMPDEST JUMPDEST EQ PUSH2 0x4DF JUMPI PUSH1 0x40 MLOAD PUSH32 0x8C379A000000000000000000000000000000000000000000000000000000000 DUP2 MSTORE PUSH1 0x4 ADD PUSH2 0x4D6 SWAP1 PUSH2 0xC60 JUMP JUMPDEST PUSH1 0x40 MLOAD DUP1 SWAP2 SUB SWAP1 REVERT JUMPDEST PUSH0 DUP2 PUSH1 0x9 ADD SLOAD GT PUSH2 0x525 JUMPI PUSH1 0x40 MLOAD PUSH32 0x8C379A000000000000000000000000000000000000000000000000000000000 DUP2 MSTORE PUSH1 0x4 ADD PUSH2 0x51C SWAP1 PUSH2 0xCC8 JUMP JUMPDEST PUSH1 0x40 MLOAD DUP1 SWAP2 SUB SWAP1 REVERT JUMPDEST PUSH0 DUP2 PUSH1 0x4 ADD SLOAD DUP3 PUSH1 0x9 ADD SLOAD PUSH2 0x53A SWAP2 SWAP1 PUSH2 0xCE6 JUMP JUMPDEST SWAP1 POP PUSH0 DUP4 PUSH1 0x4 ADD PUSH0 SWAP1 SLOAD SWAP1 PUSH2 0x100 EXP SWAP1 DIV PUSH20 0xFFFFFFFFFFFFFFFFFFFFFFFFFFFFFFFFFFFFFFFF AND SWAP1 POP PUSH0 DUP2 PUSH20 0xFFFFFFFFFFFFFFFFFFFFFFFFFFFFFFFFFFFFFFFF AND PUSH4 0x70A08231 ADDRESS PUSH1 0x40 MLOAD DUP3 PUSH4 0xFFFFFFFF AND PUSH1 0xE0 SHL DUP2 MSTORE PUSH1 0x4 ADD PUSH2 0x59D SWAP2 SWAP1 PUSH2 0x91C JUMP JUMPDEST PUSH1 0x20 PUSH1 0x40 MLOAD DUP1 DUP4 SUB DUP2 DUP7 GAS STATICCALL ISZERO DUP1 ISZERO PUSH2 0x5B8 JUMPI RETURNDATASIZE PUSH0 DUP1 RETURNDATACOPY RETURNDATASIZE PUSH0 REVERT JUMPDEST POP POP POP POP PUSH1 0x40 MLOAD RETURNDATASIZE PUSH1 0x1F NOT PUSH1 0x1F DUP3 ADD AND DUP3 ADD DUP1 PUSH1 0x40 MSTORE POP DUP2 ADD SWAP1 PUSH2 0x5DC SWAP2 SWAP1 PUSH2 0xA8E JUMP JUMPDEST SWAP1 POP DUP3 DUP2 LT ISZERO PUSH2 0x621 JUMPI PUSH1 0x40 MLOAD PUSH32 0x8C379A000000000000000000000000000000000000000000000000000000000 DUP2 MSTORE PUSH1 0x4 ADD PUSH2 0x618 SWAP1 PUSH2 0xD71 JUMP JUMPDEST PUSH1 0x40 MLOAD DUP1 SWAP2 SUB SWAP1 REVERT JUMPDEST PUSH0 ADDRESS PUSH20 0xFFFFFFFFFFFFFFFFFFFFFFFFFFFFFFFFFFFFFFFF AND PUSH4 0x893D20E8 PUSH1 0x40 MLOAD DUP2 PUSH4 0xFFFFFFFF AND PUSH1 0xE0 SHL DUP2 MSTORE PUSH1 0x4 ADD PUSH1 0x20 PUSH1 0x40 MLOAD DUP1 DUP4 SUB DUP2 DUP7 GAS STATICCALL ISZERO DUP1 ISZERO PUSH2 0x66B JUMPI RETURNDATASIZE PUSH0 DUP1 RETURNDATACOPY RETURNDATASIZE PUSH0 REVERT JUMPDEST POP POP POP POP PUSH1 0x40 MLOAD RETURNDATASIZE PUSH1 0x1F NOT PUSH1 0x1F DUP3 ADD AND DUP3 ADD DUP1 PUSH1 0x40 MSTORE POP DUP2 ADD SWAP1 PUSH2 0x68F SWAP2 SWAP1 PUSH2 0x949 JUMP JUMPDEST SWAP1 POP DUP3 PUSH20 0xFFFFFFFFFFFFFFFFFFFFFFFFFFFFFFFFFFFFFFFF AND PUSH4 0xA9059CBB DUP3 DUP7 PUSH1 0x40 MLOAD DUP4 PUSH4 0xFFFFFFFF AND PUSH1 0xE0 SHL DUP2 MSTORE PUSH1 0x4 ADD PUSH2 0x6CC SWAP3 SWAP2 SWAP1 PUSH2 0xD9E JUMP JUMPDEST PUSH1 0x20 PUSH1 0x40 MLOAD DUP1 DUP4 SUB DUP2 PUSH0 DUP8 GAS CALL ISZERO DUP1 ISZERO PUSH2 0x6E8 JUMPI RETURNDATASIZE PUSH0 DUP1 RETURNDATACOPY RETURNDATASIZE PUSH0 REVERT JUMPDEST POP POP POP POP PUSH1 0x40 MLOAD RETURNDATASIZE PUSH1 0x1F NOT PUSH1 0x1F DUP3 ADD AND DUP3 ADD DUP1 PUSH1 0x40 MSTORE POP DUP2 ADD SWAP1 PUSH2 0x70C SWAP2 SWAP1 PUSH2 0xDFA JUMP JUMPDEST PUSH2 0x74B JUMPI PUSH1 0x40 MLOAD PUSH32 0x8C379A000000000000000000000000000000000000000000000000000000000 DUP2 MSTORE PUSH1 0x4 ADD PUSH2 0x742 SWAP1 PUSH2 0xE6F JUMP JUMPDEST PUSH1 0x40 MLOAD DUP1 SWAP2 SUB SWAP1 REVERT JUMPDEST POP POP POP POP POP POP POP POP POP JUMP JUMPDEST PUSH0 DUP2 PUSH0 PUSH2 0x761 PUSH2 0x7FA JUMP JUMPDEST SWAP1 POP PUSH0 DUP3 GT DUP1 ISZERO PUSH2 0x782 JUMPI POP DUP1 PUSH1 0x3 ADD SLOAD PUSH1 0x1 DUP4 PUSH2 0x77F SWAP2 SWAP1 PUSH2 0xB4E JUMP JUMPDEST GT ISZERO JUMPDEST PUSH2 0x7C1 JUMPI PUSH1 0x40 MLOAD PUSH32 0x8C379A000000000000000000000000000000000000000000000000000000000 DUP2 MSTORE PUSH1 0x4 ADD PUSH2 0x7B8 SWAP1 PUSH2 0xBCB JUMP JUMPDEST PUSH1 0x40 MLOAD DUP1 SWAP2 SUB SWAP1 REVERT JUMPDEST PUSH0 PUSH2 0x7CA PUSH2 0x7FA JUMP JUMPDEST SWAP1 POP DUP1 PUSH1 0x4 ADD PUSH0 SWAP1 SLOAD SWAP1 PUSH2 0x100 EXP SWAP1 DIV PUSH20 0xFFFFFFFFFFFFFFFFFFFFFFFFFFFFFFFFFFFFFFFF AND SWAP4 POP POP POP POP SWAP2 SWAP1 POP JUMP JUMPDEST PUSH0 DUP1 PUSH32 0x755D7B3C7227E1F30E6CDE2E9DB88BC1D20AE16EFD7E1368F3C80B4BF3D6E53A SWAP1 POP DUP1 SWAP2 POP POP SWAP1 JUMP JUMPDEST PUSH0 DUP1 REVERT JUMPDEST PUSH0 PUSH20 0xFFFFFFFFFFFFFFFFFFFFFFFFFFFFFFFFFFFFFFFF DUP3 AND SWAP1 POP SWAP2 SWAP1 POP JUMP JUMPDEST PUSH0 PUSH2 0x853 DUP3 PUSH2 0x82A JUMP JUMPDEST SWAP1 POP SWAP2 SWAP1 POP JUMP JUMPDEST PUSH2 0x863 DUP2 PUSH2 0x849 JUMP JUMPDEST DUP2 EQ PUSH2 0x86D JUMPI PUSH0 DUP1 REVERT JUMPDEST POP JUMP JUMPDEST PUSH0 DUP2 CALLDATALOAD SWAP1 POP PUSH2 0x87E DUP2 PUSH2 0x85A JUMP JUMPDEST SWAP3 SWAP2 POP POP JUMP JUMPDEST PUSH0 PUSH1 0x20 DUP3 DUP5 SUB SLT ISZERO PUSH2 0x899 JUMPI PUSH2 0x898 PUSH2 0x826 JUMP JUMPDEST JUMPDEST PUSH0 PUSH2 0x8A6 DUP5 DUP3 DUP6 ADD PUSH2 0x870 JUMP JUMPDEST SWAP2 POP POP SWAP3 SWAP2 POP POP JUMP JUMPDEST PUSH0 DUP2 SWAP1 POP SWAP2 SWAP1 POP JUMP JUMPDEST PUSH2 0x8C1 DUP2 PUSH2 0x8AF JUMP JUMPDEST DUP2 EQ PUSH2 0x8CB JUMPI PUSH0 DUP1 REVERT JUMPDEST POP JUMP JUMPDEST PUSH0 DUP2 CALLDATALOAD SWAP1 POP PUSH2 0x8DC DUP2 PUSH2 0x8B8 JUMP JUMPDEST SWAP3 SWAP2 POP POP JUMP JUMPDEST PUSH0 PUSH1 0x20 DUP3 DUP5 SUB SLT ISZERO PUSH2 0x8F7 JUMPI PUSH2 0x8F6 PUSH2 0x826 JUMP JUMPDEST JUMPDEST PUSH0 PUSH2 0x904 DUP5 DUP3 DUP6 ADD PUSH2 0x8CE JUMP JUMPDEST SWAP2 POP POP SWAP3 SWAP2 POP POP JUMP JUMPDEST PUSH2 0x916 DUP2 PUSH2 0x849 JUMP JUMPDEST DUP3 MSTORE POP POP JUMP JUMPDEST PUSH0 PUSH1 0x20 DUP3 ADD SWAP1 POP PUSH2 0x92F PUSH0 DUP4 ADD DUP5 PUSH2 0x90D JUMP JUMPDEST SWAP3 SWAP2 POP POP JUMP JUMPDEST PUSH0 DUP2 MLOAD SWAP1 POP PUSH2 0x943 DUP2 PUSH2 0x85A JUMP JUMPDEST SWAP3 SWAP2 POP POP JUMP JUMPDEST PUSH0 PUSH1 0x20 DUP3 DUP5 SUB SLT ISZERO PUSH2 0x95E JUMPI PUSH2 0x95D PUSH2 0x826 JUMP JUMPDEST JUMPDEST PUSH0 PUSH2 0x96B DUP5 DUP3 DUP6 ADD PUSH2 0x935 JUMP JUMPDEST SWAP2 POP POP SWAP3 SWAP2 POP POP JUMP JUMPDEST PUSH0 DUP3 DUP3 MSTORE PUSH1 0x20 DUP3 ADD SWAP1 POP SWAP3 SWAP2 POP POP JUMP JUMPDEST PUSH32 0x4F6E6C7920746865206F776E65722063616E2063616C6C20746869732066756E PUSH0 DUP3 ADD MSTORE PUSH32 0x6374696F6E000000000000000000000000000000000000000000000000000000 PUSH1 0x20 DUP3 ADD MSTORE POP JUMP JUMPDEST PUSH0 PUSH2 0x9DE PUSH1 0x25 DUP4 PUSH2 0x974 JUMP JUMPDEST SWAP2 POP PUSH2 0x9E9 DUP3 PUSH2 0x984 JUMP JUMPDEST PUSH1 0x40 DUP3 ADD SWAP1 POP SWAP2 SWAP1 POP JUMP JUMPDEST PUSH0 PUSH1 0x20 DUP3 ADD SWAP1 POP DUP2 DUP2 SUB PUSH0 DUP4 ADD MSTORE PUSH2 0xA0B DUP2 PUSH2 0x9D2 JUMP JUMPDEST SWAP1 POP SWAP2 SWAP1 POP JUMP JUMPDEST PUSH32 0x496E76616C696420746F6B656E20616464726573730000000000000000000000 PUSH0 DUP3 ADD MSTORE POP JUMP JUMPDEST PUSH0 PUSH2 0xA46 PUSH1 0x15 DUP4 PUSH2 0x974 JUMP JUMPDEST SWAP2 POP PUSH2 0xA51 DUP3 PUSH2 0xA12 JUMP JUMPDEST PUSH1 0x20 DUP3 ADD SWAP1 POP SWAP2 SWAP1 POP JUMP JUMPDEST PUSH0 PUSH1 0x20 DUP3 ADD SWAP1 POP DUP2 DUP2 SUB PUSH0 DUP4 ADD MSTORE PUSH2 0xA73 DUP2 PUSH2 0xA3A JUMP JUMPDEST SWAP1 POP SWAP2 SWAP1 POP JUMP JUMPDEST PUSH0 DUP2 MLOAD SWAP1 POP PUSH2 0xA88 DUP2 PUSH2 0x8B8 JUMP JUMPDEST SWAP3 SWAP2 POP POP JUMP JUMPDEST PUSH0 PUSH1 0x20 DUP3 DUP5 SUB SLT ISZERO PUSH2 0xAA3 JUMPI PUSH2 0xAA2 PUSH2 0x826 JUMP JUMPDEST JUMPDEST PUSH0 PUSH2 0xAB0 DUP5 DUP3 DUP6 ADD PUSH2 0xA7A JUMP JUMPDEST SWAP2 POP POP SWAP3 SWAP2 POP POP JUMP JUMPDEST PUSH32 0x496E76616C696420746F6B656E20636F6E747261637400000000000000000000 PUSH0 DUP3 ADD MSTORE POP JUMP JUMPDEST PUSH0 PUSH2 0xAED PUSH1 0x16 DUP4 PUSH2 0x974 JUMP JUMPDEST SWAP2 POP PUSH2 0xAF8 DUP3 PUSH2 0xAB9 JUMP JUMPDEST PUSH1 0x20 DUP3 ADD SWAP1 POP SWAP2 SWAP1 POP JUMP JUMPDEST PUSH0 PUSH1 0x20 DUP3 ADD SWAP1 POP DUP2 DUP2 SUB PUSH0 DUP4 ADD MSTORE PUSH2 0xB1A DUP2 PUSH2 0xAE1 JUMP JUMPDEST SWAP1 POP SWAP2 SWAP1 POP JUMP JUMPDEST PUSH32 0x4E487B7100000000000000000000000000000000000000000000000000000000 PUSH0 MSTORE PUSH1 0x11 PUSH1 0x4 MSTORE PUSH1 0x24 PUSH0 REVERT JUMPDEST PUSH0 PUSH2 0xB58 DUP3 PUSH2 0x8AF JUMP JUMPDEST SWAP2 POP PUSH2 0xB63 DUP4 PUSH2 0x8AF JUMP JUMPDEST SWAP3 POP DUP3 DUP3 SUB SWAP1 POP DUP2 DUP2 GT ISZERO PUSH2 0xB7B JUMPI PUSH2 0xB7A PUSH2 0xB21 JUMP JUMPDEST JUMPDEST SWAP3 SWAP2 POP POP JUMP JUMPDEST PUSH32 0x496E76616C6964206C6F7474657279206E756D62657200000000000000000000 PUSH0 DUP3 ADD MSTORE POP JUMP JUMPDEST PUSH0 PUSH2 0xBB5 PUSH1 0x16 DUP4 PUSH2 0x974 JUMP JUMPDEST SWAP2 POP PUSH2 0xBC0 DUP3 PUSH2 0xB81 JUMP JUMPDEST PUSH1 0x20 DUP3 ADD SWAP1 POP SWAP2 SWAP1 POP JUMP JUMPDEST PUSH0 PUSH1 0x20 DUP3 ADD SWAP1 POP DUP2 DUP2 SUB PUSH0 DUP4 ADD MSTORE PUSH2 0xBE2 DUP2 PUSH2 0xBA9 JUMP JUMPDEST SWAP1 POP SWAP2 SWAP1 POP JUMP JUMPDEST PUSH32 0x4E487B7100000000000000000000000000000000000000000000000000000000 PUSH0 MSTORE PUSH1 0x21 PUSH1 0x4 MSTORE PUSH1 0x24 PUSH0 REVERT JUMPDEST PUSH32 0x4C6F747465727920686173206E6F74206265656E20636F6D706C657465640000 PUSH0 DUP3 ADD MSTORE POP JUMP JUMPDEST PUSH0 PUSH2 0xC4A PUSH1 0x1E DUP4 PUSH2 0x974 JUMP JUMPDEST SWAP2 POP PUSH2 0xC55 DUP3 PUSH2 0xC16 JUMP JUMPDEST PUSH1 0x20 DUP3 ADD SWAP1 POP SWAP2 SWAP1 POP JUMP JUMPDEST PUSH0 PUSH1 0x20 DUP3 ADD SWAP1 POP DUP2 DUP2 SUB PUSH0 DUP4 ADD MSTORE PUSH2 0xC77 DUP2 PUSH2 0xC3E JUMP JUMPDEST SWAP1 POP SWAP2 SWAP1 POP JUMP JUMPDEST PUSH32 0x4E6F207469636B65747320736F6C640000000000000000000000000000000000 PUSH0 DUP3 ADD MSTORE POP JUMP JUMPDEST PUSH0 PUSH2 0xCB2 PUSH1 0xF DUP4 PUSH2 0x974 JUMP JUMPDEST SWAP2 POP PUSH2 0xCBD DUP3 PUSH2 0xC7E JUMP JUMPDEST PUSH1 0x20 DUP3 ADD SWAP1 POP SWAP2 SWAP1 POP JUMP JUMPDEST PUSH0 PUSH1 0x20 DUP3 ADD SWAP1 POP DUP2 DUP2 SUB PUSH0 DUP4 ADD MSTORE PUSH2 0xCDF DUP2 PUSH2 0xCA6 JUMP JUMPDEST SWAP1 POP SWAP2 SWAP1 POP JUMP JUMPDEST PUSH0 PUSH2 0xCF0 DUP3 PUSH2 0x8AF JUMP JUMPDEST SWAP2 POP PUSH2 0xCFB DUP4 PUSH2 0x8AF JUMP JUMPDEST SWAP3 POP DUP3 DUP3 MUL PUSH2 0xD09 DUP2 PUSH2 0x8AF JUMP JUMPDEST SWAP2 POP DUP3 DUP3 DIV DUP5 EQ DUP4 ISZERO OR PUSH2 0xD20 JUMPI PUSH2 0xD1F PUSH2 0xB21 JUMP JUMPDEST JUMPDEST POP SWAP3 SWAP2 POP POP JUMP JUMPDEST PUSH32 0x496E73756666696369656E742066756E64730000000000000000000000000000 PUSH0 DUP3 ADD MSTORE POP JUMP JUMPDEST PUSH0 PUSH2 0xD5B PUSH1 0x12 DUP4 PUSH2 0x974 JUMP JUMPDEST SWAP2 POP PUSH2 0xD66 DUP3 PUSH2 0xD27 JUMP JUMPDEST PUSH1 0x20 DUP3 ADD SWAP1 POP SWAP2 SWAP1 POP JUMP JUMPDEST PUSH0 PUSH1 0x20 DUP3 ADD SWAP1 POP DUP2 DUP2 SUB PUSH0 DUP4 ADD MSTORE PUSH2 0xD88 DUP2 PUSH2 0xD4F JUMP JUMPDEST SWAP1 POP SWAP2 SWAP1 POP JUMP JUMPDEST PUSH2 0xD98 DUP2 PUSH2 0x8AF JUMP JUMPDEST DUP3 MSTORE POP POP JUMP JUMPDEST PUSH0 PUSH1 0x40 DUP3 ADD SWAP1 POP PUSH2 0xDB1 PUSH0 DUP4 ADD DUP6 PUSH2 0x90D JUMP JUMPDEST PUSH2 0xDBE PUSH1 0x20 DUP4 ADD DUP5 PUSH2 0xD8F JUMP JUMPDEST SWAP4 SWAP3 POP POP POP JUMP JUMPDEST PUSH0 DUP2 ISZERO ISZERO SWAP1 POP SWAP2 SWAP1 POP JUMP JUMPDEST PUSH2 0xDD9 DUP2 PUSH2 0xDC5 JUMP JUMPDEST DUP2 EQ PUSH2 0xDE3 JUMPI PUSH0 DUP1 REVERT JUMPDEST POP JUMP JUMPDEST PUSH0 DUP2 MLOAD SWAP1 POP PUSH2 0xDF4 DUP2 PUSH2 0xDD0 JUMP JUMPDEST SWAP3 SWAP2 POP POP JUMP JUMPDEST PUSH0 PUSH1 0x20 DUP3 DUP5 SUB SLT ISZERO PUSH2 0xE0F JUMPI PUSH2 0xE0E PUSH2 0x826 JUMP JUMPDEST JUMPDEST PUSH0 PUSH2 0xE1C DUP5 DUP3 DUP6 ADD PUSH2 0xDE6 JUMP JUMPDEST SWAP2 POP POP SWAP3 SWAP2 POP POP JUMP JUMPDEST PUSH32 0x5472616E73666572206661696C65640000000000000000000000000000000000 PUSH0 DUP3 ADD MSTORE POP JUMP JUMPDEST PUSH0 PUSH2 0xE59 PUSH1 0xF DUP4 PUSH2 0x974 JUMP JUMPDEST SWAP2 POP PUSH2 0xE64 DUP3 PUSH2 0xE25 JUMP JUMPDEST PUSH1 0x20 DUP3 ADD SWAP1 POP SWAP2 SWAP1 POP JUMP JUMPDEST PUSH0 PUSH1 0x20 DUP3 ADD SWAP1 POP DUP2 DUP2 SUB PUSH0 DUP4 ADD MSTORE PUSH2 0xE86 DUP2 PUSH2 0xE4D JUMP JUMPDEST SWAP1 POP SWAP2 SWAP1 POP JUMP INVALID LOG2 PUSH5 0x6970667358 0x22 SLT KECCAK256 SWAP16 PUSH18 0x84BF5B31B25B3E1D82632F293B7D99B09AEB PUSH1 0x7 SAR 0xE5 BLOBBASEFEE NOT 0xAB 0xFB 0xB0 GT LOG3 SWAP1 PUSH5 0x736F6C6343 STOP ADDMOD BYTE STOP CALLER "
				},
				"gasEstimates": {
					"creation": {
						"codeDepositCost": "755800",
						"executionCost": "790",
						"totalCost": "756590"
					},
					"external": {
						"getPaymentToken(uint256)": "infinite",
						"setPaymentToken(address)": "infinite",
						"withdrawTicketProceeds(uint256)": "infinite"
					}
				},
				"methodIdentifiers": {
					"getPaymentToken(uint256)": "cdc2aebf",
					"setPaymentToken(address)": "6a326ab1",
					"withdrawTicketProceeds(uint256)": "ad943d1e"
				}
			},
			"storageLayout": {
				"storage": [],
				"types": null
			},
			"userdoc": {
				"kind": "user",
				"methods": {
					"getPaymentToken(uint256)": {
						"notice": "Retrieves the ERC20 token address used for ticket purchases in a specific lottery."
					},
					"setPaymentToken(address)": {
						"notice": "Allows the contract owner to set or update the address of the ERC20 token used for ticket purchases."
					},
					"withdrawTicketProceeds(uint256)": {
						"notice": "Allows the contract owner to withdraw the ticket proceeds from a specific lottery. This function is only callable by the contract owner and will transfer the proceeds to the owner's address."
					}
				},
				"notice": "PaymentFacet Facet responsible for managing payments, including setting tokens, retrieving balances, and withdrawing proceeds.",
				"version": 1
			}
		}
	}
}