{
	"data": {
		"bytecode": {
			"linkReferences": {},
			"object": "608060405234801561000f575f80fd5b5060405161477138038061477183398181016040528101906100319190610154565b3360025f6101000a81548173ffffffffffffffffffffffffffffffffffffffff021916908373ffffffffffffffffffffffffffffffffffffffff1602179055508060015f6101000a81548173ffffffffffffffffffffffffffffffffffffffff021916908373ffffffffffffffffffffffffffffffffffffffff160217905550805f806101000a81548173ffffffffffffffffffffffffffffffffffffffff021916908373ffffffffffffffffffffffffffffffffffffffff1602179055505061017f565b5f80fd5b5f73ffffffffffffffffffffffffffffffffffffffff82169050919050565b5f610123826100fa565b9050919050565b61013381610119565b811461013d575f80fd5b50565b5f8151905061014e8161012a565b92915050565b5f60208284031215610169576101686100f6565b5b5f61017684828501610140565b91505092915050565b6145e58061018c5f395ff3fe608060405234801561000f575f80fd5b5060043610610156575f3560e01c80638da5cb5b116100c1578063cc42a7c51161007a578063cc42a7c5146103fc578063cdc2aebf1461042c578063d5ed4d5a1461045c578063dc969f221461047a578063e0767cd9146104ab578063e54778b5146104db57610156565b80638da5cb5b1461033c5780639351e76b1461035a5780639d76ea5814610376578063ad943d1e14610394578063adc51cdb146103b0578063c5929bc7146103e057610156565b80635bddbaac116101135780635bddbaac1461023f578063687e47d81461026f5780636a326ab11461028b57806376b3c8a8146102a75780637df858db146102db57806389b2acbc1461030b57610156565b80630400f4d01461015a57806312b349d5146101785780631398e076146101a857806349c0de88146101e35780635125a252146102175780635b7b3d5814610221575b5f80fd5b61016261050b565b60405161016f9190612b3a565b60405180910390f35b610192600480360381019061018d9190612b8e565b610511565b60405161019f9190612be6565b60405180910390f35b6101c260048036038101906101bd9190612bff565b610811565b6040516101da9c9b9a99989796959493929190612d25565b60405180910390f35b6101fd60048036038101906101f89190612b8e565b61090e565b60405161020e959493929190612e23565b60405180910390f35b61021f610992565b005b610229610df9565b6040516102369190612b3a565b60405180910390f35b61025960048036038101906102549190612e9e565b610e02565b6040516102669190612be6565b60405180910390f35b61028960048036038101906102849190612b8e565b610ff4565b005b6102a560048036038101906102a09190612eee565b611408565b005b6102c160048036038101906102bc9190612bff565b611510565b6040516102d2959493929190612f19565b60405180910390f35b6102f560048036038101906102f091906130c0565b61158e565b6040516103029190612b3a565b60405180910390f35b61032560048036038101906103209190612b8e565b611871565b604051610333929190613179565b60405180910390f35b6103446118d7565b60405161035191906131a0565b60405180910390f35b610374600480360381019061036f91906131b9565b6118fc565b005b61037e611bca565b60405161038b91906131a0565b60405180910390f35b6103ae60048036038101906103a99190612bff565b611bef565b005b6103ca60048036038101906103c59190612bff565b611f56565b6040516103d79190612b3a565b60405180910390f35b6103fa60048036038101906103f59190612bff565b611f9e565b005b61041660048036038101906104119190612bff565b6123bd565b6040516104239190612b3a565b60405180910390f35b61044660048036038101906104419190612bff565b612413565b60405161045391906131a0565b60405180910390f35b610464612449565b6040516104719190613264565b60405180910390f35b610494600480360381019061048f9190612bff565b61246c565b6040516104a292919061327d565b60405180910390f35b6104c560048036038101906104c091906132ab565b612559565b6040516104d29190612b3a565b60405180910390f35b6104f560048036038101906104f09190612b8e565b612918565b6040516105029190612b3a565b60405180910390f35b60035481565b5f80831161051d575f80fd5b5f60018461052b9190613328565b9050600354841115610572576040517f08c379a0000000000000000000000000000000000000000000000000000000008152600401610569906133a5565b60405180910390fd5b6002600381111561058657610585612cb2565b5b6004828154811061059a576105996133c3565b5b905f5260205f2090600d02016008015f9054906101000a900460ff1660038111156105c8576105c7612cb2565b5b14610608576040517f08c379a00000000000000000000000000000000000000000000000000000000081526004016105ff9061343a565b60405180910390fd5b60055f8581526020019081526020015f2080549050831061065e576040517f08c379a0000000000000000000000000000000000000000000000000000000008152600401610655906134a2565b60405180910390fd5b5f60055f8681526020019081526020015f208481548110610682576106816133c3565b5b905f5260205f20906004020190503373ffffffffffffffffffffffffffffffffffffffff16815f015f9054906101000a900473ffffffffffffffffffffffffffffffffffffffff1673ffffffffffffffffffffffffffffffffffffffff1614610720576040517f08c379a00000000000000000000000000000000000000000000000000000000081526004016107179061350a565b60405180910390fd5b60011515816003015f9054906101000a900460ff16151514610777576040517f08c379a000000000000000000000000000000000000000000000000000000000815260040161076e90613598565b60405180910390fd5b5f5b6004838154811061078d5761078c6133c3565b5b905f5260205f2090600d0201600c01805490508110156108045784600484815481106107bc576107bb6133c3565b5b905f5260205f2090600d0201600c0182815481106107dd576107dc6133c3565b5b905f5260205f200154036107f7576001935050505061080b565b8080600101915050610779565b505f925050505b92915050565b60048181548110610820575f80fd5b905f5260205f2090600d02015f91509050805f015490806001015490806002015490806003015490806004015490806005015490806006018054610863906135e3565b80601f016020809104026020016040519081016040528092919081815260200182805461088f906135e3565b80156108da5780601f106108b1576101008083540402835291602001916108da565b820191905f5260205f20905b8154815290600101906020018083116108bd57829003601f168201915b505050505090806007015490806008015f9054906101000a900460ff169080600901549080600a01549080600b015490508c565b6005602052815f5260405f208181548110610927575f80fd5b905f5260205f2090600402015f9150915050805f015f9054906101000a900473ffffffffffffffffffffffffffffffffffffffff1690806001015490806002015490806003015f9054906101000a900460ff16908060030160019054906101000a900460ff16905085565b5f4290505f5b600354811015610df5575f60038111156109b5576109b4612cb2565b5b600482815481106109c9576109c86133c3565b5b905f5260205f2090600d02016008015f9054906101000a900460ff1660038111156109f7576109f6612cb2565b5b03610a775760048181548110610a1057610a0f6133c3565b5b905f5260205f2090600d0201600701548210610a7257600160048281548110610a3c57610a3b6133c3565b5b905f5260205f2090600d02016008015f6101000a81548160ff02191690836003811115610a6c57610a6b612cb2565b5b02179055505b610de8565b60016003811115610a8b57610a8a612cb2565b5b60048281548110610a9f57610a9e6133c3565b5b905f5260205f2090600d02016008015f9054906101000a900460ff166003811115610acd57610acc612cb2565b5b03610c295760048181548110610ae657610ae56133c3565b5b905f5260205f2090600d02015f01548210610c24575f606460048381548110610b1257610b116133c3565b5b905f5260205f2090600d02016003015460048481548110610b3657610b356133c3565b5b905f5260205f2090600d020160010154610b509190613613565b610b5a9190613681565b90508060048381548110610b7157610b706133c3565b5b905f5260205f2090600d02016009015410610bd657600260048381548110610b9c57610b9b6133c3565b5b905f5260205f2090600d02016008015f6101000a81548160ff02191690836003811115610bcc57610bcb612cb2565b5b0217905550610c22565b600360048381548110610bec57610beb6133c3565b5b905f5260205f2090600d02016008015f6101000a81548160ff02191690836003811115610c1c57610c1b612cb2565b5b02179055505b505b610de7565b5f6003811115610c3c57610c3b612cb2565b5b60048281548110610c5057610c4f6133c3565b5b905f5260205f2090600d02016008015f9054906101000a900460ff166003811115610c7e57610c7d612cb2565b5b1480610cdd575060016003811115610c9957610c98612cb2565b5b60048281548110610cad57610cac6133c3565b5b905f5260205f2090600d02016008015f9054906101000a900460ff166003811115610cdb57610cda612cb2565b5b145b15610de65760048181548110610cf657610cf56133c3565b5b905f5260205f2090600d02015f01548210610de5575f606460048381548110610d2257610d216133c3565b5b905f5260205f2090600d02016003015460048481548110610d4657610d456133c3565b5b905f5260205f2090600d020160010154610d609190613613565b610d6a9190613681565b90508060048381548110610d8157610d806133c3565b5b905f5260205f2090600d0201600901541015610de357600360048381548110610dad57610dac6133c3565b5b905f5260205f2090600d02016008015f6101000a81548160ff02191690836003811115610ddd57610ddc612cb2565b5b02179055505b505b5b5b5b8080600101915050610998565b5050565b5f600354905090565b5f808311610e0e575f80fd5b5f600184610e1c9190613328565b9050600354841115610e2c575f80fd5b60055f8581526020019081526020015f2080549050831115610e4c575f80fd5b6001151560055f8681526020019081526020015f208481548110610e7357610e726133c3565b5b905f5260205f2090600402016003015f9054906101000a900460ff16151514610ed1576040517f08c379a0000000000000000000000000000000000000000000000000000000008152600401610ec890613721565b60405180910390fd5b5f5b60048581548110610ee757610ee66133c3565b5b905f5260205f2090600d0201600c0180549050811015610fe7578360048381548110610f1657610f156133c3565b5b905f5260205f2090600d0201600c018281548110610f3757610f366133c3565b5b905f5260205f20015403610fda575f60055f8781526020019081526020015f208581548110610f6957610f686133c3565b5b905f5260205f20906004020190508673ffffffffffffffffffffffffffffffffffffffff16815f015f9054906101000a900473ffffffffffffffffffffffffffffffffffffffff1673ffffffffffffffffffffffffffffffffffffffff1603610fd85760019350505050610fed565b505b8080600101915050610ed3565b505f9150505b9392505050565b5f8211610fff575f80fd5b5f60018361100d9190613328565b905060035483111561101d575f80fd5b5f60048281548110611032576110316133c3565b5b905f5260205f2090600d0201905060038081111561105357611052612cb2565b5b816008015f9054906101000a900460ff16600381111561107657611075612cb2565b5b146110b6576040517f08c379a00000000000000000000000000000000000000000000000000000000081526004016110ad906137af565b60405180910390fd5b60055f8581526020019081526020015f208054905083106110d5575f80fd5b3373ffffffffffffffffffffffffffffffffffffffff1660055f8681526020019081526020015f20848154811061110f5761110e6133c3565b5b905f5260205f2090600402015f015f9054906101000a900473ffffffffffffffffffffffffffffffffffffffff1673ffffffffffffffffffffffffffffffffffffffff1614611193576040517f08c379a000000000000000000000000000000000000000000000000000000000815260040161118a90613817565b60405180910390fd5b6001151560055f8681526020019081526020015f2084815481106111ba576111b96133c3565b5b905f5260205f2090600402016003015f9054906101000a900460ff16151514611218576040517f08c379a000000000000000000000000000000000000000000000000000000000815260040161120f906138a5565b60405180910390fd5b60055f8581526020019081526020015f20838154811061123b5761123a6133c3565b5b905f5260205f20906004020160030160019054906101000a900460ff1615611298576040517f08c379a000000000000000000000000000000000000000000000000000000000815260040161128f9061390d565b60405180910390fd5b5f816004015460055f8781526020019081526020015f2085815481106112c1576112c06133c3565b5b905f5260205f209060040201600101546112db9190613613565b9050600160055f8781526020019081526020015f208581548110611302576113016133c3565b5b905f5260205f20906004020160030160016101000a81548160ff0219169083151502179055505f8054906101000a900473ffffffffffffffffffffffffffffffffffffffff1673ffffffffffffffffffffffffffffffffffffffff1663a9059cbb33836040518363ffffffff1660e01b815260040161138292919061392b565b6020604051808303815f875af115801561139e573d5f803e3d5ffd5b505050506040513d601f19601f820116820180604052508101906113c2919061397c565b611401576040517f08c379a00000000000000000000000000000000000000000000000000000000081526004016113f8906139f1565b60405180910390fd5b5050505050565b60025f9054906101000a900473ffffffffffffffffffffffffffffffffffffffff1673ffffffffffffffffffffffffffffffffffffffff163373ffffffffffffffffffffffffffffffffffffffff1614611497576040517f08c379a000000000000000000000000000000000000000000000000000000000815260040161148e90613a7f565b60405180910390fd5b5f73ffffffffffffffffffffffffffffffffffffffff168173ffffffffffffffffffffffffffffffffffffffff16036114ce575f80fd5b805f806101000a81548173ffffffffffffffffffffffffffffffffffffffff021916908373ffffffffffffffffffffffffffffffffffffffff16021790555050565b5f805f805f600354861115611523575f80fd5b5f861161152e575f80fd5b5f60018761153c9190613328565b90505f60048281548110611553576115526133c3565b5b905f5260205f2090600d02019050805f0154816001015482600201548360030154846004015496509650965096509650505091939590929450565b5f60025f9054906101000a900473ffffffffffffffffffffffffffffffffffffffff1673ffffffffffffffffffffffffffffffffffffffff163373ffffffffffffffffffffffffffffffffffffffff161461161e576040517f08c379a000000000000000000000000000000000000000000000000000000000815260040161161590613a7f565b60405180910390fd5b5f8611611629575f80fd5b6064851115611636575f80fd5b5f429050808911611645575f80fd5b60035f81548092919061165790613a9d565b91905055506004604051806101a001604052808b81526020018a81526020018981526020018881526020018781526020018681526020018581526020016002848d6116a29190613328565b6116ac9190613681565b846116b79190613ae4565b81526020015f60038111156116cf576116ce612cb2565b5b81526020015f81526020015f81526020015f81526020018967ffffffffffffffff811115611700576116ff612f9c565b5b60405190808252806020026020018201604052801561172e5781602001602082028036833780820191505090505b50815250908060018154018082558091505060019003905f5260205f2090600d02015f909190919091505f820151815f01556020820151816001015560408201518160020155606082015181600301556080820151816004015560a0820151816005015560c08201518160060190816117a79190613cab565b5060e08201518160070155610100820151816008015f6101000a81548160ff021916908360038111156117dd576117dc612cb2565b5b0217905550610120820151816009015561014082015181600a015561016082015181600b015561018082015181600c019080519060200190611820929190612abc565b5050507fbcab9af3175c8a9d53b9308a82ee378a84c65b0c22e3dfea2afac802c73a078a6003548a8a60405161185893929190613d7a565b60405180910390a1600354915050979650505050505050565b5f8060055f8481526020019081526020015f2080549050841115611893575f80fd5b5f60055f8581526020019081526020015f2085815481106118b7576118b66133c3565b5b905f5260205f209060040201905084816001015492509250509250929050565b60025f9054906101000a900473ffffffffffffffffffffffffffffffffffffffff1681565b5f8311611907575f80fd5b5f6001846119159190613328565b90506001600381111561192b5761192a612cb2565b5b6004828154811061193f5761193e6133c3565b5b905f5260205f2090600d02016008015f9054906101000a900460ff16600381111561196d5761196c612cb2565b5b146119ad576040517f08c379a00000000000000000000000000000000000000000000000000000000081526004016119a490613df9565b60405180910390fd5b60055f8581526020019081526020015f2080549050831115611a04576040517f08c379a00000000000000000000000000000000000000000000000000000000081526004016119fb90613e61565b60405180910390fd5b60055f8581526020019081526020015f208381548110611a2757611a266133c3565b5b905f5260205f2090600402016003015f9054906101000a900460ff1615611a83576040517f08c379a0000000000000000000000000000000000000000000000000000000008152600401611a7a90613ec9565b60405180910390fd5b5f82604051602001611a959190613f07565b6040516020818303038152906040528051906020012090508033604051602001611ac0929190613f86565b6040516020818303038152906040528051906020012060055f8781526020019081526020015f208581548110611af957611af86133c3565b5b905f5260205f2090600402016002015414611b49576040517f08c379a0000000000000000000000000000000000000000000000000000000008152600401611b4090613ffb565b60405180910390fd5b600160055f8781526020019081526020015f208581548110611b6e57611b6d6133c3565b5b905f5260205f2090600402016003015f6101000a81548160ff0219169083151502179055508260048381548110611ba857611ba76133c3565b5b905f5260205f2090600d0201600b015f82825418925050819055505050505050565b60015f9054906101000a900473ffffffffffffffffffffffffffffffffffffffff1681565b60025f9054906101000a900473ffffffffffffffffffffffffffffffffffffffff1673ffffffffffffffffffffffffffffffffffffffff163373ffffffffffffffffffffffffffffffffffffffff1614611c7e576040517f08c379a0000000000000000000000000000000000000000000000000000000008152600401611c7590613a7f565b60405180910390fd5b600354811115611c8c575f80fd5b5f8111611c97575f80fd5b5f600182611ca59190613328565b905060026003811115611cbb57611cba612cb2565b5b60048281548110611ccf57611cce6133c3565b5b905f5260205f2090600d02016008015f9054906101000a900460ff166003811115611cfd57611cfc612cb2565b5b14611d3d576040517f08c379a0000000000000000000000000000000000000000000000000000000008152600401611d3490614063565b60405180910390fd5b5f60048281548110611d5257611d516133c3565b5b905f5260205f2090600d020190505f81600401548260090154611d759190613613565b90505f805f9054906101000a900473ffffffffffffffffffffffffffffffffffffffff1673ffffffffffffffffffffffffffffffffffffffff166370a08231306040518263ffffffff1660e01b8152600401611dd191906131a0565b602060405180830381865afa158015611dec573d5f803e3d5ffd5b505050506040513d601f19601f82011682018060405250810190611e109190614095565b905081811015611e55576040517f08c379a0000000000000000000000000000000000000000000000000000000008152600401611e4c9061410a565b60405180910390fd5b5f8054906101000a900473ffffffffffffffffffffffffffffffffffffffff1673ffffffffffffffffffffffffffffffffffffffff1663a9059cbb60025f9054906101000a900473ffffffffffffffffffffffffffffffffffffffff16846040518363ffffffff1660e01b8152600401611ed092919061392b565b6020604051808303815f875af1158015611eec573d5f803e3d5ffd5b505050506040513d601f19601f82011682018060405250810190611f10919061397c565b611f4f576040517f08c379a0000000000000000000000000000000000000000000000000000000008152600401611f4690614172565b60405180910390fd5b5050505050565b5f808211611f62575f80fd5b5f600183611f709190613328565b905060048181548110611f8657611f856133c3565b5b905f5260205f2090600d0201600a0154915050919050565b60025f9054906101000a900473ffffffffffffffffffffffffffffffffffffffff1673ffffffffffffffffffffffffffffffffffffffff163373ffffffffffffffffffffffffffffffffffffffff161461202d576040517f08c379a000000000000000000000000000000000000000000000000000000000815260040161202490613a7f565b60405180910390fd5b60035481111561203b575f80fd5b5f8111612046575f80fd5b5f6001826120549190613328565b90506002600381111561206a57612069612cb2565b5b6004828154811061207e5761207d6133c3565b5b905f5260205f2090600d02016008015f9054906101000a900460ff1660038111156120ac576120ab612cb2565b5b146120ec576040517f08c379a00000000000000000000000000000000000000000000000000000000081526004016120e3906141da565b60405180910390fd5b5f606460048381548110612103576121026133c3565b5b905f5260205f2090600d02016003015460048481548110612127576121266133c3565b5b905f5260205f2090600d0201600101546121419190613613565b61214b9190613681565b90508060048381548110612162576121616133c3565b5b905f5260205f2090600d02016009015410156121b3576040517f08c379a00000000000000000000000000000000000000000000000000000000081526004016121aa90614242565b60405180910390fd5b5f600483815481106121c8576121c76133c3565b5b905f5260205f2090600d02016009015490505f600484815481106121ef576121ee6133c3565b5b905f5260205f2090600d02016002015490505f60048581548110612216576122156133c3565b5b905f5260205f2090600d0201600b015490505f5b82811015612359575f848383604051602001612247929190614260565b604051602081830303815290604052805190602001205f1c612269919061428b565b90505b6122e560048881548110612283576122826133c3565b5b905f5260205f2090600d0201600c018054806020026020016040519081016040528092919081815260200182805480156122da57602002820191905f5260205f20905b8154815260200190600101908083116122c6575b505050505082612a6a565b1561230957846001826122f89190613ae4565b612302919061428b565b905061226c565b806004888154811061231e5761231d6133c3565b5b905f5260205f2090600d0201600c01838154811061233f5761233e6133c3565b5b905f5260205f20018190555050808060010191505061222a565b507fdcd4c188264d71a205a9af0b423e86acd556683d1eb112389101b992ce0188a586600487815481106123905761238f6133c3565b5b905f5260205f2090600d0201600c016040516123ad9291906143bb565b60405180910390a1505050505050565b5f6003548211156123cc575f80fd5b5f82116123d7575f80fd5b5f6001836123e59190613328565b9050600481815481106123fb576123fa6133c3565b5b905f5260205f2090600d020160090154915050919050565b5f600354821115612422575f80fd5b5f8054906101000a900473ffffffffffffffffffffffffffffffffffffffff169050919050565b5f8054906101000a900473ffffffffffffffffffffffffffffffffffffffff1681565b5f606060035483111561247d575f80fd5b5f8311612488575f80fd5b5f6001846124969190613328565b90505f600482815481106124ad576124ac6133c3565b5b905f5260205f2090600d020190508060050154816006018080546124d0906135e3565b80601f01602080910402602001604051908101604052809291908181526020018280546124fc906135e3565b80156125475780601f1061251e57610100808354040283529160200191612547565b820191905f5260205f20905b81548152906001019060200180831161252a57829003601f168201915b50505050509050935093505050915091565b5f808411612565575f80fd5b5f6001856125739190613328565b90505f600381111561258857612587612cb2565b5b6004828154811061259c5761259b6133c3565b5b905f5260205f2090600d02016008015f9054906101000a900460ff1660038111156125ca576125c9612cb2565b5b1461260a576040517f08c379a000000000000000000000000000000000000000000000000000000000815260040161260190614433565b60405180910390fd5b6004818154811061261e5761261d6133c3565b5b905f5260205f2090600d020160070154421061266f576040517f08c379a00000000000000000000000000000000000000000000000000000000081526004016126669061449b565b60405180910390fd5b601e8411156126b3576040517f08c379a00000000000000000000000000000000000000000000000000000000081526004016126aa90614529565b60405180910390fd5b600481815481106126c7576126c66133c3565b5b905f5260205f2090600d02016001015484600483815481106126ec576126eb6133c3565b5b905f5260205f2090600d0201600901546127069190613ae4565b1115612747576040517f08c379a000000000000000000000000000000000000000000000000000000000815260040161273e90614591565b60405180910390fd5b836004828154811061275c5761275b6133c3565b5b905f5260205f2090600d02016009015f8282546127799190613ae4565b92505081905550600160048281548110612796576127956133c3565b5b905f5260205f2090600d0201600a015f8282546127b39190613ae4565b9250508190555060055f8681526020019081526020015f206040518060a001604052803373ffffffffffffffffffffffffffffffffffffffff168152602001868152602001853360405160200161280b929190613f86565b6040516020818303038152906040528051906020012081526020015f151581526020015f1515815250908060018154018082558091505060019003905f5260205f2090600402015f909190919091505f820151815f015f6101000a81548173ffffffffffffffffffffffffffffffffffffffff021916908373ffffffffffffffffffffffffffffffffffffffff16021790555060208201518160010155604082015181600201556060820151816003015f6101000a81548160ff02191690831515021790555060808201518160030160016101000a81548160ff021916908315150217905550505060055f8681526020019081526020015f208054905063ffffffff169150509392505050565b5f808311612924575f80fd5b5f6001846129329190613328565b9050600354841115612942575f80fd5b6002600381111561295657612955612cb2565b5b6004828154811061296a576129696133c3565b5b905f5260205f2090600d02016008015f9054906101000a900460ff16600381111561299857612997612cb2565b5b146129d8576040517f08c379a00000000000000000000000000000000000000000000000000000000081526004016129cf90614063565b60405180910390fd5b5f83118015612a0a5750600481815481106129f6576129f56133c3565b5b905f5260205f2090600d0201600201548311155b612a12575f80fd5b5f600184612a209190613328565b905060048281548110612a3657612a356133c3565b5b905f5260205f2090600d0201600c018181548110612a5757612a566133c3565b5b905f5260205f2001549250505092915050565b5f805f90505b8351811015612ab15782848281518110612a8d57612a8c6133c3565b5b602002602001015103612aa4576001915050612ab6565b8080600101915050612a70565b505f90505b92915050565b828054828255905f5260205f20908101928215612af6579160200282015b82811115612af5578251825591602001919060010190612ada565b5b509050612b039190612b07565b5090565b5b80821115612b1e575f815f905550600101612b08565b5090565b5f819050919050565b612b3481612b22565b82525050565b5f602082019050612b4d5f830184612b2b565b92915050565b5f604051905090565b5f80fd5b5f80fd5b612b6d81612b22565b8114612b77575f80fd5b50565b5f81359050612b8881612b64565b92915050565b5f8060408385031215612ba457612ba3612b5c565b5b5f612bb185828601612b7a565b9250506020612bc285828601612b7a565b9150509250929050565b5f8115159050919050565b612be081612bcc565b82525050565b5f602082019050612bf95f830184612bd7565b92915050565b5f60208284031215612c1457612c13612b5c565b5b5f612c2184828501612b7a565b91505092915050565b5f819050919050565b612c3c81612c2a565b82525050565b5f81519050919050565b5f82825260208201905092915050565b8281835e5f83830152505050565b5f601f19601f8301169050919050565b5f612c8482612c42565b612c8e8185612c4c565b9350612c9e818560208601612c5c565b612ca781612c6a565b840191505092915050565b7f4e487b71000000000000000000000000000000000000000000000000000000005f52602160045260245ffd5b60048110612cf057612cef612cb2565b5b50565b5f819050612d0082612cdf565b919050565b5f612d0f82612cf3565b9050919050565b612d1f81612d05565b82525050565b5f61018082019050612d395f83018f612b2b565b612d46602083018e612b2b565b612d53604083018d612b2b565b612d60606083018c612b2b565b612d6d608083018b612b2b565b612d7a60a083018a612c33565b81810360c0830152612d8c8189612c7a565b9050612d9b60e0830188612b2b565b612da9610100830187612d16565b612db7610120830186612b2b565b612dc5610140830185612b2b565b612dd3610160830184612b2b565b9d9c50505050505050505050505050565b5f73ffffffffffffffffffffffffffffffffffffffff82169050919050565b5f612e0d82612de4565b9050919050565b612e1d81612e03565b82525050565b5f60a082019050612e365f830188612e14565b612e436020830187612b2b565b612e506040830186612c33565b612e5d6060830185612bd7565b612e6a6080830184612bd7565b9695505050505050565b612e7d81612e03565b8114612e87575f80fd5b50565b5f81359050612e9881612e74565b92915050565b5f805f60608486031215612eb557612eb4612b5c565b5b5f612ec286828701612e8a565b9350506020612ed386828701612b7a565b9250506040612ee486828701612b7a565b9150509250925092565b5f60208284031215612f0357612f02612b5c565b5b5f612f1084828501612e8a565b91505092915050565b5f60a082019050612f2c5f830188612b2b565b612f396020830187612b2b565b612f466040830186612b2b565b612f536060830185612b2b565b612f606080830184612b2b565b9695505050505050565b612f7381612c2a565b8114612f7d575f80fd5b50565b5f81359050612f8e81612f6a565b92915050565b5f80fd5b5f80fd5b7f4e487b71000000000000000000000000000000000000000000000000000000005f52604160045260245ffd5b612fd282612c6a565b810181811067ffffffffffffffff82111715612ff157612ff0612f9c565b5b80604052505050565b5f613003612b53565b905061300f8282612fc9565b919050565b5f67ffffffffffffffff82111561302e5761302d612f9c565b5b61303782612c6a565b9050602081019050919050565b828183375f83830152505050565b5f61306461305f84613014565b612ffa565b9050828152602081018484840111156130805761307f612f98565b5b61308b848285613044565b509392505050565b5f82601f8301126130a7576130a6612f94565b5b81356130b7848260208601613052565b91505092915050565b5f805f805f805f60e0888a0312156130db576130da612b5c565b5b5f6130e88a828b01612b7a565b97505060206130f98a828b01612b7a565b965050604061310a8a828b01612b7a565b955050606061311b8a828b01612b7a565b945050608061312c8a828b01612b7a565b93505060a061313d8a828b01612f80565b92505060c088013567ffffffffffffffff81111561315e5761315d612b60565b5b61316a8a828b01613093565b91505092959891949750929550565b5f60408201905061318c5f830185612b2b565b6131996020830184612b2b565b9392505050565b5f6020820190506131b35f830184612e14565b92915050565b5f805f606084860312156131d0576131cf612b5c565b5b5f6131dd86828701612b7a565b93505060206131ee86828701612b7a565b92505060406131ff86828701612b7a565b9150509250925092565b5f819050919050565b5f61322c61322761322284612de4565b613209565b612de4565b9050919050565b5f61323d82613212565b9050919050565b5f61324e82613233565b9050919050565b61325e81613244565b82525050565b5f6020820190506132775f830184613255565b92915050565b5f6040820190506132905f830185612c33565b81810360208301526132a28184612c7a565b90509392505050565b5f805f606084860312156132c2576132c1612b5c565b5b5f6132cf86828701612b7a565b93505060206132e086828701612b7a565b92505060406132f186828701612f80565b9150509250925092565b7f4e487b71000000000000000000000000000000000000000000000000000000005f52601160045260245ffd5b5f61333282612b22565b915061333d83612b22565b9250828203905081811115613355576133546132fb565b5b92915050565b7f496e76616c6964206c6f7474657279206e756d626572000000000000000000005f82015250565b5f61338f601683612c4c565b915061339a8261335b565b602082019050919050565b5f6020820190508181035f8301526133bc81613383565b9050919050565b7f4e487b71000000000000000000000000000000000000000000000000000000005f52603260045260245ffd5b7f4c6f7474657279206973206e6f7420434f4d504c4554454420737461746500005f82015250565b5f613424601e83612c4c565b915061342f826133f0565b602082019050919050565b5f6020820190508181035f83015261345181613418565b9050919050565b7f496e76616c6964207469636b6574206e756d62657200000000000000000000005f82015250565b5f61348c601583612c4c565b915061349782613458565b602082019050919050565b5f6020820190508181035f8301526134b981613480565b9050919050565b7f596f7520646f206e6f74206f776e2074686973207469636b65740000000000005f82015250565b5f6134f4601a83612c4c565b91506134ff826134c0565b602082019050919050565b5f6020820190508181035f830152613521816134e8565b9050919050565b7f596f7520646964206e6f74207375626d697474656420796f75722072616e646f5f8201527f6d206e756d6265722e2000000000000000000000000000000000000000000000602082015250565b5f613582602a83612c4c565b915061358d82613528565b604082019050919050565b5f6020820190508181035f8301526135af81613576565b9050919050565b7f4e487b71000000000000000000000000000000000000000000000000000000005f52602260045260245ffd5b5f60028204905060018216806135fa57607f821691505b60208210810361360d5761360c6135b6565b5b50919050565b5f61361d82612b22565b915061362883612b22565b925082820261363681612b22565b9150828204841483151761364d5761364c6132fb565b5b5092915050565b7f4e487b71000000000000000000000000000000000000000000000000000000005f52601260045260245ffd5b5f61368b82612b22565b915061369683612b22565b9250826136a6576136a5613654565b5b828204905092915050565b7f546865206164647265737320776173206e6f74207375626d69747465642069745f8201527f732072616e646f6d206e756d6265722e20000000000000000000000000000000602082015250565b5f61370b603183612c4c565b9150613716826136b1565b604082019050919050565b5f6020820190508181035f830152613738816136ff565b9050919050565b7f526566756e6473206e6f7420617661696c61626c6520666f722074686973206c5f8201527f6f74746572790000000000000000000000000000000000000000000000000000602082015250565b5f613799602683612c4c565b91506137a48261373f565b604082019050919050565b5f6020820190508181035f8301526137c68161378d565b9050919050565b7f4e6f74206f776e657200000000000000000000000000000000000000000000005f82015250565b5f613801600983612c4c565b915061380c826137cd565b602082019050919050565b5f6020820190508181035f83015261382e816137f5565b9050919050565b7f596f7520646964206e6f74207375626d697474656420796f75722072616e646f5f8201527f6d206e756d626572200000000000000000000000000000000000000000000000602082015250565b5f61388f602983612c4c565b915061389a82613835565b604082019050919050565b5f6020820190508181035f8301526138bc81613883565b9050919050565b7f616c726561647920726566756e646564000000000000000000000000000000005f82015250565b5f6138f7601083612c4c565b9150613902826138c3565b602082019050919050565b5f6020820190508181035f830152613924816138eb565b9050919050565b5f60408201905061393e5f830185612e14565b61394b6020830184612b2b565b9392505050565b61395b81612bcc565b8114613965575f80fd5b50565b5f8151905061397681613952565b92915050565b5f6020828403121561399157613990612b5c565b5b5f61399e84828501613968565b91505092915050565b7f526566756e64206661696c6564000000000000000000000000000000000000005f82015250565b5f6139db600d83612c4c565b91506139e6826139a7565b602082019050919050565b5f6020820190508181035f830152613a08816139cf565b9050919050565b7f4f6e6c7920746865206f776e65722063616e2063616c6c20746869732066756e5f8201527f6374696f6e000000000000000000000000000000000000000000000000000000602082015250565b5f613a69602583612c4c565b9150613a7482613a0f565b604082019050919050565b5f6020820190508181035f830152613a9681613a5d565b9050919050565b5f613aa782612b22565b91507fffffffffffffffffffffffffffffffffffffffffffffffffffffffffffffffff8203613ad957613ad86132fb565b5b600182019050919050565b5f613aee82612b22565b9150613af983612b22565b9250828201905080821115613b1157613b106132fb565b5b92915050565b5f819050815f5260205f209050919050565b5f6020601f8301049050919050565b5f82821b905092915050565b5f60088302613b737fffffffffffffffffffffffffffffffffffffffffffffffffffffffffffffffff82613b38565b613b7d8683613b38565b95508019841693508086168417925050509392505050565b5f613baf613baa613ba584612b22565b613209565b612b22565b9050919050565b5f819050919050565b613bc883613b95565b613bdc613bd482613bb6565b848454613b44565b825550505050565b5f90565b613bf0613be4565b613bfb818484613bbf565b505050565b5b81811015613c1e57613c135f82613be8565b600181019050613c01565b5050565b601f821115613c6357613c3481613b17565b613c3d84613b29565b81016020851015613c4c578190505b613c60613c5885613b29565b830182613c00565b50505b505050565b5f82821c905092915050565b5f613c835f1984600802613c68565b1980831691505092915050565b5f613c9b8383613c74565b9150826002028217905092915050565b613cb482612c42565b67ffffffffffffffff811115613ccd57613ccc612f9c565b5b613cd782546135e3565b613ce2828285613c22565b5f60209050601f831160018114613d13575f8415613d01578287015190505b613d0b8582613c90565b865550613d72565b601f198416613d2186613b17565b5f5b82811015613d4857848901518255600182019150602085019450602081019050613d23565b86831015613d655784890151613d61601f891682613c74565b8355505b6001600288020188555050505b505050505050565b5f606082019050613d8d5f830186612b2b565b613d9a6020830185612b2b565b613da76040830184612b2b565b949350505050565b7f4c6f7474657279206973206e6f742052455645414c20737461746500000000005f82015250565b5f613de3601b83612c4c565b9150613dee82613daf565b602082019050919050565b5f6020820190508181035f830152613e1081613dd7565b9050919050565b7f5469636b657420646f6573206e6f7420657869737400000000000000000000005f82015250565b5f613e4b601583612c4c565b9150613e5682613e17565b602082019050919050565b5f6020820190508181035f830152613e7881613e3f565b9050919050565b7f5469636b657420616c72656164792072657665616c65640000000000000000005f82015250565b5f613eb3601783612c4c565b9150613ebe82613e7f565b602082019050919050565b5f6020820190508181035f830152613ee081613ea7565b9050919050565b5f819050919050565b613f01613efc82612b22565b613ee7565b82525050565b5f613f128284613ef0565b60208201915081905092915050565b5f819050919050565b613f3b613f3682612c2a565b613f21565b82525050565b5f8160601b9050919050565b5f613f5782613f41565b9050919050565b5f613f6882613f4d565b9050919050565b613f80613f7b82612e03565b613f5e565b82525050565b5f613f918285613f2a565b602082019150613fa18284613f6f565b6014820191508190509392505050565b7f596f752072657665616c656420612077726f6e67206e756d62657200000000005f82015250565b5f613fe5601b83612c4c565b9150613ff082613fb1565b602082019050919050565b5f6020820190508181035f83015261401281613fd9565b9050919050565b7f4c6f747465727920686173206e6f74206265656e20636f6d706c6574656400005f82015250565b5f61404d601e83612c4c565b915061405882614019565b602082019050919050565b5f6020820190508181035f83015261407a81614041565b9050919050565b5f8151905061408f81612b64565b92915050565b5f602082840312156140aa576140a9612b5c565b5b5f6140b784828501614081565b91505092915050565b7f496e73756666696369656e742066756e647300000000000000000000000000005f82015250565b5f6140f4601283612c4c565b91506140ff826140c0565b602082019050919050565b5f6020820190508181035f830152614121816140e8565b9050919050565b7f7472616e73666572206661696c656400000000000000000000000000000000005f82015250565b5f61415c600f83612c4c565b915061416782614128565b602082019050919050565b5f6020820190508181035f83015261418981614150565b9050919050565b7f4e6f74206265656e20636f6d706c6574656400000000000000000000000000005f82015250565b5f6141c4601283612c4c565b91506141cf82614190565b602082019050919050565b5f6020820190508181035f8301526141f1816141b8565b9050919050565b7f4e6f7420656e6f756768207469636b65747320736f6c640000000000000000005f82015250565b5f61422c601783612c4c565b9150614237826141f8565b602082019050919050565b5f6020820190508181035f83015261425981614220565b9050919050565b5f61426b8285613ef0565b60208201915061427b8284613ef0565b6020820191508190509392505050565b5f61429582612b22565b91506142a083612b22565b9250826142b0576142af613654565b5b828206905092915050565b5f81549050919050565b5f82825260208201905092915050565b5f819050815f5260205f209050919050565b6142f081612b22565b82525050565b5f61430183836142e7565b60208301905092915050565b5f815f1c9050919050565b5f819050919050565b5f61433361432e8361430d565b614318565b9050919050565b5f6143458254614321565b9050919050565b5f600182019050919050565b5f614362826142bb565b61436c81856142c5565b9350614377836142d5565b805f5b838110156143ae5761438b8261433a565b61439588826142f6565b97506143a08361434c565b92505060018101905061437a565b5085935050505092915050565b5f6040820190506143ce5f830185612b2b565b81810360208301526143e08184614358565b90509392505050565b7f4c6f7474657279206973206e6f742061637469766500000000000000000000005f82015250565b5f61441d601583612c4c565b9150614428826143e9565b602082019050919050565b5f6020820190508181035f83015261444a81614411565b9050919050565b7f4c6f74746572792073616c6520697320646f6e650000000000000000000000005f82015250565b5f614485601483612c4c565b915061449082614451565b602082019050919050565b5f6020820190508181035f8301526144b281614479565b9050919050565b7f596f752063616e207075726368617365206174206d6f7374203330207469636b5f8201527f6574732e20000000000000000000000000000000000000000000000000000000602082015250565b5f614513602583612c4c565b915061451e826144b9565b604082019050919050565b5f6020820190508181035f83015261454081614507565b9050919050565b7f4e6f7420656e6f756768207469636b65747320617661696c61626c65000000005f82015250565b5f61457b601c83612c4c565b915061458682614547565b602082019050919050565b5f6020820190508181035f8301526145a88161456f565b905091905056fea26469706673582212205f0fa543350fad762aefde35f3e648566475ab98d148c197680eca3cc67f448664736f6c634300081a0033",
			"opcodes": "PUSH1 0x80 PUSH1 0x40 MSTORE CALLVALUE DUP1 ISZERO PUSH2 0xF JUMPI PUSH0 DUP1 REVERT JUMPDEST POP PUSH1 0x40 MLOAD PUSH2 0x4771 CODESIZE SUB DUP1 PUSH2 0x4771 DUP4 CODECOPY DUP2 DUP2 ADD PUSH1 0x40 MSTORE DUP2 ADD SWAP1 PUSH2 0x31 SWAP2 SWAP1 PUSH2 0x154 JUMP JUMPDEST CALLER PUSH1 0x2 PUSH0 PUSH2 0x100 EXP DUP2 SLOAD DUP2 PUSH20 0xFFFFFFFFFFFFFFFFFFFFFFFFFFFFFFFFFFFFFFFF MUL NOT AND SWAP1 DUP4 PUSH20 0xFFFFFFFFFFFFFFFFFFFFFFFFFFFFFFFFFFFFFFFF AND MUL OR SWAP1 SSTORE POP DUP1 PUSH1 0x1 PUSH0 PUSH2 0x100 EXP DUP2 SLOAD DUP2 PUSH20 0xFFFFFFFFFFFFFFFFFFFFFFFFFFFFFFFFFFFFFFFF MUL NOT AND SWAP1 DUP4 PUSH20 0xFFFFFFFFFFFFFFFFFFFFFFFFFFFFFFFFFFFFFFFF AND MUL OR SWAP1 SSTORE POP DUP1 PUSH0 DUP1 PUSH2 0x100 EXP DUP2 SLOAD DUP2 PUSH20 0xFFFFFFFFFFFFFFFFFFFFFFFFFFFFFFFFFFFFFFFF MUL NOT AND SWAP1 DUP4 PUSH20 0xFFFFFFFFFFFFFFFFFFFFFFFFFFFFFFFFFFFFFFFF AND MUL OR SWAP1 SSTORE POP POP PUSH2 0x17F JUMP JUMPDEST PUSH0 DUP1 REVERT JUMPDEST PUSH0 PUSH20 0xFFFFFFFFFFFFFFFFFFFFFFFFFFFFFFFFFFFFFFFF DUP3 AND SWAP1 POP SWAP2 SWAP1 POP JUMP JUMPDEST PUSH0 PUSH2 0x123 DUP3 PUSH2 0xFA JUMP JUMPDEST SWAP1 POP SWAP2 SWAP1 POP JUMP JUMPDEST PUSH2 0x133 DUP2 PUSH2 0x119 JUMP JUMPDEST DUP2 EQ PUSH2 0x13D JUMPI PUSH0 DUP1 REVERT JUMPDEST POP JUMP JUMPDEST PUSH0 DUP2 MLOAD SWAP1 POP PUSH2 0x14E DUP2 PUSH2 0x12A JUMP JUMPDEST SWAP3 SWAP2 POP POP JUMP JUMPDEST PUSH0 PUSH1 0x20 DUP3 DUP5 SUB SLT ISZERO PUSH2 0x169 JUMPI PUSH2 0x168 PUSH2 0xF6 JUMP JUMPDEST JUMPDEST PUSH0 PUSH2 0x176 DUP5 DUP3 DUP6 ADD PUSH2 0x140 JUMP JUMPDEST SWAP2 POP POP SWAP3 SWAP2 POP POP JUMP JUMPDEST PUSH2 0x45E5 DUP1 PUSH2 0x18C PUSH0 CODECOPY PUSH0 RETURN INVALID PUSH1 0x80 PUSH1 0x40 MSTORE CALLVALUE DUP1 ISZERO PUSH2 0xF JUMPI PUSH0 DUP1 REVERT JUMPDEST POP PUSH1 0x4 CALLDATASIZE LT PUSH2 0x156 JUMPI PUSH0 CALLDATALOAD PUSH1 0xE0 SHR DUP1 PUSH4 0x8DA5CB5B GT PUSH2 0xC1 JUMPI DUP1 PUSH4 0xCC42A7C5 GT PUSH2 0x7A JUMPI DUP1 PUSH4 0xCC42A7C5 EQ PUSH2 0x3FC JUMPI DUP1 PUSH4 0xCDC2AEBF EQ PUSH2 0x42C JUMPI DUP1 PUSH4 0xD5ED4D5A EQ PUSH2 0x45C JUMPI DUP1 PUSH4 0xDC969F22 EQ PUSH2 0x47A JUMPI DUP1 PUSH4 0xE0767CD9 EQ PUSH2 0x4AB JUMPI DUP1 PUSH4 0xE54778B5 EQ PUSH2 0x4DB JUMPI PUSH2 0x156 JUMP JUMPDEST DUP1 PUSH4 0x8DA5CB5B EQ PUSH2 0x33C JUMPI DUP1 PUSH4 0x9351E76B EQ PUSH2 0x35A JUMPI DUP1 PUSH4 0x9D76EA58 EQ PUSH2 0x376 JUMPI DUP1 PUSH4 0xAD943D1E EQ PUSH2 0x394 JUMPI DUP1 PUSH4 0xADC51CDB EQ PUSH2 0x3B0 JUMPI DUP1 PUSH4 0xC5929BC7 EQ PUSH2 0x3E0 JUMPI PUSH2 0x156 JUMP JUMPDEST DUP1 PUSH4 0x5BDDBAAC GT PUSH2 0x113 JUMPI DUP1 PUSH4 0x5BDDBAAC EQ PUSH2 0x23F JUMPI DUP1 PUSH4 0x687E47D8 EQ PUSH2 0x26F JUMPI DUP1 PUSH4 0x6A326AB1 EQ PUSH2 0x28B JUMPI DUP1 PUSH4 0x76B3C8A8 EQ PUSH2 0x2A7 JUMPI DUP1 PUSH4 0x7DF858DB EQ PUSH2 0x2DB JUMPI DUP1 PUSH4 0x89B2ACBC EQ PUSH2 0x30B JUMPI PUSH2 0x156 JUMP JUMPDEST DUP1 PUSH4 0x400F4D0 EQ PUSH2 0x15A JUMPI DUP1 PUSH4 0x12B349D5 EQ PUSH2 0x178 JUMPI DUP1 PUSH4 0x1398E076 EQ PUSH2 0x1A8 JUMPI DUP1 PUSH4 0x49C0DE88 EQ PUSH2 0x1E3 JUMPI DUP1 PUSH4 0x5125A252 EQ PUSH2 0x217 JUMPI DUP1 PUSH4 0x5B7B3D58 EQ PUSH2 0x221 JUMPI JUMPDEST PUSH0 DUP1 REVERT JUMPDEST PUSH2 0x162 PUSH2 0x50B JUMP JUMPDEST PUSH1 0x40 MLOAD PUSH2 0x16F SWAP2 SWAP1 PUSH2 0x2B3A JUMP JUMPDEST PUSH1 0x40 MLOAD DUP1 SWAP2 SUB SWAP1 RETURN JUMPDEST PUSH2 0x192 PUSH1 0x4 DUP1 CALLDATASIZE SUB DUP2 ADD SWAP1 PUSH2 0x18D SWAP2 SWAP1 PUSH2 0x2B8E JUMP JUMPDEST PUSH2 0x511 JUMP JUMPDEST PUSH1 0x40 MLOAD PUSH2 0x19F SWAP2 SWAP1 PUSH2 0x2BE6 JUMP JUMPDEST PUSH1 0x40 MLOAD DUP1 SWAP2 SUB SWAP1 RETURN JUMPDEST PUSH2 0x1C2 PUSH1 0x4 DUP1 CALLDATASIZE SUB DUP2 ADD SWAP1 PUSH2 0x1BD SWAP2 SWAP1 PUSH2 0x2BFF JUMP JUMPDEST PUSH2 0x811 JUMP JUMPDEST PUSH1 0x40 MLOAD PUSH2 0x1DA SWAP13 SWAP12 SWAP11 SWAP10 SWAP9 SWAP8 SWAP7 SWAP6 SWAP5 SWAP4 SWAP3 SWAP2 SWAP1 PUSH2 0x2D25 JUMP JUMPDEST PUSH1 0x40 MLOAD DUP1 SWAP2 SUB SWAP1 RETURN JUMPDEST PUSH2 0x1FD PUSH1 0x4 DUP1 CALLDATASIZE SUB DUP2 ADD SWAP1 PUSH2 0x1F8 SWAP2 SWAP1 PUSH2 0x2B8E JUMP JUMPDEST PUSH2 0x90E JUMP JUMPDEST PUSH1 0x40 MLOAD PUSH2 0x20E SWAP6 SWAP5 SWAP4 SWAP3 SWAP2 SWAP1 PUSH2 0x2E23 JUMP JUMPDEST PUSH1 0x40 MLOAD DUP1 SWAP2 SUB SWAP1 RETURN JUMPDEST PUSH2 0x21F PUSH2 0x992 JUMP JUMPDEST STOP JUMPDEST PUSH2 0x229 PUSH2 0xDF9 JUMP JUMPDEST PUSH1 0x40 MLOAD PUSH2 0x236 SWAP2 SWAP1 PUSH2 0x2B3A JUMP JUMPDEST PUSH1 0x40 MLOAD DUP1 SWAP2 SUB SWAP1 RETURN JUMPDEST PUSH2 0x259 PUSH1 0x4 DUP1 CALLDATASIZE SUB DUP2 ADD SWAP1 PUSH2 0x254 SWAP2 SWAP1 PUSH2 0x2E9E JUMP JUMPDEST PUSH2 0xE02 JUMP JUMPDEST PUSH1 0x40 MLOAD PUSH2 0x266 SWAP2 SWAP1 PUSH2 0x2BE6 JUMP JUMPDEST PUSH1 0x40 MLOAD DUP1 SWAP2 SUB SWAP1 RETURN JUMPDEST PUSH2 0x289 PUSH1 0x4 DUP1 CALLDATASIZE SUB DUP2 ADD SWAP1 PUSH2 0x284 SWAP2 SWAP1 PUSH2 0x2B8E JUMP JUMPDEST PUSH2 0xFF4 JUMP JUMPDEST STOP JUMPDEST PUSH2 0x2A5 PUSH1 0x4 DUP1 CALLDATASIZE SUB DUP2 ADD SWAP1 PUSH2 0x2A0 SWAP2 SWAP1 PUSH2 0x2EEE JUMP JUMPDEST PUSH2 0x1408 JUMP JUMPDEST STOP JUMPDEST PUSH2 0x2C1 PUSH1 0x4 DUP1 CALLDATASIZE SUB DUP2 ADD SWAP1 PUSH2 0x2BC SWAP2 SWAP1 PUSH2 0x2BFF JUMP JUMPDEST PUSH2 0x1510 JUMP JUMPDEST PUSH1 0x40 MLOAD PUSH2 0x2D2 SWAP6 SWAP5 SWAP4 SWAP3 SWAP2 SWAP1 PUSH2 0x2F19 JUMP JUMPDEST PUSH1 0x40 MLOAD DUP1 SWAP2 SUB SWAP1 RETURN JUMPDEST PUSH2 0x2F5 PUSH1 0x4 DUP1 CALLDATASIZE SUB DUP2 ADD SWAP1 PUSH2 0x2F0 SWAP2 SWAP1 PUSH2 0x30C0 JUMP JUMPDEST PUSH2 0x158E JUMP JUMPDEST PUSH1 0x40 MLOAD PUSH2 0x302 SWAP2 SWAP1 PUSH2 0x2B3A JUMP JUMPDEST PUSH1 0x40 MLOAD DUP1 SWAP2 SUB SWAP1 RETURN JUMPDEST PUSH2 0x325 PUSH1 0x4 DUP1 CALLDATASIZE SUB DUP2 ADD SWAP1 PUSH2 0x320 SWAP2 SWAP1 PUSH2 0x2B8E JUMP JUMPDEST PUSH2 0x1871 JUMP JUMPDEST PUSH1 0x40 MLOAD PUSH2 0x333 SWAP3 SWAP2 SWAP1 PUSH2 0x3179 JUMP JUMPDEST PUSH1 0x40 MLOAD DUP1 SWAP2 SUB SWAP1 RETURN JUMPDEST PUSH2 0x344 PUSH2 0x18D7 JUMP JUMPDEST PUSH1 0x40 MLOAD PUSH2 0x351 SWAP2 SWAP1 PUSH2 0x31A0 JUMP JUMPDEST PUSH1 0x40 MLOAD DUP1 SWAP2 SUB SWAP1 RETURN JUMPDEST PUSH2 0x374 PUSH1 0x4 DUP1 CALLDATASIZE SUB DUP2 ADD SWAP1 PUSH2 0x36F SWAP2 SWAP1 PUSH2 0x31B9 JUMP JUMPDEST PUSH2 0x18FC JUMP JUMPDEST STOP JUMPDEST PUSH2 0x37E PUSH2 0x1BCA JUMP JUMPDEST PUSH1 0x40 MLOAD PUSH2 0x38B SWAP2 SWAP1 PUSH2 0x31A0 JUMP JUMPDEST PUSH1 0x40 MLOAD DUP1 SWAP2 SUB SWAP1 RETURN JUMPDEST PUSH2 0x3AE PUSH1 0x4 DUP1 CALLDATASIZE SUB DUP2 ADD SWAP1 PUSH2 0x3A9 SWAP2 SWAP1 PUSH2 0x2BFF JUMP JUMPDEST PUSH2 0x1BEF JUMP JUMPDEST STOP JUMPDEST PUSH2 0x3CA PUSH1 0x4 DUP1 CALLDATASIZE SUB DUP2 ADD SWAP1 PUSH2 0x3C5 SWAP2 SWAP1 PUSH2 0x2BFF JUMP JUMPDEST PUSH2 0x1F56 JUMP JUMPDEST PUSH1 0x40 MLOAD PUSH2 0x3D7 SWAP2 SWAP1 PUSH2 0x2B3A JUMP JUMPDEST PUSH1 0x40 MLOAD DUP1 SWAP2 SUB SWAP1 RETURN JUMPDEST PUSH2 0x3FA PUSH1 0x4 DUP1 CALLDATASIZE SUB DUP2 ADD SWAP1 PUSH2 0x3F5 SWAP2 SWAP1 PUSH2 0x2BFF JUMP JUMPDEST PUSH2 0x1F9E JUMP JUMPDEST STOP JUMPDEST PUSH2 0x416 PUSH1 0x4 DUP1 CALLDATASIZE SUB DUP2 ADD SWAP1 PUSH2 0x411 SWAP2 SWAP1 PUSH2 0x2BFF JUMP JUMPDEST PUSH2 0x23BD JUMP JUMPDEST PUSH1 0x40 MLOAD PUSH2 0x423 SWAP2 SWAP1 PUSH2 0x2B3A JUMP JUMPDEST PUSH1 0x40 MLOAD DUP1 SWAP2 SUB SWAP1 RETURN JUMPDEST PUSH2 0x446 PUSH1 0x4 DUP1 CALLDATASIZE SUB DUP2 ADD SWAP1 PUSH2 0x441 SWAP2 SWAP1 PUSH2 0x2BFF JUMP JUMPDEST PUSH2 0x2413 JUMP JUMPDEST PUSH1 0x40 MLOAD PUSH2 0x453 SWAP2 SWAP1 PUSH2 0x31A0 JUMP JUMPDEST PUSH1 0x40 MLOAD DUP1 SWAP2 SUB SWAP1 RETURN JUMPDEST PUSH2 0x464 PUSH2 0x2449 JUMP JUMPDEST PUSH1 0x40 MLOAD PUSH2 0x471 SWAP2 SWAP1 PUSH2 0x3264 JUMP JUMPDEST PUSH1 0x40 MLOAD DUP1 SWAP2 SUB SWAP1 RETURN JUMPDEST PUSH2 0x494 PUSH1 0x4 DUP1 CALLDATASIZE SUB DUP2 ADD SWAP1 PUSH2 0x48F SWAP2 SWAP1 PUSH2 0x2BFF JUMP JUMPDEST PUSH2 0x246C JUMP JUMPDEST PUSH1 0x40 MLOAD PUSH2 0x4A2 SWAP3 SWAP2 SWAP1 PUSH2 0x327D JUMP JUMPDEST PUSH1 0x40 MLOAD DUP1 SWAP2 SUB SWAP1 RETURN JUMPDEST PUSH2 0x4C5 PUSH1 0x4 DUP1 CALLDATASIZE SUB DUP2 ADD SWAP1 PUSH2 0x4C0 SWAP2 SWAP1 PUSH2 0x32AB JUMP JUMPDEST PUSH2 0x2559 JUMP JUMPDEST PUSH1 0x40 MLOAD PUSH2 0x4D2 SWAP2 SWAP1 PUSH2 0x2B3A JUMP JUMPDEST PUSH1 0x40 MLOAD DUP1 SWAP2 SUB SWAP1 RETURN JUMPDEST PUSH2 0x4F5 PUSH1 0x4 DUP1 CALLDATASIZE SUB DUP2 ADD SWAP1 PUSH2 0x4F0 SWAP2 SWAP1 PUSH2 0x2B8E JUMP JUMPDEST PUSH2 0x2918 JUMP JUMPDEST PUSH1 0x40 MLOAD PUSH2 0x502 SWAP2 SWAP1 PUSH2 0x2B3A JUMP JUMPDEST PUSH1 0x40 MLOAD DUP1 SWAP2 SUB SWAP1 RETURN JUMPDEST PUSH1 0x3 SLOAD DUP2 JUMP JUMPDEST PUSH0 DUP1 DUP4 GT PUSH2 0x51D JUMPI PUSH0 DUP1 REVERT JUMPDEST PUSH0 PUSH1 0x1 DUP5 PUSH2 0x52B SWAP2 SWAP1 PUSH2 0x3328 JUMP JUMPDEST SWAP1 POP PUSH1 0x3 SLOAD DUP5 GT ISZERO PUSH2 0x572 JUMPI PUSH1 0x40 MLOAD PUSH32 0x8C379A000000000000000000000000000000000000000000000000000000000 DUP2 MSTORE PUSH1 0x4 ADD PUSH2 0x569 SWAP1 PUSH2 0x33A5 JUMP JUMPDEST PUSH1 0x40 MLOAD DUP1 SWAP2 SUB SWAP1 REVERT JUMPDEST PUSH1 0x2 PUSH1 0x3 DUP2 GT ISZERO PUSH2 0x586 JUMPI PUSH2 0x585 PUSH2 0x2CB2 JUMP JUMPDEST JUMPDEST PUSH1 0x4 DUP3 DUP2 SLOAD DUP2 LT PUSH2 0x59A JUMPI PUSH2 0x599 PUSH2 0x33C3 JUMP JUMPDEST JUMPDEST SWAP1 PUSH0 MSTORE PUSH1 0x20 PUSH0 KECCAK256 SWAP1 PUSH1 0xD MUL ADD PUSH1 0x8 ADD PUSH0 SWAP1 SLOAD SWAP1 PUSH2 0x100 EXP SWAP1 DIV PUSH1 0xFF AND PUSH1 0x3 DUP2 GT ISZERO PUSH2 0x5C8 JUMPI PUSH2 0x5C7 PUSH2 0x2CB2 JUMP JUMPDEST JUMPDEST EQ PUSH2 0x608 JUMPI PUSH1 0x40 MLOAD PUSH32 0x8C379A000000000000000000000000000000000000000000000000000000000 DUP2 MSTORE PUSH1 0x4 ADD PUSH2 0x5FF SWAP1 PUSH2 0x343A JUMP JUMPDEST PUSH1 0x40 MLOAD DUP1 SWAP2 SUB SWAP1 REVERT JUMPDEST PUSH1 0x5 PUSH0 DUP6 DUP2 MSTORE PUSH1 0x20 ADD SWAP1 DUP2 MSTORE PUSH1 0x20 ADD PUSH0 KECCAK256 DUP1 SLOAD SWAP1 POP DUP4 LT PUSH2 0x65E JUMPI PUSH1 0x40 MLOAD PUSH32 0x8C379A000000000000000000000000000000000000000000000000000000000 DUP2 MSTORE PUSH1 0x4 ADD PUSH2 0x655 SWAP1 PUSH2 0x34A2 JUMP JUMPDEST PUSH1 0x40 MLOAD DUP1 SWAP2 SUB SWAP1 REVERT JUMPDEST PUSH0 PUSH1 0x5 PUSH0 DUP7 DUP2 MSTORE PUSH1 0x20 ADD SWAP1 DUP2 MSTORE PUSH1 0x20 ADD PUSH0 KECCAK256 DUP5 DUP2 SLOAD DUP2 LT PUSH2 0x682 JUMPI PUSH2 0x681 PUSH2 0x33C3 JUMP JUMPDEST JUMPDEST SWAP1 PUSH0 MSTORE PUSH1 0x20 PUSH0 KECCAK256 SWAP1 PUSH1 0x4 MUL ADD SWAP1 POP CALLER PUSH20 0xFFFFFFFFFFFFFFFFFFFFFFFFFFFFFFFFFFFFFFFF AND DUP2 PUSH0 ADD PUSH0 SWAP1 SLOAD SWAP1 PUSH2 0x100 EXP SWAP1 DIV PUSH20 0xFFFFFFFFFFFFFFFFFFFFFFFFFFFFFFFFFFFFFFFF AND PUSH20 0xFFFFFFFFFFFFFFFFFFFFFFFFFFFFFFFFFFFFFFFF AND EQ PUSH2 0x720 JUMPI PUSH1 0x40 MLOAD PUSH32 0x8C379A000000000000000000000000000000000000000000000000000000000 DUP2 MSTORE PUSH1 0x4 ADD PUSH2 0x717 SWAP1 PUSH2 0x350A JUMP JUMPDEST PUSH1 0x40 MLOAD DUP1 SWAP2 SUB SWAP1 REVERT JUMPDEST PUSH1 0x1 ISZERO ISZERO DUP2 PUSH1 0x3 ADD PUSH0 SWAP1 SLOAD SWAP1 PUSH2 0x100 EXP SWAP1 DIV PUSH1 0xFF AND ISZERO ISZERO EQ PUSH2 0x777 JUMPI PUSH1 0x40 MLOAD PUSH32 0x8C379A000000000000000000000000000000000000000000000000000000000 DUP2 MSTORE PUSH1 0x4 ADD PUSH2 0x76E SWAP1 PUSH2 0x3598 JUMP JUMPDEST PUSH1 0x40 MLOAD DUP1 SWAP2 SUB SWAP1 REVERT JUMPDEST PUSH0 JUMPDEST PUSH1 0x4 DUP4 DUP2 SLOAD DUP2 LT PUSH2 0x78D JUMPI PUSH2 0x78C PUSH2 0x33C3 JUMP JUMPDEST JUMPDEST SWAP1 PUSH0 MSTORE PUSH1 0x20 PUSH0 KECCAK256 SWAP1 PUSH1 0xD MUL ADD PUSH1 0xC ADD DUP1 SLOAD SWAP1 POP DUP2 LT ISZERO PUSH2 0x804 JUMPI DUP5 PUSH1 0x4 DUP5 DUP2 SLOAD DUP2 LT PUSH2 0x7BC JUMPI PUSH2 0x7BB PUSH2 0x33C3 JUMP JUMPDEST JUMPDEST SWAP1 PUSH0 MSTORE PUSH1 0x20 PUSH0 KECCAK256 SWAP1 PUSH1 0xD MUL ADD PUSH1 0xC ADD DUP3 DUP2 SLOAD DUP2 LT PUSH2 0x7DD JUMPI PUSH2 0x7DC PUSH2 0x33C3 JUMP JUMPDEST JUMPDEST SWAP1 PUSH0 MSTORE PUSH1 0x20 PUSH0 KECCAK256 ADD SLOAD SUB PUSH2 0x7F7 JUMPI PUSH1 0x1 SWAP4 POP POP POP POP PUSH2 0x80B JUMP JUMPDEST DUP1 DUP1 PUSH1 0x1 ADD SWAP2 POP POP PUSH2 0x779 JUMP JUMPDEST POP PUSH0 SWAP3 POP POP POP JUMPDEST SWAP3 SWAP2 POP POP JUMP JUMPDEST PUSH1 0x4 DUP2 DUP2 SLOAD DUP2 LT PUSH2 0x820 JUMPI PUSH0 DUP1 REVERT JUMPDEST SWAP1 PUSH0 MSTORE PUSH1 0x20 PUSH0 KECCAK256 SWAP1 PUSH1 0xD MUL ADD PUSH0 SWAP2 POP SWAP1 POP DUP1 PUSH0 ADD SLOAD SWAP1 DUP1 PUSH1 0x1 ADD SLOAD SWAP1 DUP1 PUSH1 0x2 ADD SLOAD SWAP1 DUP1 PUSH1 0x3 ADD SLOAD SWAP1 DUP1 PUSH1 0x4 ADD SLOAD SWAP1 DUP1 PUSH1 0x5 ADD SLOAD SWAP1 DUP1 PUSH1 0x6 ADD DUP1 SLOAD PUSH2 0x863 SWAP1 PUSH2 0x35E3 JUMP JUMPDEST DUP1 PUSH1 0x1F ADD PUSH1 0x20 DUP1 SWAP2 DIV MUL PUSH1 0x20 ADD PUSH1 0x40 MLOAD SWAP1 DUP2 ADD PUSH1 0x40 MSTORE DUP1 SWAP3 SWAP2 SWAP1 DUP2 DUP2 MSTORE PUSH1 0x20 ADD DUP3 DUP1 SLOAD PUSH2 0x88F SWAP1 PUSH2 0x35E3 JUMP JUMPDEST DUP1 ISZERO PUSH2 0x8DA JUMPI DUP1 PUSH1 0x1F LT PUSH2 0x8B1 JUMPI PUSH2 0x100 DUP1 DUP4 SLOAD DIV MUL DUP4 MSTORE SWAP2 PUSH1 0x20 ADD SWAP2 PUSH2 0x8DA JUMP JUMPDEST DUP3 ADD SWAP2 SWAP1 PUSH0 MSTORE PUSH1 0x20 PUSH0 KECCAK256 SWAP1 JUMPDEST DUP2 SLOAD DUP2 MSTORE SWAP1 PUSH1 0x1 ADD SWAP1 PUSH1 0x20 ADD DUP1 DUP4 GT PUSH2 0x8BD JUMPI DUP3 SWAP1 SUB PUSH1 0x1F AND DUP3 ADD SWAP2 JUMPDEST POP POP POP POP POP SWAP1 DUP1 PUSH1 0x7 ADD SLOAD SWAP1 DUP1 PUSH1 0x8 ADD PUSH0 SWAP1 SLOAD SWAP1 PUSH2 0x100 EXP SWAP1 DIV PUSH1 0xFF AND SWAP1 DUP1 PUSH1 0x9 ADD SLOAD SWAP1 DUP1 PUSH1 0xA ADD SLOAD SWAP1 DUP1 PUSH1 0xB ADD SLOAD SWAP1 POP DUP13 JUMP JUMPDEST PUSH1 0x5 PUSH1 0x20 MSTORE DUP2 PUSH0 MSTORE PUSH1 0x40 PUSH0 KECCAK256 DUP2 DUP2 SLOAD DUP2 LT PUSH2 0x927 JUMPI PUSH0 DUP1 REVERT JUMPDEST SWAP1 PUSH0 MSTORE PUSH1 0x20 PUSH0 KECCAK256 SWAP1 PUSH1 0x4 MUL ADD PUSH0 SWAP2 POP SWAP2 POP POP DUP1 PUSH0 ADD PUSH0 SWAP1 SLOAD SWAP1 PUSH2 0x100 EXP SWAP1 DIV PUSH20 0xFFFFFFFFFFFFFFFFFFFFFFFFFFFFFFFFFFFFFFFF AND SWAP1 DUP1 PUSH1 0x1 ADD SLOAD SWAP1 DUP1 PUSH1 0x2 ADD SLOAD SWAP1 DUP1 PUSH1 0x3 ADD PUSH0 SWAP1 SLOAD SWAP1 PUSH2 0x100 EXP SWAP1 DIV PUSH1 0xFF AND SWAP1 DUP1 PUSH1 0x3 ADD PUSH1 0x1 SWAP1 SLOAD SWAP1 PUSH2 0x100 EXP SWAP1 DIV PUSH1 0xFF AND SWAP1 POP DUP6 JUMP JUMPDEST PUSH0 TIMESTAMP SWAP1 POP PUSH0 JUMPDEST PUSH1 0x3 SLOAD DUP2 LT ISZERO PUSH2 0xDF5 JUMPI PUSH0 PUSH1 0x3 DUP2 GT ISZERO PUSH2 0x9B5 JUMPI PUSH2 0x9B4 PUSH2 0x2CB2 JUMP JUMPDEST JUMPDEST PUSH1 0x4 DUP3 DUP2 SLOAD DUP2 LT PUSH2 0x9C9 JUMPI PUSH2 0x9C8 PUSH2 0x33C3 JUMP JUMPDEST JUMPDEST SWAP1 PUSH0 MSTORE PUSH1 0x20 PUSH0 KECCAK256 SWAP1 PUSH1 0xD MUL ADD PUSH1 0x8 ADD PUSH0 SWAP1 SLOAD SWAP1 PUSH2 0x100 EXP SWAP1 DIV PUSH1 0xFF AND PUSH1 0x3 DUP2 GT ISZERO PUSH2 0x9F7 JUMPI PUSH2 0x9F6 PUSH2 0x2CB2 JUMP JUMPDEST JUMPDEST SUB PUSH2 0xA77 JUMPI PUSH1 0x4 DUP2 DUP2 SLOAD DUP2 LT PUSH2 0xA10 JUMPI PUSH2 0xA0F PUSH2 0x33C3 JUMP JUMPDEST JUMPDEST SWAP1 PUSH0 MSTORE PUSH1 0x20 PUSH0 KECCAK256 SWAP1 PUSH1 0xD MUL ADD PUSH1 0x7 ADD SLOAD DUP3 LT PUSH2 0xA72 JUMPI PUSH1 0x1 PUSH1 0x4 DUP3 DUP2 SLOAD DUP2 LT PUSH2 0xA3C JUMPI PUSH2 0xA3B PUSH2 0x33C3 JUMP JUMPDEST JUMPDEST SWAP1 PUSH0 MSTORE PUSH1 0x20 PUSH0 KECCAK256 SWAP1 PUSH1 0xD MUL ADD PUSH1 0x8 ADD PUSH0 PUSH2 0x100 EXP DUP2 SLOAD DUP2 PUSH1 0xFF MUL NOT AND SWAP1 DUP4 PUSH1 0x3 DUP2 GT ISZERO PUSH2 0xA6C JUMPI PUSH2 0xA6B PUSH2 0x2CB2 JUMP JUMPDEST JUMPDEST MUL OR SWAP1 SSTORE POP JUMPDEST PUSH2 0xDE8 JUMP JUMPDEST PUSH1 0x1 PUSH1 0x3 DUP2 GT ISZERO PUSH2 0xA8B JUMPI PUSH2 0xA8A PUSH2 0x2CB2 JUMP JUMPDEST JUMPDEST PUSH1 0x4 DUP3 DUP2 SLOAD DUP2 LT PUSH2 0xA9F JUMPI PUSH2 0xA9E PUSH2 0x33C3 JUMP JUMPDEST JUMPDEST SWAP1 PUSH0 MSTORE PUSH1 0x20 PUSH0 KECCAK256 SWAP1 PUSH1 0xD MUL ADD PUSH1 0x8 ADD PUSH0 SWAP1 SLOAD SWAP1 PUSH2 0x100 EXP SWAP1 DIV PUSH1 0xFF AND PUSH1 0x3 DUP2 GT ISZERO PUSH2 0xACD JUMPI PUSH2 0xACC PUSH2 0x2CB2 JUMP JUMPDEST JUMPDEST SUB PUSH2 0xC29 JUMPI PUSH1 0x4 DUP2 DUP2 SLOAD DUP2 LT PUSH2 0xAE6 JUMPI PUSH2 0xAE5 PUSH2 0x33C3 JUMP JUMPDEST JUMPDEST SWAP1 PUSH0 MSTORE PUSH1 0x20 PUSH0 KECCAK256 SWAP1 PUSH1 0xD MUL ADD PUSH0 ADD SLOAD DUP3 LT PUSH2 0xC24 JUMPI PUSH0 PUSH1 0x64 PUSH1 0x4 DUP4 DUP2 SLOAD DUP2 LT PUSH2 0xB12 JUMPI PUSH2 0xB11 PUSH2 0x33C3 JUMP JUMPDEST JUMPDEST SWAP1 PUSH0 MSTORE PUSH1 0x20 PUSH0 KECCAK256 SWAP1 PUSH1 0xD MUL ADD PUSH1 0x3 ADD SLOAD PUSH1 0x4 DUP5 DUP2 SLOAD DUP2 LT PUSH2 0xB36 JUMPI PUSH2 0xB35 PUSH2 0x33C3 JUMP JUMPDEST JUMPDEST SWAP1 PUSH0 MSTORE PUSH1 0x20 PUSH0 KECCAK256 SWAP1 PUSH1 0xD MUL ADD PUSH1 0x1 ADD SLOAD PUSH2 0xB50 SWAP2 SWAP1 PUSH2 0x3613 JUMP JUMPDEST PUSH2 0xB5A SWAP2 SWAP1 PUSH2 0x3681 JUMP JUMPDEST SWAP1 POP DUP1 PUSH1 0x4 DUP4 DUP2 SLOAD DUP2 LT PUSH2 0xB71 JUMPI PUSH2 0xB70 PUSH2 0x33C3 JUMP JUMPDEST JUMPDEST SWAP1 PUSH0 MSTORE PUSH1 0x20 PUSH0 KECCAK256 SWAP1 PUSH1 0xD MUL ADD PUSH1 0x9 ADD SLOAD LT PUSH2 0xBD6 JUMPI PUSH1 0x2 PUSH1 0x4 DUP4 DUP2 SLOAD DUP2 LT PUSH2 0xB9C JUMPI PUSH2 0xB9B PUSH2 0x33C3 JUMP JUMPDEST JUMPDEST SWAP1 PUSH0 MSTORE PUSH1 0x20 PUSH0 KECCAK256 SWAP1 PUSH1 0xD MUL ADD PUSH1 0x8 ADD PUSH0 PUSH2 0x100 EXP DUP2 SLOAD DUP2 PUSH1 0xFF MUL NOT AND SWAP1 DUP4 PUSH1 0x3 DUP2 GT ISZERO PUSH2 0xBCC JUMPI PUSH2 0xBCB PUSH2 0x2CB2 JUMP JUMPDEST JUMPDEST MUL OR SWAP1 SSTORE POP PUSH2 0xC22 JUMP JUMPDEST PUSH1 0x3 PUSH1 0x4 DUP4 DUP2 SLOAD DUP2 LT PUSH2 0xBEC JUMPI PUSH2 0xBEB PUSH2 0x33C3 JUMP JUMPDEST JUMPDEST SWAP1 PUSH0 MSTORE PUSH1 0x20 PUSH0 KECCAK256 SWAP1 PUSH1 0xD MUL ADD PUSH1 0x8 ADD PUSH0 PUSH2 0x100 EXP DUP2 SLOAD DUP2 PUSH1 0xFF MUL NOT AND SWAP1 DUP4 PUSH1 0x3 DUP2 GT ISZERO PUSH2 0xC1C JUMPI PUSH2 0xC1B PUSH2 0x2CB2 JUMP JUMPDEST JUMPDEST MUL OR SWAP1 SSTORE POP JUMPDEST POP JUMPDEST PUSH2 0xDE7 JUMP JUMPDEST PUSH0 PUSH1 0x3 DUP2 GT ISZERO PUSH2 0xC3C JUMPI PUSH2 0xC3B PUSH2 0x2CB2 JUMP JUMPDEST JUMPDEST PUSH1 0x4 DUP3 DUP2 SLOAD DUP2 LT PUSH2 0xC50 JUMPI PUSH2 0xC4F PUSH2 0x33C3 JUMP JUMPDEST JUMPDEST SWAP1 PUSH0 MSTORE PUSH1 0x20 PUSH0 KECCAK256 SWAP1 PUSH1 0xD MUL ADD PUSH1 0x8 ADD PUSH0 SWAP1 SLOAD SWAP1 PUSH2 0x100 EXP SWAP1 DIV PUSH1 0xFF AND PUSH1 0x3 DUP2 GT ISZERO PUSH2 0xC7E JUMPI PUSH2 0xC7D PUSH2 0x2CB2 JUMP JUMPDEST JUMPDEST EQ DUP1 PUSH2 0xCDD JUMPI POP PUSH1 0x1 PUSH1 0x3 DUP2 GT ISZERO PUSH2 0xC99 JUMPI PUSH2 0xC98 PUSH2 0x2CB2 JUMP JUMPDEST JUMPDEST PUSH1 0x4 DUP3 DUP2 SLOAD DUP2 LT PUSH2 0xCAD JUMPI PUSH2 0xCAC PUSH2 0x33C3 JUMP JUMPDEST JUMPDEST SWAP1 PUSH0 MSTORE PUSH1 0x20 PUSH0 KECCAK256 SWAP1 PUSH1 0xD MUL ADD PUSH1 0x8 ADD PUSH0 SWAP1 SLOAD SWAP1 PUSH2 0x100 EXP SWAP1 DIV PUSH1 0xFF AND PUSH1 0x3 DUP2 GT ISZERO PUSH2 0xCDB JUMPI PUSH2 0xCDA PUSH2 0x2CB2 JUMP JUMPDEST JUMPDEST EQ JUMPDEST ISZERO PUSH2 0xDE6 JUMPI PUSH1 0x4 DUP2 DUP2 SLOAD DUP2 LT PUSH2 0xCF6 JUMPI PUSH2 0xCF5 PUSH2 0x33C3 JUMP JUMPDEST JUMPDEST SWAP1 PUSH0 MSTORE PUSH1 0x20 PUSH0 KECCAK256 SWAP1 PUSH1 0xD MUL ADD PUSH0 ADD SLOAD DUP3 LT PUSH2 0xDE5 JUMPI PUSH0 PUSH1 0x64 PUSH1 0x4 DUP4 DUP2 SLOAD DUP2 LT PUSH2 0xD22 JUMPI PUSH2 0xD21 PUSH2 0x33C3 JUMP JUMPDEST JUMPDEST SWAP1 PUSH0 MSTORE PUSH1 0x20 PUSH0 KECCAK256 SWAP1 PUSH1 0xD MUL ADD PUSH1 0x3 ADD SLOAD PUSH1 0x4 DUP5 DUP2 SLOAD DUP2 LT PUSH2 0xD46 JUMPI PUSH2 0xD45 PUSH2 0x33C3 JUMP JUMPDEST JUMPDEST SWAP1 PUSH0 MSTORE PUSH1 0x20 PUSH0 KECCAK256 SWAP1 PUSH1 0xD MUL ADD PUSH1 0x1 ADD SLOAD PUSH2 0xD60 SWAP2 SWAP1 PUSH2 0x3613 JUMP JUMPDEST PUSH2 0xD6A SWAP2 SWAP1 PUSH2 0x3681 JUMP JUMPDEST SWAP1 POP DUP1 PUSH1 0x4 DUP4 DUP2 SLOAD DUP2 LT PUSH2 0xD81 JUMPI PUSH2 0xD80 PUSH2 0x33C3 JUMP JUMPDEST JUMPDEST SWAP1 PUSH0 MSTORE PUSH1 0x20 PUSH0 KECCAK256 SWAP1 PUSH1 0xD MUL ADD PUSH1 0x9 ADD SLOAD LT ISZERO PUSH2 0xDE3 JUMPI PUSH1 0x3 PUSH1 0x4 DUP4 DUP2 SLOAD DUP2 LT PUSH2 0xDAD JUMPI PUSH2 0xDAC PUSH2 0x33C3 JUMP JUMPDEST JUMPDEST SWAP1 PUSH0 MSTORE PUSH1 0x20 PUSH0 KECCAK256 SWAP1 PUSH1 0xD MUL ADD PUSH1 0x8 ADD PUSH0 PUSH2 0x100 EXP DUP2 SLOAD DUP2 PUSH1 0xFF MUL NOT AND SWAP1 DUP4 PUSH1 0x3 DUP2 GT ISZERO PUSH2 0xDDD JUMPI PUSH2 0xDDC PUSH2 0x2CB2 JUMP JUMPDEST JUMPDEST MUL OR SWAP1 SSTORE POP JUMPDEST POP JUMPDEST JUMPDEST JUMPDEST JUMPDEST DUP1 DUP1 PUSH1 0x1 ADD SWAP2 POP POP PUSH2 0x998 JUMP JUMPDEST POP POP JUMP JUMPDEST PUSH0 PUSH1 0x3 SLOAD SWAP1 POP SWAP1 JUMP JUMPDEST PUSH0 DUP1 DUP4 GT PUSH2 0xE0E JUMPI PUSH0 DUP1 REVERT JUMPDEST PUSH0 PUSH1 0x1 DUP5 PUSH2 0xE1C SWAP2 SWAP1 PUSH2 0x3328 JUMP JUMPDEST SWAP1 POP PUSH1 0x3 SLOAD DUP5 GT ISZERO PUSH2 0xE2C JUMPI PUSH0 DUP1 REVERT JUMPDEST PUSH1 0x5 PUSH0 DUP6 DUP2 MSTORE PUSH1 0x20 ADD SWAP1 DUP2 MSTORE PUSH1 0x20 ADD PUSH0 KECCAK256 DUP1 SLOAD SWAP1 POP DUP4 GT ISZERO PUSH2 0xE4C JUMPI PUSH0 DUP1 REVERT JUMPDEST PUSH1 0x1 ISZERO ISZERO PUSH1 0x5 PUSH0 DUP7 DUP2 MSTORE PUSH1 0x20 ADD SWAP1 DUP2 MSTORE PUSH1 0x20 ADD PUSH0 KECCAK256 DUP5 DUP2 SLOAD DUP2 LT PUSH2 0xE73 JUMPI PUSH2 0xE72 PUSH2 0x33C3 JUMP JUMPDEST JUMPDEST SWAP1 PUSH0 MSTORE PUSH1 0x20 PUSH0 KECCAK256 SWAP1 PUSH1 0x4 MUL ADD PUSH1 0x3 ADD PUSH0 SWAP1 SLOAD SWAP1 PUSH2 0x100 EXP SWAP1 DIV PUSH1 0xFF AND ISZERO ISZERO EQ PUSH2 0xED1 JUMPI PUSH1 0x40 MLOAD PUSH32 0x8C379A000000000000000000000000000000000000000000000000000000000 DUP2 MSTORE PUSH1 0x4 ADD PUSH2 0xEC8 SWAP1 PUSH2 0x3721 JUMP JUMPDEST PUSH1 0x40 MLOAD DUP1 SWAP2 SUB SWAP1 REVERT JUMPDEST PUSH0 JUMPDEST PUSH1 0x4 DUP6 DUP2 SLOAD DUP2 LT PUSH2 0xEE7 JUMPI PUSH2 0xEE6 PUSH2 0x33C3 JUMP JUMPDEST JUMPDEST SWAP1 PUSH0 MSTORE PUSH1 0x20 PUSH0 KECCAK256 SWAP1 PUSH1 0xD MUL ADD PUSH1 0xC ADD DUP1 SLOAD SWAP1 POP DUP2 LT ISZERO PUSH2 0xFE7 JUMPI DUP4 PUSH1 0x4 DUP4 DUP2 SLOAD DUP2 LT PUSH2 0xF16 JUMPI PUSH2 0xF15 PUSH2 0x33C3 JUMP JUMPDEST JUMPDEST SWAP1 PUSH0 MSTORE PUSH1 0x20 PUSH0 KECCAK256 SWAP1 PUSH1 0xD MUL ADD PUSH1 0xC ADD DUP3 DUP2 SLOAD DUP2 LT PUSH2 0xF37 JUMPI PUSH2 0xF36 PUSH2 0x33C3 JUMP JUMPDEST JUMPDEST SWAP1 PUSH0 MSTORE PUSH1 0x20 PUSH0 KECCAK256 ADD SLOAD SUB PUSH2 0xFDA JUMPI PUSH0 PUSH1 0x5 PUSH0 DUP8 DUP2 MSTORE PUSH1 0x20 ADD SWAP1 DUP2 MSTORE PUSH1 0x20 ADD PUSH0 KECCAK256 DUP6 DUP2 SLOAD DUP2 LT PUSH2 0xF69 JUMPI PUSH2 0xF68 PUSH2 0x33C3 JUMP JUMPDEST JUMPDEST SWAP1 PUSH0 MSTORE PUSH1 0x20 PUSH0 KECCAK256 SWAP1 PUSH1 0x4 MUL ADD SWAP1 POP DUP7 PUSH20 0xFFFFFFFFFFFFFFFFFFFFFFFFFFFFFFFFFFFFFFFF AND DUP2 PUSH0 ADD PUSH0 SWAP1 SLOAD SWAP1 PUSH2 0x100 EXP SWAP1 DIV PUSH20 0xFFFFFFFFFFFFFFFFFFFFFFFFFFFFFFFFFFFFFFFF AND PUSH20 0xFFFFFFFFFFFFFFFFFFFFFFFFFFFFFFFFFFFFFFFF AND SUB PUSH2 0xFD8 JUMPI PUSH1 0x1 SWAP4 POP POP POP POP PUSH2 0xFED JUMP JUMPDEST POP JUMPDEST DUP1 DUP1 PUSH1 0x1 ADD SWAP2 POP POP PUSH2 0xED3 JUMP JUMPDEST POP PUSH0 SWAP2 POP POP JUMPDEST SWAP4 SWAP3 POP POP POP JUMP JUMPDEST PUSH0 DUP3 GT PUSH2 0xFFF JUMPI PUSH0 DUP1 REVERT JUMPDEST PUSH0 PUSH1 0x1 DUP4 PUSH2 0x100D SWAP2 SWAP1 PUSH2 0x3328 JUMP JUMPDEST SWAP1 POP PUSH1 0x3 SLOAD DUP4 GT ISZERO PUSH2 0x101D JUMPI PUSH0 DUP1 REVERT JUMPDEST PUSH0 PUSH1 0x4 DUP3 DUP2 SLOAD DUP2 LT PUSH2 0x1032 JUMPI PUSH2 0x1031 PUSH2 0x33C3 JUMP JUMPDEST JUMPDEST SWAP1 PUSH0 MSTORE PUSH1 0x20 PUSH0 KECCAK256 SWAP1 PUSH1 0xD MUL ADD SWAP1 POP PUSH1 0x3 DUP1 DUP2 GT ISZERO PUSH2 0x1053 JUMPI PUSH2 0x1052 PUSH2 0x2CB2 JUMP JUMPDEST JUMPDEST DUP2 PUSH1 0x8 ADD PUSH0 SWAP1 SLOAD SWAP1 PUSH2 0x100 EXP SWAP1 DIV PUSH1 0xFF AND PUSH1 0x3 DUP2 GT ISZERO PUSH2 0x1076 JUMPI PUSH2 0x1075 PUSH2 0x2CB2 JUMP JUMPDEST JUMPDEST EQ PUSH2 0x10B6 JUMPI PUSH1 0x40 MLOAD PUSH32 0x8C379A000000000000000000000000000000000000000000000000000000000 DUP2 MSTORE PUSH1 0x4 ADD PUSH2 0x10AD SWAP1 PUSH2 0x37AF JUMP JUMPDEST PUSH1 0x40 MLOAD DUP1 SWAP2 SUB SWAP1 REVERT JUMPDEST PUSH1 0x5 PUSH0 DUP6 DUP2 MSTORE PUSH1 0x20 ADD SWAP1 DUP2 MSTORE PUSH1 0x20 ADD PUSH0 KECCAK256 DUP1 SLOAD SWAP1 POP DUP4 LT PUSH2 0x10D5 JUMPI PUSH0 DUP1 REVERT JUMPDEST CALLER PUSH20 0xFFFFFFFFFFFFFFFFFFFFFFFFFFFFFFFFFFFFFFFF AND PUSH1 0x5 PUSH0 DUP7 DUP2 MSTORE PUSH1 0x20 ADD SWAP1 DUP2 MSTORE PUSH1 0x20 ADD PUSH0 KECCAK256 DUP5 DUP2 SLOAD DUP2 LT PUSH2 0x110F JUMPI PUSH2 0x110E PUSH2 0x33C3 JUMP JUMPDEST JUMPDEST SWAP1 PUSH0 MSTORE PUSH1 0x20 PUSH0 KECCAK256 SWAP1 PUSH1 0x4 MUL ADD PUSH0 ADD PUSH0 SWAP1 SLOAD SWAP1 PUSH2 0x100 EXP SWAP1 DIV PUSH20 0xFFFFFFFFFFFFFFFFFFFFFFFFFFFFFFFFFFFFFFFF AND PUSH20 0xFFFFFFFFFFFFFFFFFFFFFFFFFFFFFFFFFFFFFFFF AND EQ PUSH2 0x1193 JUMPI PUSH1 0x40 MLOAD PUSH32 0x8C379A000000000000000000000000000000000000000000000000000000000 DUP2 MSTORE PUSH1 0x4 ADD PUSH2 0x118A SWAP1 PUSH2 0x3817 JUMP JUMPDEST PUSH1 0x40 MLOAD DUP1 SWAP2 SUB SWAP1 REVERT JUMPDEST PUSH1 0x1 ISZERO ISZERO PUSH1 0x5 PUSH0 DUP7 DUP2 MSTORE PUSH1 0x20 ADD SWAP1 DUP2 MSTORE PUSH1 0x20 ADD PUSH0 KECCAK256 DUP5 DUP2 SLOAD DUP2 LT PUSH2 0x11BA JUMPI PUSH2 0x11B9 PUSH2 0x33C3 JUMP JUMPDEST JUMPDEST SWAP1 PUSH0 MSTORE PUSH1 0x20 PUSH0 KECCAK256 SWAP1 PUSH1 0x4 MUL ADD PUSH1 0x3 ADD PUSH0 SWAP1 SLOAD SWAP1 PUSH2 0x100 EXP SWAP1 DIV PUSH1 0xFF AND ISZERO ISZERO EQ PUSH2 0x1218 JUMPI PUSH1 0x40 MLOAD PUSH32 0x8C379A000000000000000000000000000000000000000000000000000000000 DUP2 MSTORE PUSH1 0x4 ADD PUSH2 0x120F SWAP1 PUSH2 0x38A5 JUMP JUMPDEST PUSH1 0x40 MLOAD DUP1 SWAP2 SUB SWAP1 REVERT JUMPDEST PUSH1 0x5 PUSH0 DUP6 DUP2 MSTORE PUSH1 0x20 ADD SWAP1 DUP2 MSTORE PUSH1 0x20 ADD PUSH0 KECCAK256 DUP4 DUP2 SLOAD DUP2 LT PUSH2 0x123B JUMPI PUSH2 0x123A PUSH2 0x33C3 JUMP JUMPDEST JUMPDEST SWAP1 PUSH0 MSTORE PUSH1 0x20 PUSH0 KECCAK256 SWAP1 PUSH1 0x4 MUL ADD PUSH1 0x3 ADD PUSH1 0x1 SWAP1 SLOAD SWAP1 PUSH2 0x100 EXP SWAP1 DIV PUSH1 0xFF AND ISZERO PUSH2 0x1298 JUMPI PUSH1 0x40 MLOAD PUSH32 0x8C379A000000000000000000000000000000000000000000000000000000000 DUP2 MSTORE PUSH1 0x4 ADD PUSH2 0x128F SWAP1 PUSH2 0x390D JUMP JUMPDEST PUSH1 0x40 MLOAD DUP1 SWAP2 SUB SWAP1 REVERT JUMPDEST PUSH0 DUP2 PUSH1 0x4 ADD SLOAD PUSH1 0x5 PUSH0 DUP8 DUP2 MSTORE PUSH1 0x20 ADD SWAP1 DUP2 MSTORE PUSH1 0x20 ADD PUSH0 KECCAK256 DUP6 DUP2 SLOAD DUP2 LT PUSH2 0x12C1 JUMPI PUSH2 0x12C0 PUSH2 0x33C3 JUMP JUMPDEST JUMPDEST SWAP1 PUSH0 MSTORE PUSH1 0x20 PUSH0 KECCAK256 SWAP1 PUSH1 0x4 MUL ADD PUSH1 0x1 ADD SLOAD PUSH2 0x12DB SWAP2 SWAP1 PUSH2 0x3613 JUMP JUMPDEST SWAP1 POP PUSH1 0x1 PUSH1 0x5 PUSH0 DUP8 DUP2 MSTORE PUSH1 0x20 ADD SWAP1 DUP2 MSTORE PUSH1 0x20 ADD PUSH0 KECCAK256 DUP6 DUP2 SLOAD DUP2 LT PUSH2 0x1302 JUMPI PUSH2 0x1301 PUSH2 0x33C3 JUMP JUMPDEST JUMPDEST SWAP1 PUSH0 MSTORE PUSH1 0x20 PUSH0 KECCAK256 SWAP1 PUSH1 0x4 MUL ADD PUSH1 0x3 ADD PUSH1 0x1 PUSH2 0x100 EXP DUP2 SLOAD DUP2 PUSH1 0xFF MUL NOT AND SWAP1 DUP4 ISZERO ISZERO MUL OR SWAP1 SSTORE POP PUSH0 DUP1 SLOAD SWAP1 PUSH2 0x100 EXP SWAP1 DIV PUSH20 0xFFFFFFFFFFFFFFFFFFFFFFFFFFFFFFFFFFFFFFFF AND PUSH20 0xFFFFFFFFFFFFFFFFFFFFFFFFFFFFFFFFFFFFFFFF AND PUSH4 0xA9059CBB CALLER DUP4 PUSH1 0x40 MLOAD DUP4 PUSH4 0xFFFFFFFF AND PUSH1 0xE0 SHL DUP2 MSTORE PUSH1 0x4 ADD PUSH2 0x1382 SWAP3 SWAP2 SWAP1 PUSH2 0x392B JUMP JUMPDEST PUSH1 0x20 PUSH1 0x40 MLOAD DUP1 DUP4 SUB DUP2 PUSH0 DUP8 GAS CALL ISZERO DUP1 ISZERO PUSH2 0x139E JUMPI RETURNDATASIZE PUSH0 DUP1 RETURNDATACOPY RETURNDATASIZE PUSH0 REVERT JUMPDEST POP POP POP POP PUSH1 0x40 MLOAD RETURNDATASIZE PUSH1 0x1F NOT PUSH1 0x1F DUP3 ADD AND DUP3 ADD DUP1 PUSH1 0x40 MSTORE POP DUP2 ADD SWAP1 PUSH2 0x13C2 SWAP2 SWAP1 PUSH2 0x397C JUMP JUMPDEST PUSH2 0x1401 JUMPI PUSH1 0x40 MLOAD PUSH32 0x8C379A000000000000000000000000000000000000000000000000000000000 DUP2 MSTORE PUSH1 0x4 ADD PUSH2 0x13F8 SWAP1 PUSH2 0x39F1 JUMP JUMPDEST PUSH1 0x40 MLOAD DUP1 SWAP2 SUB SWAP1 REVERT JUMPDEST POP POP POP POP POP JUMP JUMPDEST PUSH1 0x2 PUSH0 SWAP1 SLOAD SWAP1 PUSH2 0x100 EXP SWAP1 DIV PUSH20 0xFFFFFFFFFFFFFFFFFFFFFFFFFFFFFFFFFFFFFFFF AND PUSH20 0xFFFFFFFFFFFFFFFFFFFFFFFFFFFFFFFFFFFFFFFF AND CALLER PUSH20 0xFFFFFFFFFFFFFFFFFFFFFFFFFFFFFFFFFFFFFFFF AND EQ PUSH2 0x1497 JUMPI PUSH1 0x40 MLOAD PUSH32 0x8C379A000000000000000000000000000000000000000000000000000000000 DUP2 MSTORE PUSH1 0x4 ADD PUSH2 0x148E SWAP1 PUSH2 0x3A7F JUMP JUMPDEST PUSH1 0x40 MLOAD DUP1 SWAP2 SUB SWAP1 REVERT JUMPDEST PUSH0 PUSH20 0xFFFFFFFFFFFFFFFFFFFFFFFFFFFFFFFFFFFFFFFF AND DUP2 PUSH20 0xFFFFFFFFFFFFFFFFFFFFFFFFFFFFFFFFFFFFFFFF AND SUB PUSH2 0x14CE JUMPI PUSH0 DUP1 REVERT JUMPDEST DUP1 PUSH0 DUP1 PUSH2 0x100 EXP DUP2 SLOAD DUP2 PUSH20 0xFFFFFFFFFFFFFFFFFFFFFFFFFFFFFFFFFFFFFFFF MUL NOT AND SWAP1 DUP4 PUSH20 0xFFFFFFFFFFFFFFFFFFFFFFFFFFFFFFFFFFFFFFFF AND MUL OR SWAP1 SSTORE POP POP JUMP JUMPDEST PUSH0 DUP1 PUSH0 DUP1 PUSH0 PUSH1 0x3 SLOAD DUP7 GT ISZERO PUSH2 0x1523 JUMPI PUSH0 DUP1 REVERT JUMPDEST PUSH0 DUP7 GT PUSH2 0x152E JUMPI PUSH0 DUP1 REVERT JUMPDEST PUSH0 PUSH1 0x1 DUP8 PUSH2 0x153C SWAP2 SWAP1 PUSH2 0x3328 JUMP JUMPDEST SWAP1 POP PUSH0 PUSH1 0x4 DUP3 DUP2 SLOAD DUP2 LT PUSH2 0x1553 JUMPI PUSH2 0x1552 PUSH2 0x33C3 JUMP JUMPDEST JUMPDEST SWAP1 PUSH0 MSTORE PUSH1 0x20 PUSH0 KECCAK256 SWAP1 PUSH1 0xD MUL ADD SWAP1 POP DUP1 PUSH0 ADD SLOAD DUP2 PUSH1 0x1 ADD SLOAD DUP3 PUSH1 0x2 ADD SLOAD DUP4 PUSH1 0x3 ADD SLOAD DUP5 PUSH1 0x4 ADD SLOAD SWAP7 POP SWAP7 POP SWAP7 POP SWAP7 POP SWAP7 POP POP POP SWAP2 SWAP4 SWAP6 SWAP1 SWAP3 SWAP5 POP JUMP JUMPDEST PUSH0 PUSH1 0x2 PUSH0 SWAP1 SLOAD SWAP1 PUSH2 0x100 EXP SWAP1 DIV PUSH20 0xFFFFFFFFFFFFFFFFFFFFFFFFFFFFFFFFFFFFFFFF AND PUSH20 0xFFFFFFFFFFFFFFFFFFFFFFFFFFFFFFFFFFFFFFFF AND CALLER PUSH20 0xFFFFFFFFFFFFFFFFFFFFFFFFFFFFFFFFFFFFFFFF AND EQ PUSH2 0x161E JUMPI PUSH1 0x40 MLOAD PUSH32 0x8C379A000000000000000000000000000000000000000000000000000000000 DUP2 MSTORE PUSH1 0x4 ADD PUSH2 0x1615 SWAP1 PUSH2 0x3A7F JUMP JUMPDEST PUSH1 0x40 MLOAD DUP1 SWAP2 SUB SWAP1 REVERT JUMPDEST PUSH0 DUP7 GT PUSH2 0x1629 JUMPI PUSH0 DUP1 REVERT JUMPDEST PUSH1 0x64 DUP6 GT ISZERO PUSH2 0x1636 JUMPI PUSH0 DUP1 REVERT JUMPDEST PUSH0 TIMESTAMP SWAP1 POP DUP1 DUP10 GT PUSH2 0x1645 JUMPI PUSH0 DUP1 REVERT JUMPDEST PUSH1 0x3 PUSH0 DUP2 SLOAD DUP1 SWAP3 SWAP2 SWAP1 PUSH2 0x1657 SWAP1 PUSH2 0x3A9D JUMP JUMPDEST SWAP2 SWAP1 POP SSTORE POP PUSH1 0x4 PUSH1 0x40 MLOAD DUP1 PUSH2 0x1A0 ADD PUSH1 0x40 MSTORE DUP1 DUP12 DUP2 MSTORE PUSH1 0x20 ADD DUP11 DUP2 MSTORE PUSH1 0x20 ADD DUP10 DUP2 MSTORE PUSH1 0x20 ADD DUP9 DUP2 MSTORE PUSH1 0x20 ADD DUP8 DUP2 MSTORE PUSH1 0x20 ADD DUP7 DUP2 MSTORE PUSH1 0x20 ADD DUP6 DUP2 MSTORE PUSH1 0x20 ADD PUSH1 0x2 DUP5 DUP14 PUSH2 0x16A2 SWAP2 SWAP1 PUSH2 0x3328 JUMP JUMPDEST PUSH2 0x16AC SWAP2 SWAP1 PUSH2 0x3681 JUMP JUMPDEST DUP5 PUSH2 0x16B7 SWAP2 SWAP1 PUSH2 0x3AE4 JUMP JUMPDEST DUP2 MSTORE PUSH1 0x20 ADD PUSH0 PUSH1 0x3 DUP2 GT ISZERO PUSH2 0x16CF JUMPI PUSH2 0x16CE PUSH2 0x2CB2 JUMP JUMPDEST JUMPDEST DUP2 MSTORE PUSH1 0x20 ADD PUSH0 DUP2 MSTORE PUSH1 0x20 ADD PUSH0 DUP2 MSTORE PUSH1 0x20 ADD PUSH0 DUP2 MSTORE PUSH1 0x20 ADD DUP10 PUSH8 0xFFFFFFFFFFFFFFFF DUP2 GT ISZERO PUSH2 0x1700 JUMPI PUSH2 0x16FF PUSH2 0x2F9C JUMP JUMPDEST JUMPDEST PUSH1 0x40 MLOAD SWAP1 DUP1 DUP3 MSTORE DUP1 PUSH1 0x20 MUL PUSH1 0x20 ADD DUP3 ADD PUSH1 0x40 MSTORE DUP1 ISZERO PUSH2 0x172E JUMPI DUP2 PUSH1 0x20 ADD PUSH1 0x20 DUP3 MUL DUP1 CALLDATASIZE DUP4 CALLDATACOPY DUP1 DUP3 ADD SWAP2 POP POP SWAP1 POP JUMPDEST POP DUP2 MSTORE POP SWAP1 DUP1 PUSH1 0x1 DUP2 SLOAD ADD DUP1 DUP3 SSTORE DUP1 SWAP2 POP POP PUSH1 0x1 SWAP1 SUB SWAP1 PUSH0 MSTORE PUSH1 0x20 PUSH0 KECCAK256 SWAP1 PUSH1 0xD MUL ADD PUSH0 SWAP1 SWAP2 SWAP1 SWAP2 SWAP1 SWAP2 POP PUSH0 DUP3 ADD MLOAD DUP2 PUSH0 ADD SSTORE PUSH1 0x20 DUP3 ADD MLOAD DUP2 PUSH1 0x1 ADD SSTORE PUSH1 0x40 DUP3 ADD MLOAD DUP2 PUSH1 0x2 ADD SSTORE PUSH1 0x60 DUP3 ADD MLOAD DUP2 PUSH1 0x3 ADD SSTORE PUSH1 0x80 DUP3 ADD MLOAD DUP2 PUSH1 0x4 ADD SSTORE PUSH1 0xA0 DUP3 ADD MLOAD DUP2 PUSH1 0x5 ADD SSTORE PUSH1 0xC0 DUP3 ADD MLOAD DUP2 PUSH1 0x6 ADD SWAP1 DUP2 PUSH2 0x17A7 SWAP2 SWAP1 PUSH2 0x3CAB JUMP JUMPDEST POP PUSH1 0xE0 DUP3 ADD MLOAD DUP2 PUSH1 0x7 ADD SSTORE PUSH2 0x100 DUP3 ADD MLOAD DUP2 PUSH1 0x8 ADD PUSH0 PUSH2 0x100 EXP DUP2 SLOAD DUP2 PUSH1 0xFF MUL NOT AND SWAP1 DUP4 PUSH1 0x3 DUP2 GT ISZERO PUSH2 0x17DD JUMPI PUSH2 0x17DC PUSH2 0x2CB2 JUMP JUMPDEST JUMPDEST MUL OR SWAP1 SSTORE POP PUSH2 0x120 DUP3 ADD MLOAD DUP2 PUSH1 0x9 ADD SSTORE PUSH2 0x140 DUP3 ADD MLOAD DUP2 PUSH1 0xA ADD SSTORE PUSH2 0x160 DUP3 ADD MLOAD DUP2 PUSH1 0xB ADD SSTORE PUSH2 0x180 DUP3 ADD MLOAD DUP2 PUSH1 0xC ADD SWAP1 DUP1 MLOAD SWAP1 PUSH1 0x20 ADD SWAP1 PUSH2 0x1820 SWAP3 SWAP2 SWAP1 PUSH2 0x2ABC JUMP JUMPDEST POP POP POP PUSH32 0xBCAB9AF3175C8A9D53B9308A82EE378A84C65B0C22E3DFEA2AFAC802C73A078A PUSH1 0x3 SLOAD DUP11 DUP11 PUSH1 0x40 MLOAD PUSH2 0x1858 SWAP4 SWAP3 SWAP2 SWAP1 PUSH2 0x3D7A JUMP JUMPDEST PUSH1 0x40 MLOAD DUP1 SWAP2 SUB SWAP1 LOG1 PUSH1 0x3 SLOAD SWAP2 POP POP SWAP8 SWAP7 POP POP POP POP POP POP POP JUMP JUMPDEST PUSH0 DUP1 PUSH1 0x5 PUSH0 DUP5 DUP2 MSTORE PUSH1 0x20 ADD SWAP1 DUP2 MSTORE PUSH1 0x20 ADD PUSH0 KECCAK256 DUP1 SLOAD SWAP1 POP DUP5 GT ISZERO PUSH2 0x1893 JUMPI PUSH0 DUP1 REVERT JUMPDEST PUSH0 PUSH1 0x5 PUSH0 DUP6 DUP2 MSTORE PUSH1 0x20 ADD SWAP1 DUP2 MSTORE PUSH1 0x20 ADD PUSH0 KECCAK256 DUP6 DUP2 SLOAD DUP2 LT PUSH2 0x18B7 JUMPI PUSH2 0x18B6 PUSH2 0x33C3 JUMP JUMPDEST JUMPDEST SWAP1 PUSH0 MSTORE PUSH1 0x20 PUSH0 KECCAK256 SWAP1 PUSH1 0x4 MUL ADD SWAP1 POP DUP5 DUP2 PUSH1 0x1 ADD SLOAD SWAP3 POP SWAP3 POP POP SWAP3 POP SWAP3 SWAP1 POP JUMP JUMPDEST PUSH1 0x2 PUSH0 SWAP1 SLOAD SWAP1 PUSH2 0x100 EXP SWAP1 DIV PUSH20 0xFFFFFFFFFFFFFFFFFFFFFFFFFFFFFFFFFFFFFFFF AND DUP2 JUMP JUMPDEST PUSH0 DUP4 GT PUSH2 0x1907 JUMPI PUSH0 DUP1 REVERT JUMPDEST PUSH0 PUSH1 0x1 DUP5 PUSH2 0x1915 SWAP2 SWAP1 PUSH2 0x3328 JUMP JUMPDEST SWAP1 POP PUSH1 0x1 PUSH1 0x3 DUP2 GT ISZERO PUSH2 0x192B JUMPI PUSH2 0x192A PUSH2 0x2CB2 JUMP JUMPDEST JUMPDEST PUSH1 0x4 DUP3 DUP2 SLOAD DUP2 LT PUSH2 0x193F JUMPI PUSH2 0x193E PUSH2 0x33C3 JUMP JUMPDEST JUMPDEST SWAP1 PUSH0 MSTORE PUSH1 0x20 PUSH0 KECCAK256 SWAP1 PUSH1 0xD MUL ADD PUSH1 0x8 ADD PUSH0 SWAP1 SLOAD SWAP1 PUSH2 0x100 EXP SWAP1 DIV PUSH1 0xFF AND PUSH1 0x3 DUP2 GT ISZERO PUSH2 0x196D JUMPI PUSH2 0x196C PUSH2 0x2CB2 JUMP JUMPDEST JUMPDEST EQ PUSH2 0x19AD JUMPI PUSH1 0x40 MLOAD PUSH32 0x8C379A000000000000000000000000000000000000000000000000000000000 DUP2 MSTORE PUSH1 0x4 ADD PUSH2 0x19A4 SWAP1 PUSH2 0x3DF9 JUMP JUMPDEST PUSH1 0x40 MLOAD DUP1 SWAP2 SUB SWAP1 REVERT JUMPDEST PUSH1 0x5 PUSH0 DUP6 DUP2 MSTORE PUSH1 0x20 ADD SWAP1 DUP2 MSTORE PUSH1 0x20 ADD PUSH0 KECCAK256 DUP1 SLOAD SWAP1 POP DUP4 GT ISZERO PUSH2 0x1A04 JUMPI PUSH1 0x40 MLOAD PUSH32 0x8C379A000000000000000000000000000000000000000000000000000000000 DUP2 MSTORE PUSH1 0x4 ADD PUSH2 0x19FB SWAP1 PUSH2 0x3E61 JUMP JUMPDEST PUSH1 0x40 MLOAD DUP1 SWAP2 SUB SWAP1 REVERT JUMPDEST PUSH1 0x5 PUSH0 DUP6 DUP2 MSTORE PUSH1 0x20 ADD SWAP1 DUP2 MSTORE PUSH1 0x20 ADD PUSH0 KECCAK256 DUP4 DUP2 SLOAD DUP2 LT PUSH2 0x1A27 JUMPI PUSH2 0x1A26 PUSH2 0x33C3 JUMP JUMPDEST JUMPDEST SWAP1 PUSH0 MSTORE PUSH1 0x20 PUSH0 KECCAK256 SWAP1 PUSH1 0x4 MUL ADD PUSH1 0x3 ADD PUSH0 SWAP1 SLOAD SWAP1 PUSH2 0x100 EXP SWAP1 DIV PUSH1 0xFF AND ISZERO PUSH2 0x1A83 JUMPI PUSH1 0x40 MLOAD PUSH32 0x8C379A000000000000000000000000000000000000000000000000000000000 DUP2 MSTORE PUSH1 0x4 ADD PUSH2 0x1A7A SWAP1 PUSH2 0x3EC9 JUMP JUMPDEST PUSH1 0x40 MLOAD DUP1 SWAP2 SUB SWAP1 REVERT JUMPDEST PUSH0 DUP3 PUSH1 0x40 MLOAD PUSH1 0x20 ADD PUSH2 0x1A95 SWAP2 SWAP1 PUSH2 0x3F07 JUMP JUMPDEST PUSH1 0x40 MLOAD PUSH1 0x20 DUP2 DUP4 SUB SUB DUP2 MSTORE SWAP1 PUSH1 0x40 MSTORE DUP1 MLOAD SWAP1 PUSH1 0x20 ADD KECCAK256 SWAP1 POP DUP1 CALLER PUSH1 0x40 MLOAD PUSH1 0x20 ADD PUSH2 0x1AC0 SWAP3 SWAP2 SWAP1 PUSH2 0x3F86 JUMP JUMPDEST PUSH1 0x40 MLOAD PUSH1 0x20 DUP2 DUP4 SUB SUB DUP2 MSTORE SWAP1 PUSH1 0x40 MSTORE DUP1 MLOAD SWAP1 PUSH1 0x20 ADD KECCAK256 PUSH1 0x5 PUSH0 DUP8 DUP2 MSTORE PUSH1 0x20 ADD SWAP1 DUP2 MSTORE PUSH1 0x20 ADD PUSH0 KECCAK256 DUP6 DUP2 SLOAD DUP2 LT PUSH2 0x1AF9 JUMPI PUSH2 0x1AF8 PUSH2 0x33C3 JUMP JUMPDEST JUMPDEST SWAP1 PUSH0 MSTORE PUSH1 0x20 PUSH0 KECCAK256 SWAP1 PUSH1 0x4 MUL ADD PUSH1 0x2 ADD SLOAD EQ PUSH2 0x1B49 JUMPI PUSH1 0x40 MLOAD PUSH32 0x8C379A000000000000000000000000000000000000000000000000000000000 DUP2 MSTORE PUSH1 0x4 ADD PUSH2 0x1B40 SWAP1 PUSH2 0x3FFB JUMP JUMPDEST PUSH1 0x40 MLOAD DUP1 SWAP2 SUB SWAP1 REVERT JUMPDEST PUSH1 0x1 PUSH1 0x5 PUSH0 DUP8 DUP2 MSTORE PUSH1 0x20 ADD SWAP1 DUP2 MSTORE PUSH1 0x20 ADD PUSH0 KECCAK256 DUP6 DUP2 SLOAD DUP2 LT PUSH2 0x1B6E JUMPI PUSH2 0x1B6D PUSH2 0x33C3 JUMP JUMPDEST JUMPDEST SWAP1 PUSH0 MSTORE PUSH1 0x20 PUSH0 KECCAK256 SWAP1 PUSH1 0x4 MUL ADD PUSH1 0x3 ADD PUSH0 PUSH2 0x100 EXP DUP2 SLOAD DUP2 PUSH1 0xFF MUL NOT AND SWAP1 DUP4 ISZERO ISZERO MUL OR SWAP1 SSTORE POP DUP3 PUSH1 0x4 DUP4 DUP2 SLOAD DUP2 LT PUSH2 0x1BA8 JUMPI PUSH2 0x1BA7 PUSH2 0x33C3 JUMP JUMPDEST JUMPDEST SWAP1 PUSH0 MSTORE PUSH1 0x20 PUSH0 KECCAK256 SWAP1 PUSH1 0xD MUL ADD PUSH1 0xB ADD PUSH0 DUP3 DUP3 SLOAD XOR SWAP3 POP POP DUP2 SWAP1 SSTORE POP POP POP POP POP POP JUMP JUMPDEST PUSH1 0x1 PUSH0 SWAP1 SLOAD SWAP1 PUSH2 0x100 EXP SWAP1 DIV PUSH20 0xFFFFFFFFFFFFFFFFFFFFFFFFFFFFFFFFFFFFFFFF AND DUP2 JUMP JUMPDEST PUSH1 0x2 PUSH0 SWAP1 SLOAD SWAP1 PUSH2 0x100 EXP SWAP1 DIV PUSH20 0xFFFFFFFFFFFFFFFFFFFFFFFFFFFFFFFFFFFFFFFF AND PUSH20 0xFFFFFFFFFFFFFFFFFFFFFFFFFFFFFFFFFFFFFFFF AND CALLER PUSH20 0xFFFFFFFFFFFFFFFFFFFFFFFFFFFFFFFFFFFFFFFF AND EQ PUSH2 0x1C7E JUMPI PUSH1 0x40 MLOAD PUSH32 0x8C379A000000000000000000000000000000000000000000000000000000000 DUP2 MSTORE PUSH1 0x4 ADD PUSH2 0x1C75 SWAP1 PUSH2 0x3A7F JUMP JUMPDEST PUSH1 0x40 MLOAD DUP1 SWAP2 SUB SWAP1 REVERT JUMPDEST PUSH1 0x3 SLOAD DUP2 GT ISZERO PUSH2 0x1C8C JUMPI PUSH0 DUP1 REVERT JUMPDEST PUSH0 DUP2 GT PUSH2 0x1C97 JUMPI PUSH0 DUP1 REVERT JUMPDEST PUSH0 PUSH1 0x1 DUP3 PUSH2 0x1CA5 SWAP2 SWAP1 PUSH2 0x3328 JUMP JUMPDEST SWAP1 POP PUSH1 0x2 PUSH1 0x3 DUP2 GT ISZERO PUSH2 0x1CBB JUMPI PUSH2 0x1CBA PUSH2 0x2CB2 JUMP JUMPDEST JUMPDEST PUSH1 0x4 DUP3 DUP2 SLOAD DUP2 LT PUSH2 0x1CCF JUMPI PUSH2 0x1CCE PUSH2 0x33C3 JUMP JUMPDEST JUMPDEST SWAP1 PUSH0 MSTORE PUSH1 0x20 PUSH0 KECCAK256 SWAP1 PUSH1 0xD MUL ADD PUSH1 0x8 ADD PUSH0 SWAP1 SLOAD SWAP1 PUSH2 0x100 EXP SWAP1 DIV PUSH1 0xFF AND PUSH1 0x3 DUP2 GT ISZERO PUSH2 0x1CFD JUMPI PUSH2 0x1CFC PUSH2 0x2CB2 JUMP JUMPDEST JUMPDEST EQ PUSH2 0x1D3D JUMPI PUSH1 0x40 MLOAD PUSH32 0x8C379A000000000000000000000000000000000000000000000000000000000 DUP2 MSTORE PUSH1 0x4 ADD PUSH2 0x1D34 SWAP1 PUSH2 0x4063 JUMP JUMPDEST PUSH1 0x40 MLOAD DUP1 SWAP2 SUB SWAP1 REVERT JUMPDEST PUSH0 PUSH1 0x4 DUP3 DUP2 SLOAD DUP2 LT PUSH2 0x1D52 JUMPI PUSH2 0x1D51 PUSH2 0x33C3 JUMP JUMPDEST JUMPDEST SWAP1 PUSH0 MSTORE PUSH1 0x20 PUSH0 KECCAK256 SWAP1 PUSH1 0xD MUL ADD SWAP1 POP PUSH0 DUP2 PUSH1 0x4 ADD SLOAD DUP3 PUSH1 0x9 ADD SLOAD PUSH2 0x1D75 SWAP2 SWAP1 PUSH2 0x3613 JUMP JUMPDEST SWAP1 POP PUSH0 DUP1 PUSH0 SWAP1 SLOAD SWAP1 PUSH2 0x100 EXP SWAP1 DIV PUSH20 0xFFFFFFFFFFFFFFFFFFFFFFFFFFFFFFFFFFFFFFFF AND PUSH20 0xFFFFFFFFFFFFFFFFFFFFFFFFFFFFFFFFFFFFFFFF AND PUSH4 0x70A08231 ADDRESS PUSH1 0x40 MLOAD DUP3 PUSH4 0xFFFFFFFF AND PUSH1 0xE0 SHL DUP2 MSTORE PUSH1 0x4 ADD PUSH2 0x1DD1 SWAP2 SWAP1 PUSH2 0x31A0 JUMP JUMPDEST PUSH1 0x20 PUSH1 0x40 MLOAD DUP1 DUP4 SUB DUP2 DUP7 GAS STATICCALL ISZERO DUP1 ISZERO PUSH2 0x1DEC JUMPI RETURNDATASIZE PUSH0 DUP1 RETURNDATACOPY RETURNDATASIZE PUSH0 REVERT JUMPDEST POP POP POP POP PUSH1 0x40 MLOAD RETURNDATASIZE PUSH1 0x1F NOT PUSH1 0x1F DUP3 ADD AND DUP3 ADD DUP1 PUSH1 0x40 MSTORE POP DUP2 ADD SWAP1 PUSH2 0x1E10 SWAP2 SWAP1 PUSH2 0x4095 JUMP JUMPDEST SWAP1 POP DUP2 DUP2 LT ISZERO PUSH2 0x1E55 JUMPI PUSH1 0x40 MLOAD PUSH32 0x8C379A000000000000000000000000000000000000000000000000000000000 DUP2 MSTORE PUSH1 0x4 ADD PUSH2 0x1E4C SWAP1 PUSH2 0x410A JUMP JUMPDEST PUSH1 0x40 MLOAD DUP1 SWAP2 SUB SWAP1 REVERT JUMPDEST PUSH0 DUP1 SLOAD SWAP1 PUSH2 0x100 EXP SWAP1 DIV PUSH20 0xFFFFFFFFFFFFFFFFFFFFFFFFFFFFFFFFFFFFFFFF AND PUSH20 0xFFFFFFFFFFFFFFFFFFFFFFFFFFFFFFFFFFFFFFFF AND PUSH4 0xA9059CBB PUSH1 0x2 PUSH0 SWAP1 SLOAD SWAP1 PUSH2 0x100 EXP SWAP1 DIV PUSH20 0xFFFFFFFFFFFFFFFFFFFFFFFFFFFFFFFFFFFFFFFF AND DUP5 PUSH1 0x40 MLOAD DUP4 PUSH4 0xFFFFFFFF AND PUSH1 0xE0 SHL DUP2 MSTORE PUSH1 0x4 ADD PUSH2 0x1ED0 SWAP3 SWAP2 SWAP1 PUSH2 0x392B JUMP JUMPDEST PUSH1 0x20 PUSH1 0x40 MLOAD DUP1 DUP4 SUB DUP2 PUSH0 DUP8 GAS CALL ISZERO DUP1 ISZERO PUSH2 0x1EEC JUMPI RETURNDATASIZE PUSH0 DUP1 RETURNDATACOPY RETURNDATASIZE PUSH0 REVERT JUMPDEST POP POP POP POP PUSH1 0x40 MLOAD RETURNDATASIZE PUSH1 0x1F NOT PUSH1 0x1F DUP3 ADD AND DUP3 ADD DUP1 PUSH1 0x40 MSTORE POP DUP2 ADD SWAP1 PUSH2 0x1F10 SWAP2 SWAP1 PUSH2 0x397C JUMP JUMPDEST PUSH2 0x1F4F JUMPI PUSH1 0x40 MLOAD PUSH32 0x8C379A000000000000000000000000000000000000000000000000000000000 DUP2 MSTORE PUSH1 0x4 ADD PUSH2 0x1F46 SWAP1 PUSH2 0x4172 JUMP JUMPDEST PUSH1 0x40 MLOAD DUP1 SWAP2 SUB SWAP1 REVERT JUMPDEST POP POP POP POP POP JUMP JUMPDEST PUSH0 DUP1 DUP3 GT PUSH2 0x1F62 JUMPI PUSH0 DUP1 REVERT JUMPDEST PUSH0 PUSH1 0x1 DUP4 PUSH2 0x1F70 SWAP2 SWAP1 PUSH2 0x3328 JUMP JUMPDEST SWAP1 POP PUSH1 0x4 DUP2 DUP2 SLOAD DUP2 LT PUSH2 0x1F86 JUMPI PUSH2 0x1F85 PUSH2 0x33C3 JUMP JUMPDEST JUMPDEST SWAP1 PUSH0 MSTORE PUSH1 0x20 PUSH0 KECCAK256 SWAP1 PUSH1 0xD MUL ADD PUSH1 0xA ADD SLOAD SWAP2 POP POP SWAP2 SWAP1 POP JUMP JUMPDEST PUSH1 0x2 PUSH0 SWAP1 SLOAD SWAP1 PUSH2 0x100 EXP SWAP1 DIV PUSH20 0xFFFFFFFFFFFFFFFFFFFFFFFFFFFFFFFFFFFFFFFF AND PUSH20 0xFFFFFFFFFFFFFFFFFFFFFFFFFFFFFFFFFFFFFFFF AND CALLER PUSH20 0xFFFFFFFFFFFFFFFFFFFFFFFFFFFFFFFFFFFFFFFF AND EQ PUSH2 0x202D JUMPI PUSH1 0x40 MLOAD PUSH32 0x8C379A000000000000000000000000000000000000000000000000000000000 DUP2 MSTORE PUSH1 0x4 ADD PUSH2 0x2024 SWAP1 PUSH2 0x3A7F JUMP JUMPDEST PUSH1 0x40 MLOAD DUP1 SWAP2 SUB SWAP1 REVERT JUMPDEST PUSH1 0x3 SLOAD DUP2 GT ISZERO PUSH2 0x203B JUMPI PUSH0 DUP1 REVERT JUMPDEST PUSH0 DUP2 GT PUSH2 0x2046 JUMPI PUSH0 DUP1 REVERT JUMPDEST PUSH0 PUSH1 0x1 DUP3 PUSH2 0x2054 SWAP2 SWAP1 PUSH2 0x3328 JUMP JUMPDEST SWAP1 POP PUSH1 0x2 PUSH1 0x3 DUP2 GT ISZERO PUSH2 0x206A JUMPI PUSH2 0x2069 PUSH2 0x2CB2 JUMP JUMPDEST JUMPDEST PUSH1 0x4 DUP3 DUP2 SLOAD DUP2 LT PUSH2 0x207E JUMPI PUSH2 0x207D PUSH2 0x33C3 JUMP JUMPDEST JUMPDEST SWAP1 PUSH0 MSTORE PUSH1 0x20 PUSH0 KECCAK256 SWAP1 PUSH1 0xD MUL ADD PUSH1 0x8 ADD PUSH0 SWAP1 SLOAD SWAP1 PUSH2 0x100 EXP SWAP1 DIV PUSH1 0xFF AND PUSH1 0x3 DUP2 GT ISZERO PUSH2 0x20AC JUMPI PUSH2 0x20AB PUSH2 0x2CB2 JUMP JUMPDEST JUMPDEST EQ PUSH2 0x20EC JUMPI PUSH1 0x40 MLOAD PUSH32 0x8C379A000000000000000000000000000000000000000000000000000000000 DUP2 MSTORE PUSH1 0x4 ADD PUSH2 0x20E3 SWAP1 PUSH2 0x41DA JUMP JUMPDEST PUSH1 0x40 MLOAD DUP1 SWAP2 SUB SWAP1 REVERT JUMPDEST PUSH0 PUSH1 0x64 PUSH1 0x4 DUP4 DUP2 SLOAD DUP2 LT PUSH2 0x2103 JUMPI PUSH2 0x2102 PUSH2 0x33C3 JUMP JUMPDEST JUMPDEST SWAP1 PUSH0 MSTORE PUSH1 0x20 PUSH0 KECCAK256 SWAP1 PUSH1 0xD MUL ADD PUSH1 0x3 ADD SLOAD PUSH1 0x4 DUP5 DUP2 SLOAD DUP2 LT PUSH2 0x2127 JUMPI PUSH2 0x2126 PUSH2 0x33C3 JUMP JUMPDEST JUMPDEST SWAP1 PUSH0 MSTORE PUSH1 0x20 PUSH0 KECCAK256 SWAP1 PUSH1 0xD MUL ADD PUSH1 0x1 ADD SLOAD PUSH2 0x2141 SWAP2 SWAP1 PUSH2 0x3613 JUMP JUMPDEST PUSH2 0x214B SWAP2 SWAP1 PUSH2 0x3681 JUMP JUMPDEST SWAP1 POP DUP1 PUSH1 0x4 DUP4 DUP2 SLOAD DUP2 LT PUSH2 0x2162 JUMPI PUSH2 0x2161 PUSH2 0x33C3 JUMP JUMPDEST JUMPDEST SWAP1 PUSH0 MSTORE PUSH1 0x20 PUSH0 KECCAK256 SWAP1 PUSH1 0xD MUL ADD PUSH1 0x9 ADD SLOAD LT ISZERO PUSH2 0x21B3 JUMPI PUSH1 0x40 MLOAD PUSH32 0x8C379A000000000000000000000000000000000000000000000000000000000 DUP2 MSTORE PUSH1 0x4 ADD PUSH2 0x21AA SWAP1 PUSH2 0x4242 JUMP JUMPDEST PUSH1 0x40 MLOAD DUP1 SWAP2 SUB SWAP1 REVERT JUMPDEST PUSH0 PUSH1 0x4 DUP4 DUP2 SLOAD DUP2 LT PUSH2 0x21C8 JUMPI PUSH2 0x21C7 PUSH2 0x33C3 JUMP JUMPDEST JUMPDEST SWAP1 PUSH0 MSTORE PUSH1 0x20 PUSH0 KECCAK256 SWAP1 PUSH1 0xD MUL ADD PUSH1 0x9 ADD SLOAD SWAP1 POP PUSH0 PUSH1 0x4 DUP5 DUP2 SLOAD DUP2 LT PUSH2 0x21EF JUMPI PUSH2 0x21EE PUSH2 0x33C3 JUMP JUMPDEST JUMPDEST SWAP1 PUSH0 MSTORE PUSH1 0x20 PUSH0 KECCAK256 SWAP1 PUSH1 0xD MUL ADD PUSH1 0x2 ADD SLOAD SWAP1 POP PUSH0 PUSH1 0x4 DUP6 DUP2 SLOAD DUP2 LT PUSH2 0x2216 JUMPI PUSH2 0x2215 PUSH2 0x33C3 JUMP JUMPDEST JUMPDEST SWAP1 PUSH0 MSTORE PUSH1 0x20 PUSH0 KECCAK256 SWAP1 PUSH1 0xD MUL ADD PUSH1 0xB ADD SLOAD SWAP1 POP PUSH0 JUMPDEST DUP3 DUP2 LT ISZERO PUSH2 0x2359 JUMPI PUSH0 DUP5 DUP4 DUP4 PUSH1 0x40 MLOAD PUSH1 0x20 ADD PUSH2 0x2247 SWAP3 SWAP2 SWAP1 PUSH2 0x4260 JUMP JUMPDEST PUSH1 0x40 MLOAD PUSH1 0x20 DUP2 DUP4 SUB SUB DUP2 MSTORE SWAP1 PUSH1 0x40 MSTORE DUP1 MLOAD SWAP1 PUSH1 0x20 ADD KECCAK256 PUSH0 SHR PUSH2 0x2269 SWAP2 SWAP1 PUSH2 0x428B JUMP JUMPDEST SWAP1 POP JUMPDEST PUSH2 0x22E5 PUSH1 0x4 DUP9 DUP2 SLOAD DUP2 LT PUSH2 0x2283 JUMPI PUSH2 0x2282 PUSH2 0x33C3 JUMP JUMPDEST JUMPDEST SWAP1 PUSH0 MSTORE PUSH1 0x20 PUSH0 KECCAK256 SWAP1 PUSH1 0xD MUL ADD PUSH1 0xC ADD DUP1 SLOAD DUP1 PUSH1 0x20 MUL PUSH1 0x20 ADD PUSH1 0x40 MLOAD SWAP1 DUP2 ADD PUSH1 0x40 MSTORE DUP1 SWAP3 SWAP2 SWAP1 DUP2 DUP2 MSTORE PUSH1 0x20 ADD DUP3 DUP1 SLOAD DUP1 ISZERO PUSH2 0x22DA JUMPI PUSH1 0x20 MUL DUP3 ADD SWAP2 SWAP1 PUSH0 MSTORE PUSH1 0x20 PUSH0 KECCAK256 SWAP1 JUMPDEST DUP2 SLOAD DUP2 MSTORE PUSH1 0x20 ADD SWAP1 PUSH1 0x1 ADD SWAP1 DUP1 DUP4 GT PUSH2 0x22C6 JUMPI JUMPDEST POP POP POP POP POP DUP3 PUSH2 0x2A6A JUMP JUMPDEST ISZERO PUSH2 0x2309 JUMPI DUP5 PUSH1 0x1 DUP3 PUSH2 0x22F8 SWAP2 SWAP1 PUSH2 0x3AE4 JUMP JUMPDEST PUSH2 0x2302 SWAP2 SWAP1 PUSH2 0x428B JUMP JUMPDEST SWAP1 POP PUSH2 0x226C JUMP JUMPDEST DUP1 PUSH1 0x4 DUP9 DUP2 SLOAD DUP2 LT PUSH2 0x231E JUMPI PUSH2 0x231D PUSH2 0x33C3 JUMP JUMPDEST JUMPDEST SWAP1 PUSH0 MSTORE PUSH1 0x20 PUSH0 KECCAK256 SWAP1 PUSH1 0xD MUL ADD PUSH1 0xC ADD DUP4 DUP2 SLOAD DUP2 LT PUSH2 0x233F JUMPI PUSH2 0x233E PUSH2 0x33C3 JUMP JUMPDEST JUMPDEST SWAP1 PUSH0 MSTORE PUSH1 0x20 PUSH0 KECCAK256 ADD DUP2 SWAP1 SSTORE POP POP DUP1 DUP1 PUSH1 0x1 ADD SWAP2 POP POP PUSH2 0x222A JUMP JUMPDEST POP PUSH32 0xDCD4C188264D71A205A9AF0B423E86ACD556683D1EB112389101B992CE0188A5 DUP7 PUSH1 0x4 DUP8 DUP2 SLOAD DUP2 LT PUSH2 0x2390 JUMPI PUSH2 0x238F PUSH2 0x33C3 JUMP JUMPDEST JUMPDEST SWAP1 PUSH0 MSTORE PUSH1 0x20 PUSH0 KECCAK256 SWAP1 PUSH1 0xD MUL ADD PUSH1 0xC ADD PUSH1 0x40 MLOAD PUSH2 0x23AD SWAP3 SWAP2 SWAP1 PUSH2 0x43BB JUMP JUMPDEST PUSH1 0x40 MLOAD DUP1 SWAP2 SUB SWAP1 LOG1 POP POP POP POP POP POP JUMP JUMPDEST PUSH0 PUSH1 0x3 SLOAD DUP3 GT ISZERO PUSH2 0x23CC JUMPI PUSH0 DUP1 REVERT JUMPDEST PUSH0 DUP3 GT PUSH2 0x23D7 JUMPI PUSH0 DUP1 REVERT JUMPDEST PUSH0 PUSH1 0x1 DUP4 PUSH2 0x23E5 SWAP2 SWAP1 PUSH2 0x3328 JUMP JUMPDEST SWAP1 POP PUSH1 0x4 DUP2 DUP2 SLOAD DUP2 LT PUSH2 0x23FB JUMPI PUSH2 0x23FA PUSH2 0x33C3 JUMP JUMPDEST JUMPDEST SWAP1 PUSH0 MSTORE PUSH1 0x20 PUSH0 KECCAK256 SWAP1 PUSH1 0xD MUL ADD PUSH1 0x9 ADD SLOAD SWAP2 POP POP SWAP2 SWAP1 POP JUMP JUMPDEST PUSH0 PUSH1 0x3 SLOAD DUP3 GT ISZERO PUSH2 0x2422 JUMPI PUSH0 DUP1 REVERT JUMPDEST PUSH0 DUP1 SLOAD SWAP1 PUSH2 0x100 EXP SWAP1 DIV PUSH20 0xFFFFFFFFFFFFFFFFFFFFFFFFFFFFFFFFFFFFFFFF AND SWAP1 POP SWAP2 SWAP1 POP JUMP JUMPDEST PUSH0 DUP1 SLOAD SWAP1 PUSH2 0x100 EXP SWAP1 DIV PUSH20 0xFFFFFFFFFFFFFFFFFFFFFFFFFFFFFFFFFFFFFFFF AND DUP2 JUMP JUMPDEST PUSH0 PUSH1 0x60 PUSH1 0x3 SLOAD DUP4 GT ISZERO PUSH2 0x247D JUMPI PUSH0 DUP1 REVERT JUMPDEST PUSH0 DUP4 GT PUSH2 0x2488 JUMPI PUSH0 DUP1 REVERT JUMPDEST PUSH0 PUSH1 0x1 DUP5 PUSH2 0x2496 SWAP2 SWAP1 PUSH2 0x3328 JUMP JUMPDEST SWAP1 POP PUSH0 PUSH1 0x4 DUP3 DUP2 SLOAD DUP2 LT PUSH2 0x24AD JUMPI PUSH2 0x24AC PUSH2 0x33C3 JUMP JUMPDEST JUMPDEST SWAP1 PUSH0 MSTORE PUSH1 0x20 PUSH0 KECCAK256 SWAP1 PUSH1 0xD MUL ADD SWAP1 POP DUP1 PUSH1 0x5 ADD SLOAD DUP2 PUSH1 0x6 ADD DUP1 DUP1 SLOAD PUSH2 0x24D0 SWAP1 PUSH2 0x35E3 JUMP JUMPDEST DUP1 PUSH1 0x1F ADD PUSH1 0x20 DUP1 SWAP2 DIV MUL PUSH1 0x20 ADD PUSH1 0x40 MLOAD SWAP1 DUP2 ADD PUSH1 0x40 MSTORE DUP1 SWAP3 SWAP2 SWAP1 DUP2 DUP2 MSTORE PUSH1 0x20 ADD DUP3 DUP1 SLOAD PUSH2 0x24FC SWAP1 PUSH2 0x35E3 JUMP JUMPDEST DUP1 ISZERO PUSH2 0x2547 JUMPI DUP1 PUSH1 0x1F LT PUSH2 0x251E JUMPI PUSH2 0x100 DUP1 DUP4 SLOAD DIV MUL DUP4 MSTORE SWAP2 PUSH1 0x20 ADD SWAP2 PUSH2 0x2547 JUMP JUMPDEST DUP3 ADD SWAP2 SWAP1 PUSH0 MSTORE PUSH1 0x20 PUSH0 KECCAK256 SWAP1 JUMPDEST DUP2 SLOAD DUP2 MSTORE SWAP1 PUSH1 0x1 ADD SWAP1 PUSH1 0x20 ADD DUP1 DUP4 GT PUSH2 0x252A JUMPI DUP3 SWAP1 SUB PUSH1 0x1F AND DUP3 ADD SWAP2 JUMPDEST POP POP POP POP POP SWAP1 POP SWAP4 POP SWAP4 POP POP POP SWAP2 POP SWAP2 JUMP JUMPDEST PUSH0 DUP1 DUP5 GT PUSH2 0x2565 JUMPI PUSH0 DUP1 REVERT JUMPDEST PUSH0 PUSH1 0x1 DUP6 PUSH2 0x2573 SWAP2 SWAP1 PUSH2 0x3328 JUMP JUMPDEST SWAP1 POP PUSH0 PUSH1 0x3 DUP2 GT ISZERO PUSH2 0x2588 JUMPI PUSH2 0x2587 PUSH2 0x2CB2 JUMP JUMPDEST JUMPDEST PUSH1 0x4 DUP3 DUP2 SLOAD DUP2 LT PUSH2 0x259C JUMPI PUSH2 0x259B PUSH2 0x33C3 JUMP JUMPDEST JUMPDEST SWAP1 PUSH0 MSTORE PUSH1 0x20 PUSH0 KECCAK256 SWAP1 PUSH1 0xD MUL ADD PUSH1 0x8 ADD PUSH0 SWAP1 SLOAD SWAP1 PUSH2 0x100 EXP SWAP1 DIV PUSH1 0xFF AND PUSH1 0x3 DUP2 GT ISZERO PUSH2 0x25CA JUMPI PUSH2 0x25C9 PUSH2 0x2CB2 JUMP JUMPDEST JUMPDEST EQ PUSH2 0x260A JUMPI PUSH1 0x40 MLOAD PUSH32 0x8C379A000000000000000000000000000000000000000000000000000000000 DUP2 MSTORE PUSH1 0x4 ADD PUSH2 0x2601 SWAP1 PUSH2 0x4433 JUMP JUMPDEST PUSH1 0x40 MLOAD DUP1 SWAP2 SUB SWAP1 REVERT JUMPDEST PUSH1 0x4 DUP2 DUP2 SLOAD DUP2 LT PUSH2 0x261E JUMPI PUSH2 0x261D PUSH2 0x33C3 JUMP JUMPDEST JUMPDEST SWAP1 PUSH0 MSTORE PUSH1 0x20 PUSH0 KECCAK256 SWAP1 PUSH1 0xD MUL ADD PUSH1 0x7 ADD SLOAD TIMESTAMP LT PUSH2 0x266F JUMPI PUSH1 0x40 MLOAD PUSH32 0x8C379A000000000000000000000000000000000000000000000000000000000 DUP2 MSTORE PUSH1 0x4 ADD PUSH2 0x2666 SWAP1 PUSH2 0x449B JUMP JUMPDEST PUSH1 0x40 MLOAD DUP1 SWAP2 SUB SWAP1 REVERT JUMPDEST PUSH1 0x1E DUP5 GT ISZERO PUSH2 0x26B3 JUMPI PUSH1 0x40 MLOAD PUSH32 0x8C379A000000000000000000000000000000000000000000000000000000000 DUP2 MSTORE PUSH1 0x4 ADD PUSH2 0x26AA SWAP1 PUSH2 0x4529 JUMP JUMPDEST PUSH1 0x40 MLOAD DUP1 SWAP2 SUB SWAP1 REVERT JUMPDEST PUSH1 0x4 DUP2 DUP2 SLOAD DUP2 LT PUSH2 0x26C7 JUMPI PUSH2 0x26C6 PUSH2 0x33C3 JUMP JUMPDEST JUMPDEST SWAP1 PUSH0 MSTORE PUSH1 0x20 PUSH0 KECCAK256 SWAP1 PUSH1 0xD MUL ADD PUSH1 0x1 ADD SLOAD DUP5 PUSH1 0x4 DUP4 DUP2 SLOAD DUP2 LT PUSH2 0x26EC JUMPI PUSH2 0x26EB PUSH2 0x33C3 JUMP JUMPDEST JUMPDEST SWAP1 PUSH0 MSTORE PUSH1 0x20 PUSH0 KECCAK256 SWAP1 PUSH1 0xD MUL ADD PUSH1 0x9 ADD SLOAD PUSH2 0x2706 SWAP2 SWAP1 PUSH2 0x3AE4 JUMP JUMPDEST GT ISZERO PUSH2 0x2747 JUMPI PUSH1 0x40 MLOAD PUSH32 0x8C379A000000000000000000000000000000000000000000000000000000000 DUP2 MSTORE PUSH1 0x4 ADD PUSH2 0x273E SWAP1 PUSH2 0x4591 JUMP JUMPDEST PUSH1 0x40 MLOAD DUP1 SWAP2 SUB SWAP1 REVERT JUMPDEST DUP4 PUSH1 0x4 DUP3 DUP2 SLOAD DUP2 LT PUSH2 0x275C JUMPI PUSH2 0x275B PUSH2 0x33C3 JUMP JUMPDEST JUMPDEST SWAP1 PUSH0 MSTORE PUSH1 0x20 PUSH0 KECCAK256 SWAP1 PUSH1 0xD MUL ADD PUSH1 0x9 ADD PUSH0 DUP3 DUP3 SLOAD PUSH2 0x2779 SWAP2 SWAP1 PUSH2 0x3AE4 JUMP JUMPDEST SWAP3 POP POP DUP2 SWAP1 SSTORE POP PUSH1 0x1 PUSH1 0x4 DUP3 DUP2 SLOAD DUP2 LT PUSH2 0x2796 JUMPI PUSH2 0x2795 PUSH2 0x33C3 JUMP JUMPDEST JUMPDEST SWAP1 PUSH0 MSTORE PUSH1 0x20 PUSH0 KECCAK256 SWAP1 PUSH1 0xD MUL ADD PUSH1 0xA ADD PUSH0 DUP3 DUP3 SLOAD PUSH2 0x27B3 SWAP2 SWAP1 PUSH2 0x3AE4 JUMP JUMPDEST SWAP3 POP POP DUP2 SWAP1 SSTORE POP PUSH1 0x5 PUSH0 DUP7 DUP2 MSTORE PUSH1 0x20 ADD SWAP1 DUP2 MSTORE PUSH1 0x20 ADD PUSH0 KECCAK256 PUSH1 0x40 MLOAD DUP1 PUSH1 0xA0 ADD PUSH1 0x40 MSTORE DUP1 CALLER PUSH20 0xFFFFFFFFFFFFFFFFFFFFFFFFFFFFFFFFFFFFFFFF AND DUP2 MSTORE PUSH1 0x20 ADD DUP7 DUP2 MSTORE PUSH1 0x20 ADD DUP6 CALLER PUSH1 0x40 MLOAD PUSH1 0x20 ADD PUSH2 0x280B SWAP3 SWAP2 SWAP1 PUSH2 0x3F86 JUMP JUMPDEST PUSH1 0x40 MLOAD PUSH1 0x20 DUP2 DUP4 SUB SUB DUP2 MSTORE SWAP1 PUSH1 0x40 MSTORE DUP1 MLOAD SWAP1 PUSH1 0x20 ADD KECCAK256 DUP2 MSTORE PUSH1 0x20 ADD PUSH0 ISZERO ISZERO DUP2 MSTORE PUSH1 0x20 ADD PUSH0 ISZERO ISZERO DUP2 MSTORE POP SWAP1 DUP1 PUSH1 0x1 DUP2 SLOAD ADD DUP1 DUP3 SSTORE DUP1 SWAP2 POP POP PUSH1 0x1 SWAP1 SUB SWAP1 PUSH0 MSTORE PUSH1 0x20 PUSH0 KECCAK256 SWAP1 PUSH1 0x4 MUL ADD PUSH0 SWAP1 SWAP2 SWAP1 SWAP2 SWAP1 SWAP2 POP PUSH0 DUP3 ADD MLOAD DUP2 PUSH0 ADD PUSH0 PUSH2 0x100 EXP DUP2 SLOAD DUP2 PUSH20 0xFFFFFFFFFFFFFFFFFFFFFFFFFFFFFFFFFFFFFFFF MUL NOT AND SWAP1 DUP4 PUSH20 0xFFFFFFFFFFFFFFFFFFFFFFFFFFFFFFFFFFFFFFFF AND MUL OR SWAP1 SSTORE POP PUSH1 0x20 DUP3 ADD MLOAD DUP2 PUSH1 0x1 ADD SSTORE PUSH1 0x40 DUP3 ADD MLOAD DUP2 PUSH1 0x2 ADD SSTORE PUSH1 0x60 DUP3 ADD MLOAD DUP2 PUSH1 0x3 ADD PUSH0 PUSH2 0x100 EXP DUP2 SLOAD DUP2 PUSH1 0xFF MUL NOT AND SWAP1 DUP4 ISZERO ISZERO MUL OR SWAP1 SSTORE POP PUSH1 0x80 DUP3 ADD MLOAD DUP2 PUSH1 0x3 ADD PUSH1 0x1 PUSH2 0x100 EXP DUP2 SLOAD DUP2 PUSH1 0xFF MUL NOT AND SWAP1 DUP4 ISZERO ISZERO MUL OR SWAP1 SSTORE POP POP POP PUSH1 0x5 PUSH0 DUP7 DUP2 MSTORE PUSH1 0x20 ADD SWAP1 DUP2 MSTORE PUSH1 0x20 ADD PUSH0 KECCAK256 DUP1 SLOAD SWAP1 POP PUSH4 0xFFFFFFFF AND SWAP2 POP POP SWAP4 SWAP3 POP POP POP JUMP JUMPDEST PUSH0 DUP1 DUP4 GT PUSH2 0x2924 JUMPI PUSH0 DUP1 REVERT JUMPDEST PUSH0 PUSH1 0x1 DUP5 PUSH2 0x2932 SWAP2 SWAP1 PUSH2 0x3328 JUMP JUMPDEST SWAP1 POP PUSH1 0x3 SLOAD DUP5 GT ISZERO PUSH2 0x2942 JUMPI PUSH0 DUP1 REVERT JUMPDEST PUSH1 0x2 PUSH1 0x3 DUP2 GT ISZERO PUSH2 0x2956 JUMPI PUSH2 0x2955 PUSH2 0x2CB2 JUMP JUMPDEST JUMPDEST PUSH1 0x4 DUP3 DUP2 SLOAD DUP2 LT PUSH2 0x296A JUMPI PUSH2 0x2969 PUSH2 0x33C3 JUMP JUMPDEST JUMPDEST SWAP1 PUSH0 MSTORE PUSH1 0x20 PUSH0 KECCAK256 SWAP1 PUSH1 0xD MUL ADD PUSH1 0x8 ADD PUSH0 SWAP1 SLOAD SWAP1 PUSH2 0x100 EXP SWAP1 DIV PUSH1 0xFF AND PUSH1 0x3 DUP2 GT ISZERO PUSH2 0x2998 JUMPI PUSH2 0x2997 PUSH2 0x2CB2 JUMP JUMPDEST JUMPDEST EQ PUSH2 0x29D8 JUMPI PUSH1 0x40 MLOAD PUSH32 0x8C379A000000000000000000000000000000000000000000000000000000000 DUP2 MSTORE PUSH1 0x4 ADD PUSH2 0x29CF SWAP1 PUSH2 0x4063 JUMP JUMPDEST PUSH1 0x40 MLOAD DUP1 SWAP2 SUB SWAP1 REVERT JUMPDEST PUSH0 DUP4 GT DUP1 ISZERO PUSH2 0x2A0A JUMPI POP PUSH1 0x4 DUP2 DUP2 SLOAD DUP2 LT PUSH2 0x29F6 JUMPI PUSH2 0x29F5 PUSH2 0x33C3 JUMP JUMPDEST JUMPDEST SWAP1 PUSH0 MSTORE PUSH1 0x20 PUSH0 KECCAK256 SWAP1 PUSH1 0xD MUL ADD PUSH1 0x2 ADD SLOAD DUP4 GT ISZERO JUMPDEST PUSH2 0x2A12 JUMPI PUSH0 DUP1 REVERT JUMPDEST PUSH0 PUSH1 0x1 DUP5 PUSH2 0x2A20 SWAP2 SWAP1 PUSH2 0x3328 JUMP JUMPDEST SWAP1 POP PUSH1 0x4 DUP3 DUP2 SLOAD DUP2 LT PUSH2 0x2A36 JUMPI PUSH2 0x2A35 PUSH2 0x33C3 JUMP JUMPDEST JUMPDEST SWAP1 PUSH0 MSTORE PUSH1 0x20 PUSH0 KECCAK256 SWAP1 PUSH1 0xD MUL ADD PUSH1 0xC ADD DUP2 DUP2 SLOAD DUP2 LT PUSH2 0x2A57 JUMPI PUSH2 0x2A56 PUSH2 0x33C3 JUMP JUMPDEST JUMPDEST SWAP1 PUSH0 MSTORE PUSH1 0x20 PUSH0 KECCAK256 ADD SLOAD SWAP3 POP POP POP SWAP3 SWAP2 POP POP JUMP JUMPDEST PUSH0 DUP1 PUSH0 SWAP1 POP JUMPDEST DUP4 MLOAD DUP2 LT ISZERO PUSH2 0x2AB1 JUMPI DUP3 DUP5 DUP3 DUP2 MLOAD DUP2 LT PUSH2 0x2A8D JUMPI PUSH2 0x2A8C PUSH2 0x33C3 JUMP JUMPDEST JUMPDEST PUSH1 0x20 MUL PUSH1 0x20 ADD ADD MLOAD SUB PUSH2 0x2AA4 JUMPI PUSH1 0x1 SWAP2 POP POP PUSH2 0x2AB6 JUMP JUMPDEST DUP1 DUP1 PUSH1 0x1 ADD SWAP2 POP POP PUSH2 0x2A70 JUMP JUMPDEST POP PUSH0 SWAP1 POP JUMPDEST SWAP3 SWAP2 POP POP JUMP JUMPDEST DUP3 DUP1 SLOAD DUP3 DUP3 SSTORE SWAP1 PUSH0 MSTORE PUSH1 0x20 PUSH0 KECCAK256 SWAP1 DUP2 ADD SWAP3 DUP3 ISZERO PUSH2 0x2AF6 JUMPI SWAP2 PUSH1 0x20 MUL DUP3 ADD JUMPDEST DUP3 DUP2 GT ISZERO PUSH2 0x2AF5 JUMPI DUP3 MLOAD DUP3 SSTORE SWAP2 PUSH1 0x20 ADD SWAP2 SWAP1 PUSH1 0x1 ADD SWAP1 PUSH2 0x2ADA JUMP JUMPDEST JUMPDEST POP SWAP1 POP PUSH2 0x2B03 SWAP2 SWAP1 PUSH2 0x2B07 JUMP JUMPDEST POP SWAP1 JUMP JUMPDEST JUMPDEST DUP1 DUP3 GT ISZERO PUSH2 0x2B1E JUMPI PUSH0 DUP2 PUSH0 SWAP1 SSTORE POP PUSH1 0x1 ADD PUSH2 0x2B08 JUMP JUMPDEST POP SWAP1 JUMP JUMPDEST PUSH0 DUP2 SWAP1 POP SWAP2 SWAP1 POP JUMP JUMPDEST PUSH2 0x2B34 DUP2 PUSH2 0x2B22 JUMP JUMPDEST DUP3 MSTORE POP POP JUMP JUMPDEST PUSH0 PUSH1 0x20 DUP3 ADD SWAP1 POP PUSH2 0x2B4D PUSH0 DUP4 ADD DUP5 PUSH2 0x2B2B JUMP JUMPDEST SWAP3 SWAP2 POP POP JUMP JUMPDEST PUSH0 PUSH1 0x40 MLOAD SWAP1 POP SWAP1 JUMP JUMPDEST PUSH0 DUP1 REVERT JUMPDEST PUSH0 DUP1 REVERT JUMPDEST PUSH2 0x2B6D DUP2 PUSH2 0x2B22 JUMP JUMPDEST DUP2 EQ PUSH2 0x2B77 JUMPI PUSH0 DUP1 REVERT JUMPDEST POP JUMP JUMPDEST PUSH0 DUP2 CALLDATALOAD SWAP1 POP PUSH2 0x2B88 DUP2 PUSH2 0x2B64 JUMP JUMPDEST SWAP3 SWAP2 POP POP JUMP JUMPDEST PUSH0 DUP1 PUSH1 0x40 DUP4 DUP6 SUB SLT ISZERO PUSH2 0x2BA4 JUMPI PUSH2 0x2BA3 PUSH2 0x2B5C JUMP JUMPDEST JUMPDEST PUSH0 PUSH2 0x2BB1 DUP6 DUP3 DUP7 ADD PUSH2 0x2B7A JUMP JUMPDEST SWAP3 POP POP PUSH1 0x20 PUSH2 0x2BC2 DUP6 DUP3 DUP7 ADD PUSH2 0x2B7A JUMP JUMPDEST SWAP2 POP POP SWAP3 POP SWAP3 SWAP1 POP JUMP JUMPDEST PUSH0 DUP2 ISZERO ISZERO SWAP1 POP SWAP2 SWAP1 POP JUMP JUMPDEST PUSH2 0x2BE0 DUP2 PUSH2 0x2BCC JUMP JUMPDEST DUP3 MSTORE POP POP JUMP JUMPDEST PUSH0 PUSH1 0x20 DUP3 ADD SWAP1 POP PUSH2 0x2BF9 PUSH0 DUP4 ADD DUP5 PUSH2 0x2BD7 JUMP JUMPDEST SWAP3 SWAP2 POP POP JUMP JUMPDEST PUSH0 PUSH1 0x20 DUP3 DUP5 SUB SLT ISZERO PUSH2 0x2C14 JUMPI PUSH2 0x2C13 PUSH2 0x2B5C JUMP JUMPDEST JUMPDEST PUSH0 PUSH2 0x2C21 DUP5 DUP3 DUP6 ADD PUSH2 0x2B7A JUMP JUMPDEST SWAP2 POP POP SWAP3 SWAP2 POP POP JUMP JUMPDEST PUSH0 DUP2 SWAP1 POP SWAP2 SWAP1 POP JUMP JUMPDEST PUSH2 0x2C3C DUP2 PUSH2 0x2C2A JUMP JUMPDEST DUP3 MSTORE POP POP JUMP JUMPDEST PUSH0 DUP2 MLOAD SWAP1 POP SWAP2 SWAP1 POP JUMP JUMPDEST PUSH0 DUP3 DUP3 MSTORE PUSH1 0x20 DUP3 ADD SWAP1 POP SWAP3 SWAP2 POP POP JUMP JUMPDEST DUP3 DUP2 DUP4 MCOPY PUSH0 DUP4 DUP4 ADD MSTORE POP POP POP JUMP JUMPDEST PUSH0 PUSH1 0x1F NOT PUSH1 0x1F DUP4 ADD AND SWAP1 POP SWAP2 SWAP1 POP JUMP JUMPDEST PUSH0 PUSH2 0x2C84 DUP3 PUSH2 0x2C42 JUMP JUMPDEST PUSH2 0x2C8E DUP2 DUP6 PUSH2 0x2C4C JUMP JUMPDEST SWAP4 POP PUSH2 0x2C9E DUP2 DUP6 PUSH1 0x20 DUP7 ADD PUSH2 0x2C5C JUMP JUMPDEST PUSH2 0x2CA7 DUP2 PUSH2 0x2C6A JUMP JUMPDEST DUP5 ADD SWAP2 POP POP SWAP3 SWAP2 POP POP JUMP JUMPDEST PUSH32 0x4E487B7100000000000000000000000000000000000000000000000000000000 PUSH0 MSTORE PUSH1 0x21 PUSH1 0x4 MSTORE PUSH1 0x24 PUSH0 REVERT JUMPDEST PUSH1 0x4 DUP2 LT PUSH2 0x2CF0 JUMPI PUSH2 0x2CEF PUSH2 0x2CB2 JUMP JUMPDEST JUMPDEST POP JUMP JUMPDEST PUSH0 DUP2 SWAP1 POP PUSH2 0x2D00 DUP3 PUSH2 0x2CDF JUMP JUMPDEST SWAP2 SWAP1 POP JUMP JUMPDEST PUSH0 PUSH2 0x2D0F DUP3 PUSH2 0x2CF3 JUMP JUMPDEST SWAP1 POP SWAP2 SWAP1 POP JUMP JUMPDEST PUSH2 0x2D1F DUP2 PUSH2 0x2D05 JUMP JUMPDEST DUP3 MSTORE POP POP JUMP JUMPDEST PUSH0 PUSH2 0x180 DUP3 ADD SWAP1 POP PUSH2 0x2D39 PUSH0 DUP4 ADD DUP16 PUSH2 0x2B2B JUMP JUMPDEST PUSH2 0x2D46 PUSH1 0x20 DUP4 ADD DUP15 PUSH2 0x2B2B JUMP JUMPDEST PUSH2 0x2D53 PUSH1 0x40 DUP4 ADD DUP14 PUSH2 0x2B2B JUMP JUMPDEST PUSH2 0x2D60 PUSH1 0x60 DUP4 ADD DUP13 PUSH2 0x2B2B JUMP JUMPDEST PUSH2 0x2D6D PUSH1 0x80 DUP4 ADD DUP12 PUSH2 0x2B2B JUMP JUMPDEST PUSH2 0x2D7A PUSH1 0xA0 DUP4 ADD DUP11 PUSH2 0x2C33 JUMP JUMPDEST DUP2 DUP2 SUB PUSH1 0xC0 DUP4 ADD MSTORE PUSH2 0x2D8C DUP2 DUP10 PUSH2 0x2C7A JUMP JUMPDEST SWAP1 POP PUSH2 0x2D9B PUSH1 0xE0 DUP4 ADD DUP9 PUSH2 0x2B2B JUMP JUMPDEST PUSH2 0x2DA9 PUSH2 0x100 DUP4 ADD DUP8 PUSH2 0x2D16 JUMP JUMPDEST PUSH2 0x2DB7 PUSH2 0x120 DUP4 ADD DUP7 PUSH2 0x2B2B JUMP JUMPDEST PUSH2 0x2DC5 PUSH2 0x140 DUP4 ADD DUP6 PUSH2 0x2B2B JUMP JUMPDEST PUSH2 0x2DD3 PUSH2 0x160 DUP4 ADD DUP5 PUSH2 0x2B2B JUMP JUMPDEST SWAP14 SWAP13 POP POP POP POP POP POP POP POP POP POP POP POP POP JUMP JUMPDEST PUSH0 PUSH20 0xFFFFFFFFFFFFFFFFFFFFFFFFFFFFFFFFFFFFFFFF DUP3 AND SWAP1 POP SWAP2 SWAP1 POP JUMP JUMPDEST PUSH0 PUSH2 0x2E0D DUP3 PUSH2 0x2DE4 JUMP JUMPDEST SWAP1 POP SWAP2 SWAP1 POP JUMP JUMPDEST PUSH2 0x2E1D DUP2 PUSH2 0x2E03 JUMP JUMPDEST DUP3 MSTORE POP POP JUMP JUMPDEST PUSH0 PUSH1 0xA0 DUP3 ADD SWAP1 POP PUSH2 0x2E36 PUSH0 DUP4 ADD DUP9 PUSH2 0x2E14 JUMP JUMPDEST PUSH2 0x2E43 PUSH1 0x20 DUP4 ADD DUP8 PUSH2 0x2B2B JUMP JUMPDEST PUSH2 0x2E50 PUSH1 0x40 DUP4 ADD DUP7 PUSH2 0x2C33 JUMP JUMPDEST PUSH2 0x2E5D PUSH1 0x60 DUP4 ADD DUP6 PUSH2 0x2BD7 JUMP JUMPDEST PUSH2 0x2E6A PUSH1 0x80 DUP4 ADD DUP5 PUSH2 0x2BD7 JUMP JUMPDEST SWAP7 SWAP6 POP POP POP POP POP POP JUMP JUMPDEST PUSH2 0x2E7D DUP2 PUSH2 0x2E03 JUMP JUMPDEST DUP2 EQ PUSH2 0x2E87 JUMPI PUSH0 DUP1 REVERT JUMPDEST POP JUMP JUMPDEST PUSH0 DUP2 CALLDATALOAD SWAP1 POP PUSH2 0x2E98 DUP2 PUSH2 0x2E74 JUMP JUMPDEST SWAP3 SWAP2 POP POP JUMP JUMPDEST PUSH0 DUP1 PUSH0 PUSH1 0x60 DUP5 DUP7 SUB SLT ISZERO PUSH2 0x2EB5 JUMPI PUSH2 0x2EB4 PUSH2 0x2B5C JUMP JUMPDEST JUMPDEST PUSH0 PUSH2 0x2EC2 DUP7 DUP3 DUP8 ADD PUSH2 0x2E8A JUMP JUMPDEST SWAP4 POP POP PUSH1 0x20 PUSH2 0x2ED3 DUP7 DUP3 DUP8 ADD PUSH2 0x2B7A JUMP JUMPDEST SWAP3 POP POP PUSH1 0x40 PUSH2 0x2EE4 DUP7 DUP3 DUP8 ADD PUSH2 0x2B7A JUMP JUMPDEST SWAP2 POP POP SWAP3 POP SWAP3 POP SWAP3 JUMP JUMPDEST PUSH0 PUSH1 0x20 DUP3 DUP5 SUB SLT ISZERO PUSH2 0x2F03 JUMPI PUSH2 0x2F02 PUSH2 0x2B5C JUMP JUMPDEST JUMPDEST PUSH0 PUSH2 0x2F10 DUP5 DUP3 DUP6 ADD PUSH2 0x2E8A JUMP JUMPDEST SWAP2 POP POP SWAP3 SWAP2 POP POP JUMP JUMPDEST PUSH0 PUSH1 0xA0 DUP3 ADD SWAP1 POP PUSH2 0x2F2C PUSH0 DUP4 ADD DUP9 PUSH2 0x2B2B JUMP JUMPDEST PUSH2 0x2F39 PUSH1 0x20 DUP4 ADD DUP8 PUSH2 0x2B2B JUMP JUMPDEST PUSH2 0x2F46 PUSH1 0x40 DUP4 ADD DUP7 PUSH2 0x2B2B JUMP JUMPDEST PUSH2 0x2F53 PUSH1 0x60 DUP4 ADD DUP6 PUSH2 0x2B2B JUMP JUMPDEST PUSH2 0x2F60 PUSH1 0x80 DUP4 ADD DUP5 PUSH2 0x2B2B JUMP JUMPDEST SWAP7 SWAP6 POP POP POP POP POP POP JUMP JUMPDEST PUSH2 0x2F73 DUP2 PUSH2 0x2C2A JUMP JUMPDEST DUP2 EQ PUSH2 0x2F7D JUMPI PUSH0 DUP1 REVERT JUMPDEST POP JUMP JUMPDEST PUSH0 DUP2 CALLDATALOAD SWAP1 POP PUSH2 0x2F8E DUP2 PUSH2 0x2F6A JUMP JUMPDEST SWAP3 SWAP2 POP POP JUMP JUMPDEST PUSH0 DUP1 REVERT JUMPDEST PUSH0 DUP1 REVERT JUMPDEST PUSH32 0x4E487B7100000000000000000000000000000000000000000000000000000000 PUSH0 MSTORE PUSH1 0x41 PUSH1 0x4 MSTORE PUSH1 0x24 PUSH0 REVERT JUMPDEST PUSH2 0x2FD2 DUP3 PUSH2 0x2C6A JUMP JUMPDEST DUP2 ADD DUP2 DUP2 LT PUSH8 0xFFFFFFFFFFFFFFFF DUP3 GT OR ISZERO PUSH2 0x2FF1 JUMPI PUSH2 0x2FF0 PUSH2 0x2F9C JUMP JUMPDEST JUMPDEST DUP1 PUSH1 0x40 MSTORE POP POP POP JUMP JUMPDEST PUSH0 PUSH2 0x3003 PUSH2 0x2B53 JUMP JUMPDEST SWAP1 POP PUSH2 0x300F DUP3 DUP3 PUSH2 0x2FC9 JUMP JUMPDEST SWAP2 SWAP1 POP JUMP JUMPDEST PUSH0 PUSH8 0xFFFFFFFFFFFFFFFF DUP3 GT ISZERO PUSH2 0x302E JUMPI PUSH2 0x302D PUSH2 0x2F9C JUMP JUMPDEST JUMPDEST PUSH2 0x3037 DUP3 PUSH2 0x2C6A JUMP JUMPDEST SWAP1 POP PUSH1 0x20 DUP2 ADD SWAP1 POP SWAP2 SWAP1 POP JUMP JUMPDEST DUP3 DUP2 DUP4 CALLDATACOPY PUSH0 DUP4 DUP4 ADD MSTORE POP POP POP JUMP JUMPDEST PUSH0 PUSH2 0x3064 PUSH2 0x305F DUP5 PUSH2 0x3014 JUMP JUMPDEST PUSH2 0x2FFA JUMP JUMPDEST SWAP1 POP DUP3 DUP2 MSTORE PUSH1 0x20 DUP2 ADD DUP5 DUP5 DUP5 ADD GT ISZERO PUSH2 0x3080 JUMPI PUSH2 0x307F PUSH2 0x2F98 JUMP JUMPDEST JUMPDEST PUSH2 0x308B DUP5 DUP3 DUP6 PUSH2 0x3044 JUMP JUMPDEST POP SWAP4 SWAP3 POP POP POP JUMP JUMPDEST PUSH0 DUP3 PUSH1 0x1F DUP4 ADD SLT PUSH2 0x30A7 JUMPI PUSH2 0x30A6 PUSH2 0x2F94 JUMP JUMPDEST JUMPDEST DUP2 CALLDATALOAD PUSH2 0x30B7 DUP5 DUP3 PUSH1 0x20 DUP7 ADD PUSH2 0x3052 JUMP JUMPDEST SWAP2 POP POP SWAP3 SWAP2 POP POP JUMP JUMPDEST PUSH0 DUP1 PUSH0 DUP1 PUSH0 DUP1 PUSH0 PUSH1 0xE0 DUP9 DUP11 SUB SLT ISZERO PUSH2 0x30DB JUMPI PUSH2 0x30DA PUSH2 0x2B5C JUMP JUMPDEST JUMPDEST PUSH0 PUSH2 0x30E8 DUP11 DUP3 DUP12 ADD PUSH2 0x2B7A JUMP JUMPDEST SWAP8 POP POP PUSH1 0x20 PUSH2 0x30F9 DUP11 DUP3 DUP12 ADD PUSH2 0x2B7A JUMP JUMPDEST SWAP7 POP POP PUSH1 0x40 PUSH2 0x310A DUP11 DUP3 DUP12 ADD PUSH2 0x2B7A JUMP JUMPDEST SWAP6 POP POP PUSH1 0x60 PUSH2 0x311B DUP11 DUP3 DUP12 ADD PUSH2 0x2B7A JUMP JUMPDEST SWAP5 POP POP PUSH1 0x80 PUSH2 0x312C DUP11 DUP3 DUP12 ADD PUSH2 0x2B7A JUMP JUMPDEST SWAP4 POP POP PUSH1 0xA0 PUSH2 0x313D DUP11 DUP3 DUP12 ADD PUSH2 0x2F80 JUMP JUMPDEST SWAP3 POP POP PUSH1 0xC0 DUP9 ADD CALLDATALOAD PUSH8 0xFFFFFFFFFFFFFFFF DUP2 GT ISZERO PUSH2 0x315E JUMPI PUSH2 0x315D PUSH2 0x2B60 JUMP JUMPDEST JUMPDEST PUSH2 0x316A DUP11 DUP3 DUP12 ADD PUSH2 0x3093 JUMP JUMPDEST SWAP2 POP POP SWAP3 SWAP6 SWAP9 SWAP2 SWAP5 SWAP8 POP SWAP3 SWAP6 POP JUMP JUMPDEST PUSH0 PUSH1 0x40 DUP3 ADD SWAP1 POP PUSH2 0x318C PUSH0 DUP4 ADD DUP6 PUSH2 0x2B2B JUMP JUMPDEST PUSH2 0x3199 PUSH1 0x20 DUP4 ADD DUP5 PUSH2 0x2B2B JUMP JUMPDEST SWAP4 SWAP3 POP POP POP JUMP JUMPDEST PUSH0 PUSH1 0x20 DUP3 ADD SWAP1 POP PUSH2 0x31B3 PUSH0 DUP4 ADD DUP5 PUSH2 0x2E14 JUMP JUMPDEST SWAP3 SWAP2 POP POP JUMP JUMPDEST PUSH0 DUP1 PUSH0 PUSH1 0x60 DUP5 DUP7 SUB SLT ISZERO PUSH2 0x31D0 JUMPI PUSH2 0x31CF PUSH2 0x2B5C JUMP JUMPDEST JUMPDEST PUSH0 PUSH2 0x31DD DUP7 DUP3 DUP8 ADD PUSH2 0x2B7A JUMP JUMPDEST SWAP4 POP POP PUSH1 0x20 PUSH2 0x31EE DUP7 DUP3 DUP8 ADD PUSH2 0x2B7A JUMP JUMPDEST SWAP3 POP POP PUSH1 0x40 PUSH2 0x31FF DUP7 DUP3 DUP8 ADD PUSH2 0x2B7A JUMP JUMPDEST SWAP2 POP POP SWAP3 POP SWAP3 POP SWAP3 JUMP JUMPDEST PUSH0 DUP2 SWAP1 POP SWAP2 SWAP1 POP JUMP JUMPDEST PUSH0 PUSH2 0x322C PUSH2 0x3227 PUSH2 0x3222 DUP5 PUSH2 0x2DE4 JUMP JUMPDEST PUSH2 0x3209 JUMP JUMPDEST PUSH2 0x2DE4 JUMP JUMPDEST SWAP1 POP SWAP2 SWAP1 POP JUMP JUMPDEST PUSH0 PUSH2 0x323D DUP3 PUSH2 0x3212 JUMP JUMPDEST SWAP1 POP SWAP2 SWAP1 POP JUMP JUMPDEST PUSH0 PUSH2 0x324E DUP3 PUSH2 0x3233 JUMP JUMPDEST SWAP1 POP SWAP2 SWAP1 POP JUMP JUMPDEST PUSH2 0x325E DUP2 PUSH2 0x3244 JUMP JUMPDEST DUP3 MSTORE POP POP JUMP JUMPDEST PUSH0 PUSH1 0x20 DUP3 ADD SWAP1 POP PUSH2 0x3277 PUSH0 DUP4 ADD DUP5 PUSH2 0x3255 JUMP JUMPDEST SWAP3 SWAP2 POP POP JUMP JUMPDEST PUSH0 PUSH1 0x40 DUP3 ADD SWAP1 POP PUSH2 0x3290 PUSH0 DUP4 ADD DUP6 PUSH2 0x2C33 JUMP JUMPDEST DUP2 DUP2 SUB PUSH1 0x20 DUP4 ADD MSTORE PUSH2 0x32A2 DUP2 DUP5 PUSH2 0x2C7A JUMP JUMPDEST SWAP1 POP SWAP4 SWAP3 POP POP POP JUMP JUMPDEST PUSH0 DUP1 PUSH0 PUSH1 0x60 DUP5 DUP7 SUB SLT ISZERO PUSH2 0x32C2 JUMPI PUSH2 0x32C1 PUSH2 0x2B5C JUMP JUMPDEST JUMPDEST PUSH0 PUSH2 0x32CF DUP7 DUP3 DUP8 ADD PUSH2 0x2B7A JUMP JUMPDEST SWAP4 POP POP PUSH1 0x20 PUSH2 0x32E0 DUP7 DUP3 DUP8 ADD PUSH2 0x2B7A JUMP JUMPDEST SWAP3 POP POP PUSH1 0x40 PUSH2 0x32F1 DUP7 DUP3 DUP8 ADD PUSH2 0x2F80 JUMP JUMPDEST SWAP2 POP POP SWAP3 POP SWAP3 POP SWAP3 JUMP JUMPDEST PUSH32 0x4E487B7100000000000000000000000000000000000000000000000000000000 PUSH0 MSTORE PUSH1 0x11 PUSH1 0x4 MSTORE PUSH1 0x24 PUSH0 REVERT JUMPDEST PUSH0 PUSH2 0x3332 DUP3 PUSH2 0x2B22 JUMP JUMPDEST SWAP2 POP PUSH2 0x333D DUP4 PUSH2 0x2B22 JUMP JUMPDEST SWAP3 POP DUP3 DUP3 SUB SWAP1 POP DUP2 DUP2 GT ISZERO PUSH2 0x3355 JUMPI PUSH2 0x3354 PUSH2 0x32FB JUMP JUMPDEST JUMPDEST SWAP3 SWAP2 POP POP JUMP JUMPDEST PUSH32 0x496E76616C6964206C6F7474657279206E756D62657200000000000000000000 PUSH0 DUP3 ADD MSTORE POP JUMP JUMPDEST PUSH0 PUSH2 0x338F PUSH1 0x16 DUP4 PUSH2 0x2C4C JUMP JUMPDEST SWAP2 POP PUSH2 0x339A DUP3 PUSH2 0x335B JUMP JUMPDEST PUSH1 0x20 DUP3 ADD SWAP1 POP SWAP2 SWAP1 POP JUMP JUMPDEST PUSH0 PUSH1 0x20 DUP3 ADD SWAP1 POP DUP2 DUP2 SUB PUSH0 DUP4 ADD MSTORE PUSH2 0x33BC DUP2 PUSH2 0x3383 JUMP JUMPDEST SWAP1 POP SWAP2 SWAP1 POP JUMP JUMPDEST PUSH32 0x4E487B7100000000000000000000000000000000000000000000000000000000 PUSH0 MSTORE PUSH1 0x32 PUSH1 0x4 MSTORE PUSH1 0x24 PUSH0 REVERT JUMPDEST PUSH32 0x4C6F7474657279206973206E6F7420434F4D504C455445442073746174650000 PUSH0 DUP3 ADD MSTORE POP JUMP JUMPDEST PUSH0 PUSH2 0x3424 PUSH1 0x1E DUP4 PUSH2 0x2C4C JUMP JUMPDEST SWAP2 POP PUSH2 0x342F DUP3 PUSH2 0x33F0 JUMP JUMPDEST PUSH1 0x20 DUP3 ADD SWAP1 POP SWAP2 SWAP1 POP JUMP JUMPDEST PUSH0 PUSH1 0x20 DUP3 ADD SWAP1 POP DUP2 DUP2 SUB PUSH0 DUP4 ADD MSTORE PUSH2 0x3451 DUP2 PUSH2 0x3418 JUMP JUMPDEST SWAP1 POP SWAP2 SWAP1 POP JUMP JUMPDEST PUSH32 0x496E76616C6964207469636B6574206E756D6265720000000000000000000000 PUSH0 DUP3 ADD MSTORE POP JUMP JUMPDEST PUSH0 PUSH2 0x348C PUSH1 0x15 DUP4 PUSH2 0x2C4C JUMP JUMPDEST SWAP2 POP PUSH2 0x3497 DUP3 PUSH2 0x3458 JUMP JUMPDEST PUSH1 0x20 DUP3 ADD SWAP1 POP SWAP2 SWAP1 POP JUMP JUMPDEST PUSH0 PUSH1 0x20 DUP3 ADD SWAP1 POP DUP2 DUP2 SUB PUSH0 DUP4 ADD MSTORE PUSH2 0x34B9 DUP2 PUSH2 0x3480 JUMP JUMPDEST SWAP1 POP SWAP2 SWAP1 POP JUMP JUMPDEST PUSH32 0x596F7520646F206E6F74206F776E2074686973207469636B6574000000000000 PUSH0 DUP3 ADD MSTORE POP JUMP JUMPDEST PUSH0 PUSH2 0x34F4 PUSH1 0x1A DUP4 PUSH2 0x2C4C JUMP JUMPDEST SWAP2 POP PUSH2 0x34FF DUP3 PUSH2 0x34C0 JUMP JUMPDEST PUSH1 0x20 DUP3 ADD SWAP1 POP SWAP2 SWAP1 POP JUMP JUMPDEST PUSH0 PUSH1 0x20 DUP3 ADD SWAP1 POP DUP2 DUP2 SUB PUSH0 DUP4 ADD MSTORE PUSH2 0x3521 DUP2 PUSH2 0x34E8 JUMP JUMPDEST SWAP1 POP SWAP2 SWAP1 POP JUMP JUMPDEST PUSH32 0x596F7520646964206E6F74207375626D697474656420796F75722072616E646F PUSH0 DUP3 ADD MSTORE PUSH32 0x6D206E756D6265722E2000000000000000000000000000000000000000000000 PUSH1 0x20 DUP3 ADD MSTORE POP JUMP JUMPDEST PUSH0 PUSH2 0x3582 PUSH1 0x2A DUP4 PUSH2 0x2C4C JUMP JUMPDEST SWAP2 POP PUSH2 0x358D DUP3 PUSH2 0x3528 JUMP JUMPDEST PUSH1 0x40 DUP3 ADD SWAP1 POP SWAP2 SWAP1 POP JUMP JUMPDEST PUSH0 PUSH1 0x20 DUP3 ADD SWAP1 POP DUP2 DUP2 SUB PUSH0 DUP4 ADD MSTORE PUSH2 0x35AF DUP2 PUSH2 0x3576 JUMP JUMPDEST SWAP1 POP SWAP2 SWAP1 POP JUMP JUMPDEST PUSH32 0x4E487B7100000000000000000000000000000000000000000000000000000000 PUSH0 MSTORE PUSH1 0x22 PUSH1 0x4 MSTORE PUSH1 0x24 PUSH0 REVERT JUMPDEST PUSH0 PUSH1 0x2 DUP3 DIV SWAP1 POP PUSH1 0x1 DUP3 AND DUP1 PUSH2 0x35FA JUMPI PUSH1 0x7F DUP3 AND SWAP2 POP JUMPDEST PUSH1 0x20 DUP3 LT DUP2 SUB PUSH2 0x360D JUMPI PUSH2 0x360C PUSH2 0x35B6 JUMP JUMPDEST JUMPDEST POP SWAP2 SWAP1 POP JUMP JUMPDEST PUSH0 PUSH2 0x361D DUP3 PUSH2 0x2B22 JUMP JUMPDEST SWAP2 POP PUSH2 0x3628 DUP4 PUSH2 0x2B22 JUMP JUMPDEST SWAP3 POP DUP3 DUP3 MUL PUSH2 0x3636 DUP2 PUSH2 0x2B22 JUMP JUMPDEST SWAP2 POP DUP3 DUP3 DIV DUP5 EQ DUP4 ISZERO OR PUSH2 0x364D JUMPI PUSH2 0x364C PUSH2 0x32FB JUMP JUMPDEST JUMPDEST POP SWAP3 SWAP2 POP POP JUMP JUMPDEST PUSH32 0x4E487B7100000000000000000000000000000000000000000000000000000000 PUSH0 MSTORE PUSH1 0x12 PUSH1 0x4 MSTORE PUSH1 0x24 PUSH0 REVERT JUMPDEST PUSH0 PUSH2 0x368B DUP3 PUSH2 0x2B22 JUMP JUMPDEST SWAP2 POP PUSH2 0x3696 DUP4 PUSH2 0x2B22 JUMP JUMPDEST SWAP3 POP DUP3 PUSH2 0x36A6 JUMPI PUSH2 0x36A5 PUSH2 0x3654 JUMP JUMPDEST JUMPDEST DUP3 DUP3 DIV SWAP1 POP SWAP3 SWAP2 POP POP JUMP JUMPDEST PUSH32 0x546865206164647265737320776173206E6F74207375626D6974746564206974 PUSH0 DUP3 ADD MSTORE PUSH32 0x732072616E646F6D206E756D6265722E20000000000000000000000000000000 PUSH1 0x20 DUP3 ADD MSTORE POP JUMP JUMPDEST PUSH0 PUSH2 0x370B PUSH1 0x31 DUP4 PUSH2 0x2C4C JUMP JUMPDEST SWAP2 POP PUSH2 0x3716 DUP3 PUSH2 0x36B1 JUMP JUMPDEST PUSH1 0x40 DUP3 ADD SWAP1 POP SWAP2 SWAP1 POP JUMP JUMPDEST PUSH0 PUSH1 0x20 DUP3 ADD SWAP1 POP DUP2 DUP2 SUB PUSH0 DUP4 ADD MSTORE PUSH2 0x3738 DUP2 PUSH2 0x36FF JUMP JUMPDEST SWAP1 POP SWAP2 SWAP1 POP JUMP JUMPDEST PUSH32 0x526566756E6473206E6F7420617661696C61626C6520666F722074686973206C PUSH0 DUP3 ADD MSTORE PUSH32 0x6F74746572790000000000000000000000000000000000000000000000000000 PUSH1 0x20 DUP3 ADD MSTORE POP JUMP JUMPDEST PUSH0 PUSH2 0x3799 PUSH1 0x26 DUP4 PUSH2 0x2C4C JUMP JUMPDEST SWAP2 POP PUSH2 0x37A4 DUP3 PUSH2 0x373F JUMP JUMPDEST PUSH1 0x40 DUP3 ADD SWAP1 POP SWAP2 SWAP1 POP JUMP JUMPDEST PUSH0 PUSH1 0x20 DUP3 ADD SWAP1 POP DUP2 DUP2 SUB PUSH0 DUP4 ADD MSTORE PUSH2 0x37C6 DUP2 PUSH2 0x378D JUMP JUMPDEST SWAP1 POP SWAP2 SWAP1 POP JUMP JUMPDEST PUSH32 0x4E6F74206F776E65720000000000000000000000000000000000000000000000 PUSH0 DUP3 ADD MSTORE POP JUMP JUMPDEST PUSH0 PUSH2 0x3801 PUSH1 0x9 DUP4 PUSH2 0x2C4C JUMP JUMPDEST SWAP2 POP PUSH2 0x380C DUP3 PUSH2 0x37CD JUMP JUMPDEST PUSH1 0x20 DUP3 ADD SWAP1 POP SWAP2 SWAP1 POP JUMP JUMPDEST PUSH0 PUSH1 0x20 DUP3 ADD SWAP1 POP DUP2 DUP2 SUB PUSH0 DUP4 ADD MSTORE PUSH2 0x382E DUP2 PUSH2 0x37F5 JUMP JUMPDEST SWAP1 POP SWAP2 SWAP1 POP JUMP JUMPDEST PUSH32 0x596F7520646964206E6F74207375626D697474656420796F75722072616E646F PUSH0 DUP3 ADD MSTORE PUSH32 0x6D206E756D626572200000000000000000000000000000000000000000000000 PUSH1 0x20 DUP3 ADD MSTORE POP JUMP JUMPDEST PUSH0 PUSH2 0x388F PUSH1 0x29 DUP4 PUSH2 0x2C4C JUMP JUMPDEST SWAP2 POP PUSH2 0x389A DUP3 PUSH2 0x3835 JUMP JUMPDEST PUSH1 0x40 DUP3 ADD SWAP1 POP SWAP2 SWAP1 POP JUMP JUMPDEST PUSH0 PUSH1 0x20 DUP3 ADD SWAP1 POP DUP2 DUP2 SUB PUSH0 DUP4 ADD MSTORE PUSH2 0x38BC DUP2 PUSH2 0x3883 JUMP JUMPDEST SWAP1 POP SWAP2 SWAP1 POP JUMP JUMPDEST PUSH32 0x616C726561647920726566756E64656400000000000000000000000000000000 PUSH0 DUP3 ADD MSTORE POP JUMP JUMPDEST PUSH0 PUSH2 0x38F7 PUSH1 0x10 DUP4 PUSH2 0x2C4C JUMP JUMPDEST SWAP2 POP PUSH2 0x3902 DUP3 PUSH2 0x38C3 JUMP JUMPDEST PUSH1 0x20 DUP3 ADD SWAP1 POP SWAP2 SWAP1 POP JUMP JUMPDEST PUSH0 PUSH1 0x20 DUP3 ADD SWAP1 POP DUP2 DUP2 SUB PUSH0 DUP4 ADD MSTORE PUSH2 0x3924 DUP2 PUSH2 0x38EB JUMP JUMPDEST SWAP1 POP SWAP2 SWAP1 POP JUMP JUMPDEST PUSH0 PUSH1 0x40 DUP3 ADD SWAP1 POP PUSH2 0x393E PUSH0 DUP4 ADD DUP6 PUSH2 0x2E14 JUMP JUMPDEST PUSH2 0x394B PUSH1 0x20 DUP4 ADD DUP5 PUSH2 0x2B2B JUMP JUMPDEST SWAP4 SWAP3 POP POP POP JUMP JUMPDEST PUSH2 0x395B DUP2 PUSH2 0x2BCC JUMP JUMPDEST DUP2 EQ PUSH2 0x3965 JUMPI PUSH0 DUP1 REVERT JUMPDEST POP JUMP JUMPDEST PUSH0 DUP2 MLOAD SWAP1 POP PUSH2 0x3976 DUP2 PUSH2 0x3952 JUMP JUMPDEST SWAP3 SWAP2 POP POP JUMP JUMPDEST PUSH0 PUSH1 0x20 DUP3 DUP5 SUB SLT ISZERO PUSH2 0x3991 JUMPI PUSH2 0x3990 PUSH2 0x2B5C JUMP JUMPDEST JUMPDEST PUSH0 PUSH2 0x399E DUP5 DUP3 DUP6 ADD PUSH2 0x3968 JUMP JUMPDEST SWAP2 POP POP SWAP3 SWAP2 POP POP JUMP JUMPDEST PUSH32 0x526566756E64206661696C656400000000000000000000000000000000000000 PUSH0 DUP3 ADD MSTORE POP JUMP JUMPDEST PUSH0 PUSH2 0x39DB PUSH1 0xD DUP4 PUSH2 0x2C4C JUMP JUMPDEST SWAP2 POP PUSH2 0x39E6 DUP3 PUSH2 0x39A7 JUMP JUMPDEST PUSH1 0x20 DUP3 ADD SWAP1 POP SWAP2 SWAP1 POP JUMP JUMPDEST PUSH0 PUSH1 0x20 DUP3 ADD SWAP1 POP DUP2 DUP2 SUB PUSH0 DUP4 ADD MSTORE PUSH2 0x3A08 DUP2 PUSH2 0x39CF JUMP JUMPDEST SWAP1 POP SWAP2 SWAP1 POP JUMP JUMPDEST PUSH32 0x4F6E6C7920746865206F776E65722063616E2063616C6C20746869732066756E PUSH0 DUP3 ADD MSTORE PUSH32 0x6374696F6E000000000000000000000000000000000000000000000000000000 PUSH1 0x20 DUP3 ADD MSTORE POP JUMP JUMPDEST PUSH0 PUSH2 0x3A69 PUSH1 0x25 DUP4 PUSH2 0x2C4C JUMP JUMPDEST SWAP2 POP PUSH2 0x3A74 DUP3 PUSH2 0x3A0F JUMP JUMPDEST PUSH1 0x40 DUP3 ADD SWAP1 POP SWAP2 SWAP1 POP JUMP JUMPDEST PUSH0 PUSH1 0x20 DUP3 ADD SWAP1 POP DUP2 DUP2 SUB PUSH0 DUP4 ADD MSTORE PUSH2 0x3A96 DUP2 PUSH2 0x3A5D JUMP JUMPDEST SWAP1 POP SWAP2 SWAP1 POP JUMP JUMPDEST PUSH0 PUSH2 0x3AA7 DUP3 PUSH2 0x2B22 JUMP JUMPDEST SWAP2 POP PUSH32 0xFFFFFFFFFFFFFFFFFFFFFFFFFFFFFFFFFFFFFFFFFFFFFFFFFFFFFFFFFFFFFFFF DUP3 SUB PUSH2 0x3AD9 JUMPI PUSH2 0x3AD8 PUSH2 0x32FB JUMP JUMPDEST JUMPDEST PUSH1 0x1 DUP3 ADD SWAP1 POP SWAP2 SWAP1 POP JUMP JUMPDEST PUSH0 PUSH2 0x3AEE DUP3 PUSH2 0x2B22 JUMP JUMPDEST SWAP2 POP PUSH2 0x3AF9 DUP4 PUSH2 0x2B22 JUMP JUMPDEST SWAP3 POP DUP3 DUP3 ADD SWAP1 POP DUP1 DUP3 GT ISZERO PUSH2 0x3B11 JUMPI PUSH2 0x3B10 PUSH2 0x32FB JUMP JUMPDEST JUMPDEST SWAP3 SWAP2 POP POP JUMP JUMPDEST PUSH0 DUP2 SWAP1 POP DUP2 PUSH0 MSTORE PUSH1 0x20 PUSH0 KECCAK256 SWAP1 POP SWAP2 SWAP1 POP JUMP JUMPDEST PUSH0 PUSH1 0x20 PUSH1 0x1F DUP4 ADD DIV SWAP1 POP SWAP2 SWAP1 POP JUMP JUMPDEST PUSH0 DUP3 DUP3 SHL SWAP1 POP SWAP3 SWAP2 POP POP JUMP JUMPDEST PUSH0 PUSH1 0x8 DUP4 MUL PUSH2 0x3B73 PUSH32 0xFFFFFFFFFFFFFFFFFFFFFFFFFFFFFFFFFFFFFFFFFFFFFFFFFFFFFFFFFFFFFFFF DUP3 PUSH2 0x3B38 JUMP JUMPDEST PUSH2 0x3B7D DUP7 DUP4 PUSH2 0x3B38 JUMP JUMPDEST SWAP6 POP DUP1 NOT DUP5 AND SWAP4 POP DUP1 DUP7 AND DUP5 OR SWAP3 POP POP POP SWAP4 SWAP3 POP POP POP JUMP JUMPDEST PUSH0 PUSH2 0x3BAF PUSH2 0x3BAA PUSH2 0x3BA5 DUP5 PUSH2 0x2B22 JUMP JUMPDEST PUSH2 0x3209 JUMP JUMPDEST PUSH2 0x2B22 JUMP JUMPDEST SWAP1 POP SWAP2 SWAP1 POP JUMP JUMPDEST PUSH0 DUP2 SWAP1 POP SWAP2 SWAP1 POP JUMP JUMPDEST PUSH2 0x3BC8 DUP4 PUSH2 0x3B95 JUMP JUMPDEST PUSH2 0x3BDC PUSH2 0x3BD4 DUP3 PUSH2 0x3BB6 JUMP JUMPDEST DUP5 DUP5 SLOAD PUSH2 0x3B44 JUMP JUMPDEST DUP3 SSTORE POP POP POP POP JUMP JUMPDEST PUSH0 SWAP1 JUMP JUMPDEST PUSH2 0x3BF0 PUSH2 0x3BE4 JUMP JUMPDEST PUSH2 0x3BFB DUP2 DUP5 DUP5 PUSH2 0x3BBF JUMP JUMPDEST POP POP POP JUMP JUMPDEST JUMPDEST DUP2 DUP2 LT ISZERO PUSH2 0x3C1E JUMPI PUSH2 0x3C13 PUSH0 DUP3 PUSH2 0x3BE8 JUMP JUMPDEST PUSH1 0x1 DUP2 ADD SWAP1 POP PUSH2 0x3C01 JUMP JUMPDEST POP POP JUMP JUMPDEST PUSH1 0x1F DUP3 GT ISZERO PUSH2 0x3C63 JUMPI PUSH2 0x3C34 DUP2 PUSH2 0x3B17 JUMP JUMPDEST PUSH2 0x3C3D DUP5 PUSH2 0x3B29 JUMP JUMPDEST DUP2 ADD PUSH1 0x20 DUP6 LT ISZERO PUSH2 0x3C4C JUMPI DUP2 SWAP1 POP JUMPDEST PUSH2 0x3C60 PUSH2 0x3C58 DUP6 PUSH2 0x3B29 JUMP JUMPDEST DUP4 ADD DUP3 PUSH2 0x3C00 JUMP JUMPDEST POP POP JUMPDEST POP POP POP JUMP JUMPDEST PUSH0 DUP3 DUP3 SHR SWAP1 POP SWAP3 SWAP2 POP POP JUMP JUMPDEST PUSH0 PUSH2 0x3C83 PUSH0 NOT DUP5 PUSH1 0x8 MUL PUSH2 0x3C68 JUMP JUMPDEST NOT DUP1 DUP4 AND SWAP2 POP POP SWAP3 SWAP2 POP POP JUMP JUMPDEST PUSH0 PUSH2 0x3C9B DUP4 DUP4 PUSH2 0x3C74 JUMP JUMPDEST SWAP2 POP DUP3 PUSH1 0x2 MUL DUP3 OR SWAP1 POP SWAP3 SWAP2 POP POP JUMP JUMPDEST PUSH2 0x3CB4 DUP3 PUSH2 0x2C42 JUMP JUMPDEST PUSH8 0xFFFFFFFFFFFFFFFF DUP2 GT ISZERO PUSH2 0x3CCD JUMPI PUSH2 0x3CCC PUSH2 0x2F9C JUMP JUMPDEST JUMPDEST PUSH2 0x3CD7 DUP3 SLOAD PUSH2 0x35E3 JUMP JUMPDEST PUSH2 0x3CE2 DUP3 DUP3 DUP6 PUSH2 0x3C22 JUMP JUMPDEST PUSH0 PUSH1 0x20 SWAP1 POP PUSH1 0x1F DUP4 GT PUSH1 0x1 DUP2 EQ PUSH2 0x3D13 JUMPI PUSH0 DUP5 ISZERO PUSH2 0x3D01 JUMPI DUP3 DUP8 ADD MLOAD SWAP1 POP JUMPDEST PUSH2 0x3D0B DUP6 DUP3 PUSH2 0x3C90 JUMP JUMPDEST DUP7 SSTORE POP PUSH2 0x3D72 JUMP JUMPDEST PUSH1 0x1F NOT DUP5 AND PUSH2 0x3D21 DUP7 PUSH2 0x3B17 JUMP JUMPDEST PUSH0 JUMPDEST DUP3 DUP2 LT ISZERO PUSH2 0x3D48 JUMPI DUP5 DUP10 ADD MLOAD DUP3 SSTORE PUSH1 0x1 DUP3 ADD SWAP2 POP PUSH1 0x20 DUP6 ADD SWAP5 POP PUSH1 0x20 DUP2 ADD SWAP1 POP PUSH2 0x3D23 JUMP JUMPDEST DUP7 DUP4 LT ISZERO PUSH2 0x3D65 JUMPI DUP5 DUP10 ADD MLOAD PUSH2 0x3D61 PUSH1 0x1F DUP10 AND DUP3 PUSH2 0x3C74 JUMP JUMPDEST DUP4 SSTORE POP JUMPDEST PUSH1 0x1 PUSH1 0x2 DUP9 MUL ADD DUP9 SSTORE POP POP POP JUMPDEST POP POP POP POP POP POP JUMP JUMPDEST PUSH0 PUSH1 0x60 DUP3 ADD SWAP1 POP PUSH2 0x3D8D PUSH0 DUP4 ADD DUP7 PUSH2 0x2B2B JUMP JUMPDEST PUSH2 0x3D9A PUSH1 0x20 DUP4 ADD DUP6 PUSH2 0x2B2B JUMP JUMPDEST PUSH2 0x3DA7 PUSH1 0x40 DUP4 ADD DUP5 PUSH2 0x2B2B JUMP JUMPDEST SWAP5 SWAP4 POP POP POP POP JUMP JUMPDEST PUSH32 0x4C6F7474657279206973206E6F742052455645414C2073746174650000000000 PUSH0 DUP3 ADD MSTORE POP JUMP JUMPDEST PUSH0 PUSH2 0x3DE3 PUSH1 0x1B DUP4 PUSH2 0x2C4C JUMP JUMPDEST SWAP2 POP PUSH2 0x3DEE DUP3 PUSH2 0x3DAF JUMP JUMPDEST PUSH1 0x20 DUP3 ADD SWAP1 POP SWAP2 SWAP1 POP JUMP JUMPDEST PUSH0 PUSH1 0x20 DUP3 ADD SWAP1 POP DUP2 DUP2 SUB PUSH0 DUP4 ADD MSTORE PUSH2 0x3E10 DUP2 PUSH2 0x3DD7 JUMP JUMPDEST SWAP1 POP SWAP2 SWAP1 POP JUMP JUMPDEST PUSH32 0x5469636B657420646F6573206E6F742065786973740000000000000000000000 PUSH0 DUP3 ADD MSTORE POP JUMP JUMPDEST PUSH0 PUSH2 0x3E4B PUSH1 0x15 DUP4 PUSH2 0x2C4C JUMP JUMPDEST SWAP2 POP PUSH2 0x3E56 DUP3 PUSH2 0x3E17 JUMP JUMPDEST PUSH1 0x20 DUP3 ADD SWAP1 POP SWAP2 SWAP1 POP JUMP JUMPDEST PUSH0 PUSH1 0x20 DUP3 ADD SWAP1 POP DUP2 DUP2 SUB PUSH0 DUP4 ADD MSTORE PUSH2 0x3E78 DUP2 PUSH2 0x3E3F JUMP JUMPDEST SWAP1 POP SWAP2 SWAP1 POP JUMP JUMPDEST PUSH32 0x5469636B657420616C72656164792072657665616C6564000000000000000000 PUSH0 DUP3 ADD MSTORE POP JUMP JUMPDEST PUSH0 PUSH2 0x3EB3 PUSH1 0x17 DUP4 PUSH2 0x2C4C JUMP JUMPDEST SWAP2 POP PUSH2 0x3EBE DUP3 PUSH2 0x3E7F JUMP JUMPDEST PUSH1 0x20 DUP3 ADD SWAP1 POP SWAP2 SWAP1 POP JUMP JUMPDEST PUSH0 PUSH1 0x20 DUP3 ADD SWAP1 POP DUP2 DUP2 SUB PUSH0 DUP4 ADD MSTORE PUSH2 0x3EE0 DUP2 PUSH2 0x3EA7 JUMP JUMPDEST SWAP1 POP SWAP2 SWAP1 POP JUMP JUMPDEST PUSH0 DUP2 SWAP1 POP SWAP2 SWAP1 POP JUMP JUMPDEST PUSH2 0x3F01 PUSH2 0x3EFC DUP3 PUSH2 0x2B22 JUMP JUMPDEST PUSH2 0x3EE7 JUMP JUMPDEST DUP3 MSTORE POP POP JUMP JUMPDEST PUSH0 PUSH2 0x3F12 DUP3 DUP5 PUSH2 0x3EF0 JUMP JUMPDEST PUSH1 0x20 DUP3 ADD SWAP2 POP DUP2 SWAP1 POP SWAP3 SWAP2 POP POP JUMP JUMPDEST PUSH0 DUP2 SWAP1 POP SWAP2 SWAP1 POP JUMP JUMPDEST PUSH2 0x3F3B PUSH2 0x3F36 DUP3 PUSH2 0x2C2A JUMP JUMPDEST PUSH2 0x3F21 JUMP JUMPDEST DUP3 MSTORE POP POP JUMP JUMPDEST PUSH0 DUP2 PUSH1 0x60 SHL SWAP1 POP SWAP2 SWAP1 POP JUMP JUMPDEST PUSH0 PUSH2 0x3F57 DUP3 PUSH2 0x3F41 JUMP JUMPDEST SWAP1 POP SWAP2 SWAP1 POP JUMP JUMPDEST PUSH0 PUSH2 0x3F68 DUP3 PUSH2 0x3F4D JUMP JUMPDEST SWAP1 POP SWAP2 SWAP1 POP JUMP JUMPDEST PUSH2 0x3F80 PUSH2 0x3F7B DUP3 PUSH2 0x2E03 JUMP JUMPDEST PUSH2 0x3F5E JUMP JUMPDEST DUP3 MSTORE POP POP JUMP JUMPDEST PUSH0 PUSH2 0x3F91 DUP3 DUP6 PUSH2 0x3F2A JUMP JUMPDEST PUSH1 0x20 DUP3 ADD SWAP2 POP PUSH2 0x3FA1 DUP3 DUP5 PUSH2 0x3F6F JUMP JUMPDEST PUSH1 0x14 DUP3 ADD SWAP2 POP DUP2 SWAP1 POP SWAP4 SWAP3 POP POP POP JUMP JUMPDEST PUSH32 0x596F752072657665616C656420612077726F6E67206E756D6265720000000000 PUSH0 DUP3 ADD MSTORE POP JUMP JUMPDEST PUSH0 PUSH2 0x3FE5 PUSH1 0x1B DUP4 PUSH2 0x2C4C JUMP JUMPDEST SWAP2 POP PUSH2 0x3FF0 DUP3 PUSH2 0x3FB1 JUMP JUMPDEST PUSH1 0x20 DUP3 ADD SWAP1 POP SWAP2 SWAP1 POP JUMP JUMPDEST PUSH0 PUSH1 0x20 DUP3 ADD SWAP1 POP DUP2 DUP2 SUB PUSH0 DUP4 ADD MSTORE PUSH2 0x4012 DUP2 PUSH2 0x3FD9 JUMP JUMPDEST SWAP1 POP SWAP2 SWAP1 POP JUMP JUMPDEST PUSH32 0x4C6F747465727920686173206E6F74206265656E20636F6D706C657465640000 PUSH0 DUP3 ADD MSTORE POP JUMP JUMPDEST PUSH0 PUSH2 0x404D PUSH1 0x1E DUP4 PUSH2 0x2C4C JUMP JUMPDEST SWAP2 POP PUSH2 0x4058 DUP3 PUSH2 0x4019 JUMP JUMPDEST PUSH1 0x20 DUP3 ADD SWAP1 POP SWAP2 SWAP1 POP JUMP JUMPDEST PUSH0 PUSH1 0x20 DUP3 ADD SWAP1 POP DUP2 DUP2 SUB PUSH0 DUP4 ADD MSTORE PUSH2 0x407A DUP2 PUSH2 0x4041 JUMP JUMPDEST SWAP1 POP SWAP2 SWAP1 POP JUMP JUMPDEST PUSH0 DUP2 MLOAD SWAP1 POP PUSH2 0x408F DUP2 PUSH2 0x2B64 JUMP JUMPDEST SWAP3 SWAP2 POP POP JUMP JUMPDEST PUSH0 PUSH1 0x20 DUP3 DUP5 SUB SLT ISZERO PUSH2 0x40AA JUMPI PUSH2 0x40A9 PUSH2 0x2B5C JUMP JUMPDEST JUMPDEST PUSH0 PUSH2 0x40B7 DUP5 DUP3 DUP6 ADD PUSH2 0x4081 JUMP JUMPDEST SWAP2 POP POP SWAP3 SWAP2 POP POP JUMP JUMPDEST PUSH32 0x496E73756666696369656E742066756E64730000000000000000000000000000 PUSH0 DUP3 ADD MSTORE POP JUMP JUMPDEST PUSH0 PUSH2 0x40F4 PUSH1 0x12 DUP4 PUSH2 0x2C4C JUMP JUMPDEST SWAP2 POP PUSH2 0x40FF DUP3 PUSH2 0x40C0 JUMP JUMPDEST PUSH1 0x20 DUP3 ADD SWAP1 POP SWAP2 SWAP1 POP JUMP JUMPDEST PUSH0 PUSH1 0x20 DUP3 ADD SWAP1 POP DUP2 DUP2 SUB PUSH0 DUP4 ADD MSTORE PUSH2 0x4121 DUP2 PUSH2 0x40E8 JUMP JUMPDEST SWAP1 POP SWAP2 SWAP1 POP JUMP JUMPDEST PUSH32 0x7472616E73666572206661696C65640000000000000000000000000000000000 PUSH0 DUP3 ADD MSTORE POP JUMP JUMPDEST PUSH0 PUSH2 0x415C PUSH1 0xF DUP4 PUSH2 0x2C4C JUMP JUMPDEST SWAP2 POP PUSH2 0x4167 DUP3 PUSH2 0x4128 JUMP JUMPDEST PUSH1 0x20 DUP3 ADD SWAP1 POP SWAP2 SWAP1 POP JUMP JUMPDEST PUSH0 PUSH1 0x20 DUP3 ADD SWAP1 POP DUP2 DUP2 SUB PUSH0 DUP4 ADD MSTORE PUSH2 0x4189 DUP2 PUSH2 0x4150 JUMP JUMPDEST SWAP1 POP SWAP2 SWAP1 POP JUMP JUMPDEST PUSH32 0x4E6F74206265656E20636F6D706C657465640000000000000000000000000000 PUSH0 DUP3 ADD MSTORE POP JUMP JUMPDEST PUSH0 PUSH2 0x41C4 PUSH1 0x12 DUP4 PUSH2 0x2C4C JUMP JUMPDEST SWAP2 POP PUSH2 0x41CF DUP3 PUSH2 0x4190 JUMP JUMPDEST PUSH1 0x20 DUP3 ADD SWAP1 POP SWAP2 SWAP1 POP JUMP JUMPDEST PUSH0 PUSH1 0x20 DUP3 ADD SWAP1 POP DUP2 DUP2 SUB PUSH0 DUP4 ADD MSTORE PUSH2 0x41F1 DUP2 PUSH2 0x41B8 JUMP JUMPDEST SWAP1 POP SWAP2 SWAP1 POP JUMP JUMPDEST PUSH32 0x4E6F7420656E6F756768207469636B65747320736F6C64000000000000000000 PUSH0 DUP3 ADD MSTORE POP JUMP JUMPDEST PUSH0 PUSH2 0x422C PUSH1 0x17 DUP4 PUSH2 0x2C4C JUMP JUMPDEST SWAP2 POP PUSH2 0x4237 DUP3 PUSH2 0x41F8 JUMP JUMPDEST PUSH1 0x20 DUP3 ADD SWAP1 POP SWAP2 SWAP1 POP JUMP JUMPDEST PUSH0 PUSH1 0x20 DUP3 ADD SWAP1 POP DUP2 DUP2 SUB PUSH0 DUP4 ADD MSTORE PUSH2 0x4259 DUP2 PUSH2 0x4220 JUMP JUMPDEST SWAP1 POP SWAP2 SWAP1 POP JUMP JUMPDEST PUSH0 PUSH2 0x426B DUP3 DUP6 PUSH2 0x3EF0 JUMP JUMPDEST PUSH1 0x20 DUP3 ADD SWAP2 POP PUSH2 0x427B DUP3 DUP5 PUSH2 0x3EF0 JUMP JUMPDEST PUSH1 0x20 DUP3 ADD SWAP2 POP DUP2 SWAP1 POP SWAP4 SWAP3 POP POP POP JUMP JUMPDEST PUSH0 PUSH2 0x4295 DUP3 PUSH2 0x2B22 JUMP JUMPDEST SWAP2 POP PUSH2 0x42A0 DUP4 PUSH2 0x2B22 JUMP JUMPDEST SWAP3 POP DUP3 PUSH2 0x42B0 JUMPI PUSH2 0x42AF PUSH2 0x3654 JUMP JUMPDEST JUMPDEST DUP3 DUP3 MOD SWAP1 POP SWAP3 SWAP2 POP POP JUMP JUMPDEST PUSH0 DUP2 SLOAD SWAP1 POP SWAP2 SWAP1 POP JUMP JUMPDEST PUSH0 DUP3 DUP3 MSTORE PUSH1 0x20 DUP3 ADD SWAP1 POP SWAP3 SWAP2 POP POP JUMP JUMPDEST PUSH0 DUP2 SWAP1 POP DUP2 PUSH0 MSTORE PUSH1 0x20 PUSH0 KECCAK256 SWAP1 POP SWAP2 SWAP1 POP JUMP JUMPDEST PUSH2 0x42F0 DUP2 PUSH2 0x2B22 JUMP JUMPDEST DUP3 MSTORE POP POP JUMP JUMPDEST PUSH0 PUSH2 0x4301 DUP4 DUP4 PUSH2 0x42E7 JUMP JUMPDEST PUSH1 0x20 DUP4 ADD SWAP1 POP SWAP3 SWAP2 POP POP JUMP JUMPDEST PUSH0 DUP2 PUSH0 SHR SWAP1 POP SWAP2 SWAP1 POP JUMP JUMPDEST PUSH0 DUP2 SWAP1 POP SWAP2 SWAP1 POP JUMP JUMPDEST PUSH0 PUSH2 0x4333 PUSH2 0x432E DUP4 PUSH2 0x430D JUMP JUMPDEST PUSH2 0x4318 JUMP JUMPDEST SWAP1 POP SWAP2 SWAP1 POP JUMP JUMPDEST PUSH0 PUSH2 0x4345 DUP3 SLOAD PUSH2 0x4321 JUMP JUMPDEST SWAP1 POP SWAP2 SWAP1 POP JUMP JUMPDEST PUSH0 PUSH1 0x1 DUP3 ADD SWAP1 POP SWAP2 SWAP1 POP JUMP JUMPDEST PUSH0 PUSH2 0x4362 DUP3 PUSH2 0x42BB JUMP JUMPDEST PUSH2 0x436C DUP2 DUP6 PUSH2 0x42C5 JUMP JUMPDEST SWAP4 POP PUSH2 0x4377 DUP4 PUSH2 0x42D5 JUMP JUMPDEST DUP1 PUSH0 JUMPDEST DUP4 DUP2 LT ISZERO PUSH2 0x43AE JUMPI PUSH2 0x438B DUP3 PUSH2 0x433A JUMP JUMPDEST PUSH2 0x4395 DUP9 DUP3 PUSH2 0x42F6 JUMP JUMPDEST SWAP8 POP PUSH2 0x43A0 DUP4 PUSH2 0x434C JUMP JUMPDEST SWAP3 POP POP PUSH1 0x1 DUP2 ADD SWAP1 POP PUSH2 0x437A JUMP JUMPDEST POP DUP6 SWAP4 POP POP POP POP SWAP3 SWAP2 POP POP JUMP JUMPDEST PUSH0 PUSH1 0x40 DUP3 ADD SWAP1 POP PUSH2 0x43CE PUSH0 DUP4 ADD DUP6 PUSH2 0x2B2B JUMP JUMPDEST DUP2 DUP2 SUB PUSH1 0x20 DUP4 ADD MSTORE PUSH2 0x43E0 DUP2 DUP5 PUSH2 0x4358 JUMP JUMPDEST SWAP1 POP SWAP4 SWAP3 POP POP POP JUMP JUMPDEST PUSH32 0x4C6F7474657279206973206E6F74206163746976650000000000000000000000 PUSH0 DUP3 ADD MSTORE POP JUMP JUMPDEST PUSH0 PUSH2 0x441D PUSH1 0x15 DUP4 PUSH2 0x2C4C JUMP JUMPDEST SWAP2 POP PUSH2 0x4428 DUP3 PUSH2 0x43E9 JUMP JUMPDEST PUSH1 0x20 DUP3 ADD SWAP1 POP SWAP2 SWAP1 POP JUMP JUMPDEST PUSH0 PUSH1 0x20 DUP3 ADD SWAP1 POP DUP2 DUP2 SUB PUSH0 DUP4 ADD MSTORE PUSH2 0x444A DUP2 PUSH2 0x4411 JUMP JUMPDEST SWAP1 POP SWAP2 SWAP1 POP JUMP JUMPDEST PUSH32 0x4C6F74746572792073616C6520697320646F6E65000000000000000000000000 PUSH0 DUP3 ADD MSTORE POP JUMP JUMPDEST PUSH0 PUSH2 0x4485 PUSH1 0x14 DUP4 PUSH2 0x2C4C JUMP JUMPDEST SWAP2 POP PUSH2 0x4490 DUP3 PUSH2 0x4451 JUMP JUMPDEST PUSH1 0x20 DUP3 ADD SWAP1 POP SWAP2 SWAP1 POP JUMP JUMPDEST PUSH0 PUSH1 0x20 DUP3 ADD SWAP1 POP DUP2 DUP2 SUB PUSH0 DUP4 ADD MSTORE PUSH2 0x44B2 DUP2 PUSH2 0x4479 JUMP JUMPDEST SWAP1 POP SWAP2 SWAP1 POP JUMP JUMPDEST PUSH32 0x596F752063616E207075726368617365206174206D6F7374203330207469636B PUSH0 DUP3 ADD MSTORE PUSH32 0x6574732E20000000000000000000000000000000000000000000000000000000 PUSH1 0x20 DUP3 ADD MSTORE POP JUMP JUMPDEST PUSH0 PUSH2 0x4513 PUSH1 0x25 DUP4 PUSH2 0x2C4C JUMP JUMPDEST SWAP2 POP PUSH2 0x451E DUP3 PUSH2 0x44B9 JUMP JUMPDEST PUSH1 0x40 DUP3 ADD SWAP1 POP SWAP2 SWAP1 POP JUMP JUMPDEST PUSH0 PUSH1 0x20 DUP3 ADD SWAP1 POP DUP2 DUP2 SUB PUSH0 DUP4 ADD MSTORE PUSH2 0x4540 DUP2 PUSH2 0x4507 JUMP JUMPDEST SWAP1 POP SWAP2 SWAP1 POP JUMP JUMPDEST PUSH32 0x4E6F7420656E6F756768207469636B65747320617661696C61626C6500000000 PUSH0 DUP3 ADD MSTORE POP JUMP JUMPDEST PUSH0 PUSH2 0x457B PUSH1 0x1C DUP4 PUSH2 0x2C4C JUMP JUMPDEST SWAP2 POP PUSH2 0x4586 DUP3 PUSH2 0x4547 JUMP JUMPDEST PUSH1 0x20 DUP3 ADD SWAP1 POP SWAP2 SWAP1 POP JUMP JUMPDEST PUSH0 PUSH1 0x20 DUP3 ADD SWAP1 POP DUP2 DUP2 SUB PUSH0 DUP4 ADD MSTORE PUSH2 0x45A8 DUP2 PUSH2 0x456F JUMP JUMPDEST SWAP1 POP SWAP2 SWAP1 POP JUMP INVALID LOG2 PUSH5 0x6970667358 0x22 SLT KECCAK256 PUSH0 0xF 0xA5 NUMBER CALLDATALOAD 0xF 0xAD PUSH23 0x2AEFDE35F3E648566475AB98D148C197680ECA3CC67F44 DUP7 PUSH5 0x736F6C6343 STOP ADDMOD BYTE STOP CALLER "
		},
		"gasEstimates": {
			"creation": {
				"codeDepositCost": "3578600",
				"executionCost": "infinite",
				"totalCost": "infinite"
			},
			"external": {
				"buyTicketTx(uint256,uint256,bytes32)": "infinite",
				"checkIfAddrTicketWon(address,uint256,uint256)": "infinite",
				"checkIfMyTicketWon(uint256,uint256)": "infinite",
				"createLottery(uint256,uint256,uint256,uint256,uint256,bytes32,string)": "infinite",
				"currentLotteryNo()": "2449",
				"determineWinners(uint256)": "infinite",
				"getCurrentLotteryNo()": "2566",
				"getIthPurchasedTicketTx(uint256,uint256)": "infinite",
				"getIthWinningTicket(uint256,uint256)": "infinite",
				"getLotteryInfo(uint256)": "infinite",
				"getLotterySales(uint256)": "infinite",
				"getLotteryURL(uint256)": "infinite",
				"getNumPurchaseTxs(uint256)": "infinite",
				"getPaymentToken(uint256)": "4943",
				"lotteries(uint256)": "infinite",
				"lotteryTickets(uint256,uint256)": "infinite",
				"owner()": "2531",
				"revealRndNumberTx(uint256,uint256,uint256)": "infinite",
				"setPaymentToken(address)": "26985",
				"ticketToken()": "infinite",
				"tokenAddress()": "2575",
				"updateLotteryStates()": "infinite",
				"withdrawTicketProceeds(uint256)": "infinite",
				"withdrawTicketRefund(uint256,uint256)": "infinite"
			},
			"internal": {
				"arrayContains(uint256[] memory,uint256)": "infinite"
			}
		},
		"methodIdentifiers": {
			"buyTicketTx(uint256,uint256,bytes32)": "e0767cd9",
			"checkIfAddrTicketWon(address,uint256,uint256)": "5bddbaac",
			"checkIfMyTicketWon(uint256,uint256)": "12b349d5",
			"createLottery(uint256,uint256,uint256,uint256,uint256,bytes32,string)": "7df858db",
			"currentLotteryNo()": "0400f4d0",
			"determineWinners(uint256)": "c5929bc7",
			"getCurrentLotteryNo()": "5b7b3d58",
			"getIthPurchasedTicketTx(uint256,uint256)": "89b2acbc",
			"getIthWinningTicket(uint256,uint256)": "e54778b5",
			"getLotteryInfo(uint256)": "76b3c8a8",
			"getLotterySales(uint256)": "cc42a7c5",
			"getLotteryURL(uint256)": "dc969f22",
			"getNumPurchaseTxs(uint256)": "adc51cdb",
			"getPaymentToken(uint256)": "cdc2aebf",
			"lotteries(uint256)": "1398e076",
			"lotteryTickets(uint256,uint256)": "49c0de88",
			"owner()": "8da5cb5b",
			"revealRndNumberTx(uint256,uint256,uint256)": "9351e76b",
			"setPaymentToken(address)": "6a326ab1",
			"ticketToken()": "d5ed4d5a",
			"tokenAddress()": "9d76ea58",
			"updateLotteryStates()": "5125a252",
			"withdrawTicketProceeds(uint256)": "ad943d1e",
			"withdrawTicketRefund(uint256,uint256)": "687e47d8"
		}
	},
	"abi": [
		{
			"inputs": [
				{
					"internalType": "address",
					"name": "_ticketTokenAddress",
					"type": "address"
				}
			],
			"stateMutability": "nonpayable",
			"type": "constructor"
		},
		{
			"anonymous": false,
			"inputs": [
				{
					"indexed": false,
					"internalType": "uint256",
					"name": "lottery_no",
					"type": "uint256"
				},
				{
					"indexed": false,
					"internalType": "uint256",
					"name": "unixbeg",
					"type": "uint256"
				},
				{
					"indexed": false,
					"internalType": "uint256",
					"name": "nooftickets",
					"type": "uint256"
				}
			],
			"name": "LotteryCreated",
			"type": "event"
		},
		{
			"anonymous": false,
			"inputs": [
				{
					"indexed": false,
					"internalType": "uint256",
					"name": "lottery_no",
					"type": "uint256"
				},
				{
					"indexed": false,
					"internalType": "uint256[]",
					"name": "winners",
					"type": "uint256[]"
				}
			],
			"name": "WinnersDetermined",
			"type": "event"
		},
		{
			"inputs": [
				{
					"internalType": "uint256",
					"name": "lottery_no",
					"type": "uint256"
				},
				{
					"internalType": "uint256",
					"name": "quantity",
					"type": "uint256"
				},
				{
					"internalType": "bytes32",
					"name": "hash_rnd_number",
					"type": "bytes32"
				}
			],
			"name": "buyTicketTx",
			"outputs": [
				{
					"internalType": "uint256",
					"name": "sticketno",
					"type": "uint256"
				}
			],
			"stateMutability": "nonpayable",
			"type": "function"
		},
		{
			"inputs": [
				{
					"internalType": "address",
					"name": "addr",
					"type": "address"
				},
				{
					"internalType": "uint256",
					"name": "lottery_no",
					"type": "uint256"
				},
				{
					"internalType": "uint256",
					"name": "ticket_no",
					"type": "uint256"
				}
			],
			"name": "checkIfAddrTicketWon",
			"outputs": [
				{
					"internalType": "bool",
					"name": "won",
					"type": "bool"
				}
			],
			"stateMutability": "view",
			"type": "function"
		},
		{
			"inputs": [
				{
					"internalType": "uint256",
					"name": "lottery_no",
					"type": "uint256"
				},
				{
					"internalType": "uint256",
					"name": "ticket_no",
					"type": "uint256"
				}
			],
			"name": "checkIfMyTicketWon",
			"outputs": [
				{
					"internalType": "bool",
					"name": "won",
					"type": "bool"
				}
			],
			"stateMutability": "view",
			"type": "function"
		},
		{
			"inputs": [
				{
					"internalType": "uint256",
					"name": "unixbeg",
					"type": "uint256"
				},
				{
					"internalType": "uint256",
					"name": "nooftickets",
					"type": "uint256"
				},
				{
					"internalType": "uint256",
					"name": "noofwinners",
					"type": "uint256"
				},
				{
					"internalType": "uint256",
					"name": "minpercentage",
					"type": "uint256"
				},
				{
					"internalType": "uint256",
					"name": "ticketprice",
					"type": "uint256"
				},
				{
					"internalType": "bytes32",
					"name": "htmlhash",
					"type": "bytes32"
				},
				{
					"internalType": "string",
					"name": "url",
					"type": "string"
				}
			],
			"name": "createLottery",
			"outputs": [
				{
					"internalType": "uint256",
					"name": "lottery_no",
					"type": "uint256"
				}
			],
			"stateMutability": "nonpayable",
			"type": "function"
		},
		{
			"inputs": [],
			"name": "currentLotteryNo",
			"outputs": [
				{
					"internalType": "uint256",
					"name": "",
					"type": "uint256"
				}
			],
			"stateMutability": "view",
			"type": "function"
		},
		{
			"inputs": [
				{
					"internalType": "uint256",
					"name": "lottery_no",
					"type": "uint256"
				}
			],
			"name": "determineWinners",
			"outputs": [],
			"stateMutability": "nonpayable",
			"type": "function"
		},
		{
			"inputs": [],
			"name": "getCurrentLotteryNo",
			"outputs": [
				{
					"internalType": "uint256",
					"name": "lottery_no",
					"type": "uint256"
				}
			],
			"stateMutability": "view",
			"type": "function"
		},
		{
			"inputs": [
				{
					"internalType": "uint256",
					"name": "i",
					"type": "uint256"
				},
				{
					"internalType": "uint256",
					"name": "lottery_no",
					"type": "uint256"
				}
			],
			"name": "getIthPurchasedTicketTx",
			"outputs": [
				{
					"internalType": "uint256",
					"name": "sticketno",
					"type": "uint256"
				},
				{
					"internalType": "uint256",
					"name": "quantity",
					"type": "uint256"
				}
			],
			"stateMutability": "view",
			"type": "function"
		},
		{
			"inputs": [
				{
					"internalType": "uint256",
					"name": "lottery_no",
					"type": "uint256"
				},
				{
					"internalType": "uint256",
					"name": "i",
					"type": "uint256"
				}
			],
			"name": "getIthWinningTicket",
			"outputs": [
				{
					"internalType": "uint256",
					"name": "ticketno",
					"type": "uint256"
				}
			],
			"stateMutability": "view",
			"type": "function"
		},
		{
			"inputs": [
				{
					"internalType": "uint256",
					"name": "lottery_no",
					"type": "uint256"
				}
			],
			"name": "getLotteryInfo",
			"outputs": [
				{
					"internalType": "uint256",
					"name": "unixbeg",
					"type": "uint256"
				},
				{
					"internalType": "uint256",
					"name": "nooftickets",
					"type": "uint256"
				},
				{
					"internalType": "uint256",
					"name": "noofwinners",
					"type": "uint256"
				},
				{
					"internalType": "uint256",
					"name": "minpercentage",
					"type": "uint256"
				},
				{
					"internalType": "uint256",
					"name": "ticketprice",
					"type": "uint256"
				}
			],
			"stateMutability": "view",
			"type": "function"
		},
		{
			"inputs": [
				{
					"internalType": "uint256",
					"name": "lottery_no",
					"type": "uint256"
				}
			],
			"name": "getLotterySales",
			"outputs": [
				{
					"internalType": "uint256",
					"name": "numsold",
					"type": "uint256"
				}
			],
			"stateMutability": "view",
			"type": "function"
		},
		{
			"inputs": [
				{
					"internalType": "uint256",
					"name": "lottery_no",
					"type": "uint256"
				}
			],
			"name": "getLotteryURL",
			"outputs": [
				{
					"internalType": "bytes32",
					"name": "htmlhash",
					"type": "bytes32"
				},
				{
					"internalType": "string",
					"name": "url",
					"type": "string"
				}
			],
			"stateMutability": "view",
			"type": "function"
		},
		{
			"inputs": [
				{
					"internalType": "uint256",
					"name": "lottery_no",
					"type": "uint256"
				}
			],
			"name": "getNumPurchaseTxs",
			"outputs": [
				{
					"internalType": "uint256",
					"name": "numpurchasetxs",
					"type": "uint256"
				}
			],
			"stateMutability": "view",
			"type": "function"
		},
		{
			"inputs": [
				{
					"internalType": "uint256",
					"name": "lottery_no",
					"type": "uint256"
				}
			],
			"name": "getPaymentToken",
			"outputs": [
				{
					"internalType": "address",
					"name": "erctokenaddr",
					"type": "address"
				}
			],
			"stateMutability": "view",
			"type": "function"
		},
		{
			"inputs": [
				{
					"internalType": "uint256",
					"name": "",
					"type": "uint256"
				}
			],
			"name": "lotteries",
			"outputs": [
				{
					"internalType": "uint256",
					"name": "unixbeg",
					"type": "uint256"
				},
				{
					"internalType": "uint256",
					"name": "nooftickets",
					"type": "uint256"
				},
				{
					"internalType": "uint256",
					"name": "noofwinners",
					"type": "uint256"
				},
				{
					"internalType": "uint256",
					"name": "minpercentage",
					"type": "uint256"
				},
				{
					"internalType": "uint256",
					"name": "ticketprice",
					"type": "uint256"
				},
				{
					"internalType": "bytes32",
					"name": "htmlhash",
					"type": "bytes32"
				},
				{
					"internalType": "string",
					"name": "url",
					"type": "string"
				},
				{
					"internalType": "uint256",
					"name": "revealStartTime",
					"type": "uint256"
				},
				{
					"internalType": "enum LotteryStructs.LotteryState",
					"name": "state",
					"type": "uint8"
				},
				{
					"internalType": "uint256",
					"name": "numsold",
					"type": "uint256"
				},
				{
					"internalType": "uint256",
					"name": "numpurchasetxs",
					"type": "uint256"
				},
				{
					"internalType": "uint256",
					"name": "currentRandom",
					"type": "uint256"
				}
			],
			"stateMutability": "view",
			"type": "function"
		},
		{
			"inputs": [
				{
					"internalType": "uint256",
					"name": "",
					"type": "uint256"
				},
				{
					"internalType": "uint256",
					"name": "",
					"type": "uint256"
				}
			],
			"name": "lotteryTickets",
			"outputs": [
				{
					"internalType": "address",
					"name": "owner",
					"type": "address"
				},
				{
					"internalType": "uint256",
					"name": "quantity",
					"type": "uint256"
				},
				{
					"internalType": "bytes32",
					"name": "hash",
					"type": "bytes32"
				},
				{
					"internalType": "bool",
					"name": "revealed",
					"type": "bool"
				},
				{
					"internalType": "bool",
					"name": "redeemed",
					"type": "bool"
				}
			],
			"stateMutability": "view",
			"type": "function"
		},
		{
			"inputs": [],
			"name": "owner",
			"outputs": [
				{
					"internalType": "address",
					"name": "",
					"type": "address"
				}
			],
			"stateMutability": "view",
			"type": "function"
		},
		{
			"inputs": [
				{
					"internalType": "uint256",
					"name": "lottery_no",
					"type": "uint256"
				},
				{
					"internalType": "uint256",
					"name": "sticketno",
					"type": "uint256"
				},
				{
					"internalType": "uint256",
					"name": "rnd_number",
					"type": "uint256"
				}
			],
			"name": "revealRndNumberTx",
			"outputs": [],
			"stateMutability": "nonpayable",
			"type": "function"
		},
		{
			"inputs": [
				{
					"internalType": "address",
					"name": "erctokenaddr",
					"type": "address"
				}
			],
			"name": "setPaymentToken",
			"outputs": [],
			"stateMutability": "nonpayable",
			"type": "function"
		},
		{
			"inputs": [],
			"name": "ticketToken",
			"outputs": [
				{
					"internalType": "contract TicketToken",
					"name": "",
					"type": "address"
				}
			],
			"stateMutability": "view",
			"type": "function"
		},
		{
			"inputs": [],
			"name": "tokenAddress",
			"outputs": [
				{
					"internalType": "address",
					"name": "",
					"type": "address"
				}
			],
			"stateMutability": "view",
			"type": "function"
		},
		{
			"inputs": [],
			"name": "updateLotteryStates",
			"outputs": [],
			"stateMutability": "nonpayable",
			"type": "function"
		},
		{
			"inputs": [
				{
					"internalType": "uint256",
					"name": "lottery_no",
					"type": "uint256"
				}
			],
			"name": "withdrawTicketProceeds",
			"outputs": [],
			"stateMutability": "nonpayable",
			"type": "function"
		},
		{
			"inputs": [
				{
					"internalType": "uint256",
					"name": "lottery_no",
					"type": "uint256"
				},
				{
					"internalType": "uint256",
					"name": "sticket_no",
					"type": "uint256"
				}
			],
			"name": "withdrawTicketRefund",
			"outputs": [],
			"stateMutability": "nonpayable",
			"type": "function"
		}
	]
}