{
	"data": {
		"bytecode": {
			"linkReferences": {},
			"object": "608060405234801561000f575f80fd5b5060405161494138038061494183398181016040528101906100319190610154565b3360025f6101000a81548173ffffffffffffffffffffffffffffffffffffffff021916908373ffffffffffffffffffffffffffffffffffffffff1602179055508060015f6101000a81548173ffffffffffffffffffffffffffffffffffffffff021916908373ffffffffffffffffffffffffffffffffffffffff160217905550805f806101000a81548173ffffffffffffffffffffffffffffffffffffffff021916908373ffffffffffffffffffffffffffffffffffffffff1602179055505061017f565b5f80fd5b5f73ffffffffffffffffffffffffffffffffffffffff82169050919050565b5f610123826100fa565b9050919050565b61013381610119565b811461013d575f80fd5b50565b5f8151905061014e8161012a565b92915050565b5f60208284031215610169576101686100f6565b5b5f61017684828501610140565b91505092915050565b6147b58061018c5f395ff3fe608060405234801561000f575f80fd5b5060043610610171575f3560e01c80638da5cb5b116100dc578063cc42a7c511610095578063d5ed4d5a1161006f578063d5ed4d5a146104a7578063dc969f22146104c5578063e0767cd9146104f6578063e54778b51461052657610171565b8063cc42a7c514610417578063cdc2aebf14610447578063d366b2f91461047757610171565b80638da5cb5b146103575780639351e76b146103755780639d76ea5814610391578063ad943d1e146103af578063adc51cdb146103cb578063c5929bc7146103fb57610171565b80635bddbaac1161012e5780635bddbaac1461025a578063687e47d81461028a5780636a326ab1146102a657806376b3c8a8146102c25780637df858db146102f657806389b2acbc1461032657610171565b80630400f4d01461017557806312b349d5146101935780631398e076146101c357806349c0de88146101fe5780635125a252146102325780635b7b3d581461023c575b5f80fd5b61017d610556565b60405161018a9190612cbc565b60405180910390f35b6101ad60048036038101906101a89190612d10565b61055c565b6040516101ba9190612d68565b60405180910390f35b6101dd60048036038101906101d89190612d81565b61085c565b6040516101f59c9b9a99989796959493929190612ea7565b60405180910390f35b61021860048036038101906102139190612d10565b610959565b604051610229959493929190612fa5565b60405180910390f35b61023a6109dd565b005b610244610e44565b6040516102519190612cbc565b60405180910390f35b610274600480360381019061026f9190613020565b610e4d565b6040516102819190612d68565b60405180910390f35b6102a4600480360381019061029f9190612d10565b61103f565b005b6102c060048036038101906102bb9190613070565b611453565b005b6102dc60048036038101906102d79190612d81565b61155b565b6040516102ed95949392919061309b565b60405180910390f35b610310600480360381019061030b9190613242565b6115d9565b60405161031d9190612cbc565b60405180910390f35b610340600480360381019061033b9190612d10565b6118bc565b60405161034e9291906132fb565b60405180910390f35b61035f611922565b60405161036c9190613322565b60405180910390f35b61038f600480360381019061038a919061333b565b611947565b005b610399611c15565b6040516103a69190613322565b60405180910390f35b6103c960048036038101906103c49190612d81565b611c3a565b005b6103e560048036038101906103e09190612d81565b611fa1565b6040516103f29190612cbc565b60405180910390f35b61041560048036038101906104109190612d81565b611fe9565b005b610431600480360381019061042c9190612d81565b612408565b60405161043e9190612cbc565b60405180910390f35b610461600480360381019061045c9190612d81565b61245e565b60405161046e9190613322565b60405180910390f35b610491600480360381019061048c9190612d81565b612494565b60405161049e919061338b565b60405180910390f35b6104af6124fb565b6040516104bc91906133ff565b60405180910390f35b6104df60048036038101906104da9190612d81565b61251e565b6040516104ed929190613418565b60405180910390f35b610510600480360381019061050b9190613446565b61260b565b60405161051d9190612cbc565b60405180910390f35b610540600480360381019061053b9190612d10565b612a9a565b60405161054d9190612cbc565b60405180910390f35b60035481565b5f808311610568575f80fd5b5f60018461057691906134c3565b90506003548411156105bd576040517f08c379a00000000000000000000000000000000000000000000000000000000081526004016105b490613540565b60405180910390fd5b600260038111156105d1576105d0612e34565b5b600482815481106105e5576105e461355e565b5b905f5260205f2090600d02016008015f9054906101000a900460ff16600381111561061357610612612e34565b5b14610653576040517f08c379a000000000000000000000000000000000000000000000000000000000815260040161064a906135d5565b60405180910390fd5b60055f8581526020019081526020015f208054905083106106a9576040517f08c379a00000000000000000000000000000000000000000000000000000000081526004016106a09061363d565b60405180910390fd5b5f60055f8681526020019081526020015f2084815481106106cd576106cc61355e565b5b905f5260205f20906004020190503373ffffffffffffffffffffffffffffffffffffffff16815f015f9054906101000a900473ffffffffffffffffffffffffffffffffffffffff1673ffffffffffffffffffffffffffffffffffffffff161461076b576040517f08c379a0000000000000000000000000000000000000000000000000000000008152600401610762906136a5565b60405180910390fd5b60011515816003015f9054906101000a900460ff161515146107c2576040517f08c379a00000000000000000000000000000000000000000000000000000000081526004016107b990613733565b60405180910390fd5b5f5b600483815481106107d8576107d761355e565b5b905f5260205f2090600d0201600c018054905081101561084f5784600484815481106108075761080661355e565b5b905f5260205f2090600d0201600c0182815481106108285761082761355e565b5b905f5260205f200154036108425760019350505050610856565b80806001019150506107c4565b505f925050505b92915050565b6004818154811061086b575f80fd5b905f5260205f2090600d02015f91509050805f0154908060010154908060020154908060030154908060040154908060050154908060060180546108ae9061377e565b80601f01602080910402602001604051908101604052809291908181526020018280546108da9061377e565b80156109255780601f106108fc57610100808354040283529160200191610925565b820191905f5260205f20905b81548152906001019060200180831161090857829003601f168201915b505050505090806007015490806008015f9054906101000a900460ff169080600901549080600a01549080600b015490508c565b6005602052815f5260405f208181548110610972575f80fd5b905f5260205f2090600402015f9150915050805f015f9054906101000a900473ffffffffffffffffffffffffffffffffffffffff1690806001015490806002015490806003015f9054906101000a900460ff16908060030160019054906101000a900460ff16905085565b5f4290505f5b600354811015610e40575f6003811115610a00576109ff612e34565b5b60048281548110610a1457610a1361355e565b5b905f5260205f2090600d02016008015f9054906101000a900460ff166003811115610a4257610a41612e34565b5b03610ac25760048181548110610a5b57610a5a61355e565b5b905f5260205f2090600d0201600701548210610abd57600160048281548110610a8757610a8661355e565b5b905f5260205f2090600d02016008015f6101000a81548160ff02191690836003811115610ab757610ab6612e34565b5b02179055505b610e33565b60016003811115610ad657610ad5612e34565b5b60048281548110610aea57610ae961355e565b5b905f5260205f2090600d02016008015f9054906101000a900460ff166003811115610b1857610b17612e34565b5b03610c745760048181548110610b3157610b3061355e565b5b905f5260205f2090600d02015f01548210610c6f575f606460048381548110610b5d57610b5c61355e565b5b905f5260205f2090600d02016003015460048481548110610b8157610b8061355e565b5b905f5260205f2090600d020160010154610b9b91906137ae565b610ba5919061381c565b90508060048381548110610bbc57610bbb61355e565b5b905f5260205f2090600d02016009015410610c2157600260048381548110610be757610be661355e565b5b905f5260205f2090600d02016008015f6101000a81548160ff02191690836003811115610c1757610c16612e34565b5b0217905550610c6d565b600360048381548110610c3757610c3661355e565b5b905f5260205f2090600d02016008015f6101000a81548160ff02191690836003811115610c6757610c66612e34565b5b02179055505b505b610e32565b5f6003811115610c8757610c86612e34565b5b60048281548110610c9b57610c9a61355e565b5b905f5260205f2090600d02016008015f9054906101000a900460ff166003811115610cc957610cc8612e34565b5b1480610d28575060016003811115610ce457610ce3612e34565b5b60048281548110610cf857610cf761355e565b5b905f5260205f2090600d02016008015f9054906101000a900460ff166003811115610d2657610d25612e34565b5b145b15610e315760048181548110610d4157610d4061355e565b5b905f5260205f2090600d02015f01548210610e30575f606460048381548110610d6d57610d6c61355e565b5b905f5260205f2090600d02016003015460048481548110610d9157610d9061355e565b5b905f5260205f2090600d020160010154610dab91906137ae565b610db5919061381c565b90508060048381548110610dcc57610dcb61355e565b5b905f5260205f2090600d0201600901541015610e2e57600360048381548110610df857610df761355e565b5b905f5260205f2090600d02016008015f6101000a81548160ff02191690836003811115610e2857610e27612e34565b5b02179055505b505b5b5b5b80806001019150506109e3565b5050565b5f600354905090565b5f808311610e59575f80fd5b5f600184610e6791906134c3565b9050600354841115610e77575f80fd5b60055f8581526020019081526020015f2080549050831115610e97575f80fd5b6001151560055f8681526020019081526020015f208481548110610ebe57610ebd61355e565b5b905f5260205f2090600402016003015f9054906101000a900460ff16151514610f1c576040517f08c379a0000000000000000000000000000000000000000000000000000000008152600401610f13906138bc565b60405180910390fd5b5f5b60048581548110610f3257610f3161355e565b5b905f5260205f2090600d0201600c0180549050811015611032578360048381548110610f6157610f6061355e565b5b905f5260205f2090600d0201600c018281548110610f8257610f8161355e565b5b905f5260205f20015403611025575f60055f8781526020019081526020015f208581548110610fb457610fb361355e565b5b905f5260205f20906004020190508673ffffffffffffffffffffffffffffffffffffffff16815f015f9054906101000a900473ffffffffffffffffffffffffffffffffffffffff1673ffffffffffffffffffffffffffffffffffffffff16036110235760019350505050611038565b505b8080600101915050610f1e565b505f9150505b9392505050565b5f821161104a575f80fd5b5f60018361105891906134c3565b9050600354831115611068575f80fd5b5f6004828154811061107d5761107c61355e565b5b905f5260205f2090600d0201905060038081111561109e5761109d612e34565b5b816008015f9054906101000a900460ff1660038111156110c1576110c0612e34565b5b14611101576040517f08c379a00000000000000000000000000000000000000000000000000000000081526004016110f89061394a565b60405180910390fd5b60055f8581526020019081526020015f20805490508310611120575f80fd5b3373ffffffffffffffffffffffffffffffffffffffff1660055f8681526020019081526020015f20848154811061115a5761115961355e565b5b905f5260205f2090600402015f015f9054906101000a900473ffffffffffffffffffffffffffffffffffffffff1673ffffffffffffffffffffffffffffffffffffffff16146111de576040517f08c379a00000000000000000000000000000000000000000000000000000000081526004016111d5906139b2565b60405180910390fd5b6001151560055f8681526020019081526020015f2084815481106112055761120461355e565b5b905f5260205f2090600402016003015f9054906101000a900460ff16151514611263576040517f08c379a000000000000000000000000000000000000000000000000000000000815260040161125a90613a40565b60405180910390fd5b60055f8581526020019081526020015f2083815481106112865761128561355e565b5b905f5260205f20906004020160030160019054906101000a900460ff16156112e3576040517f08c379a00000000000000000000000000000000000000000000000000000000081526004016112da90613aa8565b60405180910390fd5b5f816004015460055f8781526020019081526020015f20858154811061130c5761130b61355e565b5b905f5260205f2090600402016001015461132691906137ae565b9050600160055f8781526020019081526020015f20858154811061134d5761134c61355e565b5b905f5260205f20906004020160030160016101000a81548160ff0219169083151502179055505f8054906101000a900473ffffffffffffffffffffffffffffffffffffffff1673ffffffffffffffffffffffffffffffffffffffff1663a9059cbb33836040518363ffffffff1660e01b81526004016113cd929190613ac6565b6020604051808303815f875af11580156113e9573d5f803e3d5ffd5b505050506040513d601f19601f8201168201806040525081019061140d9190613b17565b61144c576040517f08c379a000000000000000000000000000000000000000000000000000000000815260040161144390613b8c565b60405180910390fd5b5050505050565b60025f9054906101000a900473ffffffffffffffffffffffffffffffffffffffff1673ffffffffffffffffffffffffffffffffffffffff163373ffffffffffffffffffffffffffffffffffffffff16146114e2576040517f08c379a00000000000000000000000000000000000000000000000000000000081526004016114d990613c1a565b60405180910390fd5b5f73ffffffffffffffffffffffffffffffffffffffff168173ffffffffffffffffffffffffffffffffffffffff1603611519575f80fd5b805f806101000a81548173ffffffffffffffffffffffffffffffffffffffff021916908373ffffffffffffffffffffffffffffffffffffffff16021790555050565b5f805f805f60035486111561156e575f80fd5b5f8611611579575f80fd5b5f60018761158791906134c3565b90505f6004828154811061159e5761159d61355e565b5b905f5260205f2090600d02019050805f0154816001015482600201548360030154846004015496509650965096509650505091939590929450565b5f60025f9054906101000a900473ffffffffffffffffffffffffffffffffffffffff1673ffffffffffffffffffffffffffffffffffffffff163373ffffffffffffffffffffffffffffffffffffffff1614611669576040517f08c379a000000000000000000000000000000000000000000000000000000000815260040161166090613c1a565b60405180910390fd5b5f8611611674575f80fd5b6064851115611681575f80fd5b5f429050808911611690575f80fd5b60035f8154809291906116a290613c38565b91905055506004604051806101a001604052808b81526020018a81526020018981526020018881526020018781526020018681526020018581526020016002848d6116ed91906134c3565b6116f7919061381c565b846117029190613c7f565b81526020015f600381111561171a57611719612e34565b5b81526020015f81526020015f81526020015f81526020018967ffffffffffffffff81111561174b5761174a61311e565b5b6040519080825280602002602001820160405280156117795781602001602082028036833780820191505090505b50815250908060018154018082558091505060019003905f5260205f2090600d02015f909190919091505f820151815f01556020820151816001015560408201518160020155606082015181600301556080820151816004015560a0820151816005015560c08201518160060190816117f29190613e46565b5060e08201518160070155610100820151816008015f6101000a81548160ff0219169083600381111561182857611827612e34565b5b0217905550610120820151816009015561014082015181600a015561016082015181600b015561018082015181600c01908051906020019061186b929190612c3e565b5050507fbcab9af3175c8a9d53b9308a82ee378a84c65b0c22e3dfea2afac802c73a078a6003548a8a6040516118a393929190613f15565b60405180910390a1600354915050979650505050505050565b5f8060055f8481526020019081526020015f20805490508411156118de575f80fd5b5f60055f8581526020019081526020015f2085815481106119025761190161355e565b5b905f5260205f209060040201905084816001015492509250509250929050565b60025f9054906101000a900473ffffffffffffffffffffffffffffffffffffffff1681565b5f8311611952575f80fd5b5f60018461196091906134c3565b90506001600381111561197657611975612e34565b5b6004828154811061198a5761198961355e565b5b905f5260205f2090600d02016008015f9054906101000a900460ff1660038111156119b8576119b7612e34565b5b146119f8576040517f08c379a00000000000000000000000000000000000000000000000000000000081526004016119ef90613f94565b60405180910390fd5b60055f8581526020019081526020015f2080549050831115611a4f576040517f08c379a0000000000000000000000000000000000000000000000000000000008152600401611a4690613ffc565b60405180910390fd5b60055f8581526020019081526020015f208381548110611a7257611a7161355e565b5b905f5260205f2090600402016003015f9054906101000a900460ff1615611ace576040517f08c379a0000000000000000000000000000000000000000000000000000000008152600401611ac590614064565b60405180910390fd5b5f82604051602001611ae091906140a2565b6040516020818303038152906040528051906020012090508033604051602001611b0b929190614121565b6040516020818303038152906040528051906020012060055f8781526020019081526020015f208581548110611b4457611b4361355e565b5b905f5260205f2090600402016002015414611b94576040517f08c379a0000000000000000000000000000000000000000000000000000000008152600401611b8b90614196565b60405180910390fd5b600160055f8781526020019081526020015f208581548110611bb957611bb861355e565b5b905f5260205f2090600402016003015f6101000a81548160ff0219169083151502179055508260048381548110611bf357611bf261355e565b5b905f5260205f2090600d0201600b015f82825418925050819055505050505050565b60015f9054906101000a900473ffffffffffffffffffffffffffffffffffffffff1681565b60025f9054906101000a900473ffffffffffffffffffffffffffffffffffffffff1673ffffffffffffffffffffffffffffffffffffffff163373ffffffffffffffffffffffffffffffffffffffff1614611cc9576040517f08c379a0000000000000000000000000000000000000000000000000000000008152600401611cc090613c1a565b60405180910390fd5b600354811115611cd7575f80fd5b5f8111611ce2575f80fd5b5f600182611cf091906134c3565b905060026003811115611d0657611d05612e34565b5b60048281548110611d1a57611d1961355e565b5b905f5260205f2090600d02016008015f9054906101000a900460ff166003811115611d4857611d47612e34565b5b14611d88576040517f08c379a0000000000000000000000000000000000000000000000000000000008152600401611d7f906141fe565b60405180910390fd5b5f60048281548110611d9d57611d9c61355e565b5b905f5260205f2090600d020190505f81600401548260090154611dc091906137ae565b90505f805f9054906101000a900473ffffffffffffffffffffffffffffffffffffffff1673ffffffffffffffffffffffffffffffffffffffff166370a08231306040518263ffffffff1660e01b8152600401611e1c9190613322565b602060405180830381865afa158015611e37573d5f803e3d5ffd5b505050506040513d601f19601f82011682018060405250810190611e5b9190614230565b905081811015611ea0576040517f08c379a0000000000000000000000000000000000000000000000000000000008152600401611e97906142a5565b60405180910390fd5b5f8054906101000a900473ffffffffffffffffffffffffffffffffffffffff1673ffffffffffffffffffffffffffffffffffffffff1663a9059cbb60025f9054906101000a900473ffffffffffffffffffffffffffffffffffffffff16846040518363ffffffff1660e01b8152600401611f1b929190613ac6565b6020604051808303815f875af1158015611f37573d5f803e3d5ffd5b505050506040513d601f19601f82011682018060405250810190611f5b9190613b17565b611f9a576040517f08c379a0000000000000000000000000000000000000000000000000000000008152600401611f919061430d565b60405180910390fd5b5050505050565b5f808211611fad575f80fd5b5f600183611fbb91906134c3565b905060048181548110611fd157611fd061355e565b5b905f5260205f2090600d0201600a0154915050919050565b60025f9054906101000a900473ffffffffffffffffffffffffffffffffffffffff1673ffffffffffffffffffffffffffffffffffffffff163373ffffffffffffffffffffffffffffffffffffffff1614612078576040517f08c379a000000000000000000000000000000000000000000000000000000000815260040161206f90613c1a565b60405180910390fd5b600354811115612086575f80fd5b5f8111612091575f80fd5b5f60018261209f91906134c3565b9050600260038111156120b5576120b4612e34565b5b600482815481106120c9576120c861355e565b5b905f5260205f2090600d02016008015f9054906101000a900460ff1660038111156120f7576120f6612e34565b5b14612137576040517f08c379a000000000000000000000000000000000000000000000000000000000815260040161212e90614375565b60405180910390fd5b5f60646004838154811061214e5761214d61355e565b5b905f5260205f2090600d020160030154600484815481106121725761217161355e565b5b905f5260205f2090600d02016001015461218c91906137ae565b612196919061381c565b905080600483815481106121ad576121ac61355e565b5b905f5260205f2090600d02016009015410156121fe576040517f08c379a00000000000000000000000000000000000000000000000000000000081526004016121f5906143dd565b60405180910390fd5b5f600483815481106122135761221261355e565b5b905f5260205f2090600d02016009015490505f6004848154811061223a5761223961355e565b5b905f5260205f2090600d02016002015490505f600485815481106122615761226061355e565b5b905f5260205f2090600d0201600b015490505f5b828110156123a4575f8483836040516020016122929291906143fb565b604051602081830303815290604052805190602001205f1c6122b49190614426565b90505b612330600488815481106122ce576122cd61355e565b5b905f5260205f2090600d0201600c0180548060200260200160405190810160405280929190818152602001828054801561232557602002820191905f5260205f20905b815481526020019060010190808311612311575b505050505082612bec565b1561235457846001826123439190613c7f565b61234d9190614426565b90506122b7565b80600488815481106123695761236861355e565b5b905f5260205f2090600d0201600c01838154811061238a5761238961355e565b5b905f5260205f200181905550508080600101915050612275565b507fdcd4c188264d71a205a9af0b423e86acd556683d1eb112389101b992ce0188a586600487815481106123db576123da61355e565b5b905f5260205f2090600d0201600c016040516123f8929190614556565b60405180910390a1505050505050565b5f600354821115612417575f80fd5b5f8211612422575f80fd5b5f60018361243091906134c3565b9050600481815481106124465761244561355e565b5b905f5260205f2090600d020160090154915050919050565b5f60035482111561246d575f80fd5b5f8054906101000a900473ffffffffffffffffffffffffffffffffffffffff169050919050565b5f6003548211156124a3575f80fd5b5f82116124ae575f80fd5b5f6001836124bc91906134c3565b90505f600482815481106124d3576124d261355e565b5b905f5260205f2090600d02019050806008015f9054906101000a900460ff1692505050919050565b5f8054906101000a900473ffffffffffffffffffffffffffffffffffffffff1681565b5f606060035483111561252f575f80fd5b5f831161253a575f80fd5b5f60018461254891906134c3565b90505f6004828154811061255f5761255e61355e565b5b905f5260205f2090600d020190508060050154816006018080546125829061377e565b80601f01602080910402602001604051908101604052809291908181526020018280546125ae9061377e565b80156125f95780601f106125d0576101008083540402835291602001916125f9565b820191905f5260205f20905b8154815290600101906020018083116125dc57829003601f168201915b50505050509050935093505050915091565b5f808411612617575f80fd5b5f60018561262591906134c3565b90505f600381111561263a57612639612e34565b5b6004828154811061264e5761264d61355e565b5b905f5260205f2090600d02016008015f9054906101000a900460ff16600381111561267c5761267b612e34565b5b146126bc576040517f08c379a00000000000000000000000000000000000000000000000000000000081526004016126b3906145ce565b60405180910390fd5b600481815481106126d0576126cf61355e565b5b905f5260205f2090600d0201600701544210612721576040517f08c379a000000000000000000000000000000000000000000000000000000000815260040161271890614636565b60405180910390fd5b601e841115612765576040517f08c379a000000000000000000000000000000000000000000000000000000000815260040161275c906146c4565b60405180910390fd5b600481815481106127795761277861355e565b5b905f5260205f2090600d020160010154846004838154811061279e5761279d61355e565b5b905f5260205f2090600d0201600901546127b89190613c7f565b11156127f9576040517f08c379a00000000000000000000000000000000000000000000000000000000081526004016127f09061472c565b60405180910390fd5b5f6004828154811061280e5761280d61355e565b5b905f5260205f2090600d0201600401548561282991906137ae565b90505f8054906101000a900473ffffffffffffffffffffffffffffffffffffffff1673ffffffffffffffffffffffffffffffffffffffff166323b872dd3330846040518463ffffffff1660e01b81526004016128879392919061474a565b6020604051808303815f875af11580156128a3573d5f803e3d5ffd5b505050506040513d601f19601f820116820180604052508101906128c79190613b17565b5084600483815481106128dd576128dc61355e565b5b905f5260205f2090600d02016009015f8282546128fa9190613c7f565b925050819055506001600483815481106129175761291661355e565b5b905f5260205f2090600d0201600a015f8282546129349190613c7f565b9250508190555060055f8781526020019081526020015f206040518060a001604052803373ffffffffffffffffffffffffffffffffffffffff168152602001878152602001863360405160200161298c929190614121565b6040516020818303038152906040528051906020012081526020015f151581526020015f1515815250908060018154018082558091505060019003905f5260205f2090600402015f909190919091505f820151815f015f6101000a81548173ffffffffffffffffffffffffffffffffffffffff021916908373ffffffffffffffffffffffffffffffffffffffff16021790555060208201518160010155604082015181600201556060820151816003015f6101000a81548160ff02191690831515021790555060808201518160030160016101000a81548160ff021916908315150217905550505060055f8781526020019081526020015f208054905063ffffffff16925050509392505050565b5f808311612aa6575f80fd5b5f600184612ab491906134c3565b9050600354841115612ac4575f80fd5b60026003811115612ad857612ad7612e34565b5b60048281548110612aec57612aeb61355e565b5b905f5260205f2090600d02016008015f9054906101000a900460ff166003811115612b1a57612b19612e34565b5b14612b5a576040517f08c379a0000000000000000000000000000000000000000000000000000000008152600401612b51906141fe565b60405180910390fd5b5f83118015612b8c575060048181548110612b7857612b7761355e565b5b905f5260205f2090600d0201600201548311155b612b94575f80fd5b5f600184612ba291906134c3565b905060048281548110612bb857612bb761355e565b5b905f5260205f2090600d0201600c018181548110612bd957612bd861355e565b5b905f5260205f2001549250505092915050565b5f805f90505b8351811015612c335782848281518110612c0f57612c0e61355e565b5b602002602001015103612c26576001915050612c38565b8080600101915050612bf2565b505f90505b92915050565b828054828255905f5260205f20908101928215612c78579160200282015b82811115612c77578251825591602001919060010190612c5c565b5b509050612c859190612c89565b5090565b5b80821115612ca0575f815f905550600101612c8a565b5090565b5f819050919050565b612cb681612ca4565b82525050565b5f602082019050612ccf5f830184612cad565b92915050565b5f604051905090565b5f80fd5b5f80fd5b612cef81612ca4565b8114612cf9575f80fd5b50565b5f81359050612d0a81612ce6565b92915050565b5f8060408385031215612d2657612d25612cde565b5b5f612d3385828601612cfc565b9250506020612d4485828601612cfc565b9150509250929050565b5f8115159050919050565b612d6281612d4e565b82525050565b5f602082019050612d7b5f830184612d59565b92915050565b5f60208284031215612d9657612d95612cde565b5b5f612da384828501612cfc565b91505092915050565b5f819050919050565b612dbe81612dac565b82525050565b5f81519050919050565b5f82825260208201905092915050565b8281835e5f83830152505050565b5f601f19601f8301169050919050565b5f612e0682612dc4565b612e108185612dce565b9350612e20818560208601612dde565b612e2981612dec565b840191505092915050565b7f4e487b71000000000000000000000000000000000000000000000000000000005f52602160045260245ffd5b60048110612e7257612e71612e34565b5b50565b5f819050612e8282612e61565b919050565b5f612e9182612e75565b9050919050565b612ea181612e87565b82525050565b5f61018082019050612ebb5f83018f612cad565b612ec8602083018e612cad565b612ed5604083018d612cad565b612ee2606083018c612cad565b612eef608083018b612cad565b612efc60a083018a612db5565b81810360c0830152612f0e8189612dfc565b9050612f1d60e0830188612cad565b612f2b610100830187612e98565b612f39610120830186612cad565b612f47610140830185612cad565b612f55610160830184612cad565b9d9c50505050505050505050505050565b5f73ffffffffffffffffffffffffffffffffffffffff82169050919050565b5f612f8f82612f66565b9050919050565b612f9f81612f85565b82525050565b5f60a082019050612fb85f830188612f96565b612fc56020830187612cad565b612fd26040830186612db5565b612fdf6060830185612d59565b612fec6080830184612d59565b9695505050505050565b612fff81612f85565b8114613009575f80fd5b50565b5f8135905061301a81612ff6565b92915050565b5f805f6060848603121561303757613036612cde565b5b5f6130448682870161300c565b935050602061305586828701612cfc565b925050604061306686828701612cfc565b9150509250925092565b5f6020828403121561308557613084612cde565b5b5f6130928482850161300c565b91505092915050565b5f60a0820190506130ae5f830188612cad565b6130bb6020830187612cad565b6130c86040830186612cad565b6130d56060830185612cad565b6130e26080830184612cad565b9695505050505050565b6130f581612dac565b81146130ff575f80fd5b50565b5f81359050613110816130ec565b92915050565b5f80fd5b5f80fd5b7f4e487b71000000000000000000000000000000000000000000000000000000005f52604160045260245ffd5b61315482612dec565b810181811067ffffffffffffffff821117156131735761317261311e565b5b80604052505050565b5f613185612cd5565b9050613191828261314b565b919050565b5f67ffffffffffffffff8211156131b0576131af61311e565b5b6131b982612dec565b9050602081019050919050565b828183375f83830152505050565b5f6131e66131e184613196565b61317c565b9050828152602081018484840111156132025761320161311a565b5b61320d8482856131c6565b509392505050565b5f82601f83011261322957613228613116565b5b81356132398482602086016131d4565b91505092915050565b5f805f805f805f60e0888a03121561325d5761325c612cde565b5b5f61326a8a828b01612cfc565b975050602061327b8a828b01612cfc565b965050604061328c8a828b01612cfc565b955050606061329d8a828b01612cfc565b94505060806132ae8a828b01612cfc565b93505060a06132bf8a828b01613102565b92505060c088013567ffffffffffffffff8111156132e0576132df612ce2565b5b6132ec8a828b01613215565b91505092959891949750929550565b5f60408201905061330e5f830185612cad565b61331b6020830184612cad565b9392505050565b5f6020820190506133355f830184612f96565b92915050565b5f805f6060848603121561335257613351612cde565b5b5f61335f86828701612cfc565b935050602061337086828701612cfc565b925050604061338186828701612cfc565b9150509250925092565b5f60208201905061339e5f830184612e98565b92915050565b5f819050919050565b5f6133c76133c26133bd84612f66565b6133a4565b612f66565b9050919050565b5f6133d8826133ad565b9050919050565b5f6133e9826133ce565b9050919050565b6133f9816133df565b82525050565b5f6020820190506134125f8301846133f0565b92915050565b5f60408201905061342b5f830185612db5565b818103602083015261343d8184612dfc565b90509392505050565b5f805f6060848603121561345d5761345c612cde565b5b5f61346a86828701612cfc565b935050602061347b86828701612cfc565b925050604061348c86828701613102565b9150509250925092565b7f4e487b71000000000000000000000000000000000000000000000000000000005f52601160045260245ffd5b5f6134cd82612ca4565b91506134d883612ca4565b92508282039050818111156134f0576134ef613496565b5b92915050565b7f496e76616c6964206c6f7474657279206e756d626572000000000000000000005f82015250565b5f61352a601683612dce565b9150613535826134f6565b602082019050919050565b5f6020820190508181035f8301526135578161351e565b9050919050565b7f4e487b71000000000000000000000000000000000000000000000000000000005f52603260045260245ffd5b7f4c6f7474657279206973206e6f7420434f4d504c4554454420737461746500005f82015250565b5f6135bf601e83612dce565b91506135ca8261358b565b602082019050919050565b5f6020820190508181035f8301526135ec816135b3565b9050919050565b7f496e76616c6964207469636b6574206e756d62657200000000000000000000005f82015250565b5f613627601583612dce565b9150613632826135f3565b602082019050919050565b5f6020820190508181035f8301526136548161361b565b9050919050565b7f596f7520646f206e6f74206f776e2074686973207469636b65740000000000005f82015250565b5f61368f601a83612dce565b915061369a8261365b565b602082019050919050565b5f6020820190508181035f8301526136bc81613683565b9050919050565b7f596f7520646964206e6f74207375626d697474656420796f75722072616e646f5f8201527f6d206e756d6265722e2000000000000000000000000000000000000000000000602082015250565b5f61371d602a83612dce565b9150613728826136c3565b604082019050919050565b5f6020820190508181035f83015261374a81613711565b9050919050565b7f4e487b71000000000000000000000000000000000000000000000000000000005f52602260045260245ffd5b5f600282049050600182168061379557607f821691505b6020821081036137a8576137a7613751565b5b50919050565b5f6137b882612ca4565b91506137c383612ca4565b92508282026137d181612ca4565b915082820484148315176137e8576137e7613496565b5b5092915050565b7f4e487b71000000000000000000000000000000000000000000000000000000005f52601260045260245ffd5b5f61382682612ca4565b915061383183612ca4565b925082613841576138406137ef565b5b828204905092915050565b7f546865206164647265737320776173206e6f74207375626d69747465642069745f8201527f732072616e646f6d206e756d6265722e20000000000000000000000000000000602082015250565b5f6138a6603183612dce565b91506138b18261384c565b604082019050919050565b5f6020820190508181035f8301526138d38161389a565b9050919050565b7f526566756e6473206e6f7420617661696c61626c6520666f722074686973206c5f8201527f6f74746572790000000000000000000000000000000000000000000000000000602082015250565b5f613934602683612dce565b915061393f826138da565b604082019050919050565b5f6020820190508181035f83015261396181613928565b9050919050565b7f4e6f74206f776e657200000000000000000000000000000000000000000000005f82015250565b5f61399c600983612dce565b91506139a782613968565b602082019050919050565b5f6020820190508181035f8301526139c981613990565b9050919050565b7f596f7520646964206e6f742072657665616c656420796f75722072616e646f6d5f8201527f206e756d62657220000000000000000000000000000000000000000000000000602082015250565b5f613a2a602883612dce565b9150613a35826139d0565b604082019050919050565b5f6020820190508181035f830152613a5781613a1e565b9050919050565b7f616c726561647920726566756e646564000000000000000000000000000000005f82015250565b5f613a92601083612dce565b9150613a9d82613a5e565b602082019050919050565b5f6020820190508181035f830152613abf81613a86565b9050919050565b5f604082019050613ad95f830185612f96565b613ae66020830184612cad565b9392505050565b613af681612d4e565b8114613b00575f80fd5b50565b5f81519050613b1181613aed565b92915050565b5f60208284031215613b2c57613b2b612cde565b5b5f613b3984828501613b03565b91505092915050565b7f526566756e64206661696c6564000000000000000000000000000000000000005f82015250565b5f613b76600d83612dce565b9150613b8182613b42565b602082019050919050565b5f6020820190508181035f830152613ba381613b6a565b9050919050565b7f4f6e6c7920746865206f776e65722063616e2063616c6c20746869732066756e5f8201527f6374696f6e000000000000000000000000000000000000000000000000000000602082015250565b5f613c04602583612dce565b9150613c0f82613baa565b604082019050919050565b5f6020820190508181035f830152613c3181613bf8565b9050919050565b5f613c4282612ca4565b91507fffffffffffffffffffffffffffffffffffffffffffffffffffffffffffffffff8203613c7457613c73613496565b5b600182019050919050565b5f613c8982612ca4565b9150613c9483612ca4565b9250828201905080821115613cac57613cab613496565b5b92915050565b5f819050815f5260205f209050919050565b5f6020601f8301049050919050565b5f82821b905092915050565b5f60088302613d0e7fffffffffffffffffffffffffffffffffffffffffffffffffffffffffffffffff82613cd3565b613d188683613cd3565b95508019841693508086168417925050509392505050565b5f613d4a613d45613d4084612ca4565b6133a4565b612ca4565b9050919050565b5f819050919050565b613d6383613d30565b613d77613d6f82613d51565b848454613cdf565b825550505050565b5f90565b613d8b613d7f565b613d96818484613d5a565b505050565b5b81811015613db957613dae5f82613d83565b600181019050613d9c565b5050565b601f821115613dfe57613dcf81613cb2565b613dd884613cc4565b81016020851015613de7578190505b613dfb613df385613cc4565b830182613d9b565b50505b505050565b5f82821c905092915050565b5f613e1e5f1984600802613e03565b1980831691505092915050565b5f613e368383613e0f565b9150826002028217905092915050565b613e4f82612dc4565b67ffffffffffffffff811115613e6857613e6761311e565b5b613e72825461377e565b613e7d828285613dbd565b5f60209050601f831160018114613eae575f8415613e9c578287015190505b613ea68582613e2b565b865550613f0d565b601f198416613ebc86613cb2565b5f5b82811015613ee357848901518255600182019150602085019450602081019050613ebe565b86831015613f005784890151613efc601f891682613e0f565b8355505b6001600288020188555050505b505050505050565b5f606082019050613f285f830186612cad565b613f356020830185612cad565b613f426040830184612cad565b949350505050565b7f4c6f7474657279206973206e6f742052455645414c20737461746500000000005f82015250565b5f613f7e601b83612dce565b9150613f8982613f4a565b602082019050919050565b5f6020820190508181035f830152613fab81613f72565b9050919050565b7f5469636b657420646f6573206e6f7420657869737400000000000000000000005f82015250565b5f613fe6601583612dce565b9150613ff182613fb2565b602082019050919050565b5f6020820190508181035f83015261401381613fda565b9050919050565b7f5469636b657420616c72656164792072657665616c65640000000000000000005f82015250565b5f61404e601783612dce565b91506140598261401a565b602082019050919050565b5f6020820190508181035f83015261407b81614042565b9050919050565b5f819050919050565b61409c61409782612ca4565b614082565b82525050565b5f6140ad828461408b565b60208201915081905092915050565b5f819050919050565b6140d66140d182612dac565b6140bc565b82525050565b5f8160601b9050919050565b5f6140f2826140dc565b9050919050565b5f614103826140e8565b9050919050565b61411b61411682612f85565b6140f9565b82525050565b5f61412c82856140c5565b60208201915061413c828461410a565b6014820191508190509392505050565b7f596f752072657665616c656420612077726f6e67206e756d62657200000000005f82015250565b5f614180601b83612dce565b915061418b8261414c565b602082019050919050565b5f6020820190508181035f8301526141ad81614174565b9050919050565b7f4c6f747465727920686173206e6f74206265656e20636f6d706c6574656400005f82015250565b5f6141e8601e83612dce565b91506141f3826141b4565b602082019050919050565b5f6020820190508181035f830152614215816141dc565b9050919050565b5f8151905061422a81612ce6565b92915050565b5f6020828403121561424557614244612cde565b5b5f6142528482850161421c565b91505092915050565b7f496e73756666696369656e742066756e647300000000000000000000000000005f82015250565b5f61428f601283612dce565b915061429a8261425b565b602082019050919050565b5f6020820190508181035f8301526142bc81614283565b9050919050565b7f7472616e73666572206661696c656400000000000000000000000000000000005f82015250565b5f6142f7600f83612dce565b9150614302826142c3565b602082019050919050565b5f6020820190508181035f830152614324816142eb565b9050919050565b7f4e6f74206265656e20636f6d706c6574656400000000000000000000000000005f82015250565b5f61435f601283612dce565b915061436a8261432b565b602082019050919050565b5f6020820190508181035f83015261438c81614353565b9050919050565b7f4e6f7420656e6f756768207469636b65747320736f6c640000000000000000005f82015250565b5f6143c7601783612dce565b91506143d282614393565b602082019050919050565b5f6020820190508181035f8301526143f4816143bb565b9050919050565b5f614406828561408b565b602082019150614416828461408b565b6020820191508190509392505050565b5f61443082612ca4565b915061443b83612ca4565b92508261444b5761444a6137ef565b5b828206905092915050565b5f81549050919050565b5f82825260208201905092915050565b5f819050815f5260205f209050919050565b61448b81612ca4565b82525050565b5f61449c8383614482565b60208301905092915050565b5f815f1c9050919050565b5f819050919050565b5f6144ce6144c9836144a8565b6144b3565b9050919050565b5f6144e082546144bc565b9050919050565b5f600182019050919050565b5f6144fd82614456565b6145078185614460565b935061451283614470565b805f5b8381101561454957614526826144d5565b6145308882614491565b975061453b836144e7565b925050600181019050614515565b5085935050505092915050565b5f6040820190506145695f830185612cad565b818103602083015261457b81846144f3565b90509392505050565b7f4c6f7474657279206973206e6f742061637469766500000000000000000000005f82015250565b5f6145b8601583612dce565b91506145c382614584565b602082019050919050565b5f6020820190508181035f8301526145e5816145ac565b9050919050565b7f4c6f74746572792073616c6520697320646f6e650000000000000000000000005f82015250565b5f614620601483612dce565b915061462b826145ec565b602082019050919050565b5f6020820190508181035f83015261464d81614614565b9050919050565b7f596f752063616e207075726368617365206174206d6f7374203330207469636b5f8201527f6574732e20000000000000000000000000000000000000000000000000000000602082015250565b5f6146ae602583612dce565b91506146b982614654565b604082019050919050565b5f6020820190508181035f8301526146db816146a2565b9050919050565b7f4e6f7420656e6f756768207469636b65747320617661696c61626c65000000005f82015250565b5f614716601c83612dce565b9150614721826146e2565b602082019050919050565b5f6020820190508181035f8301526147438161470a565b9050919050565b5f60608201905061475d5f830186612f96565b61476a6020830185612f96565b6147776040830184612cad565b94935050505056fea2646970667358221220bdd9857e0fa75cf26f7e1bf8e529477595530b2bd3b074b69149600ecf8a4dce64736f6c634300081a0033",
			"opcodes": "PUSH1 0x80 PUSH1 0x40 MSTORE CALLVALUE DUP1 ISZERO PUSH2 0xF JUMPI PUSH0 DUP1 REVERT JUMPDEST POP PUSH1 0x40 MLOAD PUSH2 0x4941 CODESIZE SUB DUP1 PUSH2 0x4941 DUP4 CODECOPY DUP2 DUP2 ADD PUSH1 0x40 MSTORE DUP2 ADD SWAP1 PUSH2 0x31 SWAP2 SWAP1 PUSH2 0x154 JUMP JUMPDEST CALLER PUSH1 0x2 PUSH0 PUSH2 0x100 EXP DUP2 SLOAD DUP2 PUSH20 0xFFFFFFFFFFFFFFFFFFFFFFFFFFFFFFFFFFFFFFFF MUL NOT AND SWAP1 DUP4 PUSH20 0xFFFFFFFFFFFFFFFFFFFFFFFFFFFFFFFFFFFFFFFF AND MUL OR SWAP1 SSTORE POP DUP1 PUSH1 0x1 PUSH0 PUSH2 0x100 EXP DUP2 SLOAD DUP2 PUSH20 0xFFFFFFFFFFFFFFFFFFFFFFFFFFFFFFFFFFFFFFFF MUL NOT AND SWAP1 DUP4 PUSH20 0xFFFFFFFFFFFFFFFFFFFFFFFFFFFFFFFFFFFFFFFF AND MUL OR SWAP1 SSTORE POP DUP1 PUSH0 DUP1 PUSH2 0x100 EXP DUP2 SLOAD DUP2 PUSH20 0xFFFFFFFFFFFFFFFFFFFFFFFFFFFFFFFFFFFFFFFF MUL NOT AND SWAP1 DUP4 PUSH20 0xFFFFFFFFFFFFFFFFFFFFFFFFFFFFFFFFFFFFFFFF AND MUL OR SWAP1 SSTORE POP POP PUSH2 0x17F JUMP JUMPDEST PUSH0 DUP1 REVERT JUMPDEST PUSH0 PUSH20 0xFFFFFFFFFFFFFFFFFFFFFFFFFFFFFFFFFFFFFFFF DUP3 AND SWAP1 POP SWAP2 SWAP1 POP JUMP JUMPDEST PUSH0 PUSH2 0x123 DUP3 PUSH2 0xFA JUMP JUMPDEST SWAP1 POP SWAP2 SWAP1 POP JUMP JUMPDEST PUSH2 0x133 DUP2 PUSH2 0x119 JUMP JUMPDEST DUP2 EQ PUSH2 0x13D JUMPI PUSH0 DUP1 REVERT JUMPDEST POP JUMP JUMPDEST PUSH0 DUP2 MLOAD SWAP1 POP PUSH2 0x14E DUP2 PUSH2 0x12A JUMP JUMPDEST SWAP3 SWAP2 POP POP JUMP JUMPDEST PUSH0 PUSH1 0x20 DUP3 DUP5 SUB SLT ISZERO PUSH2 0x169 JUMPI PUSH2 0x168 PUSH2 0xF6 JUMP JUMPDEST JUMPDEST PUSH0 PUSH2 0x176 DUP5 DUP3 DUP6 ADD PUSH2 0x140 JUMP JUMPDEST SWAP2 POP POP SWAP3 SWAP2 POP POP JUMP JUMPDEST PUSH2 0x47B5 DUP1 PUSH2 0x18C PUSH0 CODECOPY PUSH0 RETURN INVALID PUSH1 0x80 PUSH1 0x40 MSTORE CALLVALUE DUP1 ISZERO PUSH2 0xF JUMPI PUSH0 DUP1 REVERT JUMPDEST POP PUSH1 0x4 CALLDATASIZE LT PUSH2 0x171 JUMPI PUSH0 CALLDATALOAD PUSH1 0xE0 SHR DUP1 PUSH4 0x8DA5CB5B GT PUSH2 0xDC JUMPI DUP1 PUSH4 0xCC42A7C5 GT PUSH2 0x95 JUMPI DUP1 PUSH4 0xD5ED4D5A GT PUSH2 0x6F JUMPI DUP1 PUSH4 0xD5ED4D5A EQ PUSH2 0x4A7 JUMPI DUP1 PUSH4 0xDC969F22 EQ PUSH2 0x4C5 JUMPI DUP1 PUSH4 0xE0767CD9 EQ PUSH2 0x4F6 JUMPI DUP1 PUSH4 0xE54778B5 EQ PUSH2 0x526 JUMPI PUSH2 0x171 JUMP JUMPDEST DUP1 PUSH4 0xCC42A7C5 EQ PUSH2 0x417 JUMPI DUP1 PUSH4 0xCDC2AEBF EQ PUSH2 0x447 JUMPI DUP1 PUSH4 0xD366B2F9 EQ PUSH2 0x477 JUMPI PUSH2 0x171 JUMP JUMPDEST DUP1 PUSH4 0x8DA5CB5B EQ PUSH2 0x357 JUMPI DUP1 PUSH4 0x9351E76B EQ PUSH2 0x375 JUMPI DUP1 PUSH4 0x9D76EA58 EQ PUSH2 0x391 JUMPI DUP1 PUSH4 0xAD943D1E EQ PUSH2 0x3AF JUMPI DUP1 PUSH4 0xADC51CDB EQ PUSH2 0x3CB JUMPI DUP1 PUSH4 0xC5929BC7 EQ PUSH2 0x3FB JUMPI PUSH2 0x171 JUMP JUMPDEST DUP1 PUSH4 0x5BDDBAAC GT PUSH2 0x12E JUMPI DUP1 PUSH4 0x5BDDBAAC EQ PUSH2 0x25A JUMPI DUP1 PUSH4 0x687E47D8 EQ PUSH2 0x28A JUMPI DUP1 PUSH4 0x6A326AB1 EQ PUSH2 0x2A6 JUMPI DUP1 PUSH4 0x76B3C8A8 EQ PUSH2 0x2C2 JUMPI DUP1 PUSH4 0x7DF858DB EQ PUSH2 0x2F6 JUMPI DUP1 PUSH4 0x89B2ACBC EQ PUSH2 0x326 JUMPI PUSH2 0x171 JUMP JUMPDEST DUP1 PUSH4 0x400F4D0 EQ PUSH2 0x175 JUMPI DUP1 PUSH4 0x12B349D5 EQ PUSH2 0x193 JUMPI DUP1 PUSH4 0x1398E076 EQ PUSH2 0x1C3 JUMPI DUP1 PUSH4 0x49C0DE88 EQ PUSH2 0x1FE JUMPI DUP1 PUSH4 0x5125A252 EQ PUSH2 0x232 JUMPI DUP1 PUSH4 0x5B7B3D58 EQ PUSH2 0x23C JUMPI JUMPDEST PUSH0 DUP1 REVERT JUMPDEST PUSH2 0x17D PUSH2 0x556 JUMP JUMPDEST PUSH1 0x40 MLOAD PUSH2 0x18A SWAP2 SWAP1 PUSH2 0x2CBC JUMP JUMPDEST PUSH1 0x40 MLOAD DUP1 SWAP2 SUB SWAP1 RETURN JUMPDEST PUSH2 0x1AD PUSH1 0x4 DUP1 CALLDATASIZE SUB DUP2 ADD SWAP1 PUSH2 0x1A8 SWAP2 SWAP1 PUSH2 0x2D10 JUMP JUMPDEST PUSH2 0x55C JUMP JUMPDEST PUSH1 0x40 MLOAD PUSH2 0x1BA SWAP2 SWAP1 PUSH2 0x2D68 JUMP JUMPDEST PUSH1 0x40 MLOAD DUP1 SWAP2 SUB SWAP1 RETURN JUMPDEST PUSH2 0x1DD PUSH1 0x4 DUP1 CALLDATASIZE SUB DUP2 ADD SWAP1 PUSH2 0x1D8 SWAP2 SWAP1 PUSH2 0x2D81 JUMP JUMPDEST PUSH2 0x85C JUMP JUMPDEST PUSH1 0x40 MLOAD PUSH2 0x1F5 SWAP13 SWAP12 SWAP11 SWAP10 SWAP9 SWAP8 SWAP7 SWAP6 SWAP5 SWAP4 SWAP3 SWAP2 SWAP1 PUSH2 0x2EA7 JUMP JUMPDEST PUSH1 0x40 MLOAD DUP1 SWAP2 SUB SWAP1 RETURN JUMPDEST PUSH2 0x218 PUSH1 0x4 DUP1 CALLDATASIZE SUB DUP2 ADD SWAP1 PUSH2 0x213 SWAP2 SWAP1 PUSH2 0x2D10 JUMP JUMPDEST PUSH2 0x959 JUMP JUMPDEST PUSH1 0x40 MLOAD PUSH2 0x229 SWAP6 SWAP5 SWAP4 SWAP3 SWAP2 SWAP1 PUSH2 0x2FA5 JUMP JUMPDEST PUSH1 0x40 MLOAD DUP1 SWAP2 SUB SWAP1 RETURN JUMPDEST PUSH2 0x23A PUSH2 0x9DD JUMP JUMPDEST STOP JUMPDEST PUSH2 0x244 PUSH2 0xE44 JUMP JUMPDEST PUSH1 0x40 MLOAD PUSH2 0x251 SWAP2 SWAP1 PUSH2 0x2CBC JUMP JUMPDEST PUSH1 0x40 MLOAD DUP1 SWAP2 SUB SWAP1 RETURN JUMPDEST PUSH2 0x274 PUSH1 0x4 DUP1 CALLDATASIZE SUB DUP2 ADD SWAP1 PUSH2 0x26F SWAP2 SWAP1 PUSH2 0x3020 JUMP JUMPDEST PUSH2 0xE4D JUMP JUMPDEST PUSH1 0x40 MLOAD PUSH2 0x281 SWAP2 SWAP1 PUSH2 0x2D68 JUMP JUMPDEST PUSH1 0x40 MLOAD DUP1 SWAP2 SUB SWAP1 RETURN JUMPDEST PUSH2 0x2A4 PUSH1 0x4 DUP1 CALLDATASIZE SUB DUP2 ADD SWAP1 PUSH2 0x29F SWAP2 SWAP1 PUSH2 0x2D10 JUMP JUMPDEST PUSH2 0x103F JUMP JUMPDEST STOP JUMPDEST PUSH2 0x2C0 PUSH1 0x4 DUP1 CALLDATASIZE SUB DUP2 ADD SWAP1 PUSH2 0x2BB SWAP2 SWAP1 PUSH2 0x3070 JUMP JUMPDEST PUSH2 0x1453 JUMP JUMPDEST STOP JUMPDEST PUSH2 0x2DC PUSH1 0x4 DUP1 CALLDATASIZE SUB DUP2 ADD SWAP1 PUSH2 0x2D7 SWAP2 SWAP1 PUSH2 0x2D81 JUMP JUMPDEST PUSH2 0x155B JUMP JUMPDEST PUSH1 0x40 MLOAD PUSH2 0x2ED SWAP6 SWAP5 SWAP4 SWAP3 SWAP2 SWAP1 PUSH2 0x309B JUMP JUMPDEST PUSH1 0x40 MLOAD DUP1 SWAP2 SUB SWAP1 RETURN JUMPDEST PUSH2 0x310 PUSH1 0x4 DUP1 CALLDATASIZE SUB DUP2 ADD SWAP1 PUSH2 0x30B SWAP2 SWAP1 PUSH2 0x3242 JUMP JUMPDEST PUSH2 0x15D9 JUMP JUMPDEST PUSH1 0x40 MLOAD PUSH2 0x31D SWAP2 SWAP1 PUSH2 0x2CBC JUMP JUMPDEST PUSH1 0x40 MLOAD DUP1 SWAP2 SUB SWAP1 RETURN JUMPDEST PUSH2 0x340 PUSH1 0x4 DUP1 CALLDATASIZE SUB DUP2 ADD SWAP1 PUSH2 0x33B SWAP2 SWAP1 PUSH2 0x2D10 JUMP JUMPDEST PUSH2 0x18BC JUMP JUMPDEST PUSH1 0x40 MLOAD PUSH2 0x34E SWAP3 SWAP2 SWAP1 PUSH2 0x32FB JUMP JUMPDEST PUSH1 0x40 MLOAD DUP1 SWAP2 SUB SWAP1 RETURN JUMPDEST PUSH2 0x35F PUSH2 0x1922 JUMP JUMPDEST PUSH1 0x40 MLOAD PUSH2 0x36C SWAP2 SWAP1 PUSH2 0x3322 JUMP JUMPDEST PUSH1 0x40 MLOAD DUP1 SWAP2 SUB SWAP1 RETURN JUMPDEST PUSH2 0x38F PUSH1 0x4 DUP1 CALLDATASIZE SUB DUP2 ADD SWAP1 PUSH2 0x38A SWAP2 SWAP1 PUSH2 0x333B JUMP JUMPDEST PUSH2 0x1947 JUMP JUMPDEST STOP JUMPDEST PUSH2 0x399 PUSH2 0x1C15 JUMP JUMPDEST PUSH1 0x40 MLOAD PUSH2 0x3A6 SWAP2 SWAP1 PUSH2 0x3322 JUMP JUMPDEST PUSH1 0x40 MLOAD DUP1 SWAP2 SUB SWAP1 RETURN JUMPDEST PUSH2 0x3C9 PUSH1 0x4 DUP1 CALLDATASIZE SUB DUP2 ADD SWAP1 PUSH2 0x3C4 SWAP2 SWAP1 PUSH2 0x2D81 JUMP JUMPDEST PUSH2 0x1C3A JUMP JUMPDEST STOP JUMPDEST PUSH2 0x3E5 PUSH1 0x4 DUP1 CALLDATASIZE SUB DUP2 ADD SWAP1 PUSH2 0x3E0 SWAP2 SWAP1 PUSH2 0x2D81 JUMP JUMPDEST PUSH2 0x1FA1 JUMP JUMPDEST PUSH1 0x40 MLOAD PUSH2 0x3F2 SWAP2 SWAP1 PUSH2 0x2CBC JUMP JUMPDEST PUSH1 0x40 MLOAD DUP1 SWAP2 SUB SWAP1 RETURN JUMPDEST PUSH2 0x415 PUSH1 0x4 DUP1 CALLDATASIZE SUB DUP2 ADD SWAP1 PUSH2 0x410 SWAP2 SWAP1 PUSH2 0x2D81 JUMP JUMPDEST PUSH2 0x1FE9 JUMP JUMPDEST STOP JUMPDEST PUSH2 0x431 PUSH1 0x4 DUP1 CALLDATASIZE SUB DUP2 ADD SWAP1 PUSH2 0x42C SWAP2 SWAP1 PUSH2 0x2D81 JUMP JUMPDEST PUSH2 0x2408 JUMP JUMPDEST PUSH1 0x40 MLOAD PUSH2 0x43E SWAP2 SWAP1 PUSH2 0x2CBC JUMP JUMPDEST PUSH1 0x40 MLOAD DUP1 SWAP2 SUB SWAP1 RETURN JUMPDEST PUSH2 0x461 PUSH1 0x4 DUP1 CALLDATASIZE SUB DUP2 ADD SWAP1 PUSH2 0x45C SWAP2 SWAP1 PUSH2 0x2D81 JUMP JUMPDEST PUSH2 0x245E JUMP JUMPDEST PUSH1 0x40 MLOAD PUSH2 0x46E SWAP2 SWAP1 PUSH2 0x3322 JUMP JUMPDEST PUSH1 0x40 MLOAD DUP1 SWAP2 SUB SWAP1 RETURN JUMPDEST PUSH2 0x491 PUSH1 0x4 DUP1 CALLDATASIZE SUB DUP2 ADD SWAP1 PUSH2 0x48C SWAP2 SWAP1 PUSH2 0x2D81 JUMP JUMPDEST PUSH2 0x2494 JUMP JUMPDEST PUSH1 0x40 MLOAD PUSH2 0x49E SWAP2 SWAP1 PUSH2 0x338B JUMP JUMPDEST PUSH1 0x40 MLOAD DUP1 SWAP2 SUB SWAP1 RETURN JUMPDEST PUSH2 0x4AF PUSH2 0x24FB JUMP JUMPDEST PUSH1 0x40 MLOAD PUSH2 0x4BC SWAP2 SWAP1 PUSH2 0x33FF JUMP JUMPDEST PUSH1 0x40 MLOAD DUP1 SWAP2 SUB SWAP1 RETURN JUMPDEST PUSH2 0x4DF PUSH1 0x4 DUP1 CALLDATASIZE SUB DUP2 ADD SWAP1 PUSH2 0x4DA SWAP2 SWAP1 PUSH2 0x2D81 JUMP JUMPDEST PUSH2 0x251E JUMP JUMPDEST PUSH1 0x40 MLOAD PUSH2 0x4ED SWAP3 SWAP2 SWAP1 PUSH2 0x3418 JUMP JUMPDEST PUSH1 0x40 MLOAD DUP1 SWAP2 SUB SWAP1 RETURN JUMPDEST PUSH2 0x510 PUSH1 0x4 DUP1 CALLDATASIZE SUB DUP2 ADD SWAP1 PUSH2 0x50B SWAP2 SWAP1 PUSH2 0x3446 JUMP JUMPDEST PUSH2 0x260B JUMP JUMPDEST PUSH1 0x40 MLOAD PUSH2 0x51D SWAP2 SWAP1 PUSH2 0x2CBC JUMP JUMPDEST PUSH1 0x40 MLOAD DUP1 SWAP2 SUB SWAP1 RETURN JUMPDEST PUSH2 0x540 PUSH1 0x4 DUP1 CALLDATASIZE SUB DUP2 ADD SWAP1 PUSH2 0x53B SWAP2 SWAP1 PUSH2 0x2D10 JUMP JUMPDEST PUSH2 0x2A9A JUMP JUMPDEST PUSH1 0x40 MLOAD PUSH2 0x54D SWAP2 SWAP1 PUSH2 0x2CBC JUMP JUMPDEST PUSH1 0x40 MLOAD DUP1 SWAP2 SUB SWAP1 RETURN JUMPDEST PUSH1 0x3 SLOAD DUP2 JUMP JUMPDEST PUSH0 DUP1 DUP4 GT PUSH2 0x568 JUMPI PUSH0 DUP1 REVERT JUMPDEST PUSH0 PUSH1 0x1 DUP5 PUSH2 0x576 SWAP2 SWAP1 PUSH2 0x34C3 JUMP JUMPDEST SWAP1 POP PUSH1 0x3 SLOAD DUP5 GT ISZERO PUSH2 0x5BD JUMPI PUSH1 0x40 MLOAD PUSH32 0x8C379A000000000000000000000000000000000000000000000000000000000 DUP2 MSTORE PUSH1 0x4 ADD PUSH2 0x5B4 SWAP1 PUSH2 0x3540 JUMP JUMPDEST PUSH1 0x40 MLOAD DUP1 SWAP2 SUB SWAP1 REVERT JUMPDEST PUSH1 0x2 PUSH1 0x3 DUP2 GT ISZERO PUSH2 0x5D1 JUMPI PUSH2 0x5D0 PUSH2 0x2E34 JUMP JUMPDEST JUMPDEST PUSH1 0x4 DUP3 DUP2 SLOAD DUP2 LT PUSH2 0x5E5 JUMPI PUSH2 0x5E4 PUSH2 0x355E JUMP JUMPDEST JUMPDEST SWAP1 PUSH0 MSTORE PUSH1 0x20 PUSH0 KECCAK256 SWAP1 PUSH1 0xD MUL ADD PUSH1 0x8 ADD PUSH0 SWAP1 SLOAD SWAP1 PUSH2 0x100 EXP SWAP1 DIV PUSH1 0xFF AND PUSH1 0x3 DUP2 GT ISZERO PUSH2 0x613 JUMPI PUSH2 0x612 PUSH2 0x2E34 JUMP JUMPDEST JUMPDEST EQ PUSH2 0x653 JUMPI PUSH1 0x40 MLOAD PUSH32 0x8C379A000000000000000000000000000000000000000000000000000000000 DUP2 MSTORE PUSH1 0x4 ADD PUSH2 0x64A SWAP1 PUSH2 0x35D5 JUMP JUMPDEST PUSH1 0x40 MLOAD DUP1 SWAP2 SUB SWAP1 REVERT JUMPDEST PUSH1 0x5 PUSH0 DUP6 DUP2 MSTORE PUSH1 0x20 ADD SWAP1 DUP2 MSTORE PUSH1 0x20 ADD PUSH0 KECCAK256 DUP1 SLOAD SWAP1 POP DUP4 LT PUSH2 0x6A9 JUMPI PUSH1 0x40 MLOAD PUSH32 0x8C379A000000000000000000000000000000000000000000000000000000000 DUP2 MSTORE PUSH1 0x4 ADD PUSH2 0x6A0 SWAP1 PUSH2 0x363D JUMP JUMPDEST PUSH1 0x40 MLOAD DUP1 SWAP2 SUB SWAP1 REVERT JUMPDEST PUSH0 PUSH1 0x5 PUSH0 DUP7 DUP2 MSTORE PUSH1 0x20 ADD SWAP1 DUP2 MSTORE PUSH1 0x20 ADD PUSH0 KECCAK256 DUP5 DUP2 SLOAD DUP2 LT PUSH2 0x6CD JUMPI PUSH2 0x6CC PUSH2 0x355E JUMP JUMPDEST JUMPDEST SWAP1 PUSH0 MSTORE PUSH1 0x20 PUSH0 KECCAK256 SWAP1 PUSH1 0x4 MUL ADD SWAP1 POP CALLER PUSH20 0xFFFFFFFFFFFFFFFFFFFFFFFFFFFFFFFFFFFFFFFF AND DUP2 PUSH0 ADD PUSH0 SWAP1 SLOAD SWAP1 PUSH2 0x100 EXP SWAP1 DIV PUSH20 0xFFFFFFFFFFFFFFFFFFFFFFFFFFFFFFFFFFFFFFFF AND PUSH20 0xFFFFFFFFFFFFFFFFFFFFFFFFFFFFFFFFFFFFFFFF AND EQ PUSH2 0x76B JUMPI PUSH1 0x40 MLOAD PUSH32 0x8C379A000000000000000000000000000000000000000000000000000000000 DUP2 MSTORE PUSH1 0x4 ADD PUSH2 0x762 SWAP1 PUSH2 0x36A5 JUMP JUMPDEST PUSH1 0x40 MLOAD DUP1 SWAP2 SUB SWAP1 REVERT JUMPDEST PUSH1 0x1 ISZERO ISZERO DUP2 PUSH1 0x3 ADD PUSH0 SWAP1 SLOAD SWAP1 PUSH2 0x100 EXP SWAP1 DIV PUSH1 0xFF AND ISZERO ISZERO EQ PUSH2 0x7C2 JUMPI PUSH1 0x40 MLOAD PUSH32 0x8C379A000000000000000000000000000000000000000000000000000000000 DUP2 MSTORE PUSH1 0x4 ADD PUSH2 0x7B9 SWAP1 PUSH2 0x3733 JUMP JUMPDEST PUSH1 0x40 MLOAD DUP1 SWAP2 SUB SWAP1 REVERT JUMPDEST PUSH0 JUMPDEST PUSH1 0x4 DUP4 DUP2 SLOAD DUP2 LT PUSH2 0x7D8 JUMPI PUSH2 0x7D7 PUSH2 0x355E JUMP JUMPDEST JUMPDEST SWAP1 PUSH0 MSTORE PUSH1 0x20 PUSH0 KECCAK256 SWAP1 PUSH1 0xD MUL ADD PUSH1 0xC ADD DUP1 SLOAD SWAP1 POP DUP2 LT ISZERO PUSH2 0x84F JUMPI DUP5 PUSH1 0x4 DUP5 DUP2 SLOAD DUP2 LT PUSH2 0x807 JUMPI PUSH2 0x806 PUSH2 0x355E JUMP JUMPDEST JUMPDEST SWAP1 PUSH0 MSTORE PUSH1 0x20 PUSH0 KECCAK256 SWAP1 PUSH1 0xD MUL ADD PUSH1 0xC ADD DUP3 DUP2 SLOAD DUP2 LT PUSH2 0x828 JUMPI PUSH2 0x827 PUSH2 0x355E JUMP JUMPDEST JUMPDEST SWAP1 PUSH0 MSTORE PUSH1 0x20 PUSH0 KECCAK256 ADD SLOAD SUB PUSH2 0x842 JUMPI PUSH1 0x1 SWAP4 POP POP POP POP PUSH2 0x856 JUMP JUMPDEST DUP1 DUP1 PUSH1 0x1 ADD SWAP2 POP POP PUSH2 0x7C4 JUMP JUMPDEST POP PUSH0 SWAP3 POP POP POP JUMPDEST SWAP3 SWAP2 POP POP JUMP JUMPDEST PUSH1 0x4 DUP2 DUP2 SLOAD DUP2 LT PUSH2 0x86B JUMPI PUSH0 DUP1 REVERT JUMPDEST SWAP1 PUSH0 MSTORE PUSH1 0x20 PUSH0 KECCAK256 SWAP1 PUSH1 0xD MUL ADD PUSH0 SWAP2 POP SWAP1 POP DUP1 PUSH0 ADD SLOAD SWAP1 DUP1 PUSH1 0x1 ADD SLOAD SWAP1 DUP1 PUSH1 0x2 ADD SLOAD SWAP1 DUP1 PUSH1 0x3 ADD SLOAD SWAP1 DUP1 PUSH1 0x4 ADD SLOAD SWAP1 DUP1 PUSH1 0x5 ADD SLOAD SWAP1 DUP1 PUSH1 0x6 ADD DUP1 SLOAD PUSH2 0x8AE SWAP1 PUSH2 0x377E JUMP JUMPDEST DUP1 PUSH1 0x1F ADD PUSH1 0x20 DUP1 SWAP2 DIV MUL PUSH1 0x20 ADD PUSH1 0x40 MLOAD SWAP1 DUP2 ADD PUSH1 0x40 MSTORE DUP1 SWAP3 SWAP2 SWAP1 DUP2 DUP2 MSTORE PUSH1 0x20 ADD DUP3 DUP1 SLOAD PUSH2 0x8DA SWAP1 PUSH2 0x377E JUMP JUMPDEST DUP1 ISZERO PUSH2 0x925 JUMPI DUP1 PUSH1 0x1F LT PUSH2 0x8FC JUMPI PUSH2 0x100 DUP1 DUP4 SLOAD DIV MUL DUP4 MSTORE SWAP2 PUSH1 0x20 ADD SWAP2 PUSH2 0x925 JUMP JUMPDEST DUP3 ADD SWAP2 SWAP1 PUSH0 MSTORE PUSH1 0x20 PUSH0 KECCAK256 SWAP1 JUMPDEST DUP2 SLOAD DUP2 MSTORE SWAP1 PUSH1 0x1 ADD SWAP1 PUSH1 0x20 ADD DUP1 DUP4 GT PUSH2 0x908 JUMPI DUP3 SWAP1 SUB PUSH1 0x1F AND DUP3 ADD SWAP2 JUMPDEST POP POP POP POP POP SWAP1 DUP1 PUSH1 0x7 ADD SLOAD SWAP1 DUP1 PUSH1 0x8 ADD PUSH0 SWAP1 SLOAD SWAP1 PUSH2 0x100 EXP SWAP1 DIV PUSH1 0xFF AND SWAP1 DUP1 PUSH1 0x9 ADD SLOAD SWAP1 DUP1 PUSH1 0xA ADD SLOAD SWAP1 DUP1 PUSH1 0xB ADD SLOAD SWAP1 POP DUP13 JUMP JUMPDEST PUSH1 0x5 PUSH1 0x20 MSTORE DUP2 PUSH0 MSTORE PUSH1 0x40 PUSH0 KECCAK256 DUP2 DUP2 SLOAD DUP2 LT PUSH2 0x972 JUMPI PUSH0 DUP1 REVERT JUMPDEST SWAP1 PUSH0 MSTORE PUSH1 0x20 PUSH0 KECCAK256 SWAP1 PUSH1 0x4 MUL ADD PUSH0 SWAP2 POP SWAP2 POP POP DUP1 PUSH0 ADD PUSH0 SWAP1 SLOAD SWAP1 PUSH2 0x100 EXP SWAP1 DIV PUSH20 0xFFFFFFFFFFFFFFFFFFFFFFFFFFFFFFFFFFFFFFFF AND SWAP1 DUP1 PUSH1 0x1 ADD SLOAD SWAP1 DUP1 PUSH1 0x2 ADD SLOAD SWAP1 DUP1 PUSH1 0x3 ADD PUSH0 SWAP1 SLOAD SWAP1 PUSH2 0x100 EXP SWAP1 DIV PUSH1 0xFF AND SWAP1 DUP1 PUSH1 0x3 ADD PUSH1 0x1 SWAP1 SLOAD SWAP1 PUSH2 0x100 EXP SWAP1 DIV PUSH1 0xFF AND SWAP1 POP DUP6 JUMP JUMPDEST PUSH0 TIMESTAMP SWAP1 POP PUSH0 JUMPDEST PUSH1 0x3 SLOAD DUP2 LT ISZERO PUSH2 0xE40 JUMPI PUSH0 PUSH1 0x3 DUP2 GT ISZERO PUSH2 0xA00 JUMPI PUSH2 0x9FF PUSH2 0x2E34 JUMP JUMPDEST JUMPDEST PUSH1 0x4 DUP3 DUP2 SLOAD DUP2 LT PUSH2 0xA14 JUMPI PUSH2 0xA13 PUSH2 0x355E JUMP JUMPDEST JUMPDEST SWAP1 PUSH0 MSTORE PUSH1 0x20 PUSH0 KECCAK256 SWAP1 PUSH1 0xD MUL ADD PUSH1 0x8 ADD PUSH0 SWAP1 SLOAD SWAP1 PUSH2 0x100 EXP SWAP1 DIV PUSH1 0xFF AND PUSH1 0x3 DUP2 GT ISZERO PUSH2 0xA42 JUMPI PUSH2 0xA41 PUSH2 0x2E34 JUMP JUMPDEST JUMPDEST SUB PUSH2 0xAC2 JUMPI PUSH1 0x4 DUP2 DUP2 SLOAD DUP2 LT PUSH2 0xA5B JUMPI PUSH2 0xA5A PUSH2 0x355E JUMP JUMPDEST JUMPDEST SWAP1 PUSH0 MSTORE PUSH1 0x20 PUSH0 KECCAK256 SWAP1 PUSH1 0xD MUL ADD PUSH1 0x7 ADD SLOAD DUP3 LT PUSH2 0xABD JUMPI PUSH1 0x1 PUSH1 0x4 DUP3 DUP2 SLOAD DUP2 LT PUSH2 0xA87 JUMPI PUSH2 0xA86 PUSH2 0x355E JUMP JUMPDEST JUMPDEST SWAP1 PUSH0 MSTORE PUSH1 0x20 PUSH0 KECCAK256 SWAP1 PUSH1 0xD MUL ADD PUSH1 0x8 ADD PUSH0 PUSH2 0x100 EXP DUP2 SLOAD DUP2 PUSH1 0xFF MUL NOT AND SWAP1 DUP4 PUSH1 0x3 DUP2 GT ISZERO PUSH2 0xAB7 JUMPI PUSH2 0xAB6 PUSH2 0x2E34 JUMP JUMPDEST JUMPDEST MUL OR SWAP1 SSTORE POP JUMPDEST PUSH2 0xE33 JUMP JUMPDEST PUSH1 0x1 PUSH1 0x3 DUP2 GT ISZERO PUSH2 0xAD6 JUMPI PUSH2 0xAD5 PUSH2 0x2E34 JUMP JUMPDEST JUMPDEST PUSH1 0x4 DUP3 DUP2 SLOAD DUP2 LT PUSH2 0xAEA JUMPI PUSH2 0xAE9 PUSH2 0x355E JUMP JUMPDEST JUMPDEST SWAP1 PUSH0 MSTORE PUSH1 0x20 PUSH0 KECCAK256 SWAP1 PUSH1 0xD MUL ADD PUSH1 0x8 ADD PUSH0 SWAP1 SLOAD SWAP1 PUSH2 0x100 EXP SWAP1 DIV PUSH1 0xFF AND PUSH1 0x3 DUP2 GT ISZERO PUSH2 0xB18 JUMPI PUSH2 0xB17 PUSH2 0x2E34 JUMP JUMPDEST JUMPDEST SUB PUSH2 0xC74 JUMPI PUSH1 0x4 DUP2 DUP2 SLOAD DUP2 LT PUSH2 0xB31 JUMPI PUSH2 0xB30 PUSH2 0x355E JUMP JUMPDEST JUMPDEST SWAP1 PUSH0 MSTORE PUSH1 0x20 PUSH0 KECCAK256 SWAP1 PUSH1 0xD MUL ADD PUSH0 ADD SLOAD DUP3 LT PUSH2 0xC6F JUMPI PUSH0 PUSH1 0x64 PUSH1 0x4 DUP4 DUP2 SLOAD DUP2 LT PUSH2 0xB5D JUMPI PUSH2 0xB5C PUSH2 0x355E JUMP JUMPDEST JUMPDEST SWAP1 PUSH0 MSTORE PUSH1 0x20 PUSH0 KECCAK256 SWAP1 PUSH1 0xD MUL ADD PUSH1 0x3 ADD SLOAD PUSH1 0x4 DUP5 DUP2 SLOAD DUP2 LT PUSH2 0xB81 JUMPI PUSH2 0xB80 PUSH2 0x355E JUMP JUMPDEST JUMPDEST SWAP1 PUSH0 MSTORE PUSH1 0x20 PUSH0 KECCAK256 SWAP1 PUSH1 0xD MUL ADD PUSH1 0x1 ADD SLOAD PUSH2 0xB9B SWAP2 SWAP1 PUSH2 0x37AE JUMP JUMPDEST PUSH2 0xBA5 SWAP2 SWAP1 PUSH2 0x381C JUMP JUMPDEST SWAP1 POP DUP1 PUSH1 0x4 DUP4 DUP2 SLOAD DUP2 LT PUSH2 0xBBC JUMPI PUSH2 0xBBB PUSH2 0x355E JUMP JUMPDEST JUMPDEST SWAP1 PUSH0 MSTORE PUSH1 0x20 PUSH0 KECCAK256 SWAP1 PUSH1 0xD MUL ADD PUSH1 0x9 ADD SLOAD LT PUSH2 0xC21 JUMPI PUSH1 0x2 PUSH1 0x4 DUP4 DUP2 SLOAD DUP2 LT PUSH2 0xBE7 JUMPI PUSH2 0xBE6 PUSH2 0x355E JUMP JUMPDEST JUMPDEST SWAP1 PUSH0 MSTORE PUSH1 0x20 PUSH0 KECCAK256 SWAP1 PUSH1 0xD MUL ADD PUSH1 0x8 ADD PUSH0 PUSH2 0x100 EXP DUP2 SLOAD DUP2 PUSH1 0xFF MUL NOT AND SWAP1 DUP4 PUSH1 0x3 DUP2 GT ISZERO PUSH2 0xC17 JUMPI PUSH2 0xC16 PUSH2 0x2E34 JUMP JUMPDEST JUMPDEST MUL OR SWAP1 SSTORE POP PUSH2 0xC6D JUMP JUMPDEST PUSH1 0x3 PUSH1 0x4 DUP4 DUP2 SLOAD DUP2 LT PUSH2 0xC37 JUMPI PUSH2 0xC36 PUSH2 0x355E JUMP JUMPDEST JUMPDEST SWAP1 PUSH0 MSTORE PUSH1 0x20 PUSH0 KECCAK256 SWAP1 PUSH1 0xD MUL ADD PUSH1 0x8 ADD PUSH0 PUSH2 0x100 EXP DUP2 SLOAD DUP2 PUSH1 0xFF MUL NOT AND SWAP1 DUP4 PUSH1 0x3 DUP2 GT ISZERO PUSH2 0xC67 JUMPI PUSH2 0xC66 PUSH2 0x2E34 JUMP JUMPDEST JUMPDEST MUL OR SWAP1 SSTORE POP JUMPDEST POP JUMPDEST PUSH2 0xE32 JUMP JUMPDEST PUSH0 PUSH1 0x3 DUP2 GT ISZERO PUSH2 0xC87 JUMPI PUSH2 0xC86 PUSH2 0x2E34 JUMP JUMPDEST JUMPDEST PUSH1 0x4 DUP3 DUP2 SLOAD DUP2 LT PUSH2 0xC9B JUMPI PUSH2 0xC9A PUSH2 0x355E JUMP JUMPDEST JUMPDEST SWAP1 PUSH0 MSTORE PUSH1 0x20 PUSH0 KECCAK256 SWAP1 PUSH1 0xD MUL ADD PUSH1 0x8 ADD PUSH0 SWAP1 SLOAD SWAP1 PUSH2 0x100 EXP SWAP1 DIV PUSH1 0xFF AND PUSH1 0x3 DUP2 GT ISZERO PUSH2 0xCC9 JUMPI PUSH2 0xCC8 PUSH2 0x2E34 JUMP JUMPDEST JUMPDEST EQ DUP1 PUSH2 0xD28 JUMPI POP PUSH1 0x1 PUSH1 0x3 DUP2 GT ISZERO PUSH2 0xCE4 JUMPI PUSH2 0xCE3 PUSH2 0x2E34 JUMP JUMPDEST JUMPDEST PUSH1 0x4 DUP3 DUP2 SLOAD DUP2 LT PUSH2 0xCF8 JUMPI PUSH2 0xCF7 PUSH2 0x355E JUMP JUMPDEST JUMPDEST SWAP1 PUSH0 MSTORE PUSH1 0x20 PUSH0 KECCAK256 SWAP1 PUSH1 0xD MUL ADD PUSH1 0x8 ADD PUSH0 SWAP1 SLOAD SWAP1 PUSH2 0x100 EXP SWAP1 DIV PUSH1 0xFF AND PUSH1 0x3 DUP2 GT ISZERO PUSH2 0xD26 JUMPI PUSH2 0xD25 PUSH2 0x2E34 JUMP JUMPDEST JUMPDEST EQ JUMPDEST ISZERO PUSH2 0xE31 JUMPI PUSH1 0x4 DUP2 DUP2 SLOAD DUP2 LT PUSH2 0xD41 JUMPI PUSH2 0xD40 PUSH2 0x355E JUMP JUMPDEST JUMPDEST SWAP1 PUSH0 MSTORE PUSH1 0x20 PUSH0 KECCAK256 SWAP1 PUSH1 0xD MUL ADD PUSH0 ADD SLOAD DUP3 LT PUSH2 0xE30 JUMPI PUSH0 PUSH1 0x64 PUSH1 0x4 DUP4 DUP2 SLOAD DUP2 LT PUSH2 0xD6D JUMPI PUSH2 0xD6C PUSH2 0x355E JUMP JUMPDEST JUMPDEST SWAP1 PUSH0 MSTORE PUSH1 0x20 PUSH0 KECCAK256 SWAP1 PUSH1 0xD MUL ADD PUSH1 0x3 ADD SLOAD PUSH1 0x4 DUP5 DUP2 SLOAD DUP2 LT PUSH2 0xD91 JUMPI PUSH2 0xD90 PUSH2 0x355E JUMP JUMPDEST JUMPDEST SWAP1 PUSH0 MSTORE PUSH1 0x20 PUSH0 KECCAK256 SWAP1 PUSH1 0xD MUL ADD PUSH1 0x1 ADD SLOAD PUSH2 0xDAB SWAP2 SWAP1 PUSH2 0x37AE JUMP JUMPDEST PUSH2 0xDB5 SWAP2 SWAP1 PUSH2 0x381C JUMP JUMPDEST SWAP1 POP DUP1 PUSH1 0x4 DUP4 DUP2 SLOAD DUP2 LT PUSH2 0xDCC JUMPI PUSH2 0xDCB PUSH2 0x355E JUMP JUMPDEST JUMPDEST SWAP1 PUSH0 MSTORE PUSH1 0x20 PUSH0 KECCAK256 SWAP1 PUSH1 0xD MUL ADD PUSH1 0x9 ADD SLOAD LT ISZERO PUSH2 0xE2E JUMPI PUSH1 0x3 PUSH1 0x4 DUP4 DUP2 SLOAD DUP2 LT PUSH2 0xDF8 JUMPI PUSH2 0xDF7 PUSH2 0x355E JUMP JUMPDEST JUMPDEST SWAP1 PUSH0 MSTORE PUSH1 0x20 PUSH0 KECCAK256 SWAP1 PUSH1 0xD MUL ADD PUSH1 0x8 ADD PUSH0 PUSH2 0x100 EXP DUP2 SLOAD DUP2 PUSH1 0xFF MUL NOT AND SWAP1 DUP4 PUSH1 0x3 DUP2 GT ISZERO PUSH2 0xE28 JUMPI PUSH2 0xE27 PUSH2 0x2E34 JUMP JUMPDEST JUMPDEST MUL OR SWAP1 SSTORE POP JUMPDEST POP JUMPDEST JUMPDEST JUMPDEST JUMPDEST DUP1 DUP1 PUSH1 0x1 ADD SWAP2 POP POP PUSH2 0x9E3 JUMP JUMPDEST POP POP JUMP JUMPDEST PUSH0 PUSH1 0x3 SLOAD SWAP1 POP SWAP1 JUMP JUMPDEST PUSH0 DUP1 DUP4 GT PUSH2 0xE59 JUMPI PUSH0 DUP1 REVERT JUMPDEST PUSH0 PUSH1 0x1 DUP5 PUSH2 0xE67 SWAP2 SWAP1 PUSH2 0x34C3 JUMP JUMPDEST SWAP1 POP PUSH1 0x3 SLOAD DUP5 GT ISZERO PUSH2 0xE77 JUMPI PUSH0 DUP1 REVERT JUMPDEST PUSH1 0x5 PUSH0 DUP6 DUP2 MSTORE PUSH1 0x20 ADD SWAP1 DUP2 MSTORE PUSH1 0x20 ADD PUSH0 KECCAK256 DUP1 SLOAD SWAP1 POP DUP4 GT ISZERO PUSH2 0xE97 JUMPI PUSH0 DUP1 REVERT JUMPDEST PUSH1 0x1 ISZERO ISZERO PUSH1 0x5 PUSH0 DUP7 DUP2 MSTORE PUSH1 0x20 ADD SWAP1 DUP2 MSTORE PUSH1 0x20 ADD PUSH0 KECCAK256 DUP5 DUP2 SLOAD DUP2 LT PUSH2 0xEBE JUMPI PUSH2 0xEBD PUSH2 0x355E JUMP JUMPDEST JUMPDEST SWAP1 PUSH0 MSTORE PUSH1 0x20 PUSH0 KECCAK256 SWAP1 PUSH1 0x4 MUL ADD PUSH1 0x3 ADD PUSH0 SWAP1 SLOAD SWAP1 PUSH2 0x100 EXP SWAP1 DIV PUSH1 0xFF AND ISZERO ISZERO EQ PUSH2 0xF1C JUMPI PUSH1 0x40 MLOAD PUSH32 0x8C379A000000000000000000000000000000000000000000000000000000000 DUP2 MSTORE PUSH1 0x4 ADD PUSH2 0xF13 SWAP1 PUSH2 0x38BC JUMP JUMPDEST PUSH1 0x40 MLOAD DUP1 SWAP2 SUB SWAP1 REVERT JUMPDEST PUSH0 JUMPDEST PUSH1 0x4 DUP6 DUP2 SLOAD DUP2 LT PUSH2 0xF32 JUMPI PUSH2 0xF31 PUSH2 0x355E JUMP JUMPDEST JUMPDEST SWAP1 PUSH0 MSTORE PUSH1 0x20 PUSH0 KECCAK256 SWAP1 PUSH1 0xD MUL ADD PUSH1 0xC ADD DUP1 SLOAD SWAP1 POP DUP2 LT ISZERO PUSH2 0x1032 JUMPI DUP4 PUSH1 0x4 DUP4 DUP2 SLOAD DUP2 LT PUSH2 0xF61 JUMPI PUSH2 0xF60 PUSH2 0x355E JUMP JUMPDEST JUMPDEST SWAP1 PUSH0 MSTORE PUSH1 0x20 PUSH0 KECCAK256 SWAP1 PUSH1 0xD MUL ADD PUSH1 0xC ADD DUP3 DUP2 SLOAD DUP2 LT PUSH2 0xF82 JUMPI PUSH2 0xF81 PUSH2 0x355E JUMP JUMPDEST JUMPDEST SWAP1 PUSH0 MSTORE PUSH1 0x20 PUSH0 KECCAK256 ADD SLOAD SUB PUSH2 0x1025 JUMPI PUSH0 PUSH1 0x5 PUSH0 DUP8 DUP2 MSTORE PUSH1 0x20 ADD SWAP1 DUP2 MSTORE PUSH1 0x20 ADD PUSH0 KECCAK256 DUP6 DUP2 SLOAD DUP2 LT PUSH2 0xFB4 JUMPI PUSH2 0xFB3 PUSH2 0x355E JUMP JUMPDEST JUMPDEST SWAP1 PUSH0 MSTORE PUSH1 0x20 PUSH0 KECCAK256 SWAP1 PUSH1 0x4 MUL ADD SWAP1 POP DUP7 PUSH20 0xFFFFFFFFFFFFFFFFFFFFFFFFFFFFFFFFFFFFFFFF AND DUP2 PUSH0 ADD PUSH0 SWAP1 SLOAD SWAP1 PUSH2 0x100 EXP SWAP1 DIV PUSH20 0xFFFFFFFFFFFFFFFFFFFFFFFFFFFFFFFFFFFFFFFF AND PUSH20 0xFFFFFFFFFFFFFFFFFFFFFFFFFFFFFFFFFFFFFFFF AND SUB PUSH2 0x1023 JUMPI PUSH1 0x1 SWAP4 POP POP POP POP PUSH2 0x1038 JUMP JUMPDEST POP JUMPDEST DUP1 DUP1 PUSH1 0x1 ADD SWAP2 POP POP PUSH2 0xF1E JUMP JUMPDEST POP PUSH0 SWAP2 POP POP JUMPDEST SWAP4 SWAP3 POP POP POP JUMP JUMPDEST PUSH0 DUP3 GT PUSH2 0x104A JUMPI PUSH0 DUP1 REVERT JUMPDEST PUSH0 PUSH1 0x1 DUP4 PUSH2 0x1058 SWAP2 SWAP1 PUSH2 0x34C3 JUMP JUMPDEST SWAP1 POP PUSH1 0x3 SLOAD DUP4 GT ISZERO PUSH2 0x1068 JUMPI PUSH0 DUP1 REVERT JUMPDEST PUSH0 PUSH1 0x4 DUP3 DUP2 SLOAD DUP2 LT PUSH2 0x107D JUMPI PUSH2 0x107C PUSH2 0x355E JUMP JUMPDEST JUMPDEST SWAP1 PUSH0 MSTORE PUSH1 0x20 PUSH0 KECCAK256 SWAP1 PUSH1 0xD MUL ADD SWAP1 POP PUSH1 0x3 DUP1 DUP2 GT ISZERO PUSH2 0x109E JUMPI PUSH2 0x109D PUSH2 0x2E34 JUMP JUMPDEST JUMPDEST DUP2 PUSH1 0x8 ADD PUSH0 SWAP1 SLOAD SWAP1 PUSH2 0x100 EXP SWAP1 DIV PUSH1 0xFF AND PUSH1 0x3 DUP2 GT ISZERO PUSH2 0x10C1 JUMPI PUSH2 0x10C0 PUSH2 0x2E34 JUMP JUMPDEST JUMPDEST EQ PUSH2 0x1101 JUMPI PUSH1 0x40 MLOAD PUSH32 0x8C379A000000000000000000000000000000000000000000000000000000000 DUP2 MSTORE PUSH1 0x4 ADD PUSH2 0x10F8 SWAP1 PUSH2 0x394A JUMP JUMPDEST PUSH1 0x40 MLOAD DUP1 SWAP2 SUB SWAP1 REVERT JUMPDEST PUSH1 0x5 PUSH0 DUP6 DUP2 MSTORE PUSH1 0x20 ADD SWAP1 DUP2 MSTORE PUSH1 0x20 ADD PUSH0 KECCAK256 DUP1 SLOAD SWAP1 POP DUP4 LT PUSH2 0x1120 JUMPI PUSH0 DUP1 REVERT JUMPDEST CALLER PUSH20 0xFFFFFFFFFFFFFFFFFFFFFFFFFFFFFFFFFFFFFFFF AND PUSH1 0x5 PUSH0 DUP7 DUP2 MSTORE PUSH1 0x20 ADD SWAP1 DUP2 MSTORE PUSH1 0x20 ADD PUSH0 KECCAK256 DUP5 DUP2 SLOAD DUP2 LT PUSH2 0x115A JUMPI PUSH2 0x1159 PUSH2 0x355E JUMP JUMPDEST JUMPDEST SWAP1 PUSH0 MSTORE PUSH1 0x20 PUSH0 KECCAK256 SWAP1 PUSH1 0x4 MUL ADD PUSH0 ADD PUSH0 SWAP1 SLOAD SWAP1 PUSH2 0x100 EXP SWAP1 DIV PUSH20 0xFFFFFFFFFFFFFFFFFFFFFFFFFFFFFFFFFFFFFFFF AND PUSH20 0xFFFFFFFFFFFFFFFFFFFFFFFFFFFFFFFFFFFFFFFF AND EQ PUSH2 0x11DE JUMPI PUSH1 0x40 MLOAD PUSH32 0x8C379A000000000000000000000000000000000000000000000000000000000 DUP2 MSTORE PUSH1 0x4 ADD PUSH2 0x11D5 SWAP1 PUSH2 0x39B2 JUMP JUMPDEST PUSH1 0x40 MLOAD DUP1 SWAP2 SUB SWAP1 REVERT JUMPDEST PUSH1 0x1 ISZERO ISZERO PUSH1 0x5 PUSH0 DUP7 DUP2 MSTORE PUSH1 0x20 ADD SWAP1 DUP2 MSTORE PUSH1 0x20 ADD PUSH0 KECCAK256 DUP5 DUP2 SLOAD DUP2 LT PUSH2 0x1205 JUMPI PUSH2 0x1204 PUSH2 0x355E JUMP JUMPDEST JUMPDEST SWAP1 PUSH0 MSTORE PUSH1 0x20 PUSH0 KECCAK256 SWAP1 PUSH1 0x4 MUL ADD PUSH1 0x3 ADD PUSH0 SWAP1 SLOAD SWAP1 PUSH2 0x100 EXP SWAP1 DIV PUSH1 0xFF AND ISZERO ISZERO EQ PUSH2 0x1263 JUMPI PUSH1 0x40 MLOAD PUSH32 0x8C379A000000000000000000000000000000000000000000000000000000000 DUP2 MSTORE PUSH1 0x4 ADD PUSH2 0x125A SWAP1 PUSH2 0x3A40 JUMP JUMPDEST PUSH1 0x40 MLOAD DUP1 SWAP2 SUB SWAP1 REVERT JUMPDEST PUSH1 0x5 PUSH0 DUP6 DUP2 MSTORE PUSH1 0x20 ADD SWAP1 DUP2 MSTORE PUSH1 0x20 ADD PUSH0 KECCAK256 DUP4 DUP2 SLOAD DUP2 LT PUSH2 0x1286 JUMPI PUSH2 0x1285 PUSH2 0x355E JUMP JUMPDEST JUMPDEST SWAP1 PUSH0 MSTORE PUSH1 0x20 PUSH0 KECCAK256 SWAP1 PUSH1 0x4 MUL ADD PUSH1 0x3 ADD PUSH1 0x1 SWAP1 SLOAD SWAP1 PUSH2 0x100 EXP SWAP1 DIV PUSH1 0xFF AND ISZERO PUSH2 0x12E3 JUMPI PUSH1 0x40 MLOAD PUSH32 0x8C379A000000000000000000000000000000000000000000000000000000000 DUP2 MSTORE PUSH1 0x4 ADD PUSH2 0x12DA SWAP1 PUSH2 0x3AA8 JUMP JUMPDEST PUSH1 0x40 MLOAD DUP1 SWAP2 SUB SWAP1 REVERT JUMPDEST PUSH0 DUP2 PUSH1 0x4 ADD SLOAD PUSH1 0x5 PUSH0 DUP8 DUP2 MSTORE PUSH1 0x20 ADD SWAP1 DUP2 MSTORE PUSH1 0x20 ADD PUSH0 KECCAK256 DUP6 DUP2 SLOAD DUP2 LT PUSH2 0x130C JUMPI PUSH2 0x130B PUSH2 0x355E JUMP JUMPDEST JUMPDEST SWAP1 PUSH0 MSTORE PUSH1 0x20 PUSH0 KECCAK256 SWAP1 PUSH1 0x4 MUL ADD PUSH1 0x1 ADD SLOAD PUSH2 0x1326 SWAP2 SWAP1 PUSH2 0x37AE JUMP JUMPDEST SWAP1 POP PUSH1 0x1 PUSH1 0x5 PUSH0 DUP8 DUP2 MSTORE PUSH1 0x20 ADD SWAP1 DUP2 MSTORE PUSH1 0x20 ADD PUSH0 KECCAK256 DUP6 DUP2 SLOAD DUP2 LT PUSH2 0x134D JUMPI PUSH2 0x134C PUSH2 0x355E JUMP JUMPDEST JUMPDEST SWAP1 PUSH0 MSTORE PUSH1 0x20 PUSH0 KECCAK256 SWAP1 PUSH1 0x4 MUL ADD PUSH1 0x3 ADD PUSH1 0x1 PUSH2 0x100 EXP DUP2 SLOAD DUP2 PUSH1 0xFF MUL NOT AND SWAP1 DUP4 ISZERO ISZERO MUL OR SWAP1 SSTORE POP PUSH0 DUP1 SLOAD SWAP1 PUSH2 0x100 EXP SWAP1 DIV PUSH20 0xFFFFFFFFFFFFFFFFFFFFFFFFFFFFFFFFFFFFFFFF AND PUSH20 0xFFFFFFFFFFFFFFFFFFFFFFFFFFFFFFFFFFFFFFFF AND PUSH4 0xA9059CBB CALLER DUP4 PUSH1 0x40 MLOAD DUP4 PUSH4 0xFFFFFFFF AND PUSH1 0xE0 SHL DUP2 MSTORE PUSH1 0x4 ADD PUSH2 0x13CD SWAP3 SWAP2 SWAP1 PUSH2 0x3AC6 JUMP JUMPDEST PUSH1 0x20 PUSH1 0x40 MLOAD DUP1 DUP4 SUB DUP2 PUSH0 DUP8 GAS CALL ISZERO DUP1 ISZERO PUSH2 0x13E9 JUMPI RETURNDATASIZE PUSH0 DUP1 RETURNDATACOPY RETURNDATASIZE PUSH0 REVERT JUMPDEST POP POP POP POP PUSH1 0x40 MLOAD RETURNDATASIZE PUSH1 0x1F NOT PUSH1 0x1F DUP3 ADD AND DUP3 ADD DUP1 PUSH1 0x40 MSTORE POP DUP2 ADD SWAP1 PUSH2 0x140D SWAP2 SWAP1 PUSH2 0x3B17 JUMP JUMPDEST PUSH2 0x144C JUMPI PUSH1 0x40 MLOAD PUSH32 0x8C379A000000000000000000000000000000000000000000000000000000000 DUP2 MSTORE PUSH1 0x4 ADD PUSH2 0x1443 SWAP1 PUSH2 0x3B8C JUMP JUMPDEST PUSH1 0x40 MLOAD DUP1 SWAP2 SUB SWAP1 REVERT JUMPDEST POP POP POP POP POP JUMP JUMPDEST PUSH1 0x2 PUSH0 SWAP1 SLOAD SWAP1 PUSH2 0x100 EXP SWAP1 DIV PUSH20 0xFFFFFFFFFFFFFFFFFFFFFFFFFFFFFFFFFFFFFFFF AND PUSH20 0xFFFFFFFFFFFFFFFFFFFFFFFFFFFFFFFFFFFFFFFF AND CALLER PUSH20 0xFFFFFFFFFFFFFFFFFFFFFFFFFFFFFFFFFFFFFFFF AND EQ PUSH2 0x14E2 JUMPI PUSH1 0x40 MLOAD PUSH32 0x8C379A000000000000000000000000000000000000000000000000000000000 DUP2 MSTORE PUSH1 0x4 ADD PUSH2 0x14D9 SWAP1 PUSH2 0x3C1A JUMP JUMPDEST PUSH1 0x40 MLOAD DUP1 SWAP2 SUB SWAP1 REVERT JUMPDEST PUSH0 PUSH20 0xFFFFFFFFFFFFFFFFFFFFFFFFFFFFFFFFFFFFFFFF AND DUP2 PUSH20 0xFFFFFFFFFFFFFFFFFFFFFFFFFFFFFFFFFFFFFFFF AND SUB PUSH2 0x1519 JUMPI PUSH0 DUP1 REVERT JUMPDEST DUP1 PUSH0 DUP1 PUSH2 0x100 EXP DUP2 SLOAD DUP2 PUSH20 0xFFFFFFFFFFFFFFFFFFFFFFFFFFFFFFFFFFFFFFFF MUL NOT AND SWAP1 DUP4 PUSH20 0xFFFFFFFFFFFFFFFFFFFFFFFFFFFFFFFFFFFFFFFF AND MUL OR SWAP1 SSTORE POP POP JUMP JUMPDEST PUSH0 DUP1 PUSH0 DUP1 PUSH0 PUSH1 0x3 SLOAD DUP7 GT ISZERO PUSH2 0x156E JUMPI PUSH0 DUP1 REVERT JUMPDEST PUSH0 DUP7 GT PUSH2 0x1579 JUMPI PUSH0 DUP1 REVERT JUMPDEST PUSH0 PUSH1 0x1 DUP8 PUSH2 0x1587 SWAP2 SWAP1 PUSH2 0x34C3 JUMP JUMPDEST SWAP1 POP PUSH0 PUSH1 0x4 DUP3 DUP2 SLOAD DUP2 LT PUSH2 0x159E JUMPI PUSH2 0x159D PUSH2 0x355E JUMP JUMPDEST JUMPDEST SWAP1 PUSH0 MSTORE PUSH1 0x20 PUSH0 KECCAK256 SWAP1 PUSH1 0xD MUL ADD SWAP1 POP DUP1 PUSH0 ADD SLOAD DUP2 PUSH1 0x1 ADD SLOAD DUP3 PUSH1 0x2 ADD SLOAD DUP4 PUSH1 0x3 ADD SLOAD DUP5 PUSH1 0x4 ADD SLOAD SWAP7 POP SWAP7 POP SWAP7 POP SWAP7 POP SWAP7 POP POP POP SWAP2 SWAP4 SWAP6 SWAP1 SWAP3 SWAP5 POP JUMP JUMPDEST PUSH0 PUSH1 0x2 PUSH0 SWAP1 SLOAD SWAP1 PUSH2 0x100 EXP SWAP1 DIV PUSH20 0xFFFFFFFFFFFFFFFFFFFFFFFFFFFFFFFFFFFFFFFF AND PUSH20 0xFFFFFFFFFFFFFFFFFFFFFFFFFFFFFFFFFFFFFFFF AND CALLER PUSH20 0xFFFFFFFFFFFFFFFFFFFFFFFFFFFFFFFFFFFFFFFF AND EQ PUSH2 0x1669 JUMPI PUSH1 0x40 MLOAD PUSH32 0x8C379A000000000000000000000000000000000000000000000000000000000 DUP2 MSTORE PUSH1 0x4 ADD PUSH2 0x1660 SWAP1 PUSH2 0x3C1A JUMP JUMPDEST PUSH1 0x40 MLOAD DUP1 SWAP2 SUB SWAP1 REVERT JUMPDEST PUSH0 DUP7 GT PUSH2 0x1674 JUMPI PUSH0 DUP1 REVERT JUMPDEST PUSH1 0x64 DUP6 GT ISZERO PUSH2 0x1681 JUMPI PUSH0 DUP1 REVERT JUMPDEST PUSH0 TIMESTAMP SWAP1 POP DUP1 DUP10 GT PUSH2 0x1690 JUMPI PUSH0 DUP1 REVERT JUMPDEST PUSH1 0x3 PUSH0 DUP2 SLOAD DUP1 SWAP3 SWAP2 SWAP1 PUSH2 0x16A2 SWAP1 PUSH2 0x3C38 JUMP JUMPDEST SWAP2 SWAP1 POP SSTORE POP PUSH1 0x4 PUSH1 0x40 MLOAD DUP1 PUSH2 0x1A0 ADD PUSH1 0x40 MSTORE DUP1 DUP12 DUP2 MSTORE PUSH1 0x20 ADD DUP11 DUP2 MSTORE PUSH1 0x20 ADD DUP10 DUP2 MSTORE PUSH1 0x20 ADD DUP9 DUP2 MSTORE PUSH1 0x20 ADD DUP8 DUP2 MSTORE PUSH1 0x20 ADD DUP7 DUP2 MSTORE PUSH1 0x20 ADD DUP6 DUP2 MSTORE PUSH1 0x20 ADD PUSH1 0x2 DUP5 DUP14 PUSH2 0x16ED SWAP2 SWAP1 PUSH2 0x34C3 JUMP JUMPDEST PUSH2 0x16F7 SWAP2 SWAP1 PUSH2 0x381C JUMP JUMPDEST DUP5 PUSH2 0x1702 SWAP2 SWAP1 PUSH2 0x3C7F JUMP JUMPDEST DUP2 MSTORE PUSH1 0x20 ADD PUSH0 PUSH1 0x3 DUP2 GT ISZERO PUSH2 0x171A JUMPI PUSH2 0x1719 PUSH2 0x2E34 JUMP JUMPDEST JUMPDEST DUP2 MSTORE PUSH1 0x20 ADD PUSH0 DUP2 MSTORE PUSH1 0x20 ADD PUSH0 DUP2 MSTORE PUSH1 0x20 ADD PUSH0 DUP2 MSTORE PUSH1 0x20 ADD DUP10 PUSH8 0xFFFFFFFFFFFFFFFF DUP2 GT ISZERO PUSH2 0x174B JUMPI PUSH2 0x174A PUSH2 0x311E JUMP JUMPDEST JUMPDEST PUSH1 0x40 MLOAD SWAP1 DUP1 DUP3 MSTORE DUP1 PUSH1 0x20 MUL PUSH1 0x20 ADD DUP3 ADD PUSH1 0x40 MSTORE DUP1 ISZERO PUSH2 0x1779 JUMPI DUP2 PUSH1 0x20 ADD PUSH1 0x20 DUP3 MUL DUP1 CALLDATASIZE DUP4 CALLDATACOPY DUP1 DUP3 ADD SWAP2 POP POP SWAP1 POP JUMPDEST POP DUP2 MSTORE POP SWAP1 DUP1 PUSH1 0x1 DUP2 SLOAD ADD DUP1 DUP3 SSTORE DUP1 SWAP2 POP POP PUSH1 0x1 SWAP1 SUB SWAP1 PUSH0 MSTORE PUSH1 0x20 PUSH0 KECCAK256 SWAP1 PUSH1 0xD MUL ADD PUSH0 SWAP1 SWAP2 SWAP1 SWAP2 SWAP1 SWAP2 POP PUSH0 DUP3 ADD MLOAD DUP2 PUSH0 ADD SSTORE PUSH1 0x20 DUP3 ADD MLOAD DUP2 PUSH1 0x1 ADD SSTORE PUSH1 0x40 DUP3 ADD MLOAD DUP2 PUSH1 0x2 ADD SSTORE PUSH1 0x60 DUP3 ADD MLOAD DUP2 PUSH1 0x3 ADD SSTORE PUSH1 0x80 DUP3 ADD MLOAD DUP2 PUSH1 0x4 ADD SSTORE PUSH1 0xA0 DUP3 ADD MLOAD DUP2 PUSH1 0x5 ADD SSTORE PUSH1 0xC0 DUP3 ADD MLOAD DUP2 PUSH1 0x6 ADD SWAP1 DUP2 PUSH2 0x17F2 SWAP2 SWAP1 PUSH2 0x3E46 JUMP JUMPDEST POP PUSH1 0xE0 DUP3 ADD MLOAD DUP2 PUSH1 0x7 ADD SSTORE PUSH2 0x100 DUP3 ADD MLOAD DUP2 PUSH1 0x8 ADD PUSH0 PUSH2 0x100 EXP DUP2 SLOAD DUP2 PUSH1 0xFF MUL NOT AND SWAP1 DUP4 PUSH1 0x3 DUP2 GT ISZERO PUSH2 0x1828 JUMPI PUSH2 0x1827 PUSH2 0x2E34 JUMP JUMPDEST JUMPDEST MUL OR SWAP1 SSTORE POP PUSH2 0x120 DUP3 ADD MLOAD DUP2 PUSH1 0x9 ADD SSTORE PUSH2 0x140 DUP3 ADD MLOAD DUP2 PUSH1 0xA ADD SSTORE PUSH2 0x160 DUP3 ADD MLOAD DUP2 PUSH1 0xB ADD SSTORE PUSH2 0x180 DUP3 ADD MLOAD DUP2 PUSH1 0xC ADD SWAP1 DUP1 MLOAD SWAP1 PUSH1 0x20 ADD SWAP1 PUSH2 0x186B SWAP3 SWAP2 SWAP1 PUSH2 0x2C3E JUMP JUMPDEST POP POP POP PUSH32 0xBCAB9AF3175C8A9D53B9308A82EE378A84C65B0C22E3DFEA2AFAC802C73A078A PUSH1 0x3 SLOAD DUP11 DUP11 PUSH1 0x40 MLOAD PUSH2 0x18A3 SWAP4 SWAP3 SWAP2 SWAP1 PUSH2 0x3F15 JUMP JUMPDEST PUSH1 0x40 MLOAD DUP1 SWAP2 SUB SWAP1 LOG1 PUSH1 0x3 SLOAD SWAP2 POP POP SWAP8 SWAP7 POP POP POP POP POP POP POP JUMP JUMPDEST PUSH0 DUP1 PUSH1 0x5 PUSH0 DUP5 DUP2 MSTORE PUSH1 0x20 ADD SWAP1 DUP2 MSTORE PUSH1 0x20 ADD PUSH0 KECCAK256 DUP1 SLOAD SWAP1 POP DUP5 GT ISZERO PUSH2 0x18DE JUMPI PUSH0 DUP1 REVERT JUMPDEST PUSH0 PUSH1 0x5 PUSH0 DUP6 DUP2 MSTORE PUSH1 0x20 ADD SWAP1 DUP2 MSTORE PUSH1 0x20 ADD PUSH0 KECCAK256 DUP6 DUP2 SLOAD DUP2 LT PUSH2 0x1902 JUMPI PUSH2 0x1901 PUSH2 0x355E JUMP JUMPDEST JUMPDEST SWAP1 PUSH0 MSTORE PUSH1 0x20 PUSH0 KECCAK256 SWAP1 PUSH1 0x4 MUL ADD SWAP1 POP DUP5 DUP2 PUSH1 0x1 ADD SLOAD SWAP3 POP SWAP3 POP POP SWAP3 POP SWAP3 SWAP1 POP JUMP JUMPDEST PUSH1 0x2 PUSH0 SWAP1 SLOAD SWAP1 PUSH2 0x100 EXP SWAP1 DIV PUSH20 0xFFFFFFFFFFFFFFFFFFFFFFFFFFFFFFFFFFFFFFFF AND DUP2 JUMP JUMPDEST PUSH0 DUP4 GT PUSH2 0x1952 JUMPI PUSH0 DUP1 REVERT JUMPDEST PUSH0 PUSH1 0x1 DUP5 PUSH2 0x1960 SWAP2 SWAP1 PUSH2 0x34C3 JUMP JUMPDEST SWAP1 POP PUSH1 0x1 PUSH1 0x3 DUP2 GT ISZERO PUSH2 0x1976 JUMPI PUSH2 0x1975 PUSH2 0x2E34 JUMP JUMPDEST JUMPDEST PUSH1 0x4 DUP3 DUP2 SLOAD DUP2 LT PUSH2 0x198A JUMPI PUSH2 0x1989 PUSH2 0x355E JUMP JUMPDEST JUMPDEST SWAP1 PUSH0 MSTORE PUSH1 0x20 PUSH0 KECCAK256 SWAP1 PUSH1 0xD MUL ADD PUSH1 0x8 ADD PUSH0 SWAP1 SLOAD SWAP1 PUSH2 0x100 EXP SWAP1 DIV PUSH1 0xFF AND PUSH1 0x3 DUP2 GT ISZERO PUSH2 0x19B8 JUMPI PUSH2 0x19B7 PUSH2 0x2E34 JUMP JUMPDEST JUMPDEST EQ PUSH2 0x19F8 JUMPI PUSH1 0x40 MLOAD PUSH32 0x8C379A000000000000000000000000000000000000000000000000000000000 DUP2 MSTORE PUSH1 0x4 ADD PUSH2 0x19EF SWAP1 PUSH2 0x3F94 JUMP JUMPDEST PUSH1 0x40 MLOAD DUP1 SWAP2 SUB SWAP1 REVERT JUMPDEST PUSH1 0x5 PUSH0 DUP6 DUP2 MSTORE PUSH1 0x20 ADD SWAP1 DUP2 MSTORE PUSH1 0x20 ADD PUSH0 KECCAK256 DUP1 SLOAD SWAP1 POP DUP4 GT ISZERO PUSH2 0x1A4F JUMPI PUSH1 0x40 MLOAD PUSH32 0x8C379A000000000000000000000000000000000000000000000000000000000 DUP2 MSTORE PUSH1 0x4 ADD PUSH2 0x1A46 SWAP1 PUSH2 0x3FFC JUMP JUMPDEST PUSH1 0x40 MLOAD DUP1 SWAP2 SUB SWAP1 REVERT JUMPDEST PUSH1 0x5 PUSH0 DUP6 DUP2 MSTORE PUSH1 0x20 ADD SWAP1 DUP2 MSTORE PUSH1 0x20 ADD PUSH0 KECCAK256 DUP4 DUP2 SLOAD DUP2 LT PUSH2 0x1A72 JUMPI PUSH2 0x1A71 PUSH2 0x355E JUMP JUMPDEST JUMPDEST SWAP1 PUSH0 MSTORE PUSH1 0x20 PUSH0 KECCAK256 SWAP1 PUSH1 0x4 MUL ADD PUSH1 0x3 ADD PUSH0 SWAP1 SLOAD SWAP1 PUSH2 0x100 EXP SWAP1 DIV PUSH1 0xFF AND ISZERO PUSH2 0x1ACE JUMPI PUSH1 0x40 MLOAD PUSH32 0x8C379A000000000000000000000000000000000000000000000000000000000 DUP2 MSTORE PUSH1 0x4 ADD PUSH2 0x1AC5 SWAP1 PUSH2 0x4064 JUMP JUMPDEST PUSH1 0x40 MLOAD DUP1 SWAP2 SUB SWAP1 REVERT JUMPDEST PUSH0 DUP3 PUSH1 0x40 MLOAD PUSH1 0x20 ADD PUSH2 0x1AE0 SWAP2 SWAP1 PUSH2 0x40A2 JUMP JUMPDEST PUSH1 0x40 MLOAD PUSH1 0x20 DUP2 DUP4 SUB SUB DUP2 MSTORE SWAP1 PUSH1 0x40 MSTORE DUP1 MLOAD SWAP1 PUSH1 0x20 ADD KECCAK256 SWAP1 POP DUP1 CALLER PUSH1 0x40 MLOAD PUSH1 0x20 ADD PUSH2 0x1B0B SWAP3 SWAP2 SWAP1 PUSH2 0x4121 JUMP JUMPDEST PUSH1 0x40 MLOAD PUSH1 0x20 DUP2 DUP4 SUB SUB DUP2 MSTORE SWAP1 PUSH1 0x40 MSTORE DUP1 MLOAD SWAP1 PUSH1 0x20 ADD KECCAK256 PUSH1 0x5 PUSH0 DUP8 DUP2 MSTORE PUSH1 0x20 ADD SWAP1 DUP2 MSTORE PUSH1 0x20 ADD PUSH0 KECCAK256 DUP6 DUP2 SLOAD DUP2 LT PUSH2 0x1B44 JUMPI PUSH2 0x1B43 PUSH2 0x355E JUMP JUMPDEST JUMPDEST SWAP1 PUSH0 MSTORE PUSH1 0x20 PUSH0 KECCAK256 SWAP1 PUSH1 0x4 MUL ADD PUSH1 0x2 ADD SLOAD EQ PUSH2 0x1B94 JUMPI PUSH1 0x40 MLOAD PUSH32 0x8C379A000000000000000000000000000000000000000000000000000000000 DUP2 MSTORE PUSH1 0x4 ADD PUSH2 0x1B8B SWAP1 PUSH2 0x4196 JUMP JUMPDEST PUSH1 0x40 MLOAD DUP1 SWAP2 SUB SWAP1 REVERT JUMPDEST PUSH1 0x1 PUSH1 0x5 PUSH0 DUP8 DUP2 MSTORE PUSH1 0x20 ADD SWAP1 DUP2 MSTORE PUSH1 0x20 ADD PUSH0 KECCAK256 DUP6 DUP2 SLOAD DUP2 LT PUSH2 0x1BB9 JUMPI PUSH2 0x1BB8 PUSH2 0x355E JUMP JUMPDEST JUMPDEST SWAP1 PUSH0 MSTORE PUSH1 0x20 PUSH0 KECCAK256 SWAP1 PUSH1 0x4 MUL ADD PUSH1 0x3 ADD PUSH0 PUSH2 0x100 EXP DUP2 SLOAD DUP2 PUSH1 0xFF MUL NOT AND SWAP1 DUP4 ISZERO ISZERO MUL OR SWAP1 SSTORE POP DUP3 PUSH1 0x4 DUP4 DUP2 SLOAD DUP2 LT PUSH2 0x1BF3 JUMPI PUSH2 0x1BF2 PUSH2 0x355E JUMP JUMPDEST JUMPDEST SWAP1 PUSH0 MSTORE PUSH1 0x20 PUSH0 KECCAK256 SWAP1 PUSH1 0xD MUL ADD PUSH1 0xB ADD PUSH0 DUP3 DUP3 SLOAD XOR SWAP3 POP POP DUP2 SWAP1 SSTORE POP POP POP POP POP POP JUMP JUMPDEST PUSH1 0x1 PUSH0 SWAP1 SLOAD SWAP1 PUSH2 0x100 EXP SWAP1 DIV PUSH20 0xFFFFFFFFFFFFFFFFFFFFFFFFFFFFFFFFFFFFFFFF AND DUP2 JUMP JUMPDEST PUSH1 0x2 PUSH0 SWAP1 SLOAD SWAP1 PUSH2 0x100 EXP SWAP1 DIV PUSH20 0xFFFFFFFFFFFFFFFFFFFFFFFFFFFFFFFFFFFFFFFF AND PUSH20 0xFFFFFFFFFFFFFFFFFFFFFFFFFFFFFFFFFFFFFFFF AND CALLER PUSH20 0xFFFFFFFFFFFFFFFFFFFFFFFFFFFFFFFFFFFFFFFF AND EQ PUSH2 0x1CC9 JUMPI PUSH1 0x40 MLOAD PUSH32 0x8C379A000000000000000000000000000000000000000000000000000000000 DUP2 MSTORE PUSH1 0x4 ADD PUSH2 0x1CC0 SWAP1 PUSH2 0x3C1A JUMP JUMPDEST PUSH1 0x40 MLOAD DUP1 SWAP2 SUB SWAP1 REVERT JUMPDEST PUSH1 0x3 SLOAD DUP2 GT ISZERO PUSH2 0x1CD7 JUMPI PUSH0 DUP1 REVERT JUMPDEST PUSH0 DUP2 GT PUSH2 0x1CE2 JUMPI PUSH0 DUP1 REVERT JUMPDEST PUSH0 PUSH1 0x1 DUP3 PUSH2 0x1CF0 SWAP2 SWAP1 PUSH2 0x34C3 JUMP JUMPDEST SWAP1 POP PUSH1 0x2 PUSH1 0x3 DUP2 GT ISZERO PUSH2 0x1D06 JUMPI PUSH2 0x1D05 PUSH2 0x2E34 JUMP JUMPDEST JUMPDEST PUSH1 0x4 DUP3 DUP2 SLOAD DUP2 LT PUSH2 0x1D1A JUMPI PUSH2 0x1D19 PUSH2 0x355E JUMP JUMPDEST JUMPDEST SWAP1 PUSH0 MSTORE PUSH1 0x20 PUSH0 KECCAK256 SWAP1 PUSH1 0xD MUL ADD PUSH1 0x8 ADD PUSH0 SWAP1 SLOAD SWAP1 PUSH2 0x100 EXP SWAP1 DIV PUSH1 0xFF AND PUSH1 0x3 DUP2 GT ISZERO PUSH2 0x1D48 JUMPI PUSH2 0x1D47 PUSH2 0x2E34 JUMP JUMPDEST JUMPDEST EQ PUSH2 0x1D88 JUMPI PUSH1 0x40 MLOAD PUSH32 0x8C379A000000000000000000000000000000000000000000000000000000000 DUP2 MSTORE PUSH1 0x4 ADD PUSH2 0x1D7F SWAP1 PUSH2 0x41FE JUMP JUMPDEST PUSH1 0x40 MLOAD DUP1 SWAP2 SUB SWAP1 REVERT JUMPDEST PUSH0 PUSH1 0x4 DUP3 DUP2 SLOAD DUP2 LT PUSH2 0x1D9D JUMPI PUSH2 0x1D9C PUSH2 0x355E JUMP JUMPDEST JUMPDEST SWAP1 PUSH0 MSTORE PUSH1 0x20 PUSH0 KECCAK256 SWAP1 PUSH1 0xD MUL ADD SWAP1 POP PUSH0 DUP2 PUSH1 0x4 ADD SLOAD DUP3 PUSH1 0x9 ADD SLOAD PUSH2 0x1DC0 SWAP2 SWAP1 PUSH2 0x37AE JUMP JUMPDEST SWAP1 POP PUSH0 DUP1 PUSH0 SWAP1 SLOAD SWAP1 PUSH2 0x100 EXP SWAP1 DIV PUSH20 0xFFFFFFFFFFFFFFFFFFFFFFFFFFFFFFFFFFFFFFFF AND PUSH20 0xFFFFFFFFFFFFFFFFFFFFFFFFFFFFFFFFFFFFFFFF AND PUSH4 0x70A08231 ADDRESS PUSH1 0x40 MLOAD DUP3 PUSH4 0xFFFFFFFF AND PUSH1 0xE0 SHL DUP2 MSTORE PUSH1 0x4 ADD PUSH2 0x1E1C SWAP2 SWAP1 PUSH2 0x3322 JUMP JUMPDEST PUSH1 0x20 PUSH1 0x40 MLOAD DUP1 DUP4 SUB DUP2 DUP7 GAS STATICCALL ISZERO DUP1 ISZERO PUSH2 0x1E37 JUMPI RETURNDATASIZE PUSH0 DUP1 RETURNDATACOPY RETURNDATASIZE PUSH0 REVERT JUMPDEST POP POP POP POP PUSH1 0x40 MLOAD RETURNDATASIZE PUSH1 0x1F NOT PUSH1 0x1F DUP3 ADD AND DUP3 ADD DUP1 PUSH1 0x40 MSTORE POP DUP2 ADD SWAP1 PUSH2 0x1E5B SWAP2 SWAP1 PUSH2 0x4230 JUMP JUMPDEST SWAP1 POP DUP2 DUP2 LT ISZERO PUSH2 0x1EA0 JUMPI PUSH1 0x40 MLOAD PUSH32 0x8C379A000000000000000000000000000000000000000000000000000000000 DUP2 MSTORE PUSH1 0x4 ADD PUSH2 0x1E97 SWAP1 PUSH2 0x42A5 JUMP JUMPDEST PUSH1 0x40 MLOAD DUP1 SWAP2 SUB SWAP1 REVERT JUMPDEST PUSH0 DUP1 SLOAD SWAP1 PUSH2 0x100 EXP SWAP1 DIV PUSH20 0xFFFFFFFFFFFFFFFFFFFFFFFFFFFFFFFFFFFFFFFF AND PUSH20 0xFFFFFFFFFFFFFFFFFFFFFFFFFFFFFFFFFFFFFFFF AND PUSH4 0xA9059CBB PUSH1 0x2 PUSH0 SWAP1 SLOAD SWAP1 PUSH2 0x100 EXP SWAP1 DIV PUSH20 0xFFFFFFFFFFFFFFFFFFFFFFFFFFFFFFFFFFFFFFFF AND DUP5 PUSH1 0x40 MLOAD DUP4 PUSH4 0xFFFFFFFF AND PUSH1 0xE0 SHL DUP2 MSTORE PUSH1 0x4 ADD PUSH2 0x1F1B SWAP3 SWAP2 SWAP1 PUSH2 0x3AC6 JUMP JUMPDEST PUSH1 0x20 PUSH1 0x40 MLOAD DUP1 DUP4 SUB DUP2 PUSH0 DUP8 GAS CALL ISZERO DUP1 ISZERO PUSH2 0x1F37 JUMPI RETURNDATASIZE PUSH0 DUP1 RETURNDATACOPY RETURNDATASIZE PUSH0 REVERT JUMPDEST POP POP POP POP PUSH1 0x40 MLOAD RETURNDATASIZE PUSH1 0x1F NOT PUSH1 0x1F DUP3 ADD AND DUP3 ADD DUP1 PUSH1 0x40 MSTORE POP DUP2 ADD SWAP1 PUSH2 0x1F5B SWAP2 SWAP1 PUSH2 0x3B17 JUMP JUMPDEST PUSH2 0x1F9A JUMPI PUSH1 0x40 MLOAD PUSH32 0x8C379A000000000000000000000000000000000000000000000000000000000 DUP2 MSTORE PUSH1 0x4 ADD PUSH2 0x1F91 SWAP1 PUSH2 0x430D JUMP JUMPDEST PUSH1 0x40 MLOAD DUP1 SWAP2 SUB SWAP1 REVERT JUMPDEST POP POP POP POP POP JUMP JUMPDEST PUSH0 DUP1 DUP3 GT PUSH2 0x1FAD JUMPI PUSH0 DUP1 REVERT JUMPDEST PUSH0 PUSH1 0x1 DUP4 PUSH2 0x1FBB SWAP2 SWAP1 PUSH2 0x34C3 JUMP JUMPDEST SWAP1 POP PUSH1 0x4 DUP2 DUP2 SLOAD DUP2 LT PUSH2 0x1FD1 JUMPI PUSH2 0x1FD0 PUSH2 0x355E JUMP JUMPDEST JUMPDEST SWAP1 PUSH0 MSTORE PUSH1 0x20 PUSH0 KECCAK256 SWAP1 PUSH1 0xD MUL ADD PUSH1 0xA ADD SLOAD SWAP2 POP POP SWAP2 SWAP1 POP JUMP JUMPDEST PUSH1 0x2 PUSH0 SWAP1 SLOAD SWAP1 PUSH2 0x100 EXP SWAP1 DIV PUSH20 0xFFFFFFFFFFFFFFFFFFFFFFFFFFFFFFFFFFFFFFFF AND PUSH20 0xFFFFFFFFFFFFFFFFFFFFFFFFFFFFFFFFFFFFFFFF AND CALLER PUSH20 0xFFFFFFFFFFFFFFFFFFFFFFFFFFFFFFFFFFFFFFFF AND EQ PUSH2 0x2078 JUMPI PUSH1 0x40 MLOAD PUSH32 0x8C379A000000000000000000000000000000000000000000000000000000000 DUP2 MSTORE PUSH1 0x4 ADD PUSH2 0x206F SWAP1 PUSH2 0x3C1A JUMP JUMPDEST PUSH1 0x40 MLOAD DUP1 SWAP2 SUB SWAP1 REVERT JUMPDEST PUSH1 0x3 SLOAD DUP2 GT ISZERO PUSH2 0x2086 JUMPI PUSH0 DUP1 REVERT JUMPDEST PUSH0 DUP2 GT PUSH2 0x2091 JUMPI PUSH0 DUP1 REVERT JUMPDEST PUSH0 PUSH1 0x1 DUP3 PUSH2 0x209F SWAP2 SWAP1 PUSH2 0x34C3 JUMP JUMPDEST SWAP1 POP PUSH1 0x2 PUSH1 0x3 DUP2 GT ISZERO PUSH2 0x20B5 JUMPI PUSH2 0x20B4 PUSH2 0x2E34 JUMP JUMPDEST JUMPDEST PUSH1 0x4 DUP3 DUP2 SLOAD DUP2 LT PUSH2 0x20C9 JUMPI PUSH2 0x20C8 PUSH2 0x355E JUMP JUMPDEST JUMPDEST SWAP1 PUSH0 MSTORE PUSH1 0x20 PUSH0 KECCAK256 SWAP1 PUSH1 0xD MUL ADD PUSH1 0x8 ADD PUSH0 SWAP1 SLOAD SWAP1 PUSH2 0x100 EXP SWAP1 DIV PUSH1 0xFF AND PUSH1 0x3 DUP2 GT ISZERO PUSH2 0x20F7 JUMPI PUSH2 0x20F6 PUSH2 0x2E34 JUMP JUMPDEST JUMPDEST EQ PUSH2 0x2137 JUMPI PUSH1 0x40 MLOAD PUSH32 0x8C379A000000000000000000000000000000000000000000000000000000000 DUP2 MSTORE PUSH1 0x4 ADD PUSH2 0x212E SWAP1 PUSH2 0x4375 JUMP JUMPDEST PUSH1 0x40 MLOAD DUP1 SWAP2 SUB SWAP1 REVERT JUMPDEST PUSH0 PUSH1 0x64 PUSH1 0x4 DUP4 DUP2 SLOAD DUP2 LT PUSH2 0x214E JUMPI PUSH2 0x214D PUSH2 0x355E JUMP JUMPDEST JUMPDEST SWAP1 PUSH0 MSTORE PUSH1 0x20 PUSH0 KECCAK256 SWAP1 PUSH1 0xD MUL ADD PUSH1 0x3 ADD SLOAD PUSH1 0x4 DUP5 DUP2 SLOAD DUP2 LT PUSH2 0x2172 JUMPI PUSH2 0x2171 PUSH2 0x355E JUMP JUMPDEST JUMPDEST SWAP1 PUSH0 MSTORE PUSH1 0x20 PUSH0 KECCAK256 SWAP1 PUSH1 0xD MUL ADD PUSH1 0x1 ADD SLOAD PUSH2 0x218C SWAP2 SWAP1 PUSH2 0x37AE JUMP JUMPDEST PUSH2 0x2196 SWAP2 SWAP1 PUSH2 0x381C JUMP JUMPDEST SWAP1 POP DUP1 PUSH1 0x4 DUP4 DUP2 SLOAD DUP2 LT PUSH2 0x21AD JUMPI PUSH2 0x21AC PUSH2 0x355E JUMP JUMPDEST JUMPDEST SWAP1 PUSH0 MSTORE PUSH1 0x20 PUSH0 KECCAK256 SWAP1 PUSH1 0xD MUL ADD PUSH1 0x9 ADD SLOAD LT ISZERO PUSH2 0x21FE JUMPI PUSH1 0x40 MLOAD PUSH32 0x8C379A000000000000000000000000000000000000000000000000000000000 DUP2 MSTORE PUSH1 0x4 ADD PUSH2 0x21F5 SWAP1 PUSH2 0x43DD JUMP JUMPDEST PUSH1 0x40 MLOAD DUP1 SWAP2 SUB SWAP1 REVERT JUMPDEST PUSH0 PUSH1 0x4 DUP4 DUP2 SLOAD DUP2 LT PUSH2 0x2213 JUMPI PUSH2 0x2212 PUSH2 0x355E JUMP JUMPDEST JUMPDEST SWAP1 PUSH0 MSTORE PUSH1 0x20 PUSH0 KECCAK256 SWAP1 PUSH1 0xD MUL ADD PUSH1 0x9 ADD SLOAD SWAP1 POP PUSH0 PUSH1 0x4 DUP5 DUP2 SLOAD DUP2 LT PUSH2 0x223A JUMPI PUSH2 0x2239 PUSH2 0x355E JUMP JUMPDEST JUMPDEST SWAP1 PUSH0 MSTORE PUSH1 0x20 PUSH0 KECCAK256 SWAP1 PUSH1 0xD MUL ADD PUSH1 0x2 ADD SLOAD SWAP1 POP PUSH0 PUSH1 0x4 DUP6 DUP2 SLOAD DUP2 LT PUSH2 0x2261 JUMPI PUSH2 0x2260 PUSH2 0x355E JUMP JUMPDEST JUMPDEST SWAP1 PUSH0 MSTORE PUSH1 0x20 PUSH0 KECCAK256 SWAP1 PUSH1 0xD MUL ADD PUSH1 0xB ADD SLOAD SWAP1 POP PUSH0 JUMPDEST DUP3 DUP2 LT ISZERO PUSH2 0x23A4 JUMPI PUSH0 DUP5 DUP4 DUP4 PUSH1 0x40 MLOAD PUSH1 0x20 ADD PUSH2 0x2292 SWAP3 SWAP2 SWAP1 PUSH2 0x43FB JUMP JUMPDEST PUSH1 0x40 MLOAD PUSH1 0x20 DUP2 DUP4 SUB SUB DUP2 MSTORE SWAP1 PUSH1 0x40 MSTORE DUP1 MLOAD SWAP1 PUSH1 0x20 ADD KECCAK256 PUSH0 SHR PUSH2 0x22B4 SWAP2 SWAP1 PUSH2 0x4426 JUMP JUMPDEST SWAP1 POP JUMPDEST PUSH2 0x2330 PUSH1 0x4 DUP9 DUP2 SLOAD DUP2 LT PUSH2 0x22CE JUMPI PUSH2 0x22CD PUSH2 0x355E JUMP JUMPDEST JUMPDEST SWAP1 PUSH0 MSTORE PUSH1 0x20 PUSH0 KECCAK256 SWAP1 PUSH1 0xD MUL ADD PUSH1 0xC ADD DUP1 SLOAD DUP1 PUSH1 0x20 MUL PUSH1 0x20 ADD PUSH1 0x40 MLOAD SWAP1 DUP2 ADD PUSH1 0x40 MSTORE DUP1 SWAP3 SWAP2 SWAP1 DUP2 DUP2 MSTORE PUSH1 0x20 ADD DUP3 DUP1 SLOAD DUP1 ISZERO PUSH2 0x2325 JUMPI PUSH1 0x20 MUL DUP3 ADD SWAP2 SWAP1 PUSH0 MSTORE PUSH1 0x20 PUSH0 KECCAK256 SWAP1 JUMPDEST DUP2 SLOAD DUP2 MSTORE PUSH1 0x20 ADD SWAP1 PUSH1 0x1 ADD SWAP1 DUP1 DUP4 GT PUSH2 0x2311 JUMPI JUMPDEST POP POP POP POP POP DUP3 PUSH2 0x2BEC JUMP JUMPDEST ISZERO PUSH2 0x2354 JUMPI DUP5 PUSH1 0x1 DUP3 PUSH2 0x2343 SWAP2 SWAP1 PUSH2 0x3C7F JUMP JUMPDEST PUSH2 0x234D SWAP2 SWAP1 PUSH2 0x4426 JUMP JUMPDEST SWAP1 POP PUSH2 0x22B7 JUMP JUMPDEST DUP1 PUSH1 0x4 DUP9 DUP2 SLOAD DUP2 LT PUSH2 0x2369 JUMPI PUSH2 0x2368 PUSH2 0x355E JUMP JUMPDEST JUMPDEST SWAP1 PUSH0 MSTORE PUSH1 0x20 PUSH0 KECCAK256 SWAP1 PUSH1 0xD MUL ADD PUSH1 0xC ADD DUP4 DUP2 SLOAD DUP2 LT PUSH2 0x238A JUMPI PUSH2 0x2389 PUSH2 0x355E JUMP JUMPDEST JUMPDEST SWAP1 PUSH0 MSTORE PUSH1 0x20 PUSH0 KECCAK256 ADD DUP2 SWAP1 SSTORE POP POP DUP1 DUP1 PUSH1 0x1 ADD SWAP2 POP POP PUSH2 0x2275 JUMP JUMPDEST POP PUSH32 0xDCD4C188264D71A205A9AF0B423E86ACD556683D1EB112389101B992CE0188A5 DUP7 PUSH1 0x4 DUP8 DUP2 SLOAD DUP2 LT PUSH2 0x23DB JUMPI PUSH2 0x23DA PUSH2 0x355E JUMP JUMPDEST JUMPDEST SWAP1 PUSH0 MSTORE PUSH1 0x20 PUSH0 KECCAK256 SWAP1 PUSH1 0xD MUL ADD PUSH1 0xC ADD PUSH1 0x40 MLOAD PUSH2 0x23F8 SWAP3 SWAP2 SWAP1 PUSH2 0x4556 JUMP JUMPDEST PUSH1 0x40 MLOAD DUP1 SWAP2 SUB SWAP1 LOG1 POP POP POP POP POP POP JUMP JUMPDEST PUSH0 PUSH1 0x3 SLOAD DUP3 GT ISZERO PUSH2 0x2417 JUMPI PUSH0 DUP1 REVERT JUMPDEST PUSH0 DUP3 GT PUSH2 0x2422 JUMPI PUSH0 DUP1 REVERT JUMPDEST PUSH0 PUSH1 0x1 DUP4 PUSH2 0x2430 SWAP2 SWAP1 PUSH2 0x34C3 JUMP JUMPDEST SWAP1 POP PUSH1 0x4 DUP2 DUP2 SLOAD DUP2 LT PUSH2 0x2446 JUMPI PUSH2 0x2445 PUSH2 0x355E JUMP JUMPDEST JUMPDEST SWAP1 PUSH0 MSTORE PUSH1 0x20 PUSH0 KECCAK256 SWAP1 PUSH1 0xD MUL ADD PUSH1 0x9 ADD SLOAD SWAP2 POP POP SWAP2 SWAP1 POP JUMP JUMPDEST PUSH0 PUSH1 0x3 SLOAD DUP3 GT ISZERO PUSH2 0x246D JUMPI PUSH0 DUP1 REVERT JUMPDEST PUSH0 DUP1 SLOAD SWAP1 PUSH2 0x100 EXP SWAP1 DIV PUSH20 0xFFFFFFFFFFFFFFFFFFFFFFFFFFFFFFFFFFFFFFFF AND SWAP1 POP SWAP2 SWAP1 POP JUMP JUMPDEST PUSH0 PUSH1 0x3 SLOAD DUP3 GT ISZERO PUSH2 0x24A3 JUMPI PUSH0 DUP1 REVERT JUMPDEST PUSH0 DUP3 GT PUSH2 0x24AE JUMPI PUSH0 DUP1 REVERT JUMPDEST PUSH0 PUSH1 0x1 DUP4 PUSH2 0x24BC SWAP2 SWAP1 PUSH2 0x34C3 JUMP JUMPDEST SWAP1 POP PUSH0 PUSH1 0x4 DUP3 DUP2 SLOAD DUP2 LT PUSH2 0x24D3 JUMPI PUSH2 0x24D2 PUSH2 0x355E JUMP JUMPDEST JUMPDEST SWAP1 PUSH0 MSTORE PUSH1 0x20 PUSH0 KECCAK256 SWAP1 PUSH1 0xD MUL ADD SWAP1 POP DUP1 PUSH1 0x8 ADD PUSH0 SWAP1 SLOAD SWAP1 PUSH2 0x100 EXP SWAP1 DIV PUSH1 0xFF AND SWAP3 POP POP POP SWAP2 SWAP1 POP JUMP JUMPDEST PUSH0 DUP1 SLOAD SWAP1 PUSH2 0x100 EXP SWAP1 DIV PUSH20 0xFFFFFFFFFFFFFFFFFFFFFFFFFFFFFFFFFFFFFFFF AND DUP2 JUMP JUMPDEST PUSH0 PUSH1 0x60 PUSH1 0x3 SLOAD DUP4 GT ISZERO PUSH2 0x252F JUMPI PUSH0 DUP1 REVERT JUMPDEST PUSH0 DUP4 GT PUSH2 0x253A JUMPI PUSH0 DUP1 REVERT JUMPDEST PUSH0 PUSH1 0x1 DUP5 PUSH2 0x2548 SWAP2 SWAP1 PUSH2 0x34C3 JUMP JUMPDEST SWAP1 POP PUSH0 PUSH1 0x4 DUP3 DUP2 SLOAD DUP2 LT PUSH2 0x255F JUMPI PUSH2 0x255E PUSH2 0x355E JUMP JUMPDEST JUMPDEST SWAP1 PUSH0 MSTORE PUSH1 0x20 PUSH0 KECCAK256 SWAP1 PUSH1 0xD MUL ADD SWAP1 POP DUP1 PUSH1 0x5 ADD SLOAD DUP2 PUSH1 0x6 ADD DUP1 DUP1 SLOAD PUSH2 0x2582 SWAP1 PUSH2 0x377E JUMP JUMPDEST DUP1 PUSH1 0x1F ADD PUSH1 0x20 DUP1 SWAP2 DIV MUL PUSH1 0x20 ADD PUSH1 0x40 MLOAD SWAP1 DUP2 ADD PUSH1 0x40 MSTORE DUP1 SWAP3 SWAP2 SWAP1 DUP2 DUP2 MSTORE PUSH1 0x20 ADD DUP3 DUP1 SLOAD PUSH2 0x25AE SWAP1 PUSH2 0x377E JUMP JUMPDEST DUP1 ISZERO PUSH2 0x25F9 JUMPI DUP1 PUSH1 0x1F LT PUSH2 0x25D0 JUMPI PUSH2 0x100 DUP1 DUP4 SLOAD DIV MUL DUP4 MSTORE SWAP2 PUSH1 0x20 ADD SWAP2 PUSH2 0x25F9 JUMP JUMPDEST DUP3 ADD SWAP2 SWAP1 PUSH0 MSTORE PUSH1 0x20 PUSH0 KECCAK256 SWAP1 JUMPDEST DUP2 SLOAD DUP2 MSTORE SWAP1 PUSH1 0x1 ADD SWAP1 PUSH1 0x20 ADD DUP1 DUP4 GT PUSH2 0x25DC JUMPI DUP3 SWAP1 SUB PUSH1 0x1F AND DUP3 ADD SWAP2 JUMPDEST POP POP POP POP POP SWAP1 POP SWAP4 POP SWAP4 POP POP POP SWAP2 POP SWAP2 JUMP JUMPDEST PUSH0 DUP1 DUP5 GT PUSH2 0x2617 JUMPI PUSH0 DUP1 REVERT JUMPDEST PUSH0 PUSH1 0x1 DUP6 PUSH2 0x2625 SWAP2 SWAP1 PUSH2 0x34C3 JUMP JUMPDEST SWAP1 POP PUSH0 PUSH1 0x3 DUP2 GT ISZERO PUSH2 0x263A JUMPI PUSH2 0x2639 PUSH2 0x2E34 JUMP JUMPDEST JUMPDEST PUSH1 0x4 DUP3 DUP2 SLOAD DUP2 LT PUSH2 0x264E JUMPI PUSH2 0x264D PUSH2 0x355E JUMP JUMPDEST JUMPDEST SWAP1 PUSH0 MSTORE PUSH1 0x20 PUSH0 KECCAK256 SWAP1 PUSH1 0xD MUL ADD PUSH1 0x8 ADD PUSH0 SWAP1 SLOAD SWAP1 PUSH2 0x100 EXP SWAP1 DIV PUSH1 0xFF AND PUSH1 0x3 DUP2 GT ISZERO PUSH2 0x267C JUMPI PUSH2 0x267B PUSH2 0x2E34 JUMP JUMPDEST JUMPDEST EQ PUSH2 0x26BC JUMPI PUSH1 0x40 MLOAD PUSH32 0x8C379A000000000000000000000000000000000000000000000000000000000 DUP2 MSTORE PUSH1 0x4 ADD PUSH2 0x26B3 SWAP1 PUSH2 0x45CE JUMP JUMPDEST PUSH1 0x40 MLOAD DUP1 SWAP2 SUB SWAP1 REVERT JUMPDEST PUSH1 0x4 DUP2 DUP2 SLOAD DUP2 LT PUSH2 0x26D0 JUMPI PUSH2 0x26CF PUSH2 0x355E JUMP JUMPDEST JUMPDEST SWAP1 PUSH0 MSTORE PUSH1 0x20 PUSH0 KECCAK256 SWAP1 PUSH1 0xD MUL ADD PUSH1 0x7 ADD SLOAD TIMESTAMP LT PUSH2 0x2721 JUMPI PUSH1 0x40 MLOAD PUSH32 0x8C379A000000000000000000000000000000000000000000000000000000000 DUP2 MSTORE PUSH1 0x4 ADD PUSH2 0x2718 SWAP1 PUSH2 0x4636 JUMP JUMPDEST PUSH1 0x40 MLOAD DUP1 SWAP2 SUB SWAP1 REVERT JUMPDEST PUSH1 0x1E DUP5 GT ISZERO PUSH2 0x2765 JUMPI PUSH1 0x40 MLOAD PUSH32 0x8C379A000000000000000000000000000000000000000000000000000000000 DUP2 MSTORE PUSH1 0x4 ADD PUSH2 0x275C SWAP1 PUSH2 0x46C4 JUMP JUMPDEST PUSH1 0x40 MLOAD DUP1 SWAP2 SUB SWAP1 REVERT JUMPDEST PUSH1 0x4 DUP2 DUP2 SLOAD DUP2 LT PUSH2 0x2779 JUMPI PUSH2 0x2778 PUSH2 0x355E JUMP JUMPDEST JUMPDEST SWAP1 PUSH0 MSTORE PUSH1 0x20 PUSH0 KECCAK256 SWAP1 PUSH1 0xD MUL ADD PUSH1 0x1 ADD SLOAD DUP5 PUSH1 0x4 DUP4 DUP2 SLOAD DUP2 LT PUSH2 0x279E JUMPI PUSH2 0x279D PUSH2 0x355E JUMP JUMPDEST JUMPDEST SWAP1 PUSH0 MSTORE PUSH1 0x20 PUSH0 KECCAK256 SWAP1 PUSH1 0xD MUL ADD PUSH1 0x9 ADD SLOAD PUSH2 0x27B8 SWAP2 SWAP1 PUSH2 0x3C7F JUMP JUMPDEST GT ISZERO PUSH2 0x27F9 JUMPI PUSH1 0x40 MLOAD PUSH32 0x8C379A000000000000000000000000000000000000000000000000000000000 DUP2 MSTORE PUSH1 0x4 ADD PUSH2 0x27F0 SWAP1 PUSH2 0x472C JUMP JUMPDEST PUSH1 0x40 MLOAD DUP1 SWAP2 SUB SWAP1 REVERT JUMPDEST PUSH0 PUSH1 0x4 DUP3 DUP2 SLOAD DUP2 LT PUSH2 0x280E JUMPI PUSH2 0x280D PUSH2 0x355E JUMP JUMPDEST JUMPDEST SWAP1 PUSH0 MSTORE PUSH1 0x20 PUSH0 KECCAK256 SWAP1 PUSH1 0xD MUL ADD PUSH1 0x4 ADD SLOAD DUP6 PUSH2 0x2829 SWAP2 SWAP1 PUSH2 0x37AE JUMP JUMPDEST SWAP1 POP PUSH0 DUP1 SLOAD SWAP1 PUSH2 0x100 EXP SWAP1 DIV PUSH20 0xFFFFFFFFFFFFFFFFFFFFFFFFFFFFFFFFFFFFFFFF AND PUSH20 0xFFFFFFFFFFFFFFFFFFFFFFFFFFFFFFFFFFFFFFFF AND PUSH4 0x23B872DD CALLER ADDRESS DUP5 PUSH1 0x40 MLOAD DUP5 PUSH4 0xFFFFFFFF AND PUSH1 0xE0 SHL DUP2 MSTORE PUSH1 0x4 ADD PUSH2 0x2887 SWAP4 SWAP3 SWAP2 SWAP1 PUSH2 0x474A JUMP JUMPDEST PUSH1 0x20 PUSH1 0x40 MLOAD DUP1 DUP4 SUB DUP2 PUSH0 DUP8 GAS CALL ISZERO DUP1 ISZERO PUSH2 0x28A3 JUMPI RETURNDATASIZE PUSH0 DUP1 RETURNDATACOPY RETURNDATASIZE PUSH0 REVERT JUMPDEST POP POP POP POP PUSH1 0x40 MLOAD RETURNDATASIZE PUSH1 0x1F NOT PUSH1 0x1F DUP3 ADD AND DUP3 ADD DUP1 PUSH1 0x40 MSTORE POP DUP2 ADD SWAP1 PUSH2 0x28C7 SWAP2 SWAP1 PUSH2 0x3B17 JUMP JUMPDEST POP DUP5 PUSH1 0x4 DUP4 DUP2 SLOAD DUP2 LT PUSH2 0x28DD JUMPI PUSH2 0x28DC PUSH2 0x355E JUMP JUMPDEST JUMPDEST SWAP1 PUSH0 MSTORE PUSH1 0x20 PUSH0 KECCAK256 SWAP1 PUSH1 0xD MUL ADD PUSH1 0x9 ADD PUSH0 DUP3 DUP3 SLOAD PUSH2 0x28FA SWAP2 SWAP1 PUSH2 0x3C7F JUMP JUMPDEST SWAP3 POP POP DUP2 SWAP1 SSTORE POP PUSH1 0x1 PUSH1 0x4 DUP4 DUP2 SLOAD DUP2 LT PUSH2 0x2917 JUMPI PUSH2 0x2916 PUSH2 0x355E JUMP JUMPDEST JUMPDEST SWAP1 PUSH0 MSTORE PUSH1 0x20 PUSH0 KECCAK256 SWAP1 PUSH1 0xD MUL ADD PUSH1 0xA ADD PUSH0 DUP3 DUP3 SLOAD PUSH2 0x2934 SWAP2 SWAP1 PUSH2 0x3C7F JUMP JUMPDEST SWAP3 POP POP DUP2 SWAP1 SSTORE POP PUSH1 0x5 PUSH0 DUP8 DUP2 MSTORE PUSH1 0x20 ADD SWAP1 DUP2 MSTORE PUSH1 0x20 ADD PUSH0 KECCAK256 PUSH1 0x40 MLOAD DUP1 PUSH1 0xA0 ADD PUSH1 0x40 MSTORE DUP1 CALLER PUSH20 0xFFFFFFFFFFFFFFFFFFFFFFFFFFFFFFFFFFFFFFFF AND DUP2 MSTORE PUSH1 0x20 ADD DUP8 DUP2 MSTORE PUSH1 0x20 ADD DUP7 CALLER PUSH1 0x40 MLOAD PUSH1 0x20 ADD PUSH2 0x298C SWAP3 SWAP2 SWAP1 PUSH2 0x4121 JUMP JUMPDEST PUSH1 0x40 MLOAD PUSH1 0x20 DUP2 DUP4 SUB SUB DUP2 MSTORE SWAP1 PUSH1 0x40 MSTORE DUP1 MLOAD SWAP1 PUSH1 0x20 ADD KECCAK256 DUP2 MSTORE PUSH1 0x20 ADD PUSH0 ISZERO ISZERO DUP2 MSTORE PUSH1 0x20 ADD PUSH0 ISZERO ISZERO DUP2 MSTORE POP SWAP1 DUP1 PUSH1 0x1 DUP2 SLOAD ADD DUP1 DUP3 SSTORE DUP1 SWAP2 POP POP PUSH1 0x1 SWAP1 SUB SWAP1 PUSH0 MSTORE PUSH1 0x20 PUSH0 KECCAK256 SWAP1 PUSH1 0x4 MUL ADD PUSH0 SWAP1 SWAP2 SWAP1 SWAP2 SWAP1 SWAP2 POP PUSH0 DUP3 ADD MLOAD DUP2 PUSH0 ADD PUSH0 PUSH2 0x100 EXP DUP2 SLOAD DUP2 PUSH20 0xFFFFFFFFFFFFFFFFFFFFFFFFFFFFFFFFFFFFFFFF MUL NOT AND SWAP1 DUP4 PUSH20 0xFFFFFFFFFFFFFFFFFFFFFFFFFFFFFFFFFFFFFFFF AND MUL OR SWAP1 SSTORE POP PUSH1 0x20 DUP3 ADD MLOAD DUP2 PUSH1 0x1 ADD SSTORE PUSH1 0x40 DUP3 ADD MLOAD DUP2 PUSH1 0x2 ADD SSTORE PUSH1 0x60 DUP3 ADD MLOAD DUP2 PUSH1 0x3 ADD PUSH0 PUSH2 0x100 EXP DUP2 SLOAD DUP2 PUSH1 0xFF MUL NOT AND SWAP1 DUP4 ISZERO ISZERO MUL OR SWAP1 SSTORE POP PUSH1 0x80 DUP3 ADD MLOAD DUP2 PUSH1 0x3 ADD PUSH1 0x1 PUSH2 0x100 EXP DUP2 SLOAD DUP2 PUSH1 0xFF MUL NOT AND SWAP1 DUP4 ISZERO ISZERO MUL OR SWAP1 SSTORE POP POP POP PUSH1 0x5 PUSH0 DUP8 DUP2 MSTORE PUSH1 0x20 ADD SWAP1 DUP2 MSTORE PUSH1 0x20 ADD PUSH0 KECCAK256 DUP1 SLOAD SWAP1 POP PUSH4 0xFFFFFFFF AND SWAP3 POP POP POP SWAP4 SWAP3 POP POP POP JUMP JUMPDEST PUSH0 DUP1 DUP4 GT PUSH2 0x2AA6 JUMPI PUSH0 DUP1 REVERT JUMPDEST PUSH0 PUSH1 0x1 DUP5 PUSH2 0x2AB4 SWAP2 SWAP1 PUSH2 0x34C3 JUMP JUMPDEST SWAP1 POP PUSH1 0x3 SLOAD DUP5 GT ISZERO PUSH2 0x2AC4 JUMPI PUSH0 DUP1 REVERT JUMPDEST PUSH1 0x2 PUSH1 0x3 DUP2 GT ISZERO PUSH2 0x2AD8 JUMPI PUSH2 0x2AD7 PUSH2 0x2E34 JUMP JUMPDEST JUMPDEST PUSH1 0x4 DUP3 DUP2 SLOAD DUP2 LT PUSH2 0x2AEC JUMPI PUSH2 0x2AEB PUSH2 0x355E JUMP JUMPDEST JUMPDEST SWAP1 PUSH0 MSTORE PUSH1 0x20 PUSH0 KECCAK256 SWAP1 PUSH1 0xD MUL ADD PUSH1 0x8 ADD PUSH0 SWAP1 SLOAD SWAP1 PUSH2 0x100 EXP SWAP1 DIV PUSH1 0xFF AND PUSH1 0x3 DUP2 GT ISZERO PUSH2 0x2B1A JUMPI PUSH2 0x2B19 PUSH2 0x2E34 JUMP JUMPDEST JUMPDEST EQ PUSH2 0x2B5A JUMPI PUSH1 0x40 MLOAD PUSH32 0x8C379A000000000000000000000000000000000000000000000000000000000 DUP2 MSTORE PUSH1 0x4 ADD PUSH2 0x2B51 SWAP1 PUSH2 0x41FE JUMP JUMPDEST PUSH1 0x40 MLOAD DUP1 SWAP2 SUB SWAP1 REVERT JUMPDEST PUSH0 DUP4 GT DUP1 ISZERO PUSH2 0x2B8C JUMPI POP PUSH1 0x4 DUP2 DUP2 SLOAD DUP2 LT PUSH2 0x2B78 JUMPI PUSH2 0x2B77 PUSH2 0x355E JUMP JUMPDEST JUMPDEST SWAP1 PUSH0 MSTORE PUSH1 0x20 PUSH0 KECCAK256 SWAP1 PUSH1 0xD MUL ADD PUSH1 0x2 ADD SLOAD DUP4 GT ISZERO JUMPDEST PUSH2 0x2B94 JUMPI PUSH0 DUP1 REVERT JUMPDEST PUSH0 PUSH1 0x1 DUP5 PUSH2 0x2BA2 SWAP2 SWAP1 PUSH2 0x34C3 JUMP JUMPDEST SWAP1 POP PUSH1 0x4 DUP3 DUP2 SLOAD DUP2 LT PUSH2 0x2BB8 JUMPI PUSH2 0x2BB7 PUSH2 0x355E JUMP JUMPDEST JUMPDEST SWAP1 PUSH0 MSTORE PUSH1 0x20 PUSH0 KECCAK256 SWAP1 PUSH1 0xD MUL ADD PUSH1 0xC ADD DUP2 DUP2 SLOAD DUP2 LT PUSH2 0x2BD9 JUMPI PUSH2 0x2BD8 PUSH2 0x355E JUMP JUMPDEST JUMPDEST SWAP1 PUSH0 MSTORE PUSH1 0x20 PUSH0 KECCAK256 ADD SLOAD SWAP3 POP POP POP SWAP3 SWAP2 POP POP JUMP JUMPDEST PUSH0 DUP1 PUSH0 SWAP1 POP JUMPDEST DUP4 MLOAD DUP2 LT ISZERO PUSH2 0x2C33 JUMPI DUP3 DUP5 DUP3 DUP2 MLOAD DUP2 LT PUSH2 0x2C0F JUMPI PUSH2 0x2C0E PUSH2 0x355E JUMP JUMPDEST JUMPDEST PUSH1 0x20 MUL PUSH1 0x20 ADD ADD MLOAD SUB PUSH2 0x2C26 JUMPI PUSH1 0x1 SWAP2 POP POP PUSH2 0x2C38 JUMP JUMPDEST DUP1 DUP1 PUSH1 0x1 ADD SWAP2 POP POP PUSH2 0x2BF2 JUMP JUMPDEST POP PUSH0 SWAP1 POP JUMPDEST SWAP3 SWAP2 POP POP JUMP JUMPDEST DUP3 DUP1 SLOAD DUP3 DUP3 SSTORE SWAP1 PUSH0 MSTORE PUSH1 0x20 PUSH0 KECCAK256 SWAP1 DUP2 ADD SWAP3 DUP3 ISZERO PUSH2 0x2C78 JUMPI SWAP2 PUSH1 0x20 MUL DUP3 ADD JUMPDEST DUP3 DUP2 GT ISZERO PUSH2 0x2C77 JUMPI DUP3 MLOAD DUP3 SSTORE SWAP2 PUSH1 0x20 ADD SWAP2 SWAP1 PUSH1 0x1 ADD SWAP1 PUSH2 0x2C5C JUMP JUMPDEST JUMPDEST POP SWAP1 POP PUSH2 0x2C85 SWAP2 SWAP1 PUSH2 0x2C89 JUMP JUMPDEST POP SWAP1 JUMP JUMPDEST JUMPDEST DUP1 DUP3 GT ISZERO PUSH2 0x2CA0 JUMPI PUSH0 DUP2 PUSH0 SWAP1 SSTORE POP PUSH1 0x1 ADD PUSH2 0x2C8A JUMP JUMPDEST POP SWAP1 JUMP JUMPDEST PUSH0 DUP2 SWAP1 POP SWAP2 SWAP1 POP JUMP JUMPDEST PUSH2 0x2CB6 DUP2 PUSH2 0x2CA4 JUMP JUMPDEST DUP3 MSTORE POP POP JUMP JUMPDEST PUSH0 PUSH1 0x20 DUP3 ADD SWAP1 POP PUSH2 0x2CCF PUSH0 DUP4 ADD DUP5 PUSH2 0x2CAD JUMP JUMPDEST SWAP3 SWAP2 POP POP JUMP JUMPDEST PUSH0 PUSH1 0x40 MLOAD SWAP1 POP SWAP1 JUMP JUMPDEST PUSH0 DUP1 REVERT JUMPDEST PUSH0 DUP1 REVERT JUMPDEST PUSH2 0x2CEF DUP2 PUSH2 0x2CA4 JUMP JUMPDEST DUP2 EQ PUSH2 0x2CF9 JUMPI PUSH0 DUP1 REVERT JUMPDEST POP JUMP JUMPDEST PUSH0 DUP2 CALLDATALOAD SWAP1 POP PUSH2 0x2D0A DUP2 PUSH2 0x2CE6 JUMP JUMPDEST SWAP3 SWAP2 POP POP JUMP JUMPDEST PUSH0 DUP1 PUSH1 0x40 DUP4 DUP6 SUB SLT ISZERO PUSH2 0x2D26 JUMPI PUSH2 0x2D25 PUSH2 0x2CDE JUMP JUMPDEST JUMPDEST PUSH0 PUSH2 0x2D33 DUP6 DUP3 DUP7 ADD PUSH2 0x2CFC JUMP JUMPDEST SWAP3 POP POP PUSH1 0x20 PUSH2 0x2D44 DUP6 DUP3 DUP7 ADD PUSH2 0x2CFC JUMP JUMPDEST SWAP2 POP POP SWAP3 POP SWAP3 SWAP1 POP JUMP JUMPDEST PUSH0 DUP2 ISZERO ISZERO SWAP1 POP SWAP2 SWAP1 POP JUMP JUMPDEST PUSH2 0x2D62 DUP2 PUSH2 0x2D4E JUMP JUMPDEST DUP3 MSTORE POP POP JUMP JUMPDEST PUSH0 PUSH1 0x20 DUP3 ADD SWAP1 POP PUSH2 0x2D7B PUSH0 DUP4 ADD DUP5 PUSH2 0x2D59 JUMP JUMPDEST SWAP3 SWAP2 POP POP JUMP JUMPDEST PUSH0 PUSH1 0x20 DUP3 DUP5 SUB SLT ISZERO PUSH2 0x2D96 JUMPI PUSH2 0x2D95 PUSH2 0x2CDE JUMP JUMPDEST JUMPDEST PUSH0 PUSH2 0x2DA3 DUP5 DUP3 DUP6 ADD PUSH2 0x2CFC JUMP JUMPDEST SWAP2 POP POP SWAP3 SWAP2 POP POP JUMP JUMPDEST PUSH0 DUP2 SWAP1 POP SWAP2 SWAP1 POP JUMP JUMPDEST PUSH2 0x2DBE DUP2 PUSH2 0x2DAC JUMP JUMPDEST DUP3 MSTORE POP POP JUMP JUMPDEST PUSH0 DUP2 MLOAD SWAP1 POP SWAP2 SWAP1 POP JUMP JUMPDEST PUSH0 DUP3 DUP3 MSTORE PUSH1 0x20 DUP3 ADD SWAP1 POP SWAP3 SWAP2 POP POP JUMP JUMPDEST DUP3 DUP2 DUP4 MCOPY PUSH0 DUP4 DUP4 ADD MSTORE POP POP POP JUMP JUMPDEST PUSH0 PUSH1 0x1F NOT PUSH1 0x1F DUP4 ADD AND SWAP1 POP SWAP2 SWAP1 POP JUMP JUMPDEST PUSH0 PUSH2 0x2E06 DUP3 PUSH2 0x2DC4 JUMP JUMPDEST PUSH2 0x2E10 DUP2 DUP6 PUSH2 0x2DCE JUMP JUMPDEST SWAP4 POP PUSH2 0x2E20 DUP2 DUP6 PUSH1 0x20 DUP7 ADD PUSH2 0x2DDE JUMP JUMPDEST PUSH2 0x2E29 DUP2 PUSH2 0x2DEC JUMP JUMPDEST DUP5 ADD SWAP2 POP POP SWAP3 SWAP2 POP POP JUMP JUMPDEST PUSH32 0x4E487B7100000000000000000000000000000000000000000000000000000000 PUSH0 MSTORE PUSH1 0x21 PUSH1 0x4 MSTORE PUSH1 0x24 PUSH0 REVERT JUMPDEST PUSH1 0x4 DUP2 LT PUSH2 0x2E72 JUMPI PUSH2 0x2E71 PUSH2 0x2E34 JUMP JUMPDEST JUMPDEST POP JUMP JUMPDEST PUSH0 DUP2 SWAP1 POP PUSH2 0x2E82 DUP3 PUSH2 0x2E61 JUMP JUMPDEST SWAP2 SWAP1 POP JUMP JUMPDEST PUSH0 PUSH2 0x2E91 DUP3 PUSH2 0x2E75 JUMP JUMPDEST SWAP1 POP SWAP2 SWAP1 POP JUMP JUMPDEST PUSH2 0x2EA1 DUP2 PUSH2 0x2E87 JUMP JUMPDEST DUP3 MSTORE POP POP JUMP JUMPDEST PUSH0 PUSH2 0x180 DUP3 ADD SWAP1 POP PUSH2 0x2EBB PUSH0 DUP4 ADD DUP16 PUSH2 0x2CAD JUMP JUMPDEST PUSH2 0x2EC8 PUSH1 0x20 DUP4 ADD DUP15 PUSH2 0x2CAD JUMP JUMPDEST PUSH2 0x2ED5 PUSH1 0x40 DUP4 ADD DUP14 PUSH2 0x2CAD JUMP JUMPDEST PUSH2 0x2EE2 PUSH1 0x60 DUP4 ADD DUP13 PUSH2 0x2CAD JUMP JUMPDEST PUSH2 0x2EEF PUSH1 0x80 DUP4 ADD DUP12 PUSH2 0x2CAD JUMP JUMPDEST PUSH2 0x2EFC PUSH1 0xA0 DUP4 ADD DUP11 PUSH2 0x2DB5 JUMP JUMPDEST DUP2 DUP2 SUB PUSH1 0xC0 DUP4 ADD MSTORE PUSH2 0x2F0E DUP2 DUP10 PUSH2 0x2DFC JUMP JUMPDEST SWAP1 POP PUSH2 0x2F1D PUSH1 0xE0 DUP4 ADD DUP9 PUSH2 0x2CAD JUMP JUMPDEST PUSH2 0x2F2B PUSH2 0x100 DUP4 ADD DUP8 PUSH2 0x2E98 JUMP JUMPDEST PUSH2 0x2F39 PUSH2 0x120 DUP4 ADD DUP7 PUSH2 0x2CAD JUMP JUMPDEST PUSH2 0x2F47 PUSH2 0x140 DUP4 ADD DUP6 PUSH2 0x2CAD JUMP JUMPDEST PUSH2 0x2F55 PUSH2 0x160 DUP4 ADD DUP5 PUSH2 0x2CAD JUMP JUMPDEST SWAP14 SWAP13 POP POP POP POP POP POP POP POP POP POP POP POP POP JUMP JUMPDEST PUSH0 PUSH20 0xFFFFFFFFFFFFFFFFFFFFFFFFFFFFFFFFFFFFFFFF DUP3 AND SWAP1 POP SWAP2 SWAP1 POP JUMP JUMPDEST PUSH0 PUSH2 0x2F8F DUP3 PUSH2 0x2F66 JUMP JUMPDEST SWAP1 POP SWAP2 SWAP1 POP JUMP JUMPDEST PUSH2 0x2F9F DUP2 PUSH2 0x2F85 JUMP JUMPDEST DUP3 MSTORE POP POP JUMP JUMPDEST PUSH0 PUSH1 0xA0 DUP3 ADD SWAP1 POP PUSH2 0x2FB8 PUSH0 DUP4 ADD DUP9 PUSH2 0x2F96 JUMP JUMPDEST PUSH2 0x2FC5 PUSH1 0x20 DUP4 ADD DUP8 PUSH2 0x2CAD JUMP JUMPDEST PUSH2 0x2FD2 PUSH1 0x40 DUP4 ADD DUP7 PUSH2 0x2DB5 JUMP JUMPDEST PUSH2 0x2FDF PUSH1 0x60 DUP4 ADD DUP6 PUSH2 0x2D59 JUMP JUMPDEST PUSH2 0x2FEC PUSH1 0x80 DUP4 ADD DUP5 PUSH2 0x2D59 JUMP JUMPDEST SWAP7 SWAP6 POP POP POP POP POP POP JUMP JUMPDEST PUSH2 0x2FFF DUP2 PUSH2 0x2F85 JUMP JUMPDEST DUP2 EQ PUSH2 0x3009 JUMPI PUSH0 DUP1 REVERT JUMPDEST POP JUMP JUMPDEST PUSH0 DUP2 CALLDATALOAD SWAP1 POP PUSH2 0x301A DUP2 PUSH2 0x2FF6 JUMP JUMPDEST SWAP3 SWAP2 POP POP JUMP JUMPDEST PUSH0 DUP1 PUSH0 PUSH1 0x60 DUP5 DUP7 SUB SLT ISZERO PUSH2 0x3037 JUMPI PUSH2 0x3036 PUSH2 0x2CDE JUMP JUMPDEST JUMPDEST PUSH0 PUSH2 0x3044 DUP7 DUP3 DUP8 ADD PUSH2 0x300C JUMP JUMPDEST SWAP4 POP POP PUSH1 0x20 PUSH2 0x3055 DUP7 DUP3 DUP8 ADD PUSH2 0x2CFC JUMP JUMPDEST SWAP3 POP POP PUSH1 0x40 PUSH2 0x3066 DUP7 DUP3 DUP8 ADD PUSH2 0x2CFC JUMP JUMPDEST SWAP2 POP POP SWAP3 POP SWAP3 POP SWAP3 JUMP JUMPDEST PUSH0 PUSH1 0x20 DUP3 DUP5 SUB SLT ISZERO PUSH2 0x3085 JUMPI PUSH2 0x3084 PUSH2 0x2CDE JUMP JUMPDEST JUMPDEST PUSH0 PUSH2 0x3092 DUP5 DUP3 DUP6 ADD PUSH2 0x300C JUMP JUMPDEST SWAP2 POP POP SWAP3 SWAP2 POP POP JUMP JUMPDEST PUSH0 PUSH1 0xA0 DUP3 ADD SWAP1 POP PUSH2 0x30AE PUSH0 DUP4 ADD DUP9 PUSH2 0x2CAD JUMP JUMPDEST PUSH2 0x30BB PUSH1 0x20 DUP4 ADD DUP8 PUSH2 0x2CAD JUMP JUMPDEST PUSH2 0x30C8 PUSH1 0x40 DUP4 ADD DUP7 PUSH2 0x2CAD JUMP JUMPDEST PUSH2 0x30D5 PUSH1 0x60 DUP4 ADD DUP6 PUSH2 0x2CAD JUMP JUMPDEST PUSH2 0x30E2 PUSH1 0x80 DUP4 ADD DUP5 PUSH2 0x2CAD JUMP JUMPDEST SWAP7 SWAP6 POP POP POP POP POP POP JUMP JUMPDEST PUSH2 0x30F5 DUP2 PUSH2 0x2DAC JUMP JUMPDEST DUP2 EQ PUSH2 0x30FF JUMPI PUSH0 DUP1 REVERT JUMPDEST POP JUMP JUMPDEST PUSH0 DUP2 CALLDATALOAD SWAP1 POP PUSH2 0x3110 DUP2 PUSH2 0x30EC JUMP JUMPDEST SWAP3 SWAP2 POP POP JUMP JUMPDEST PUSH0 DUP1 REVERT JUMPDEST PUSH0 DUP1 REVERT JUMPDEST PUSH32 0x4E487B7100000000000000000000000000000000000000000000000000000000 PUSH0 MSTORE PUSH1 0x41 PUSH1 0x4 MSTORE PUSH1 0x24 PUSH0 REVERT JUMPDEST PUSH2 0x3154 DUP3 PUSH2 0x2DEC JUMP JUMPDEST DUP2 ADD DUP2 DUP2 LT PUSH8 0xFFFFFFFFFFFFFFFF DUP3 GT OR ISZERO PUSH2 0x3173 JUMPI PUSH2 0x3172 PUSH2 0x311E JUMP JUMPDEST JUMPDEST DUP1 PUSH1 0x40 MSTORE POP POP POP JUMP JUMPDEST PUSH0 PUSH2 0x3185 PUSH2 0x2CD5 JUMP JUMPDEST SWAP1 POP PUSH2 0x3191 DUP3 DUP3 PUSH2 0x314B JUMP JUMPDEST SWAP2 SWAP1 POP JUMP JUMPDEST PUSH0 PUSH8 0xFFFFFFFFFFFFFFFF DUP3 GT ISZERO PUSH2 0x31B0 JUMPI PUSH2 0x31AF PUSH2 0x311E JUMP JUMPDEST JUMPDEST PUSH2 0x31B9 DUP3 PUSH2 0x2DEC JUMP JUMPDEST SWAP1 POP PUSH1 0x20 DUP2 ADD SWAP1 POP SWAP2 SWAP1 POP JUMP JUMPDEST DUP3 DUP2 DUP4 CALLDATACOPY PUSH0 DUP4 DUP4 ADD MSTORE POP POP POP JUMP JUMPDEST PUSH0 PUSH2 0x31E6 PUSH2 0x31E1 DUP5 PUSH2 0x3196 JUMP JUMPDEST PUSH2 0x317C JUMP JUMPDEST SWAP1 POP DUP3 DUP2 MSTORE PUSH1 0x20 DUP2 ADD DUP5 DUP5 DUP5 ADD GT ISZERO PUSH2 0x3202 JUMPI PUSH2 0x3201 PUSH2 0x311A JUMP JUMPDEST JUMPDEST PUSH2 0x320D DUP5 DUP3 DUP6 PUSH2 0x31C6 JUMP JUMPDEST POP SWAP4 SWAP3 POP POP POP JUMP JUMPDEST PUSH0 DUP3 PUSH1 0x1F DUP4 ADD SLT PUSH2 0x3229 JUMPI PUSH2 0x3228 PUSH2 0x3116 JUMP JUMPDEST JUMPDEST DUP2 CALLDATALOAD PUSH2 0x3239 DUP5 DUP3 PUSH1 0x20 DUP7 ADD PUSH2 0x31D4 JUMP JUMPDEST SWAP2 POP POP SWAP3 SWAP2 POP POP JUMP JUMPDEST PUSH0 DUP1 PUSH0 DUP1 PUSH0 DUP1 PUSH0 PUSH1 0xE0 DUP9 DUP11 SUB SLT ISZERO PUSH2 0x325D JUMPI PUSH2 0x325C PUSH2 0x2CDE JUMP JUMPDEST JUMPDEST PUSH0 PUSH2 0x326A DUP11 DUP3 DUP12 ADD PUSH2 0x2CFC JUMP JUMPDEST SWAP8 POP POP PUSH1 0x20 PUSH2 0x327B DUP11 DUP3 DUP12 ADD PUSH2 0x2CFC JUMP JUMPDEST SWAP7 POP POP PUSH1 0x40 PUSH2 0x328C DUP11 DUP3 DUP12 ADD PUSH2 0x2CFC JUMP JUMPDEST SWAP6 POP POP PUSH1 0x60 PUSH2 0x329D DUP11 DUP3 DUP12 ADD PUSH2 0x2CFC JUMP JUMPDEST SWAP5 POP POP PUSH1 0x80 PUSH2 0x32AE DUP11 DUP3 DUP12 ADD PUSH2 0x2CFC JUMP JUMPDEST SWAP4 POP POP PUSH1 0xA0 PUSH2 0x32BF DUP11 DUP3 DUP12 ADD PUSH2 0x3102 JUMP JUMPDEST SWAP3 POP POP PUSH1 0xC0 DUP9 ADD CALLDATALOAD PUSH8 0xFFFFFFFFFFFFFFFF DUP2 GT ISZERO PUSH2 0x32E0 JUMPI PUSH2 0x32DF PUSH2 0x2CE2 JUMP JUMPDEST JUMPDEST PUSH2 0x32EC DUP11 DUP3 DUP12 ADD PUSH2 0x3215 JUMP JUMPDEST SWAP2 POP POP SWAP3 SWAP6 SWAP9 SWAP2 SWAP5 SWAP8 POP SWAP3 SWAP6 POP JUMP JUMPDEST PUSH0 PUSH1 0x40 DUP3 ADD SWAP1 POP PUSH2 0x330E PUSH0 DUP4 ADD DUP6 PUSH2 0x2CAD JUMP JUMPDEST PUSH2 0x331B PUSH1 0x20 DUP4 ADD DUP5 PUSH2 0x2CAD JUMP JUMPDEST SWAP4 SWAP3 POP POP POP JUMP JUMPDEST PUSH0 PUSH1 0x20 DUP3 ADD SWAP1 POP PUSH2 0x3335 PUSH0 DUP4 ADD DUP5 PUSH2 0x2F96 JUMP JUMPDEST SWAP3 SWAP2 POP POP JUMP JUMPDEST PUSH0 DUP1 PUSH0 PUSH1 0x60 DUP5 DUP7 SUB SLT ISZERO PUSH2 0x3352 JUMPI PUSH2 0x3351 PUSH2 0x2CDE JUMP JUMPDEST JUMPDEST PUSH0 PUSH2 0x335F DUP7 DUP3 DUP8 ADD PUSH2 0x2CFC JUMP JUMPDEST SWAP4 POP POP PUSH1 0x20 PUSH2 0x3370 DUP7 DUP3 DUP8 ADD PUSH2 0x2CFC JUMP JUMPDEST SWAP3 POP POP PUSH1 0x40 PUSH2 0x3381 DUP7 DUP3 DUP8 ADD PUSH2 0x2CFC JUMP JUMPDEST SWAP2 POP POP SWAP3 POP SWAP3 POP SWAP3 JUMP JUMPDEST PUSH0 PUSH1 0x20 DUP3 ADD SWAP1 POP PUSH2 0x339E PUSH0 DUP4 ADD DUP5 PUSH2 0x2E98 JUMP JUMPDEST SWAP3 SWAP2 POP POP JUMP JUMPDEST PUSH0 DUP2 SWAP1 POP SWAP2 SWAP1 POP JUMP JUMPDEST PUSH0 PUSH2 0x33C7 PUSH2 0x33C2 PUSH2 0x33BD DUP5 PUSH2 0x2F66 JUMP JUMPDEST PUSH2 0x33A4 JUMP JUMPDEST PUSH2 0x2F66 JUMP JUMPDEST SWAP1 POP SWAP2 SWAP1 POP JUMP JUMPDEST PUSH0 PUSH2 0x33D8 DUP3 PUSH2 0x33AD JUMP JUMPDEST SWAP1 POP SWAP2 SWAP1 POP JUMP JUMPDEST PUSH0 PUSH2 0x33E9 DUP3 PUSH2 0x33CE JUMP JUMPDEST SWAP1 POP SWAP2 SWAP1 POP JUMP JUMPDEST PUSH2 0x33F9 DUP2 PUSH2 0x33DF JUMP JUMPDEST DUP3 MSTORE POP POP JUMP JUMPDEST PUSH0 PUSH1 0x20 DUP3 ADD SWAP1 POP PUSH2 0x3412 PUSH0 DUP4 ADD DUP5 PUSH2 0x33F0 JUMP JUMPDEST SWAP3 SWAP2 POP POP JUMP JUMPDEST PUSH0 PUSH1 0x40 DUP3 ADD SWAP1 POP PUSH2 0x342B PUSH0 DUP4 ADD DUP6 PUSH2 0x2DB5 JUMP JUMPDEST DUP2 DUP2 SUB PUSH1 0x20 DUP4 ADD MSTORE PUSH2 0x343D DUP2 DUP5 PUSH2 0x2DFC JUMP JUMPDEST SWAP1 POP SWAP4 SWAP3 POP POP POP JUMP JUMPDEST PUSH0 DUP1 PUSH0 PUSH1 0x60 DUP5 DUP7 SUB SLT ISZERO PUSH2 0x345D JUMPI PUSH2 0x345C PUSH2 0x2CDE JUMP JUMPDEST JUMPDEST PUSH0 PUSH2 0x346A DUP7 DUP3 DUP8 ADD PUSH2 0x2CFC JUMP JUMPDEST SWAP4 POP POP PUSH1 0x20 PUSH2 0x347B DUP7 DUP3 DUP8 ADD PUSH2 0x2CFC JUMP JUMPDEST SWAP3 POP POP PUSH1 0x40 PUSH2 0x348C DUP7 DUP3 DUP8 ADD PUSH2 0x3102 JUMP JUMPDEST SWAP2 POP POP SWAP3 POP SWAP3 POP SWAP3 JUMP JUMPDEST PUSH32 0x4E487B7100000000000000000000000000000000000000000000000000000000 PUSH0 MSTORE PUSH1 0x11 PUSH1 0x4 MSTORE PUSH1 0x24 PUSH0 REVERT JUMPDEST PUSH0 PUSH2 0x34CD DUP3 PUSH2 0x2CA4 JUMP JUMPDEST SWAP2 POP PUSH2 0x34D8 DUP4 PUSH2 0x2CA4 JUMP JUMPDEST SWAP3 POP DUP3 DUP3 SUB SWAP1 POP DUP2 DUP2 GT ISZERO PUSH2 0x34F0 JUMPI PUSH2 0x34EF PUSH2 0x3496 JUMP JUMPDEST JUMPDEST SWAP3 SWAP2 POP POP JUMP JUMPDEST PUSH32 0x496E76616C6964206C6F7474657279206E756D62657200000000000000000000 PUSH0 DUP3 ADD MSTORE POP JUMP JUMPDEST PUSH0 PUSH2 0x352A PUSH1 0x16 DUP4 PUSH2 0x2DCE JUMP JUMPDEST SWAP2 POP PUSH2 0x3535 DUP3 PUSH2 0x34F6 JUMP JUMPDEST PUSH1 0x20 DUP3 ADD SWAP1 POP SWAP2 SWAP1 POP JUMP JUMPDEST PUSH0 PUSH1 0x20 DUP3 ADD SWAP1 POP DUP2 DUP2 SUB PUSH0 DUP4 ADD MSTORE PUSH2 0x3557 DUP2 PUSH2 0x351E JUMP JUMPDEST SWAP1 POP SWAP2 SWAP1 POP JUMP JUMPDEST PUSH32 0x4E487B7100000000000000000000000000000000000000000000000000000000 PUSH0 MSTORE PUSH1 0x32 PUSH1 0x4 MSTORE PUSH1 0x24 PUSH0 REVERT JUMPDEST PUSH32 0x4C6F7474657279206973206E6F7420434F4D504C455445442073746174650000 PUSH0 DUP3 ADD MSTORE POP JUMP JUMPDEST PUSH0 PUSH2 0x35BF PUSH1 0x1E DUP4 PUSH2 0x2DCE JUMP JUMPDEST SWAP2 POP PUSH2 0x35CA DUP3 PUSH2 0x358B JUMP JUMPDEST PUSH1 0x20 DUP3 ADD SWAP1 POP SWAP2 SWAP1 POP JUMP JUMPDEST PUSH0 PUSH1 0x20 DUP3 ADD SWAP1 POP DUP2 DUP2 SUB PUSH0 DUP4 ADD MSTORE PUSH2 0x35EC DUP2 PUSH2 0x35B3 JUMP JUMPDEST SWAP1 POP SWAP2 SWAP1 POP JUMP JUMPDEST PUSH32 0x496E76616C6964207469636B6574206E756D6265720000000000000000000000 PUSH0 DUP3 ADD MSTORE POP JUMP JUMPDEST PUSH0 PUSH2 0x3627 PUSH1 0x15 DUP4 PUSH2 0x2DCE JUMP JUMPDEST SWAP2 POP PUSH2 0x3632 DUP3 PUSH2 0x35F3 JUMP JUMPDEST PUSH1 0x20 DUP3 ADD SWAP1 POP SWAP2 SWAP1 POP JUMP JUMPDEST PUSH0 PUSH1 0x20 DUP3 ADD SWAP1 POP DUP2 DUP2 SUB PUSH0 DUP4 ADD MSTORE PUSH2 0x3654 DUP2 PUSH2 0x361B JUMP JUMPDEST SWAP1 POP SWAP2 SWAP1 POP JUMP JUMPDEST PUSH32 0x596F7520646F206E6F74206F776E2074686973207469636B6574000000000000 PUSH0 DUP3 ADD MSTORE POP JUMP JUMPDEST PUSH0 PUSH2 0x368F PUSH1 0x1A DUP4 PUSH2 0x2DCE JUMP JUMPDEST SWAP2 POP PUSH2 0x369A DUP3 PUSH2 0x365B JUMP JUMPDEST PUSH1 0x20 DUP3 ADD SWAP1 POP SWAP2 SWAP1 POP JUMP JUMPDEST PUSH0 PUSH1 0x20 DUP3 ADD SWAP1 POP DUP2 DUP2 SUB PUSH0 DUP4 ADD MSTORE PUSH2 0x36BC DUP2 PUSH2 0x3683 JUMP JUMPDEST SWAP1 POP SWAP2 SWAP1 POP JUMP JUMPDEST PUSH32 0x596F7520646964206E6F74207375626D697474656420796F75722072616E646F PUSH0 DUP3 ADD MSTORE PUSH32 0x6D206E756D6265722E2000000000000000000000000000000000000000000000 PUSH1 0x20 DUP3 ADD MSTORE POP JUMP JUMPDEST PUSH0 PUSH2 0x371D PUSH1 0x2A DUP4 PUSH2 0x2DCE JUMP JUMPDEST SWAP2 POP PUSH2 0x3728 DUP3 PUSH2 0x36C3 JUMP JUMPDEST PUSH1 0x40 DUP3 ADD SWAP1 POP SWAP2 SWAP1 POP JUMP JUMPDEST PUSH0 PUSH1 0x20 DUP3 ADD SWAP1 POP DUP2 DUP2 SUB PUSH0 DUP4 ADD MSTORE PUSH2 0x374A DUP2 PUSH2 0x3711 JUMP JUMPDEST SWAP1 POP SWAP2 SWAP1 POP JUMP JUMPDEST PUSH32 0x4E487B7100000000000000000000000000000000000000000000000000000000 PUSH0 MSTORE PUSH1 0x22 PUSH1 0x4 MSTORE PUSH1 0x24 PUSH0 REVERT JUMPDEST PUSH0 PUSH1 0x2 DUP3 DIV SWAP1 POP PUSH1 0x1 DUP3 AND DUP1 PUSH2 0x3795 JUMPI PUSH1 0x7F DUP3 AND SWAP2 POP JUMPDEST PUSH1 0x20 DUP3 LT DUP2 SUB PUSH2 0x37A8 JUMPI PUSH2 0x37A7 PUSH2 0x3751 JUMP JUMPDEST JUMPDEST POP SWAP2 SWAP1 POP JUMP JUMPDEST PUSH0 PUSH2 0x37B8 DUP3 PUSH2 0x2CA4 JUMP JUMPDEST SWAP2 POP PUSH2 0x37C3 DUP4 PUSH2 0x2CA4 JUMP JUMPDEST SWAP3 POP DUP3 DUP3 MUL PUSH2 0x37D1 DUP2 PUSH2 0x2CA4 JUMP JUMPDEST SWAP2 POP DUP3 DUP3 DIV DUP5 EQ DUP4 ISZERO OR PUSH2 0x37E8 JUMPI PUSH2 0x37E7 PUSH2 0x3496 JUMP JUMPDEST JUMPDEST POP SWAP3 SWAP2 POP POP JUMP JUMPDEST PUSH32 0x4E487B7100000000000000000000000000000000000000000000000000000000 PUSH0 MSTORE PUSH1 0x12 PUSH1 0x4 MSTORE PUSH1 0x24 PUSH0 REVERT JUMPDEST PUSH0 PUSH2 0x3826 DUP3 PUSH2 0x2CA4 JUMP JUMPDEST SWAP2 POP PUSH2 0x3831 DUP4 PUSH2 0x2CA4 JUMP JUMPDEST SWAP3 POP DUP3 PUSH2 0x3841 JUMPI PUSH2 0x3840 PUSH2 0x37EF JUMP JUMPDEST JUMPDEST DUP3 DUP3 DIV SWAP1 POP SWAP3 SWAP2 POP POP JUMP JUMPDEST PUSH32 0x546865206164647265737320776173206E6F74207375626D6974746564206974 PUSH0 DUP3 ADD MSTORE PUSH32 0x732072616E646F6D206E756D6265722E20000000000000000000000000000000 PUSH1 0x20 DUP3 ADD MSTORE POP JUMP JUMPDEST PUSH0 PUSH2 0x38A6 PUSH1 0x31 DUP4 PUSH2 0x2DCE JUMP JUMPDEST SWAP2 POP PUSH2 0x38B1 DUP3 PUSH2 0x384C JUMP JUMPDEST PUSH1 0x40 DUP3 ADD SWAP1 POP SWAP2 SWAP1 POP JUMP JUMPDEST PUSH0 PUSH1 0x20 DUP3 ADD SWAP1 POP DUP2 DUP2 SUB PUSH0 DUP4 ADD MSTORE PUSH2 0x38D3 DUP2 PUSH2 0x389A JUMP JUMPDEST SWAP1 POP SWAP2 SWAP1 POP JUMP JUMPDEST PUSH32 0x526566756E6473206E6F7420617661696C61626C6520666F722074686973206C PUSH0 DUP3 ADD MSTORE PUSH32 0x6F74746572790000000000000000000000000000000000000000000000000000 PUSH1 0x20 DUP3 ADD MSTORE POP JUMP JUMPDEST PUSH0 PUSH2 0x3934 PUSH1 0x26 DUP4 PUSH2 0x2DCE JUMP JUMPDEST SWAP2 POP PUSH2 0x393F DUP3 PUSH2 0x38DA JUMP JUMPDEST PUSH1 0x40 DUP3 ADD SWAP1 POP SWAP2 SWAP1 POP JUMP JUMPDEST PUSH0 PUSH1 0x20 DUP3 ADD SWAP1 POP DUP2 DUP2 SUB PUSH0 DUP4 ADD MSTORE PUSH2 0x3961 DUP2 PUSH2 0x3928 JUMP JUMPDEST SWAP1 POP SWAP2 SWAP1 POP JUMP JUMPDEST PUSH32 0x4E6F74206F776E65720000000000000000000000000000000000000000000000 PUSH0 DUP3 ADD MSTORE POP JUMP JUMPDEST PUSH0 PUSH2 0x399C PUSH1 0x9 DUP4 PUSH2 0x2DCE JUMP JUMPDEST SWAP2 POP PUSH2 0x39A7 DUP3 PUSH2 0x3968 JUMP JUMPDEST PUSH1 0x20 DUP3 ADD SWAP1 POP SWAP2 SWAP1 POP JUMP JUMPDEST PUSH0 PUSH1 0x20 DUP3 ADD SWAP1 POP DUP2 DUP2 SUB PUSH0 DUP4 ADD MSTORE PUSH2 0x39C9 DUP2 PUSH2 0x3990 JUMP JUMPDEST SWAP1 POP SWAP2 SWAP1 POP JUMP JUMPDEST PUSH32 0x596F7520646964206E6F742072657665616C656420796F75722072616E646F6D PUSH0 DUP3 ADD MSTORE PUSH32 0x206E756D62657220000000000000000000000000000000000000000000000000 PUSH1 0x20 DUP3 ADD MSTORE POP JUMP JUMPDEST PUSH0 PUSH2 0x3A2A PUSH1 0x28 DUP4 PUSH2 0x2DCE JUMP JUMPDEST SWAP2 POP PUSH2 0x3A35 DUP3 PUSH2 0x39D0 JUMP JUMPDEST PUSH1 0x40 DUP3 ADD SWAP1 POP SWAP2 SWAP1 POP JUMP JUMPDEST PUSH0 PUSH1 0x20 DUP3 ADD SWAP1 POP DUP2 DUP2 SUB PUSH0 DUP4 ADD MSTORE PUSH2 0x3A57 DUP2 PUSH2 0x3A1E JUMP JUMPDEST SWAP1 POP SWAP2 SWAP1 POP JUMP JUMPDEST PUSH32 0x616C726561647920726566756E64656400000000000000000000000000000000 PUSH0 DUP3 ADD MSTORE POP JUMP JUMPDEST PUSH0 PUSH2 0x3A92 PUSH1 0x10 DUP4 PUSH2 0x2DCE JUMP JUMPDEST SWAP2 POP PUSH2 0x3A9D DUP3 PUSH2 0x3A5E JUMP JUMPDEST PUSH1 0x20 DUP3 ADD SWAP1 POP SWAP2 SWAP1 POP JUMP JUMPDEST PUSH0 PUSH1 0x20 DUP3 ADD SWAP1 POP DUP2 DUP2 SUB PUSH0 DUP4 ADD MSTORE PUSH2 0x3ABF DUP2 PUSH2 0x3A86 JUMP JUMPDEST SWAP1 POP SWAP2 SWAP1 POP JUMP JUMPDEST PUSH0 PUSH1 0x40 DUP3 ADD SWAP1 POP PUSH2 0x3AD9 PUSH0 DUP4 ADD DUP6 PUSH2 0x2F96 JUMP JUMPDEST PUSH2 0x3AE6 PUSH1 0x20 DUP4 ADD DUP5 PUSH2 0x2CAD JUMP JUMPDEST SWAP4 SWAP3 POP POP POP JUMP JUMPDEST PUSH2 0x3AF6 DUP2 PUSH2 0x2D4E JUMP JUMPDEST DUP2 EQ PUSH2 0x3B00 JUMPI PUSH0 DUP1 REVERT JUMPDEST POP JUMP JUMPDEST PUSH0 DUP2 MLOAD SWAP1 POP PUSH2 0x3B11 DUP2 PUSH2 0x3AED JUMP JUMPDEST SWAP3 SWAP2 POP POP JUMP JUMPDEST PUSH0 PUSH1 0x20 DUP3 DUP5 SUB SLT ISZERO PUSH2 0x3B2C JUMPI PUSH2 0x3B2B PUSH2 0x2CDE JUMP JUMPDEST JUMPDEST PUSH0 PUSH2 0x3B39 DUP5 DUP3 DUP6 ADD PUSH2 0x3B03 JUMP JUMPDEST SWAP2 POP POP SWAP3 SWAP2 POP POP JUMP JUMPDEST PUSH32 0x526566756E64206661696C656400000000000000000000000000000000000000 PUSH0 DUP3 ADD MSTORE POP JUMP JUMPDEST PUSH0 PUSH2 0x3B76 PUSH1 0xD DUP4 PUSH2 0x2DCE JUMP JUMPDEST SWAP2 POP PUSH2 0x3B81 DUP3 PUSH2 0x3B42 JUMP JUMPDEST PUSH1 0x20 DUP3 ADD SWAP1 POP SWAP2 SWAP1 POP JUMP JUMPDEST PUSH0 PUSH1 0x20 DUP3 ADD SWAP1 POP DUP2 DUP2 SUB PUSH0 DUP4 ADD MSTORE PUSH2 0x3BA3 DUP2 PUSH2 0x3B6A JUMP JUMPDEST SWAP1 POP SWAP2 SWAP1 POP JUMP JUMPDEST PUSH32 0x4F6E6C7920746865206F776E65722063616E2063616C6C20746869732066756E PUSH0 DUP3 ADD MSTORE PUSH32 0x6374696F6E000000000000000000000000000000000000000000000000000000 PUSH1 0x20 DUP3 ADD MSTORE POP JUMP JUMPDEST PUSH0 PUSH2 0x3C04 PUSH1 0x25 DUP4 PUSH2 0x2DCE JUMP JUMPDEST SWAP2 POP PUSH2 0x3C0F DUP3 PUSH2 0x3BAA JUMP JUMPDEST PUSH1 0x40 DUP3 ADD SWAP1 POP SWAP2 SWAP1 POP JUMP JUMPDEST PUSH0 PUSH1 0x20 DUP3 ADD SWAP1 POP DUP2 DUP2 SUB PUSH0 DUP4 ADD MSTORE PUSH2 0x3C31 DUP2 PUSH2 0x3BF8 JUMP JUMPDEST SWAP1 POP SWAP2 SWAP1 POP JUMP JUMPDEST PUSH0 PUSH2 0x3C42 DUP3 PUSH2 0x2CA4 JUMP JUMPDEST SWAP2 POP PUSH32 0xFFFFFFFFFFFFFFFFFFFFFFFFFFFFFFFFFFFFFFFFFFFFFFFFFFFFFFFFFFFFFFFF DUP3 SUB PUSH2 0x3C74 JUMPI PUSH2 0x3C73 PUSH2 0x3496 JUMP JUMPDEST JUMPDEST PUSH1 0x1 DUP3 ADD SWAP1 POP SWAP2 SWAP1 POP JUMP JUMPDEST PUSH0 PUSH2 0x3C89 DUP3 PUSH2 0x2CA4 JUMP JUMPDEST SWAP2 POP PUSH2 0x3C94 DUP4 PUSH2 0x2CA4 JUMP JUMPDEST SWAP3 POP DUP3 DUP3 ADD SWAP1 POP DUP1 DUP3 GT ISZERO PUSH2 0x3CAC JUMPI PUSH2 0x3CAB PUSH2 0x3496 JUMP JUMPDEST JUMPDEST SWAP3 SWAP2 POP POP JUMP JUMPDEST PUSH0 DUP2 SWAP1 POP DUP2 PUSH0 MSTORE PUSH1 0x20 PUSH0 KECCAK256 SWAP1 POP SWAP2 SWAP1 POP JUMP JUMPDEST PUSH0 PUSH1 0x20 PUSH1 0x1F DUP4 ADD DIV SWAP1 POP SWAP2 SWAP1 POP JUMP JUMPDEST PUSH0 DUP3 DUP3 SHL SWAP1 POP SWAP3 SWAP2 POP POP JUMP JUMPDEST PUSH0 PUSH1 0x8 DUP4 MUL PUSH2 0x3D0E PUSH32 0xFFFFFFFFFFFFFFFFFFFFFFFFFFFFFFFFFFFFFFFFFFFFFFFFFFFFFFFFFFFFFFFF DUP3 PUSH2 0x3CD3 JUMP JUMPDEST PUSH2 0x3D18 DUP7 DUP4 PUSH2 0x3CD3 JUMP JUMPDEST SWAP6 POP DUP1 NOT DUP5 AND SWAP4 POP DUP1 DUP7 AND DUP5 OR SWAP3 POP POP POP SWAP4 SWAP3 POP POP POP JUMP JUMPDEST PUSH0 PUSH2 0x3D4A PUSH2 0x3D45 PUSH2 0x3D40 DUP5 PUSH2 0x2CA4 JUMP JUMPDEST PUSH2 0x33A4 JUMP JUMPDEST PUSH2 0x2CA4 JUMP JUMPDEST SWAP1 POP SWAP2 SWAP1 POP JUMP JUMPDEST PUSH0 DUP2 SWAP1 POP SWAP2 SWAP1 POP JUMP JUMPDEST PUSH2 0x3D63 DUP4 PUSH2 0x3D30 JUMP JUMPDEST PUSH2 0x3D77 PUSH2 0x3D6F DUP3 PUSH2 0x3D51 JUMP JUMPDEST DUP5 DUP5 SLOAD PUSH2 0x3CDF JUMP JUMPDEST DUP3 SSTORE POP POP POP POP JUMP JUMPDEST PUSH0 SWAP1 JUMP JUMPDEST PUSH2 0x3D8B PUSH2 0x3D7F JUMP JUMPDEST PUSH2 0x3D96 DUP2 DUP5 DUP5 PUSH2 0x3D5A JUMP JUMPDEST POP POP POP JUMP JUMPDEST JUMPDEST DUP2 DUP2 LT ISZERO PUSH2 0x3DB9 JUMPI PUSH2 0x3DAE PUSH0 DUP3 PUSH2 0x3D83 JUMP JUMPDEST PUSH1 0x1 DUP2 ADD SWAP1 POP PUSH2 0x3D9C JUMP JUMPDEST POP POP JUMP JUMPDEST PUSH1 0x1F DUP3 GT ISZERO PUSH2 0x3DFE JUMPI PUSH2 0x3DCF DUP2 PUSH2 0x3CB2 JUMP JUMPDEST PUSH2 0x3DD8 DUP5 PUSH2 0x3CC4 JUMP JUMPDEST DUP2 ADD PUSH1 0x20 DUP6 LT ISZERO PUSH2 0x3DE7 JUMPI DUP2 SWAP1 POP JUMPDEST PUSH2 0x3DFB PUSH2 0x3DF3 DUP6 PUSH2 0x3CC4 JUMP JUMPDEST DUP4 ADD DUP3 PUSH2 0x3D9B JUMP JUMPDEST POP POP JUMPDEST POP POP POP JUMP JUMPDEST PUSH0 DUP3 DUP3 SHR SWAP1 POP SWAP3 SWAP2 POP POP JUMP JUMPDEST PUSH0 PUSH2 0x3E1E PUSH0 NOT DUP5 PUSH1 0x8 MUL PUSH2 0x3E03 JUMP JUMPDEST NOT DUP1 DUP4 AND SWAP2 POP POP SWAP3 SWAP2 POP POP JUMP JUMPDEST PUSH0 PUSH2 0x3E36 DUP4 DUP4 PUSH2 0x3E0F JUMP JUMPDEST SWAP2 POP DUP3 PUSH1 0x2 MUL DUP3 OR SWAP1 POP SWAP3 SWAP2 POP POP JUMP JUMPDEST PUSH2 0x3E4F DUP3 PUSH2 0x2DC4 JUMP JUMPDEST PUSH8 0xFFFFFFFFFFFFFFFF DUP2 GT ISZERO PUSH2 0x3E68 JUMPI PUSH2 0x3E67 PUSH2 0x311E JUMP JUMPDEST JUMPDEST PUSH2 0x3E72 DUP3 SLOAD PUSH2 0x377E JUMP JUMPDEST PUSH2 0x3E7D DUP3 DUP3 DUP6 PUSH2 0x3DBD JUMP JUMPDEST PUSH0 PUSH1 0x20 SWAP1 POP PUSH1 0x1F DUP4 GT PUSH1 0x1 DUP2 EQ PUSH2 0x3EAE JUMPI PUSH0 DUP5 ISZERO PUSH2 0x3E9C JUMPI DUP3 DUP8 ADD MLOAD SWAP1 POP JUMPDEST PUSH2 0x3EA6 DUP6 DUP3 PUSH2 0x3E2B JUMP JUMPDEST DUP7 SSTORE POP PUSH2 0x3F0D JUMP JUMPDEST PUSH1 0x1F NOT DUP5 AND PUSH2 0x3EBC DUP7 PUSH2 0x3CB2 JUMP JUMPDEST PUSH0 JUMPDEST DUP3 DUP2 LT ISZERO PUSH2 0x3EE3 JUMPI DUP5 DUP10 ADD MLOAD DUP3 SSTORE PUSH1 0x1 DUP3 ADD SWAP2 POP PUSH1 0x20 DUP6 ADD SWAP5 POP PUSH1 0x20 DUP2 ADD SWAP1 POP PUSH2 0x3EBE JUMP JUMPDEST DUP7 DUP4 LT ISZERO PUSH2 0x3F00 JUMPI DUP5 DUP10 ADD MLOAD PUSH2 0x3EFC PUSH1 0x1F DUP10 AND DUP3 PUSH2 0x3E0F JUMP JUMPDEST DUP4 SSTORE POP JUMPDEST PUSH1 0x1 PUSH1 0x2 DUP9 MUL ADD DUP9 SSTORE POP POP POP JUMPDEST POP POP POP POP POP POP JUMP JUMPDEST PUSH0 PUSH1 0x60 DUP3 ADD SWAP1 POP PUSH2 0x3F28 PUSH0 DUP4 ADD DUP7 PUSH2 0x2CAD JUMP JUMPDEST PUSH2 0x3F35 PUSH1 0x20 DUP4 ADD DUP6 PUSH2 0x2CAD JUMP JUMPDEST PUSH2 0x3F42 PUSH1 0x40 DUP4 ADD DUP5 PUSH2 0x2CAD JUMP JUMPDEST SWAP5 SWAP4 POP POP POP POP JUMP JUMPDEST PUSH32 0x4C6F7474657279206973206E6F742052455645414C2073746174650000000000 PUSH0 DUP3 ADD MSTORE POP JUMP JUMPDEST PUSH0 PUSH2 0x3F7E PUSH1 0x1B DUP4 PUSH2 0x2DCE JUMP JUMPDEST SWAP2 POP PUSH2 0x3F89 DUP3 PUSH2 0x3F4A JUMP JUMPDEST PUSH1 0x20 DUP3 ADD SWAP1 POP SWAP2 SWAP1 POP JUMP JUMPDEST PUSH0 PUSH1 0x20 DUP3 ADD SWAP1 POP DUP2 DUP2 SUB PUSH0 DUP4 ADD MSTORE PUSH2 0x3FAB DUP2 PUSH2 0x3F72 JUMP JUMPDEST SWAP1 POP SWAP2 SWAP1 POP JUMP JUMPDEST PUSH32 0x5469636B657420646F6573206E6F742065786973740000000000000000000000 PUSH0 DUP3 ADD MSTORE POP JUMP JUMPDEST PUSH0 PUSH2 0x3FE6 PUSH1 0x15 DUP4 PUSH2 0x2DCE JUMP JUMPDEST SWAP2 POP PUSH2 0x3FF1 DUP3 PUSH2 0x3FB2 JUMP JUMPDEST PUSH1 0x20 DUP3 ADD SWAP1 POP SWAP2 SWAP1 POP JUMP JUMPDEST PUSH0 PUSH1 0x20 DUP3 ADD SWAP1 POP DUP2 DUP2 SUB PUSH0 DUP4 ADD MSTORE PUSH2 0x4013 DUP2 PUSH2 0x3FDA JUMP JUMPDEST SWAP1 POP SWAP2 SWAP1 POP JUMP JUMPDEST PUSH32 0x5469636B657420616C72656164792072657665616C6564000000000000000000 PUSH0 DUP3 ADD MSTORE POP JUMP JUMPDEST PUSH0 PUSH2 0x404E PUSH1 0x17 DUP4 PUSH2 0x2DCE JUMP JUMPDEST SWAP2 POP PUSH2 0x4059 DUP3 PUSH2 0x401A JUMP JUMPDEST PUSH1 0x20 DUP3 ADD SWAP1 POP SWAP2 SWAP1 POP JUMP JUMPDEST PUSH0 PUSH1 0x20 DUP3 ADD SWAP1 POP DUP2 DUP2 SUB PUSH0 DUP4 ADD MSTORE PUSH2 0x407B DUP2 PUSH2 0x4042 JUMP JUMPDEST SWAP1 POP SWAP2 SWAP1 POP JUMP JUMPDEST PUSH0 DUP2 SWAP1 POP SWAP2 SWAP1 POP JUMP JUMPDEST PUSH2 0x409C PUSH2 0x4097 DUP3 PUSH2 0x2CA4 JUMP JUMPDEST PUSH2 0x4082 JUMP JUMPDEST DUP3 MSTORE POP POP JUMP JUMPDEST PUSH0 PUSH2 0x40AD DUP3 DUP5 PUSH2 0x408B JUMP JUMPDEST PUSH1 0x20 DUP3 ADD SWAP2 POP DUP2 SWAP1 POP SWAP3 SWAP2 POP POP JUMP JUMPDEST PUSH0 DUP2 SWAP1 POP SWAP2 SWAP1 POP JUMP JUMPDEST PUSH2 0x40D6 PUSH2 0x40D1 DUP3 PUSH2 0x2DAC JUMP JUMPDEST PUSH2 0x40BC JUMP JUMPDEST DUP3 MSTORE POP POP JUMP JUMPDEST PUSH0 DUP2 PUSH1 0x60 SHL SWAP1 POP SWAP2 SWAP1 POP JUMP JUMPDEST PUSH0 PUSH2 0x40F2 DUP3 PUSH2 0x40DC JUMP JUMPDEST SWAP1 POP SWAP2 SWAP1 POP JUMP JUMPDEST PUSH0 PUSH2 0x4103 DUP3 PUSH2 0x40E8 JUMP JUMPDEST SWAP1 POP SWAP2 SWAP1 POP JUMP JUMPDEST PUSH2 0x411B PUSH2 0x4116 DUP3 PUSH2 0x2F85 JUMP JUMPDEST PUSH2 0x40F9 JUMP JUMPDEST DUP3 MSTORE POP POP JUMP JUMPDEST PUSH0 PUSH2 0x412C DUP3 DUP6 PUSH2 0x40C5 JUMP JUMPDEST PUSH1 0x20 DUP3 ADD SWAP2 POP PUSH2 0x413C DUP3 DUP5 PUSH2 0x410A JUMP JUMPDEST PUSH1 0x14 DUP3 ADD SWAP2 POP DUP2 SWAP1 POP SWAP4 SWAP3 POP POP POP JUMP JUMPDEST PUSH32 0x596F752072657665616C656420612077726F6E67206E756D6265720000000000 PUSH0 DUP3 ADD MSTORE POP JUMP JUMPDEST PUSH0 PUSH2 0x4180 PUSH1 0x1B DUP4 PUSH2 0x2DCE JUMP JUMPDEST SWAP2 POP PUSH2 0x418B DUP3 PUSH2 0x414C JUMP JUMPDEST PUSH1 0x20 DUP3 ADD SWAP1 POP SWAP2 SWAP1 POP JUMP JUMPDEST PUSH0 PUSH1 0x20 DUP3 ADD SWAP1 POP DUP2 DUP2 SUB PUSH0 DUP4 ADD MSTORE PUSH2 0x41AD DUP2 PUSH2 0x4174 JUMP JUMPDEST SWAP1 POP SWAP2 SWAP1 POP JUMP JUMPDEST PUSH32 0x4C6F747465727920686173206E6F74206265656E20636F6D706C657465640000 PUSH0 DUP3 ADD MSTORE POP JUMP JUMPDEST PUSH0 PUSH2 0x41E8 PUSH1 0x1E DUP4 PUSH2 0x2DCE JUMP JUMPDEST SWAP2 POP PUSH2 0x41F3 DUP3 PUSH2 0x41B4 JUMP JUMPDEST PUSH1 0x20 DUP3 ADD SWAP1 POP SWAP2 SWAP1 POP JUMP JUMPDEST PUSH0 PUSH1 0x20 DUP3 ADD SWAP1 POP DUP2 DUP2 SUB PUSH0 DUP4 ADD MSTORE PUSH2 0x4215 DUP2 PUSH2 0x41DC JUMP JUMPDEST SWAP1 POP SWAP2 SWAP1 POP JUMP JUMPDEST PUSH0 DUP2 MLOAD SWAP1 POP PUSH2 0x422A DUP2 PUSH2 0x2CE6 JUMP JUMPDEST SWAP3 SWAP2 POP POP JUMP JUMPDEST PUSH0 PUSH1 0x20 DUP3 DUP5 SUB SLT ISZERO PUSH2 0x4245 JUMPI PUSH2 0x4244 PUSH2 0x2CDE JUMP JUMPDEST JUMPDEST PUSH0 PUSH2 0x4252 DUP5 DUP3 DUP6 ADD PUSH2 0x421C JUMP JUMPDEST SWAP2 POP POP SWAP3 SWAP2 POP POP JUMP JUMPDEST PUSH32 0x496E73756666696369656E742066756E64730000000000000000000000000000 PUSH0 DUP3 ADD MSTORE POP JUMP JUMPDEST PUSH0 PUSH2 0x428F PUSH1 0x12 DUP4 PUSH2 0x2DCE JUMP JUMPDEST SWAP2 POP PUSH2 0x429A DUP3 PUSH2 0x425B JUMP JUMPDEST PUSH1 0x20 DUP3 ADD SWAP1 POP SWAP2 SWAP1 POP JUMP JUMPDEST PUSH0 PUSH1 0x20 DUP3 ADD SWAP1 POP DUP2 DUP2 SUB PUSH0 DUP4 ADD MSTORE PUSH2 0x42BC DUP2 PUSH2 0x4283 JUMP JUMPDEST SWAP1 POP SWAP2 SWAP1 POP JUMP JUMPDEST PUSH32 0x7472616E73666572206661696C65640000000000000000000000000000000000 PUSH0 DUP3 ADD MSTORE POP JUMP JUMPDEST PUSH0 PUSH2 0x42F7 PUSH1 0xF DUP4 PUSH2 0x2DCE JUMP JUMPDEST SWAP2 POP PUSH2 0x4302 DUP3 PUSH2 0x42C3 JUMP JUMPDEST PUSH1 0x20 DUP3 ADD SWAP1 POP SWAP2 SWAP1 POP JUMP JUMPDEST PUSH0 PUSH1 0x20 DUP3 ADD SWAP1 POP DUP2 DUP2 SUB PUSH0 DUP4 ADD MSTORE PUSH2 0x4324 DUP2 PUSH2 0x42EB JUMP JUMPDEST SWAP1 POP SWAP2 SWAP1 POP JUMP JUMPDEST PUSH32 0x4E6F74206265656E20636F6D706C657465640000000000000000000000000000 PUSH0 DUP3 ADD MSTORE POP JUMP JUMPDEST PUSH0 PUSH2 0x435F PUSH1 0x12 DUP4 PUSH2 0x2DCE JUMP JUMPDEST SWAP2 POP PUSH2 0x436A DUP3 PUSH2 0x432B JUMP JUMPDEST PUSH1 0x20 DUP3 ADD SWAP1 POP SWAP2 SWAP1 POP JUMP JUMPDEST PUSH0 PUSH1 0x20 DUP3 ADD SWAP1 POP DUP2 DUP2 SUB PUSH0 DUP4 ADD MSTORE PUSH2 0x438C DUP2 PUSH2 0x4353 JUMP JUMPDEST SWAP1 POP SWAP2 SWAP1 POP JUMP JUMPDEST PUSH32 0x4E6F7420656E6F756768207469636B65747320736F6C64000000000000000000 PUSH0 DUP3 ADD MSTORE POP JUMP JUMPDEST PUSH0 PUSH2 0x43C7 PUSH1 0x17 DUP4 PUSH2 0x2DCE JUMP JUMPDEST SWAP2 POP PUSH2 0x43D2 DUP3 PUSH2 0x4393 JUMP JUMPDEST PUSH1 0x20 DUP3 ADD SWAP1 POP SWAP2 SWAP1 POP JUMP JUMPDEST PUSH0 PUSH1 0x20 DUP3 ADD SWAP1 POP DUP2 DUP2 SUB PUSH0 DUP4 ADD MSTORE PUSH2 0x43F4 DUP2 PUSH2 0x43BB JUMP JUMPDEST SWAP1 POP SWAP2 SWAP1 POP JUMP JUMPDEST PUSH0 PUSH2 0x4406 DUP3 DUP6 PUSH2 0x408B JUMP JUMPDEST PUSH1 0x20 DUP3 ADD SWAP2 POP PUSH2 0x4416 DUP3 DUP5 PUSH2 0x408B JUMP JUMPDEST PUSH1 0x20 DUP3 ADD SWAP2 POP DUP2 SWAP1 POP SWAP4 SWAP3 POP POP POP JUMP JUMPDEST PUSH0 PUSH2 0x4430 DUP3 PUSH2 0x2CA4 JUMP JUMPDEST SWAP2 POP PUSH2 0x443B DUP4 PUSH2 0x2CA4 JUMP JUMPDEST SWAP3 POP DUP3 PUSH2 0x444B JUMPI PUSH2 0x444A PUSH2 0x37EF JUMP JUMPDEST JUMPDEST DUP3 DUP3 MOD SWAP1 POP SWAP3 SWAP2 POP POP JUMP JUMPDEST PUSH0 DUP2 SLOAD SWAP1 POP SWAP2 SWAP1 POP JUMP JUMPDEST PUSH0 DUP3 DUP3 MSTORE PUSH1 0x20 DUP3 ADD SWAP1 POP SWAP3 SWAP2 POP POP JUMP JUMPDEST PUSH0 DUP2 SWAP1 POP DUP2 PUSH0 MSTORE PUSH1 0x20 PUSH0 KECCAK256 SWAP1 POP SWAP2 SWAP1 POP JUMP JUMPDEST PUSH2 0x448B DUP2 PUSH2 0x2CA4 JUMP JUMPDEST DUP3 MSTORE POP POP JUMP JUMPDEST PUSH0 PUSH2 0x449C DUP4 DUP4 PUSH2 0x4482 JUMP JUMPDEST PUSH1 0x20 DUP4 ADD SWAP1 POP SWAP3 SWAP2 POP POP JUMP JUMPDEST PUSH0 DUP2 PUSH0 SHR SWAP1 POP SWAP2 SWAP1 POP JUMP JUMPDEST PUSH0 DUP2 SWAP1 POP SWAP2 SWAP1 POP JUMP JUMPDEST PUSH0 PUSH2 0x44CE PUSH2 0x44C9 DUP4 PUSH2 0x44A8 JUMP JUMPDEST PUSH2 0x44B3 JUMP JUMPDEST SWAP1 POP SWAP2 SWAP1 POP JUMP JUMPDEST PUSH0 PUSH2 0x44E0 DUP3 SLOAD PUSH2 0x44BC JUMP JUMPDEST SWAP1 POP SWAP2 SWAP1 POP JUMP JUMPDEST PUSH0 PUSH1 0x1 DUP3 ADD SWAP1 POP SWAP2 SWAP1 POP JUMP JUMPDEST PUSH0 PUSH2 0x44FD DUP3 PUSH2 0x4456 JUMP JUMPDEST PUSH2 0x4507 DUP2 DUP6 PUSH2 0x4460 JUMP JUMPDEST SWAP4 POP PUSH2 0x4512 DUP4 PUSH2 0x4470 JUMP JUMPDEST DUP1 PUSH0 JUMPDEST DUP4 DUP2 LT ISZERO PUSH2 0x4549 JUMPI PUSH2 0x4526 DUP3 PUSH2 0x44D5 JUMP JUMPDEST PUSH2 0x4530 DUP9 DUP3 PUSH2 0x4491 JUMP JUMPDEST SWAP8 POP PUSH2 0x453B DUP4 PUSH2 0x44E7 JUMP JUMPDEST SWAP3 POP POP PUSH1 0x1 DUP2 ADD SWAP1 POP PUSH2 0x4515 JUMP JUMPDEST POP DUP6 SWAP4 POP POP POP POP SWAP3 SWAP2 POP POP JUMP JUMPDEST PUSH0 PUSH1 0x40 DUP3 ADD SWAP1 POP PUSH2 0x4569 PUSH0 DUP4 ADD DUP6 PUSH2 0x2CAD JUMP JUMPDEST DUP2 DUP2 SUB PUSH1 0x20 DUP4 ADD MSTORE PUSH2 0x457B DUP2 DUP5 PUSH2 0x44F3 JUMP JUMPDEST SWAP1 POP SWAP4 SWAP3 POP POP POP JUMP JUMPDEST PUSH32 0x4C6F7474657279206973206E6F74206163746976650000000000000000000000 PUSH0 DUP3 ADD MSTORE POP JUMP JUMPDEST PUSH0 PUSH2 0x45B8 PUSH1 0x15 DUP4 PUSH2 0x2DCE JUMP JUMPDEST SWAP2 POP PUSH2 0x45C3 DUP3 PUSH2 0x4584 JUMP JUMPDEST PUSH1 0x20 DUP3 ADD SWAP1 POP SWAP2 SWAP1 POP JUMP JUMPDEST PUSH0 PUSH1 0x20 DUP3 ADD SWAP1 POP DUP2 DUP2 SUB PUSH0 DUP4 ADD MSTORE PUSH2 0x45E5 DUP2 PUSH2 0x45AC JUMP JUMPDEST SWAP1 POP SWAP2 SWAP1 POP JUMP JUMPDEST PUSH32 0x4C6F74746572792073616C6520697320646F6E65000000000000000000000000 PUSH0 DUP3 ADD MSTORE POP JUMP JUMPDEST PUSH0 PUSH2 0x4620 PUSH1 0x14 DUP4 PUSH2 0x2DCE JUMP JUMPDEST SWAP2 POP PUSH2 0x462B DUP3 PUSH2 0x45EC JUMP JUMPDEST PUSH1 0x20 DUP3 ADD SWAP1 POP SWAP2 SWAP1 POP JUMP JUMPDEST PUSH0 PUSH1 0x20 DUP3 ADD SWAP1 POP DUP2 DUP2 SUB PUSH0 DUP4 ADD MSTORE PUSH2 0x464D DUP2 PUSH2 0x4614 JUMP JUMPDEST SWAP1 POP SWAP2 SWAP1 POP JUMP JUMPDEST PUSH32 0x596F752063616E207075726368617365206174206D6F7374203330207469636B PUSH0 DUP3 ADD MSTORE PUSH32 0x6574732E20000000000000000000000000000000000000000000000000000000 PUSH1 0x20 DUP3 ADD MSTORE POP JUMP JUMPDEST PUSH0 PUSH2 0x46AE PUSH1 0x25 DUP4 PUSH2 0x2DCE JUMP JUMPDEST SWAP2 POP PUSH2 0x46B9 DUP3 PUSH2 0x4654 JUMP JUMPDEST PUSH1 0x40 DUP3 ADD SWAP1 POP SWAP2 SWAP1 POP JUMP JUMPDEST PUSH0 PUSH1 0x20 DUP3 ADD SWAP1 POP DUP2 DUP2 SUB PUSH0 DUP4 ADD MSTORE PUSH2 0x46DB DUP2 PUSH2 0x46A2 JUMP JUMPDEST SWAP1 POP SWAP2 SWAP1 POP JUMP JUMPDEST PUSH32 0x4E6F7420656E6F756768207469636B65747320617661696C61626C6500000000 PUSH0 DUP3 ADD MSTORE POP JUMP JUMPDEST PUSH0 PUSH2 0x4716 PUSH1 0x1C DUP4 PUSH2 0x2DCE JUMP JUMPDEST SWAP2 POP PUSH2 0x4721 DUP3 PUSH2 0x46E2 JUMP JUMPDEST PUSH1 0x20 DUP3 ADD SWAP1 POP SWAP2 SWAP1 POP JUMP JUMPDEST PUSH0 PUSH1 0x20 DUP3 ADD SWAP1 POP DUP2 DUP2 SUB PUSH0 DUP4 ADD MSTORE PUSH2 0x4743 DUP2 PUSH2 0x470A JUMP JUMPDEST SWAP1 POP SWAP2 SWAP1 POP JUMP JUMPDEST PUSH0 PUSH1 0x60 DUP3 ADD SWAP1 POP PUSH2 0x475D PUSH0 DUP4 ADD DUP7 PUSH2 0x2F96 JUMP JUMPDEST PUSH2 0x476A PUSH1 0x20 DUP4 ADD DUP6 PUSH2 0x2F96 JUMP JUMPDEST PUSH2 0x4777 PUSH1 0x40 DUP4 ADD DUP5 PUSH2 0x2CAD JUMP JUMPDEST SWAP5 SWAP4 POP POP POP POP JUMP INVALID LOG2 PUSH5 0x6970667358 0x22 SLT KECCAK256 0xBD 0xD9 DUP6 PUSH31 0xFA75CF26F7E1BF8E529477595530B2BD3B074B69149600ECF8A4DCE64736F PUSH13 0x634300081A0033000000000000 "
		},
		"gasEstimates": {
			"creation": {
				"codeDepositCost": "3671400",
				"executionCost": "infinite",
				"totalCost": "infinite"
			},
			"external": {
				"buyTicketTx(uint256,uint256,bytes32)": "infinite",
				"checkIfAddrTicketWon(address,uint256,uint256)": "infinite",
				"checkIfMyTicketWon(uint256,uint256)": "infinite",
				"createLottery(uint256,uint256,uint256,uint256,uint256,bytes32,string)": "infinite",
				"currentLotteryNo()": "2449",
				"determineWinners(uint256)": "infinite",
				"getCurrentLotteryNo()": "2566",
				"getIthPurchasedTicketTx(uint256,uint256)": "infinite",
				"getIthWinningTicket(uint256,uint256)": "infinite",
				"getLotteryInfo(uint256)": "infinite",
				"getLotterySales(uint256)": "infinite",
				"getLotteryState(uint256)": "infinite",
				"getLotteryURL(uint256)": "infinite",
				"getNumPurchaseTxs(uint256)": "infinite",
				"getPaymentToken(uint256)": "4966",
				"lotteries(uint256)": "infinite",
				"lotteryTickets(uint256,uint256)": "infinite",
				"owner()": "2531",
				"revealRndNumberTx(uint256,uint256,uint256)": "infinite",
				"setPaymentToken(address)": "26985",
				"ticketToken()": "infinite",
				"tokenAddress()": "2575",
				"updateLotteryStates()": "infinite",
				"withdrawTicketProceeds(uint256)": "infinite",
				"withdrawTicketRefund(uint256,uint256)": "infinite"
			},
			"internal": {
				"arrayContains(uint256[] memory,uint256)": "infinite"
			}
		},
		"methodIdentifiers": {
			"buyTicketTx(uint256,uint256,bytes32)": "e0767cd9",
			"checkIfAddrTicketWon(address,uint256,uint256)": "5bddbaac",
			"checkIfMyTicketWon(uint256,uint256)": "12b349d5",
			"createLottery(uint256,uint256,uint256,uint256,uint256,bytes32,string)": "7df858db",
			"currentLotteryNo()": "0400f4d0",
			"determineWinners(uint256)": "c5929bc7",
			"getCurrentLotteryNo()": "5b7b3d58",
			"getIthPurchasedTicketTx(uint256,uint256)": "89b2acbc",
			"getIthWinningTicket(uint256,uint256)": "e54778b5",
			"getLotteryInfo(uint256)": "76b3c8a8",
			"getLotterySales(uint256)": "cc42a7c5",
			"getLotteryState(uint256)": "d366b2f9",
			"getLotteryURL(uint256)": "dc969f22",
			"getNumPurchaseTxs(uint256)": "adc51cdb",
			"getPaymentToken(uint256)": "cdc2aebf",
			"lotteries(uint256)": "1398e076",
			"lotteryTickets(uint256,uint256)": "49c0de88",
			"owner()": "8da5cb5b",
			"revealRndNumberTx(uint256,uint256,uint256)": "9351e76b",
			"setPaymentToken(address)": "6a326ab1",
			"ticketToken()": "d5ed4d5a",
			"tokenAddress()": "9d76ea58",
			"updateLotteryStates()": "5125a252",
			"withdrawTicketProceeds(uint256)": "ad943d1e",
			"withdrawTicketRefund(uint256,uint256)": "687e47d8"
		}
	},
	"abi": [
		{
			"inputs": [
				{
					"internalType": "address",
					"name": "_ticketTokenAddress",
					"type": "address"
				}
			],
			"stateMutability": "nonpayable",
			"type": "constructor"
		},
		{
			"anonymous": false,
			"inputs": [
				{
					"indexed": false,
					"internalType": "uint256",
					"name": "lottery_no",
					"type": "uint256"
				},
				{
					"indexed": false,
					"internalType": "uint256",
					"name": "unixbeg",
					"type": "uint256"
				},
				{
					"indexed": false,
					"internalType": "uint256",
					"name": "nooftickets",
					"type": "uint256"
				}
			],
			"name": "LotteryCreated",
			"type": "event"
		},
		{
			"anonymous": false,
			"inputs": [
				{
					"indexed": false,
					"internalType": "uint256",
					"name": "lottery_no",
					"type": "uint256"
				},
				{
					"indexed": false,
					"internalType": "uint256[]",
					"name": "winners",
					"type": "uint256[]"
				}
			],
			"name": "WinnersDetermined",
			"type": "event"
		},
		{
			"inputs": [
				{
					"internalType": "uint256",
					"name": "lottery_no",
					"type": "uint256"
				},
				{
					"internalType": "uint256",
					"name": "quantity",
					"type": "uint256"
				},
				{
					"internalType": "bytes32",
					"name": "hash_rnd_number",
					"type": "bytes32"
				}
			],
			"name": "buyTicketTx",
			"outputs": [
				{
					"internalType": "uint256",
					"name": "sticketno",
					"type": "uint256"
				}
			],
			"stateMutability": "nonpayable",
			"type": "function"
		},
		{
			"inputs": [
				{
					"internalType": "address",
					"name": "addr",
					"type": "address"
				},
				{
					"internalType": "uint256",
					"name": "lottery_no",
					"type": "uint256"
				},
				{
					"internalType": "uint256",
					"name": "ticket_no",
					"type": "uint256"
				}
			],
			"name": "checkIfAddrTicketWon",
			"outputs": [
				{
					"internalType": "bool",
					"name": "won",
					"type": "bool"
				}
			],
			"stateMutability": "view",
			"type": "function"
		},
		{
			"inputs": [
				{
					"internalType": "uint256",
					"name": "lottery_no",
					"type": "uint256"
				},
				{
					"internalType": "uint256",
					"name": "ticket_no",
					"type": "uint256"
				}
			],
			"name": "checkIfMyTicketWon",
			"outputs": [
				{
					"internalType": "bool",
					"name": "won",
					"type": "bool"
				}
			],
			"stateMutability": "view",
			"type": "function"
		},
		{
			"inputs": [
				{
					"internalType": "uint256",
					"name": "unixbeg",
					"type": "uint256"
				},
				{
					"internalType": "uint256",
					"name": "nooftickets",
					"type": "uint256"
				},
				{
					"internalType": "uint256",
					"name": "noofwinners",
					"type": "uint256"
				},
				{
					"internalType": "uint256",
					"name": "minpercentage",
					"type": "uint256"
				},
				{
					"internalType": "uint256",
					"name": "ticketprice",
					"type": "uint256"
				},
				{
					"internalType": "bytes32",
					"name": "htmlhash",
					"type": "bytes32"
				},
				{
					"internalType": "string",
					"name": "url",
					"type": "string"
				}
			],
			"name": "createLottery",
			"outputs": [
				{
					"internalType": "uint256",
					"name": "lottery_no",
					"type": "uint256"
				}
			],
			"stateMutability": "nonpayable",
			"type": "function"
		},
		{
			"inputs": [],
			"name": "currentLotteryNo",
			"outputs": [
				{
					"internalType": "uint256",
					"name": "",
					"type": "uint256"
				}
			],
			"stateMutability": "view",
			"type": "function"
		},
		{
			"inputs": [
				{
					"internalType": "uint256",
					"name": "lottery_no",
					"type": "uint256"
				}
			],
			"name": "determineWinners",
			"outputs": [],
			"stateMutability": "nonpayable",
			"type": "function"
		},
		{
			"inputs": [],
			"name": "getCurrentLotteryNo",
			"outputs": [
				{
					"internalType": "uint256",
					"name": "lottery_no",
					"type": "uint256"
				}
			],
			"stateMutability": "view",
			"type": "function"
		},
		{
			"inputs": [
				{
					"internalType": "uint256",
					"name": "i",
					"type": "uint256"
				},
				{
					"internalType": "uint256",
					"name": "lottery_no",
					"type": "uint256"
				}
			],
			"name": "getIthPurchasedTicketTx",
			"outputs": [
				{
					"internalType": "uint256",
					"name": "sticketno",
					"type": "uint256"
				},
				{
					"internalType": "uint256",
					"name": "quantity",
					"type": "uint256"
				}
			],
			"stateMutability": "view",
			"type": "function"
		},
		{
			"inputs": [
				{
					"internalType": "uint256",
					"name": "lottery_no",
					"type": "uint256"
				},
				{
					"internalType": "uint256",
					"name": "i",
					"type": "uint256"
				}
			],
			"name": "getIthWinningTicket",
			"outputs": [
				{
					"internalType": "uint256",
					"name": "ticketno",
					"type": "uint256"
				}
			],
			"stateMutability": "view",
			"type": "function"
		},
		{
			"inputs": [
				{
					"internalType": "uint256",
					"name": "lottery_no",
					"type": "uint256"
				}
			],
			"name": "getLotteryInfo",
			"outputs": [
				{
					"internalType": "uint256",
					"name": "unixbeg",
					"type": "uint256"
				},
				{
					"internalType": "uint256",
					"name": "nooftickets",
					"type": "uint256"
				},
				{
					"internalType": "uint256",
					"name": "noofwinners",
					"type": "uint256"
				},
				{
					"internalType": "uint256",
					"name": "minpercentage",
					"type": "uint256"
				},
				{
					"internalType": "uint256",
					"name": "ticketprice",
					"type": "uint256"
				}
			],
			"stateMutability": "view",
			"type": "function"
		},
		{
			"inputs": [
				{
					"internalType": "uint256",
					"name": "lottery_no",
					"type": "uint256"
				}
			],
			"name": "getLotterySales",
			"outputs": [
				{
					"internalType": "uint256",
					"name": "numsold",
					"type": "uint256"
				}
			],
			"stateMutability": "view",
			"type": "function"
		},
		{
			"inputs": [
				{
					"internalType": "uint256",
					"name": "lottery_no",
					"type": "uint256"
				}
			],
			"name": "getLotteryState",
			"outputs": [
				{
					"internalType": "enum LotteryStructs.LotteryState",
					"name": "state",
					"type": "uint8"
				}
			],
			"stateMutability": "view",
			"type": "function"
		},
		{
			"inputs": [
				{
					"internalType": "uint256",
					"name": "lottery_no",
					"type": "uint256"
				}
			],
			"name": "getLotteryURL",
			"outputs": [
				{
					"internalType": "bytes32",
					"name": "htmlhash",
					"type": "bytes32"
				},
				{
					"internalType": "string",
					"name": "url",
					"type": "string"
				}
			],
			"stateMutability": "view",
			"type": "function"
		},
		{
			"inputs": [
				{
					"internalType": "uint256",
					"name": "lottery_no",
					"type": "uint256"
				}
			],
			"name": "getNumPurchaseTxs",
			"outputs": [
				{
					"internalType": "uint256",
					"name": "numpurchasetxs",
					"type": "uint256"
				}
			],
			"stateMutability": "view",
			"type": "function"
		},
		{
			"inputs": [
				{
					"internalType": "uint256",
					"name": "lottery_no",
					"type": "uint256"
				}
			],
			"name": "getPaymentToken",
			"outputs": [
				{
					"internalType": "address",
					"name": "erctokenaddr",
					"type": "address"
				}
			],
			"stateMutability": "view",
			"type": "function"
		},
		{
			"inputs": [
				{
					"internalType": "uint256",
					"name": "",
					"type": "uint256"
				}
			],
			"name": "lotteries",
			"outputs": [
				{
					"internalType": "uint256",
					"name": "unixbeg",
					"type": "uint256"
				},
				{
					"internalType": "uint256",
					"name": "nooftickets",
					"type": "uint256"
				},
				{
					"internalType": "uint256",
					"name": "noofwinners",
					"type": "uint256"
				},
				{
					"internalType": "uint256",
					"name": "minpercentage",
					"type": "uint256"
				},
				{
					"internalType": "uint256",
					"name": "ticketprice",
					"type": "uint256"
				},
				{
					"internalType": "bytes32",
					"name": "htmlhash",
					"type": "bytes32"
				},
				{
					"internalType": "string",
					"name": "url",
					"type": "string"
				},
				{
					"internalType": "uint256",
					"name": "revealStartTime",
					"type": "uint256"
				},
				{
					"internalType": "enum LotteryStructs.LotteryState",
					"name": "state",
					"type": "uint8"
				},
				{
					"internalType": "uint256",
					"name": "numsold",
					"type": "uint256"
				},
				{
					"internalType": "uint256",
					"name": "numpurchasetxs",
					"type": "uint256"
				},
				{
					"internalType": "uint256",
					"name": "currentRandom",
					"type": "uint256"
				}
			],
			"stateMutability": "view",
			"type": "function"
		},
		{
			"inputs": [
				{
					"internalType": "uint256",
					"name": "",
					"type": "uint256"
				},
				{
					"internalType": "uint256",
					"name": "",
					"type": "uint256"
				}
			],
			"name": "lotteryTickets",
			"outputs": [
				{
					"internalType": "address",
					"name": "owner",
					"type": "address"
				},
				{
					"internalType": "uint256",
					"name": "quantity",
					"type": "uint256"
				},
				{
					"internalType": "bytes32",
					"name": "hash",
					"type": "bytes32"
				},
				{
					"internalType": "bool",
					"name": "revealed",
					"type": "bool"
				},
				{
					"internalType": "bool",
					"name": "redeemed",
					"type": "bool"
				}
			],
			"stateMutability": "view",
			"type": "function"
		},
		{
			"inputs": [],
			"name": "owner",
			"outputs": [
				{
					"internalType": "address",
					"name": "",
					"type": "address"
				}
			],
			"stateMutability": "view",
			"type": "function"
		},
		{
			"inputs": [
				{
					"internalType": "uint256",
					"name": "lottery_no",
					"type": "uint256"
				},
				{
					"internalType": "uint256",
					"name": "sticketno",
					"type": "uint256"
				},
				{
					"internalType": "uint256",
					"name": "rnd_number",
					"type": "uint256"
				}
			],
			"name": "revealRndNumberTx",
			"outputs": [],
			"stateMutability": "nonpayable",
			"type": "function"
		},
		{
			"inputs": [
				{
					"internalType": "address",
					"name": "erctokenaddr",
					"type": "address"
				}
			],
			"name": "setPaymentToken",
			"outputs": [],
			"stateMutability": "nonpayable",
			"type": "function"
		},
		{
			"inputs": [],
			"name": "ticketToken",
			"outputs": [
				{
					"internalType": "contract TicketToken",
					"name": "",
					"type": "address"
				}
			],
			"stateMutability": "view",
			"type": "function"
		},
		{
			"inputs": [],
			"name": "tokenAddress",
			"outputs": [
				{
					"internalType": "address",
					"name": "",
					"type": "address"
				}
			],
			"stateMutability": "view",
			"type": "function"
		},
		{
			"inputs": [],
			"name": "updateLotteryStates",
			"outputs": [],
			"stateMutability": "nonpayable",
			"type": "function"
		},
		{
			"inputs": [
				{
					"internalType": "uint256",
					"name": "lottery_no",
					"type": "uint256"
				}
			],
			"name": "withdrawTicketProceeds",
			"outputs": [],
			"stateMutability": "nonpayable",
			"type": "function"
		},
		{
			"inputs": [
				{
					"internalType": "uint256",
					"name": "lottery_no",
					"type": "uint256"
				},
				{
					"internalType": "uint256",
					"name": "sticket_no",
					"type": "uint256"
				}
			],
			"name": "withdrawTicketRefund",
			"outputs": [],
			"stateMutability": "nonpayable",
			"type": "function"
		}
	]
}