{
	"data": {
		"bytecode": {
			"linkReferences": {},
			"object": "6080604052348015600e575f80fd5b506104118061001c5f395ff3fe608060405234801561000f575f80fd5b5060043610610034575f3560e01c8063893d20e8146100385780639fff43bb14610056575b5f80fd5b610040610072565b60405161004d919061023d565b60405180910390f35b610070600480360381019061006b9190610284565b6100a7565b005b5f8061007c6101d2565b9050805f015f9054906101000a900473ffffffffffffffffffffffffffffffffffffffff1691505090565b5f6100b06101d2565b9050805f0160149054906101000a900460ff1615610103576040517f08c379a00000000000000000000000000000000000000000000000000000000081526004016100fa9061032f565b60405180910390fd5b5f73ffffffffffffffffffffffffffffffffffffffff168273ffffffffffffffffffffffffffffffffffffffff1603610171576040517f08c379a0000000000000000000000000000000000000000000000000000000008152600401610168906103bd565b60405180910390fd5b81815f015f6101000a81548173ffffffffffffffffffffffffffffffffffffffff021916908373ffffffffffffffffffffffffffffffffffffffff1602179055506001815f0160146101000a81548160ff0219169083151502179055505050565b5f807f755d7b3c7227e1f30e6cde2e9db88bc1d20ae16efd7e1368f3c80b4bf3d6e53a90508091505090565b5f73ffffffffffffffffffffffffffffffffffffffff82169050919050565b5f610227826101fe565b9050919050565b6102378161021d565b82525050565b5f6020820190506102505f83018461022e565b92915050565b5f80fd5b6102638161021d565b811461026d575f80fd5b50565b5f8135905061027e8161025a565b92915050565b5f6020828403121561029957610298610256565b5b5f6102a684828501610270565b91505092915050565b5f82825260208201905092915050565b7f416363657373436f6e74726f6c3a20416c726561647920696e697469616c697a5f8201527f6564000000000000000000000000000000000000000000000000000000000000602082015250565b5f6103196022836102af565b9150610324826102bf565b604082019050919050565b5f6020820190508181035f8301526103468161030d565b9050919050565b7f416363657373436f6e74726f6c3a20496e76616c6964206f776e6572206164645f8201527f7265737300000000000000000000000000000000000000000000000000000000602082015250565b5f6103a76024836102af565b91506103b28261034d565b604082019050919050565b5f6020820190508181035f8301526103d48161039b565b905091905056fea2646970667358221220b8c17b4da27d36aa64bc7c7196c776191f2743db9ebc2062aa6bcf89e110255f64736f6c634300081a0033",
			"opcodes": "PUSH1 0x80 PUSH1 0x40 MSTORE CALLVALUE DUP1 ISZERO PUSH1 0xE JUMPI PUSH0 DUP1 REVERT JUMPDEST POP PUSH2 0x411 DUP1 PUSH2 0x1C PUSH0 CODECOPY PUSH0 RETURN INVALID PUSH1 0x80 PUSH1 0x40 MSTORE CALLVALUE DUP1 ISZERO PUSH2 0xF JUMPI PUSH0 DUP1 REVERT JUMPDEST POP PUSH1 0x4 CALLDATASIZE LT PUSH2 0x34 JUMPI PUSH0 CALLDATALOAD PUSH1 0xE0 SHR DUP1 PUSH4 0x893D20E8 EQ PUSH2 0x38 JUMPI DUP1 PUSH4 0x9FFF43BB EQ PUSH2 0x56 JUMPI JUMPDEST PUSH0 DUP1 REVERT JUMPDEST PUSH2 0x40 PUSH2 0x72 JUMP JUMPDEST PUSH1 0x40 MLOAD PUSH2 0x4D SWAP2 SWAP1 PUSH2 0x23D JUMP JUMPDEST PUSH1 0x40 MLOAD DUP1 SWAP2 SUB SWAP1 RETURN JUMPDEST PUSH2 0x70 PUSH1 0x4 DUP1 CALLDATASIZE SUB DUP2 ADD SWAP1 PUSH2 0x6B SWAP2 SWAP1 PUSH2 0x284 JUMP JUMPDEST PUSH2 0xA7 JUMP JUMPDEST STOP JUMPDEST PUSH0 DUP1 PUSH2 0x7C PUSH2 0x1D2 JUMP JUMPDEST SWAP1 POP DUP1 PUSH0 ADD PUSH0 SWAP1 SLOAD SWAP1 PUSH2 0x100 EXP SWAP1 DIV PUSH20 0xFFFFFFFFFFFFFFFFFFFFFFFFFFFFFFFFFFFFFFFF AND SWAP2 POP POP SWAP1 JUMP JUMPDEST PUSH0 PUSH2 0xB0 PUSH2 0x1D2 JUMP JUMPDEST SWAP1 POP DUP1 PUSH0 ADD PUSH1 0x14 SWAP1 SLOAD SWAP1 PUSH2 0x100 EXP SWAP1 DIV PUSH1 0xFF AND ISZERO PUSH2 0x103 JUMPI PUSH1 0x40 MLOAD PUSH32 0x8C379A000000000000000000000000000000000000000000000000000000000 DUP2 MSTORE PUSH1 0x4 ADD PUSH2 0xFA SWAP1 PUSH2 0x32F JUMP JUMPDEST PUSH1 0x40 MLOAD DUP1 SWAP2 SUB SWAP1 REVERT JUMPDEST PUSH0 PUSH20 0xFFFFFFFFFFFFFFFFFFFFFFFFFFFFFFFFFFFFFFFF AND DUP3 PUSH20 0xFFFFFFFFFFFFFFFFFFFFFFFFFFFFFFFFFFFFFFFF AND SUB PUSH2 0x171 JUMPI PUSH1 0x40 MLOAD PUSH32 0x8C379A000000000000000000000000000000000000000000000000000000000 DUP2 MSTORE PUSH1 0x4 ADD PUSH2 0x168 SWAP1 PUSH2 0x3BD JUMP JUMPDEST PUSH1 0x40 MLOAD DUP1 SWAP2 SUB SWAP1 REVERT JUMPDEST DUP2 DUP2 PUSH0 ADD PUSH0 PUSH2 0x100 EXP DUP2 SLOAD DUP2 PUSH20 0xFFFFFFFFFFFFFFFFFFFFFFFFFFFFFFFFFFFFFFFF MUL NOT AND SWAP1 DUP4 PUSH20 0xFFFFFFFFFFFFFFFFFFFFFFFFFFFFFFFFFFFFFFFF AND MUL OR SWAP1 SSTORE POP PUSH1 0x1 DUP2 PUSH0 ADD PUSH1 0x14 PUSH2 0x100 EXP DUP2 SLOAD DUP2 PUSH1 0xFF MUL NOT AND SWAP1 DUP4 ISZERO ISZERO MUL OR SWAP1 SSTORE POP POP POP JUMP JUMPDEST PUSH0 DUP1 PUSH32 0x755D7B3C7227E1F30E6CDE2E9DB88BC1D20AE16EFD7E1368F3C80B4BF3D6E53A SWAP1 POP DUP1 SWAP2 POP POP SWAP1 JUMP JUMPDEST PUSH0 PUSH20 0xFFFFFFFFFFFFFFFFFFFFFFFFFFFFFFFFFFFFFFFF DUP3 AND SWAP1 POP SWAP2 SWAP1 POP JUMP JUMPDEST PUSH0 PUSH2 0x227 DUP3 PUSH2 0x1FE JUMP JUMPDEST SWAP1 POP SWAP2 SWAP1 POP JUMP JUMPDEST PUSH2 0x237 DUP2 PUSH2 0x21D JUMP JUMPDEST DUP3 MSTORE POP POP JUMP JUMPDEST PUSH0 PUSH1 0x20 DUP3 ADD SWAP1 POP PUSH2 0x250 PUSH0 DUP4 ADD DUP5 PUSH2 0x22E JUMP JUMPDEST SWAP3 SWAP2 POP POP JUMP JUMPDEST PUSH0 DUP1 REVERT JUMPDEST PUSH2 0x263 DUP2 PUSH2 0x21D JUMP JUMPDEST DUP2 EQ PUSH2 0x26D JUMPI PUSH0 DUP1 REVERT JUMPDEST POP JUMP JUMPDEST PUSH0 DUP2 CALLDATALOAD SWAP1 POP PUSH2 0x27E DUP2 PUSH2 0x25A JUMP JUMPDEST SWAP3 SWAP2 POP POP JUMP JUMPDEST PUSH0 PUSH1 0x20 DUP3 DUP5 SUB SLT ISZERO PUSH2 0x299 JUMPI PUSH2 0x298 PUSH2 0x256 JUMP JUMPDEST JUMPDEST PUSH0 PUSH2 0x2A6 DUP5 DUP3 DUP6 ADD PUSH2 0x270 JUMP JUMPDEST SWAP2 POP POP SWAP3 SWAP2 POP POP JUMP JUMPDEST PUSH0 DUP3 DUP3 MSTORE PUSH1 0x20 DUP3 ADD SWAP1 POP SWAP3 SWAP2 POP POP JUMP JUMPDEST PUSH32 0x416363657373436F6E74726F6C3A20416C726561647920696E697469616C697A PUSH0 DUP3 ADD MSTORE PUSH32 0x6564000000000000000000000000000000000000000000000000000000000000 PUSH1 0x20 DUP3 ADD MSTORE POP JUMP JUMPDEST PUSH0 PUSH2 0x319 PUSH1 0x22 DUP4 PUSH2 0x2AF JUMP JUMPDEST SWAP2 POP PUSH2 0x324 DUP3 PUSH2 0x2BF JUMP JUMPDEST PUSH1 0x40 DUP3 ADD SWAP1 POP SWAP2 SWAP1 POP JUMP JUMPDEST PUSH0 PUSH1 0x20 DUP3 ADD SWAP1 POP DUP2 DUP2 SUB PUSH0 DUP4 ADD MSTORE PUSH2 0x346 DUP2 PUSH2 0x30D JUMP JUMPDEST SWAP1 POP SWAP2 SWAP1 POP JUMP JUMPDEST PUSH32 0x416363657373436F6E74726F6C3A20496E76616C6964206F776E657220616464 PUSH0 DUP3 ADD MSTORE PUSH32 0x7265737300000000000000000000000000000000000000000000000000000000 PUSH1 0x20 DUP3 ADD MSTORE POP JUMP JUMPDEST PUSH0 PUSH2 0x3A7 PUSH1 0x24 DUP4 PUSH2 0x2AF JUMP JUMPDEST SWAP2 POP PUSH2 0x3B2 DUP3 PUSH2 0x34D JUMP JUMPDEST PUSH1 0x40 DUP3 ADD SWAP1 POP SWAP2 SWAP1 POP JUMP JUMPDEST PUSH0 PUSH1 0x20 DUP3 ADD SWAP1 POP DUP2 DUP2 SUB PUSH0 DUP4 ADD MSTORE PUSH2 0x3D4 DUP2 PUSH2 0x39B JUMP JUMPDEST SWAP1 POP SWAP2 SWAP1 POP JUMP INVALID LOG2 PUSH5 0x6970667358 0x22 SLT KECCAK256 0xB8 0xC1 PUSH28 0x4DA27D36AA64BC7C7196C776191F2743DB9EBC2062AA6BCF89E11025 PUSH0 PUSH5 0x736F6C6343 STOP ADDMOD BYTE STOP CALLER "
		},
		"gasEstimates": {
			"creation": {
				"codeDepositCost": "208200",
				"executionCost": "249",
				"totalCost": "208449"
			},
			"external": {
				"getOwner()": "2558",
				"initializeAccessControl(address)": "51346"
			}
		},
		"methodIdentifiers": {
			"getOwner()": "893d20e8",
			"initializeAccessControl(address)": "9fff43bb"
		}
	},
	"abi": [
		{
			"inputs": [],
			"name": "getOwner",
			"outputs": [
				{
					"internalType": "address",
					"name": "",
					"type": "address"
				}
			],
			"stateMutability": "view",
			"type": "function"
		},
		{
			"inputs": [
				{
					"internalType": "address",
					"name": "_owner",
					"type": "address"
				}
			],
			"name": "initializeAccessControl",
			"outputs": [],
			"stateMutability": "nonpayable",
			"type": "function"
		}
	]
}