{
	"data": {
		"bytecode": {
			"linkReferences": {},
			"object": "6080604052348015600e575f80fd5b50611bc58061001c5f395ff3fe608060405234801561000f575f80fd5b5060043610610086575f3560e01c8063adc51cdb11610059578063adc51cdb14610129578063cc42a7c514610159578063d366b2f914610189578063dc969f22146101b957610086565b80635125a2521461008a57806376b3c8a8146100945780637df858db146100c857806389b2acbc146100f8575b5f80fd5b6100926101ea565b005b6100ae60048036038101906100a99190610e77565b610467565b6040516100bf959493929190610eb1565b60405180910390f35b6100e260048036038101906100dd9190611071565b610532565b6040516100ef919061112a565b60405180910390f35b610112600480360381019061010d9190611143565b610990565b604051610120929190611181565b60405180910390f35b610143600480360381019061013e9190610e77565b610a72565b604051610150919061112a565b60405180910390f35b610173600480360381019061016e9190610e77565b610b15565b604051610180919061112a565b60405180910390f35b6101a3600480360381019061019e9190610e77565b610bb8565b6040516101b0919061121b565b60405180910390f35b6101d360048036038101906101ce9190610e77565b610c67565b6040516101e19291906112a3565b60405180910390f35b5f4290505f6101f7610da1565b90505f5b8160030154811015610462575f826001015f8381526020019081526020015f2090505f60038111156102305761022f6111a8565b5b816008015f9054906101000a900460ff166003811115610253576102526111a8565b5b036102955780600701548410610290576001816008015f6101000a81548160ff0219169083600381111561028a576102896111a8565b5b02179055505b610454565b600160038111156102a9576102a86111a8565b5b816008015f9054906101000a900460ff1660038111156102cc576102cb6111a8565b5b0361036e57805f01548410610369575f6064826003015483600101546102f291906112fe565b6102fc919061136c565b90508082600901541061033a576002826008015f6101000a81548160ff021916908360038111156103305761032f6111a8565b5b0217905550610367565b6003826008015f6101000a81548160ff02191690836003811115610361576103606111a8565b5b02179055505b505b610453565b5f6003811115610381576103806111a8565b5b816008015f9054906101000a900460ff1660038111156103a4576103a36111a8565b5b14806103e45750600160038111156103bf576103be6111a8565b5b816008015f9054906101000a900460ff1660038111156103e2576103e16111a8565b5b145b1561045257805f01548410610451575f60648260030154836001015461040a91906112fe565b610414919061136c565b9050808260090154101561044f576003826008015f6101000a81548160ff02191690836003811115610449576104486111a8565b5b02179055505b505b5b5b5b5080806001019150506101fb565b505050565b5f805f805f855f610476610da1565b90505f8211801561049757508060030154600183610494919061139c565b11155b6104d6576040517f08c379a00000000000000000000000000000000000000000000000000000000081526004016104cd90611419565b60405180910390fd5b5f6104df610da1565b90505f816001015f60018c6104f4919061139c565b81526020019081526020015f209050805f01548160010154826002015483600301548460040154985098509850985098505050505091939590929450565b5f3073ffffffffffffffffffffffffffffffffffffffff1663893d20e86040518163ffffffff1660e01b8152600401602060405180830381865afa15801561057c573d5f803e3d5ffd5b505050506040513d601f19601f820116820180604052508101906105a09190611491565b73ffffffffffffffffffffffffffffffffffffffff163373ffffffffffffffffffffffffffffffffffffffff161461060d576040517f08c379a00000000000000000000000000000000000000000000000000000000081526004016106049061152c565b60405180910390fd5b5f610616610da1565b90505f4290505f891161065e576040517f08c379a0000000000000000000000000000000000000000000000000000000008152600401610655906115ba565b60405180910390fd5b5f88116106a0576040517f08c379a000000000000000000000000000000000000000000000000000000000815260040161069790611648565b60405180910390fd5b60648711156106e4576040517f08c379a00000000000000000000000000000000000000000000000000000000081526004016106db906116d6565b60405180910390fd5b5f8611610726576040517f08c379a000000000000000000000000000000000000000000000000000000000815260040161071d90611764565b60405180910390fd5b808a11610768576040517f08c379a000000000000000000000000000000000000000000000000000000000815260040161075f906117cc565b60405180910390fd5b816003015f81548092919061077c906117ea565b91905055505f604051806101a001604052808c81526020018b81526020018a81526020018981526020018881526020018781526020018681526020016002848e6107c6919061139c565b6107d0919061136c565b846107db9190611831565b81526020015f60038111156107f3576107f26111a8565b5b81526020015f81526020015f81526020015f81526020018a67ffffffffffffffff81111561082457610823610f4d565b5b6040519080825280602002602001820160405280156108525781602001602082028036833780820191505090505b50815250905080836001015f856003015481526020019081526020015f205f820151815f01556020820151816001015560408201518160020155606082015181600301556080820151816004015560a0820151816005015560c08201518160060190816108bf9190611a5e565b5060e08201518160070155610100820151816008015f6101000a81548160ff021916908360038111156108f5576108f46111a8565b5b0217905550610120820151816009015561014082015181600a015561016082015181600b015561018082015181600c019080519060200190610938929190610dcd565b509050507fbcab9af3175c8a9d53b9308a82ee378a84c65b0c22e3dfea2afac802c73a078a83600301548c8c60405161097393929190611b2d565b60405180910390a182600301549350505050979650505050505050565b5f80825f61099c610da1565b90505f821180156109bd575080600301546001836109ba919061139c565b11155b6109fc576040517f08c379a00000000000000000000000000000000000000000000000000000000081526004016109f390611419565b60405180910390fd5b5f610a05610da1565b9050806002015f8781526020019081526020015f2080549050871115610a29575f80fd5b5f816002015f8881526020019081526020015f208881548110610a4f57610a4e611b62565b5b905f5260205f209060040201905087816001015495509550505050509250929050565b5f815f610a7d610da1565b90505f82118015610a9e57508060030154600183610a9b919061139c565b11155b610add576040517f08c379a0000000000000000000000000000000000000000000000000000000008152600401610ad490611419565b60405180910390fd5b5f610ae6610da1565b9050806001015f600187610afa919061139c565b81526020019081526020015f20600a01549350505050919050565b5f815f610b20610da1565b90505f82118015610b4157508060030154600183610b3e919061139c565b11155b610b80576040517f08c379a0000000000000000000000000000000000000000000000000000000008152600401610b7790611419565b60405180910390fd5b5f610b89610da1565b9050806001015f600187610b9d919061139c565b81526020019081526020015f20600901549350505050919050565b5f815f610bc3610da1565b90505f82118015610be457508060030154600183610be1919061139c565b11155b610c23576040517f08c379a0000000000000000000000000000000000000000000000000000000008152600401610c1a90611419565b60405180910390fd5b5f610c2c610da1565b9050806001015f600187610c40919061139c565b81526020019081526020015f206008015f9054906101000a900460ff169350505050919050565b5f6060825f610c74610da1565b90505f82118015610c9557508060030154600183610c92919061139c565b11155b610cd4576040517f08c379a0000000000000000000000000000000000000000000000000000000008152600401610ccb90611419565b60405180910390fd5b5f610cdd610da1565b90505f816001015f600189610cf2919061139c565b81526020019081526020015f209050806005015481600601808054610d1690611891565b80601f0160208091040260200160405190810160405280929190818152602001828054610d4290611891565b8015610d8d5780601f10610d6457610100808354040283529160200191610d8d565b820191905f5260205f20905b815481529060010190602001808311610d7057829003601f168201915b505050505090509550955050505050915091565b5f807f755d7b3c7227e1f30e6cde2e9db88bc1d20ae16efd7e1368f3c80b4bf3d6e53a90508091505090565b828054828255905f5260205f20908101928215610e07579160200282015b82811115610e06578251825591602001919060010190610deb565b5b509050610e149190610e18565b5090565b5b80821115610e2f575f815f905550600101610e19565b5090565b5f604051905090565b5f80fd5b5f80fd5b5f819050919050565b610e5681610e44565b8114610e60575f80fd5b50565b5f81359050610e7181610e4d565b92915050565b5f60208284031215610e8c57610e8b610e3c565b5b5f610e9984828501610e63565b91505092915050565b610eab81610e44565b82525050565b5f60a082019050610ec45f830188610ea2565b610ed16020830187610ea2565b610ede6040830186610ea2565b610eeb6060830185610ea2565b610ef86080830184610ea2565b9695505050505050565b5f819050919050565b610f1481610f02565b8114610f1e575f80fd5b50565b5f81359050610f2f81610f0b565b92915050565b5f80fd5b5f80fd5b5f601f19601f8301169050919050565b7f4e487b71000000000000000000000000000000000000000000000000000000005f52604160045260245ffd5b610f8382610f3d565b810181811067ffffffffffffffff82111715610fa257610fa1610f4d565b5b80604052505050565b5f610fb4610e33565b9050610fc08282610f7a565b919050565b5f67ffffffffffffffff821115610fdf57610fde610f4d565b5b610fe882610f3d565b9050602081019050919050565b828183375f83830152505050565b5f61101561101084610fc5565b610fab565b90508281526020810184848401111561103157611030610f39565b5b61103c848285610ff5565b509392505050565b5f82601f83011261105857611057610f35565b5b8135611068848260208601611003565b91505092915050565b5f805f805f805f60e0888a03121561108c5761108b610e3c565b5b5f6110998a828b01610e63565b97505060206110aa8a828b01610e63565b96505060406110bb8a828b01610e63565b95505060606110cc8a828b01610e63565b94505060806110dd8a828b01610e63565b93505060a06110ee8a828b01610f21565b92505060c088013567ffffffffffffffff81111561110f5761110e610e40565b5b61111b8a828b01611044565b91505092959891949750929550565b5f60208201905061113d5f830184610ea2565b92915050565b5f806040838503121561115957611158610e3c565b5b5f61116685828601610e63565b925050602061117785828601610e63565b9150509250929050565b5f6040820190506111945f830185610ea2565b6111a16020830184610ea2565b9392505050565b7f4e487b71000000000000000000000000000000000000000000000000000000005f52602160045260245ffd5b600481106111e6576111e56111a8565b5b50565b5f8190506111f6826111d5565b919050565b5f611205826111e9565b9050919050565b611215816111fb565b82525050565b5f60208201905061122e5f83018461120c565b92915050565b61123d81610f02565b82525050565b5f81519050919050565b5f82825260208201905092915050565b8281835e5f83830152505050565b5f61127582611243565b61127f818561124d565b935061128f81856020860161125d565b61129881610f3d565b840191505092915050565b5f6040820190506112b65f830185611234565b81810360208301526112c8818461126b565b90509392505050565b7f4e487b71000000000000000000000000000000000000000000000000000000005f52601160045260245ffd5b5f61130882610e44565b915061131383610e44565b925082820261132181610e44565b91508282048414831517611338576113376112d1565b5b5092915050565b7f4e487b71000000000000000000000000000000000000000000000000000000005f52601260045260245ffd5b5f61137682610e44565b915061138183610e44565b9250826113915761139061133f565b5b828204905092915050565b5f6113a682610e44565b91506113b183610e44565b92508282039050818111156113c9576113c86112d1565b5b92915050565b7f496e76616c6964206c6f7474657279206e756d626572000000000000000000005f82015250565b5f61140360168361124d565b915061140e826113cf565b602082019050919050565b5f6020820190508181035f830152611430816113f7565b9050919050565b5f73ffffffffffffffffffffffffffffffffffffffff82169050919050565b5f61146082611437565b9050919050565b61147081611456565b811461147a575f80fd5b50565b5f8151905061148b81611467565b92915050565b5f602082840312156114a6576114a5610e3c565b5b5f6114b38482850161147d565b91505092915050565b7f4f6e6c7920746865206f776e65722063616e2063616c6c20746869732066756e5f8201527f6374696f6e000000000000000000000000000000000000000000000000000000602082015250565b5f61151660258361124d565b9150611521826114bc565b604082019050919050565b5f6020820190508181035f8301526115438161150a565b9050919050565b7f4e756d626572206f66207469636b657473206d757374206265206772656174655f8201527f72207468616e2030000000000000000000000000000000000000000000000000602082015250565b5f6115a460288361124d565b91506115af8261154a565b604082019050919050565b5f6020820190508181035f8301526115d181611598565b9050919050565b7f4e756d626572206f662077696e6e657273206d757374206265206772656174655f8201527f72207468616e2030000000000000000000000000000000000000000000000000602082015250565b5f61163260288361124d565b915061163d826115d8565b604082019050919050565b5f6020820190508181035f83015261165f81611626565b9050919050565b7f4d696e696d756d2070657263656e746167652063616e6e6f74206578636565645f8201527f2031303000000000000000000000000000000000000000000000000000000000602082015250565b5f6116c060248361124d565b91506116cb82611666565b604082019050919050565b5f6020820190508181035f8301526116ed816116b4565b9050919050565b7f5469636b6574207072696365206d7573742062652067726561746572207468615f8201527f6e20300000000000000000000000000000000000000000000000000000000000602082015250565b5f61174e60238361124d565b9150611759826116f4565b604082019050919050565b5f6020820190508181035f83015261177b81611742565b9050919050565b7f54696d65206d75737420626520696e20746865206675747572650000000000005f82015250565b5f6117b6601a8361124d565b91506117c182611782565b602082019050919050565b5f6020820190508181035f8301526117e3816117aa565b9050919050565b5f6117f482610e44565b91507fffffffffffffffffffffffffffffffffffffffffffffffffffffffffffffffff8203611826576118256112d1565b5b600182019050919050565b5f61183b82610e44565b915061184683610e44565b925082820190508082111561185e5761185d6112d1565b5b92915050565b7f4e487b71000000000000000000000000000000000000000000000000000000005f52602260045260245ffd5b5f60028204905060018216806118a857607f821691505b6020821081036118bb576118ba611864565b5b50919050565b5f819050815f5260205f209050919050565b5f6020601f8301049050919050565b5f82821b905092915050565b5f6008830261191d7fffffffffffffffffffffffffffffffffffffffffffffffffffffffffffffffff826118e2565b61192786836118e2565b95508019841693508086168417925050509392505050565b5f819050919050565b5f61196261195d61195884610e44565b61193f565b610e44565b9050919050565b5f819050919050565b61197b83611948565b61198f61198782611969565b8484546118ee565b825550505050565b5f90565b6119a3611997565b6119ae818484611972565b505050565b5b818110156119d1576119c65f8261199b565b6001810190506119b4565b5050565b601f821115611a16576119e7816118c1565b6119f0846118d3565b810160208510156119ff578190505b611a13611a0b856118d3565b8301826119b3565b50505b505050565b5f82821c905092915050565b5f611a365f1984600802611a1b565b1980831691505092915050565b5f611a4e8383611a27565b9150826002028217905092915050565b611a6782611243565b67ffffffffffffffff811115611a8057611a7f610f4d565b5b611a8a8254611891565b611a958282856119d5565b5f60209050601f831160018114611ac6575f8415611ab4578287015190505b611abe8582611a43565b865550611b25565b601f198416611ad4866118c1565b5f5b82811015611afb57848901518255600182019150602085019450602081019050611ad6565b86831015611b185784890151611b14601f891682611a27565b8355505b6001600288020188555050505b505050505050565b5f606082019050611b405f830186610ea2565b611b4d6020830185610ea2565b611b5a6040830184610ea2565b949350505050565b7f4e487b71000000000000000000000000000000000000000000000000000000005f52603260045260245ffdfea26469706673582212200b77e72327c7e52108813a4a71f62df62f26985d4affa7f55a7cbf39260015d464736f6c634300081a0033",
			"opcodes": "PUSH1 0x80 PUSH1 0x40 MSTORE CALLVALUE DUP1 ISZERO PUSH1 0xE JUMPI PUSH0 DUP1 REVERT JUMPDEST POP PUSH2 0x1BC5 DUP1 PUSH2 0x1C PUSH0 CODECOPY PUSH0 RETURN INVALID PUSH1 0x80 PUSH1 0x40 MSTORE CALLVALUE DUP1 ISZERO PUSH2 0xF JUMPI PUSH0 DUP1 REVERT JUMPDEST POP PUSH1 0x4 CALLDATASIZE LT PUSH2 0x86 JUMPI PUSH0 CALLDATALOAD PUSH1 0xE0 SHR DUP1 PUSH4 0xADC51CDB GT PUSH2 0x59 JUMPI DUP1 PUSH4 0xADC51CDB EQ PUSH2 0x129 JUMPI DUP1 PUSH4 0xCC42A7C5 EQ PUSH2 0x159 JUMPI DUP1 PUSH4 0xD366B2F9 EQ PUSH2 0x189 JUMPI DUP1 PUSH4 0xDC969F22 EQ PUSH2 0x1B9 JUMPI PUSH2 0x86 JUMP JUMPDEST DUP1 PUSH4 0x5125A252 EQ PUSH2 0x8A JUMPI DUP1 PUSH4 0x76B3C8A8 EQ PUSH2 0x94 JUMPI DUP1 PUSH4 0x7DF858DB EQ PUSH2 0xC8 JUMPI DUP1 PUSH4 0x89B2ACBC EQ PUSH2 0xF8 JUMPI JUMPDEST PUSH0 DUP1 REVERT JUMPDEST PUSH2 0x92 PUSH2 0x1EA JUMP JUMPDEST STOP JUMPDEST PUSH2 0xAE PUSH1 0x4 DUP1 CALLDATASIZE SUB DUP2 ADD SWAP1 PUSH2 0xA9 SWAP2 SWAP1 PUSH2 0xE77 JUMP JUMPDEST PUSH2 0x467 JUMP JUMPDEST PUSH1 0x40 MLOAD PUSH2 0xBF SWAP6 SWAP5 SWAP4 SWAP3 SWAP2 SWAP1 PUSH2 0xEB1 JUMP JUMPDEST PUSH1 0x40 MLOAD DUP1 SWAP2 SUB SWAP1 RETURN JUMPDEST PUSH2 0xE2 PUSH1 0x4 DUP1 CALLDATASIZE SUB DUP2 ADD SWAP1 PUSH2 0xDD SWAP2 SWAP1 PUSH2 0x1071 JUMP JUMPDEST PUSH2 0x532 JUMP JUMPDEST PUSH1 0x40 MLOAD PUSH2 0xEF SWAP2 SWAP1 PUSH2 0x112A JUMP JUMPDEST PUSH1 0x40 MLOAD DUP1 SWAP2 SUB SWAP1 RETURN JUMPDEST PUSH2 0x112 PUSH1 0x4 DUP1 CALLDATASIZE SUB DUP2 ADD SWAP1 PUSH2 0x10D SWAP2 SWAP1 PUSH2 0x1143 JUMP JUMPDEST PUSH2 0x990 JUMP JUMPDEST PUSH1 0x40 MLOAD PUSH2 0x120 SWAP3 SWAP2 SWAP1 PUSH2 0x1181 JUMP JUMPDEST PUSH1 0x40 MLOAD DUP1 SWAP2 SUB SWAP1 RETURN JUMPDEST PUSH2 0x143 PUSH1 0x4 DUP1 CALLDATASIZE SUB DUP2 ADD SWAP1 PUSH2 0x13E SWAP2 SWAP1 PUSH2 0xE77 JUMP JUMPDEST PUSH2 0xA72 JUMP JUMPDEST PUSH1 0x40 MLOAD PUSH2 0x150 SWAP2 SWAP1 PUSH2 0x112A JUMP JUMPDEST PUSH1 0x40 MLOAD DUP1 SWAP2 SUB SWAP1 RETURN JUMPDEST PUSH2 0x173 PUSH1 0x4 DUP1 CALLDATASIZE SUB DUP2 ADD SWAP1 PUSH2 0x16E SWAP2 SWAP1 PUSH2 0xE77 JUMP JUMPDEST PUSH2 0xB15 JUMP JUMPDEST PUSH1 0x40 MLOAD PUSH2 0x180 SWAP2 SWAP1 PUSH2 0x112A JUMP JUMPDEST PUSH1 0x40 MLOAD DUP1 SWAP2 SUB SWAP1 RETURN JUMPDEST PUSH2 0x1A3 PUSH1 0x4 DUP1 CALLDATASIZE SUB DUP2 ADD SWAP1 PUSH2 0x19E SWAP2 SWAP1 PUSH2 0xE77 JUMP JUMPDEST PUSH2 0xBB8 JUMP JUMPDEST PUSH1 0x40 MLOAD PUSH2 0x1B0 SWAP2 SWAP1 PUSH2 0x121B JUMP JUMPDEST PUSH1 0x40 MLOAD DUP1 SWAP2 SUB SWAP1 RETURN JUMPDEST PUSH2 0x1D3 PUSH1 0x4 DUP1 CALLDATASIZE SUB DUP2 ADD SWAP1 PUSH2 0x1CE SWAP2 SWAP1 PUSH2 0xE77 JUMP JUMPDEST PUSH2 0xC67 JUMP JUMPDEST PUSH1 0x40 MLOAD PUSH2 0x1E1 SWAP3 SWAP2 SWAP1 PUSH2 0x12A3 JUMP JUMPDEST PUSH1 0x40 MLOAD DUP1 SWAP2 SUB SWAP1 RETURN JUMPDEST PUSH0 TIMESTAMP SWAP1 POP PUSH0 PUSH2 0x1F7 PUSH2 0xDA1 JUMP JUMPDEST SWAP1 POP PUSH0 JUMPDEST DUP2 PUSH1 0x3 ADD SLOAD DUP2 LT ISZERO PUSH2 0x462 JUMPI PUSH0 DUP3 PUSH1 0x1 ADD PUSH0 DUP4 DUP2 MSTORE PUSH1 0x20 ADD SWAP1 DUP2 MSTORE PUSH1 0x20 ADD PUSH0 KECCAK256 SWAP1 POP PUSH0 PUSH1 0x3 DUP2 GT ISZERO PUSH2 0x230 JUMPI PUSH2 0x22F PUSH2 0x11A8 JUMP JUMPDEST JUMPDEST DUP2 PUSH1 0x8 ADD PUSH0 SWAP1 SLOAD SWAP1 PUSH2 0x100 EXP SWAP1 DIV PUSH1 0xFF AND PUSH1 0x3 DUP2 GT ISZERO PUSH2 0x253 JUMPI PUSH2 0x252 PUSH2 0x11A8 JUMP JUMPDEST JUMPDEST SUB PUSH2 0x295 JUMPI DUP1 PUSH1 0x7 ADD SLOAD DUP5 LT PUSH2 0x290 JUMPI PUSH1 0x1 DUP2 PUSH1 0x8 ADD PUSH0 PUSH2 0x100 EXP DUP2 SLOAD DUP2 PUSH1 0xFF MUL NOT AND SWAP1 DUP4 PUSH1 0x3 DUP2 GT ISZERO PUSH2 0x28A JUMPI PUSH2 0x289 PUSH2 0x11A8 JUMP JUMPDEST JUMPDEST MUL OR SWAP1 SSTORE POP JUMPDEST PUSH2 0x454 JUMP JUMPDEST PUSH1 0x1 PUSH1 0x3 DUP2 GT ISZERO PUSH2 0x2A9 JUMPI PUSH2 0x2A8 PUSH2 0x11A8 JUMP JUMPDEST JUMPDEST DUP2 PUSH1 0x8 ADD PUSH0 SWAP1 SLOAD SWAP1 PUSH2 0x100 EXP SWAP1 DIV PUSH1 0xFF AND PUSH1 0x3 DUP2 GT ISZERO PUSH2 0x2CC JUMPI PUSH2 0x2CB PUSH2 0x11A8 JUMP JUMPDEST JUMPDEST SUB PUSH2 0x36E JUMPI DUP1 PUSH0 ADD SLOAD DUP5 LT PUSH2 0x369 JUMPI PUSH0 PUSH1 0x64 DUP3 PUSH1 0x3 ADD SLOAD DUP4 PUSH1 0x1 ADD SLOAD PUSH2 0x2F2 SWAP2 SWAP1 PUSH2 0x12FE JUMP JUMPDEST PUSH2 0x2FC SWAP2 SWAP1 PUSH2 0x136C JUMP JUMPDEST SWAP1 POP DUP1 DUP3 PUSH1 0x9 ADD SLOAD LT PUSH2 0x33A JUMPI PUSH1 0x2 DUP3 PUSH1 0x8 ADD PUSH0 PUSH2 0x100 EXP DUP2 SLOAD DUP2 PUSH1 0xFF MUL NOT AND SWAP1 DUP4 PUSH1 0x3 DUP2 GT ISZERO PUSH2 0x330 JUMPI PUSH2 0x32F PUSH2 0x11A8 JUMP JUMPDEST JUMPDEST MUL OR SWAP1 SSTORE POP PUSH2 0x367 JUMP JUMPDEST PUSH1 0x3 DUP3 PUSH1 0x8 ADD PUSH0 PUSH2 0x100 EXP DUP2 SLOAD DUP2 PUSH1 0xFF MUL NOT AND SWAP1 DUP4 PUSH1 0x3 DUP2 GT ISZERO PUSH2 0x361 JUMPI PUSH2 0x360 PUSH2 0x11A8 JUMP JUMPDEST JUMPDEST MUL OR SWAP1 SSTORE POP JUMPDEST POP JUMPDEST PUSH2 0x453 JUMP JUMPDEST PUSH0 PUSH1 0x3 DUP2 GT ISZERO PUSH2 0x381 JUMPI PUSH2 0x380 PUSH2 0x11A8 JUMP JUMPDEST JUMPDEST DUP2 PUSH1 0x8 ADD PUSH0 SWAP1 SLOAD SWAP1 PUSH2 0x100 EXP SWAP1 DIV PUSH1 0xFF AND PUSH1 0x3 DUP2 GT ISZERO PUSH2 0x3A4 JUMPI PUSH2 0x3A3 PUSH2 0x11A8 JUMP JUMPDEST JUMPDEST EQ DUP1 PUSH2 0x3E4 JUMPI POP PUSH1 0x1 PUSH1 0x3 DUP2 GT ISZERO PUSH2 0x3BF JUMPI PUSH2 0x3BE PUSH2 0x11A8 JUMP JUMPDEST JUMPDEST DUP2 PUSH1 0x8 ADD PUSH0 SWAP1 SLOAD SWAP1 PUSH2 0x100 EXP SWAP1 DIV PUSH1 0xFF AND PUSH1 0x3 DUP2 GT ISZERO PUSH2 0x3E2 JUMPI PUSH2 0x3E1 PUSH2 0x11A8 JUMP JUMPDEST JUMPDEST EQ JUMPDEST ISZERO PUSH2 0x452 JUMPI DUP1 PUSH0 ADD SLOAD DUP5 LT PUSH2 0x451 JUMPI PUSH0 PUSH1 0x64 DUP3 PUSH1 0x3 ADD SLOAD DUP4 PUSH1 0x1 ADD SLOAD PUSH2 0x40A SWAP2 SWAP1 PUSH2 0x12FE JUMP JUMPDEST PUSH2 0x414 SWAP2 SWAP1 PUSH2 0x136C JUMP JUMPDEST SWAP1 POP DUP1 DUP3 PUSH1 0x9 ADD SLOAD LT ISZERO PUSH2 0x44F JUMPI PUSH1 0x3 DUP3 PUSH1 0x8 ADD PUSH0 PUSH2 0x100 EXP DUP2 SLOAD DUP2 PUSH1 0xFF MUL NOT AND SWAP1 DUP4 PUSH1 0x3 DUP2 GT ISZERO PUSH2 0x449 JUMPI PUSH2 0x448 PUSH2 0x11A8 JUMP JUMPDEST JUMPDEST MUL OR SWAP1 SSTORE POP JUMPDEST POP JUMPDEST JUMPDEST JUMPDEST JUMPDEST POP DUP1 DUP1 PUSH1 0x1 ADD SWAP2 POP POP PUSH2 0x1FB JUMP JUMPDEST POP POP POP JUMP JUMPDEST PUSH0 DUP1 PUSH0 DUP1 PUSH0 DUP6 PUSH0 PUSH2 0x476 PUSH2 0xDA1 JUMP JUMPDEST SWAP1 POP PUSH0 DUP3 GT DUP1 ISZERO PUSH2 0x497 JUMPI POP DUP1 PUSH1 0x3 ADD SLOAD PUSH1 0x1 DUP4 PUSH2 0x494 SWAP2 SWAP1 PUSH2 0x139C JUMP JUMPDEST GT ISZERO JUMPDEST PUSH2 0x4D6 JUMPI PUSH1 0x40 MLOAD PUSH32 0x8C379A000000000000000000000000000000000000000000000000000000000 DUP2 MSTORE PUSH1 0x4 ADD PUSH2 0x4CD SWAP1 PUSH2 0x1419 JUMP JUMPDEST PUSH1 0x40 MLOAD DUP1 SWAP2 SUB SWAP1 REVERT JUMPDEST PUSH0 PUSH2 0x4DF PUSH2 0xDA1 JUMP JUMPDEST SWAP1 POP PUSH0 DUP2 PUSH1 0x1 ADD PUSH0 PUSH1 0x1 DUP13 PUSH2 0x4F4 SWAP2 SWAP1 PUSH2 0x139C JUMP JUMPDEST DUP2 MSTORE PUSH1 0x20 ADD SWAP1 DUP2 MSTORE PUSH1 0x20 ADD PUSH0 KECCAK256 SWAP1 POP DUP1 PUSH0 ADD SLOAD DUP2 PUSH1 0x1 ADD SLOAD DUP3 PUSH1 0x2 ADD SLOAD DUP4 PUSH1 0x3 ADD SLOAD DUP5 PUSH1 0x4 ADD SLOAD SWAP9 POP SWAP9 POP SWAP9 POP SWAP9 POP SWAP9 POP POP POP POP POP SWAP2 SWAP4 SWAP6 SWAP1 SWAP3 SWAP5 POP JUMP JUMPDEST PUSH0 ADDRESS PUSH20 0xFFFFFFFFFFFFFFFFFFFFFFFFFFFFFFFFFFFFFFFF AND PUSH4 0x893D20E8 PUSH1 0x40 MLOAD DUP2 PUSH4 0xFFFFFFFF AND PUSH1 0xE0 SHL DUP2 MSTORE PUSH1 0x4 ADD PUSH1 0x20 PUSH1 0x40 MLOAD DUP1 DUP4 SUB DUP2 DUP7 GAS STATICCALL ISZERO DUP1 ISZERO PUSH2 0x57C JUMPI RETURNDATASIZE PUSH0 DUP1 RETURNDATACOPY RETURNDATASIZE PUSH0 REVERT JUMPDEST POP POP POP POP PUSH1 0x40 MLOAD RETURNDATASIZE PUSH1 0x1F NOT PUSH1 0x1F DUP3 ADD AND DUP3 ADD DUP1 PUSH1 0x40 MSTORE POP DUP2 ADD SWAP1 PUSH2 0x5A0 SWAP2 SWAP1 PUSH2 0x1491 JUMP JUMPDEST PUSH20 0xFFFFFFFFFFFFFFFFFFFFFFFFFFFFFFFFFFFFFFFF AND CALLER PUSH20 0xFFFFFFFFFFFFFFFFFFFFFFFFFFFFFFFFFFFFFFFF AND EQ PUSH2 0x60D JUMPI PUSH1 0x40 MLOAD PUSH32 0x8C379A000000000000000000000000000000000000000000000000000000000 DUP2 MSTORE PUSH1 0x4 ADD PUSH2 0x604 SWAP1 PUSH2 0x152C JUMP JUMPDEST PUSH1 0x40 MLOAD DUP1 SWAP2 SUB SWAP1 REVERT JUMPDEST PUSH0 PUSH2 0x616 PUSH2 0xDA1 JUMP JUMPDEST SWAP1 POP PUSH0 TIMESTAMP SWAP1 POP PUSH0 DUP10 GT PUSH2 0x65E JUMPI PUSH1 0x40 MLOAD PUSH32 0x8C379A000000000000000000000000000000000000000000000000000000000 DUP2 MSTORE PUSH1 0x4 ADD PUSH2 0x655 SWAP1 PUSH2 0x15BA JUMP JUMPDEST PUSH1 0x40 MLOAD DUP1 SWAP2 SUB SWAP1 REVERT JUMPDEST PUSH0 DUP9 GT PUSH2 0x6A0 JUMPI PUSH1 0x40 MLOAD PUSH32 0x8C379A000000000000000000000000000000000000000000000000000000000 DUP2 MSTORE PUSH1 0x4 ADD PUSH2 0x697 SWAP1 PUSH2 0x1648 JUMP JUMPDEST PUSH1 0x40 MLOAD DUP1 SWAP2 SUB SWAP1 REVERT JUMPDEST PUSH1 0x64 DUP8 GT ISZERO PUSH2 0x6E4 JUMPI PUSH1 0x40 MLOAD PUSH32 0x8C379A000000000000000000000000000000000000000000000000000000000 DUP2 MSTORE PUSH1 0x4 ADD PUSH2 0x6DB SWAP1 PUSH2 0x16D6 JUMP JUMPDEST PUSH1 0x40 MLOAD DUP1 SWAP2 SUB SWAP1 REVERT JUMPDEST PUSH0 DUP7 GT PUSH2 0x726 JUMPI PUSH1 0x40 MLOAD PUSH32 0x8C379A000000000000000000000000000000000000000000000000000000000 DUP2 MSTORE PUSH1 0x4 ADD PUSH2 0x71D SWAP1 PUSH2 0x1764 JUMP JUMPDEST PUSH1 0x40 MLOAD DUP1 SWAP2 SUB SWAP1 REVERT JUMPDEST DUP1 DUP11 GT PUSH2 0x768 JUMPI PUSH1 0x40 MLOAD PUSH32 0x8C379A000000000000000000000000000000000000000000000000000000000 DUP2 MSTORE PUSH1 0x4 ADD PUSH2 0x75F SWAP1 PUSH2 0x17CC JUMP JUMPDEST PUSH1 0x40 MLOAD DUP1 SWAP2 SUB SWAP1 REVERT JUMPDEST DUP2 PUSH1 0x3 ADD PUSH0 DUP2 SLOAD DUP1 SWAP3 SWAP2 SWAP1 PUSH2 0x77C SWAP1 PUSH2 0x17EA JUMP JUMPDEST SWAP2 SWAP1 POP SSTORE POP PUSH0 PUSH1 0x40 MLOAD DUP1 PUSH2 0x1A0 ADD PUSH1 0x40 MSTORE DUP1 DUP13 DUP2 MSTORE PUSH1 0x20 ADD DUP12 DUP2 MSTORE PUSH1 0x20 ADD DUP11 DUP2 MSTORE PUSH1 0x20 ADD DUP10 DUP2 MSTORE PUSH1 0x20 ADD DUP9 DUP2 MSTORE PUSH1 0x20 ADD DUP8 DUP2 MSTORE PUSH1 0x20 ADD DUP7 DUP2 MSTORE PUSH1 0x20 ADD PUSH1 0x2 DUP5 DUP15 PUSH2 0x7C6 SWAP2 SWAP1 PUSH2 0x139C JUMP JUMPDEST PUSH2 0x7D0 SWAP2 SWAP1 PUSH2 0x136C JUMP JUMPDEST DUP5 PUSH2 0x7DB SWAP2 SWAP1 PUSH2 0x1831 JUMP JUMPDEST DUP2 MSTORE PUSH1 0x20 ADD PUSH0 PUSH1 0x3 DUP2 GT ISZERO PUSH2 0x7F3 JUMPI PUSH2 0x7F2 PUSH2 0x11A8 JUMP JUMPDEST JUMPDEST DUP2 MSTORE PUSH1 0x20 ADD PUSH0 DUP2 MSTORE PUSH1 0x20 ADD PUSH0 DUP2 MSTORE PUSH1 0x20 ADD PUSH0 DUP2 MSTORE PUSH1 0x20 ADD DUP11 PUSH8 0xFFFFFFFFFFFFFFFF DUP2 GT ISZERO PUSH2 0x824 JUMPI PUSH2 0x823 PUSH2 0xF4D JUMP JUMPDEST JUMPDEST PUSH1 0x40 MLOAD SWAP1 DUP1 DUP3 MSTORE DUP1 PUSH1 0x20 MUL PUSH1 0x20 ADD DUP3 ADD PUSH1 0x40 MSTORE DUP1 ISZERO PUSH2 0x852 JUMPI DUP2 PUSH1 0x20 ADD PUSH1 0x20 DUP3 MUL DUP1 CALLDATASIZE DUP4 CALLDATACOPY DUP1 DUP3 ADD SWAP2 POP POP SWAP1 POP JUMPDEST POP DUP2 MSTORE POP SWAP1 POP DUP1 DUP4 PUSH1 0x1 ADD PUSH0 DUP6 PUSH1 0x3 ADD SLOAD DUP2 MSTORE PUSH1 0x20 ADD SWAP1 DUP2 MSTORE PUSH1 0x20 ADD PUSH0 KECCAK256 PUSH0 DUP3 ADD MLOAD DUP2 PUSH0 ADD SSTORE PUSH1 0x20 DUP3 ADD MLOAD DUP2 PUSH1 0x1 ADD SSTORE PUSH1 0x40 DUP3 ADD MLOAD DUP2 PUSH1 0x2 ADD SSTORE PUSH1 0x60 DUP3 ADD MLOAD DUP2 PUSH1 0x3 ADD SSTORE PUSH1 0x80 DUP3 ADD MLOAD DUP2 PUSH1 0x4 ADD SSTORE PUSH1 0xA0 DUP3 ADD MLOAD DUP2 PUSH1 0x5 ADD SSTORE PUSH1 0xC0 DUP3 ADD MLOAD DUP2 PUSH1 0x6 ADD SWAP1 DUP2 PUSH2 0x8BF SWAP2 SWAP1 PUSH2 0x1A5E JUMP JUMPDEST POP PUSH1 0xE0 DUP3 ADD MLOAD DUP2 PUSH1 0x7 ADD SSTORE PUSH2 0x100 DUP3 ADD MLOAD DUP2 PUSH1 0x8 ADD PUSH0 PUSH2 0x100 EXP DUP2 SLOAD DUP2 PUSH1 0xFF MUL NOT AND SWAP1 DUP4 PUSH1 0x3 DUP2 GT ISZERO PUSH2 0x8F5 JUMPI PUSH2 0x8F4 PUSH2 0x11A8 JUMP JUMPDEST JUMPDEST MUL OR SWAP1 SSTORE POP PUSH2 0x120 DUP3 ADD MLOAD DUP2 PUSH1 0x9 ADD SSTORE PUSH2 0x140 DUP3 ADD MLOAD DUP2 PUSH1 0xA ADD SSTORE PUSH2 0x160 DUP3 ADD MLOAD DUP2 PUSH1 0xB ADD SSTORE PUSH2 0x180 DUP3 ADD MLOAD DUP2 PUSH1 0xC ADD SWAP1 DUP1 MLOAD SWAP1 PUSH1 0x20 ADD SWAP1 PUSH2 0x938 SWAP3 SWAP2 SWAP1 PUSH2 0xDCD JUMP JUMPDEST POP SWAP1 POP POP PUSH32 0xBCAB9AF3175C8A9D53B9308A82EE378A84C65B0C22E3DFEA2AFAC802C73A078A DUP4 PUSH1 0x3 ADD SLOAD DUP13 DUP13 PUSH1 0x40 MLOAD PUSH2 0x973 SWAP4 SWAP3 SWAP2 SWAP1 PUSH2 0x1B2D JUMP JUMPDEST PUSH1 0x40 MLOAD DUP1 SWAP2 SUB SWAP1 LOG1 DUP3 PUSH1 0x3 ADD SLOAD SWAP4 POP POP POP POP SWAP8 SWAP7 POP POP POP POP POP POP POP JUMP JUMPDEST PUSH0 DUP1 DUP3 PUSH0 PUSH2 0x99C PUSH2 0xDA1 JUMP JUMPDEST SWAP1 POP PUSH0 DUP3 GT DUP1 ISZERO PUSH2 0x9BD JUMPI POP DUP1 PUSH1 0x3 ADD SLOAD PUSH1 0x1 DUP4 PUSH2 0x9BA SWAP2 SWAP1 PUSH2 0x139C JUMP JUMPDEST GT ISZERO JUMPDEST PUSH2 0x9FC JUMPI PUSH1 0x40 MLOAD PUSH32 0x8C379A000000000000000000000000000000000000000000000000000000000 DUP2 MSTORE PUSH1 0x4 ADD PUSH2 0x9F3 SWAP1 PUSH2 0x1419 JUMP JUMPDEST PUSH1 0x40 MLOAD DUP1 SWAP2 SUB SWAP1 REVERT JUMPDEST PUSH0 PUSH2 0xA05 PUSH2 0xDA1 JUMP JUMPDEST SWAP1 POP DUP1 PUSH1 0x2 ADD PUSH0 DUP8 DUP2 MSTORE PUSH1 0x20 ADD SWAP1 DUP2 MSTORE PUSH1 0x20 ADD PUSH0 KECCAK256 DUP1 SLOAD SWAP1 POP DUP8 GT ISZERO PUSH2 0xA29 JUMPI PUSH0 DUP1 REVERT JUMPDEST PUSH0 DUP2 PUSH1 0x2 ADD PUSH0 DUP9 DUP2 MSTORE PUSH1 0x20 ADD SWAP1 DUP2 MSTORE PUSH1 0x20 ADD PUSH0 KECCAK256 DUP9 DUP2 SLOAD DUP2 LT PUSH2 0xA4F JUMPI PUSH2 0xA4E PUSH2 0x1B62 JUMP JUMPDEST JUMPDEST SWAP1 PUSH0 MSTORE PUSH1 0x20 PUSH0 KECCAK256 SWAP1 PUSH1 0x4 MUL ADD SWAP1 POP DUP8 DUP2 PUSH1 0x1 ADD SLOAD SWAP6 POP SWAP6 POP POP POP POP POP SWAP3 POP SWAP3 SWAP1 POP JUMP JUMPDEST PUSH0 DUP2 PUSH0 PUSH2 0xA7D PUSH2 0xDA1 JUMP JUMPDEST SWAP1 POP PUSH0 DUP3 GT DUP1 ISZERO PUSH2 0xA9E JUMPI POP DUP1 PUSH1 0x3 ADD SLOAD PUSH1 0x1 DUP4 PUSH2 0xA9B SWAP2 SWAP1 PUSH2 0x139C JUMP JUMPDEST GT ISZERO JUMPDEST PUSH2 0xADD JUMPI PUSH1 0x40 MLOAD PUSH32 0x8C379A000000000000000000000000000000000000000000000000000000000 DUP2 MSTORE PUSH1 0x4 ADD PUSH2 0xAD4 SWAP1 PUSH2 0x1419 JUMP JUMPDEST PUSH1 0x40 MLOAD DUP1 SWAP2 SUB SWAP1 REVERT JUMPDEST PUSH0 PUSH2 0xAE6 PUSH2 0xDA1 JUMP JUMPDEST SWAP1 POP DUP1 PUSH1 0x1 ADD PUSH0 PUSH1 0x1 DUP8 PUSH2 0xAFA SWAP2 SWAP1 PUSH2 0x139C JUMP JUMPDEST DUP2 MSTORE PUSH1 0x20 ADD SWAP1 DUP2 MSTORE PUSH1 0x20 ADD PUSH0 KECCAK256 PUSH1 0xA ADD SLOAD SWAP4 POP POP POP POP SWAP2 SWAP1 POP JUMP JUMPDEST PUSH0 DUP2 PUSH0 PUSH2 0xB20 PUSH2 0xDA1 JUMP JUMPDEST SWAP1 POP PUSH0 DUP3 GT DUP1 ISZERO PUSH2 0xB41 JUMPI POP DUP1 PUSH1 0x3 ADD SLOAD PUSH1 0x1 DUP4 PUSH2 0xB3E SWAP2 SWAP1 PUSH2 0x139C JUMP JUMPDEST GT ISZERO JUMPDEST PUSH2 0xB80 JUMPI PUSH1 0x40 MLOAD PUSH32 0x8C379A000000000000000000000000000000000000000000000000000000000 DUP2 MSTORE PUSH1 0x4 ADD PUSH2 0xB77 SWAP1 PUSH2 0x1419 JUMP JUMPDEST PUSH1 0x40 MLOAD DUP1 SWAP2 SUB SWAP1 REVERT JUMPDEST PUSH0 PUSH2 0xB89 PUSH2 0xDA1 JUMP JUMPDEST SWAP1 POP DUP1 PUSH1 0x1 ADD PUSH0 PUSH1 0x1 DUP8 PUSH2 0xB9D SWAP2 SWAP1 PUSH2 0x139C JUMP JUMPDEST DUP2 MSTORE PUSH1 0x20 ADD SWAP1 DUP2 MSTORE PUSH1 0x20 ADD PUSH0 KECCAK256 PUSH1 0x9 ADD SLOAD SWAP4 POP POP POP POP SWAP2 SWAP1 POP JUMP JUMPDEST PUSH0 DUP2 PUSH0 PUSH2 0xBC3 PUSH2 0xDA1 JUMP JUMPDEST SWAP1 POP PUSH0 DUP3 GT DUP1 ISZERO PUSH2 0xBE4 JUMPI POP DUP1 PUSH1 0x3 ADD SLOAD PUSH1 0x1 DUP4 PUSH2 0xBE1 SWAP2 SWAP1 PUSH2 0x139C JUMP JUMPDEST GT ISZERO JUMPDEST PUSH2 0xC23 JUMPI PUSH1 0x40 MLOAD PUSH32 0x8C379A000000000000000000000000000000000000000000000000000000000 DUP2 MSTORE PUSH1 0x4 ADD PUSH2 0xC1A SWAP1 PUSH2 0x1419 JUMP JUMPDEST PUSH1 0x40 MLOAD DUP1 SWAP2 SUB SWAP1 REVERT JUMPDEST PUSH0 PUSH2 0xC2C PUSH2 0xDA1 JUMP JUMPDEST SWAP1 POP DUP1 PUSH1 0x1 ADD PUSH0 PUSH1 0x1 DUP8 PUSH2 0xC40 SWAP2 SWAP1 PUSH2 0x139C JUMP JUMPDEST DUP2 MSTORE PUSH1 0x20 ADD SWAP1 DUP2 MSTORE PUSH1 0x20 ADD PUSH0 KECCAK256 PUSH1 0x8 ADD PUSH0 SWAP1 SLOAD SWAP1 PUSH2 0x100 EXP SWAP1 DIV PUSH1 0xFF AND SWAP4 POP POP POP POP SWAP2 SWAP1 POP JUMP JUMPDEST PUSH0 PUSH1 0x60 DUP3 PUSH0 PUSH2 0xC74 PUSH2 0xDA1 JUMP JUMPDEST SWAP1 POP PUSH0 DUP3 GT DUP1 ISZERO PUSH2 0xC95 JUMPI POP DUP1 PUSH1 0x3 ADD SLOAD PUSH1 0x1 DUP4 PUSH2 0xC92 SWAP2 SWAP1 PUSH2 0x139C JUMP JUMPDEST GT ISZERO JUMPDEST PUSH2 0xCD4 JUMPI PUSH1 0x40 MLOAD PUSH32 0x8C379A000000000000000000000000000000000000000000000000000000000 DUP2 MSTORE PUSH1 0x4 ADD PUSH2 0xCCB SWAP1 PUSH2 0x1419 JUMP JUMPDEST PUSH1 0x40 MLOAD DUP1 SWAP2 SUB SWAP1 REVERT JUMPDEST PUSH0 PUSH2 0xCDD PUSH2 0xDA1 JUMP JUMPDEST SWAP1 POP PUSH0 DUP2 PUSH1 0x1 ADD PUSH0 PUSH1 0x1 DUP10 PUSH2 0xCF2 SWAP2 SWAP1 PUSH2 0x139C JUMP JUMPDEST DUP2 MSTORE PUSH1 0x20 ADD SWAP1 DUP2 MSTORE PUSH1 0x20 ADD PUSH0 KECCAK256 SWAP1 POP DUP1 PUSH1 0x5 ADD SLOAD DUP2 PUSH1 0x6 ADD DUP1 DUP1 SLOAD PUSH2 0xD16 SWAP1 PUSH2 0x1891 JUMP JUMPDEST DUP1 PUSH1 0x1F ADD PUSH1 0x20 DUP1 SWAP2 DIV MUL PUSH1 0x20 ADD PUSH1 0x40 MLOAD SWAP1 DUP2 ADD PUSH1 0x40 MSTORE DUP1 SWAP3 SWAP2 SWAP1 DUP2 DUP2 MSTORE PUSH1 0x20 ADD DUP3 DUP1 SLOAD PUSH2 0xD42 SWAP1 PUSH2 0x1891 JUMP JUMPDEST DUP1 ISZERO PUSH2 0xD8D JUMPI DUP1 PUSH1 0x1F LT PUSH2 0xD64 JUMPI PUSH2 0x100 DUP1 DUP4 SLOAD DIV MUL DUP4 MSTORE SWAP2 PUSH1 0x20 ADD SWAP2 PUSH2 0xD8D JUMP JUMPDEST DUP3 ADD SWAP2 SWAP1 PUSH0 MSTORE PUSH1 0x20 PUSH0 KECCAK256 SWAP1 JUMPDEST DUP2 SLOAD DUP2 MSTORE SWAP1 PUSH1 0x1 ADD SWAP1 PUSH1 0x20 ADD DUP1 DUP4 GT PUSH2 0xD70 JUMPI DUP3 SWAP1 SUB PUSH1 0x1F AND DUP3 ADD SWAP2 JUMPDEST POP POP POP POP POP SWAP1 POP SWAP6 POP SWAP6 POP POP POP POP POP SWAP2 POP SWAP2 JUMP JUMPDEST PUSH0 DUP1 PUSH32 0x755D7B3C7227E1F30E6CDE2E9DB88BC1D20AE16EFD7E1368F3C80B4BF3D6E53A SWAP1 POP DUP1 SWAP2 POP POP SWAP1 JUMP JUMPDEST DUP3 DUP1 SLOAD DUP3 DUP3 SSTORE SWAP1 PUSH0 MSTORE PUSH1 0x20 PUSH0 KECCAK256 SWAP1 DUP2 ADD SWAP3 DUP3 ISZERO PUSH2 0xE07 JUMPI SWAP2 PUSH1 0x20 MUL DUP3 ADD JUMPDEST DUP3 DUP2 GT ISZERO PUSH2 0xE06 JUMPI DUP3 MLOAD DUP3 SSTORE SWAP2 PUSH1 0x20 ADD SWAP2 SWAP1 PUSH1 0x1 ADD SWAP1 PUSH2 0xDEB JUMP JUMPDEST JUMPDEST POP SWAP1 POP PUSH2 0xE14 SWAP2 SWAP1 PUSH2 0xE18 JUMP JUMPDEST POP SWAP1 JUMP JUMPDEST JUMPDEST DUP1 DUP3 GT ISZERO PUSH2 0xE2F JUMPI PUSH0 DUP2 PUSH0 SWAP1 SSTORE POP PUSH1 0x1 ADD PUSH2 0xE19 JUMP JUMPDEST POP SWAP1 JUMP JUMPDEST PUSH0 PUSH1 0x40 MLOAD SWAP1 POP SWAP1 JUMP JUMPDEST PUSH0 DUP1 REVERT JUMPDEST PUSH0 DUP1 REVERT JUMPDEST PUSH0 DUP2 SWAP1 POP SWAP2 SWAP1 POP JUMP JUMPDEST PUSH2 0xE56 DUP2 PUSH2 0xE44 JUMP JUMPDEST DUP2 EQ PUSH2 0xE60 JUMPI PUSH0 DUP1 REVERT JUMPDEST POP JUMP JUMPDEST PUSH0 DUP2 CALLDATALOAD SWAP1 POP PUSH2 0xE71 DUP2 PUSH2 0xE4D JUMP JUMPDEST SWAP3 SWAP2 POP POP JUMP JUMPDEST PUSH0 PUSH1 0x20 DUP3 DUP5 SUB SLT ISZERO PUSH2 0xE8C JUMPI PUSH2 0xE8B PUSH2 0xE3C JUMP JUMPDEST JUMPDEST PUSH0 PUSH2 0xE99 DUP5 DUP3 DUP6 ADD PUSH2 0xE63 JUMP JUMPDEST SWAP2 POP POP SWAP3 SWAP2 POP POP JUMP JUMPDEST PUSH2 0xEAB DUP2 PUSH2 0xE44 JUMP JUMPDEST DUP3 MSTORE POP POP JUMP JUMPDEST PUSH0 PUSH1 0xA0 DUP3 ADD SWAP1 POP PUSH2 0xEC4 PUSH0 DUP4 ADD DUP9 PUSH2 0xEA2 JUMP JUMPDEST PUSH2 0xED1 PUSH1 0x20 DUP4 ADD DUP8 PUSH2 0xEA2 JUMP JUMPDEST PUSH2 0xEDE PUSH1 0x40 DUP4 ADD DUP7 PUSH2 0xEA2 JUMP JUMPDEST PUSH2 0xEEB PUSH1 0x60 DUP4 ADD DUP6 PUSH2 0xEA2 JUMP JUMPDEST PUSH2 0xEF8 PUSH1 0x80 DUP4 ADD DUP5 PUSH2 0xEA2 JUMP JUMPDEST SWAP7 SWAP6 POP POP POP POP POP POP JUMP JUMPDEST PUSH0 DUP2 SWAP1 POP SWAP2 SWAP1 POP JUMP JUMPDEST PUSH2 0xF14 DUP2 PUSH2 0xF02 JUMP JUMPDEST DUP2 EQ PUSH2 0xF1E JUMPI PUSH0 DUP1 REVERT JUMPDEST POP JUMP JUMPDEST PUSH0 DUP2 CALLDATALOAD SWAP1 POP PUSH2 0xF2F DUP2 PUSH2 0xF0B JUMP JUMPDEST SWAP3 SWAP2 POP POP JUMP JUMPDEST PUSH0 DUP1 REVERT JUMPDEST PUSH0 DUP1 REVERT JUMPDEST PUSH0 PUSH1 0x1F NOT PUSH1 0x1F DUP4 ADD AND SWAP1 POP SWAP2 SWAP1 POP JUMP JUMPDEST PUSH32 0x4E487B7100000000000000000000000000000000000000000000000000000000 PUSH0 MSTORE PUSH1 0x41 PUSH1 0x4 MSTORE PUSH1 0x24 PUSH0 REVERT JUMPDEST PUSH2 0xF83 DUP3 PUSH2 0xF3D JUMP JUMPDEST DUP2 ADD DUP2 DUP2 LT PUSH8 0xFFFFFFFFFFFFFFFF DUP3 GT OR ISZERO PUSH2 0xFA2 JUMPI PUSH2 0xFA1 PUSH2 0xF4D JUMP JUMPDEST JUMPDEST DUP1 PUSH1 0x40 MSTORE POP POP POP JUMP JUMPDEST PUSH0 PUSH2 0xFB4 PUSH2 0xE33 JUMP JUMPDEST SWAP1 POP PUSH2 0xFC0 DUP3 DUP3 PUSH2 0xF7A JUMP JUMPDEST SWAP2 SWAP1 POP JUMP JUMPDEST PUSH0 PUSH8 0xFFFFFFFFFFFFFFFF DUP3 GT ISZERO PUSH2 0xFDF JUMPI PUSH2 0xFDE PUSH2 0xF4D JUMP JUMPDEST JUMPDEST PUSH2 0xFE8 DUP3 PUSH2 0xF3D JUMP JUMPDEST SWAP1 POP PUSH1 0x20 DUP2 ADD SWAP1 POP SWAP2 SWAP1 POP JUMP JUMPDEST DUP3 DUP2 DUP4 CALLDATACOPY PUSH0 DUP4 DUP4 ADD MSTORE POP POP POP JUMP JUMPDEST PUSH0 PUSH2 0x1015 PUSH2 0x1010 DUP5 PUSH2 0xFC5 JUMP JUMPDEST PUSH2 0xFAB JUMP JUMPDEST SWAP1 POP DUP3 DUP2 MSTORE PUSH1 0x20 DUP2 ADD DUP5 DUP5 DUP5 ADD GT ISZERO PUSH2 0x1031 JUMPI PUSH2 0x1030 PUSH2 0xF39 JUMP JUMPDEST JUMPDEST PUSH2 0x103C DUP5 DUP3 DUP6 PUSH2 0xFF5 JUMP JUMPDEST POP SWAP4 SWAP3 POP POP POP JUMP JUMPDEST PUSH0 DUP3 PUSH1 0x1F DUP4 ADD SLT PUSH2 0x1058 JUMPI PUSH2 0x1057 PUSH2 0xF35 JUMP JUMPDEST JUMPDEST DUP2 CALLDATALOAD PUSH2 0x1068 DUP5 DUP3 PUSH1 0x20 DUP7 ADD PUSH2 0x1003 JUMP JUMPDEST SWAP2 POP POP SWAP3 SWAP2 POP POP JUMP JUMPDEST PUSH0 DUP1 PUSH0 DUP1 PUSH0 DUP1 PUSH0 PUSH1 0xE0 DUP9 DUP11 SUB SLT ISZERO PUSH2 0x108C JUMPI PUSH2 0x108B PUSH2 0xE3C JUMP JUMPDEST JUMPDEST PUSH0 PUSH2 0x1099 DUP11 DUP3 DUP12 ADD PUSH2 0xE63 JUMP JUMPDEST SWAP8 POP POP PUSH1 0x20 PUSH2 0x10AA DUP11 DUP3 DUP12 ADD PUSH2 0xE63 JUMP JUMPDEST SWAP7 POP POP PUSH1 0x40 PUSH2 0x10BB DUP11 DUP3 DUP12 ADD PUSH2 0xE63 JUMP JUMPDEST SWAP6 POP POP PUSH1 0x60 PUSH2 0x10CC DUP11 DUP3 DUP12 ADD PUSH2 0xE63 JUMP JUMPDEST SWAP5 POP POP PUSH1 0x80 PUSH2 0x10DD DUP11 DUP3 DUP12 ADD PUSH2 0xE63 JUMP JUMPDEST SWAP4 POP POP PUSH1 0xA0 PUSH2 0x10EE DUP11 DUP3 DUP12 ADD PUSH2 0xF21 JUMP JUMPDEST SWAP3 POP POP PUSH1 0xC0 DUP9 ADD CALLDATALOAD PUSH8 0xFFFFFFFFFFFFFFFF DUP2 GT ISZERO PUSH2 0x110F JUMPI PUSH2 0x110E PUSH2 0xE40 JUMP JUMPDEST JUMPDEST PUSH2 0x111B DUP11 DUP3 DUP12 ADD PUSH2 0x1044 JUMP JUMPDEST SWAP2 POP POP SWAP3 SWAP6 SWAP9 SWAP2 SWAP5 SWAP8 POP SWAP3 SWAP6 POP JUMP JUMPDEST PUSH0 PUSH1 0x20 DUP3 ADD SWAP1 POP PUSH2 0x113D PUSH0 DUP4 ADD DUP5 PUSH2 0xEA2 JUMP JUMPDEST SWAP3 SWAP2 POP POP JUMP JUMPDEST PUSH0 DUP1 PUSH1 0x40 DUP4 DUP6 SUB SLT ISZERO PUSH2 0x1159 JUMPI PUSH2 0x1158 PUSH2 0xE3C JUMP JUMPDEST JUMPDEST PUSH0 PUSH2 0x1166 DUP6 DUP3 DUP7 ADD PUSH2 0xE63 JUMP JUMPDEST SWAP3 POP POP PUSH1 0x20 PUSH2 0x1177 DUP6 DUP3 DUP7 ADD PUSH2 0xE63 JUMP JUMPDEST SWAP2 POP POP SWAP3 POP SWAP3 SWAP1 POP JUMP JUMPDEST PUSH0 PUSH1 0x40 DUP3 ADD SWAP1 POP PUSH2 0x1194 PUSH0 DUP4 ADD DUP6 PUSH2 0xEA2 JUMP JUMPDEST PUSH2 0x11A1 PUSH1 0x20 DUP4 ADD DUP5 PUSH2 0xEA2 JUMP JUMPDEST SWAP4 SWAP3 POP POP POP JUMP JUMPDEST PUSH32 0x4E487B7100000000000000000000000000000000000000000000000000000000 PUSH0 MSTORE PUSH1 0x21 PUSH1 0x4 MSTORE PUSH1 0x24 PUSH0 REVERT JUMPDEST PUSH1 0x4 DUP2 LT PUSH2 0x11E6 JUMPI PUSH2 0x11E5 PUSH2 0x11A8 JUMP JUMPDEST JUMPDEST POP JUMP JUMPDEST PUSH0 DUP2 SWAP1 POP PUSH2 0x11F6 DUP3 PUSH2 0x11D5 JUMP JUMPDEST SWAP2 SWAP1 POP JUMP JUMPDEST PUSH0 PUSH2 0x1205 DUP3 PUSH2 0x11E9 JUMP JUMPDEST SWAP1 POP SWAP2 SWAP1 POP JUMP JUMPDEST PUSH2 0x1215 DUP2 PUSH2 0x11FB JUMP JUMPDEST DUP3 MSTORE POP POP JUMP JUMPDEST PUSH0 PUSH1 0x20 DUP3 ADD SWAP1 POP PUSH2 0x122E PUSH0 DUP4 ADD DUP5 PUSH2 0x120C JUMP JUMPDEST SWAP3 SWAP2 POP POP JUMP JUMPDEST PUSH2 0x123D DUP2 PUSH2 0xF02 JUMP JUMPDEST DUP3 MSTORE POP POP JUMP JUMPDEST PUSH0 DUP2 MLOAD SWAP1 POP SWAP2 SWAP1 POP JUMP JUMPDEST PUSH0 DUP3 DUP3 MSTORE PUSH1 0x20 DUP3 ADD SWAP1 POP SWAP3 SWAP2 POP POP JUMP JUMPDEST DUP3 DUP2 DUP4 MCOPY PUSH0 DUP4 DUP4 ADD MSTORE POP POP POP JUMP JUMPDEST PUSH0 PUSH2 0x1275 DUP3 PUSH2 0x1243 JUMP JUMPDEST PUSH2 0x127F DUP2 DUP6 PUSH2 0x124D JUMP JUMPDEST SWAP4 POP PUSH2 0x128F DUP2 DUP6 PUSH1 0x20 DUP7 ADD PUSH2 0x125D JUMP JUMPDEST PUSH2 0x1298 DUP2 PUSH2 0xF3D JUMP JUMPDEST DUP5 ADD SWAP2 POP POP SWAP3 SWAP2 POP POP JUMP JUMPDEST PUSH0 PUSH1 0x40 DUP3 ADD SWAP1 POP PUSH2 0x12B6 PUSH0 DUP4 ADD DUP6 PUSH2 0x1234 JUMP JUMPDEST DUP2 DUP2 SUB PUSH1 0x20 DUP4 ADD MSTORE PUSH2 0x12C8 DUP2 DUP5 PUSH2 0x126B JUMP JUMPDEST SWAP1 POP SWAP4 SWAP3 POP POP POP JUMP JUMPDEST PUSH32 0x4E487B7100000000000000000000000000000000000000000000000000000000 PUSH0 MSTORE PUSH1 0x11 PUSH1 0x4 MSTORE PUSH1 0x24 PUSH0 REVERT JUMPDEST PUSH0 PUSH2 0x1308 DUP3 PUSH2 0xE44 JUMP JUMPDEST SWAP2 POP PUSH2 0x1313 DUP4 PUSH2 0xE44 JUMP JUMPDEST SWAP3 POP DUP3 DUP3 MUL PUSH2 0x1321 DUP2 PUSH2 0xE44 JUMP JUMPDEST SWAP2 POP DUP3 DUP3 DIV DUP5 EQ DUP4 ISZERO OR PUSH2 0x1338 JUMPI PUSH2 0x1337 PUSH2 0x12D1 JUMP JUMPDEST JUMPDEST POP SWAP3 SWAP2 POP POP JUMP JUMPDEST PUSH32 0x4E487B7100000000000000000000000000000000000000000000000000000000 PUSH0 MSTORE PUSH1 0x12 PUSH1 0x4 MSTORE PUSH1 0x24 PUSH0 REVERT JUMPDEST PUSH0 PUSH2 0x1376 DUP3 PUSH2 0xE44 JUMP JUMPDEST SWAP2 POP PUSH2 0x1381 DUP4 PUSH2 0xE44 JUMP JUMPDEST SWAP3 POP DUP3 PUSH2 0x1391 JUMPI PUSH2 0x1390 PUSH2 0x133F JUMP JUMPDEST JUMPDEST DUP3 DUP3 DIV SWAP1 POP SWAP3 SWAP2 POP POP JUMP JUMPDEST PUSH0 PUSH2 0x13A6 DUP3 PUSH2 0xE44 JUMP JUMPDEST SWAP2 POP PUSH2 0x13B1 DUP4 PUSH2 0xE44 JUMP JUMPDEST SWAP3 POP DUP3 DUP3 SUB SWAP1 POP DUP2 DUP2 GT ISZERO PUSH2 0x13C9 JUMPI PUSH2 0x13C8 PUSH2 0x12D1 JUMP JUMPDEST JUMPDEST SWAP3 SWAP2 POP POP JUMP JUMPDEST PUSH32 0x496E76616C6964206C6F7474657279206E756D62657200000000000000000000 PUSH0 DUP3 ADD MSTORE POP JUMP JUMPDEST PUSH0 PUSH2 0x1403 PUSH1 0x16 DUP4 PUSH2 0x124D JUMP JUMPDEST SWAP2 POP PUSH2 0x140E DUP3 PUSH2 0x13CF JUMP JUMPDEST PUSH1 0x20 DUP3 ADD SWAP1 POP SWAP2 SWAP1 POP JUMP JUMPDEST PUSH0 PUSH1 0x20 DUP3 ADD SWAP1 POP DUP2 DUP2 SUB PUSH0 DUP4 ADD MSTORE PUSH2 0x1430 DUP2 PUSH2 0x13F7 JUMP JUMPDEST SWAP1 POP SWAP2 SWAP1 POP JUMP JUMPDEST PUSH0 PUSH20 0xFFFFFFFFFFFFFFFFFFFFFFFFFFFFFFFFFFFFFFFF DUP3 AND SWAP1 POP SWAP2 SWAP1 POP JUMP JUMPDEST PUSH0 PUSH2 0x1460 DUP3 PUSH2 0x1437 JUMP JUMPDEST SWAP1 POP SWAP2 SWAP1 POP JUMP JUMPDEST PUSH2 0x1470 DUP2 PUSH2 0x1456 JUMP JUMPDEST DUP2 EQ PUSH2 0x147A JUMPI PUSH0 DUP1 REVERT JUMPDEST POP JUMP JUMPDEST PUSH0 DUP2 MLOAD SWAP1 POP PUSH2 0x148B DUP2 PUSH2 0x1467 JUMP JUMPDEST SWAP3 SWAP2 POP POP JUMP JUMPDEST PUSH0 PUSH1 0x20 DUP3 DUP5 SUB SLT ISZERO PUSH2 0x14A6 JUMPI PUSH2 0x14A5 PUSH2 0xE3C JUMP JUMPDEST JUMPDEST PUSH0 PUSH2 0x14B3 DUP5 DUP3 DUP6 ADD PUSH2 0x147D JUMP JUMPDEST SWAP2 POP POP SWAP3 SWAP2 POP POP JUMP JUMPDEST PUSH32 0x4F6E6C7920746865206F776E65722063616E2063616C6C20746869732066756E PUSH0 DUP3 ADD MSTORE PUSH32 0x6374696F6E000000000000000000000000000000000000000000000000000000 PUSH1 0x20 DUP3 ADD MSTORE POP JUMP JUMPDEST PUSH0 PUSH2 0x1516 PUSH1 0x25 DUP4 PUSH2 0x124D JUMP JUMPDEST SWAP2 POP PUSH2 0x1521 DUP3 PUSH2 0x14BC JUMP JUMPDEST PUSH1 0x40 DUP3 ADD SWAP1 POP SWAP2 SWAP1 POP JUMP JUMPDEST PUSH0 PUSH1 0x20 DUP3 ADD SWAP1 POP DUP2 DUP2 SUB PUSH0 DUP4 ADD MSTORE PUSH2 0x1543 DUP2 PUSH2 0x150A JUMP JUMPDEST SWAP1 POP SWAP2 SWAP1 POP JUMP JUMPDEST PUSH32 0x4E756D626572206F66207469636B657473206D75737420626520677265617465 PUSH0 DUP3 ADD MSTORE PUSH32 0x72207468616E2030000000000000000000000000000000000000000000000000 PUSH1 0x20 DUP3 ADD MSTORE POP JUMP JUMPDEST PUSH0 PUSH2 0x15A4 PUSH1 0x28 DUP4 PUSH2 0x124D JUMP JUMPDEST SWAP2 POP PUSH2 0x15AF DUP3 PUSH2 0x154A JUMP JUMPDEST PUSH1 0x40 DUP3 ADD SWAP1 POP SWAP2 SWAP1 POP JUMP JUMPDEST PUSH0 PUSH1 0x20 DUP3 ADD SWAP1 POP DUP2 DUP2 SUB PUSH0 DUP4 ADD MSTORE PUSH2 0x15D1 DUP2 PUSH2 0x1598 JUMP JUMPDEST SWAP1 POP SWAP2 SWAP1 POP JUMP JUMPDEST PUSH32 0x4E756D626572206F662077696E6E657273206D75737420626520677265617465 PUSH0 DUP3 ADD MSTORE PUSH32 0x72207468616E2030000000000000000000000000000000000000000000000000 PUSH1 0x20 DUP3 ADD MSTORE POP JUMP JUMPDEST PUSH0 PUSH2 0x1632 PUSH1 0x28 DUP4 PUSH2 0x124D JUMP JUMPDEST SWAP2 POP PUSH2 0x163D DUP3 PUSH2 0x15D8 JUMP JUMPDEST PUSH1 0x40 DUP3 ADD SWAP1 POP SWAP2 SWAP1 POP JUMP JUMPDEST PUSH0 PUSH1 0x20 DUP3 ADD SWAP1 POP DUP2 DUP2 SUB PUSH0 DUP4 ADD MSTORE PUSH2 0x165F DUP2 PUSH2 0x1626 JUMP JUMPDEST SWAP1 POP SWAP2 SWAP1 POP JUMP JUMPDEST PUSH32 0x4D696E696D756D2070657263656E746167652063616E6E6F7420657863656564 PUSH0 DUP3 ADD MSTORE PUSH32 0x2031303000000000000000000000000000000000000000000000000000000000 PUSH1 0x20 DUP3 ADD MSTORE POP JUMP JUMPDEST PUSH0 PUSH2 0x16C0 PUSH1 0x24 DUP4 PUSH2 0x124D JUMP JUMPDEST SWAP2 POP PUSH2 0x16CB DUP3 PUSH2 0x1666 JUMP JUMPDEST PUSH1 0x40 DUP3 ADD SWAP1 POP SWAP2 SWAP1 POP JUMP JUMPDEST PUSH0 PUSH1 0x20 DUP3 ADD SWAP1 POP DUP2 DUP2 SUB PUSH0 DUP4 ADD MSTORE PUSH2 0x16ED DUP2 PUSH2 0x16B4 JUMP JUMPDEST SWAP1 POP SWAP2 SWAP1 POP JUMP JUMPDEST PUSH32 0x5469636B6574207072696365206D757374206265206772656174657220746861 PUSH0 DUP3 ADD MSTORE PUSH32 0x6E20300000000000000000000000000000000000000000000000000000000000 PUSH1 0x20 DUP3 ADD MSTORE POP JUMP JUMPDEST PUSH0 PUSH2 0x174E PUSH1 0x23 DUP4 PUSH2 0x124D JUMP JUMPDEST SWAP2 POP PUSH2 0x1759 DUP3 PUSH2 0x16F4 JUMP JUMPDEST PUSH1 0x40 DUP3 ADD SWAP1 POP SWAP2 SWAP1 POP JUMP JUMPDEST PUSH0 PUSH1 0x20 DUP3 ADD SWAP1 POP DUP2 DUP2 SUB PUSH0 DUP4 ADD MSTORE PUSH2 0x177B DUP2 PUSH2 0x1742 JUMP JUMPDEST SWAP1 POP SWAP2 SWAP1 POP JUMP JUMPDEST PUSH32 0x54696D65206D75737420626520696E2074686520667574757265000000000000 PUSH0 DUP3 ADD MSTORE POP JUMP JUMPDEST PUSH0 PUSH2 0x17B6 PUSH1 0x1A DUP4 PUSH2 0x124D JUMP JUMPDEST SWAP2 POP PUSH2 0x17C1 DUP3 PUSH2 0x1782 JUMP JUMPDEST PUSH1 0x20 DUP3 ADD SWAP1 POP SWAP2 SWAP1 POP JUMP JUMPDEST PUSH0 PUSH1 0x20 DUP3 ADD SWAP1 POP DUP2 DUP2 SUB PUSH0 DUP4 ADD MSTORE PUSH2 0x17E3 DUP2 PUSH2 0x17AA JUMP JUMPDEST SWAP1 POP SWAP2 SWAP1 POP JUMP JUMPDEST PUSH0 PUSH2 0x17F4 DUP3 PUSH2 0xE44 JUMP JUMPDEST SWAP2 POP PUSH32 0xFFFFFFFFFFFFFFFFFFFFFFFFFFFFFFFFFFFFFFFFFFFFFFFFFFFFFFFFFFFFFFFF DUP3 SUB PUSH2 0x1826 JUMPI PUSH2 0x1825 PUSH2 0x12D1 JUMP JUMPDEST JUMPDEST PUSH1 0x1 DUP3 ADD SWAP1 POP SWAP2 SWAP1 POP JUMP JUMPDEST PUSH0 PUSH2 0x183B DUP3 PUSH2 0xE44 JUMP JUMPDEST SWAP2 POP PUSH2 0x1846 DUP4 PUSH2 0xE44 JUMP JUMPDEST SWAP3 POP DUP3 DUP3 ADD SWAP1 POP DUP1 DUP3 GT ISZERO PUSH2 0x185E JUMPI PUSH2 0x185D PUSH2 0x12D1 JUMP JUMPDEST JUMPDEST SWAP3 SWAP2 POP POP JUMP JUMPDEST PUSH32 0x4E487B7100000000000000000000000000000000000000000000000000000000 PUSH0 MSTORE PUSH1 0x22 PUSH1 0x4 MSTORE PUSH1 0x24 PUSH0 REVERT JUMPDEST PUSH0 PUSH1 0x2 DUP3 DIV SWAP1 POP PUSH1 0x1 DUP3 AND DUP1 PUSH2 0x18A8 JUMPI PUSH1 0x7F DUP3 AND SWAP2 POP JUMPDEST PUSH1 0x20 DUP3 LT DUP2 SUB PUSH2 0x18BB JUMPI PUSH2 0x18BA PUSH2 0x1864 JUMP JUMPDEST JUMPDEST POP SWAP2 SWAP1 POP JUMP JUMPDEST PUSH0 DUP2 SWAP1 POP DUP2 PUSH0 MSTORE PUSH1 0x20 PUSH0 KECCAK256 SWAP1 POP SWAP2 SWAP1 POP JUMP JUMPDEST PUSH0 PUSH1 0x20 PUSH1 0x1F DUP4 ADD DIV SWAP1 POP SWAP2 SWAP1 POP JUMP JUMPDEST PUSH0 DUP3 DUP3 SHL SWAP1 POP SWAP3 SWAP2 POP POP JUMP JUMPDEST PUSH0 PUSH1 0x8 DUP4 MUL PUSH2 0x191D PUSH32 0xFFFFFFFFFFFFFFFFFFFFFFFFFFFFFFFFFFFFFFFFFFFFFFFFFFFFFFFFFFFFFFFF DUP3 PUSH2 0x18E2 JUMP JUMPDEST PUSH2 0x1927 DUP7 DUP4 PUSH2 0x18E2 JUMP JUMPDEST SWAP6 POP DUP1 NOT DUP5 AND SWAP4 POP DUP1 DUP7 AND DUP5 OR SWAP3 POP POP POP SWAP4 SWAP3 POP POP POP JUMP JUMPDEST PUSH0 DUP2 SWAP1 POP SWAP2 SWAP1 POP JUMP JUMPDEST PUSH0 PUSH2 0x1962 PUSH2 0x195D PUSH2 0x1958 DUP5 PUSH2 0xE44 JUMP JUMPDEST PUSH2 0x193F JUMP JUMPDEST PUSH2 0xE44 JUMP JUMPDEST SWAP1 POP SWAP2 SWAP1 POP JUMP JUMPDEST PUSH0 DUP2 SWAP1 POP SWAP2 SWAP1 POP JUMP JUMPDEST PUSH2 0x197B DUP4 PUSH2 0x1948 JUMP JUMPDEST PUSH2 0x198F PUSH2 0x1987 DUP3 PUSH2 0x1969 JUMP JUMPDEST DUP5 DUP5 SLOAD PUSH2 0x18EE JUMP JUMPDEST DUP3 SSTORE POP POP POP POP JUMP JUMPDEST PUSH0 SWAP1 JUMP JUMPDEST PUSH2 0x19A3 PUSH2 0x1997 JUMP JUMPDEST PUSH2 0x19AE DUP2 DUP5 DUP5 PUSH2 0x1972 JUMP JUMPDEST POP POP POP JUMP JUMPDEST JUMPDEST DUP2 DUP2 LT ISZERO PUSH2 0x19D1 JUMPI PUSH2 0x19C6 PUSH0 DUP3 PUSH2 0x199B JUMP JUMPDEST PUSH1 0x1 DUP2 ADD SWAP1 POP PUSH2 0x19B4 JUMP JUMPDEST POP POP JUMP JUMPDEST PUSH1 0x1F DUP3 GT ISZERO PUSH2 0x1A16 JUMPI PUSH2 0x19E7 DUP2 PUSH2 0x18C1 JUMP JUMPDEST PUSH2 0x19F0 DUP5 PUSH2 0x18D3 JUMP JUMPDEST DUP2 ADD PUSH1 0x20 DUP6 LT ISZERO PUSH2 0x19FF JUMPI DUP2 SWAP1 POP JUMPDEST PUSH2 0x1A13 PUSH2 0x1A0B DUP6 PUSH2 0x18D3 JUMP JUMPDEST DUP4 ADD DUP3 PUSH2 0x19B3 JUMP JUMPDEST POP POP JUMPDEST POP POP POP JUMP JUMPDEST PUSH0 DUP3 DUP3 SHR SWAP1 POP SWAP3 SWAP2 POP POP JUMP JUMPDEST PUSH0 PUSH2 0x1A36 PUSH0 NOT DUP5 PUSH1 0x8 MUL PUSH2 0x1A1B JUMP JUMPDEST NOT DUP1 DUP4 AND SWAP2 POP POP SWAP3 SWAP2 POP POP JUMP JUMPDEST PUSH0 PUSH2 0x1A4E DUP4 DUP4 PUSH2 0x1A27 JUMP JUMPDEST SWAP2 POP DUP3 PUSH1 0x2 MUL DUP3 OR SWAP1 POP SWAP3 SWAP2 POP POP JUMP JUMPDEST PUSH2 0x1A67 DUP3 PUSH2 0x1243 JUMP JUMPDEST PUSH8 0xFFFFFFFFFFFFFFFF DUP2 GT ISZERO PUSH2 0x1A80 JUMPI PUSH2 0x1A7F PUSH2 0xF4D JUMP JUMPDEST JUMPDEST PUSH2 0x1A8A DUP3 SLOAD PUSH2 0x1891 JUMP JUMPDEST PUSH2 0x1A95 DUP3 DUP3 DUP6 PUSH2 0x19D5 JUMP JUMPDEST PUSH0 PUSH1 0x20 SWAP1 POP PUSH1 0x1F DUP4 GT PUSH1 0x1 DUP2 EQ PUSH2 0x1AC6 JUMPI PUSH0 DUP5 ISZERO PUSH2 0x1AB4 JUMPI DUP3 DUP8 ADD MLOAD SWAP1 POP JUMPDEST PUSH2 0x1ABE DUP6 DUP3 PUSH2 0x1A43 JUMP JUMPDEST DUP7 SSTORE POP PUSH2 0x1B25 JUMP JUMPDEST PUSH1 0x1F NOT DUP5 AND PUSH2 0x1AD4 DUP7 PUSH2 0x18C1 JUMP JUMPDEST PUSH0 JUMPDEST DUP3 DUP2 LT ISZERO PUSH2 0x1AFB JUMPI DUP5 DUP10 ADD MLOAD DUP3 SSTORE PUSH1 0x1 DUP3 ADD SWAP2 POP PUSH1 0x20 DUP6 ADD SWAP5 POP PUSH1 0x20 DUP2 ADD SWAP1 POP PUSH2 0x1AD6 JUMP JUMPDEST DUP7 DUP4 LT ISZERO PUSH2 0x1B18 JUMPI DUP5 DUP10 ADD MLOAD PUSH2 0x1B14 PUSH1 0x1F DUP10 AND DUP3 PUSH2 0x1A27 JUMP JUMPDEST DUP4 SSTORE POP JUMPDEST PUSH1 0x1 PUSH1 0x2 DUP9 MUL ADD DUP9 SSTORE POP POP POP JUMPDEST POP POP POP POP POP POP JUMP JUMPDEST PUSH0 PUSH1 0x60 DUP3 ADD SWAP1 POP PUSH2 0x1B40 PUSH0 DUP4 ADD DUP7 PUSH2 0xEA2 JUMP JUMPDEST PUSH2 0x1B4D PUSH1 0x20 DUP4 ADD DUP6 PUSH2 0xEA2 JUMP JUMPDEST PUSH2 0x1B5A PUSH1 0x40 DUP4 ADD DUP5 PUSH2 0xEA2 JUMP JUMPDEST SWAP5 SWAP4 POP POP POP POP JUMP JUMPDEST PUSH32 0x4E487B7100000000000000000000000000000000000000000000000000000000 PUSH0 MSTORE PUSH1 0x32 PUSH1 0x4 MSTORE PUSH1 0x24 PUSH0 REVERT INVALID LOG2 PUSH5 0x6970667358 0x22 SLT KECCAK256 SIGNEXTEND PUSH24 0xE72327C7E52108813A4A71F62DF62F26985D4AFFA7F55A7C 0xBF CODECOPY 0x26 STOP ISZERO 0xD4 PUSH5 0x736F6C6343 STOP ADDMOD BYTE STOP CALLER "
		},
		"gasEstimates": {
			"creation": {
				"codeDepositCost": "1421800",
				"executionCost": "1484",
				"totalCost": "1423284"
			},
			"external": {
				"createLottery(uint256,uint256,uint256,uint256,uint256,bytes32,string)": "infinite",
				"getIthPurchasedTicketTx(uint256,uint256)": "infinite",
				"getLotteryInfo(uint256)": "infinite",
				"getLotterySales(uint256)": "infinite",
				"getLotteryState(uint256)": "infinite",
				"getLotteryURL(uint256)": "infinite",
				"getNumPurchaseTxs(uint256)": "infinite",
				"updateLotteryStates()": "infinite"
			}
		},
		"methodIdentifiers": {
			"createLottery(uint256,uint256,uint256,uint256,uint256,bytes32,string)": "7df858db",
			"getIthPurchasedTicketTx(uint256,uint256)": "89b2acbc",
			"getLotteryInfo(uint256)": "76b3c8a8",
			"getLotterySales(uint256)": "cc42a7c5",
			"getLotteryState(uint256)": "d366b2f9",
			"getLotteryURL(uint256)": "dc969f22",
			"getNumPurchaseTxs(uint256)": "adc51cdb",
			"updateLotteryStates()": "5125a252"
		}
	},
	"abi": [
		{
			"anonymous": false,
			"inputs": [
				{
					"indexed": false,
					"internalType": "uint256",
					"name": "lottery_no",
					"type": "uint256"
				},
				{
					"indexed": false,
					"internalType": "uint256",
					"name": "unixbeg",
					"type": "uint256"
				},
				{
					"indexed": false,
					"internalType": "uint256",
					"name": "nooftickets",
					"type": "uint256"
				}
			],
			"name": "LotteryCreated",
			"type": "event"
		},
		{
			"inputs": [
				{
					"internalType": "uint256",
					"name": "unixbeg",
					"type": "uint256"
				},
				{
					"internalType": "uint256",
					"name": "nooftickets",
					"type": "uint256"
				},
				{
					"internalType": "uint256",
					"name": "noofwinners",
					"type": "uint256"
				},
				{
					"internalType": "uint256",
					"name": "minpercentage",
					"type": "uint256"
				},
				{
					"internalType": "uint256",
					"name": "ticketprice",
					"type": "uint256"
				},
				{
					"internalType": "bytes32",
					"name": "htmlhash",
					"type": "bytes32"
				},
				{
					"internalType": "string",
					"name": "url",
					"type": "string"
				}
			],
			"name": "createLottery",
			"outputs": [
				{
					"internalType": "uint256",
					"name": "lottery_no",
					"type": "uint256"
				}
			],
			"stateMutability": "nonpayable",
			"type": "function"
		},
		{
			"inputs": [
				{
					"internalType": "uint256",
					"name": "i",
					"type": "uint256"
				},
				{
					"internalType": "uint256",
					"name": "lottery_no",
					"type": "uint256"
				}
			],
			"name": "getIthPurchasedTicketTx",
			"outputs": [
				{
					"internalType": "uint256",
					"name": "sticketno",
					"type": "uint256"
				},
				{
					"internalType": "uint256",
					"name": "quantity",
					"type": "uint256"
				}
			],
			"stateMutability": "view",
			"type": "function"
		},
		{
			"inputs": [
				{
					"internalType": "uint256",
					"name": "lottery_no",
					"type": "uint256"
				}
			],
			"name": "getLotteryInfo",
			"outputs": [
				{
					"internalType": "uint256",
					"name": "unixbeg",
					"type": "uint256"
				},
				{
					"internalType": "uint256",
					"name": "nooftickets",
					"type": "uint256"
				},
				{
					"internalType": "uint256",
					"name": "noofwinners",
					"type": "uint256"
				},
				{
					"internalType": "uint256",
					"name": "minpercentage",
					"type": "uint256"
				},
				{
					"internalType": "uint256",
					"name": "ticketprice",
					"type": "uint256"
				}
			],
			"stateMutability": "view",
			"type": "function"
		},
		{
			"inputs": [
				{
					"internalType": "uint256",
					"name": "lottery_no",
					"type": "uint256"
				}
			],
			"name": "getLotterySales",
			"outputs": [
				{
					"internalType": "uint256",
					"name": "numsold",
					"type": "uint256"
				}
			],
			"stateMutability": "view",
			"type": "function"
		},
		{
			"inputs": [
				{
					"internalType": "uint256",
					"name": "lottery_no",
					"type": "uint256"
				}
			],
			"name": "getLotteryState",
			"outputs": [
				{
					"internalType": "enum LotteryStructs.LotteryState",
					"name": "",
					"type": "uint8"
				}
			],
			"stateMutability": "view",
			"type": "function"
		},
		{
			"inputs": [
				{
					"internalType": "uint256",
					"name": "lottery_no",
					"type": "uint256"
				}
			],
			"name": "getLotteryURL",
			"outputs": [
				{
					"internalType": "bytes32",
					"name": "htmlhash",
					"type": "bytes32"
				},
				{
					"internalType": "string",
					"name": "url",
					"type": "string"
				}
			],
			"stateMutability": "view",
			"type": "function"
		},
		{
			"inputs": [
				{
					"internalType": "uint256",
					"name": "lottery_no",
					"type": "uint256"
				}
			],
			"name": "getNumPurchaseTxs",
			"outputs": [
				{
					"internalType": "uint256",
					"name": "numpurchasetxs",
					"type": "uint256"
				}
			],
			"stateMutability": "view",
			"type": "function"
		},
		{
			"inputs": [],
			"name": "updateLotteryStates",
			"outputs": [],
			"stateMutability": "nonpayable",
			"type": "function"
		}
	]
}