{
	"data": {
		"bytecode": {
			"linkReferences": {},
			"object": "608060405234801561000f575f80fd5b506040516131ab3803806131ab83398181016040528101906100319190610114565b3360015f6101000a81548173ffffffffffffffffffffffffffffffffffffffff021916908373ffffffffffffffffffffffffffffffffffffffff160217905550805f806101000a81548173ffffffffffffffffffffffffffffffffffffffff021916908373ffffffffffffffffffffffffffffffffffffffff1602179055505061013f565b5f80fd5b5f73ffffffffffffffffffffffffffffffffffffffff82169050919050565b5f6100e3826100ba565b9050919050565b6100f3816100d9565b81146100fd575f80fd5b50565b5f8151905061010e816100ea565b92915050565b5f60208284031215610129576101286100b6565b5b5f61013684828501610100565b91505092915050565b61305f8061014c5f395ff3fe608060405234801561000f575f80fd5b506004361061014b575f3560e01c80638da5cb5b116100c1578063cdc2aebf1161007a578063cdc2aebf1461041c578063d5ed4d5a1461044c578063dc969f221461046a578063e5d387a51461049b578063efe43338146104cf578063fba2b874146104ff5761014b565b80638da5cb5b146103225780639065c3351461034057806391e19a2d1461035c578063adc51cdb1461038c578063bd731a06146103bc578063cc42a7c5146103ec5761014b565b80635bddbaac116101135780635bddbaac14610229578063603d3d3a14610259578063687e47d8146102895780636a326ab1146102a55780637df858db146102c157806389b2acbc146102f15761014b565b80630400f4d01461014f57806312b349d51461016d5780631398e0761461019d57806349c0de88146101d85780635b7b3d581461020b575b5f80fd5b61015761052f565b6040516101649190611ac8565b60405180910390f35b61018760048036038101906101829190611b25565b610545565b6040516101949190611b7d565b60405180910390f35b6101b760048036038101906101b29190611b96565b6105bb565b6040516101cf9c9b9a99989796959493929190611d0a565b60405180910390f35b6101f260048036038101906101ed9190611b25565b6106c8565b6040516102029493929190611de4565b60405180910390f35b610213610745565b6040516102209190611ac8565b60405180910390f35b610243600480360381019061023e9190611e51565b61075e565b6040516102509190611b7d565b60405180910390f35b610273600480360381019061026e9190611b25565b610983565b6040516102809190611ea1565b60405180910390f35b6102a3600480360381019061029e9190611b25565b6109ae565b005b6102bf60048036038101906102ba9190611eba565b610a7a565b005b6102db60048036038101906102d6919061203b565b610be4565b6040516102e89190611ea1565b60405180910390f35b61030b60048036038101906103069190611b25565b611020565b6040516103199291906120f4565b60405180910390f35b61032a6110d7565b604051610337919061211b565b60405180910390f35b61035a60048036038101906103559190612134565b6110fc565b005b61037660048036038101906103719190611b25565b6113b9565b6040516103839190611ea1565b60405180910390f35b6103a660048036038101906103a19190611b96565b6113e4565b6040516103b39190611ea1565b60405180910390f35b6103d660048036038101906103d191906121c2565b611401565b6040516103e39190611ea1565b60405180910390f35b61040660048036038101906104019190611b96565b61183b565b6040516104139190611ea1565b60405180910390f35b61043660048036038101906104319190611b96565b611858565b604051610443919061211b565b60405180910390f35b610454611894565b604051610461919061226d565b60405180910390f35b610484600480360381019061047f9190611b96565b6118b7565b604051610492929190612286565b60405180910390f35b6104b560048036038101906104b091906122de565b61196b565b6040516104c6959493929190612309565b60405180910390f35b6104e960048036038101906104e49190611b96565b6119b6565b6040516104f69190611ea1565b60405180910390f35b61051960048036038101906105149190611e51565b611a74565b6040516105269190611ea1565b60405180910390f35b600160149054906101000a900463ffffffff1681565b5f805f90505b60045f8581526020019081526020015f20805490508110156105b0578260045f8681526020019081526020015f20828154811061058b5761058a61235a565b5b905f5260205f200154036105a35760019150506105b5565b808060010191505061054b565b505f90505b92915050565b6002602052805f5260405f205f91509050805f015490806001015490806002015490806003015490806004015490806005015490806006015f9054906101000a900460ff169080600701549080600801549080600901549080600a018054610622906123b4565b80601f016020809104026020016040519081016040528092919081815260200182805461064e906123b4565b80156106995780601f1061067057610100808354040283529160200191610699565b820191905f5260205f20905b81548152906001019060200180831161067c57829003601f168201915b50505050509080600b015f9054906101000a900473ffffffffffffffffffffffffffffffffffffffff1690508c565b6003602052815f5260405f2081815481106106e1575f80fd5b905f5260205f2090600302015f9150915050805f015f9054906101000a900473ffffffffffffffffffffffffffffffffffffffff1690805f0160149054906101000a900460ff1690806001015490806002015f9054906101000a900460ff16905084565b5f600160149054906101000a900463ffffffff16905090565b5f6003600481111561077357610772611bd0565b5b60025f8581526020019081526020015f206006015f9054906101000a900460ff1660048111156107a6576107a5611bd0565b5b146107e6576040517f08c379a00000000000000000000000000000000000000000000000000000000081526004016107dd9061242e565b60405180910390fd5b5f60045f8581526020019081526020015f2080548060200260200160405190810160405280929190818152602001828054801561084057602002820191905f5260205f20905b81548152602001906001019080831161082c575b505050505090505f60065f8773ffffffffffffffffffffffffffffffffffffffff1673ffffffffffffffffffffffffffffffffffffffff1681526020019081526020015f205f8681526020019081526020015f208054806020026020016040519081016040528092919081815260200182805480156108dc57602002820191905f5260205f20905b8154815260200190600101908083116108c8575b505050505090505f805b825181101561092657858382815181106109035761090261235a565b5b6020026020010151036109195760019150610926565b80806001019150506108e6565b508015610975575f5b8351811015610973578584828151811061094c5761094b61235a565b5b60200260200101510361096657600194505050505061097c565b808060010191505061092f565b505b5f93505050505b9392505050565b6004602052815f5260405f20818154811061099c575f80fd5b905f5260205f20015f91509150505481565b5f60025f8481526020019081526020015f2090506004808111156109d5576109d4611bd0565b5b816006015f9054906101000a900460ff1660048111156109f8576109f7611bd0565b5b14610a38576040517f08c379a0000000000000000000000000000000000000000000000000000000008152600401610a2f90612496565b60405180910390fd5b5f7f6909eb935886ad8c734c29844350c36b0260f7006ff58559a3c286a9e7c8d878843383604051610a6c939291906124b4565b60405180910390a150505050565b60015f9054906101000a900473ffffffffffffffffffffffffffffffffffffffff1673ffffffffffffffffffffffffffffffffffffffff163373ffffffffffffffffffffffffffffffffffffffff1614610b09576040517f08c379a0000000000000000000000000000000000000000000000000000000008152600401610b0090612559565b60405180910390fd5b5f73ffffffffffffffffffffffffffffffffffffffff168173ffffffffffffffffffffffffffffffffffffffff1603610b77576040517f08c379a0000000000000000000000000000000000000000000000000000000008152600401610b6e906125c1565b60405180910390fd5b8060025f600160149054906101000a900463ffffffff1663ffffffff1681526020019081526020015f20600b015f6101000a81548173ffffffffffffffffffffffffffffffffffffffff021916908373ffffffffffffffffffffffffffffffffffffffff16021790555050565b5f60015f9054906101000a900473ffffffffffffffffffffffffffffffffffffffff1673ffffffffffffffffffffffffffffffffffffffff163373ffffffffffffffffffffffffffffffffffffffff1614610c74576040517f08c379a0000000000000000000000000000000000000000000000000000000008152600401610c6b90612559565b60405180910390fd5b5f8611610cb6576040517f08c379a0000000000000000000000000000000000000000000000000000000008152600401610cad90612629565b60405180910390fd5b6064851115610cfa576040517f08c379a0000000000000000000000000000000000000000000000000000000008152600401610cf1906126b7565b60405180910390fd5b6001601481819054906101000a900463ffffffff1680929190610d1c90612702565b91906101000a81548163ffffffff021916908363ffffffff16021790555050428811610d7d576040517f08c379a0000000000000000000000000000000000000000000000000000000008152600401610d749061279d565b60405180910390fd5b6001601481819054906101000a900463ffffffff1680929190610d9f90612702565b91906101000a81548163ffffffff021916908363ffffffff160217905550505f6002428a610dcd91906127bb565b610dd7919061281b565b89610de2919061284b565b90505f428a610df191906127bb565b8a610dfc919061284b565b90506040518061018001604052808b81526020018a81526020018981526020018881526020018781526020015f815260200160016004811115610e4257610e41611bd0565b5b81526020015f81526020015f81526020018681526020018581526020015f8054906101000a900473ffffffffffffffffffffffffffffffffffffffff1673ffffffffffffffffffffffffffffffffffffffff1681525060025f600160149054906101000a900463ffffffff1663ffffffff1681526020019081526020015f205f820151815f01556020820151816001015560408201518160020155606082015181600301556080820151816004015560a0820151816005015560c0820151816006015f6101000a81548160ff02191690836004811115610f2557610f24611bd0565b5b021790555060e082015181600701556101008201518160080155610120820151816009015561014082015181600a019081610f609190612a12565b5061016082015181600b015f6101000a81548173ffffffffffffffffffffffffffffffffffffffff021916908373ffffffffffffffffffffffffffffffffffffffff1602179055509050507fbcab9af3175c8a9d53b9308a82ee378a84c65b0c22e3dfea2afac802c73a078a600160149054906101000a900463ffffffff168b8b604051610ff093929190612b11565b60405180910390a1600160149054906101000a900463ffffffff1663ffffffff1692505050979650505050505050565b5f8060018461102f91906127bb565b935060035f8481526020019081526020015f20805490508410611087576040517f08c379a000000000000000000000000000000000000000000000000000000000815260040161107e90612b90565b60405180910390fd5b5f60035f8581526020019081526020015f2085815481106110ab576110aa61235a565b5b905f5260205f209060030201905084815f0160149054906101000a900460ff1692509250509250929050565b60015f9054906101000a900473ffffffffffffffffffffffffffffffffffffffff1681565b60035f8581526020019081526020015f20805490508310611152576040517f08c379a000000000000000000000000000000000000000000000000000000000815260040161114990612bf8565b60405180910390fd5b5f60035f8681526020019081526020015f2084815481106111765761117561235a565b5b905f5260205f20906003020190503373ffffffffffffffffffffffffffffffffffffffff16815f015f9054906101000a900473ffffffffffffffffffffffffffffffffffffffff1673ffffffffffffffffffffffffffffffffffffffff1614611214576040517f08c379a000000000000000000000000000000000000000000000000000000000815260040161120b90612c60565b60405180910390fd5b82815f0160149054906101000a900460ff1660ff1614611269576040517f08c379a000000000000000000000000000000000000000000000000000000000815260040161126090612cc8565b60405180910390fd5b806002015f9054906101000a900460ff16156112ba576040517f08c379a00000000000000000000000000000000000000000000000000000000081526004016112b190612d30565b60405180910390fd5b816040516020016112cb9190612d6e565b60405160208183030381529060405280519060200120816001015414611326576040517f08c379a000000000000000000000000000000000000000000000000000000000815260040161131d90612df8565b60405180910390fd5b6001816002015f6101000a81548160ff02191690831515021790555060055f8681526020019081526020015f2082908060018154018082558091505060019003905f5260205f20015f90919091909150557fb404d5122f9c343795903cd3906f44902818ed6e1270eab69b9a14b2bef0d6818585846040516113aa93929190612e16565b60405180910390a15050505050565b6005602052815f5260405f2081815481106113d2575f80fd5b905f5260205f20015f91509150505481565b5f60025f8381526020019081526020015f20600701549050919050565b5f6001600481111561141657611415611bd0565b5b60025f8681526020019081526020015f206006015f9054906101000a900460ff16600481111561144957611448611bd0565b5b14611489576040517f08c379a000000000000000000000000000000000000000000000000000000000815260040161148090612e95565b60405180910390fd5b60025f8581526020019081526020015f205f015442106114de576040517f08c379a00000000000000000000000000000000000000000000000000000000081526004016114d590612efd565b60405180910390fd5b60025f8581526020019081526020015f20600101548360ff1660025f8781526020019081526020015f2060050154611516919061284b565b1115611557576040517f08c379a000000000000000000000000000000000000000000000000000000000815260040161154e90612f65565b60405180910390fd5b5f60025f8681526020019081526020015f20600401548460ff1661157b9190612f83565b90505f60405180608001604052803373ffffffffffffffffffffffffffffffffffffffff1681526020018660ff1681526020018581526020015f1515815250905060035f8781526020019081526020015f2081908060018154018082558091505060019003905f5260205f2090600302015f909190919091505f820151815f015f6101000a81548173ffffffffffffffffffffffffffffffffffffffff021916908373ffffffffffffffffffffffffffffffffffffffff1602179055506020820151815f0160146101000a81548160ff021916908360ff160217905550604082015181600101556060820151816002015f6101000a81548160ff0219169083151502179055505050600160035f8881526020019081526020015f20805490506116a491906127bb565b92508460ff1660025f8881526020019081526020015f206005015f8282546116cc919061284b565b925050819055505f5b8560ff168160ff1610156117a1575f60025f8981526020019081526020015f20600801549050600181611708919061284b565b90508060025f8a81526020019081526020015f206008018190555060065f3373ffffffffffffffffffffffffffffffffffffffff1673ffffffffffffffffffffffffffffffffffffffff1681526020019081526020015f205f8981526020019081526020015f2081908060018154018082558091505060019003905f5260205f20015f90919091909150555080806001019150506116d5565b50600160025f600160149054906101000a900463ffffffff1663ffffffff1681526020019081526020015f206007015f8282546117de919061284b565b925050819055507f59ba75d1e0d1e869a644823386ddc51adc655a6ef73720e56b8eebbb9a47ae07600160149054906101000a900463ffffffff16848760405161182a93929190612fc4565b60405180910390a150509392505050565b5f60025f8381526020019081526020015f20600501549050919050565b5f60025f8381526020019081526020015f20600b015f9054906101000a900473ffffffffffffffffffffffffffffffffffffffff169050919050565b5f8054906101000a900473ffffffffffffffffffffffffffffffffffffffff1681565b5f60605f60025f8581526020019081526020015f209050806009015481600a018080546118e3906123b4565b80601f016020809104026020016040519081016040528092919081815260200182805461190f906123b4565b801561195a5780601f106119315761010080835404028352916020019161195a565b820191905f5260205f20905b81548152906001019060200180831161193d57829003601f168201915b505050505090509250925050915091565b5f805f805f8060025f8863ffffffff1681526020019081526020015f209050805f01548160010154826002015483600301548460040154955095509550955095505091939590929450565b5f805f90505f5b60055f8581526020019081526020015f2080549050811015611a1b575f60055f8681526020019081526020015f2082815481106119fd576119fc61235a565b5b905f5260205f200154905080831892505080806001019150506119bd565b505f60055f8581526020019081526020015f208054905082611a3d9190612ff9565b905060055f8581526020019081526020015f208181548110611a6257611a6161235a565b5b905f5260205f20015492505050919050565b6006602052825f5260405f20602052815f5260405f208181548110611a97575f80fd5b905f5260205f20015f9250925050505481565b5f63ffffffff82169050919050565b611ac281611aaa565b82525050565b5f602082019050611adb5f830184611ab9565b92915050565b5f604051905090565b5f80fd5b5f80fd5b5f819050919050565b611b0481611af2565b8114611b0e575f80fd5b50565b5f81359050611b1f81611afb565b92915050565b5f8060408385031215611b3b57611b3a611aea565b5b5f611b4885828601611b11565b9250506020611b5985828601611b11565b9150509250929050565b5f8115159050919050565b611b7781611b63565b82525050565b5f602082019050611b905f830184611b6e565b92915050565b5f60208284031215611bab57611baa611aea565b5b5f611bb884828501611b11565b91505092915050565b611bca81611af2565b82525050565b7f4e487b71000000000000000000000000000000000000000000000000000000005f52602160045260245ffd5b60058110611c0e57611c0d611bd0565b5b50565b5f819050611c1e82611bfd565b919050565b5f611c2d82611c11565b9050919050565b611c3d81611c23565b82525050565b5f819050919050565b611c5581611c43565b82525050565b5f81519050919050565b5f82825260208201905092915050565b8281835e5f83830152505050565b5f601f19601f8301169050919050565b5f611c9d82611c5b565b611ca78185611c65565b9350611cb7818560208601611c75565b611cc081611c83565b840191505092915050565b5f73ffffffffffffffffffffffffffffffffffffffff82169050919050565b5f611cf482611ccb565b9050919050565b611d0481611cea565b82525050565b5f61018082019050611d1e5f83018f611bc1565b611d2b602083018e611bc1565b611d38604083018d611bc1565b611d45606083018c611bc1565b611d52608083018b611bc1565b611d5f60a083018a611bc1565b611d6c60c0830189611c34565b611d7960e0830188611bc1565b611d87610100830187611bc1565b611d95610120830186611c4c565b818103610140830152611da88185611c93565b9050611db8610160830184611cfb565b9d9c50505050505050505050505050565b5f60ff82169050919050565b611dde81611dc9565b82525050565b5f608082019050611df75f830187611cfb565b611e046020830186611dd5565b611e116040830185611c4c565b611e1e6060830184611b6e565b95945050505050565b611e3081611cea565b8114611e3a575f80fd5b50565b5f81359050611e4b81611e27565b92915050565b5f805f60608486031215611e6857611e67611aea565b5b5f611e7586828701611e3d565b9350506020611e8686828701611b11565b9250506040611e9786828701611b11565b9150509250925092565b5f602082019050611eb45f830184611bc1565b92915050565b5f60208284031215611ecf57611ece611aea565b5b5f611edc84828501611e3d565b91505092915050565b611eee81611c43565b8114611ef8575f80fd5b50565b5f81359050611f0981611ee5565b92915050565b5f80fd5b5f80fd5b7f4e487b71000000000000000000000000000000000000000000000000000000005f52604160045260245ffd5b611f4d82611c83565b810181811067ffffffffffffffff82111715611f6c57611f6b611f17565b5b80604052505050565b5f611f7e611ae1565b9050611f8a8282611f44565b919050565b5f67ffffffffffffffff821115611fa957611fa8611f17565b5b611fb282611c83565b9050602081019050919050565b828183375f83830152505050565b5f611fdf611fda84611f8f565b611f75565b905082815260208101848484011115611ffb57611ffa611f13565b5b612006848285611fbf565b509392505050565b5f82601f83011261202257612021611f0f565b5b8135612032848260208601611fcd565b91505092915050565b5f805f805f805f60e0888a03121561205657612055611aea565b5b5f6120638a828b01611b11565b97505060206120748a828b01611b11565b96505060406120858a828b01611b11565b95505060606120968a828b01611b11565b94505060806120a78a828b01611b11565b93505060a06120b88a828b01611efb565b92505060c088013567ffffffffffffffff8111156120d9576120d8611aee565b5b6120e58a828b0161200e565b91505092959891949750929550565b5f6040820190506121075f830185611bc1565b6121146020830184611dd5565b9392505050565b5f60208201905061212e5f830184611cfb565b92915050565b5f805f806080858703121561214c5761214b611aea565b5b5f61215987828801611b11565b945050602061216a87828801611b11565b935050604061217b87828801611b11565b925050606061218c87828801611b11565b91505092959194509250565b6121a181611dc9565b81146121ab575f80fd5b50565b5f813590506121bc81612198565b92915050565b5f805f606084860312156121d9576121d8611aea565b5b5f6121e686828701611b11565b93505060206121f7868287016121ae565b925050604061220886828701611efb565b9150509250925092565b5f819050919050565b5f61223561223061222b84611ccb565b612212565b611ccb565b9050919050565b5f6122468261221b565b9050919050565b5f6122578261223c565b9050919050565b6122678161224d565b82525050565b5f6020820190506122805f83018461225e565b92915050565b5f6040820190506122995f830185611c4c565b81810360208301526122ab8184611c93565b90509392505050565b6122bd81611aaa565b81146122c7575f80fd5b50565b5f813590506122d8816122b4565b92915050565b5f602082840312156122f3576122f2611aea565b5b5f612300848285016122ca565b91505092915050565b5f60a08201905061231c5f830188611bc1565b6123296020830187611bc1565b6123366040830186611bc1565b6123436060830185611bc1565b6123506080830184611bc1565b9695505050505050565b7f4e487b71000000000000000000000000000000000000000000000000000000005f52603260045260245ffd5b7f4e487b71000000000000000000000000000000000000000000000000000000005f52602260045260245ffd5b5f60028204905060018216806123cb57607f821691505b6020821081036123de576123dd612387565b5b50919050565b7f4c6f747465727920686173206e6f7420656e64656400000000000000000000005f82015250565b5f612418601583611c65565b9150612423826123e4565b602082019050919050565b5f6020820190508181035f8301526124458161240c565b9050919050565b7f4c6f7474657279206973206e6f742063616e63656c65640000000000000000005f82015250565b5f612480601783611c65565b915061248b8261244c565b602082019050919050565b5f6020820190508181035f8301526124ad81612474565b9050919050565b5f6060820190506124c75f830186611bc1565b6124d46020830185611cfb565b6124e16040830184611bc1565b949350505050565b7f4f6e6c7920746865206f776e65722063616e2063616c6c20746869732066756e5f8201527f6374696f6e000000000000000000000000000000000000000000000000000000602082015250565b5f612543602583611c65565b915061254e826124e9565b604082019050919050565b5f6020820190508181035f83015261257081612537565b9050919050565b7f496e76616c696420746f6b656e206164647265737300000000000000000000005f82015250565b5f6125ab601583611c65565b91506125b682612577565b602082019050919050565b5f6020820190508181035f8301526125d88161259f565b9050919050565b7f4174206c65617374206f6e652077696e6e6572207265717569726564000000005f82015250565b5f612613601c83611c65565b915061261e826125df565b602082019050919050565b5f6020820190508181035f83015261264081612607565b9050919050565b7f4d696e2070617274696369706174696f6e2063616e6e6f7420657863656564205f8201527f3130300000000000000000000000000000000000000000000000000000000000602082015250565b5f6126a1602383611c65565b91506126ac82612647565b604082019050919050565b5f6020820190508181035f8301526126ce81612695565b9050919050565b7f4e487b71000000000000000000000000000000000000000000000000000000005f52601160045260245ffd5b5f61270c82611aaa565b915063ffffffff8203612722576127216126d5565b5b600182019050919050565b7f4c6f74746572792073746172742074696d65206d75737420626520696e2074685f8201527f65206675747572652e0000000000000000000000000000000000000000000000602082015250565b5f612787602983611c65565b91506127928261272d565b604082019050919050565b5f6020820190508181035f8301526127b48161277b565b9050919050565b5f6127c582611af2565b91506127d083611af2565b92508282039050818111156127e8576127e76126d5565b5b92915050565b7f4e487b71000000000000000000000000000000000000000000000000000000005f52601260045260245ffd5b5f61282582611af2565b915061283083611af2565b9250826128405761283f6127ee565b5b828204905092915050565b5f61285582611af2565b915061286083611af2565b9250828201905080821115612878576128776126d5565b5b92915050565b5f819050815f5260205f209050919050565b5f6020601f8301049050919050565b5f82821b905092915050565b5f600883026128da7fffffffffffffffffffffffffffffffffffffffffffffffffffffffffffffffff8261289f565b6128e4868361289f565b95508019841693508086168417925050509392505050565b5f61291661291161290c84611af2565b612212565b611af2565b9050919050565b5f819050919050565b61292f836128fc565b61294361293b8261291d565b8484546128ab565b825550505050565b5f90565b61295761294b565b612962818484612926565b505050565b5b818110156129855761297a5f8261294f565b600181019050612968565b5050565b601f8211156129ca5761299b8161287e565b6129a484612890565b810160208510156129b3578190505b6129c76129bf85612890565b830182612967565b50505b505050565b5f82821c905092915050565b5f6129ea5f19846008026129cf565b1980831691505092915050565b5f612a0283836129db565b9150826002028217905092915050565b612a1b82611c5b565b67ffffffffffffffff811115612a3457612a33611f17565b5b612a3e82546123b4565b612a49828285612989565b5f60209050601f831160018114612a7a575f8415612a68578287015190505b612a7285826129f7565b865550612ad9565b601f198416612a888661287e565b5f5b82811015612aaf57848901518255600182019150602085019450602081019050612a8a565b86831015612acc5784890151612ac8601f8916826129db565b8355505b6001600288020188555050505b505050505050565b5f612afb612af6612af184611aaa565b612212565b611af2565b9050919050565b612b0b81612ae1565b82525050565b5f606082019050612b245f830186612b02565b612b316020830185611bc1565b612b3e6040830184611bc1565b949350505050565b7f496e646578206f7574206f662072616e676500000000000000000000000000005f82015250565b5f612b7a601283611c65565b9150612b8582612b46565b602082019050919050565b5f6020820190508181035f830152612ba781612b6e565b9050919050565b7f5469636b657420646f6573206e6f7420657869737400000000000000000000005f82015250565b5f612be2601583611c65565b9150612bed82612bae565b602082019050919050565b5f6020820190508181035f830152612c0f81612bd6565b9050919050565b7f4e6f7420746865207469636b6574206f776e65720000000000000000000000005f82015250565b5f612c4a601483611c65565b9150612c5582612c16565b602082019050919050565b5f6020820190508181035f830152612c7781612c3e565b9050919050565b7f5175616e74697479206d69736d617463680000000000000000000000000000005f82015250565b5f612cb2601183611c65565b9150612cbd82612c7e565b602082019050919050565b5f6020820190508181035f830152612cdf81612ca6565b9050919050565b7f52616e646f6d206e756d62657220616c72656164792072657665616c656400005f82015250565b5f612d1a601e83611c65565b9150612d2582612ce6565b602082019050919050565b5f6020820190508181035f830152612d4781612d0e565b9050919050565b5f819050919050565b612d68612d6382611af2565b612d4e565b82525050565b5f612d798284612d57565b60208201915081905092915050565b7f52616e646f6d206e756d62657220646f6573206e6f74206d6174636820636f6d5f8201527f6d69746d656e7400000000000000000000000000000000000000000000000000602082015250565b5f612de2602783611c65565b9150612ded82612d88565b604082019050919050565b5f6020820190508181035f830152612e0f81612dd6565b9050919050565b5f606082019050612e295f830186611bc1565b612e366020830185611bc1565b612e436040830184611bc1565b949350505050565b7f4c6f7474657279206973206e6f742061637469766500000000000000000000005f82015250565b5f612e7f601583611c65565b9150612e8a82612e4b565b602082019050919050565b5f6020820190508181035f830152612eac81612e73565b9050919050565b7f4c6f74746572792068617320656e6465640000000000000000000000000000005f82015250565b5f612ee7601183611c65565b9150612ef282612eb3565b602082019050919050565b5f6020820190508181035f830152612f1481612edb565b9050919050565b7f4e6f7420656e6f756768207469636b65747320617661696c61626c65000000005f82015250565b5f612f4f601c83611c65565b9150612f5a82612f1b565b602082019050919050565b5f6020820190508181035f830152612f7c81612f43565b9050919050565b5f612f8d82611af2565b9150612f9883611af2565b9250828202612fa681611af2565b91508282048414831517612fbd57612fbc6126d5565b5b5092915050565b5f606082019050612fd75f830186612b02565b612fe46020830185611bc1565b612ff16040830184611dd5565b949350505050565b5f61300382611af2565b915061300e83611af2565b92508261301e5761301d6127ee565b5b82820690509291505056fea26469706673582212200c35ee8183f19282b4315803a419f54503435ef0d24791957bc305d9cfc1a4aa64736f6c634300081a0033",
			"opcodes": "PUSH1 0x80 PUSH1 0x40 MSTORE CALLVALUE DUP1 ISZERO PUSH2 0xF JUMPI PUSH0 DUP1 REVERT JUMPDEST POP PUSH1 0x40 MLOAD PUSH2 0x31AB CODESIZE SUB DUP1 PUSH2 0x31AB DUP4 CODECOPY DUP2 DUP2 ADD PUSH1 0x40 MSTORE DUP2 ADD SWAP1 PUSH2 0x31 SWAP2 SWAP1 PUSH2 0x114 JUMP JUMPDEST CALLER PUSH1 0x1 PUSH0 PUSH2 0x100 EXP DUP2 SLOAD DUP2 PUSH20 0xFFFFFFFFFFFFFFFFFFFFFFFFFFFFFFFFFFFFFFFF MUL NOT AND SWAP1 DUP4 PUSH20 0xFFFFFFFFFFFFFFFFFFFFFFFFFFFFFFFFFFFFFFFF AND MUL OR SWAP1 SSTORE POP DUP1 PUSH0 DUP1 PUSH2 0x100 EXP DUP2 SLOAD DUP2 PUSH20 0xFFFFFFFFFFFFFFFFFFFFFFFFFFFFFFFFFFFFFFFF MUL NOT AND SWAP1 DUP4 PUSH20 0xFFFFFFFFFFFFFFFFFFFFFFFFFFFFFFFFFFFFFFFF AND MUL OR SWAP1 SSTORE POP POP PUSH2 0x13F JUMP JUMPDEST PUSH0 DUP1 REVERT JUMPDEST PUSH0 PUSH20 0xFFFFFFFFFFFFFFFFFFFFFFFFFFFFFFFFFFFFFFFF DUP3 AND SWAP1 POP SWAP2 SWAP1 POP JUMP JUMPDEST PUSH0 PUSH2 0xE3 DUP3 PUSH2 0xBA JUMP JUMPDEST SWAP1 POP SWAP2 SWAP1 POP JUMP JUMPDEST PUSH2 0xF3 DUP2 PUSH2 0xD9 JUMP JUMPDEST DUP2 EQ PUSH2 0xFD JUMPI PUSH0 DUP1 REVERT JUMPDEST POP JUMP JUMPDEST PUSH0 DUP2 MLOAD SWAP1 POP PUSH2 0x10E DUP2 PUSH2 0xEA JUMP JUMPDEST SWAP3 SWAP2 POP POP JUMP JUMPDEST PUSH0 PUSH1 0x20 DUP3 DUP5 SUB SLT ISZERO PUSH2 0x129 JUMPI PUSH2 0x128 PUSH2 0xB6 JUMP JUMPDEST JUMPDEST PUSH0 PUSH2 0x136 DUP5 DUP3 DUP6 ADD PUSH2 0x100 JUMP JUMPDEST SWAP2 POP POP SWAP3 SWAP2 POP POP JUMP JUMPDEST PUSH2 0x305F DUP1 PUSH2 0x14C PUSH0 CODECOPY PUSH0 RETURN INVALID PUSH1 0x80 PUSH1 0x40 MSTORE CALLVALUE DUP1 ISZERO PUSH2 0xF JUMPI PUSH0 DUP1 REVERT JUMPDEST POP PUSH1 0x4 CALLDATASIZE LT PUSH2 0x14B JUMPI PUSH0 CALLDATALOAD PUSH1 0xE0 SHR DUP1 PUSH4 0x8DA5CB5B GT PUSH2 0xC1 JUMPI DUP1 PUSH4 0xCDC2AEBF GT PUSH2 0x7A JUMPI DUP1 PUSH4 0xCDC2AEBF EQ PUSH2 0x41C JUMPI DUP1 PUSH4 0xD5ED4D5A EQ PUSH2 0x44C JUMPI DUP1 PUSH4 0xDC969F22 EQ PUSH2 0x46A JUMPI DUP1 PUSH4 0xE5D387A5 EQ PUSH2 0x49B JUMPI DUP1 PUSH4 0xEFE43338 EQ PUSH2 0x4CF JUMPI DUP1 PUSH4 0xFBA2B874 EQ PUSH2 0x4FF JUMPI PUSH2 0x14B JUMP JUMPDEST DUP1 PUSH4 0x8DA5CB5B EQ PUSH2 0x322 JUMPI DUP1 PUSH4 0x9065C335 EQ PUSH2 0x340 JUMPI DUP1 PUSH4 0x91E19A2D EQ PUSH2 0x35C JUMPI DUP1 PUSH4 0xADC51CDB EQ PUSH2 0x38C JUMPI DUP1 PUSH4 0xBD731A06 EQ PUSH2 0x3BC JUMPI DUP1 PUSH4 0xCC42A7C5 EQ PUSH2 0x3EC JUMPI PUSH2 0x14B JUMP JUMPDEST DUP1 PUSH4 0x5BDDBAAC GT PUSH2 0x113 JUMPI DUP1 PUSH4 0x5BDDBAAC EQ PUSH2 0x229 JUMPI DUP1 PUSH4 0x603D3D3A EQ PUSH2 0x259 JUMPI DUP1 PUSH4 0x687E47D8 EQ PUSH2 0x289 JUMPI DUP1 PUSH4 0x6A326AB1 EQ PUSH2 0x2A5 JUMPI DUP1 PUSH4 0x7DF858DB EQ PUSH2 0x2C1 JUMPI DUP1 PUSH4 0x89B2ACBC EQ PUSH2 0x2F1 JUMPI PUSH2 0x14B JUMP JUMPDEST DUP1 PUSH4 0x400F4D0 EQ PUSH2 0x14F JUMPI DUP1 PUSH4 0x12B349D5 EQ PUSH2 0x16D JUMPI DUP1 PUSH4 0x1398E076 EQ PUSH2 0x19D JUMPI DUP1 PUSH4 0x49C0DE88 EQ PUSH2 0x1D8 JUMPI DUP1 PUSH4 0x5B7B3D58 EQ PUSH2 0x20B JUMPI JUMPDEST PUSH0 DUP1 REVERT JUMPDEST PUSH2 0x157 PUSH2 0x52F JUMP JUMPDEST PUSH1 0x40 MLOAD PUSH2 0x164 SWAP2 SWAP1 PUSH2 0x1AC8 JUMP JUMPDEST PUSH1 0x40 MLOAD DUP1 SWAP2 SUB SWAP1 RETURN JUMPDEST PUSH2 0x187 PUSH1 0x4 DUP1 CALLDATASIZE SUB DUP2 ADD SWAP1 PUSH2 0x182 SWAP2 SWAP1 PUSH2 0x1B25 JUMP JUMPDEST PUSH2 0x545 JUMP JUMPDEST PUSH1 0x40 MLOAD PUSH2 0x194 SWAP2 SWAP1 PUSH2 0x1B7D JUMP JUMPDEST PUSH1 0x40 MLOAD DUP1 SWAP2 SUB SWAP1 RETURN JUMPDEST PUSH2 0x1B7 PUSH1 0x4 DUP1 CALLDATASIZE SUB DUP2 ADD SWAP1 PUSH2 0x1B2 SWAP2 SWAP1 PUSH2 0x1B96 JUMP JUMPDEST PUSH2 0x5BB JUMP JUMPDEST PUSH1 0x40 MLOAD PUSH2 0x1CF SWAP13 SWAP12 SWAP11 SWAP10 SWAP9 SWAP8 SWAP7 SWAP6 SWAP5 SWAP4 SWAP3 SWAP2 SWAP1 PUSH2 0x1D0A JUMP JUMPDEST PUSH1 0x40 MLOAD DUP1 SWAP2 SUB SWAP1 RETURN JUMPDEST PUSH2 0x1F2 PUSH1 0x4 DUP1 CALLDATASIZE SUB DUP2 ADD SWAP1 PUSH2 0x1ED SWAP2 SWAP1 PUSH2 0x1B25 JUMP JUMPDEST PUSH2 0x6C8 JUMP JUMPDEST PUSH1 0x40 MLOAD PUSH2 0x202 SWAP5 SWAP4 SWAP3 SWAP2 SWAP1 PUSH2 0x1DE4 JUMP JUMPDEST PUSH1 0x40 MLOAD DUP1 SWAP2 SUB SWAP1 RETURN JUMPDEST PUSH2 0x213 PUSH2 0x745 JUMP JUMPDEST PUSH1 0x40 MLOAD PUSH2 0x220 SWAP2 SWAP1 PUSH2 0x1AC8 JUMP JUMPDEST PUSH1 0x40 MLOAD DUP1 SWAP2 SUB SWAP1 RETURN JUMPDEST PUSH2 0x243 PUSH1 0x4 DUP1 CALLDATASIZE SUB DUP2 ADD SWAP1 PUSH2 0x23E SWAP2 SWAP1 PUSH2 0x1E51 JUMP JUMPDEST PUSH2 0x75E JUMP JUMPDEST PUSH1 0x40 MLOAD PUSH2 0x250 SWAP2 SWAP1 PUSH2 0x1B7D JUMP JUMPDEST PUSH1 0x40 MLOAD DUP1 SWAP2 SUB SWAP1 RETURN JUMPDEST PUSH2 0x273 PUSH1 0x4 DUP1 CALLDATASIZE SUB DUP2 ADD SWAP1 PUSH2 0x26E SWAP2 SWAP1 PUSH2 0x1B25 JUMP JUMPDEST PUSH2 0x983 JUMP JUMPDEST PUSH1 0x40 MLOAD PUSH2 0x280 SWAP2 SWAP1 PUSH2 0x1EA1 JUMP JUMPDEST PUSH1 0x40 MLOAD DUP1 SWAP2 SUB SWAP1 RETURN JUMPDEST PUSH2 0x2A3 PUSH1 0x4 DUP1 CALLDATASIZE SUB DUP2 ADD SWAP1 PUSH2 0x29E SWAP2 SWAP1 PUSH2 0x1B25 JUMP JUMPDEST PUSH2 0x9AE JUMP JUMPDEST STOP JUMPDEST PUSH2 0x2BF PUSH1 0x4 DUP1 CALLDATASIZE SUB DUP2 ADD SWAP1 PUSH2 0x2BA SWAP2 SWAP1 PUSH2 0x1EBA JUMP JUMPDEST PUSH2 0xA7A JUMP JUMPDEST STOP JUMPDEST PUSH2 0x2DB PUSH1 0x4 DUP1 CALLDATASIZE SUB DUP2 ADD SWAP1 PUSH2 0x2D6 SWAP2 SWAP1 PUSH2 0x203B JUMP JUMPDEST PUSH2 0xBE4 JUMP JUMPDEST PUSH1 0x40 MLOAD PUSH2 0x2E8 SWAP2 SWAP1 PUSH2 0x1EA1 JUMP JUMPDEST PUSH1 0x40 MLOAD DUP1 SWAP2 SUB SWAP1 RETURN JUMPDEST PUSH2 0x30B PUSH1 0x4 DUP1 CALLDATASIZE SUB DUP2 ADD SWAP1 PUSH2 0x306 SWAP2 SWAP1 PUSH2 0x1B25 JUMP JUMPDEST PUSH2 0x1020 JUMP JUMPDEST PUSH1 0x40 MLOAD PUSH2 0x319 SWAP3 SWAP2 SWAP1 PUSH2 0x20F4 JUMP JUMPDEST PUSH1 0x40 MLOAD DUP1 SWAP2 SUB SWAP1 RETURN JUMPDEST PUSH2 0x32A PUSH2 0x10D7 JUMP JUMPDEST PUSH1 0x40 MLOAD PUSH2 0x337 SWAP2 SWAP1 PUSH2 0x211B JUMP JUMPDEST PUSH1 0x40 MLOAD DUP1 SWAP2 SUB SWAP1 RETURN JUMPDEST PUSH2 0x35A PUSH1 0x4 DUP1 CALLDATASIZE SUB DUP2 ADD SWAP1 PUSH2 0x355 SWAP2 SWAP1 PUSH2 0x2134 JUMP JUMPDEST PUSH2 0x10FC JUMP JUMPDEST STOP JUMPDEST PUSH2 0x376 PUSH1 0x4 DUP1 CALLDATASIZE SUB DUP2 ADD SWAP1 PUSH2 0x371 SWAP2 SWAP1 PUSH2 0x1B25 JUMP JUMPDEST PUSH2 0x13B9 JUMP JUMPDEST PUSH1 0x40 MLOAD PUSH2 0x383 SWAP2 SWAP1 PUSH2 0x1EA1 JUMP JUMPDEST PUSH1 0x40 MLOAD DUP1 SWAP2 SUB SWAP1 RETURN JUMPDEST PUSH2 0x3A6 PUSH1 0x4 DUP1 CALLDATASIZE SUB DUP2 ADD SWAP1 PUSH2 0x3A1 SWAP2 SWAP1 PUSH2 0x1B96 JUMP JUMPDEST PUSH2 0x13E4 JUMP JUMPDEST PUSH1 0x40 MLOAD PUSH2 0x3B3 SWAP2 SWAP1 PUSH2 0x1EA1 JUMP JUMPDEST PUSH1 0x40 MLOAD DUP1 SWAP2 SUB SWAP1 RETURN JUMPDEST PUSH2 0x3D6 PUSH1 0x4 DUP1 CALLDATASIZE SUB DUP2 ADD SWAP1 PUSH2 0x3D1 SWAP2 SWAP1 PUSH2 0x21C2 JUMP JUMPDEST PUSH2 0x1401 JUMP JUMPDEST PUSH1 0x40 MLOAD PUSH2 0x3E3 SWAP2 SWAP1 PUSH2 0x1EA1 JUMP JUMPDEST PUSH1 0x40 MLOAD DUP1 SWAP2 SUB SWAP1 RETURN JUMPDEST PUSH2 0x406 PUSH1 0x4 DUP1 CALLDATASIZE SUB DUP2 ADD SWAP1 PUSH2 0x401 SWAP2 SWAP1 PUSH2 0x1B96 JUMP JUMPDEST PUSH2 0x183B JUMP JUMPDEST PUSH1 0x40 MLOAD PUSH2 0x413 SWAP2 SWAP1 PUSH2 0x1EA1 JUMP JUMPDEST PUSH1 0x40 MLOAD DUP1 SWAP2 SUB SWAP1 RETURN JUMPDEST PUSH2 0x436 PUSH1 0x4 DUP1 CALLDATASIZE SUB DUP2 ADD SWAP1 PUSH2 0x431 SWAP2 SWAP1 PUSH2 0x1B96 JUMP JUMPDEST PUSH2 0x1858 JUMP JUMPDEST PUSH1 0x40 MLOAD PUSH2 0x443 SWAP2 SWAP1 PUSH2 0x211B JUMP JUMPDEST PUSH1 0x40 MLOAD DUP1 SWAP2 SUB SWAP1 RETURN JUMPDEST PUSH2 0x454 PUSH2 0x1894 JUMP JUMPDEST PUSH1 0x40 MLOAD PUSH2 0x461 SWAP2 SWAP1 PUSH2 0x226D JUMP JUMPDEST PUSH1 0x40 MLOAD DUP1 SWAP2 SUB SWAP1 RETURN JUMPDEST PUSH2 0x484 PUSH1 0x4 DUP1 CALLDATASIZE SUB DUP2 ADD SWAP1 PUSH2 0x47F SWAP2 SWAP1 PUSH2 0x1B96 JUMP JUMPDEST PUSH2 0x18B7 JUMP JUMPDEST PUSH1 0x40 MLOAD PUSH2 0x492 SWAP3 SWAP2 SWAP1 PUSH2 0x2286 JUMP JUMPDEST PUSH1 0x40 MLOAD DUP1 SWAP2 SUB SWAP1 RETURN JUMPDEST PUSH2 0x4B5 PUSH1 0x4 DUP1 CALLDATASIZE SUB DUP2 ADD SWAP1 PUSH2 0x4B0 SWAP2 SWAP1 PUSH2 0x22DE JUMP JUMPDEST PUSH2 0x196B JUMP JUMPDEST PUSH1 0x40 MLOAD PUSH2 0x4C6 SWAP6 SWAP5 SWAP4 SWAP3 SWAP2 SWAP1 PUSH2 0x2309 JUMP JUMPDEST PUSH1 0x40 MLOAD DUP1 SWAP2 SUB SWAP1 RETURN JUMPDEST PUSH2 0x4E9 PUSH1 0x4 DUP1 CALLDATASIZE SUB DUP2 ADD SWAP1 PUSH2 0x4E4 SWAP2 SWAP1 PUSH2 0x1B96 JUMP JUMPDEST PUSH2 0x19B6 JUMP JUMPDEST PUSH1 0x40 MLOAD PUSH2 0x4F6 SWAP2 SWAP1 PUSH2 0x1EA1 JUMP JUMPDEST PUSH1 0x40 MLOAD DUP1 SWAP2 SUB SWAP1 RETURN JUMPDEST PUSH2 0x519 PUSH1 0x4 DUP1 CALLDATASIZE SUB DUP2 ADD SWAP1 PUSH2 0x514 SWAP2 SWAP1 PUSH2 0x1E51 JUMP JUMPDEST PUSH2 0x1A74 JUMP JUMPDEST PUSH1 0x40 MLOAD PUSH2 0x526 SWAP2 SWAP1 PUSH2 0x1EA1 JUMP JUMPDEST PUSH1 0x40 MLOAD DUP1 SWAP2 SUB SWAP1 RETURN JUMPDEST PUSH1 0x1 PUSH1 0x14 SWAP1 SLOAD SWAP1 PUSH2 0x100 EXP SWAP1 DIV PUSH4 0xFFFFFFFF AND DUP2 JUMP JUMPDEST PUSH0 DUP1 PUSH0 SWAP1 POP JUMPDEST PUSH1 0x4 PUSH0 DUP6 DUP2 MSTORE PUSH1 0x20 ADD SWAP1 DUP2 MSTORE PUSH1 0x20 ADD PUSH0 KECCAK256 DUP1 SLOAD SWAP1 POP DUP2 LT ISZERO PUSH2 0x5B0 JUMPI DUP3 PUSH1 0x4 PUSH0 DUP7 DUP2 MSTORE PUSH1 0x20 ADD SWAP1 DUP2 MSTORE PUSH1 0x20 ADD PUSH0 KECCAK256 DUP3 DUP2 SLOAD DUP2 LT PUSH2 0x58B JUMPI PUSH2 0x58A PUSH2 0x235A JUMP JUMPDEST JUMPDEST SWAP1 PUSH0 MSTORE PUSH1 0x20 PUSH0 KECCAK256 ADD SLOAD SUB PUSH2 0x5A3 JUMPI PUSH1 0x1 SWAP2 POP POP PUSH2 0x5B5 JUMP JUMPDEST DUP1 DUP1 PUSH1 0x1 ADD SWAP2 POP POP PUSH2 0x54B JUMP JUMPDEST POP PUSH0 SWAP1 POP JUMPDEST SWAP3 SWAP2 POP POP JUMP JUMPDEST PUSH1 0x2 PUSH1 0x20 MSTORE DUP1 PUSH0 MSTORE PUSH1 0x40 PUSH0 KECCAK256 PUSH0 SWAP2 POP SWAP1 POP DUP1 PUSH0 ADD SLOAD SWAP1 DUP1 PUSH1 0x1 ADD SLOAD SWAP1 DUP1 PUSH1 0x2 ADD SLOAD SWAP1 DUP1 PUSH1 0x3 ADD SLOAD SWAP1 DUP1 PUSH1 0x4 ADD SLOAD SWAP1 DUP1 PUSH1 0x5 ADD SLOAD SWAP1 DUP1 PUSH1 0x6 ADD PUSH0 SWAP1 SLOAD SWAP1 PUSH2 0x100 EXP SWAP1 DIV PUSH1 0xFF AND SWAP1 DUP1 PUSH1 0x7 ADD SLOAD SWAP1 DUP1 PUSH1 0x8 ADD SLOAD SWAP1 DUP1 PUSH1 0x9 ADD SLOAD SWAP1 DUP1 PUSH1 0xA ADD DUP1 SLOAD PUSH2 0x622 SWAP1 PUSH2 0x23B4 JUMP JUMPDEST DUP1 PUSH1 0x1F ADD PUSH1 0x20 DUP1 SWAP2 DIV MUL PUSH1 0x20 ADD PUSH1 0x40 MLOAD SWAP1 DUP2 ADD PUSH1 0x40 MSTORE DUP1 SWAP3 SWAP2 SWAP1 DUP2 DUP2 MSTORE PUSH1 0x20 ADD DUP3 DUP1 SLOAD PUSH2 0x64E SWAP1 PUSH2 0x23B4 JUMP JUMPDEST DUP1 ISZERO PUSH2 0x699 JUMPI DUP1 PUSH1 0x1F LT PUSH2 0x670 JUMPI PUSH2 0x100 DUP1 DUP4 SLOAD DIV MUL DUP4 MSTORE SWAP2 PUSH1 0x20 ADD SWAP2 PUSH2 0x699 JUMP JUMPDEST DUP3 ADD SWAP2 SWAP1 PUSH0 MSTORE PUSH1 0x20 PUSH0 KECCAK256 SWAP1 JUMPDEST DUP2 SLOAD DUP2 MSTORE SWAP1 PUSH1 0x1 ADD SWAP1 PUSH1 0x20 ADD DUP1 DUP4 GT PUSH2 0x67C JUMPI DUP3 SWAP1 SUB PUSH1 0x1F AND DUP3 ADD SWAP2 JUMPDEST POP POP POP POP POP SWAP1 DUP1 PUSH1 0xB ADD PUSH0 SWAP1 SLOAD SWAP1 PUSH2 0x100 EXP SWAP1 DIV PUSH20 0xFFFFFFFFFFFFFFFFFFFFFFFFFFFFFFFFFFFFFFFF AND SWAP1 POP DUP13 JUMP JUMPDEST PUSH1 0x3 PUSH1 0x20 MSTORE DUP2 PUSH0 MSTORE PUSH1 0x40 PUSH0 KECCAK256 DUP2 DUP2 SLOAD DUP2 LT PUSH2 0x6E1 JUMPI PUSH0 DUP1 REVERT JUMPDEST SWAP1 PUSH0 MSTORE PUSH1 0x20 PUSH0 KECCAK256 SWAP1 PUSH1 0x3 MUL ADD PUSH0 SWAP2 POP SWAP2 POP POP DUP1 PUSH0 ADD PUSH0 SWAP1 SLOAD SWAP1 PUSH2 0x100 EXP SWAP1 DIV PUSH20 0xFFFFFFFFFFFFFFFFFFFFFFFFFFFFFFFFFFFFFFFF AND SWAP1 DUP1 PUSH0 ADD PUSH1 0x14 SWAP1 SLOAD SWAP1 PUSH2 0x100 EXP SWAP1 DIV PUSH1 0xFF AND SWAP1 DUP1 PUSH1 0x1 ADD SLOAD SWAP1 DUP1 PUSH1 0x2 ADD PUSH0 SWAP1 SLOAD SWAP1 PUSH2 0x100 EXP SWAP1 DIV PUSH1 0xFF AND SWAP1 POP DUP5 JUMP JUMPDEST PUSH0 PUSH1 0x1 PUSH1 0x14 SWAP1 SLOAD SWAP1 PUSH2 0x100 EXP SWAP1 DIV PUSH4 0xFFFFFFFF AND SWAP1 POP SWAP1 JUMP JUMPDEST PUSH0 PUSH1 0x3 PUSH1 0x4 DUP2 GT ISZERO PUSH2 0x773 JUMPI PUSH2 0x772 PUSH2 0x1BD0 JUMP JUMPDEST JUMPDEST PUSH1 0x2 PUSH0 DUP6 DUP2 MSTORE PUSH1 0x20 ADD SWAP1 DUP2 MSTORE PUSH1 0x20 ADD PUSH0 KECCAK256 PUSH1 0x6 ADD PUSH0 SWAP1 SLOAD SWAP1 PUSH2 0x100 EXP SWAP1 DIV PUSH1 0xFF AND PUSH1 0x4 DUP2 GT ISZERO PUSH2 0x7A6 JUMPI PUSH2 0x7A5 PUSH2 0x1BD0 JUMP JUMPDEST JUMPDEST EQ PUSH2 0x7E6 JUMPI PUSH1 0x40 MLOAD PUSH32 0x8C379A000000000000000000000000000000000000000000000000000000000 DUP2 MSTORE PUSH1 0x4 ADD PUSH2 0x7DD SWAP1 PUSH2 0x242E JUMP JUMPDEST PUSH1 0x40 MLOAD DUP1 SWAP2 SUB SWAP1 REVERT JUMPDEST PUSH0 PUSH1 0x4 PUSH0 DUP6 DUP2 MSTORE PUSH1 0x20 ADD SWAP1 DUP2 MSTORE PUSH1 0x20 ADD PUSH0 KECCAK256 DUP1 SLOAD DUP1 PUSH1 0x20 MUL PUSH1 0x20 ADD PUSH1 0x40 MLOAD SWAP1 DUP2 ADD PUSH1 0x40 MSTORE DUP1 SWAP3 SWAP2 SWAP1 DUP2 DUP2 MSTORE PUSH1 0x20 ADD DUP3 DUP1 SLOAD DUP1 ISZERO PUSH2 0x840 JUMPI PUSH1 0x20 MUL DUP3 ADD SWAP2 SWAP1 PUSH0 MSTORE PUSH1 0x20 PUSH0 KECCAK256 SWAP1 JUMPDEST DUP2 SLOAD DUP2 MSTORE PUSH1 0x20 ADD SWAP1 PUSH1 0x1 ADD SWAP1 DUP1 DUP4 GT PUSH2 0x82C JUMPI JUMPDEST POP POP POP POP POP SWAP1 POP PUSH0 PUSH1 0x6 PUSH0 DUP8 PUSH20 0xFFFFFFFFFFFFFFFFFFFFFFFFFFFFFFFFFFFFFFFF AND PUSH20 0xFFFFFFFFFFFFFFFFFFFFFFFFFFFFFFFFFFFFFFFF AND DUP2 MSTORE PUSH1 0x20 ADD SWAP1 DUP2 MSTORE PUSH1 0x20 ADD PUSH0 KECCAK256 PUSH0 DUP7 DUP2 MSTORE PUSH1 0x20 ADD SWAP1 DUP2 MSTORE PUSH1 0x20 ADD PUSH0 KECCAK256 DUP1 SLOAD DUP1 PUSH1 0x20 MUL PUSH1 0x20 ADD PUSH1 0x40 MLOAD SWAP1 DUP2 ADD PUSH1 0x40 MSTORE DUP1 SWAP3 SWAP2 SWAP1 DUP2 DUP2 MSTORE PUSH1 0x20 ADD DUP3 DUP1 SLOAD DUP1 ISZERO PUSH2 0x8DC JUMPI PUSH1 0x20 MUL DUP3 ADD SWAP2 SWAP1 PUSH0 MSTORE PUSH1 0x20 PUSH0 KECCAK256 SWAP1 JUMPDEST DUP2 SLOAD DUP2 MSTORE PUSH1 0x20 ADD SWAP1 PUSH1 0x1 ADD SWAP1 DUP1 DUP4 GT PUSH2 0x8C8 JUMPI JUMPDEST POP POP POP POP POP SWAP1 POP PUSH0 DUP1 JUMPDEST DUP3 MLOAD DUP2 LT ISZERO PUSH2 0x926 JUMPI DUP6 DUP4 DUP3 DUP2 MLOAD DUP2 LT PUSH2 0x903 JUMPI PUSH2 0x902 PUSH2 0x235A JUMP JUMPDEST JUMPDEST PUSH1 0x20 MUL PUSH1 0x20 ADD ADD MLOAD SUB PUSH2 0x919 JUMPI PUSH1 0x1 SWAP2 POP PUSH2 0x926 JUMP JUMPDEST DUP1 DUP1 PUSH1 0x1 ADD SWAP2 POP POP PUSH2 0x8E6 JUMP JUMPDEST POP DUP1 ISZERO PUSH2 0x975 JUMPI PUSH0 JUMPDEST DUP4 MLOAD DUP2 LT ISZERO PUSH2 0x973 JUMPI DUP6 DUP5 DUP3 DUP2 MLOAD DUP2 LT PUSH2 0x94C JUMPI PUSH2 0x94B PUSH2 0x235A JUMP JUMPDEST JUMPDEST PUSH1 0x20 MUL PUSH1 0x20 ADD ADD MLOAD SUB PUSH2 0x966 JUMPI PUSH1 0x1 SWAP5 POP POP POP POP POP PUSH2 0x97C JUMP JUMPDEST DUP1 DUP1 PUSH1 0x1 ADD SWAP2 POP POP PUSH2 0x92F JUMP JUMPDEST POP JUMPDEST PUSH0 SWAP4 POP POP POP POP JUMPDEST SWAP4 SWAP3 POP POP POP JUMP JUMPDEST PUSH1 0x4 PUSH1 0x20 MSTORE DUP2 PUSH0 MSTORE PUSH1 0x40 PUSH0 KECCAK256 DUP2 DUP2 SLOAD DUP2 LT PUSH2 0x99C JUMPI PUSH0 DUP1 REVERT JUMPDEST SWAP1 PUSH0 MSTORE PUSH1 0x20 PUSH0 KECCAK256 ADD PUSH0 SWAP2 POP SWAP2 POP POP SLOAD DUP2 JUMP JUMPDEST PUSH0 PUSH1 0x2 PUSH0 DUP5 DUP2 MSTORE PUSH1 0x20 ADD SWAP1 DUP2 MSTORE PUSH1 0x20 ADD PUSH0 KECCAK256 SWAP1 POP PUSH1 0x4 DUP1 DUP2 GT ISZERO PUSH2 0x9D5 JUMPI PUSH2 0x9D4 PUSH2 0x1BD0 JUMP JUMPDEST JUMPDEST DUP2 PUSH1 0x6 ADD PUSH0 SWAP1 SLOAD SWAP1 PUSH2 0x100 EXP SWAP1 DIV PUSH1 0xFF AND PUSH1 0x4 DUP2 GT ISZERO PUSH2 0x9F8 JUMPI PUSH2 0x9F7 PUSH2 0x1BD0 JUMP JUMPDEST JUMPDEST EQ PUSH2 0xA38 JUMPI PUSH1 0x40 MLOAD PUSH32 0x8C379A000000000000000000000000000000000000000000000000000000000 DUP2 MSTORE PUSH1 0x4 ADD PUSH2 0xA2F SWAP1 PUSH2 0x2496 JUMP JUMPDEST PUSH1 0x40 MLOAD DUP1 SWAP2 SUB SWAP1 REVERT JUMPDEST PUSH0 PUSH32 0x6909EB935886AD8C734C29844350C36B0260F7006FF58559A3C286A9E7C8D878 DUP5 CALLER DUP4 PUSH1 0x40 MLOAD PUSH2 0xA6C SWAP4 SWAP3 SWAP2 SWAP1 PUSH2 0x24B4 JUMP JUMPDEST PUSH1 0x40 MLOAD DUP1 SWAP2 SUB SWAP1 LOG1 POP POP POP POP JUMP JUMPDEST PUSH1 0x1 PUSH0 SWAP1 SLOAD SWAP1 PUSH2 0x100 EXP SWAP1 DIV PUSH20 0xFFFFFFFFFFFFFFFFFFFFFFFFFFFFFFFFFFFFFFFF AND PUSH20 0xFFFFFFFFFFFFFFFFFFFFFFFFFFFFFFFFFFFFFFFF AND CALLER PUSH20 0xFFFFFFFFFFFFFFFFFFFFFFFFFFFFFFFFFFFFFFFF AND EQ PUSH2 0xB09 JUMPI PUSH1 0x40 MLOAD PUSH32 0x8C379A000000000000000000000000000000000000000000000000000000000 DUP2 MSTORE PUSH1 0x4 ADD PUSH2 0xB00 SWAP1 PUSH2 0x2559 JUMP JUMPDEST PUSH1 0x40 MLOAD DUP1 SWAP2 SUB SWAP1 REVERT JUMPDEST PUSH0 PUSH20 0xFFFFFFFFFFFFFFFFFFFFFFFFFFFFFFFFFFFFFFFF AND DUP2 PUSH20 0xFFFFFFFFFFFFFFFFFFFFFFFFFFFFFFFFFFFFFFFF AND SUB PUSH2 0xB77 JUMPI PUSH1 0x40 MLOAD PUSH32 0x8C379A000000000000000000000000000000000000000000000000000000000 DUP2 MSTORE PUSH1 0x4 ADD PUSH2 0xB6E SWAP1 PUSH2 0x25C1 JUMP JUMPDEST PUSH1 0x40 MLOAD DUP1 SWAP2 SUB SWAP1 REVERT JUMPDEST DUP1 PUSH1 0x2 PUSH0 PUSH1 0x1 PUSH1 0x14 SWAP1 SLOAD SWAP1 PUSH2 0x100 EXP SWAP1 DIV PUSH4 0xFFFFFFFF AND PUSH4 0xFFFFFFFF AND DUP2 MSTORE PUSH1 0x20 ADD SWAP1 DUP2 MSTORE PUSH1 0x20 ADD PUSH0 KECCAK256 PUSH1 0xB ADD PUSH0 PUSH2 0x100 EXP DUP2 SLOAD DUP2 PUSH20 0xFFFFFFFFFFFFFFFFFFFFFFFFFFFFFFFFFFFFFFFF MUL NOT AND SWAP1 DUP4 PUSH20 0xFFFFFFFFFFFFFFFFFFFFFFFFFFFFFFFFFFFFFFFF AND MUL OR SWAP1 SSTORE POP POP JUMP JUMPDEST PUSH0 PUSH1 0x1 PUSH0 SWAP1 SLOAD SWAP1 PUSH2 0x100 EXP SWAP1 DIV PUSH20 0xFFFFFFFFFFFFFFFFFFFFFFFFFFFFFFFFFFFFFFFF AND PUSH20 0xFFFFFFFFFFFFFFFFFFFFFFFFFFFFFFFFFFFFFFFF AND CALLER PUSH20 0xFFFFFFFFFFFFFFFFFFFFFFFFFFFFFFFFFFFFFFFF AND EQ PUSH2 0xC74 JUMPI PUSH1 0x40 MLOAD PUSH32 0x8C379A000000000000000000000000000000000000000000000000000000000 DUP2 MSTORE PUSH1 0x4 ADD PUSH2 0xC6B SWAP1 PUSH2 0x2559 JUMP JUMPDEST PUSH1 0x40 MLOAD DUP1 SWAP2 SUB SWAP1 REVERT JUMPDEST PUSH0 DUP7 GT PUSH2 0xCB6 JUMPI PUSH1 0x40 MLOAD PUSH32 0x8C379A000000000000000000000000000000000000000000000000000000000 DUP2 MSTORE PUSH1 0x4 ADD PUSH2 0xCAD SWAP1 PUSH2 0x2629 JUMP JUMPDEST PUSH1 0x40 MLOAD DUP1 SWAP2 SUB SWAP1 REVERT JUMPDEST PUSH1 0x64 DUP6 GT ISZERO PUSH2 0xCFA JUMPI PUSH1 0x40 MLOAD PUSH32 0x8C379A000000000000000000000000000000000000000000000000000000000 DUP2 MSTORE PUSH1 0x4 ADD PUSH2 0xCF1 SWAP1 PUSH2 0x26B7 JUMP JUMPDEST PUSH1 0x40 MLOAD DUP1 SWAP2 SUB SWAP1 REVERT JUMPDEST PUSH1 0x1 PUSH1 0x14 DUP2 DUP2 SWAP1 SLOAD SWAP1 PUSH2 0x100 EXP SWAP1 DIV PUSH4 0xFFFFFFFF AND DUP1 SWAP3 SWAP2 SWAP1 PUSH2 0xD1C SWAP1 PUSH2 0x2702 JUMP JUMPDEST SWAP2 SWAP1 PUSH2 0x100 EXP DUP2 SLOAD DUP2 PUSH4 0xFFFFFFFF MUL NOT AND SWAP1 DUP4 PUSH4 0xFFFFFFFF AND MUL OR SWAP1 SSTORE POP POP TIMESTAMP DUP9 GT PUSH2 0xD7D JUMPI PUSH1 0x40 MLOAD PUSH32 0x8C379A000000000000000000000000000000000000000000000000000000000 DUP2 MSTORE PUSH1 0x4 ADD PUSH2 0xD74 SWAP1 PUSH2 0x279D JUMP JUMPDEST PUSH1 0x40 MLOAD DUP1 SWAP2 SUB SWAP1 REVERT JUMPDEST PUSH1 0x1 PUSH1 0x14 DUP2 DUP2 SWAP1 SLOAD SWAP1 PUSH2 0x100 EXP SWAP1 DIV PUSH4 0xFFFFFFFF AND DUP1 SWAP3 SWAP2 SWAP1 PUSH2 0xD9F SWAP1 PUSH2 0x2702 JUMP JUMPDEST SWAP2 SWAP1 PUSH2 0x100 EXP DUP2 SLOAD DUP2 PUSH4 0xFFFFFFFF MUL NOT AND SWAP1 DUP4 PUSH4 0xFFFFFFFF AND MUL OR SWAP1 SSTORE POP POP PUSH0 PUSH1 0x2 TIMESTAMP DUP11 PUSH2 0xDCD SWAP2 SWAP1 PUSH2 0x27BB JUMP JUMPDEST PUSH2 0xDD7 SWAP2 SWAP1 PUSH2 0x281B JUMP JUMPDEST DUP10 PUSH2 0xDE2 SWAP2 SWAP1 PUSH2 0x284B JUMP JUMPDEST SWAP1 POP PUSH0 TIMESTAMP DUP11 PUSH2 0xDF1 SWAP2 SWAP1 PUSH2 0x27BB JUMP JUMPDEST DUP11 PUSH2 0xDFC SWAP2 SWAP1 PUSH2 0x284B JUMP JUMPDEST SWAP1 POP PUSH1 0x40 MLOAD DUP1 PUSH2 0x180 ADD PUSH1 0x40 MSTORE DUP1 DUP12 DUP2 MSTORE PUSH1 0x20 ADD DUP11 DUP2 MSTORE PUSH1 0x20 ADD DUP10 DUP2 MSTORE PUSH1 0x20 ADD DUP9 DUP2 MSTORE PUSH1 0x20 ADD DUP8 DUP2 MSTORE PUSH1 0x20 ADD PUSH0 DUP2 MSTORE PUSH1 0x20 ADD PUSH1 0x1 PUSH1 0x4 DUP2 GT ISZERO PUSH2 0xE42 JUMPI PUSH2 0xE41 PUSH2 0x1BD0 JUMP JUMPDEST JUMPDEST DUP2 MSTORE PUSH1 0x20 ADD PUSH0 DUP2 MSTORE PUSH1 0x20 ADD PUSH0 DUP2 MSTORE PUSH1 0x20 ADD DUP7 DUP2 MSTORE PUSH1 0x20 ADD DUP6 DUP2 MSTORE PUSH1 0x20 ADD PUSH0 DUP1 SLOAD SWAP1 PUSH2 0x100 EXP SWAP1 DIV PUSH20 0xFFFFFFFFFFFFFFFFFFFFFFFFFFFFFFFFFFFFFFFF AND PUSH20 0xFFFFFFFFFFFFFFFFFFFFFFFFFFFFFFFFFFFFFFFF AND DUP2 MSTORE POP PUSH1 0x2 PUSH0 PUSH1 0x1 PUSH1 0x14 SWAP1 SLOAD SWAP1 PUSH2 0x100 EXP SWAP1 DIV PUSH4 0xFFFFFFFF AND PUSH4 0xFFFFFFFF AND DUP2 MSTORE PUSH1 0x20 ADD SWAP1 DUP2 MSTORE PUSH1 0x20 ADD PUSH0 KECCAK256 PUSH0 DUP3 ADD MLOAD DUP2 PUSH0 ADD SSTORE PUSH1 0x20 DUP3 ADD MLOAD DUP2 PUSH1 0x1 ADD SSTORE PUSH1 0x40 DUP3 ADD MLOAD DUP2 PUSH1 0x2 ADD SSTORE PUSH1 0x60 DUP3 ADD MLOAD DUP2 PUSH1 0x3 ADD SSTORE PUSH1 0x80 DUP3 ADD MLOAD DUP2 PUSH1 0x4 ADD SSTORE PUSH1 0xA0 DUP3 ADD MLOAD DUP2 PUSH1 0x5 ADD SSTORE PUSH1 0xC0 DUP3 ADD MLOAD DUP2 PUSH1 0x6 ADD PUSH0 PUSH2 0x100 EXP DUP2 SLOAD DUP2 PUSH1 0xFF MUL NOT AND SWAP1 DUP4 PUSH1 0x4 DUP2 GT ISZERO PUSH2 0xF25 JUMPI PUSH2 0xF24 PUSH2 0x1BD0 JUMP JUMPDEST JUMPDEST MUL OR SWAP1 SSTORE POP PUSH1 0xE0 DUP3 ADD MLOAD DUP2 PUSH1 0x7 ADD SSTORE PUSH2 0x100 DUP3 ADD MLOAD DUP2 PUSH1 0x8 ADD SSTORE PUSH2 0x120 DUP3 ADD MLOAD DUP2 PUSH1 0x9 ADD SSTORE PUSH2 0x140 DUP3 ADD MLOAD DUP2 PUSH1 0xA ADD SWAP1 DUP2 PUSH2 0xF60 SWAP2 SWAP1 PUSH2 0x2A12 JUMP JUMPDEST POP PUSH2 0x160 DUP3 ADD MLOAD DUP2 PUSH1 0xB ADD PUSH0 PUSH2 0x100 EXP DUP2 SLOAD DUP2 PUSH20 0xFFFFFFFFFFFFFFFFFFFFFFFFFFFFFFFFFFFFFFFF MUL NOT AND SWAP1 DUP4 PUSH20 0xFFFFFFFFFFFFFFFFFFFFFFFFFFFFFFFFFFFFFFFF AND MUL OR SWAP1 SSTORE POP SWAP1 POP POP PUSH32 0xBCAB9AF3175C8A9D53B9308A82EE378A84C65B0C22E3DFEA2AFAC802C73A078A PUSH1 0x1 PUSH1 0x14 SWAP1 SLOAD SWAP1 PUSH2 0x100 EXP SWAP1 DIV PUSH4 0xFFFFFFFF AND DUP12 DUP12 PUSH1 0x40 MLOAD PUSH2 0xFF0 SWAP4 SWAP3 SWAP2 SWAP1 PUSH2 0x2B11 JUMP JUMPDEST PUSH1 0x40 MLOAD DUP1 SWAP2 SUB SWAP1 LOG1 PUSH1 0x1 PUSH1 0x14 SWAP1 SLOAD SWAP1 PUSH2 0x100 EXP SWAP1 DIV PUSH4 0xFFFFFFFF AND PUSH4 0xFFFFFFFF AND SWAP3 POP POP POP SWAP8 SWAP7 POP POP POP POP POP POP POP JUMP JUMPDEST PUSH0 DUP1 PUSH1 0x1 DUP5 PUSH2 0x102F SWAP2 SWAP1 PUSH2 0x27BB JUMP JUMPDEST SWAP4 POP PUSH1 0x3 PUSH0 DUP5 DUP2 MSTORE PUSH1 0x20 ADD SWAP1 DUP2 MSTORE PUSH1 0x20 ADD PUSH0 KECCAK256 DUP1 SLOAD SWAP1 POP DUP5 LT PUSH2 0x1087 JUMPI PUSH1 0x40 MLOAD PUSH32 0x8C379A000000000000000000000000000000000000000000000000000000000 DUP2 MSTORE PUSH1 0x4 ADD PUSH2 0x107E SWAP1 PUSH2 0x2B90 JUMP JUMPDEST PUSH1 0x40 MLOAD DUP1 SWAP2 SUB SWAP1 REVERT JUMPDEST PUSH0 PUSH1 0x3 PUSH0 DUP6 DUP2 MSTORE PUSH1 0x20 ADD SWAP1 DUP2 MSTORE PUSH1 0x20 ADD PUSH0 KECCAK256 DUP6 DUP2 SLOAD DUP2 LT PUSH2 0x10AB JUMPI PUSH2 0x10AA PUSH2 0x235A JUMP JUMPDEST JUMPDEST SWAP1 PUSH0 MSTORE PUSH1 0x20 PUSH0 KECCAK256 SWAP1 PUSH1 0x3 MUL ADD SWAP1 POP DUP5 DUP2 PUSH0 ADD PUSH1 0x14 SWAP1 SLOAD SWAP1 PUSH2 0x100 EXP SWAP1 DIV PUSH1 0xFF AND SWAP3 POP SWAP3 POP POP SWAP3 POP SWAP3 SWAP1 POP JUMP JUMPDEST PUSH1 0x1 PUSH0 SWAP1 SLOAD SWAP1 PUSH2 0x100 EXP SWAP1 DIV PUSH20 0xFFFFFFFFFFFFFFFFFFFFFFFFFFFFFFFFFFFFFFFF AND DUP2 JUMP JUMPDEST PUSH1 0x3 PUSH0 DUP6 DUP2 MSTORE PUSH1 0x20 ADD SWAP1 DUP2 MSTORE PUSH1 0x20 ADD PUSH0 KECCAK256 DUP1 SLOAD SWAP1 POP DUP4 LT PUSH2 0x1152 JUMPI PUSH1 0x40 MLOAD PUSH32 0x8C379A000000000000000000000000000000000000000000000000000000000 DUP2 MSTORE PUSH1 0x4 ADD PUSH2 0x1149 SWAP1 PUSH2 0x2BF8 JUMP JUMPDEST PUSH1 0x40 MLOAD DUP1 SWAP2 SUB SWAP1 REVERT JUMPDEST PUSH0 PUSH1 0x3 PUSH0 DUP7 DUP2 MSTORE PUSH1 0x20 ADD SWAP1 DUP2 MSTORE PUSH1 0x20 ADD PUSH0 KECCAK256 DUP5 DUP2 SLOAD DUP2 LT PUSH2 0x1176 JUMPI PUSH2 0x1175 PUSH2 0x235A JUMP JUMPDEST JUMPDEST SWAP1 PUSH0 MSTORE PUSH1 0x20 PUSH0 KECCAK256 SWAP1 PUSH1 0x3 MUL ADD SWAP1 POP CALLER PUSH20 0xFFFFFFFFFFFFFFFFFFFFFFFFFFFFFFFFFFFFFFFF AND DUP2 PUSH0 ADD PUSH0 SWAP1 SLOAD SWAP1 PUSH2 0x100 EXP SWAP1 DIV PUSH20 0xFFFFFFFFFFFFFFFFFFFFFFFFFFFFFFFFFFFFFFFF AND PUSH20 0xFFFFFFFFFFFFFFFFFFFFFFFFFFFFFFFFFFFFFFFF AND EQ PUSH2 0x1214 JUMPI PUSH1 0x40 MLOAD PUSH32 0x8C379A000000000000000000000000000000000000000000000000000000000 DUP2 MSTORE PUSH1 0x4 ADD PUSH2 0x120B SWAP1 PUSH2 0x2C60 JUMP JUMPDEST PUSH1 0x40 MLOAD DUP1 SWAP2 SUB SWAP1 REVERT JUMPDEST DUP3 DUP2 PUSH0 ADD PUSH1 0x14 SWAP1 SLOAD SWAP1 PUSH2 0x100 EXP SWAP1 DIV PUSH1 0xFF AND PUSH1 0xFF AND EQ PUSH2 0x1269 JUMPI PUSH1 0x40 MLOAD PUSH32 0x8C379A000000000000000000000000000000000000000000000000000000000 DUP2 MSTORE PUSH1 0x4 ADD PUSH2 0x1260 SWAP1 PUSH2 0x2CC8 JUMP JUMPDEST PUSH1 0x40 MLOAD DUP1 SWAP2 SUB SWAP1 REVERT JUMPDEST DUP1 PUSH1 0x2 ADD PUSH0 SWAP1 SLOAD SWAP1 PUSH2 0x100 EXP SWAP1 DIV PUSH1 0xFF AND ISZERO PUSH2 0x12BA JUMPI PUSH1 0x40 MLOAD PUSH32 0x8C379A000000000000000000000000000000000000000000000000000000000 DUP2 MSTORE PUSH1 0x4 ADD PUSH2 0x12B1 SWAP1 PUSH2 0x2D30 JUMP JUMPDEST PUSH1 0x40 MLOAD DUP1 SWAP2 SUB SWAP1 REVERT JUMPDEST DUP2 PUSH1 0x40 MLOAD PUSH1 0x20 ADD PUSH2 0x12CB SWAP2 SWAP1 PUSH2 0x2D6E JUMP JUMPDEST PUSH1 0x40 MLOAD PUSH1 0x20 DUP2 DUP4 SUB SUB DUP2 MSTORE SWAP1 PUSH1 0x40 MSTORE DUP1 MLOAD SWAP1 PUSH1 0x20 ADD KECCAK256 DUP2 PUSH1 0x1 ADD SLOAD EQ PUSH2 0x1326 JUMPI PUSH1 0x40 MLOAD PUSH32 0x8C379A000000000000000000000000000000000000000000000000000000000 DUP2 MSTORE PUSH1 0x4 ADD PUSH2 0x131D SWAP1 PUSH2 0x2DF8 JUMP JUMPDEST PUSH1 0x40 MLOAD DUP1 SWAP2 SUB SWAP1 REVERT JUMPDEST PUSH1 0x1 DUP2 PUSH1 0x2 ADD PUSH0 PUSH2 0x100 EXP DUP2 SLOAD DUP2 PUSH1 0xFF MUL NOT AND SWAP1 DUP4 ISZERO ISZERO MUL OR SWAP1 SSTORE POP PUSH1 0x5 PUSH0 DUP7 DUP2 MSTORE PUSH1 0x20 ADD SWAP1 DUP2 MSTORE PUSH1 0x20 ADD PUSH0 KECCAK256 DUP3 SWAP1 DUP1 PUSH1 0x1 DUP2 SLOAD ADD DUP1 DUP3 SSTORE DUP1 SWAP2 POP POP PUSH1 0x1 SWAP1 SUB SWAP1 PUSH0 MSTORE PUSH1 0x20 PUSH0 KECCAK256 ADD PUSH0 SWAP1 SWAP2 SWAP1 SWAP2 SWAP1 SWAP2 POP SSTORE PUSH32 0xB404D5122F9C343795903CD3906F44902818ED6E1270EAB69B9A14B2BEF0D681 DUP6 DUP6 DUP5 PUSH1 0x40 MLOAD PUSH2 0x13AA SWAP4 SWAP3 SWAP2 SWAP1 PUSH2 0x2E16 JUMP JUMPDEST PUSH1 0x40 MLOAD DUP1 SWAP2 SUB SWAP1 LOG1 POP POP POP POP POP JUMP JUMPDEST PUSH1 0x5 PUSH1 0x20 MSTORE DUP2 PUSH0 MSTORE PUSH1 0x40 PUSH0 KECCAK256 DUP2 DUP2 SLOAD DUP2 LT PUSH2 0x13D2 JUMPI PUSH0 DUP1 REVERT JUMPDEST SWAP1 PUSH0 MSTORE PUSH1 0x20 PUSH0 KECCAK256 ADD PUSH0 SWAP2 POP SWAP2 POP POP SLOAD DUP2 JUMP JUMPDEST PUSH0 PUSH1 0x2 PUSH0 DUP4 DUP2 MSTORE PUSH1 0x20 ADD SWAP1 DUP2 MSTORE PUSH1 0x20 ADD PUSH0 KECCAK256 PUSH1 0x7 ADD SLOAD SWAP1 POP SWAP2 SWAP1 POP JUMP JUMPDEST PUSH0 PUSH1 0x1 PUSH1 0x4 DUP2 GT ISZERO PUSH2 0x1416 JUMPI PUSH2 0x1415 PUSH2 0x1BD0 JUMP JUMPDEST JUMPDEST PUSH1 0x2 PUSH0 DUP7 DUP2 MSTORE PUSH1 0x20 ADD SWAP1 DUP2 MSTORE PUSH1 0x20 ADD PUSH0 KECCAK256 PUSH1 0x6 ADD PUSH0 SWAP1 SLOAD SWAP1 PUSH2 0x100 EXP SWAP1 DIV PUSH1 0xFF AND PUSH1 0x4 DUP2 GT ISZERO PUSH2 0x1449 JUMPI PUSH2 0x1448 PUSH2 0x1BD0 JUMP JUMPDEST JUMPDEST EQ PUSH2 0x1489 JUMPI PUSH1 0x40 MLOAD PUSH32 0x8C379A000000000000000000000000000000000000000000000000000000000 DUP2 MSTORE PUSH1 0x4 ADD PUSH2 0x1480 SWAP1 PUSH2 0x2E95 JUMP JUMPDEST PUSH1 0x40 MLOAD DUP1 SWAP2 SUB SWAP1 REVERT JUMPDEST PUSH1 0x2 PUSH0 DUP6 DUP2 MSTORE PUSH1 0x20 ADD SWAP1 DUP2 MSTORE PUSH1 0x20 ADD PUSH0 KECCAK256 PUSH0 ADD SLOAD TIMESTAMP LT PUSH2 0x14DE JUMPI PUSH1 0x40 MLOAD PUSH32 0x8C379A000000000000000000000000000000000000000000000000000000000 DUP2 MSTORE PUSH1 0x4 ADD PUSH2 0x14D5 SWAP1 PUSH2 0x2EFD JUMP JUMPDEST PUSH1 0x40 MLOAD DUP1 SWAP2 SUB SWAP1 REVERT JUMPDEST PUSH1 0x2 PUSH0 DUP6 DUP2 MSTORE PUSH1 0x20 ADD SWAP1 DUP2 MSTORE PUSH1 0x20 ADD PUSH0 KECCAK256 PUSH1 0x1 ADD SLOAD DUP4 PUSH1 0xFF AND PUSH1 0x2 PUSH0 DUP8 DUP2 MSTORE PUSH1 0x20 ADD SWAP1 DUP2 MSTORE PUSH1 0x20 ADD PUSH0 KECCAK256 PUSH1 0x5 ADD SLOAD PUSH2 0x1516 SWAP2 SWAP1 PUSH2 0x284B JUMP JUMPDEST GT ISZERO PUSH2 0x1557 JUMPI PUSH1 0x40 MLOAD PUSH32 0x8C379A000000000000000000000000000000000000000000000000000000000 DUP2 MSTORE PUSH1 0x4 ADD PUSH2 0x154E SWAP1 PUSH2 0x2F65 JUMP JUMPDEST PUSH1 0x40 MLOAD DUP1 SWAP2 SUB SWAP1 REVERT JUMPDEST PUSH0 PUSH1 0x2 PUSH0 DUP7 DUP2 MSTORE PUSH1 0x20 ADD SWAP1 DUP2 MSTORE PUSH1 0x20 ADD PUSH0 KECCAK256 PUSH1 0x4 ADD SLOAD DUP5 PUSH1 0xFF AND PUSH2 0x157B SWAP2 SWAP1 PUSH2 0x2F83 JUMP JUMPDEST SWAP1 POP PUSH0 PUSH1 0x40 MLOAD DUP1 PUSH1 0x80 ADD PUSH1 0x40 MSTORE DUP1 CALLER PUSH20 0xFFFFFFFFFFFFFFFFFFFFFFFFFFFFFFFFFFFFFFFF AND DUP2 MSTORE PUSH1 0x20 ADD DUP7 PUSH1 0xFF AND DUP2 MSTORE PUSH1 0x20 ADD DUP6 DUP2 MSTORE PUSH1 0x20 ADD PUSH0 ISZERO ISZERO DUP2 MSTORE POP SWAP1 POP PUSH1 0x3 PUSH0 DUP8 DUP2 MSTORE PUSH1 0x20 ADD SWAP1 DUP2 MSTORE PUSH1 0x20 ADD PUSH0 KECCAK256 DUP2 SWAP1 DUP1 PUSH1 0x1 DUP2 SLOAD ADD DUP1 DUP3 SSTORE DUP1 SWAP2 POP POP PUSH1 0x1 SWAP1 SUB SWAP1 PUSH0 MSTORE PUSH1 0x20 PUSH0 KECCAK256 SWAP1 PUSH1 0x3 MUL ADD PUSH0 SWAP1 SWAP2 SWAP1 SWAP2 SWAP1 SWAP2 POP PUSH0 DUP3 ADD MLOAD DUP2 PUSH0 ADD PUSH0 PUSH2 0x100 EXP DUP2 SLOAD DUP2 PUSH20 0xFFFFFFFFFFFFFFFFFFFFFFFFFFFFFFFFFFFFFFFF MUL NOT AND SWAP1 DUP4 PUSH20 0xFFFFFFFFFFFFFFFFFFFFFFFFFFFFFFFFFFFFFFFF AND MUL OR SWAP1 SSTORE POP PUSH1 0x20 DUP3 ADD MLOAD DUP2 PUSH0 ADD PUSH1 0x14 PUSH2 0x100 EXP DUP2 SLOAD DUP2 PUSH1 0xFF MUL NOT AND SWAP1 DUP4 PUSH1 0xFF AND MUL OR SWAP1 SSTORE POP PUSH1 0x40 DUP3 ADD MLOAD DUP2 PUSH1 0x1 ADD SSTORE PUSH1 0x60 DUP3 ADD MLOAD DUP2 PUSH1 0x2 ADD PUSH0 PUSH2 0x100 EXP DUP2 SLOAD DUP2 PUSH1 0xFF MUL NOT AND SWAP1 DUP4 ISZERO ISZERO MUL OR SWAP1 SSTORE POP POP POP PUSH1 0x1 PUSH1 0x3 PUSH0 DUP9 DUP2 MSTORE PUSH1 0x20 ADD SWAP1 DUP2 MSTORE PUSH1 0x20 ADD PUSH0 KECCAK256 DUP1 SLOAD SWAP1 POP PUSH2 0x16A4 SWAP2 SWAP1 PUSH2 0x27BB JUMP JUMPDEST SWAP3 POP DUP5 PUSH1 0xFF AND PUSH1 0x2 PUSH0 DUP9 DUP2 MSTORE PUSH1 0x20 ADD SWAP1 DUP2 MSTORE PUSH1 0x20 ADD PUSH0 KECCAK256 PUSH1 0x5 ADD PUSH0 DUP3 DUP3 SLOAD PUSH2 0x16CC SWAP2 SWAP1 PUSH2 0x284B JUMP JUMPDEST SWAP3 POP POP DUP2 SWAP1 SSTORE POP PUSH0 JUMPDEST DUP6 PUSH1 0xFF AND DUP2 PUSH1 0xFF AND LT ISZERO PUSH2 0x17A1 JUMPI PUSH0 PUSH1 0x2 PUSH0 DUP10 DUP2 MSTORE PUSH1 0x20 ADD SWAP1 DUP2 MSTORE PUSH1 0x20 ADD PUSH0 KECCAK256 PUSH1 0x8 ADD SLOAD SWAP1 POP PUSH1 0x1 DUP2 PUSH2 0x1708 SWAP2 SWAP1 PUSH2 0x284B JUMP JUMPDEST SWAP1 POP DUP1 PUSH1 0x2 PUSH0 DUP11 DUP2 MSTORE PUSH1 0x20 ADD SWAP1 DUP2 MSTORE PUSH1 0x20 ADD PUSH0 KECCAK256 PUSH1 0x8 ADD DUP2 SWAP1 SSTORE POP PUSH1 0x6 PUSH0 CALLER PUSH20 0xFFFFFFFFFFFFFFFFFFFFFFFFFFFFFFFFFFFFFFFF AND PUSH20 0xFFFFFFFFFFFFFFFFFFFFFFFFFFFFFFFFFFFFFFFF AND DUP2 MSTORE PUSH1 0x20 ADD SWAP1 DUP2 MSTORE PUSH1 0x20 ADD PUSH0 KECCAK256 PUSH0 DUP10 DUP2 MSTORE PUSH1 0x20 ADD SWAP1 DUP2 MSTORE PUSH1 0x20 ADD PUSH0 KECCAK256 DUP2 SWAP1 DUP1 PUSH1 0x1 DUP2 SLOAD ADD DUP1 DUP3 SSTORE DUP1 SWAP2 POP POP PUSH1 0x1 SWAP1 SUB SWAP1 PUSH0 MSTORE PUSH1 0x20 PUSH0 KECCAK256 ADD PUSH0 SWAP1 SWAP2 SWAP1 SWAP2 SWAP1 SWAP2 POP SSTORE POP DUP1 DUP1 PUSH1 0x1 ADD SWAP2 POP POP PUSH2 0x16D5 JUMP JUMPDEST POP PUSH1 0x1 PUSH1 0x2 PUSH0 PUSH1 0x1 PUSH1 0x14 SWAP1 SLOAD SWAP1 PUSH2 0x100 EXP SWAP1 DIV PUSH4 0xFFFFFFFF AND PUSH4 0xFFFFFFFF AND DUP2 MSTORE PUSH1 0x20 ADD SWAP1 DUP2 MSTORE PUSH1 0x20 ADD PUSH0 KECCAK256 PUSH1 0x7 ADD PUSH0 DUP3 DUP3 SLOAD PUSH2 0x17DE SWAP2 SWAP1 PUSH2 0x284B JUMP JUMPDEST SWAP3 POP POP DUP2 SWAP1 SSTORE POP PUSH32 0x59BA75D1E0D1E869A644823386DDC51ADC655A6EF73720E56B8EEBBB9A47AE07 PUSH1 0x1 PUSH1 0x14 SWAP1 SLOAD SWAP1 PUSH2 0x100 EXP SWAP1 DIV PUSH4 0xFFFFFFFF AND DUP5 DUP8 PUSH1 0x40 MLOAD PUSH2 0x182A SWAP4 SWAP3 SWAP2 SWAP1 PUSH2 0x2FC4 JUMP JUMPDEST PUSH1 0x40 MLOAD DUP1 SWAP2 SUB SWAP1 LOG1 POP POP SWAP4 SWAP3 POP POP POP JUMP JUMPDEST PUSH0 PUSH1 0x2 PUSH0 DUP4 DUP2 MSTORE PUSH1 0x20 ADD SWAP1 DUP2 MSTORE PUSH1 0x20 ADD PUSH0 KECCAK256 PUSH1 0x5 ADD SLOAD SWAP1 POP SWAP2 SWAP1 POP JUMP JUMPDEST PUSH0 PUSH1 0x2 PUSH0 DUP4 DUP2 MSTORE PUSH1 0x20 ADD SWAP1 DUP2 MSTORE PUSH1 0x20 ADD PUSH0 KECCAK256 PUSH1 0xB ADD PUSH0 SWAP1 SLOAD SWAP1 PUSH2 0x100 EXP SWAP1 DIV PUSH20 0xFFFFFFFFFFFFFFFFFFFFFFFFFFFFFFFFFFFFFFFF AND SWAP1 POP SWAP2 SWAP1 POP JUMP JUMPDEST PUSH0 DUP1 SLOAD SWAP1 PUSH2 0x100 EXP SWAP1 DIV PUSH20 0xFFFFFFFFFFFFFFFFFFFFFFFFFFFFFFFFFFFFFFFF AND DUP2 JUMP JUMPDEST PUSH0 PUSH1 0x60 PUSH0 PUSH1 0x2 PUSH0 DUP6 DUP2 MSTORE PUSH1 0x20 ADD SWAP1 DUP2 MSTORE PUSH1 0x20 ADD PUSH0 KECCAK256 SWAP1 POP DUP1 PUSH1 0x9 ADD SLOAD DUP2 PUSH1 0xA ADD DUP1 DUP1 SLOAD PUSH2 0x18E3 SWAP1 PUSH2 0x23B4 JUMP JUMPDEST DUP1 PUSH1 0x1F ADD PUSH1 0x20 DUP1 SWAP2 DIV MUL PUSH1 0x20 ADD PUSH1 0x40 MLOAD SWAP1 DUP2 ADD PUSH1 0x40 MSTORE DUP1 SWAP3 SWAP2 SWAP1 DUP2 DUP2 MSTORE PUSH1 0x20 ADD DUP3 DUP1 SLOAD PUSH2 0x190F SWAP1 PUSH2 0x23B4 JUMP JUMPDEST DUP1 ISZERO PUSH2 0x195A JUMPI DUP1 PUSH1 0x1F LT PUSH2 0x1931 JUMPI PUSH2 0x100 DUP1 DUP4 SLOAD DIV MUL DUP4 MSTORE SWAP2 PUSH1 0x20 ADD SWAP2 PUSH2 0x195A JUMP JUMPDEST DUP3 ADD SWAP2 SWAP1 PUSH0 MSTORE PUSH1 0x20 PUSH0 KECCAK256 SWAP1 JUMPDEST DUP2 SLOAD DUP2 MSTORE SWAP1 PUSH1 0x1 ADD SWAP1 PUSH1 0x20 ADD DUP1 DUP4 GT PUSH2 0x193D JUMPI DUP3 SWAP1 SUB PUSH1 0x1F AND DUP3 ADD SWAP2 JUMPDEST POP POP POP POP POP SWAP1 POP SWAP3 POP SWAP3 POP POP SWAP2 POP SWAP2 JUMP JUMPDEST PUSH0 DUP1 PUSH0 DUP1 PUSH0 DUP1 PUSH1 0x2 PUSH0 DUP9 PUSH4 0xFFFFFFFF AND DUP2 MSTORE PUSH1 0x20 ADD SWAP1 DUP2 MSTORE PUSH1 0x20 ADD PUSH0 KECCAK256 SWAP1 POP DUP1 PUSH0 ADD SLOAD DUP2 PUSH1 0x1 ADD SLOAD DUP3 PUSH1 0x2 ADD SLOAD DUP4 PUSH1 0x3 ADD SLOAD DUP5 PUSH1 0x4 ADD SLOAD SWAP6 POP SWAP6 POP SWAP6 POP SWAP6 POP SWAP6 POP POP SWAP2 SWAP4 SWAP6 SWAP1 SWAP3 SWAP5 POP JUMP JUMPDEST PUSH0 DUP1 PUSH0 SWAP1 POP PUSH0 JUMPDEST PUSH1 0x5 PUSH0 DUP6 DUP2 MSTORE PUSH1 0x20 ADD SWAP1 DUP2 MSTORE PUSH1 0x20 ADD PUSH0 KECCAK256 DUP1 SLOAD SWAP1 POP DUP2 LT ISZERO PUSH2 0x1A1B JUMPI PUSH0 PUSH1 0x5 PUSH0 DUP7 DUP2 MSTORE PUSH1 0x20 ADD SWAP1 DUP2 MSTORE PUSH1 0x20 ADD PUSH0 KECCAK256 DUP3 DUP2 SLOAD DUP2 LT PUSH2 0x19FD JUMPI PUSH2 0x19FC PUSH2 0x235A JUMP JUMPDEST JUMPDEST SWAP1 PUSH0 MSTORE PUSH1 0x20 PUSH0 KECCAK256 ADD SLOAD SWAP1 POP DUP1 DUP4 XOR SWAP3 POP POP DUP1 DUP1 PUSH1 0x1 ADD SWAP2 POP POP PUSH2 0x19BD JUMP JUMPDEST POP PUSH0 PUSH1 0x5 PUSH0 DUP6 DUP2 MSTORE PUSH1 0x20 ADD SWAP1 DUP2 MSTORE PUSH1 0x20 ADD PUSH0 KECCAK256 DUP1 SLOAD SWAP1 POP DUP3 PUSH2 0x1A3D SWAP2 SWAP1 PUSH2 0x2FF9 JUMP JUMPDEST SWAP1 POP PUSH1 0x5 PUSH0 DUP6 DUP2 MSTORE PUSH1 0x20 ADD SWAP1 DUP2 MSTORE PUSH1 0x20 ADD PUSH0 KECCAK256 DUP2 DUP2 SLOAD DUP2 LT PUSH2 0x1A62 JUMPI PUSH2 0x1A61 PUSH2 0x235A JUMP JUMPDEST JUMPDEST SWAP1 PUSH0 MSTORE PUSH1 0x20 PUSH0 KECCAK256 ADD SLOAD SWAP3 POP POP POP SWAP2 SWAP1 POP JUMP JUMPDEST PUSH1 0x6 PUSH1 0x20 MSTORE DUP3 PUSH0 MSTORE PUSH1 0x40 PUSH0 KECCAK256 PUSH1 0x20 MSTORE DUP2 PUSH0 MSTORE PUSH1 0x40 PUSH0 KECCAK256 DUP2 DUP2 SLOAD DUP2 LT PUSH2 0x1A97 JUMPI PUSH0 DUP1 REVERT JUMPDEST SWAP1 PUSH0 MSTORE PUSH1 0x20 PUSH0 KECCAK256 ADD PUSH0 SWAP3 POP SWAP3 POP POP POP SLOAD DUP2 JUMP JUMPDEST PUSH0 PUSH4 0xFFFFFFFF DUP3 AND SWAP1 POP SWAP2 SWAP1 POP JUMP JUMPDEST PUSH2 0x1AC2 DUP2 PUSH2 0x1AAA JUMP JUMPDEST DUP3 MSTORE POP POP JUMP JUMPDEST PUSH0 PUSH1 0x20 DUP3 ADD SWAP1 POP PUSH2 0x1ADB PUSH0 DUP4 ADD DUP5 PUSH2 0x1AB9 JUMP JUMPDEST SWAP3 SWAP2 POP POP JUMP JUMPDEST PUSH0 PUSH1 0x40 MLOAD SWAP1 POP SWAP1 JUMP JUMPDEST PUSH0 DUP1 REVERT JUMPDEST PUSH0 DUP1 REVERT JUMPDEST PUSH0 DUP2 SWAP1 POP SWAP2 SWAP1 POP JUMP JUMPDEST PUSH2 0x1B04 DUP2 PUSH2 0x1AF2 JUMP JUMPDEST DUP2 EQ PUSH2 0x1B0E JUMPI PUSH0 DUP1 REVERT JUMPDEST POP JUMP JUMPDEST PUSH0 DUP2 CALLDATALOAD SWAP1 POP PUSH2 0x1B1F DUP2 PUSH2 0x1AFB JUMP JUMPDEST SWAP3 SWAP2 POP POP JUMP JUMPDEST PUSH0 DUP1 PUSH1 0x40 DUP4 DUP6 SUB SLT ISZERO PUSH2 0x1B3B JUMPI PUSH2 0x1B3A PUSH2 0x1AEA JUMP JUMPDEST JUMPDEST PUSH0 PUSH2 0x1B48 DUP6 DUP3 DUP7 ADD PUSH2 0x1B11 JUMP JUMPDEST SWAP3 POP POP PUSH1 0x20 PUSH2 0x1B59 DUP6 DUP3 DUP7 ADD PUSH2 0x1B11 JUMP JUMPDEST SWAP2 POP POP SWAP3 POP SWAP3 SWAP1 POP JUMP JUMPDEST PUSH0 DUP2 ISZERO ISZERO SWAP1 POP SWAP2 SWAP1 POP JUMP JUMPDEST PUSH2 0x1B77 DUP2 PUSH2 0x1B63 JUMP JUMPDEST DUP3 MSTORE POP POP JUMP JUMPDEST PUSH0 PUSH1 0x20 DUP3 ADD SWAP1 POP PUSH2 0x1B90 PUSH0 DUP4 ADD DUP5 PUSH2 0x1B6E JUMP JUMPDEST SWAP3 SWAP2 POP POP JUMP JUMPDEST PUSH0 PUSH1 0x20 DUP3 DUP5 SUB SLT ISZERO PUSH2 0x1BAB JUMPI PUSH2 0x1BAA PUSH2 0x1AEA JUMP JUMPDEST JUMPDEST PUSH0 PUSH2 0x1BB8 DUP5 DUP3 DUP6 ADD PUSH2 0x1B11 JUMP JUMPDEST SWAP2 POP POP SWAP3 SWAP2 POP POP JUMP JUMPDEST PUSH2 0x1BCA DUP2 PUSH2 0x1AF2 JUMP JUMPDEST DUP3 MSTORE POP POP JUMP JUMPDEST PUSH32 0x4E487B7100000000000000000000000000000000000000000000000000000000 PUSH0 MSTORE PUSH1 0x21 PUSH1 0x4 MSTORE PUSH1 0x24 PUSH0 REVERT JUMPDEST PUSH1 0x5 DUP2 LT PUSH2 0x1C0E JUMPI PUSH2 0x1C0D PUSH2 0x1BD0 JUMP JUMPDEST JUMPDEST POP JUMP JUMPDEST PUSH0 DUP2 SWAP1 POP PUSH2 0x1C1E DUP3 PUSH2 0x1BFD JUMP JUMPDEST SWAP2 SWAP1 POP JUMP JUMPDEST PUSH0 PUSH2 0x1C2D DUP3 PUSH2 0x1C11 JUMP JUMPDEST SWAP1 POP SWAP2 SWAP1 POP JUMP JUMPDEST PUSH2 0x1C3D DUP2 PUSH2 0x1C23 JUMP JUMPDEST DUP3 MSTORE POP POP JUMP JUMPDEST PUSH0 DUP2 SWAP1 POP SWAP2 SWAP1 POP JUMP JUMPDEST PUSH2 0x1C55 DUP2 PUSH2 0x1C43 JUMP JUMPDEST DUP3 MSTORE POP POP JUMP JUMPDEST PUSH0 DUP2 MLOAD SWAP1 POP SWAP2 SWAP1 POP JUMP JUMPDEST PUSH0 DUP3 DUP3 MSTORE PUSH1 0x20 DUP3 ADD SWAP1 POP SWAP3 SWAP2 POP POP JUMP JUMPDEST DUP3 DUP2 DUP4 MCOPY PUSH0 DUP4 DUP4 ADD MSTORE POP POP POP JUMP JUMPDEST PUSH0 PUSH1 0x1F NOT PUSH1 0x1F DUP4 ADD AND SWAP1 POP SWAP2 SWAP1 POP JUMP JUMPDEST PUSH0 PUSH2 0x1C9D DUP3 PUSH2 0x1C5B JUMP JUMPDEST PUSH2 0x1CA7 DUP2 DUP6 PUSH2 0x1C65 JUMP JUMPDEST SWAP4 POP PUSH2 0x1CB7 DUP2 DUP6 PUSH1 0x20 DUP7 ADD PUSH2 0x1C75 JUMP JUMPDEST PUSH2 0x1CC0 DUP2 PUSH2 0x1C83 JUMP JUMPDEST DUP5 ADD SWAP2 POP POP SWAP3 SWAP2 POP POP JUMP JUMPDEST PUSH0 PUSH20 0xFFFFFFFFFFFFFFFFFFFFFFFFFFFFFFFFFFFFFFFF DUP3 AND SWAP1 POP SWAP2 SWAP1 POP JUMP JUMPDEST PUSH0 PUSH2 0x1CF4 DUP3 PUSH2 0x1CCB JUMP JUMPDEST SWAP1 POP SWAP2 SWAP1 POP JUMP JUMPDEST PUSH2 0x1D04 DUP2 PUSH2 0x1CEA JUMP JUMPDEST DUP3 MSTORE POP POP JUMP JUMPDEST PUSH0 PUSH2 0x180 DUP3 ADD SWAP1 POP PUSH2 0x1D1E PUSH0 DUP4 ADD DUP16 PUSH2 0x1BC1 JUMP JUMPDEST PUSH2 0x1D2B PUSH1 0x20 DUP4 ADD DUP15 PUSH2 0x1BC1 JUMP JUMPDEST PUSH2 0x1D38 PUSH1 0x40 DUP4 ADD DUP14 PUSH2 0x1BC1 JUMP JUMPDEST PUSH2 0x1D45 PUSH1 0x60 DUP4 ADD DUP13 PUSH2 0x1BC1 JUMP JUMPDEST PUSH2 0x1D52 PUSH1 0x80 DUP4 ADD DUP12 PUSH2 0x1BC1 JUMP JUMPDEST PUSH2 0x1D5F PUSH1 0xA0 DUP4 ADD DUP11 PUSH2 0x1BC1 JUMP JUMPDEST PUSH2 0x1D6C PUSH1 0xC0 DUP4 ADD DUP10 PUSH2 0x1C34 JUMP JUMPDEST PUSH2 0x1D79 PUSH1 0xE0 DUP4 ADD DUP9 PUSH2 0x1BC1 JUMP JUMPDEST PUSH2 0x1D87 PUSH2 0x100 DUP4 ADD DUP8 PUSH2 0x1BC1 JUMP JUMPDEST PUSH2 0x1D95 PUSH2 0x120 DUP4 ADD DUP7 PUSH2 0x1C4C JUMP JUMPDEST DUP2 DUP2 SUB PUSH2 0x140 DUP4 ADD MSTORE PUSH2 0x1DA8 DUP2 DUP6 PUSH2 0x1C93 JUMP JUMPDEST SWAP1 POP PUSH2 0x1DB8 PUSH2 0x160 DUP4 ADD DUP5 PUSH2 0x1CFB JUMP JUMPDEST SWAP14 SWAP13 POP POP POP POP POP POP POP POP POP POP POP POP POP JUMP JUMPDEST PUSH0 PUSH1 0xFF DUP3 AND SWAP1 POP SWAP2 SWAP1 POP JUMP JUMPDEST PUSH2 0x1DDE DUP2 PUSH2 0x1DC9 JUMP JUMPDEST DUP3 MSTORE POP POP JUMP JUMPDEST PUSH0 PUSH1 0x80 DUP3 ADD SWAP1 POP PUSH2 0x1DF7 PUSH0 DUP4 ADD DUP8 PUSH2 0x1CFB JUMP JUMPDEST PUSH2 0x1E04 PUSH1 0x20 DUP4 ADD DUP7 PUSH2 0x1DD5 JUMP JUMPDEST PUSH2 0x1E11 PUSH1 0x40 DUP4 ADD DUP6 PUSH2 0x1C4C JUMP JUMPDEST PUSH2 0x1E1E PUSH1 0x60 DUP4 ADD DUP5 PUSH2 0x1B6E JUMP JUMPDEST SWAP6 SWAP5 POP POP POP POP POP JUMP JUMPDEST PUSH2 0x1E30 DUP2 PUSH2 0x1CEA JUMP JUMPDEST DUP2 EQ PUSH2 0x1E3A JUMPI PUSH0 DUP1 REVERT JUMPDEST POP JUMP JUMPDEST PUSH0 DUP2 CALLDATALOAD SWAP1 POP PUSH2 0x1E4B DUP2 PUSH2 0x1E27 JUMP JUMPDEST SWAP3 SWAP2 POP POP JUMP JUMPDEST PUSH0 DUP1 PUSH0 PUSH1 0x60 DUP5 DUP7 SUB SLT ISZERO PUSH2 0x1E68 JUMPI PUSH2 0x1E67 PUSH2 0x1AEA JUMP JUMPDEST JUMPDEST PUSH0 PUSH2 0x1E75 DUP7 DUP3 DUP8 ADD PUSH2 0x1E3D JUMP JUMPDEST SWAP4 POP POP PUSH1 0x20 PUSH2 0x1E86 DUP7 DUP3 DUP8 ADD PUSH2 0x1B11 JUMP JUMPDEST SWAP3 POP POP PUSH1 0x40 PUSH2 0x1E97 DUP7 DUP3 DUP8 ADD PUSH2 0x1B11 JUMP JUMPDEST SWAP2 POP POP SWAP3 POP SWAP3 POP SWAP3 JUMP JUMPDEST PUSH0 PUSH1 0x20 DUP3 ADD SWAP1 POP PUSH2 0x1EB4 PUSH0 DUP4 ADD DUP5 PUSH2 0x1BC1 JUMP JUMPDEST SWAP3 SWAP2 POP POP JUMP JUMPDEST PUSH0 PUSH1 0x20 DUP3 DUP5 SUB SLT ISZERO PUSH2 0x1ECF JUMPI PUSH2 0x1ECE PUSH2 0x1AEA JUMP JUMPDEST JUMPDEST PUSH0 PUSH2 0x1EDC DUP5 DUP3 DUP6 ADD PUSH2 0x1E3D JUMP JUMPDEST SWAP2 POP POP SWAP3 SWAP2 POP POP JUMP JUMPDEST PUSH2 0x1EEE DUP2 PUSH2 0x1C43 JUMP JUMPDEST DUP2 EQ PUSH2 0x1EF8 JUMPI PUSH0 DUP1 REVERT JUMPDEST POP JUMP JUMPDEST PUSH0 DUP2 CALLDATALOAD SWAP1 POP PUSH2 0x1F09 DUP2 PUSH2 0x1EE5 JUMP JUMPDEST SWAP3 SWAP2 POP POP JUMP JUMPDEST PUSH0 DUP1 REVERT JUMPDEST PUSH0 DUP1 REVERT JUMPDEST PUSH32 0x4E487B7100000000000000000000000000000000000000000000000000000000 PUSH0 MSTORE PUSH1 0x41 PUSH1 0x4 MSTORE PUSH1 0x24 PUSH0 REVERT JUMPDEST PUSH2 0x1F4D DUP3 PUSH2 0x1C83 JUMP JUMPDEST DUP2 ADD DUP2 DUP2 LT PUSH8 0xFFFFFFFFFFFFFFFF DUP3 GT OR ISZERO PUSH2 0x1F6C JUMPI PUSH2 0x1F6B PUSH2 0x1F17 JUMP JUMPDEST JUMPDEST DUP1 PUSH1 0x40 MSTORE POP POP POP JUMP JUMPDEST PUSH0 PUSH2 0x1F7E PUSH2 0x1AE1 JUMP JUMPDEST SWAP1 POP PUSH2 0x1F8A DUP3 DUP3 PUSH2 0x1F44 JUMP JUMPDEST SWAP2 SWAP1 POP JUMP JUMPDEST PUSH0 PUSH8 0xFFFFFFFFFFFFFFFF DUP3 GT ISZERO PUSH2 0x1FA9 JUMPI PUSH2 0x1FA8 PUSH2 0x1F17 JUMP JUMPDEST JUMPDEST PUSH2 0x1FB2 DUP3 PUSH2 0x1C83 JUMP JUMPDEST SWAP1 POP PUSH1 0x20 DUP2 ADD SWAP1 POP SWAP2 SWAP1 POP JUMP JUMPDEST DUP3 DUP2 DUP4 CALLDATACOPY PUSH0 DUP4 DUP4 ADD MSTORE POP POP POP JUMP JUMPDEST PUSH0 PUSH2 0x1FDF PUSH2 0x1FDA DUP5 PUSH2 0x1F8F JUMP JUMPDEST PUSH2 0x1F75 JUMP JUMPDEST SWAP1 POP DUP3 DUP2 MSTORE PUSH1 0x20 DUP2 ADD DUP5 DUP5 DUP5 ADD GT ISZERO PUSH2 0x1FFB JUMPI PUSH2 0x1FFA PUSH2 0x1F13 JUMP JUMPDEST JUMPDEST PUSH2 0x2006 DUP5 DUP3 DUP6 PUSH2 0x1FBF JUMP JUMPDEST POP SWAP4 SWAP3 POP POP POP JUMP JUMPDEST PUSH0 DUP3 PUSH1 0x1F DUP4 ADD SLT PUSH2 0x2022 JUMPI PUSH2 0x2021 PUSH2 0x1F0F JUMP JUMPDEST JUMPDEST DUP2 CALLDATALOAD PUSH2 0x2032 DUP5 DUP3 PUSH1 0x20 DUP7 ADD PUSH2 0x1FCD JUMP JUMPDEST SWAP2 POP POP SWAP3 SWAP2 POP POP JUMP JUMPDEST PUSH0 DUP1 PUSH0 DUP1 PUSH0 DUP1 PUSH0 PUSH1 0xE0 DUP9 DUP11 SUB SLT ISZERO PUSH2 0x2056 JUMPI PUSH2 0x2055 PUSH2 0x1AEA JUMP JUMPDEST JUMPDEST PUSH0 PUSH2 0x2063 DUP11 DUP3 DUP12 ADD PUSH2 0x1B11 JUMP JUMPDEST SWAP8 POP POP PUSH1 0x20 PUSH2 0x2074 DUP11 DUP3 DUP12 ADD PUSH2 0x1B11 JUMP JUMPDEST SWAP7 POP POP PUSH1 0x40 PUSH2 0x2085 DUP11 DUP3 DUP12 ADD PUSH2 0x1B11 JUMP JUMPDEST SWAP6 POP POP PUSH1 0x60 PUSH2 0x2096 DUP11 DUP3 DUP12 ADD PUSH2 0x1B11 JUMP JUMPDEST SWAP5 POP POP PUSH1 0x80 PUSH2 0x20A7 DUP11 DUP3 DUP12 ADD PUSH2 0x1B11 JUMP JUMPDEST SWAP4 POP POP PUSH1 0xA0 PUSH2 0x20B8 DUP11 DUP3 DUP12 ADD PUSH2 0x1EFB JUMP JUMPDEST SWAP3 POP POP PUSH1 0xC0 DUP9 ADD CALLDATALOAD PUSH8 0xFFFFFFFFFFFFFFFF DUP2 GT ISZERO PUSH2 0x20D9 JUMPI PUSH2 0x20D8 PUSH2 0x1AEE JUMP JUMPDEST JUMPDEST PUSH2 0x20E5 DUP11 DUP3 DUP12 ADD PUSH2 0x200E JUMP JUMPDEST SWAP2 POP POP SWAP3 SWAP6 SWAP9 SWAP2 SWAP5 SWAP8 POP SWAP3 SWAP6 POP JUMP JUMPDEST PUSH0 PUSH1 0x40 DUP3 ADD SWAP1 POP PUSH2 0x2107 PUSH0 DUP4 ADD DUP6 PUSH2 0x1BC1 JUMP JUMPDEST PUSH2 0x2114 PUSH1 0x20 DUP4 ADD DUP5 PUSH2 0x1DD5 JUMP JUMPDEST SWAP4 SWAP3 POP POP POP JUMP JUMPDEST PUSH0 PUSH1 0x20 DUP3 ADD SWAP1 POP PUSH2 0x212E PUSH0 DUP4 ADD DUP5 PUSH2 0x1CFB JUMP JUMPDEST SWAP3 SWAP2 POP POP JUMP JUMPDEST PUSH0 DUP1 PUSH0 DUP1 PUSH1 0x80 DUP6 DUP8 SUB SLT ISZERO PUSH2 0x214C JUMPI PUSH2 0x214B PUSH2 0x1AEA JUMP JUMPDEST JUMPDEST PUSH0 PUSH2 0x2159 DUP8 DUP3 DUP9 ADD PUSH2 0x1B11 JUMP JUMPDEST SWAP5 POP POP PUSH1 0x20 PUSH2 0x216A DUP8 DUP3 DUP9 ADD PUSH2 0x1B11 JUMP JUMPDEST SWAP4 POP POP PUSH1 0x40 PUSH2 0x217B DUP8 DUP3 DUP9 ADD PUSH2 0x1B11 JUMP JUMPDEST SWAP3 POP POP PUSH1 0x60 PUSH2 0x218C DUP8 DUP3 DUP9 ADD PUSH2 0x1B11 JUMP JUMPDEST SWAP2 POP POP SWAP3 SWAP6 SWAP2 SWAP5 POP SWAP3 POP JUMP JUMPDEST PUSH2 0x21A1 DUP2 PUSH2 0x1DC9 JUMP JUMPDEST DUP2 EQ PUSH2 0x21AB JUMPI PUSH0 DUP1 REVERT JUMPDEST POP JUMP JUMPDEST PUSH0 DUP2 CALLDATALOAD SWAP1 POP PUSH2 0x21BC DUP2 PUSH2 0x2198 JUMP JUMPDEST SWAP3 SWAP2 POP POP JUMP JUMPDEST PUSH0 DUP1 PUSH0 PUSH1 0x60 DUP5 DUP7 SUB SLT ISZERO PUSH2 0x21D9 JUMPI PUSH2 0x21D8 PUSH2 0x1AEA JUMP JUMPDEST JUMPDEST PUSH0 PUSH2 0x21E6 DUP7 DUP3 DUP8 ADD PUSH2 0x1B11 JUMP JUMPDEST SWAP4 POP POP PUSH1 0x20 PUSH2 0x21F7 DUP7 DUP3 DUP8 ADD PUSH2 0x21AE JUMP JUMPDEST SWAP3 POP POP PUSH1 0x40 PUSH2 0x2208 DUP7 DUP3 DUP8 ADD PUSH2 0x1EFB JUMP JUMPDEST SWAP2 POP POP SWAP3 POP SWAP3 POP SWAP3 JUMP JUMPDEST PUSH0 DUP2 SWAP1 POP SWAP2 SWAP1 POP JUMP JUMPDEST PUSH0 PUSH2 0x2235 PUSH2 0x2230 PUSH2 0x222B DUP5 PUSH2 0x1CCB JUMP JUMPDEST PUSH2 0x2212 JUMP JUMPDEST PUSH2 0x1CCB JUMP JUMPDEST SWAP1 POP SWAP2 SWAP1 POP JUMP JUMPDEST PUSH0 PUSH2 0x2246 DUP3 PUSH2 0x221B JUMP JUMPDEST SWAP1 POP SWAP2 SWAP1 POP JUMP JUMPDEST PUSH0 PUSH2 0x2257 DUP3 PUSH2 0x223C JUMP JUMPDEST SWAP1 POP SWAP2 SWAP1 POP JUMP JUMPDEST PUSH2 0x2267 DUP2 PUSH2 0x224D JUMP JUMPDEST DUP3 MSTORE POP POP JUMP JUMPDEST PUSH0 PUSH1 0x20 DUP3 ADD SWAP1 POP PUSH2 0x2280 PUSH0 DUP4 ADD DUP5 PUSH2 0x225E JUMP JUMPDEST SWAP3 SWAP2 POP POP JUMP JUMPDEST PUSH0 PUSH1 0x40 DUP3 ADD SWAP1 POP PUSH2 0x2299 PUSH0 DUP4 ADD DUP6 PUSH2 0x1C4C JUMP JUMPDEST DUP2 DUP2 SUB PUSH1 0x20 DUP4 ADD MSTORE PUSH2 0x22AB DUP2 DUP5 PUSH2 0x1C93 JUMP JUMPDEST SWAP1 POP SWAP4 SWAP3 POP POP POP JUMP JUMPDEST PUSH2 0x22BD DUP2 PUSH2 0x1AAA JUMP JUMPDEST DUP2 EQ PUSH2 0x22C7 JUMPI PUSH0 DUP1 REVERT JUMPDEST POP JUMP JUMPDEST PUSH0 DUP2 CALLDATALOAD SWAP1 POP PUSH2 0x22D8 DUP2 PUSH2 0x22B4 JUMP JUMPDEST SWAP3 SWAP2 POP POP JUMP JUMPDEST PUSH0 PUSH1 0x20 DUP3 DUP5 SUB SLT ISZERO PUSH2 0x22F3 JUMPI PUSH2 0x22F2 PUSH2 0x1AEA JUMP JUMPDEST JUMPDEST PUSH0 PUSH2 0x2300 DUP5 DUP3 DUP6 ADD PUSH2 0x22CA JUMP JUMPDEST SWAP2 POP POP SWAP3 SWAP2 POP POP JUMP JUMPDEST PUSH0 PUSH1 0xA0 DUP3 ADD SWAP1 POP PUSH2 0x231C PUSH0 DUP4 ADD DUP9 PUSH2 0x1BC1 JUMP JUMPDEST PUSH2 0x2329 PUSH1 0x20 DUP4 ADD DUP8 PUSH2 0x1BC1 JUMP JUMPDEST PUSH2 0x2336 PUSH1 0x40 DUP4 ADD DUP7 PUSH2 0x1BC1 JUMP JUMPDEST PUSH2 0x2343 PUSH1 0x60 DUP4 ADD DUP6 PUSH2 0x1BC1 JUMP JUMPDEST PUSH2 0x2350 PUSH1 0x80 DUP4 ADD DUP5 PUSH2 0x1BC1 JUMP JUMPDEST SWAP7 SWAP6 POP POP POP POP POP POP JUMP JUMPDEST PUSH32 0x4E487B7100000000000000000000000000000000000000000000000000000000 PUSH0 MSTORE PUSH1 0x32 PUSH1 0x4 MSTORE PUSH1 0x24 PUSH0 REVERT JUMPDEST PUSH32 0x4E487B7100000000000000000000000000000000000000000000000000000000 PUSH0 MSTORE PUSH1 0x22 PUSH1 0x4 MSTORE PUSH1 0x24 PUSH0 REVERT JUMPDEST PUSH0 PUSH1 0x2 DUP3 DIV SWAP1 POP PUSH1 0x1 DUP3 AND DUP1 PUSH2 0x23CB JUMPI PUSH1 0x7F DUP3 AND SWAP2 POP JUMPDEST PUSH1 0x20 DUP3 LT DUP2 SUB PUSH2 0x23DE JUMPI PUSH2 0x23DD PUSH2 0x2387 JUMP JUMPDEST JUMPDEST POP SWAP2 SWAP1 POP JUMP JUMPDEST PUSH32 0x4C6F747465727920686173206E6F7420656E6465640000000000000000000000 PUSH0 DUP3 ADD MSTORE POP JUMP JUMPDEST PUSH0 PUSH2 0x2418 PUSH1 0x15 DUP4 PUSH2 0x1C65 JUMP JUMPDEST SWAP2 POP PUSH2 0x2423 DUP3 PUSH2 0x23E4 JUMP JUMPDEST PUSH1 0x20 DUP3 ADD SWAP1 POP SWAP2 SWAP1 POP JUMP JUMPDEST PUSH0 PUSH1 0x20 DUP3 ADD SWAP1 POP DUP2 DUP2 SUB PUSH0 DUP4 ADD MSTORE PUSH2 0x2445 DUP2 PUSH2 0x240C JUMP JUMPDEST SWAP1 POP SWAP2 SWAP1 POP JUMP JUMPDEST PUSH32 0x4C6F7474657279206973206E6F742063616E63656C6564000000000000000000 PUSH0 DUP3 ADD MSTORE POP JUMP JUMPDEST PUSH0 PUSH2 0x2480 PUSH1 0x17 DUP4 PUSH2 0x1C65 JUMP JUMPDEST SWAP2 POP PUSH2 0x248B DUP3 PUSH2 0x244C JUMP JUMPDEST PUSH1 0x20 DUP3 ADD SWAP1 POP SWAP2 SWAP1 POP JUMP JUMPDEST PUSH0 PUSH1 0x20 DUP3 ADD SWAP1 POP DUP2 DUP2 SUB PUSH0 DUP4 ADD MSTORE PUSH2 0x24AD DUP2 PUSH2 0x2474 JUMP JUMPDEST SWAP1 POP SWAP2 SWAP1 POP JUMP JUMPDEST PUSH0 PUSH1 0x60 DUP3 ADD SWAP1 POP PUSH2 0x24C7 PUSH0 DUP4 ADD DUP7 PUSH2 0x1BC1 JUMP JUMPDEST PUSH2 0x24D4 PUSH1 0x20 DUP4 ADD DUP6 PUSH2 0x1CFB JUMP JUMPDEST PUSH2 0x24E1 PUSH1 0x40 DUP4 ADD DUP5 PUSH2 0x1BC1 JUMP JUMPDEST SWAP5 SWAP4 POP POP POP POP JUMP JUMPDEST PUSH32 0x4F6E6C7920746865206F776E65722063616E2063616C6C20746869732066756E PUSH0 DUP3 ADD MSTORE PUSH32 0x6374696F6E000000000000000000000000000000000000000000000000000000 PUSH1 0x20 DUP3 ADD MSTORE POP JUMP JUMPDEST PUSH0 PUSH2 0x2543 PUSH1 0x25 DUP4 PUSH2 0x1C65 JUMP JUMPDEST SWAP2 POP PUSH2 0x254E DUP3 PUSH2 0x24E9 JUMP JUMPDEST PUSH1 0x40 DUP3 ADD SWAP1 POP SWAP2 SWAP1 POP JUMP JUMPDEST PUSH0 PUSH1 0x20 DUP3 ADD SWAP1 POP DUP2 DUP2 SUB PUSH0 DUP4 ADD MSTORE PUSH2 0x2570 DUP2 PUSH2 0x2537 JUMP JUMPDEST SWAP1 POP SWAP2 SWAP1 POP JUMP JUMPDEST PUSH32 0x496E76616C696420746F6B656E20616464726573730000000000000000000000 PUSH0 DUP3 ADD MSTORE POP JUMP JUMPDEST PUSH0 PUSH2 0x25AB PUSH1 0x15 DUP4 PUSH2 0x1C65 JUMP JUMPDEST SWAP2 POP PUSH2 0x25B6 DUP3 PUSH2 0x2577 JUMP JUMPDEST PUSH1 0x20 DUP3 ADD SWAP1 POP SWAP2 SWAP1 POP JUMP JUMPDEST PUSH0 PUSH1 0x20 DUP3 ADD SWAP1 POP DUP2 DUP2 SUB PUSH0 DUP4 ADD MSTORE PUSH2 0x25D8 DUP2 PUSH2 0x259F JUMP JUMPDEST SWAP1 POP SWAP2 SWAP1 POP JUMP JUMPDEST PUSH32 0x4174206C65617374206F6E652077696E6E657220726571756972656400000000 PUSH0 DUP3 ADD MSTORE POP JUMP JUMPDEST PUSH0 PUSH2 0x2613 PUSH1 0x1C DUP4 PUSH2 0x1C65 JUMP JUMPDEST SWAP2 POP PUSH2 0x261E DUP3 PUSH2 0x25DF JUMP JUMPDEST PUSH1 0x20 DUP3 ADD SWAP1 POP SWAP2 SWAP1 POP JUMP JUMPDEST PUSH0 PUSH1 0x20 DUP3 ADD SWAP1 POP DUP2 DUP2 SUB PUSH0 DUP4 ADD MSTORE PUSH2 0x2640 DUP2 PUSH2 0x2607 JUMP JUMPDEST SWAP1 POP SWAP2 SWAP1 POP JUMP JUMPDEST PUSH32 0x4D696E2070617274696369706174696F6E2063616E6E6F742065786365656420 PUSH0 DUP3 ADD MSTORE PUSH32 0x3130300000000000000000000000000000000000000000000000000000000000 PUSH1 0x20 DUP3 ADD MSTORE POP JUMP JUMPDEST PUSH0 PUSH2 0x26A1 PUSH1 0x23 DUP4 PUSH2 0x1C65 JUMP JUMPDEST SWAP2 POP PUSH2 0x26AC DUP3 PUSH2 0x2647 JUMP JUMPDEST PUSH1 0x40 DUP3 ADD SWAP1 POP SWAP2 SWAP1 POP JUMP JUMPDEST PUSH0 PUSH1 0x20 DUP3 ADD SWAP1 POP DUP2 DUP2 SUB PUSH0 DUP4 ADD MSTORE PUSH2 0x26CE DUP2 PUSH2 0x2695 JUMP JUMPDEST SWAP1 POP SWAP2 SWAP1 POP JUMP JUMPDEST PUSH32 0x4E487B7100000000000000000000000000000000000000000000000000000000 PUSH0 MSTORE PUSH1 0x11 PUSH1 0x4 MSTORE PUSH1 0x24 PUSH0 REVERT JUMPDEST PUSH0 PUSH2 0x270C DUP3 PUSH2 0x1AAA JUMP JUMPDEST SWAP2 POP PUSH4 0xFFFFFFFF DUP3 SUB PUSH2 0x2722 JUMPI PUSH2 0x2721 PUSH2 0x26D5 JUMP JUMPDEST JUMPDEST PUSH1 0x1 DUP3 ADD SWAP1 POP SWAP2 SWAP1 POP JUMP JUMPDEST PUSH32 0x4C6F74746572792073746172742074696D65206D75737420626520696E207468 PUSH0 DUP3 ADD MSTORE PUSH32 0x65206675747572652E0000000000000000000000000000000000000000000000 PUSH1 0x20 DUP3 ADD MSTORE POP JUMP JUMPDEST PUSH0 PUSH2 0x2787 PUSH1 0x29 DUP4 PUSH2 0x1C65 JUMP JUMPDEST SWAP2 POP PUSH2 0x2792 DUP3 PUSH2 0x272D JUMP JUMPDEST PUSH1 0x40 DUP3 ADD SWAP1 POP SWAP2 SWAP1 POP JUMP JUMPDEST PUSH0 PUSH1 0x20 DUP3 ADD SWAP1 POP DUP2 DUP2 SUB PUSH0 DUP4 ADD MSTORE PUSH2 0x27B4 DUP2 PUSH2 0x277B JUMP JUMPDEST SWAP1 POP SWAP2 SWAP1 POP JUMP JUMPDEST PUSH0 PUSH2 0x27C5 DUP3 PUSH2 0x1AF2 JUMP JUMPDEST SWAP2 POP PUSH2 0x27D0 DUP4 PUSH2 0x1AF2 JUMP JUMPDEST SWAP3 POP DUP3 DUP3 SUB SWAP1 POP DUP2 DUP2 GT ISZERO PUSH2 0x27E8 JUMPI PUSH2 0x27E7 PUSH2 0x26D5 JUMP JUMPDEST JUMPDEST SWAP3 SWAP2 POP POP JUMP JUMPDEST PUSH32 0x4E487B7100000000000000000000000000000000000000000000000000000000 PUSH0 MSTORE PUSH1 0x12 PUSH1 0x4 MSTORE PUSH1 0x24 PUSH0 REVERT JUMPDEST PUSH0 PUSH2 0x2825 DUP3 PUSH2 0x1AF2 JUMP JUMPDEST SWAP2 POP PUSH2 0x2830 DUP4 PUSH2 0x1AF2 JUMP JUMPDEST SWAP3 POP DUP3 PUSH2 0x2840 JUMPI PUSH2 0x283F PUSH2 0x27EE JUMP JUMPDEST JUMPDEST DUP3 DUP3 DIV SWAP1 POP SWAP3 SWAP2 POP POP JUMP JUMPDEST PUSH0 PUSH2 0x2855 DUP3 PUSH2 0x1AF2 JUMP JUMPDEST SWAP2 POP PUSH2 0x2860 DUP4 PUSH2 0x1AF2 JUMP JUMPDEST SWAP3 POP DUP3 DUP3 ADD SWAP1 POP DUP1 DUP3 GT ISZERO PUSH2 0x2878 JUMPI PUSH2 0x2877 PUSH2 0x26D5 JUMP JUMPDEST JUMPDEST SWAP3 SWAP2 POP POP JUMP JUMPDEST PUSH0 DUP2 SWAP1 POP DUP2 PUSH0 MSTORE PUSH1 0x20 PUSH0 KECCAK256 SWAP1 POP SWAP2 SWAP1 POP JUMP JUMPDEST PUSH0 PUSH1 0x20 PUSH1 0x1F DUP4 ADD DIV SWAP1 POP SWAP2 SWAP1 POP JUMP JUMPDEST PUSH0 DUP3 DUP3 SHL SWAP1 POP SWAP3 SWAP2 POP POP JUMP JUMPDEST PUSH0 PUSH1 0x8 DUP4 MUL PUSH2 0x28DA PUSH32 0xFFFFFFFFFFFFFFFFFFFFFFFFFFFFFFFFFFFFFFFFFFFFFFFFFFFFFFFFFFFFFFFF DUP3 PUSH2 0x289F JUMP JUMPDEST PUSH2 0x28E4 DUP7 DUP4 PUSH2 0x289F JUMP JUMPDEST SWAP6 POP DUP1 NOT DUP5 AND SWAP4 POP DUP1 DUP7 AND DUP5 OR SWAP3 POP POP POP SWAP4 SWAP3 POP POP POP JUMP JUMPDEST PUSH0 PUSH2 0x2916 PUSH2 0x2911 PUSH2 0x290C DUP5 PUSH2 0x1AF2 JUMP JUMPDEST PUSH2 0x2212 JUMP JUMPDEST PUSH2 0x1AF2 JUMP JUMPDEST SWAP1 POP SWAP2 SWAP1 POP JUMP JUMPDEST PUSH0 DUP2 SWAP1 POP SWAP2 SWAP1 POP JUMP JUMPDEST PUSH2 0x292F DUP4 PUSH2 0x28FC JUMP JUMPDEST PUSH2 0x2943 PUSH2 0x293B DUP3 PUSH2 0x291D JUMP JUMPDEST DUP5 DUP5 SLOAD PUSH2 0x28AB JUMP JUMPDEST DUP3 SSTORE POP POP POP POP JUMP JUMPDEST PUSH0 SWAP1 JUMP JUMPDEST PUSH2 0x2957 PUSH2 0x294B JUMP JUMPDEST PUSH2 0x2962 DUP2 DUP5 DUP5 PUSH2 0x2926 JUMP JUMPDEST POP POP POP JUMP JUMPDEST JUMPDEST DUP2 DUP2 LT ISZERO PUSH2 0x2985 JUMPI PUSH2 0x297A PUSH0 DUP3 PUSH2 0x294F JUMP JUMPDEST PUSH1 0x1 DUP2 ADD SWAP1 POP PUSH2 0x2968 JUMP JUMPDEST POP POP JUMP JUMPDEST PUSH1 0x1F DUP3 GT ISZERO PUSH2 0x29CA JUMPI PUSH2 0x299B DUP2 PUSH2 0x287E JUMP JUMPDEST PUSH2 0x29A4 DUP5 PUSH2 0x2890 JUMP JUMPDEST DUP2 ADD PUSH1 0x20 DUP6 LT ISZERO PUSH2 0x29B3 JUMPI DUP2 SWAP1 POP JUMPDEST PUSH2 0x29C7 PUSH2 0x29BF DUP6 PUSH2 0x2890 JUMP JUMPDEST DUP4 ADD DUP3 PUSH2 0x2967 JUMP JUMPDEST POP POP JUMPDEST POP POP POP JUMP JUMPDEST PUSH0 DUP3 DUP3 SHR SWAP1 POP SWAP3 SWAP2 POP POP JUMP JUMPDEST PUSH0 PUSH2 0x29EA PUSH0 NOT DUP5 PUSH1 0x8 MUL PUSH2 0x29CF JUMP JUMPDEST NOT DUP1 DUP4 AND SWAP2 POP POP SWAP3 SWAP2 POP POP JUMP JUMPDEST PUSH0 PUSH2 0x2A02 DUP4 DUP4 PUSH2 0x29DB JUMP JUMPDEST SWAP2 POP DUP3 PUSH1 0x2 MUL DUP3 OR SWAP1 POP SWAP3 SWAP2 POP POP JUMP JUMPDEST PUSH2 0x2A1B DUP3 PUSH2 0x1C5B JUMP JUMPDEST PUSH8 0xFFFFFFFFFFFFFFFF DUP2 GT ISZERO PUSH2 0x2A34 JUMPI PUSH2 0x2A33 PUSH2 0x1F17 JUMP JUMPDEST JUMPDEST PUSH2 0x2A3E DUP3 SLOAD PUSH2 0x23B4 JUMP JUMPDEST PUSH2 0x2A49 DUP3 DUP3 DUP6 PUSH2 0x2989 JUMP JUMPDEST PUSH0 PUSH1 0x20 SWAP1 POP PUSH1 0x1F DUP4 GT PUSH1 0x1 DUP2 EQ PUSH2 0x2A7A JUMPI PUSH0 DUP5 ISZERO PUSH2 0x2A68 JUMPI DUP3 DUP8 ADD MLOAD SWAP1 POP JUMPDEST PUSH2 0x2A72 DUP6 DUP3 PUSH2 0x29F7 JUMP JUMPDEST DUP7 SSTORE POP PUSH2 0x2AD9 JUMP JUMPDEST PUSH1 0x1F NOT DUP5 AND PUSH2 0x2A88 DUP7 PUSH2 0x287E JUMP JUMPDEST PUSH0 JUMPDEST DUP3 DUP2 LT ISZERO PUSH2 0x2AAF JUMPI DUP5 DUP10 ADD MLOAD DUP3 SSTORE PUSH1 0x1 DUP3 ADD SWAP2 POP PUSH1 0x20 DUP6 ADD SWAP5 POP PUSH1 0x20 DUP2 ADD SWAP1 POP PUSH2 0x2A8A JUMP JUMPDEST DUP7 DUP4 LT ISZERO PUSH2 0x2ACC JUMPI DUP5 DUP10 ADD MLOAD PUSH2 0x2AC8 PUSH1 0x1F DUP10 AND DUP3 PUSH2 0x29DB JUMP JUMPDEST DUP4 SSTORE POP JUMPDEST PUSH1 0x1 PUSH1 0x2 DUP9 MUL ADD DUP9 SSTORE POP POP POP JUMPDEST POP POP POP POP POP POP JUMP JUMPDEST PUSH0 PUSH2 0x2AFB PUSH2 0x2AF6 PUSH2 0x2AF1 DUP5 PUSH2 0x1AAA JUMP JUMPDEST PUSH2 0x2212 JUMP JUMPDEST PUSH2 0x1AF2 JUMP JUMPDEST SWAP1 POP SWAP2 SWAP1 POP JUMP JUMPDEST PUSH2 0x2B0B DUP2 PUSH2 0x2AE1 JUMP JUMPDEST DUP3 MSTORE POP POP JUMP JUMPDEST PUSH0 PUSH1 0x60 DUP3 ADD SWAP1 POP PUSH2 0x2B24 PUSH0 DUP4 ADD DUP7 PUSH2 0x2B02 JUMP JUMPDEST PUSH2 0x2B31 PUSH1 0x20 DUP4 ADD DUP6 PUSH2 0x1BC1 JUMP JUMPDEST PUSH2 0x2B3E PUSH1 0x40 DUP4 ADD DUP5 PUSH2 0x1BC1 JUMP JUMPDEST SWAP5 SWAP4 POP POP POP POP JUMP JUMPDEST PUSH32 0x496E646578206F7574206F662072616E67650000000000000000000000000000 PUSH0 DUP3 ADD MSTORE POP JUMP JUMPDEST PUSH0 PUSH2 0x2B7A PUSH1 0x12 DUP4 PUSH2 0x1C65 JUMP JUMPDEST SWAP2 POP PUSH2 0x2B85 DUP3 PUSH2 0x2B46 JUMP JUMPDEST PUSH1 0x20 DUP3 ADD SWAP1 POP SWAP2 SWAP1 POP JUMP JUMPDEST PUSH0 PUSH1 0x20 DUP3 ADD SWAP1 POP DUP2 DUP2 SUB PUSH0 DUP4 ADD MSTORE PUSH2 0x2BA7 DUP2 PUSH2 0x2B6E JUMP JUMPDEST SWAP1 POP SWAP2 SWAP1 POP JUMP JUMPDEST PUSH32 0x5469636B657420646F6573206E6F742065786973740000000000000000000000 PUSH0 DUP3 ADD MSTORE POP JUMP JUMPDEST PUSH0 PUSH2 0x2BE2 PUSH1 0x15 DUP4 PUSH2 0x1C65 JUMP JUMPDEST SWAP2 POP PUSH2 0x2BED DUP3 PUSH2 0x2BAE JUMP JUMPDEST PUSH1 0x20 DUP3 ADD SWAP1 POP SWAP2 SWAP1 POP JUMP JUMPDEST PUSH0 PUSH1 0x20 DUP3 ADD SWAP1 POP DUP2 DUP2 SUB PUSH0 DUP4 ADD MSTORE PUSH2 0x2C0F DUP2 PUSH2 0x2BD6 JUMP JUMPDEST SWAP1 POP SWAP2 SWAP1 POP JUMP JUMPDEST PUSH32 0x4E6F7420746865207469636B6574206F776E6572000000000000000000000000 PUSH0 DUP3 ADD MSTORE POP JUMP JUMPDEST PUSH0 PUSH2 0x2C4A PUSH1 0x14 DUP4 PUSH2 0x1C65 JUMP JUMPDEST SWAP2 POP PUSH2 0x2C55 DUP3 PUSH2 0x2C16 JUMP JUMPDEST PUSH1 0x20 DUP3 ADD SWAP1 POP SWAP2 SWAP1 POP JUMP JUMPDEST PUSH0 PUSH1 0x20 DUP3 ADD SWAP1 POP DUP2 DUP2 SUB PUSH0 DUP4 ADD MSTORE PUSH2 0x2C77 DUP2 PUSH2 0x2C3E JUMP JUMPDEST SWAP1 POP SWAP2 SWAP1 POP JUMP JUMPDEST PUSH32 0x5175616E74697479206D69736D61746368000000000000000000000000000000 PUSH0 DUP3 ADD MSTORE POP JUMP JUMPDEST PUSH0 PUSH2 0x2CB2 PUSH1 0x11 DUP4 PUSH2 0x1C65 JUMP JUMPDEST SWAP2 POP PUSH2 0x2CBD DUP3 PUSH2 0x2C7E JUMP JUMPDEST PUSH1 0x20 DUP3 ADD SWAP1 POP SWAP2 SWAP1 POP JUMP JUMPDEST PUSH0 PUSH1 0x20 DUP3 ADD SWAP1 POP DUP2 DUP2 SUB PUSH0 DUP4 ADD MSTORE PUSH2 0x2CDF DUP2 PUSH2 0x2CA6 JUMP JUMPDEST SWAP1 POP SWAP2 SWAP1 POP JUMP JUMPDEST PUSH32 0x52616E646F6D206E756D62657220616C72656164792072657665616C65640000 PUSH0 DUP3 ADD MSTORE POP JUMP JUMPDEST PUSH0 PUSH2 0x2D1A PUSH1 0x1E DUP4 PUSH2 0x1C65 JUMP JUMPDEST SWAP2 POP PUSH2 0x2D25 DUP3 PUSH2 0x2CE6 JUMP JUMPDEST PUSH1 0x20 DUP3 ADD SWAP1 POP SWAP2 SWAP1 POP JUMP JUMPDEST PUSH0 PUSH1 0x20 DUP3 ADD SWAP1 POP DUP2 DUP2 SUB PUSH0 DUP4 ADD MSTORE PUSH2 0x2D47 DUP2 PUSH2 0x2D0E JUMP JUMPDEST SWAP1 POP SWAP2 SWAP1 POP JUMP JUMPDEST PUSH0 DUP2 SWAP1 POP SWAP2 SWAP1 POP JUMP JUMPDEST PUSH2 0x2D68 PUSH2 0x2D63 DUP3 PUSH2 0x1AF2 JUMP JUMPDEST PUSH2 0x2D4E JUMP JUMPDEST DUP3 MSTORE POP POP JUMP JUMPDEST PUSH0 PUSH2 0x2D79 DUP3 DUP5 PUSH2 0x2D57 JUMP JUMPDEST PUSH1 0x20 DUP3 ADD SWAP2 POP DUP2 SWAP1 POP SWAP3 SWAP2 POP POP JUMP JUMPDEST PUSH32 0x52616E646F6D206E756D62657220646F6573206E6F74206D6174636820636F6D PUSH0 DUP3 ADD MSTORE PUSH32 0x6D69746D656E7400000000000000000000000000000000000000000000000000 PUSH1 0x20 DUP3 ADD MSTORE POP JUMP JUMPDEST PUSH0 PUSH2 0x2DE2 PUSH1 0x27 DUP4 PUSH2 0x1C65 JUMP JUMPDEST SWAP2 POP PUSH2 0x2DED DUP3 PUSH2 0x2D88 JUMP JUMPDEST PUSH1 0x40 DUP3 ADD SWAP1 POP SWAP2 SWAP1 POP JUMP JUMPDEST PUSH0 PUSH1 0x20 DUP3 ADD SWAP1 POP DUP2 DUP2 SUB PUSH0 DUP4 ADD MSTORE PUSH2 0x2E0F DUP2 PUSH2 0x2DD6 JUMP JUMPDEST SWAP1 POP SWAP2 SWAP1 POP JUMP JUMPDEST PUSH0 PUSH1 0x60 DUP3 ADD SWAP1 POP PUSH2 0x2E29 PUSH0 DUP4 ADD DUP7 PUSH2 0x1BC1 JUMP JUMPDEST PUSH2 0x2E36 PUSH1 0x20 DUP4 ADD DUP6 PUSH2 0x1BC1 JUMP JUMPDEST PUSH2 0x2E43 PUSH1 0x40 DUP4 ADD DUP5 PUSH2 0x1BC1 JUMP JUMPDEST SWAP5 SWAP4 POP POP POP POP JUMP JUMPDEST PUSH32 0x4C6F7474657279206973206E6F74206163746976650000000000000000000000 PUSH0 DUP3 ADD MSTORE POP JUMP JUMPDEST PUSH0 PUSH2 0x2E7F PUSH1 0x15 DUP4 PUSH2 0x1C65 JUMP JUMPDEST SWAP2 POP PUSH2 0x2E8A DUP3 PUSH2 0x2E4B JUMP JUMPDEST PUSH1 0x20 DUP3 ADD SWAP1 POP SWAP2 SWAP1 POP JUMP JUMPDEST PUSH0 PUSH1 0x20 DUP3 ADD SWAP1 POP DUP2 DUP2 SUB PUSH0 DUP4 ADD MSTORE PUSH2 0x2EAC DUP2 PUSH2 0x2E73 JUMP JUMPDEST SWAP1 POP SWAP2 SWAP1 POP JUMP JUMPDEST PUSH32 0x4C6F74746572792068617320656E646564000000000000000000000000000000 PUSH0 DUP3 ADD MSTORE POP JUMP JUMPDEST PUSH0 PUSH2 0x2EE7 PUSH1 0x11 DUP4 PUSH2 0x1C65 JUMP JUMPDEST SWAP2 POP PUSH2 0x2EF2 DUP3 PUSH2 0x2EB3 JUMP JUMPDEST PUSH1 0x20 DUP3 ADD SWAP1 POP SWAP2 SWAP1 POP JUMP JUMPDEST PUSH0 PUSH1 0x20 DUP3 ADD SWAP1 POP DUP2 DUP2 SUB PUSH0 DUP4 ADD MSTORE PUSH2 0x2F14 DUP2 PUSH2 0x2EDB JUMP JUMPDEST SWAP1 POP SWAP2 SWAP1 POP JUMP JUMPDEST PUSH32 0x4E6F7420656E6F756768207469636B65747320617661696C61626C6500000000 PUSH0 DUP3 ADD MSTORE POP JUMP JUMPDEST PUSH0 PUSH2 0x2F4F PUSH1 0x1C DUP4 PUSH2 0x1C65 JUMP JUMPDEST SWAP2 POP PUSH2 0x2F5A DUP3 PUSH2 0x2F1B JUMP JUMPDEST PUSH1 0x20 DUP3 ADD SWAP1 POP SWAP2 SWAP1 POP JUMP JUMPDEST PUSH0 PUSH1 0x20 DUP3 ADD SWAP1 POP DUP2 DUP2 SUB PUSH0 DUP4 ADD MSTORE PUSH2 0x2F7C DUP2 PUSH2 0x2F43 JUMP JUMPDEST SWAP1 POP SWAP2 SWAP1 POP JUMP JUMPDEST PUSH0 PUSH2 0x2F8D DUP3 PUSH2 0x1AF2 JUMP JUMPDEST SWAP2 POP PUSH2 0x2F98 DUP4 PUSH2 0x1AF2 JUMP JUMPDEST SWAP3 POP DUP3 DUP3 MUL PUSH2 0x2FA6 DUP2 PUSH2 0x1AF2 JUMP JUMPDEST SWAP2 POP DUP3 DUP3 DIV DUP5 EQ DUP4 ISZERO OR PUSH2 0x2FBD JUMPI PUSH2 0x2FBC PUSH2 0x26D5 JUMP JUMPDEST JUMPDEST POP SWAP3 SWAP2 POP POP JUMP JUMPDEST PUSH0 PUSH1 0x60 DUP3 ADD SWAP1 POP PUSH2 0x2FD7 PUSH0 DUP4 ADD DUP7 PUSH2 0x2B02 JUMP JUMPDEST PUSH2 0x2FE4 PUSH1 0x20 DUP4 ADD DUP6 PUSH2 0x1BC1 JUMP JUMPDEST PUSH2 0x2FF1 PUSH1 0x40 DUP4 ADD DUP5 PUSH2 0x1DD5 JUMP JUMPDEST SWAP5 SWAP4 POP POP POP POP JUMP JUMPDEST PUSH0 PUSH2 0x3003 DUP3 PUSH2 0x1AF2 JUMP JUMPDEST SWAP2 POP PUSH2 0x300E DUP4 PUSH2 0x1AF2 JUMP JUMPDEST SWAP3 POP DUP3 PUSH2 0x301E JUMPI PUSH2 0x301D PUSH2 0x27EE JUMP JUMPDEST JUMPDEST DUP3 DUP3 MOD SWAP1 POP SWAP3 SWAP2 POP POP JUMP INVALID LOG2 PUSH5 0x6970667358 0x22 SLT KECCAK256 0xC CALLDATALOAD 0xEE DUP2 DUP4 CALL SWAP3 DUP3 0xB4 BALANCE PC SUB LOG4 NOT CREATE2 GASLIMIT SUB NUMBER MCOPY CREATE 0xD2 SELFBALANCE SWAP2 SWAP6 PUSH28 0xC305D9CFC1A4AA64736F6C634300081A003300000000000000000000 "
		},
		"gasEstimates": {
			"creation": {
				"codeDepositCost": "2476600",
				"executionCost": "infinite",
				"totalCost": "infinite"
			},
			"external": {
				"addressToTickets(address,uint256,uint256)": "infinite",
				"buyTicketTx(uint256,uint8,bytes32)": "infinite",
				"checkIfAddrTicketWon(address,uint256,uint256)": "infinite",
				"checkIfMyTicketWon(uint256,uint256)": "infinite",
				"createLottery(uint256,uint256,uint256,uint256,uint256,bytes32,string)": "infinite",
				"currentLotteryNo()": "2541",
				"determineWinner(uint256)": "infinite",
				"getCurrentLotteryNo()": "2636",
				"getIthPurchasedTicketTx(uint256,uint256)": "infinite",
				"getLotteryInfo(uint32)": "infinite",
				"getLotterySales(uint256)": "infinite",
				"getLotteryURL(uint256)": "infinite",
				"getNumPurchaseTxs(uint256)": "infinite",
				"getPaymentToken(uint256)": "2880",
				"lotteries(uint256)": "infinite",
				"lotteryTickets(uint256,uint256)": "infinite",
				"lotteryWinners(uint256,uint256)": "infinite",
				"owner()": "2531",
				"randomNumbers(uint256,uint256)": "infinite",
				"revealRndNumberTx(uint256,uint256,uint256,uint256)": "infinite",
				"setPaymentToken(address)": "29281",
				"ticketToken()": "infinite",
				"withdrawTicketRefund(uint256,uint256)": "infinite"
			}
		},
		"methodIdentifiers": {
			"addressToTickets(address,uint256,uint256)": "fba2b874",
			"buyTicketTx(uint256,uint8,bytes32)": "bd731a06",
			"checkIfAddrTicketWon(address,uint256,uint256)": "5bddbaac",
			"checkIfMyTicketWon(uint256,uint256)": "12b349d5",
			"createLottery(uint256,uint256,uint256,uint256,uint256,bytes32,string)": "7df858db",
			"currentLotteryNo()": "0400f4d0",
			"determineWinner(uint256)": "efe43338",
			"getCurrentLotteryNo()": "5b7b3d58",
			"getIthPurchasedTicketTx(uint256,uint256)": "89b2acbc",
			"getLotteryInfo(uint32)": "e5d387a5",
			"getLotterySales(uint256)": "cc42a7c5",
			"getLotteryURL(uint256)": "dc969f22",
			"getNumPurchaseTxs(uint256)": "adc51cdb",
			"getPaymentToken(uint256)": "cdc2aebf",
			"lotteries(uint256)": "1398e076",
			"lotteryTickets(uint256,uint256)": "49c0de88",
			"lotteryWinners(uint256,uint256)": "603d3d3a",
			"owner()": "8da5cb5b",
			"randomNumbers(uint256,uint256)": "91e19a2d",
			"revealRndNumberTx(uint256,uint256,uint256,uint256)": "9065c335",
			"setPaymentToken(address)": "6a326ab1",
			"ticketToken()": "d5ed4d5a",
			"withdrawTicketRefund(uint256,uint256)": "687e47d8"
		}
	},
	"abi": [
		{
			"inputs": [
				{
					"internalType": "address",
					"name": "_ticketTokenAddress",
					"type": "address"
				}
			],
			"stateMutability": "nonpayable",
			"type": "constructor"
		},
		{
			"anonymous": false,
			"inputs": [
				{
					"indexed": false,
					"internalType": "uint256",
					"name": "lottery_no",
					"type": "uint256"
				},
				{
					"indexed": false,
					"internalType": "uint256",
					"name": "unixbeg",
					"type": "uint256"
				},
				{
					"indexed": false,
					"internalType": "uint256",
					"name": "nooftickets",
					"type": "uint256"
				}
			],
			"name": "LotteryCreated",
			"type": "event"
		},
		{
			"anonymous": false,
			"inputs": [
				{
					"indexed": false,
					"internalType": "uint256",
					"name": "lottery_no",
					"type": "uint256"
				},
				{
					"indexed": false,
					"internalType": "uint256",
					"name": "ticketNo",
					"type": "uint256"
				},
				{
					"indexed": false,
					"internalType": "uint256",
					"name": "rnd_number",
					"type": "uint256"
				}
			],
			"name": "RandomNumberRevealed",
			"type": "event"
		},
		{
			"anonymous": false,
			"inputs": [
				{
					"indexed": false,
					"internalType": "uint256",
					"name": "lottery_no",
					"type": "uint256"
				},
				{
					"indexed": false,
					"internalType": "address",
					"name": "participant",
					"type": "address"
				},
				{
					"indexed": false,
					"internalType": "uint256",
					"name": "refundAmount",
					"type": "uint256"
				}
			],
			"name": "RefundWithdrawn",
			"type": "event"
		},
		{
			"anonymous": false,
			"inputs": [
				{
					"indexed": false,
					"internalType": "uint256",
					"name": "lottery_no",
					"type": "uint256"
				},
				{
					"indexed": false,
					"internalType": "uint256",
					"name": "ticketNo",
					"type": "uint256"
				},
				{
					"indexed": false,
					"internalType": "uint8",
					"name": "quantity",
					"type": "uint8"
				}
			],
			"name": "TicketPurchased",
			"type": "event"
		},
		{
			"inputs": [
				{
					"internalType": "address",
					"name": "",
					"type": "address"
				},
				{
					"internalType": "uint256",
					"name": "",
					"type": "uint256"
				},
				{
					"internalType": "uint256",
					"name": "",
					"type": "uint256"
				}
			],
			"name": "addressToTickets",
			"outputs": [
				{
					"internalType": "uint256",
					"name": "",
					"type": "uint256"
				}
			],
			"stateMutability": "view",
			"type": "function"
		},
		{
			"inputs": [
				{
					"internalType": "uint256",
					"name": "lottery_no",
					"type": "uint256"
				},
				{
					"internalType": "uint8",
					"name": "quantity",
					"type": "uint8"
				},
				{
					"internalType": "bytes32",
					"name": "hash_rnd_number",
					"type": "bytes32"
				}
			],
			"name": "buyTicketTx",
			"outputs": [
				{
					"internalType": "uint256",
					"name": "sticketno",
					"type": "uint256"
				}
			],
			"stateMutability": "nonpayable",
			"type": "function"
		},
		{
			"inputs": [
				{
					"internalType": "address",
					"name": "addr",
					"type": "address"
				},
				{
					"internalType": "uint256",
					"name": "lottery_no",
					"type": "uint256"
				},
				{
					"internalType": "uint256",
					"name": "ticket_no",
					"type": "uint256"
				}
			],
			"name": "checkIfAddrTicketWon",
			"outputs": [
				{
					"internalType": "bool",
					"name": "won",
					"type": "bool"
				}
			],
			"stateMutability": "view",
			"type": "function"
		},
		{
			"inputs": [
				{
					"internalType": "uint256",
					"name": "lottery_no",
					"type": "uint256"
				},
				{
					"internalType": "uint256",
					"name": "ticketNo",
					"type": "uint256"
				}
			],
			"name": "checkIfMyTicketWon",
			"outputs": [
				{
					"internalType": "bool",
					"name": "won",
					"type": "bool"
				}
			],
			"stateMutability": "view",
			"type": "function"
		},
		{
			"inputs": [
				{
					"internalType": "uint256",
					"name": "unixbeg",
					"type": "uint256"
				},
				{
					"internalType": "uint256",
					"name": "nooftickets",
					"type": "uint256"
				},
				{
					"internalType": "uint256",
					"name": "noofwinners",
					"type": "uint256"
				},
				{
					"internalType": "uint256",
					"name": "minpercentage",
					"type": "uint256"
				},
				{
					"internalType": "uint256",
					"name": "ticketprice",
					"type": "uint256"
				},
				{
					"internalType": "bytes32",
					"name": "htmlhash",
					"type": "bytes32"
				},
				{
					"internalType": "string",
					"name": "url",
					"type": "string"
				}
			],
			"name": "createLottery",
			"outputs": [
				{
					"internalType": "uint256",
					"name": "lottery_no",
					"type": "uint256"
				}
			],
			"stateMutability": "nonpayable",
			"type": "function"
		},
		{
			"inputs": [],
			"name": "currentLotteryNo",
			"outputs": [
				{
					"internalType": "uint32",
					"name": "",
					"type": "uint32"
				}
			],
			"stateMutability": "view",
			"type": "function"
		},
		{
			"inputs": [
				{
					"internalType": "uint256",
					"name": "lottery_no",
					"type": "uint256"
				}
			],
			"name": "determineWinner",
			"outputs": [
				{
					"internalType": "uint256",
					"name": "winner_ticket_no",
					"type": "uint256"
				}
			],
			"stateMutability": "view",
			"type": "function"
		},
		{
			"inputs": [],
			"name": "getCurrentLotteryNo",
			"outputs": [
				{
					"internalType": "uint32",
					"name": "lottery_no",
					"type": "uint32"
				}
			],
			"stateMutability": "view",
			"type": "function"
		},
		{
			"inputs": [
				{
					"internalType": "uint256",
					"name": "i",
					"type": "uint256"
				},
				{
					"internalType": "uint256",
					"name": "lottery_no",
					"type": "uint256"
				}
			],
			"name": "getIthPurchasedTicketTx",
			"outputs": [
				{
					"internalType": "uint256",
					"name": "sticketno",
					"type": "uint256"
				},
				{
					"internalType": "uint8",
					"name": "quantity",
					"type": "uint8"
				}
			],
			"stateMutability": "view",
			"type": "function"
		},
		{
			"inputs": [
				{
					"internalType": "uint32",
					"name": "lottery_no",
					"type": "uint32"
				}
			],
			"name": "getLotteryInfo",
			"outputs": [
				{
					"internalType": "uint256",
					"name": "unixbeg",
					"type": "uint256"
				},
				{
					"internalType": "uint256",
					"name": "nooftickets",
					"type": "uint256"
				},
				{
					"internalType": "uint256",
					"name": "noofwinners",
					"type": "uint256"
				},
				{
					"internalType": "uint256",
					"name": "minpercentage",
					"type": "uint256"
				},
				{
					"internalType": "uint256",
					"name": "ticketprice",
					"type": "uint256"
				}
			],
			"stateMutability": "view",
			"type": "function"
		},
		{
			"inputs": [
				{
					"internalType": "uint256",
					"name": "lottery_no",
					"type": "uint256"
				}
			],
			"name": "getLotterySales",
			"outputs": [
				{
					"internalType": "uint256",
					"name": "numsold",
					"type": "uint256"
				}
			],
			"stateMutability": "view",
			"type": "function"
		},
		{
			"inputs": [
				{
					"internalType": "uint256",
					"name": "lottery_no",
					"type": "uint256"
				}
			],
			"name": "getLotteryURL",
			"outputs": [
				{
					"internalType": "bytes32",
					"name": "htmlhash",
					"type": "bytes32"
				},
				{
					"internalType": "string",
					"name": "url",
					"type": "string"
				}
			],
			"stateMutability": "view",
			"type": "function"
		},
		{
			"inputs": [
				{
					"internalType": "uint256",
					"name": "lottery_no",
					"type": "uint256"
				}
			],
			"name": "getNumPurchaseTxs",
			"outputs": [
				{
					"internalType": "uint256",
					"name": "numpurchasetxs",
					"type": "uint256"
				}
			],
			"stateMutability": "view",
			"type": "function"
		},
		{
			"inputs": [
				{
					"internalType": "uint256",
					"name": "lottery_no",
					"type": "uint256"
				}
			],
			"name": "getPaymentToken",
			"outputs": [
				{
					"internalType": "address",
					"name": "erctokenaddr",
					"type": "address"
				}
			],
			"stateMutability": "view",
			"type": "function"
		},
		{
			"inputs": [
				{
					"internalType": "uint256",
					"name": "",
					"type": "uint256"
				}
			],
			"name": "lotteries",
			"outputs": [
				{
					"internalType": "uint256",
					"name": "unixbeg",
					"type": "uint256"
				},
				{
					"internalType": "uint256",
					"name": "nooftickets",
					"type": "uint256"
				},
				{
					"internalType": "uint256",
					"name": "noofwinners",
					"type": "uint256"
				},
				{
					"internalType": "uint256",
					"name": "minpercentage",
					"type": "uint256"
				},
				{
					"internalType": "uint256",
					"name": "ticketprice",
					"type": "uint256"
				},
				{
					"internalType": "uint256",
					"name": "numsold",
					"type": "uint256"
				},
				{
					"internalType": "enum LotteryStructs.LotteryState",
					"name": "state",
					"type": "uint8"
				},
				{
					"internalType": "uint256",
					"name": "numpurchasetxs",
					"type": "uint256"
				},
				{
					"internalType": "uint256",
					"name": "sticketno",
					"type": "uint256"
				},
				{
					"internalType": "bytes32",
					"name": "htmlhash",
					"type": "bytes32"
				},
				{
					"internalType": "string",
					"name": "url",
					"type": "string"
				},
				{
					"internalType": "address",
					"name": "erctokenaddr",
					"type": "address"
				}
			],
			"stateMutability": "view",
			"type": "function"
		},
		{
			"inputs": [
				{
					"internalType": "uint256",
					"name": "",
					"type": "uint256"
				},
				{
					"internalType": "uint256",
					"name": "",
					"type": "uint256"
				}
			],
			"name": "lotteryTickets",
			"outputs": [
				{
					"internalType": "address",
					"name": "participant",
					"type": "address"
				},
				{
					"internalType": "uint8",
					"name": "quantity",
					"type": "uint8"
				},
				{
					"internalType": "bytes32",
					"name": "hash_rnd_number",
					"type": "bytes32"
				},
				{
					"internalType": "bool",
					"name": "revealed",
					"type": "bool"
				}
			],
			"stateMutability": "view",
			"type": "function"
		},
		{
			"inputs": [
				{
					"internalType": "uint256",
					"name": "",
					"type": "uint256"
				},
				{
					"internalType": "uint256",
					"name": "",
					"type": "uint256"
				}
			],
			"name": "lotteryWinners",
			"outputs": [
				{
					"internalType": "uint256",
					"name": "",
					"type": "uint256"
				}
			],
			"stateMutability": "view",
			"type": "function"
		},
		{
			"inputs": [],
			"name": "owner",
			"outputs": [
				{
					"internalType": "address",
					"name": "",
					"type": "address"
				}
			],
			"stateMutability": "view",
			"type": "function"
		},
		{
			"inputs": [
				{
					"internalType": "uint256",
					"name": "",
					"type": "uint256"
				},
				{
					"internalType": "uint256",
					"name": "",
					"type": "uint256"
				}
			],
			"name": "randomNumbers",
			"outputs": [
				{
					"internalType": "uint256",
					"name": "",
					"type": "uint256"
				}
			],
			"stateMutability": "view",
			"type": "function"
		},
		{
			"inputs": [
				{
					"internalType": "uint256",
					"name": "lottery_no",
					"type": "uint256"
				},
				{
					"internalType": "uint256",
					"name": "sticketno",
					"type": "uint256"
				},
				{
					"internalType": "uint256",
					"name": "quantity",
					"type": "uint256"
				},
				{
					"internalType": "uint256",
					"name": "rnd_number",
					"type": "uint256"
				}
			],
			"name": "revealRndNumberTx",
			"outputs": [],
			"stateMutability": "nonpayable",
			"type": "function"
		},
		{
			"inputs": [
				{
					"internalType": "address",
					"name": "ercTokenAddr",
					"type": "address"
				}
			],
			"name": "setPaymentToken",
			"outputs": [],
			"stateMutability": "nonpayable",
			"type": "function"
		},
		{
			"inputs": [],
			"name": "ticketToken",
			"outputs": [
				{
					"internalType": "contract TicketToken",
					"name": "",
					"type": "address"
				}
			],
			"stateMutability": "view",
			"type": "function"
		},
		{
			"inputs": [
				{
					"internalType": "uint256",
					"name": "lottery_no",
					"type": "uint256"
				},
				{
					"internalType": "uint256",
					"name": "sticketNo",
					"type": "uint256"
				}
			],
			"name": "withdrawTicketRefund",
			"outputs": [],
			"stateMutability": "nonpayable",
			"type": "function"
		}
	]
}